:020000040800F2
:100000000004002011010008E1020008E1020008DC
:10001000E1020008E1020008E1020008E102000834
:10002000E1020008E1020008E102000811030008F3
:10003000E1020008E1020008E1020008E103000813
:10004000E1020008E11D0008E1020008E1020008E9
:10005000E1020008E1020008E11B0008111C000891
:10006000411C0008711C0008A11C000801180008B0
:100070003118000861180008A1180008E1180008EC
:100080002119000861190008E1020008E1020008D6
:10009000E1020008E1020008E1020008D11C0008AA
:1000A000E1020008C11F0008E1020008E1020008A7
:1000B00001200008412000088120000801240008D8
:1000C00021250008E1020008E1020008E102000821
:1000D000E1020008D12A0008E1020008E10200085C
:0C00E000511D0008E1020008111E00087C
:1000F000704700BFAFF30080AFF30080AFF3008024
:10010000FEE700BFAFF30080AFF30080AFF30080E5
:1001100072B6634880F30988022383F31488BFF31F
:100120006F8F604A604CA24217D213464FF0553190
:10013000D64343F8041BA519A342C5F380050CD28E
:1001400025B1196002F10803A34206D21A4642F80B
:10015000041B5960131DA342F8D3544A824217D29C
:1001600013464FF05531D54343F8041B44198342DD
:10017000C4F380040CD224B1196002F10803834255
:1001800006D21E4646F8041B5960331D8342F8D33D
:1001900002F096FE464C4749A14222D246480B4601
:1001A000024652F8046BCD4343F8046B04EB050C94
:1001B000A342CCF3800514D23DB1166800F10802C9
:1001C0001E6001F10803A3420BD2104650F8045BF5
:1001D000194641F8045B5668021D5E600B1DA34280
:1001E000F3D3364A3648824217D200211346D4430D
:1001F00043F8041B00EB040E8342CEF380040CD2C0
:1002000024B1196002F10803834206D21A4642F86B
:10021000041B5960131D8342F8D32A4D2A4EFFF761
:1002200067FFB54219D22C4654F8043BE9437718CE
:100230009847B442C7F380070FD22FB1236805F166
:1002400008049847B44208D2254655F8042B904735
:1002500060682C1D8047B442F6D31C4D1C4E03F041
:100260002FFCB5421AD22C46EF4354F8043B06EB60
:10027000070CCCF380079847B4420FD22FB1226805
:1002800005F108049047B44208D2254655F8040BFE
:10029000804761682C1D8847B442F6D3FFF730BF12
:1002A00000080020000000200004002000040020BE
:1002B0001008002000080020E05600081008002068
:1002C000902E0020EC000008EC000008EC00000874
:1002D000EC000008AFF30080AFF30080AFF30080C4
:1002E000FEE700BFAFF30080AFF30080AFF3008004
:1002F00072B6FEE7AFF30080AFF30080AFF300808B
:1003000000F08EF900F0F4FB00F0AAF900DF00BF66
:10031000EFF30983203383F30988002383F31188E3
:10032000704700BFAFF30080AFF30080AFF30080F1
:100330000A4B002210B59A60094A07201021DA60A2
:1003400000F0C6F80A204FF4007100F0C1F80B204D
:100350008021BDE8104000F0BBB800BF00ED00E018
:100360000000FA05AFF30080AFF30080AFF3008028
:10037000202383F311881648436813F4006316D0D2
:10038000EFF30983203B83F30988124A4FF0807012
:100390009169D86171B11068D2698168926891429F
:1003A00094BF002201227AB10B499961704783F30F
:1003B000118870471068D26981689268914234BF91
:1003C00000220122002AEFD1044A9A61704700BF3F
:1003D00000ED00E03C0D0020010300080C030008C4
:1003E00010B500F09DF9202383F3118800F058F92F
:1003F00000F0CEF800F074F9002383F3118800F0C8
:10040000AFF9BDE81040FFF7B3BF00BFAFF3008006
:100410002DE9F04FC1F80CD0D0F80CD0BDE8F08F2A
:1004200008B500F01DF9002383F311882846A04782
:1004300000F076FC08BD00BFAFF30080AFF3008092
:10044000F0B400F00307FE00FF2313FA06F200F0F9
:100450001F04B1400125A5408608094CC03654F858
:100460002670400927EA020242EA010300F1600710
:1004700044F8263044F8275044F82050F0BC704728
:1004800000E100E0AFF30080AFF30080AFF3008045
:1004900010B400F01F020124944000F00301CA00D0
:1004A000FF2313FA02F24109064B2031800843F87A
:1004B0002140C03053F8201021EA020243F82020E6
:1004C00010BC704700E100E0AFF30080AFF30080A4
:1004D00000F0030210B4FF23D40013FA04F2A14089
:1004E0008008064C063054F8203023EA020242EA23
:1004F000010344F8203010BC704700BF00ED00E05D
:100500000248034AC3699A61FEE700BF3C0D002020
:10051000304D0008AFF30080AFF30080AFF30080F0
:1005200030B583B0FFF704FF00F012FA00F0A8F92D
:1005300000F0DEFE00F064F940210E4800F000FB00
:100540000D4D0E490124E86180F82040C16100F0A2
:100550004FF8002383F3118862B6EA691D46084B01
:10056000C021936107482246074B009500F050FBDD
:1005700003B030BD100800203C0D00200004002016
:10058000384D00085808002001050008AFF300802E
:1005900070B500F005F9114B9A69002A01DD013AA6
:1005A0009A61DA690E4C516A2368481C5062E1680E
:1005B000481CA342E0600FD09D68013D9D605DB97D
:1005C00026461968DA681869DD604E602160904738
:1005D000236898680028F4D070BD00BF3C0D00204F
:1005E0002C0D0020AFF30080AFF30080AFF300804C
:1005F0000548036813B9054A116821B10448054B41
:100600001860FFF775BE704718090020240D002000
:10061000504D0008280D0020AFF30080AFF300809C
:10062000084810B5036853B9074C216821B1074A3F
:10063000074B1A60FFF75CFE0120206010BD024CE2
:10064000F5E700BF18090020240D0020584D0008D0
:10065000280D0020AFF30080AFF30080AFF30080DF
:10066000094810B5036833B9084C2168002903DD37
:100670000020206010BD054C054A064B1A60FFF7AC
:1006800037FE0020206010BD18090020240D002036
:10069000604D0008280D0020AFF30080AFF300800C
:1006A000084810B50368002B0ADD074C216821B10A
:1006B000064A074B1A60FFF71BFE0120206010BDA1
:1006C000014CF5E718090020240D0020684D0008B2
:1006D000280D0020AFF30080AFF30080AFF300805F
:1006E0000A4810B50368002B06DD094C2168002973
:1006F00003DD0020206010BD054C064A064B1A6041
:10070000FFF7F6FD0020206010BD00BF1809002093
:10071000240D0020704D0008280D0020AFF300804C
:1007200010B5202383F31188094C2368002B02DBCA
:10073000084802682AB1084B08491960FFF7D8FD3C
:1007400023685A1C2260002383F3118810BD00BF68
:1007500018090020240D0020280D0020784D0008E5
:1007600010B5202383F31188094C2368002B02DD88
:10077000084802682AB1084B08491960FFF7B8FD1C
:1007800023685A1E2260002383F3118810BD00BF26
:1007900018090020240D0020280D0020804D00089D
:1007A00006480368002B04DB054A1168002900DDB8
:1007B00070470448044B1860FFF79ABD18090020E1
:1007C000240D0020884D0008280D0020AFF3008084
:1007D0000648036823B9064A1168002900DD7047FE
:1007E0000448054B1860FFF783BD00BF18090020BF
:1007F000240D0020904D0008280D0020AFF300804C
:10080000034A4021134643F8081B5360704700BF5A
:100810001C090020AFF30080AFF30080AFF300802D
:1008200010B40D4A0D4C0E495368E468C9691C6048
:100830005960846A03F110019C6090F8204002F531
:10084000816081421C7328BF02F10803516028BFF8
:10085000536010BC704700BF1C0900202C0D002005
:100860003C0D0020AFF30080AFF30080AFF30080B9
:10087000014B1860FFF73CBD280D0020AFF300804E
:10088000044B4FF0FF3000225B601B609860DA6021
:10089000704700BF2C0D0020AFF30080AFF3008045
:1008A000F8B504460D4616461F46FFF779FFCCB152
:1008B000C6B1BDB10D4927610B68E6609A689542E3
:1008C00004D91B68AD1A9A68AA42FAD35A688B42B7
:1008D0002360626014605C60A56002D09868451B6C
:1008E0009D60F8BD0248FFF7C3FFE3E72C0D002031
:1008F000A04D0008AFF30080AFF30080AFF300809D
:1009000010B50446FFF74CFF84B1E36893B1236848
:100910000A4A934203D09968A26888189860606870
:10092000002203602368E260586010BD0448FFF7AE
:100930009FFFEAE70348FFF79BFFE8E72C0D002045
:10094000B04D0008C04D0008AFF30080AFF3008049
:10095000044B002014225B601B6098609A615B610D
:100960001B6170473C0D0020AFF30080AFF30080A7
:1009700010B590F8203004468BB10E2B0FD000221A
:10098000094BA16884F820201B6898688842FBD234
:100990005968236061600C605C60204610BD0348AC
:1009A000FFF766FFEBE700BF3C0D0020E04D0008BD
:1009B00090F820300D2B11D8DFE803F01510100748
:1009C000100B101010101010100B816A8B685A1C3D
:1009D0008A60416803680B60026851604FF0FF3223
:1009E0008262FFF7C5BF7047AFF30080AFF30080AE
:1009F00070B5114C0646FFF7EBFEE569142085F84B
:100A00002060236801211A6883F82010A0615460D7
:100A100028462260E361FFF703FFEA69ADF1240392
:100A20009A4202D90548FFF723FFE0692946BDE84D
:100A30007040FFF7EDBC00BF3C0D0020F44D0008F6
:100A400070B50E4686B00546FFF7C2FEB6F1FF3F11
:100A500012D00C4C3146E3690B4A01A8FFF720FF86
:100A60002846FFF7C5FF049B13B101A8FFF748FF15
:100A7000E069806A06B070BD2846FFF7B9FF014CF7
:100A8000F6E700BF3C0D0020B1090008AFF300807D
:100A900070B5154D04460E46FFF79AFEE869A26848
:100AA0008368A6629A4215D9FFF762FF01231422D8
:100AB000064684F82030AA61EC61FFF7B1FEF069C8
:100AC000ADF1240188420AD820463146BDE8704085
:100AD000FFF79EBC2046BDE87040FFF749BF0348C2
:100AE000FFF7C6FEF0E700BF3C0D0020F44D000804
:100AF00070B5104C01212368E5691A681420A061C3
:100B000083F82010546028462260E361FFF730FF2D
:100B10002846FFF785FEEA69ADF124039A4202D91F
:100B20000548FFF7A5FEE0692946BDE87040FFF7DC
:100B30006FBC00BF3C0D0020F44D0008AFF30080F7
:100B4000F0B400220E4C022580F8205080F82120BD
:100B5000656900F1300600F12C0C00F148070461D2
:100B600081604561416460610264C2634262826186
:100B70002861C0F82CC046630663C761F0BC7047AB
:100B80003C0D0020AFF30080AFF30080AFF3008096
:100B9000F8B504460D4616461F46FFF701FE0CB198
:100BA000AF2D28D81648FFF763FE243D6119E16098
:100BB00006986751134F0023134A022548600F62BD
:100BC00084F8205084F82130506904F1300104F198
:100BD0002C0704F1480522616061A66066645461D7
:100BE00023640461E3636362A361E7626163216379
:100BF000E5612046F8BD7F2ED4D8002FD5D1D1E7AE
:100C0000104E0008210400083C0D0020AFF30080C6
:100C1000F0B504460D461F4683B0164648302346BD
:100C2000FF211A4602F8011B5970531C8342F8D168
:100C30006019834215D25521DA4303F8011B00EBFA
:100C4000020C83420CF001020BD01AB103F8011B15
:100C5000834206D01A4602F8011B5970531C834286
:100C6000F8D1202383F31188FFF7DAFC2046089C93
:100C70003B46324629460094FFF78AFF002104468E
:100C8000FFF706FFFFF7ECFC002383F311882046F3
:100C900003B0F0BDAFF30080AFF30080AFF300808E
:100CA00010B5044610B90948FFF7E2FD202383F38D
:100CB0001188FFF7B5FC21460620FFF7C1FEFFF7BC
:100CC000CFFC002383F3118810BD00BF504E0008F5
:100CD000114B70B5DC69254655F82C3FA062AB423C
:100CE00007D01A681846E262FFF742FEE36AAB4299
:100CF000F7D194F8210010F0030F04D16369226941
:100D00001A6121694B610E20FFF772FE0348BDE8AE
:100D10007040FFF7ADBD00BF3C0D0020604E0008E5
:100D200010B52023044683F31188FFF779FC204691
:100D3000BDE81040FFF7CCBFAFF30080AFF30080F9
:100D400010B5044620B1002364602460A36010BD88
:100D50000348FFF78DFD002364602460A36010BD8D
:100D6000A04E0008AFF30080AFF30080AFF3008027
:100D70003B4B2DE9F0410546DC69FFF729FD002DCD
:100D80006AD0A868002836D0A2688168914208D24B
:100D900090F820308260042B46D0052B31D0002BF8
:100DA0001ED02B461B689D4203D09868A1688842DC
:100DB000F8D25A682360626004205C601460A56207
:100DC000FFF716FEAB68A34202D02648FFF750FD9E
:100DD000206CA84213D02448BDE8F041FFF748BD7D
:100DE0004368026801211A60026880F8201053608D
:100DF000FFF7BEFDD5E7216CAC60E9602564BDE876
:100E0000F08141680768866A0F6007683346796039
:100E10001B689E4202D099689142F9D25A680360D9
:100E2000426010605860BCE741680768866A0F60DE
:100E30000768334679601B689E4202D099689142E8
:100E4000F9D25A680360426010605860B068A268C6
:100E5000836893429CD3A4E70448FFF709FD90E719
:100E60003C0D0020C04E0008D44E0008B04E0008D3
:100E700010B52023044683F31188FFF7D1FB2046E9
:100E8000FFF776FFFFF7ECFB002383F3118810BD1B
:100E9000214A70B52023D56983F31188FFF7C0FB81
:100EA0002C6C002C33D0A368AB4203D01B48FFF757
:100EB000DFFC2C6C2368E268A3422A641ED0686CB5
:100EC0004AB11168914203D08968884238BF084608
:100ED000D268002AF5D11A681E6CA8600021226031
:100EE00018465460A360E6601C64FFF7D1FDFFF76D
:100EF000B7FB002383F31188204670BD0020A0605B
:100F0000FFF7AEFB002383F31188204670BD044831
:100F1000FFF7AEFC2C6CC6E73C0D0020104F00081C
:100F2000FC4E0008AFF30080AFF30080AFF3008009
:100F300038B504460D46FFF733FCBCB1E26B94F8BC
:100F400020301543082BE5630CD0092B00D038BDA9
:100F5000A06A0540A842FAD12046FFF709FD00210A
:100F6000816238BDA36A1D42F6D138BD0148FFF742
:100F70007FFCE3E77C4F0008AFF30080AFF3008015
:100F800070B505460E46FFF70BFC65B12C68AC4208
:100F900008D0A168606846EA0101FFF7C9FF24682C
:100FA000AC42F6D170BD0248FFF762FCEEE700BF2D
:100FB000A04F0008AFF30080AFF30080AFF30080D4
:100FC00010B4034619B94FF0FF3010BC7047064CFF
:100FD0000D20E26993625C68136054605A6022607D
:100FE00010BCFFF72DBD00BF3C0D0020AFF300800B
:100FF00010B48A18002440600060846041618161FF
:10100000C1600261C36110BC704700BFAFF30080D4
:1010100038B504460D46FFF7C3FB6369A2699342E6
:1010200019D0A268511CA16003F8015B20696361BB
:10103000834228BFE368206828BF6361A04208D0CC
:10104000026822605460FFF793FC00238362184615
:1010500038BD002038BDA268002AE3D06FF003003D
:1010600038BD00BFAFF30080AFF30080AFF3008066
:10107000F8B504460D46202383F31188FFF7D0FA14
:10108000E3690BB120469847A6682046294656B921
:10109000FFF796FF071EF7DAFFF7E2FA334683F30E
:1010A00011883846F8BDA369013EA66013F8017B9C
:1010B0002269A361934224BFE368A361FFF7D0FADA
:1010C000002383F311883846F8BD00BFAFF30080DA
:1010D0002DE9F0470446904689461D46C769002A17
:1010E00037D0202383F31188FFF79AFA00260FB137
:1010F0002046B847D4F808A020462946BAF1000F88
:101100000BD1FFF75DFF0028F4D0FFF7A9FA534693
:1011100083F311883046BDE8F087A3690AF1FF31F7
:10112000A16013F8010B09F806002269A36193423C
:1011300024BFE368A361FFF793FA002383F31188C8
:1011400001364645E6D0202383F31188FFF768FA7D
:10115000CDE70248FFF78CFBC3E700BFE04F000874
:1011600010B48C1840600060826041618161C16090
:101170000461C36110BC7047AFF30080AFF300801F
:101180002DE9F041202304460D46164683F31188CD
:10119000FFF746FAA7682046314667B9FFF710FF08
:1011A000B0F10008F6DAFFF75BFA3B4683F31188EB
:1011B0004046BDE8F0816369013FA76003F8015B29
:1011C00022696361934224BFE3686361E3690BB101
:1011D00020469847FFF744FA002383F31188984686
:1011E0004046BDE8F08100BFAFF30080AFF3008060
:1011F00038B50446FFF7D4FAA36962699A4217D05A
:10120000A268511CA16013F8015B2069A3618342AD
:1012100028BFE368206828BFA361A04206D0026807
:1012200022605460FFF7A4FB00238362284638BD88
:10123000A268002AE5D06FF0020038BDAFF300804D
:101240002DE9F047044615460E469946D0F81C8015
:10125000002A40D0202383F31188FFF7E1F900270B
:10126000D4F808A020460AF1FF33BAF1000F24D0C9
:10127000A3603178636903F8011B226963619342BB
:1012800024BFE3686361B8F1000F00D0C047FFF7E7
:10129000E7F9002383F311880137013D18D00136A7
:1012A000202383F31188FFF7BBF9D4F808A0204668
:1012B0000AF1FF33BAF1000FDAD120464946FFF7B1
:1012C0007FFE0028CCD0FFF7CBF9534683F311887B
:1012D0003846BDE8F0870248FFF7CAFABAE700BF10
:1012E000F44F0008AFF30080AFF30080AFF300804D
:1012F000054B064A064823F00701064B116020F013
:1013000007021A60704700BF972E0020600D002072
:10131000005000205C0D0020AFF30080AFF3008090
:1013200010B500F0BDFB074801F0EAFC00F010F832
:1013300000F046F800F0FCF800F0DAF9BDE81040E3
:1013400001F0C6BD10550008AFF30080AFF3008078
:1013500000F076BDAFF30080AFF30080AFF3008004
:101360000121002301704360704700BFAFF300808C
:1013700038B504460D46C8B1C1B1202383F31188A6
:10138000FFF74EF92178481EC3B2012B02D9094854
:10139000FFF76EFA2046656000F05AFD02222270C7
:1013A000FFF75EF9002383F3118838BD0248FFF789
:1013B0005FFAE2E72050000810500008AFF3008009
:1013C00000F07EBEAFF30080AFF30080AFF300808B
:1013D0000121002301704360704700BFAFF300801C
:1013E00038B504460D46C8B1C1B1202383F3118836
:1013F000FFF716F92178481EC3B2012B02D909481C
:10140000FFF736FA2046656000F08AFE022222705D
:10141000FFF726F9002383F3118838BD0248FFF750
:1014200027FAE2E7BC500008B0500008AFF3008094
:1014300010B50446B8B1202383F31188FFF7F0F804
:101440002178481EC3B2012B02D90948FFF710FAD0
:10145000204600F0D5FE01222270FFF701F900239B
:1014600083F3118810BD0348FFF702FAE3E700BFDA
:10147000D8500008CC500008AFF30080AFF30080D4
:1014800070B504460D46FFF78BF96CB12378022B3B
:1014900002D00748FFF7ECF90420207029462046C7
:1014A000BDE8704000F0F4BE0248FFF7E1F9EDE757
:1014B000345100081C510008AFF30080AFF30080E6
:1014C00038B505460C46202383F31188FFF7A8F8AA
:1014D00028462146FFF7D4FFFFF7C2F8002383F325
:1014E000118838BDAFF30080AFF30080AFF3008008
:1014F00010B50446FFF754F974B12178881EC3B2C1
:10150000022B02D90648FFF7B3F9022220462270C7
:10151000BDE8104000F0CCBE0248FFF7A9F9ECE7A7
:10152000605100084C510008AFF30080AFF3008019
:1015300001F0A6B8AFF30080AFF30080AFF30080F6
:101540000121002301704360704700BFAFF30080AA
:1015500038B504460D46D8B1D1B12378581EC2B271
:10156000012A04D9052B02D00B48FFF781F920236B
:1015700083F31188FFF754F82046656001F098F86E
:1015800002232370FFF76CF8002383F3118838BD22
:101590000248FFF76DF9E0E7A051000890510008FC
:1015A0002DE9F04784B00446884691461D46DDF893
:1015B00030A00D9E0E9F08B100292AD11C48FFF7CC
:1015C00057F92378022B02D01A48FFF751F920234C
:1015D00083F31188FFF724F800210320A160207015
:1015E0002B46204641464A46CDF800A00196029778
:1015F00001F0C6F9B0F1FF3F054615D00223237074
:10160000FFF72EF8002383F31188284604B0BDE8C5
:10161000F087002BD2D0002AD0D016B1BAF1000F3B
:10162000CCD0002FCDD1C9E705222270E8E700BF5A
:10163000E051000800520008AFF30080AFF30080D3
:10164000806BD0F1010038BF00207047AFF30080FD
:101650008069D0F1010038BF00207047AFF30080EF
:1016600070B52023044683F311880026FEF7D8FFC7
:10167000A568A660FEF7F4FF334683F31188284679
:1016800070BD00BFAFF30080AFF30080AFF3008008
:101690001030FFF71DBD00BFAFF30080AFF3008037
:1016A00010304FF0FF33FFF713BD00BFAFF30080E2
:1016B0003030FFF7C5BD00BFAFF30080AFF300804F
:1016C00030304FF0FF33FFF7BBBD00BFAFF30080FA
:1016D0001030FFF7CDBC00BFAFF30080AFF3008048
:1016E0003030FFF74DBD00BFAFF30080AFF3008097
:1016F00001F0AEBAAFF30080AFF30080AFF300802B
:101700000B460F4970B50646044646F8041B666052
:101710000026A66001261546103004F150014FF452
:1017200000722673FFF764FC04F1300004F51471B5
:101730004FF400722B46BDE87040FFF711BD00BFAB
:10174000C0520008AFF30080AFF30080AFF3008019
:1017500038B504460D46C0B1202383F31188FEF747
:101760005FFF217B481EC3B2012B02D90948FFF756
:101770007FF82046294601F083FA02222273FEF701
:101780006FFF002383F3118838BD0348FFF770F81B
:10179000E2E700BF6C52000860520008AFF300801F
:1017A00070B504460D46FEF7FBFF002C21D0A16961
:1017B00039B104F110002946FFF72AFC00280EDB9E
:1017C00070BDA268201D42F00403A360FFF7D8FBA0
:1017D00004F110002946FFF71BFC0028F0DAA3688B
:1017E000201D43F08001A1600021BDE87040FFF79B
:1017F000C7BB0248FFF73CF8D9E700BF9852000882
:1018000010B5FEF78DFF0848084A03680F241168D9
:10181000546013B1406821409847FEF7A1FFBDE82E
:101820001040FEF7A5BD00BF640D0020000002407F
:1018300010B5FEF775FF0848084A8368F024116860
:1018400054601BB1C068C1F303119847FEF788FFCD
:10185000BDE81040FEF78CBD640D00200000024082
:1018600010B5FEF75DFF0948094A03694FF470643B
:10187000116854601BB14069C1F303219847FEF71A
:101880006FFFBDE81040FEF773BD00BF640D002080
:1018900000000240AFF30080AFF30080AFF30080A0
:1018A00010B5FEF73DFF0948094A83694FF47044BB
:1018B000116854601BB1C069C1F303319847FEF74A
:1018C0004FFFBDE81040FEF753BD00BF640D002080
:1018D00000000240AFF30080AFF30080AFF3008060
:1018E00010B5FEF71DFF0948094A036A4FF470243A
:1018F000116854601BB1406AC1F303419847FEF779
:101900002FFFBDE81040FEF733BD00BF640D00207F
:1019100000000240AFF30080AFF30080AFF300801F
:1019200010B5FEF7FDFE0948094A836A4FF47004BA
:10193000116854601BB1C06AC1F303519847FEF7A8
:101940000FFFBDE81040FEF713BD00BF640D00207F
:1019500000000240AFF30080AFF30080AFF30080DF
:1019600010B5FEF7DDFE0948094A036B4FF07064BD
:10197000116854601BB1406BC1F303619847FEF7D7
:10198000EFFEBDE81040FEF7F3BC00BF640D002081
:1019900000000240AFF30080AFF30080AFF300809F
:1019A000124BF0B4D3F800C0DF689E695D6A1C6B0F
:1019B000D86B996C0023CCF800300D4ADFF838C0A2
:1019C0003B601360336093602B601361236093610D
:1019D0000360136293621363CCF800300B60054B15
:1019E0004FF0FF325A60F0BC704700BF3053000820
:1019F000640D0020000002409C0D0020AFF3008029
:101A0000F0B5044685B0002833D0667A012505FA82
:101A100006FC1D4F38681CEA000F26D11B4D4CEA0E
:101A2000000010F07F0F05EBC60C45F83620CCF80F
:101A30000430386004D0164B5F6947F001065E61E0
:101A4000236860681F6827F001051D60267A0F274C
:101A500017FA06F6002506601D6042B1A07A09015A
:101A6000FEF7EEFC284605B0F0BD2846FBE7104621
:101A7000F9E70848039102920193FEF7F9FE019BF2
:101A8000029A0399C1E700BF9C0D0020640D00205D
:101A900000100240F0520008AFF30080AFF3008066
:101AA000224B00224FF0FF3030B421491C6900F571
:101AB0000C3C18611A61DD68D8600CF52070DA60A2
:101AC0001C4C486007208A600860E1681A4841F0B1
:101AD0008071E1600468194944F001040460D86928
:101AE00040F08050D861D86940F00060D861086843
:101AF00040F480700860186A00F44071B1F5407FCE
:101B000003D04FF4803119621A62084B1A6A12F43A
:101B1000004F07D1186A40F440721A62196A41F402
:101B20000040186230BCFFF73BBF00BF001002400E
:101B300010E000E0F0ED00E0001000E00070004078
:101B4000244B1868194640F001021A600B68214ABC
:101B500013F0020FFAD01368002003F0F9011160AE
:101B60001146506048681B4A10F00C0FFAD11068FB
:101B7000114640F4803313600B68164A13F4003F9B
:101B8000FAD0536A114643F001005062486A114A84
:101B900010F0020FFAD05068114640F4E813536079
:101BA000106840F0807313600B680A4A13F0007FDE
:101BB000FAD0094B0948122153600160536811465D
:101BC00043F0020050604A6802F00C0CBCF1080FB0
:101BD000F9D170470010024000641D00002002404F
:101BE00010B5FEF79DFD0748074A43680124002110
:101BF00054615B689847FEF7B3FDBDE81040FEF7FF
:101C0000B7BB00BFA00D002000040140AFF300806F
:101C100010B5FEF785FD0748074A436802240121F5
:101C20005461DB689847FEF79BFDBDE81040FEF766
:101C30009FBB00BFA00D002000040140AFF3008057
:101C400010B5FEF76DFD0748074A436804240221DA
:101C500054615B699847FEF783FDBDE81040FEF7CD
:101C600087BB00BFA00D002000040140AFF300803F
:101C700010B5FEF755FD0748074A436808240321BD
:101C80005461DB699847FEF76BFDBDE81040FEF735
:101C90006FBB00BFA00D002000040140AFF3008027
:101CA00010B5FEF73DFD0748074A4368102404219C
:101CB00054615B6A9847FEF753FDBDE81040FEF79C
:101CC00057BB00BFA00D002000040140AFF300800F
:101CD00010B5FEF725FD1B4A536903F4787413F021
:101CE000200F546128D114F0400F1FD114F0800F41
:101CF00016D114F4807F0DD114F4007F04D0124863
:101D000009214268D36C9847FEF72AFDBDE81040D0
:101D1000FEF72EBB0C4808214268536C9847EBE74E
:101D2000094807214268D36B9847E2E70648062135
:101D30004268536B9847D9E7034805214268D36A44
:101D40009847D0E700040140A00D0020AFF30080C9
:101D500010B5FEF7E5FC204A536903F47C4413F404
:101D6000806F546131D114F4006F28D114F4805F76
:101D70001FD114F4005F16D114F4804F0DD114F468
:101D8000004F04D015480F214268D36F9847FEF7E3
:101D9000E7FCBDE81040FEF7EBBA10480E214268A0
:101DA000536F9847EBE70D480D214268D36E984773
:101DB000E2E70A480C214268536E9847D9E7074882
:101DC0000B214268D36D9847D0E704480A21426846
:101DD000536D9847C7E700BF00040140A00D0020E5
:101DE00010B5FEF79DFC0848084A43684FF480345C
:101DF00010215461D3F884309847FEF7B1FCBDE858
:101E00001040FEF7B5BA00BFA00D0020000401404D
:101E100010B5FEF785FC0848084A43684FF4802453
:101E200012215461D3F894309847FEF799FCBDE82D
:101E30001040FEF79DBA00BFA00D00200004014035
:101E40000148FFF78DBA00BFA00D0020AFF300805E
:101E50002DE9F04105780446012D7DD06268002609
:101E60001368012413F0040F3746B44635460CD0EE
:101E70005168002918BF254608BFA44613F0010F7A
:101E800000D0012713F0020F64D10123082132E0B2
:101E900004FA03F845EA080510F0010F1CBF04FA24
:101EA00003F847EA080710F0020F02D014FA03F013
:101EB000064308315058013310F0040F17D002EBDD
:101EC0000108D8F80480B8F1000F3ED004FA03F8F6
:101ED00045EA080510F0010F03D004FA03F847EAB9
:101EE000080710F0020F02D014FA03F00643013382
:101EF0000831132B0FD0505810F0040FD9D002EB3B
:101F00000108D8F80480B8F1000FC1D104FA03F831
:101F10004CEA080CC0E7B2F89E10B2F89880B2F80C
:101F20009A40B2F89C00214A214BC2F80880D46044
:101F3000106151611F4A002119619F60DE605A6182
:101F4000C3F804C01D60BDE8F08104FA03F84CEA50
:101F5000080CBFE7012698E706206021FEF770FA1B
:101F600007206021FEF76CFA08206021FEF768FA6E
:101F700009206021FEF764FA0A206021FEF760FA6A
:101F800017206021FEF75CFA60212820FEF758FA3E
:101F900028466021FEF754FA29206021FEF750FA06
:101FA0002A206021FEF74CFA58E700BF00000140EC
:101FB00000040140FFFF0700AFF30080AFF3008093
:101FC00010B5FEF7ADFB0B4B00201978DA68042939
:101FD000108204D1022119701080108290815A68F9
:101FE000044853689847FEF7BBFBBDE81040FEF776
:101FF000BFB900BFA80D0020AFF30080AFF3008091
:1020000010B5FEF78DFB0B4B00201978DA68042918
:10201000108204D1022119701080108290815A68B8
:10202000044853689847FEF79BFBBDE81040FEF755
:102030009FB900BFB80D0020AFF30080AFF3008060
:1020400010B5FEF76DFB0B4B00201978DA680429F8
:10205000108204D1022119701080108290815A6878
:10206000044853689847FEF77BFBBDE81040FEF735
:102070007FB900BFC80D0020AFF30080AFF3008030
:1020800010B5FEF74DFB0B4B00201978DA680429D8
:10209000108204D1022119701080108290815A6838
:1020A000044853689847FEF75BFBBDE81040FEF715
:1020B0005FB900BFD80D0020AFF30080AFF3008000
:1020C0000D490E4A10B50846CA60FFF781F90C4B5E
:1020D0004FF080411846D960FFF77AF9094A0A495A
:1020E0001046D160FFF774F9084B094A1846DA60C8
:1020F000BDE81040FFF76CB9A80D0020002C01408E
:10210000B80D0020C80D002000040040D80D0020AC
:1021100000080040AFF30080AFF30080AFF3008011
:1021200038B503780446012B16D06268A0681168A0
:10213000B0FBF1F35D1EADB205FB011C604502D0A2
:102140002848FEF795FBE1680022082300200A805A
:102150008B800D85888138BD234988421AD0234D54
:10216000A84229D0224B984231D022488442DCD167
:10217000214B1E20DD6945F00401D9611A697021E7
:1021800042F004021A6100221A61FEF759F91B4B52
:10219000A360CAE7184D1920AB6943F40061A96137
:1021A000EA68702142F400630022EB60EA60FEF707
:1021B00047F91248A060D8E70F4B1C20DD6945F0B5
:1021C0000101D9611A69702142F00102DAE70A4B74
:1021D0001D20DD6945F00201D9611A69702142F0C4
:1021E0000202CFE790530008A80D0020B80D002090
:1021F000C80D0020D80D00200010024000A24A04A3
:10220000037810B5022B044600D010BD1A49C368EC
:10221000002288421A809A811A8211D0174B984264
:1022200017D0174B98421DD0164B9C42EDD11E2063
:10223000FEF72EF91449CA6922F00400C861E4E7E8
:102240001920FEF725F910498A6922F40060886197
:10225000EAE71C20FEF71CF90B49CA6922F00100CD
:10226000C86110BD1D20FEF713F90749CA6922F0A5
:102270000200C86110BD00BFA80D0020B80D0020ED
:10228000C80D0020D80D002000100240AFF30080E0
:10229000C368012200200139D9629A8258621882EB
:1022A0009A8105221A807047AFF30080AFF3008057
:1022B000C36800221A801A829A817047AFF30080A7
:1022C000C269036A30B40021146848F200051D8019
:1022D00019809980998223680F2123F001032360DC
:1022E000147A836911FA04F450681A680460146857
:1022F000586824F0010414601B7A9940016030BCD6
:10230000704700BFAFF30080AFF30080AFF30080F1
:1023100070B5C46805465CB1FFF7D2FF0020E860E5
:102320004FF0FF332046A362BDE87040FEF720BBAC
:1023300070BD00BFAFF30080AFF30080AFF300804B
:1023400011F0080F38B50546046A01D0FDF7D0FF3B
:10235000EB691A685968106820F0010010601B7A58
:102360000F2010FA03F20A60A18888B240F40073CB
:10237000A38038BDAFF30080AFF30080AFF30080DF
:1023800011F0080F70B50546046A31D1AA692023FF
:10239000116850680E6826F001060E60127A0F214F
:1023A00011FA02F20260B4F804E02EF4805108043D
:1023B000020CA280B4F800C02CF480610804020C66
:1023C0002280218888B240F40072228083F3118831
:1023D000FEF766F9EB682BB10022EA6018469A62B4
:1023E000FEF7C6FAFEF77CF9002383F3118870BD6F
:1023F000FDF77EFFCAE700BFAFF30080AFF30080B8
:102400002DE9F041404DFEF78BF92C6A3F4A208BB5
:10241000A68AB6B246EA004323F07F43934235D002
:102420000ED8013A934201D12B8A238216F00A0F6B
:1024300018BF238BFEF794F9BDE8F041FDF798BF74
:10244000334A934214D0911C8B42EFD1AB691F6881
:102450007F68002F39D0B4F800C02A8A1FFA8CF0A8
:1024600042F0010140F4A06E2982A4F800E0E1E707
:10247000B4F804C0E8692CF40072110400680B0C75
:10248000A380026842F001030360CFE7B4F804C000
:10249000A8692CF40072110400680B0CA380016879
:1024A00041F001020260A3881FFA83FE4EF4805CB3
:1024B000A4F804C04368012BB8D8B4F800E02EF4A7
:1024C00080610B041B0C2380B0E7B4F804C0202308
:1024D0002CF4007001040A0CA280208881B241F41F
:1024E000007EA4F800E083F31188FEF7D9F8E868CD
:1024F00018B18762EF60FEF73BFAFEF7F1F80023B0
:1025000083F3118892E700BFE80D0020020003006A
:1025100082000700AFF30080AFF30080AFF30080CC
:102520002DE9F041554DFEF7FBF82C6A202383F38B
:102530001188FEF7B5F8EA69AB6910685668076854
:102540000F2127F001070760107A1A6811FA00F0CE
:1025500030601668586826F0010616601A7A9140B5
:102560000160FEF7BDF8002383F31188A38A13F4FA
:10257000807307D0B4F814C001232CF480700204D7
:10258000110CA182B4F814E01EF4007F08D0B4F856
:1025900014C043F002032CF400700204110CA18259
:1025A000B4F814E01EF4806F14D0B4F814E043F0D3
:1025B00004032EF480600204110CA182B4F804C05C
:1025C0002CF400700204110CA180208882B242F425
:1025D00000712180B4F814C01CF4006F08D0B4F866
:1025E00014E043F008032EF400600204110CA182F1
:1025F000B4F814C01CF4805F08D0B4F814E043F0C1
:1026000010032EF480500204110CA182B4F814C0FF
:102610001CF4804F08D0B4F814E043F020032EF4EB
:1026200080400204110CA182A18A0FFA81FCBCF146
:10263000000F06DB5BB9FEF793F8BDE8F041FDF74C
:1026400097BEA18A43F040034804420CA282AB60CB
:10265000202383F31188FEF723F8E86838B1074B8D
:102660006FF0010100228162DA60FEF781F9FEF766
:1026700037F8002383F31188DDE700BFE80D002061
:1026800010B5074C2046FEF75BFF064B0649A3F149
:102690000C020020E0602162A361E26110BD00BF76
:1026A000E80D00207853000800540040AFF300808C
:1026B00002788A23012A2DE9F04104464361056A24
:1026C00000F0A1802F464FF09A089C466068E269AE
:1026D000A66913683168466805F11002C3F80080E6
:1026E00090F80880C1F800C000208A6048F2000C11
:1026F0004FF41061002E9A60A5F800C02880A980D0
:1027000052DD8B4B9E424FDCB7F804C02CF03F00EB
:1027100001040B0CBB80BA88864990B240F0240CAF
:102720008E42A7F804C043DCB8F1010F02D0824802
:10273000FEF79EF88148760090FBF6F106FB01F863
:102740007E4BC8EB0302002A40F0A5807B4A92FB37
:10275000F6F6B6B2032E40F2948025214FEA065CCD
:10276000B6F5805F39844FEA1C5802D37448FEF7EF
:102770007FF86268216A1278A7F81C80B1F800C05F
:10278000022A1FFA8CF32DD0032A70D0012A03D11C
:1027900023F00A0003041B0C0B80288883B243F04B
:1027A00001012980BDE8F0816648FEF761F8ABE7DA
:1027B0006548864224DCA8F10203DAB2012A75D901
:1027C0006248FEF755F848F6FF7862680B20216AE8
:1027D00038841278A7F81C80B1F800C0022A1FFACA
:1027E0008CF3D1D143F002024FF6F77C02EA0C03DE
:1027F0000B80288883B243F001012980BDE8F08175
:102800004FF00008B5E7524EB0427FF45BAF514F36
:102810004FF0000E3B69806943F40018C7F8108040
:102820000A214D4A2346C7F810E0FFF7E9F80028CF
:1028300076D1F0690A21494A454BFFF7E1F80028B3
:102840006AD1444F1F20FB69A02143F40012FA61B2
:10285000FDF7F6FD2020A021FDF7F2FD7069376A33
:1028600040F4805CC6F814C04CF010082EE743F02A
:102870000A030B80288883B243F001012980BDE858
:10288000F0813748FDF7F4FF4FEA065825234FEA59
:1028900018583B846DE73348FDF7EAFF274A92FB5F
:1028A000F6F6B6B2032E3FF658AFEAE7B8F1020FDC
:1028B00016D1224A06EB460692FBF6FC06FB0CF804
:1028C0001E48C8EB000139B91C4890FBF6F63105EB
:1028D0000B0D43F4004878E72348FDF7C9FFF3E701
:1028E000B8F1030F20D106EB8606144906EB8606E5
:1028F00091FBF6FC06FB0CF8104BC8EB03023AB94F
:102900000E4991FBF6F31A05100D40F440485CE7C0
:102910001648FDF7ADFFF3E71548FDF7A9FF90E76F
:102920001448FDF7A5FF84E748F6FF784DE700BFA0
:1029300000093D00A0860100F05300080051250267
:1029400080540008D8530008801A06003854000844
:10295000E80D0020001002408123000841230008F8
:102960002054000808540008505400086854000817
:10297000C4530008B0530008AFF30080AFF30080E9
:102980002DE9F04F87B0119F0646884691469A463A
:10299000DDF840B0129D046A27B1012F5DD9BBF16B
:1029A000000F5AD0B5F1FF3F05D001A829463B4A98
:1029B0003346FDF775FFFDF753FE002383F31188BF
:1029C000F269B069116802684FEA4808A6F81080F9
:1029D000B360C1F80C90C1F804A0C2F80CB0576005
:1029E00004E0FDF73DFE002383F31188B4F818C01E
:1029F00020231CF0020F04D1B4F800E01EF4007F85
:102A00000CD083F31188FDF70BFEB5F1FF3FE8D042
:102A1000049B002BE5D14FF0FF301BE083F31188BE
:102A2000FDF7FEFDB5F1FF3F1BD1A3881C4D99B208
:102A300041F4007EA4F804E0B4F800C0EB691FFA8A
:102A40008CF242F4807020800220F360FDF7D0FF0A
:102A5000E869806A07B0BDE8F08F1248FDF708FF0B
:102A6000A0E704990029D6D0A1880D4D8AB242F47E
:102A70000070A0802388E9691FFA83FE4EF4807CF1
:102A8000A4F800C00220F160FDF7B2FF049A002A0A
:102A9000DED001A8FDF734FFDAE700BF11230008FC
:102AA0003C0D0020BC540008AFF30080AFF3008061
:102AB000034B998988B240F080029A81704700BF29
:102AC00000380140AFF30080AFF30080AFF3008027
:102AD0002DE9F0475A4EFDF723FED6F85054AF8942
:102AE0002C88BFB2A4B214F00F0FB5F8048025D023
:102AF00014F0080918BF4FF0800914F0010F18BF37
:102B000049F0200914F0020F18BF49F0400914F0F1
:102B1000040F18BF49F48079202383F31188FDF74F
:102B2000BFFDB168474849EA01030021B360FEF7E1
:102B300027FAFDF7D5FD002383F3118814F4807F75
:102B40003FD114F0200F2CD117F0800F02D014F0D9
:102B5000800F50D114F0400F1DD0202383F3118833
:102B6000FDF79EFDB268374842F010030021B360C4
:102B7000FEF706FAFDF7B4FD002383F311884FF644
:102B8000BF7007EA0001A981B5F800C02CF040022F
:102B90001304180C2880FDF7E3FDBDE8F047FDF7AE
:102BA000E7BB202383F31188FDF77AFD24485FFA01
:102BB00088F1FEF7F5FDFDF793FD002383F31188FF
:102BC000C2E7202383F31188FDF76AFDB1681D4831
:102BD00041F400720021B260FEF7D2F9FDF780FDEA
:102BE000002383F31188B5F800C02CF480731A0415
:102BF000100C2880A5E7202383F31188DFF840809C
:102C0000FDF74EFD08F13000FEF7F2FA002806DB72
:102C1000A880FDF765FD002383F311889AE7D8F8B3
:102C2000081008F1040041F00802C8F8082000214B
:102C3000FEF7A6F927F0C00343F04000A881E8E7BB
:102C40000C0E0020100E0020AFF30080AFF30080C8
:102C500010B5054C00212046044AFEF751FD044BF7
:102C6000C4F8503410BD00BF0C0E0020B12A00087B
:102C700000380140AFF30080AFF30080AFF3008075
:102C800038B5037B174C0546002918BF0C46012BAD
:102C90001BD02068144AD5F85034B2FBF0F11981EA
:102CA000A288B4F806C0218942F4045040F02C02F6
:102CB0004CF040009A8141F0010C18820020A3F8EA
:102CC00014C018801A889B8838BD08498842E0D112
:102CD000074B25209A69C02142F480429A61FDF792
:102CE000AFFBD6E7E0540008005125020C0E00208F
:102CF00000100240AFF30080AFF30080AFF300801C
:102D0000154B30B49A69154D42F07D049C61016801
:102D1000134CE960826813496A604368124A2B6069
:102D2000C568124BE5604569656005692560846981
:102D3000CC60046A4C60C4690C60416AD160C16AAD
:102D40005160816A1160026BDA60816B5960426B7D
:102D50001A6030BC704700BF0010024000080140FC
:102D6000000C014000100140001401400018014017
:102D7000032AF0B400F09A80042A08BF41614C4B4A
:102D800011F080079B5C40F088800F2411F400450F
:102D900040F089800F264A002401360139012D01B7
:102DA00012F0800F14BF194344F00F0412F4004FC7
:102DB00014BF1D4346F00F065200240136010901DD
:102DC0002D0112F0800F14BF194344F00F0412F4C8
:102DD000004F14BF1D4346F00F0652002401360178
:102DE00009012D0112F0800F14BF194344F00F04A4
:102DF00012F4004F14BF1D4346F00F065200240189
:102E0000360109012D0112F0800F14BF194344F05F
:102E10000F0412F4004F14BF1D4346F00F0652007A
:102E20002401360109012D0112F0800F14BF19434E
:102E300044F00F0412F4004F14BF1D4346F00F0678
:102E400052002401360109012D0112F0800F14BF38
:102E5000194344F00F0412F4004F14BF1D4346F011
:102E60000F0652002401360109012D0112F0800FD6
:102E700014BF194344F00F0412F4004F18BF1D4350
:102E8000436808BF46F00F061E40354345600268A0
:102E9000144021430160F0BC7047002411F4004548
:102EA0001F463FF477AF1D46002674E7016166E7D1
:102EB000F0540008AFF30080AFF30080AFF3008060
:102EC000FEF73EBEAFF30080AFF30080AFF30080AB
:102ED000704700BFAFF30080AFF30080AFF3008016
:102EE000034B187C1A6840F0010119745A6070474E
:102EF000D0230020AFF30080AFF30080AFF3008059
:102F0000044B93F824005A6940F0010183F824101F
:102F10009A617047D0230020AFF30080AFF30080A8
:102F200010B40A4B0A4893F810C09968CCF3800497
:102F30001A68012C18BF4FF0FF34A2180139012480
:102F4000446199601A6010BC704700BFD023002014
:102F5000000C0140AFF30080AFF30080AFF30080BE
:102F600010B40A4B0A4893F824C0D969CCF3800402
:102F70005A69012C18BF4FF0FF34A21801390224FE
:102F80004461D9615A6110BC704700BFD023002052
:102F900000080140AFF30080AFF30080AFF3008082
:102FA00030B4024604E003EB65039A4212DD1A4690
:102FB00090FBF2F40E4BA11801EA0303002B01EB86
:102FC000D175F0DA591E61F00103013303EB65039B
:102FD0009A42ECDC531EA34202D0104630BC70472C
:102FE00002FB140000280CBF20461046F6E700BF85
:102FF00001000080AFF30080AFF30080AFF30080EA
:1030000010B5114CE369002B14DD10480222026157
:10301000202383F31188FDF743FB0D480178022933
:1030200009D00C48218CFEF72BFAFDF759FB002341
:1030300083F3118810BD236A03EBD37CCCF34F01DB
:10304000FEF71EFAEDE700BFD02300200008014084
:10305000D80D0020C80D0020AFF30080AFF3008032
:1030600010B5114CA368002B14DD10480122026139
:10307000202383F31188FDF713FB0D480178022903
:1030800009D00C48A189FEF7FBF9FDF729FB0023C5
:1030900083F3118810BDE36803EBD37CCCF34F01BD
:1030A000FEF7EEF9EDE700BFD0230020000C014051
:1030B000B80D0020A80D0020AFF30080AFF3008012
:1030C00008B50E4B4FF480621A61202383F31188F8
:1030D000FDF7E6FA01F024FE0948FEF709FA09486F
:1030E000FEF706FA0848FEF703FA0848FEF700FA6A
:1030F000FDF7F6FA002383F3118808BD000C0140A8
:10310000A80D0020B80D0020C80D0020D80D00200B
:10311000F0B5114C83B022686369171218141916A0
:10312000161415161C128DF806008DF807108DF870
:1031300000208DF801708DF802608DF803508DF835
:1031400004308DF8054001F05BFD0820694601F070
:10315000B7FC03B0F0BD00BFD0230020AFF3008068
:103160002DE9F04F834C844FDFF82C92DFF82C824E
:10317000DFF82CA285B04FF0FF318048FDF778FFD3
:103180004FF0FF318DF80C007C48FDF771FF4FF0D8
:10319000FF318DF80D007948FDF76AFF4FF0FF31E0
:1031A0008DF80E007548FDF763FF20238DF80F00A2
:1031B00083F31188FDF734FA6369039EF61AFDF76D
:1031C0004FFA002383F311889E4240F3A2806C489B
:1031D0001022026101226B4B4FF40051A3F5806B6A
:1031E000802559611920CBF810500192FDF758FD48
:1031F0003A684FEA660B9AFBF2F5202383F31188B5
:10320000FDF70EFA94F82410019B256263F3820106
:1032100084F82410E661FDF723FA002383F3118874
:103220005948A9B2FEF74CF9202383F31188FDF722
:10323000F7F9E569FDF714FA002383F3118839687B
:10324000C5EB060C01FB01F3D9F80020E345B8BF3C
:10325000CCEB060C50000CFB0030FFF7A1FED8F8B9
:10326000001020238842A8BF08469AFBF0F283F39F
:1032700011880192FDF7D4F901980228B8BF022005
:103280002062FDF7EDF9002383F311883F481946CA
:10329000FDF7EEFEB0F1FF3F41D1002DC4DC192057
:1032A000FDF7FEFC202383F31188FDF7B9F9267C96
:1032B000374A06F0020C31485FFA8CF39268816855
:1032C00013B98D18002D4AD0FDF7CAF9002383F3F6
:1032D0001188202383F31188FDF7A2F994F824B014
:1032E0006FF3410B5FFA8BF212F0010F84F824B0F8
:1032F00009D012F0040F06D01E4E00227369B16986
:10330000B2615D1A7561FDF7ABF9002383F3118893
:1033100031E71B4A1020506176421A465BE71A4893
:10332000FEF786F81B48FEF783F8154B9E6816F0EB
:10333000020FB4D00F490F4891F824B0CD69CBF3F8
:10334000800E4E69BEF1010F18BF4FF0FF3E691E9F
:1033500002220EEB06055A61C16165619FE7084BC9
:1033600080204FF400515861C3F81014FFF7D0FECD
:10337000AAE700BFD0230020040800206C2400200E
:1033800000080140000C0140C80D00204C24002022
:103390001C240020D80D0020000800200808002070
:1033A000A0860100AFF30080AFF30080AFF3008090
:1033B0002DE9F04F834C844FDFF82C92DFF82C82FC
:1033C000DFF82CA285B04FF0FF318048FDF750FEAA
:1033D0004FF0FF318DF80C007C48FDF749FE4FF0AF
:1033E000FF318DF80D007948FDF742FE4FF0FF31B7
:1033F0008DF80E007548FDF73BFE20238DF80F0079
:1034000083F31188FDF70CF92368039EF61AFDF784
:1034100027F9002383F311889E4240F3A2806C4871
:103420004FF4006202610122694B4FF40051A3F591
:10343000806B802559611920CBF810500192FDF75F
:103440002FFC3A684FEA660B9AFBF2F5202383F3D0
:103450001188FDF7E5F8217C019BE56063F38201AB
:103460002174A660FDF7FCF8002383F31188594806
:10347000A9B2FEF725F8202383F31188FDF7D0F8D1
:10348000A568FDF7EDF8002383F311883968C5EBD3
:10349000060C01FB01F3D9F80020E345B8BFCCEBE3
:1034A000060C50000CFB0030FFF77AFDD8F8001036
:1034B00020238842A8BF08469AFBF0F283F31188C4
:1034C0000192FDF7ADF801980228B8BF0220E06034
:1034D000FDF7C6F8002383F311883F481946FDF72E
:1034E000C7FDB0F1FF3F43D1002DC4DC1920FDF72B
:1034F000D7FB202383F31188FDF792F894F824601A
:10350000324A06F0020C35485FFA8CF39268816803
:1035100013B98D18002D4BD0FDF7A2F8002383F3CB
:103520001188202383F31188FDF77AF894F810B0FE
:103530006FF3410B5FFA8BF212F0010F84F810B0B9
:1035400009D012F0040F06D01E4E002233687168B5
:1035500072605D1A3560FDF783F8002383F31188EC
:1035600031E71B4A4FF40060506176421A465BE730
:103570001848FDF75DFF1A48FDF75AFF144B9E6887
:1035800016F0010FB2D00F490E4891F810B08D68B7
:10359000CBF3800E0E68BEF1010F18BF4FF0FF3E57
:1035A000691E01220EEB06055A61816025609DE7C8
:1035B0000C4B80204FF400515861C3F81014FFF7F2
:1035C000A7FDA9E7D0230020040800201C24002028
:1035D000000C0140A80D00204C2400206C24002089
:1035E000B80D002000080140000800200808002055
:1035F000A0860100AFF30080AFF30080AFF300803E
:1036000030B583B00191054602AC202383F31188C5
:10361000FDF706F8002D1449CCBF0525002501EB68
:10362000850393F810C0114A114D0CF0FE00C8BF7D
:10363000154614F8041D40F002021A742846FDF7DE
:10364000E7FC61782846FDF7E3FCA1782846FDF702
:10365000DFFCE1782846FDF7DBFCFDF701F80023ED
:1036600083F3118803B030BDD02300206C240020E8
:103670001C240020AFF30080AFF30080AFF3008084
:103680002DE9F0435F4E604C83B03046202102228A
:10369000FFF76EFB022220464FF48071FFF768FBB4
:1036A000204602224FF48051FFF762FB0C220023D8
:1036B00056485749FDF79CFC0322002355485649BC
:1036C000FDF796FC0C22002354485549FDF790FC69
:1036D0000023032253495448FDF78AFC2046022266
:1036E0004FF48051FFF744FB304620210222FFF7C0
:1036F0003FFB022220464FF48071FFF739FB4B4815
:103700004B49FDF735FE4B484B49FDF769FE4B48E9
:103710004B49FDF765FE4B484B49FDF761FE01271C
:103720004A484B49FDF75CFE204639466761062250
:10373000FFF71EFB02231946736140274FF480698F
:103740004FF08008304606224FF40055FFF710FB7B
:10375000C4F814900622776120464946C6F81480C2
:103760002561FFF705FB304639460622FFF700FBCF
:10377000304641460622FFF7FBFA2046294606223C
:10378000FFF7F6FA204606224FF40061FFF7F0FA41
:103790003046102106220025FFF7EAFA3A464FF498
:1037A0000B612C4B2C480095FDF732FA3A464FF44A
:1037B0000B612A4B2A480095FDF72AFA294BC6F8D7
:1037C0001480197C93F8240001F0FC0C00F0FC023A
:1037D00065F3820C65F38202184603F11401376128
:1037E0001D60C4F814905D609D60DD6083F810C0BA
:1037F0005D619D61DD6183F8242003B0BDE8F04385
:1038000000F0F6BD00080140000C01401C2400201F
:10381000402400204C240020F82300206C240020A9
:10382000601200203C240020FC230020A00D00207A
:1038300090550008A80D002050550008B80D002034
:1038400060550008C80D002070550008D80D0020F4
:1038500080550008B1330008701200206131000863
:10386000201B0020D0230020AFF30080AFF30080A6
:1038700038B504460D46202383F31188FCF7D0FEAB
:10388000054B002CCCBF142400241D51FCF7E8FE8E
:10389000002383F3118838BDD0230020AFF30080CC
:1038A00070B5202304460D46164683F31188FCF7B5
:1038B000B7FE06490648074B0C601E600560FCF722
:1038C000CFFE002383F3118870BD00BF04080020E1
:1038D0000808002000080020AFF30080AFF300804C
:1038E000002870B5D4BF002601260C4615462023BB
:1038F00083F31188FCF794FE35B1B3000B4A991994
:1039000002EB810043682B604CB1B2000749961965
:1039100001EB860696F810C00CF001002060FCF761
:103920009FFE002383F3118870BD00BFD0230020C9
:10393000002870B5D4BF002501250C46202383F351
:103940001188FCF76DFEA800084B4519AD005A1907
:10395000167CC6F340060CB15B592360FCF780FE71
:10396000002383F31188304670BD00BFD0230020B0
:1039700010B52023044683F31188FCF751FE064B53
:10398000002CCCBF142400241C59FCF769FE002332
:1039900083F31188204610BDD0230020AFF30080B0
:1039A00010B50A4A0A4C20230028C8BF144683F3E6
:1039B0001188FCF735FE00212046FDF729FBFCF7B6
:1039C0004FFE002383F3118810BD00BFFC230020AD
:1039D0004C240020AFF30080AFF30080AFF30080F1
:1039E00000F03EB8AFF30080AFF30080AFF300808B
:1039F00038B504460D4688B181B1202383F3118880
:103A0000FCF70EFE2046294600F03AF80223237008
:103A1000FCF726FE002383F3118838BD0148FCF72C
:103A200027FFEAE730560008AFF30080AFF30080CD
:103A300010B5044668B1202383F31188FCF7F0FD2C
:103A4000204600F035F8FCF70BFE002383F31188C5
:103A500010BD0248FCF70CFFEDE700BF4056000820
:103A6000024B034A012018705A6070478C240020D2
:103A700000300040AFF30080AFF30080AFF3008070
:103A8000436845F255501860B1F800C040F6FF7227
:103A90008978944538BF624659604AF6AA209A60F0
:103AA0004CF6CC4218601A60704700BFAFF300803C
:103AB00043684AF6AA221A60704700BFAFF300803D
:103AC00008B5FDF72DFCFCF72BFD00F0D9FA00F04E
:103AD000EFF901F0DDF800F093FBFFF7D1FD0020D6
:103AE00000F0FEFA00F00CFA00F00AFAFAE700BF64
:103AF000007801F08DB800BFAFF30080AFF3008015
:103B000001F07EB8AFF30080AFF30080AFF3008028
:103B100010B5044648B15C2807D0074821464FF04D
:103B2000FF32BDE81040FDF72BBB5C214FF0FF32A8
:103B30000148FDF725FBF0E73C0E0020AFF30080C5
:103B4000024800214FF0FF32FDF71ABB3C0E002067
:103B500070B54578044629460078224600F030FCCE
:103B60000028B8BF4042C0B2FFF7D2FFF5B1691ECE
:103B7000661CCDB2E04375194319207803F00104A7
:103B8000FFF7C6FFAE4211D02CB116F8010BFFF7BC
:103B9000BFFFAE420AD0344614F8010BFFF7B8FF5E
:103BA0007078661CFFF7B4FFAE42F4D1BDE87040F8
:103BB000FFF7C6BFAFF30080AFF30080AFF3008024
:103BC00000B5174A85B001AB07CA03C31A809DF838
:103BD0000400FFF79DFF9DF80500FFF799FF9DF892
:103BE0000600FFF795FF9DF80700FFF791FF9DF88E
:103BF0000800FFF78DFF9DF80900FFF789FF9DF88A
:103C00000A00FFF785FF9DF80B00FFF781FF9DF885
:103C10000C00FFF77DFF05B05DF804EBFFF790BFE8
:103C200090560008AFF30080AFF30080AFF3008040
:103C300000B51B4A85B001AB07CA83E807009DF8B1
:103C40000400FFF765FF9DF80500FFF761FF9DF891
:103C50000600FFF75DFF9DF80700FFF759FF9DF88D
:103C60000800FFF755FF9DF80900FFF751FF9DF889
:103C70000A00FFF74DFF9DF80B00FFF749FF9DF885
:103C80000C00FFF745FF9DF80D00FFF741FF9DF881
:103C90000E00FFF73DFF05B05DF804EBFFF750BFE6
:103CA0009C560008AFF30080AFF30080AFF30080B4
:103CB00010B5024651780078023200F041FB00282E
:103CC000B8BF4042C0B2FFF723FFBDE81040FFF786
:103CD00037BF00BFAFF30080AFF30080AFF30080C9
:103CE00010B50078003818BF0120FFF741FE0446E8
:103CF000C0B2FFF70DFFC4F30720FFF709FFC4F3BD
:103D00000740FFF705FF200EFFF702FFBDE8104058
:103D1000FFF716BFAFF30080AFF30080AFF3008072
:103D20002DE9F00187788679837A45784479427A5B
:103D3000310490F800C0067A4FEA07481B0407795F
:103D400048EA052841EA0421C578C47943EA0223F8
:103D5000C27A394348EA0C00334340EA056041EA3D
:103D6000046143EA0262BDE8F001FFF799BD00BFBC
:103D700010B4C3788278190441EA022C447802789E
:103D800001794CEA0403101E18BF012043EA0161C7
:103D900010BCFFF76DBD00BFAFF30080AFF3008034
:103DA00000B5007883B0003818BF012001A96A4629
:103DB000FFF796FD9DF80400FFF7AAFE9DF80000AE
:103DC000FFF7A6FE9DF80100FFF7A2FE9DF8020096
:103DD000FFF79EFE9DF80300FFF79AFEFFF7B0FE87
:103DE00003B000BDAFF30080AFF30080AFF30080FD
:103DF00000B5007883B0003801A918BF0120FFF793
:103E000097FDC0B2FFF784FE9DF80400FFF780FE27
:103E10009DF80500FFF77CFE9DF80600FFF778FE91
:103E20009DF80700FFF774FEFFF78AFE03B000BDA0
:103E30000078003818BF0120FFF7B2BDAFF3008053
:103E400010B4C3788278190441EA022C44780278CD
:103E500001794CEA0403101E18BF012043EA0161F6
:103E600010BCFFF7CDBB00BFAFF30080AFF3008005
:103E7000007800F0F5B900BFAFF30080AFF3008029
:103E8000007800F02DB900BFAFF30080AFF30080E1
:103E900010B56F20FFF73CFE6B20FFF739FEFFF7F0
:103EA0004FFEFA20FCF7FCFEBDE8104000F028B9F8
:103EB00010B50F4C102220464FF40071FEF758FF4A
:103EC000204602224FF48061FEF752FF2046102266
:103ED0004FF40061FEF74CFF20464FF48051022260
:103EE000FEF746FF03480021BDE81040FDF730BC57
:103EF000000801400C0E0020AFF30080AFF30080FB
:103F000070B537484FF0FF31FDF7B2F8831C012B35
:103F10000ED9344BC0B21A785AB9B8B9324A334CB8
:103F200013782668012B1DD0022B4AD00023236072
:103F300070BD2E4C002522681D702B4B511C9854CF
:103F40002029B4BF0B4620232360F1E75C282ED044
:103F5000264C25492268531C202BA8BF20238854B7
:103F60002360E5E7012EE1DD511CCB43961998193A
:103F700055781F49931CB3420D7000F00100D5D055
:103F800030B193F800C0D31CB34201F801CFCDD0BB
:103F90001A4612F8015B481C4D7093F801C0531C7F
:103FA000411CB34280F801C0F2D10023BFE70F4C9F
:103FB0000121206819702028B4BF03462023236004
:103FC000B6E792F801E00B49BEF10F0FC8BF4FF002
:103FD000000E51F82E30064898470023A7E700BF8F
:103FE0001C0E0020B424002094240020B8240020BB
:103FF000BC24002050560008AFF30080AFF30080CF
:104000001848F8B5184AC369184C9A61FFF7E8FCDC
:1040100017481849FFF7ECFC1548FFF709FD164D46
:104020004FF480474FF400561448FCF721FF2168F5
:1040300011F0010F17BFEA686F6182F48042EA60F5
:1040400011F0020F17BFE9686E6181F40051E96059
:10405000FCF71EFFFA20FCF723FE0548FFF7E8FCFB
:10406000E2E700BF3C0D0020B0560008EC24002021
:104070008C2400200C08002000100140DC240020CB
:1040800030B5104C4FF480434FF40055636183B05A
:104090001946062220466561FEF76AFE2946062279
:1040A0002046FEF765FE0848FCF74AFE00244FF460
:1040B000D8714022054B06480094FCF7A9FD03B0D7
:1040C00030BD00BF00100140DC240020014000088A
:1040D000F0240020AFF30080AFF30080AFF3008046
:1040E00010B504460448FCF7C3FE044B1C60BDE851
:1040F0001040FCF7CDBE00BFDC240020EC240020E3
:10410000BFF34F8F054A0648D36803F4E06141EAE4
:104110000003D360BFF34F8FFEE700BF00ED00E068
:104120000400FA05AFF30080AFF30080AFF3008026
:104130002E482F4AC3692DE9F0412E4E2E4D9A612B
:1041400001242E484FF0FF31FCF792FF10F00108D8
:1041500000F002070CBF74613461002F42D14FF4AC
:10416000004169610320FCF79BFD4FF4004374613B
:104170004FF4AF706B61FCF793FDB8F1000F2AD1DB
:1041800074615FBB4FF4004068610320FCF788FD59
:104190004FF4004274614FF4AF706A61FCF780FD28
:1041A000B8F1000F10D034618FB14FF400472F6188
:1041B0000320FCF775FD4FF4004174614FF4AF70BC
:1041C0006961FCF76DFDBCE77461002FEDD14FF420
:1041D00000436B61ECE73461002FD3D04FF4004112
:1041E0002961D2E74FF400422A61BBE73C0D002071
:1041F000C056000800080140001001405829002066
:1042000070B5114B114D01264FF4004482B05E6130
:104210001846062231466C61FEF7AAFD2846214663
:104220000622FEF7A5FD0322002309480949FCF7F1
:10423000DFFE00244FF42C714022074B0748009406
:10424000FCF7E6FC02B070BD000801400010014020
:1042500058290020A026002031410008A82600206F
:1042600010B52023044683F31188FCF7D9F9002CFC
:104270000CBF022101210448FCF7CAFEFCF7F0F94B
:10428000002383F3118810BD58290020AFF300806C
:104290002DE9F04F2248234CC369234FDFF89C805F
:1042A000224A87B09A61A146BA46C3464FF0FF3111
:1042B0001F48FCF7DDFE2578002DF7D03E7801354C
:1042C0000DF117025021019501237D2519488DF824
:1042D00017600295CDF80080FDF762F9164D4FF496
:1042E00000764FF0000E50210F4A48B999F800C0EF
:1042F0000AEB0C001BF80C3090F801C06345D5D0D8
:1043000023780C486E610233CDF800E0CDF804E06C
:104310004FF07D0ECDF808E0FDF742F92E61C5E7BC
:104320003C0D0020BC29002078290020C056000840
:10433000702E0020E80D0020000C01409C29002078
:1043400070B51B4C84B00B462070F9B14E1EF5B20F
:10435000611C4D19E04312F8016B4019A9426670C7
:1043600000F0010012D030B112F801EB81F801E049
:10437000A11CA9420AD0104610F801CB01F801CFC8
:104380005478421C01F8014FA942F4D1094C00268F
:104390004FF400756561502100960196044A01337F
:1043A0007D2605480296FDF7FBF8256104B070BD37
:1043B0009C290020000C0140E80D0020AFF3008094
:1043C00010B5074B84B000927D2418701A460191F5
:1043D0000123502103480294FDF7E2F804B010BD18
:1043E0009C290020E80D0020AFF30080AFF300808F
:1043F000F0B5CE4C87B02378CD4C06AA671C02F8E6
:10440000013D0097092706460D460197C9487D27BB
:10441000502101230297FDF7C3F8002840F0838163
:10442000637813F0010F40F087815A0812F0010FF2
:1044300040F08981520812F0010F40F08B81520840
:1044400012F0010F40F08D81520812F0010F40F080
:104450008F81520812F0010F40F09181520812F042
:10446000010F40F09381520812F0010F00F0958186
:104470005708A17887F08C024A4012F0010F40F0F3
:104480009381520812F0010F40F09581520812F00A
:10449000010F40F09781520812F0010F40F099810E
:1044A000520812F0010F40F09B81520812F0010FE8
:1044B00040F09D81520812F0010F40F09F81520898
:1044C00012F0010F00F0A181500880F08C02E0781A
:1044D000424012F0010F40F09F81520812F0010F8C
:1044E00040F0A181520812F0010F40F0A381520860
:1044F00012F0010F40F0A581520812F0010F40F0B8
:10450000A781520812F0010F40F0A981520812F061
:10451000010F40F0AB81520812F0010F00F0AD81A5
:104520005208277982F08C027A4012F0010F40F095
:10453000AB81520812F0010F40F0AD81520812F029
:10454000010F40F0AF81520812F0010F40F0B1812D
:10455000520812F0010F40F0B381520812F0010F1F
:1045600040F0B581520812F0010F40F0B7815208B7
:1045700012F0010F00F0B981520894F805C082F0E2
:104580008C0282EA0C0212F0010F40F0B78152084F
:1045900012F0010F40F0B981520812F0010F40F003
:1045A000BB81520812F0010F40F0BD81520812F099
:1045B000010F40F0BF81520812F0010F40F0C1819D
:1045C000520812F0010F40F0C381520812F0010F9F
:1045D00000F0C581520894F806E082F08C0282EA6D
:1045E0000E0212F0010F40F0C381520812F0010FC9
:1045F00040F0C581520812F0010F40F0C781520807
:1046000012F0010F40F0C981520812F0010F40F082
:10461000CB81520812F0010F40F0CD81520812F008
:10462000010F40F0CF81520812F0010F00F0D1814C
:10463000520894F807C082F08C0282EA0C0212F051
:10464000010F40F0CF81520812F0010F40F0D181EC
:10465000520812F0010F40F0D381520812F0010FFE
:1046600040F0D581520812F0010F40F0D781520876
:1046700012F0010F40F0D981520812F0010F40F002
:10468000DB81520812F0010F00F0DD81520894F82E
:1046900008E082F08C0282EA0E0212F0010F40F074
:1046A000DB81520812F0010F40F0DD81520812F058
:1046B000010F40F0DF81520812F0010F40F0E1815C
:1046C000520812F0010F40F0E381520812F0010F7E
:1046D00040F0E581520812F0010F40F0E7815208E6
:1046E00012F0010F00F0E981520882F08C0294F878
:1046F00009C00F4C944516D10A02000402EB000ECB
:104700000EEB030C3F060CEB07033360A179E27953
:10471000237A080294F805E01104421802EB0E0017
:10472000190643182B6007B0F0BD00BF78290020A0
:104730009C290020E80D00205A0882F08C0212F01B
:10474000010F3FF477AE500880F08C0212F0010F99
:104750003FF475AE510881F08C0212F0010F3FF466
:1047600073AE570887F08C0212F0010F3FF471AE60
:10477000520882F08C0212F0010F3FF46FAE500825
:1047800080F08C0212F0010F3FF46DAE510881F001
:104790008C0212F0010F7FF46BAEA17852084A40F0
:1047A00012F0010F3FF46DAE520882F08C0212F04D
:1047B000010F3FF46BAE500880F08C0212F0010F35
:1047C0003FF469AE570887F08C0212F0010F3FF4F6
:1047D00067AE520882F08C0212F0010F3FF465AE12
:1047E000500880F08C0212F0010F3FF463AE5708BE
:1047F00087F08C0212F0010F3FF461AE520882F094
:104800008C0212F0010F7FF45FAEE0785208424054
:1048100012F0010F3FF461AE570887F08C0212F0DE
:10482000010F3FF45FAE520882F08C0212F0010FCC
:104830003FF45DAE570887F08C0212F0010F3FF491
:104840005BAE520882F08C0212F0010F3FF459AEB9
:10485000570887F08C0212F0010F3FF457AE520850
:1048600082F08C0212F0010F3FF455AE570887F02A
:104870008C0212F0010F7FF453AE277952087A4070
:1048800012F0010F3FF455AE520882F08C0212F084
:10489000010F3FF453AE520882F08C0212F0010F68
:1048A0003FF451AE520882F08C0212F0010F3FF437
:1048B0004FAE520882F08C0212F0010F3FF44DAE61
:1048C000520882F08C0212F0010F3FF44BAE5208F6
:1048D00082F08C0212F0010F3FF449AE520882F0D0
:1048E0008C0212F0010F7FF447AE94F805C0520815
:1048F00082EA0C0212F0010F3FF449AE520882F036
:104900008C0212F0010F3FF447AE520882F08C0285
:1049100012F0010F3FF445AE520882F08C0212F003
:10492000010F3FF443AE520882F08C0212F0010FE7
:104930003FF441AE520882F08C0212F0010F3FF4B6
:104940003FAE520882F08C0212F0010F3FF43DAEF0
:10495000520882F08C0212F0010F7FF43BAE94F803
:1049600006E0520882EA0E0212F0010F3FF43DAE5B
:10497000520882F08C0212F0010F3FF43BAE520855
:1049800082F08C0212F0010F3FF439AE520882F02F
:104990008C0212F0010F3FF437AE520882F08C0205
:1049A00012F0010F3FF435AE520882F08C0212F083
:1049B000010F3FF433AE520882F08C0212F0010F67
:1049C0003FF431AE520882F08C0212F0010F7FF4F6
:1049D0002FAE94F807C0520882EA0C0212F0010FC1
:1049E0003FF431AE520882F08C0212F0010F3FF416
:1049F0002FAE520882F08C0212F0010F3FF42DAE60
:104A0000520882F08C0212F0010F3FF42BAE5208D4
:104A100082F08C0212F0010F3FF429AE520882F0AE
:104A20008C0212F0010F3FF427AE520882F08C0284
:104A300012F0010F3FF425AE520882F08C0212F002
:104A4000010F7FF423AE94F808E0520882EA0E02C8
:104A500012F0010F3FF425AE520882F08C0212F0E2
:104A6000010F3FF423AE520882F08C0212F0010FC6
:104A70003FF421AE520882F08C0212F0010F3FF495
:104A80001FAE520882F08C0212F0010F3FF41DAEEF
:104A9000520882F08C0212F0010F3FF41BAE520854
:104AA00082F08C0212F0010F3FF419AE520882F02E
:104AB0008C0212F0010F7FF417AE520817E600BF08
:104AC000F0B4002800F08F80494D4A4C2A78531CDE
:104AD000DBB287182B70FFB2D24311F8010BD21949
:104AE000BB42E05402F00102184619D042B1581CF2
:104AF000C3B22B7011F8012BBB421846E2540FD001
:104B00005E1CF0B228700A4612F8016B431CDBB23F
:104B100026542B7049781846E154511CBB42EFD102
:104B2000451C00285BD0002101236FF0730223E0B5
:104B3000490811F0010F2DD1490811F0010F30D1B2
:104B4000490811F0010F32D1490811F0010F35D198
:104B5000490811F0010F37D1490811F0010F3AD17E
:104B6000490811F0010F1ABF82EA5101C9B2490880
:104B70000133DBB2834233DCE65C81EA060C5FFA88
:104B80008CF111F0010FD3D082EA5101C9B211F0BA
:104B9000010FD1D082EA510C5FFA8CF111F0010FB4
:104BA000CED082EA5101C9B211F0010FCCD082EA15
:104BB000510C5FFA8CF111F0010FC9D082EA51015A
:104BC000C9B211F0010FC7D082EA510C5FFA8CF123
:104BD00011F0010FC4D082EA5101C9B2C1E7014608
:104BE0006155F0BC7047024B024C187898E700BF43
:104BF000BC29002078290020AFF30080AFF30080AB
:104C0000014B00221A707047BC290020AFF30080CE
:104C100070B50B4E86B00546002435705021302605
:104C20000094019405AA7D24022306488DF814609F
:104C30008DF815500294FCF7B3FC06B070BD00BFB0
:104C400078290020E80D0020AFF30080AFF300804A
:104C500010B586B0302305AC06AA02F8013D0094D9
:104C60000224019408487D24502101230294FCF77A
:104C700097FC30B99DF81400F72888BFF02006B0E3
:104C800010BDF020FBE700BFE80D0020AFF300806F
:104C900030B5174C83B017481749FCF759FC402131
:104CA00011222046FEF764F84FF40075204680215B
:104CB0001122FEF75DF82946062220462561FEF7FF
:104CC00057F8FFF7C5FF0D4D0D4B0024187001225A
:104CD00023460C490C482C70FCF78AF94FF4966176
:104CE00040220A4B0A480094FBF792FF03B030BD04
:104CF000000C0140E80D0020D0560008BC2900201F
:104D00007829002098290020702E00209142000868
:104D1000C0290020AFF30080AFF30080AFF3008024
:104D200001480121FCF774B9702E0020AFF3008018
:104D300069646C65000000006D61696E0000000030
:104D40005356233100000000535623320000000068
:104D50005356233300000000535623340000000054
:104D60005356233500000000535623360000000040
:104D7000535623370000000053562338000000002C
:104D800053562339000000005356233130000000F1
:104D900053562331310000000000000000000000E5
:104DA0002263685654536574492228290000000084
:104DB000226368565452657365744922282900009D
:104DC0006368565452657365744928292C20233131
:104DD00000000000000000000000000000000000D3
:104DE000636853636852656164794928292C2023DC
:104DF00031000000737461636B206F766572666CBE
:104E00006F770000000000000000000000000000BC
:104E10002263685468644372656174654922282975
:104E2000000000002263685468645365745072691E
:104E30006F72697479222829000000006368546841
:104E400064526573756D6528292C2023310000009C
:104E5000226368546864536C6565702228290000D9
:104E60006368546864457869745328292C20233179
:104E70000000000022636854686457616974222846
:104E80002900000063685468645761697428292CFC
:104E9000202331000000000000000000000000009E
:104EA0002263684D7478496E6974222829000000D5
:104EB0002263684D74784C6F636B5322282900007D
:104EC00063684D74784C6F636B5328292C20233111
:104ED0000000000063684D74784C6F636B532829A1
:104EE0002C202332000000002263684D7478547235
:104EF000794C6F636B5322282900000063684D745E
:104F000078556E6C6F636B28292C202331000000CC
:104F100063684D7478556E6C6F636B28292C202361
:104F20003200000063684D7478556E6C6F636B538C
:104F300028292C202331000063684D7478556E6C4D
:104F40006F636B5328292C202332000000000000DF
:104F500022636845767452656769737465724D6142
:104F6000736B222829000000226368457674556E11
:104F70007265676973746572222829002263684527
:104F800076745369676E616C49222829000000001D
:104F90002263684576745369676E616C2228290024
:104FA00022636845767442726F6164636173744D05
:104FB00061736B492228290022636845767444692D
:104FC0007370617463682228290000006368457665
:104FD00074446973706174636828292C202331003C
:104FE00022636849515265616454696D656F7574D7
:104FF000222829002263684F5157726974655469E9
:105000006D656F7574222829000000000000000003
:10501000226578745374617274222829000000009C
:10502000657874537461727428292C202331000030
:105030002265787453746F70222829006578745340
:10504000746F7028292C20233100000022657874A9
:105050004368616E6E656C456E61626C65222829DD
:10506000000000006578744368616E6E656C456E83
:1050700061626C6528292C20233100002265787438
:105080004368616E6E656C44697361626C65222869
:10509000290000006578744368616E6E656C446930
:1050A0007361626C6528292C202331000000000008
:1050B00022707453746172742228290067707453CB
:1050C0007461727428292C202331000022677074C7
:1050D00053746F702228290067707453746F70289E
:1050E000292C2023310000002267707453746172F0
:1050F00074436F6E74696E756F7573492228290049
:105100006770745374617274436F6E74696E756FF7
:1051100075734928292C2023310000002267707400
:1051200053746172744F6E6553686F7449222829F5
:105130000000000067707453746172744F6E6553A1
:10514000686F744928292C2023310000226770746D
:1051500053746F7054696D657249222829000000EC
:1051600067707453746F7054696D65724928292C87
:1051700020233100677074506F6C6C656444656CFB
:10518000617928292C202331000000000000000054
:10519000226932635374617274222829000000006E
:1051A000693263537461727428292C202331000002
:1051B0002269326353746F70222829006932635365
:1051C000746F7028292C202331000000226932637B
:1051D0004765744572726F727322282900000000BF
:1051E000226932634D61737465725472616E736DBE
:1051F000697454696D656F75742228290000000078
:105200006932634D61737465725472616E736D6956
:105210007454696D656F757428292C202331000042
:10522000226932634D617374657252656365697694
:105230006554696D656F7574222829006932634D64
:1052400061737465725265636569766528292C20DF
:1052500023310000000000000000000000000000FA
:105260002273645374617274222829007364537426
:1052700061727428292C20233100000022736453AA
:10528000746F702228290000736453746F7028298A
:105290002C20233100000000227364496E636F6D7F
:1052A000696E67446174614922282900227364523F
:1052B0006571756573744461746149222829000021
:1052C000C1160008A1160008411600085116000872
:1052D000E1160008D1160008B11600089116000862
:1052E000611600080000000000000000000000003F
:1052F00022646D61416C6C6F6361746522282900C2
:1053000022646D6152656C65617365222829000015
:10531000646D6152656C6561736528292C202331A9
:10532000000000000000000000000000000000007D
:10533000080002400400024000000B001C00024074
:105340000400024004010C0030000240040002404E
:1053500008020D0044000240040002400C030E004D
:10536000580002400400024010040F006C0002408C
:1053700004000240140510008000024004000240B6
:1053800018061100000000000000000000000000EE
:105390006770745F6C6C645F737461727428292C1D
:1053A0002023310000000000000000000000000089
:1053B0006932635F6C6C645F737461727428292C4A
:1053C000202331006932635F6C6C645F73746172B7
:1053D0007428292C20233200226932635F6C6C64AC
:1053E0005F7365745F636C6F636B22282900000034
:1053F0006932635F6C6C645F7365745F636C6F6369
:105400006B28292C202331006932635F6C6C645F48
:105410007365745F636C6F636B28292C20233200E3
:105420006932635F6C6C645F7365745F636C6F6338
:105430006B28292C202333006932635F6C6C645F16
:105440007365745F636C6F636B28292C20233400B1
:105450006932635F6C6C645F7365745F636C6F6308
:105460006B28292C202335006932635F6C6C645FE4
:105470007365745F636C6F636B28292C202336007F
:105480006932635F6C6C645F7365745F636C6F63D8
:105490006B28292C20233800226932635F6C6C64EE
:1054A0005F6D61737465725F726563656976655F70
:1054B00074696D656F757422282900002269326352
:1054C0005F6C6C645F6D61737465725F7472616E42
:1054D000736D69745F74696D656F75742228290036
:1054E00000C20100000000400000000000000000B9
:1054F0000402040808000307080808080808080848
:105500000B0F000000000000000000000000000081
:10551000FFFFFFFF4444444444444444FFFFFFFF73
:105520004444444444444444FFFFFFFF444444444F
:1055300044444444FFFFFFFF44444444444444443F
:10554000FFFFFFFF8888888888888888000000001F
:10555000A08601006130000800000000000000008B
:10556000A0860100212F00080000000000000000BC
:10557000A0860100013000080000000000000000CB
:10558000A0860100612F000800000000000000005C
:10559000000000000000000000000000000000000B
:1055A00000000000000000000000000000000000FB
:1055B000000000000000000006000000012F0008AD
:1055C00000000000000000000000000000000000DB
:1055D00006000000C13000080000000000000000CC
:1055E00000000000000000000000000000000000BB
:1055F00006000000E12E000800000000000000008E
:10560000000000000000000000000000000000009A
:10561000000000000000000000000000000000008A
:105620000000000000000000000000000100010078
:10563000226977646753746172742228290000001C
:105640002269776467526573657422282900000017
:10565000313C0008C13B0008913E0008813E000833
:10566000713E0008413E0008313E0008F13D00084F
:10567000A13D0008713D0008213D0008E13C000803
:10568000B13C0008513B0008013B0008F13A00081A
:10569000312E302E322D6465760000006C6375303B
:1056A000332D312E302E30000000000000000000AD
:1056B0006C6400000000000000000000000000001A
:1056C00073680000000000000000000000000000FF
:0C56D00001000000A086010001000000A5
:1056E000E015000060090000401F00009C0006005B
:0400000508000111DD
:00000001FF
