:020000040800F2
:10500000000400204151000851520008515200088C
:1050100051520008515200085152000851520008E4
:1050200051520008515200085152000881520008A4
:1050300051520008515200085152000861530008B3
:1050400051520008D16C000851520008515200081A
:105050005152000851520008D16A0008016B000843
:10506000316B0008616B0008916B00081167000844
:105070004167000871670008B1670008F167000820
:105080003168000871680008515200085152000848
:10509000515200085152000851520008C16B0008DB
:1050A00051520008416E0008515200085152000848
:1050B000816E0008C16E0008016F0008717200085F
:1050C00081730008515200085152000851520008E3
:1050D00051520008917800085152000851520008BE
:0C50E000416C000851520008016D0008EE
:1050F00008B501F0A5F800F0D3F903F059FD03F06D
:105100008FFC03F0A5FF03F0E3FD03F001F900209D
:1051100003F076FD03F0ACFCFCE700BF00000000EC
:10512000704700BF00000000000000000000000009
:10513000FEE700BF000000000000000000000000CB
:1051400072B6324880F30988022383F31488BFF3D0
:105150006F8F2F492F4A91420CD2CC43224422F028
:10516000030204320B460A444FF0553143F8041B46
:105170009342FBD1284981420CD20B46274A4FF07B
:105180005530521A22F0030204320A4443F8040B49
:105190009342FBD102F0FCFC214A224B9A420DD2F1
:1051A000D043214918440B4620F003000430084442
:1051B00053F8041B834242F8041BF9D11B491C4AD3
:1051C00091420BD2C843024422F0030204320B4640
:1051D0000A44002143F8041B9A42FBD1154D164C9A
:1051E000FFF79EFFAC4204D254F8043B9847AC4210
:1051F000FAD3124D124CFFF77BFFAC4204D254F8A5
:10520000043B9847AC42FAD3FFF792FF0008002016
:10521000000000200004002000040020FF07002000
:105220000008002010080020A09A000810080020A4
:10523000902E0020EC500008EC500008EC500008C4
:10524000EC5000080000000000000000000000001A
:10525000FEE700BF000000000000000000000000AA
:1052600072B6FEE700000000000000000000000031
:1052700000F096F900F0ECFB00F0AAF900DF00BFA7
:10528000EFF30983203383F30988002383F3118824
:10529000704700BF00000000000000000000000098
:1052A00008B50A4A0A4B4FF4A04199600720DA601A
:1052B000102100F0CDF84FF400710A2000F0C8F87A
:1052C000BDE8084080210B2000F0C2B80000FA05BC
:1052D00000ED00E000000000000000000000000001
:1052E000202383F31188174B5B6813F4006319D0F4
:1052F000EFF30983A3F1200282F30988124A4FF0E9
:105300008070916943F8040C106871B1D1698268AA
:1053100089688A4294BF002201227AB10B4A43F87D
:10532000082C704783F311887047D16982688968B7
:105330008A4234BF00220122002AEFD1044A43F8F6
:10534000082C704700ED00E03C0D00207152000871
:105350007C52000800000000000000000000000077
:1053600008B500F08DF9202383F3118800F050F97F
:1053700000F0CEF800F064F9002383F3118800F008
:105380009FF9BDE80840FFF7ABBF00BF0000000079
:105390002DE9F04FC1F80CD0D0F80CD0BDE8F08F5B
:1053A00008B500F015F9002383F311882846A047BB
:1053B00000F05EFC08BD00BF00000000000000001F
:1053C00070B420F0030404F1604404F56144C200A9
:1053D000D4F8005302F018024309FF2696409B00C0
:1053E000914003F1604325EA060200F01F00012509
:1053F00005FA00F003F561431143C4F80013C3F844
:10540000800170BC186070470000000000000000C0
:1054100030B4420900F01F050C4C20F003030121B9
:10542000A940203203F1604344F8221003F56143A0
:10543000C000D3F8002300F01800FF2101FA00F0AB
:1054400022EA0000C3F8000330BC704700E100E02E
:1054500020F0030303F1604303F56D4300F0030004
:1054600010B4C0009A69FF248440814022EA0400FD
:105470000843986110BC7047000000000000000065
:10548000024B034ADB699A61FEE700BF3C0D002036
:10549000F090000800000000000000000000000084
:1054A00030B583B0FFF7FCFE00F0FAF900F090F998
:1054B00000F0AEFE00F054F940210E4800F0F0FA82
:1054C0000D4D0E4B0124E86180F82040C36100F0CF
:1054D0004FF8002383F3118862B619460848EB6938
:1054E000224698610091074BC021074800F048FB15
:1054F00003B030BD100800203C0D00200004002047
:10550000F8900008815400085808002000000000AE
:1055100038B500F0F5F8114A114C9369D169002BA8
:10552000C4BF03F1FF3393614A6A236801324A62C0
:10553000E268A34202F10102E2600ED09D68013DE3
:105540009D6055B91A68D9681869DD602260546099
:10555000884723689A68002AF4D038BD3C0D0020A3
:105560002C0D0020000000000000000000000000E2
:10557000054B1B6813B9054B1B6823B1044B054A47
:105580001A60FFF76DBE704718090020240D002037
:10559000280D00201091000800000000000000000D
:1055A000074B10B51B68074C0BB9236823B1064B9A
:1055B000064A1A60FFF754FE0123236010BD00BFA6
:1055C00018090020240D0020280D00201891000843
:1055D000094B10B51B68094C2BB92368002B02DD61
:1055E0000023236010BD064B064A1A60FFF738FE01
:1055F0000023236010BD00BF18090020240D0020E7
:10560000280D00202091000800000000000000008C
:10561000074B10B51B68074C002B01DD236823B135
:10562000054B064A1A60FFF71BFE0123236010BDDD
:1056300018090020240D0020280D002028910008C2
:10564000094B10B51B68094C002B05DD2368002BA6
:1056500002DD0023236010BD054B064A1A60FFF7E8
:10566000FFFD0023236010BD18090020240D002039
:10567000280D00203091000800000000000000000C
:1056800010B5202383F31188094C2368002B02DB1B
:10569000084A12682AB1084B084A1A60FFF7E0FD71
:1056A000236801332360002383F3118810BD00BFFA
:1056B00018090020240D0020280D00203891000832
:1056C00010B5202383F31188094C2368002B02DDD9
:1056D000084A12682AB1084B084A1A60FFF7C0FD51
:1056E0002368013B2360002383F3118810BD00BFB2
:1056F00018090020240D0020280D002040910008EA
:10570000064B1B68002B04DB054B1B68002B00DDE0
:105710007047044B044A1A60FFF7A2BD1809002025
:10572000240D0020280D00204891000800000000F2
:10573000064B1B6823B9064B1B68002B00DD704726
:10574000044B054A1A60FFF78BBD00BF1809002003
:10575000240D0020280D00205091000800000000BA
:10576000034A4021134643F8081B5360704700BFAB
:105770001C090020000000000000000000000000E4
:1057800010B40C4A0C4C0D495368E468C9691C609C
:105790005960846A03F110019C6090F8204002F582
:1057A000816081421C732ABF02F10803516053607B
:1057B00010BC70471C0900202C0D00203C0D00205F
:1057C000014B1860FFF74CBD280D002000000000C1
:1057D000044B4FF0FF3100225B601B609960DA6080
:1057E000704700BF2C0D00200000000000000000EA
:1057F000F8B505460C4616461F46FFF781FFCDB1AA
:10580000C6B1BCB10D492F610B68EE609A68944235
:1058100004D91B68A41A9A68A242FAD35A688B4228
:105820002B606A605D601560AC6002D09968091BEE
:105830009960F8BD0248FFF7C3FFE3E72C0D002095
:10584000609100080000000000000000000000005F
:1058500010B50446FFF754FF84B1E36893B12368A1
:105860000A4A934203D09968A2680A449A6062681F
:105870000021136023685A60E16010BD0448FFF7FF
:105880009FFFEAE70348FFF79BFFE8E72C0D0020A6
:1058900070910008809100080000000000000000E6
:1058A000044B002114225B601B605B611B619960EB
:1058B0009A6170473C0D00200000000000000000CD
:1058C00010B590F8203004468BB10E2B0FD000227B
:1058D000A168094B84F820201B689A688A42FBD291
:1058E0005A682046236062605C60146010BD034803
:1058F000FFF766FFEBE700BF3C0D0020A09100081A
:1059000090F820300D2B11D8DFE803F015101007A8
:10591000100B101010101010100B826A93680133D6
:10592000936090E80C001A60026853604FF0FF33F8
:105930008362FFF7C5BF7047000000000000000051
:1059400070B50646104CFFF7F3FEE569236885F84D
:1059500020601A6814200121A0615460284683F851
:1059600020102260E361FFF70BFFEA69ADF1240329
:105970009A4202D90548FFF723FF2946E069BDE8AE
:105980007040FFF705BD00BF3C0D0020B49100083A
:1059900070B50C4686B00646FFF7CAFE631C12D0EF
:1059A0000D4D2146EB6901A80C4AFFF721FF304657
:1059B000FFF7C6FF049B13B101A8FFF749FFEB698E
:1059C000986A06B070BD3046FFF7BAFF024DEB692A
:1059D000986A06B070BD00BF3C0D00200159000858
:1059E00070B504460E46164DFFF7A2FEE869A662A2
:1059F0008368A2689A4215D9FFF762FF0646012321
:105A000084F820301423AB61EC61FFF7B9FEF26932
:105A1000ADF124039A420AD831462046BDE87040D1
:105A2000FFF7B6BC2046BDE87040FFF749BF054808
:105A3000FFF7C6FE31462046BDE87040FFF7A8BC20
:105A40003C0D0020B49100080000000000000000A0
:105A500038B5104C01212368E5691A681420A0614B
:105A60005460284683F820102260E361FFF728FF86
:105A70002846FFF785FEEA69ADF124039A4202D970
:105A80000548FFF79DFE2946E069BDE83840FFF76D
:105A90007FBC00BF3C0D0020B49100080000000056
:105AA000F0B50F4C00226569416481604FF0020E31
:105AB00000F1300100F12C0700F148064561046156
:105AC00080F820E0606180F821200264C2634262B5
:105AD00082612861C762C66141630163F0BD00BF96
:105AE0003C0D00200000000000000000000000004D
:105AF0002DE9F04104460D4617469846FFF700FE93
:105B00000CB1AF2D2CD81948FFF75AFE1848A5F153
:105B10002401069B6518174A46694FF0020CE560A0
:105B200044F801806B6000232A6204F1480104F10B
:105B3000300204F12C0584F820C084F82130206163
:105B4000A7606661676444612364E3636362A36181
:105B500020463461E56262632263E161BDE8F08161
:105B60007F2FD0D8B8F1000FD0D1CCE7D09100086A
:105B70003C0D0020A15300080000000000000000C0
:105B80002DE9F0479A46074688469146034682B07B
:105B90000A9E00F14804FF2503F8015B9C42FBD1FB
:105BA00007EB08039C4204D2552504F8015BA3428D
:105BB000FBD1202383F31188FFF7F2FC53464A46BA
:105BC000414600963846FFF793FF00210446FFF751
:105BD00007FFFFF7FDFC002383F31188204602B086
:105BE000BDE8F08700000000000000000000000099
:105BF00010B5044610B90948FFF7E2FD202383F3EE
:105C00001188FFF7CDFC21460620FFF7C1FEFFF704
:105C1000DFFC002383F3118810BD00BF1092000841
:105C200038B5104BDC692546A06255F82C0FA84208
:105C300006D00368E362FFF743FEE06AA842F8D1AA
:105C400094F821309B0704D1226963691A612269A3
:105C500053610E20FFF774FEBDE838400248FFF79D
:105C6000AFBD00BF3C0D00202092000800000000E6
:105C700010B52023044683F31188FFF791FC2046DA
:105C8000BDE81040FFF7CCBF00000000000000009E
:105C900010B5044620B1002364602460A36010BDE9
:105CA0000148FFF78DFDF6E7609200080000000054
:105CB00070B505463A4BDC69FFF73AFD002D6BD015
:105CC000A868002836D0A26883689A4207D990F85D
:105CD00020308260042B46D0052B30D0FBB12B4600
:105CE00003E09968A268914202D31B689D42F8D1F3
:105CF0005A680420236062605C601460A562FFF74C
:105D00001FFEAB689C4202D02648FFF759FD236C6A
:105D10009D4213D0BDE870402348FFF751BD0121DB
:105D200090E80C0080F820101A6002685360FFF7BA
:105D3000C7FDD4E7236CAC60EB60256470BD90E8D0
:105D40000A00196001684B60866A334602E0996870
:105D5000914202D31B689E42F9D15A6803604260A7
:105D600058601060BBE790E80A00196001684B605A
:105D7000866A334602E09968914202D31B689E42CC
:105D8000F9D15A680360426058601060B068A26838
:105D9000836893429BD3A2E70448FFF711FD8FE786
:105DA0003C0D002080920008949200087092000838
:105DB00010B52023044683F31188FFF7F1FB20463A
:105DC000FFF776FFFFF704FC002383F3118810BD73
:105DD0001E4A70B52023D56983F31188FFF7E0FBD5
:105DE0002C6C002C2DD0A3689D4203D01848FFF7DF
:105DF000E7FC2C6C2668E368A6422B641ED0696C15
:105E00004BB11A689A4203D09268914238BF11464A
:105E1000DB68002BF5D1326C33683046A960236013
:105E200000215C60A660E2603464FFF7D9FDFFF7F3
:105E3000CFFB002383F31188204670BD0023A360AD
:105E4000F5E70448FFF7BCFC2C6CCCE73C0D0020C8
:105E5000D0920008BC920008000000000000000082
:105E600038B504460D46FFF74BFCBCB1E36B94F824
:105E7000202045EA0301082AE1630BD0092A00D05B
:105E800038BDA36A8B43FBD12046FFF719FD0023E1
:105E9000836238BDA36A1942F6D138BD0148FFF7C5
:105EA0008FFCE3E73C9300080000000000000000C6
:105EB00070B505460E46FFF723FC5DB12C68A54280
:105EC00007D0A16860683143FFF7CAFF2468A54284
:105ED000F7D170BD0148FFF773FCEFE7609300084E
:105EE00069B10246074B10B4DB690D209A62546811
:105EF00083E814005360236010BCFFF749BD4FF0E6
:105F0000FF3070473C0D0020000000000000000042
:105F100010B40A4400248460026140600060416162
:105F20008161C160C36110BC704700BF0000000008
:105F300038B504460D46FFF7E3FBA36962699A4250
:105F4000A36818D00133511C6161A36015702369E7
:105F5000626920689A4224BFE3686361A04208D066
:105F6000036823605C60FFF7ABFC00238362184684
:105F700038BD002038BD002BE4D06FF0030038BDE1
:105F8000F8B504460F46202383F31188FFF708FB7A
:105F9000E36943B12046984705E039462046FFF7BC
:105FA0009FFF061E16DBA568002DF6D0A2692169A9
:105FB000531C8B42A36105F1FF3528BFE368A56040
:105FC000167828BFA361FFF703FB002383F3118832
:105FD0003046F8BDFFF7FCFA2B4683F311883046B4
:105FE000F8BD00BF0000000000000000000000003D
:105FF0002DE9F047044689461E46D0F81C8092469B
:10600000002A37D0202383F31188FFF7C9FA00272D
:10601000B8F1000F07D02046C04704E031462046C3
:10602000FFF75EFFF0B9A568002DF7D0A369013D29
:106030005A1CA261A5601B7809F8013B2369A2697B
:106040009A4224BFE368A361FFF7C2FA002383F3F7
:1060500011880137BA450AD0202383F31188FFF74E
:106060009FFAD5E7FFF7B4FA2B4683F31188384639
:10607000BDE8F0870148FFF7A3FBC3E7A093000842
:1060800010B48C18046140600060826041618161DD
:10609000C160C36110BC7047000000000000000038
:1060A0002DE9F041202304468846174683F31188E2
:1060B000FFF776FA05E039462046FFF711FF061E86
:1060C0001BDBA568002DF6D06369013D5A1C626197
:1060D000A56083F80080236962699A4224BFE3685F
:1060E0006361E3690BB120469847FFF771FA00231B
:1060F00083F311881846BDE8F081FFF769FA2B4653
:1061000083F311883046BDE8F08100BF0000000035
:1061100038B50446FFF7F4FA6369A2699342A368AD
:1061200017D02069511C814203F10103A36020684C
:1061300028BFE368A161157828BFA361A04206D0FB
:10614000036823605C60FFF7BBFB00238362284683
:1061500038BD002BE5D06FF0020038BD0000000014
:106160002DE9F84F04460E469B46D0F81CA0174672
:10617000002A40D0202383F31188FFF711FA4FF053
:106180000009A56806F101086A1E35B36369A260BB
:106190005A1C626132781A70236962699A4224BF7C
:1061A000E3686361BAF1000F01D02046D047FFF7E2
:1061B0000FFA002383F31188013F09F101094FF021
:1061C000200315D083F311884646FFF7E9F9A56847
:1061D00006F101086A1E002DD8D159462046FFF766
:1061E0007FFE0028CDD0FFF7F3F92B4683F311880B
:1061F0004846BDE8F88F0248FFF7E2FABAE700BF69
:10620000B49300080000000000000000000000003F
:10621000054A064B0648074922F0070223F0070308
:1062200002600B60704700BF972E002000500020D6
:10623000600D00205C0D0020000000000000000048
:1062400008B500F0A5FB074801F032FC00F010F89B
:1062500000F046F800F0FCF800F0D2F9BDE8084084
:1062600001F09EBCD0980008000000000000000073
:1062700000F05EBD00000000000000000000000013
:106280000122002302704360704700BF000000003D
:1062900038B50D460446C0B1B9B1202383F3118847
:1062A000FFF77EF92378013B012B02D90948FFF75C
:1062B00087FA2046656000F043FD02232370FFF754
:1062C00087F9002383F3118838BD0348FFF778FA74
:1062D000E3E700BFE0930008D0930008000000004F
:1062E00000F02EBE000000000000000000000000D2
:1062F0000122002302704360704700BF00000000CD
:1063000038B50D460446C0B1B9B1202383F31188D6
:10631000FFF746F92378013B012B02D90948FFF723
:106320004FFA2046656000F03BFE02232370FFF722
:106330004FF9002383F3118838BD0348FFF740FA73
:10634000E3E700BF7C9400087094000800000000A0
:1063500010B50446B0B1202383F31188FFF720F96C
:106360002378013B012B02D90848FFF729FA204680
:1063700000F08EFE01232370FFF72AF9002383F338
:10638000118810BD0248FFF71BFAE4E79894000853
:106390008C940008000000000000000000000000D5
:1063A00038B504460D46FFF7ABF96CB12378022BE4
:1063B00002D00748FFF704FA042329462370204639
:1063C000BDE8384000F0ACBE0248FFF7F9F9EDE750
:1063D000F4940008DC9400080000000000000000B5
:1063E00038B504460D46202383F31188FFF7D8F80B
:1063F00029462046FFF7D4FFFFF7EAF8002383F38E
:10640000118838BD000000000000000000000000FE
:1064100010B50446FFF774F96CB12378023B022BE8
:1064200002D90748FFF7CCF9022323702046BDE8C4
:10643000104000F085BE0348FFF7C2F9EDE700BF4A
:10644000209500080C9500080000000000000000E6
:1064500001F03EB800000000000000000000000055
:106460000122002302704360704700BF000000005B
:1064700038B50D460446D0B1C9B123785A1E012A59
:1064800004D9052B02D00C48FFF79AF9202383F397
:106490001188FFF785F82046656001F031F8022386
:1064A0002370FFF795F8002383F3118838BD034864
:1064B000FFF786F9E1E700BF6095000850950008F6
:1064C0002DE9F04685B00E46924699460D9D04464C
:1064D00000B159BB1B48FFF773F92378022B02D098
:1064E0001948FFF76DF9202383F31188FFF758F857
:1064F000002703202070A760314601950E9E0C9D59
:106500004B46524600952046029601F029F9431C5D
:106510000CBF0523022323700546FFF759F800231B
:1065200083F31188284605B0BDE8F086002BD1D052
:10653000002ACFD015B10C9B002BCBD00E9B002B8B
:10654000CBD1C7E7A0950008C09500080000000067
:10655000806BB0FA80F04009704700BF0000000077
:106560008069B0FA80F04009704700BF0000000069
:1065700070B52023054683F311880024FFF710F837
:10658000AE68AC60FFF724F8234683F311883046E9
:1065900070BD00BF0000000000000000000000000F
:1065A0001030FFF725BD00BF000000000000000014
:1065B00010304FF0FF33FFF71BBD00BF000000009D
:1065C0003030FFF7CDBD00BF00000000000000002C
:1065D00030304FF0FF33FFF7C3BD00BF00000000B5
:1065E0001030FFF7CDBC00BF00000000000000002D
:1065F0003030FFF755BD00BF000000000000000074
:1066000001F0FEB9000000000000000000000000E2
:106610002DE9F041044615460D4B002740F8043B98
:1066200001260B46606004F1500104F11000A760E0
:1066300026734FF40072FFF76BFC2B4604F51471C0
:1066400004F130004FF40072BDE8F041FFF718BDCF
:10665000809600080000000000000000000000001C
:1066600038B50D460446B8B1202383F31188FEF7F0
:1066700097FF237B013B012B02D90948FFF7A0F8C4
:106680002946204601F0D4F902232373FEF7A0FF28
:10669000002383F3118838BD0248FFF791F8E3E740
:1066A0002C96000820960008000000000000000062
:1066B00038B504460D46FFF723F80CB3A16939B18C
:1066C000294604F11000FFF733FC00280EDB38BD2B
:1066D000A368201D43F00403A360FFF7E9FB2946EC
:1066E00004F11000FFF724FC0028F0DAA368201D55
:1066F00043F08003A3600021BDE83840FFF7D8BB1A
:106700000148FFF75DF8D9E758960008000000003F
:1067100008B5FEF7B5FF084B084A0F201968586006
:10672000136801400BB150689847FEF7C9FFBDE8F8
:106730000840FEF7D5BD00BF00000240640D0020F8
:1067400010B5FEF79DFF084B084819688268F024D1
:10675000C1F303115C600AB1C0689047FEF7B0FF57
:10676000BDE81040FEF7BCBD00000240640D0020F3
:1067700010B5FEF785FF094B0948196802694FF407
:106780007064C1F303215C600AB140699047FEF771
:1067900097FFBDE81040FEF7A3BD00BF0000024018
:1067A000640D002000000000000000000000000058
:1067B00010B5FEF765FF094B0948196882694FF467
:1067C0007044C1F303315C600AB1C0699047FEF7C1
:1067D00077FFBDE81040FEF783BD00BF0000024018
:1067E000640D002000000000000000000000000018
:1067F00010B5FEF745FF094B09481968026A4FF4C6
:106800007024C1F303415C600AB1406A9047FEF70F
:1068100057FFBDE81040FEF763BD00BF0000024017
:10682000640D0020000000000000000000000000D7
:1068300010B5FEF725FF094B09481968826A4FF425
:106840007004C1F303515C600AB1C06A9047FEF75F
:1068500037FFBDE81040FEF743BD00BF0000024017
:10686000640D002000000000000000000000000097
:1068700010B5FEF705FF094B09481968026B4FF088
:106880007064C1F303615C600AB1406B9047FEF72E
:1068900017FFBDE81040FEF723BD00BF0000024017
:1068A000640D002000000000000000000000000057
:1068B00070B40C4E00252B4629460B4A0B480C4C55
:1068C000356001E052F80C0C016044F833100133DC
:1068D000072B02F10C02F5D170BC064B4FF0FF32D2
:1068E0005A6070479C0D0020FC960008080002408A
:1068F000640D0020000002400000000000000000C5
:10690000F0B5054685B0002830D01D4F6E7A3C6842
:10691000012000FA06FE1EEA040F22D119484EEAB1
:10692000040400EBC60ECEF8043063063C6040F869
:10693000362004D01448436943F0010343612B68B7
:106940006E681C680F2024F001041C602F7A00245C
:10695000B84030601C6032B1A87A0901FEF730FD02
:10696000204605B0F0BD104605B0F0BD07480393C2
:1069700002920191FEF724FF01A90EC9C5E700BFED
:106980009C0D0020640D002000100240B09600080D
:10699000204BF0B420494FF0FF3400221F4E1869FD
:1069A00007251C611E481A61DF68DC60DA604E60F2
:1069B0008A600D60C1681B4C41F08071C160216824
:1069C000194841F001012160D96941F08051D96134
:1069D000D96941F00061D961016841F480710160B9
:1069E000196A01F44071B1F5407F03D04FF4803152
:1069F00019621A62074B1A6A120407D41A6A42F41F
:106A000040721A621A6A42F400421A62F0BCFFF73E
:106A10004FBF00BF0010024010E000E07F320200D4
:106A2000F0ED00E0001000E0007000400000000009
:106A3000234B19461A6842F001021A600B68204A7B
:106A40009807FBD511461368002003F0F903136083
:106A500050604B681A4A13F00C0FFAD111461368B4
:106A600043F4803313600B68154A9B03FBD5114632
:106A7000536A43F0010353624B6A114A9807FBD5EE
:106A80001146536843F4E8135360136843F080736E
:106A900013600B680A4A9B01FBD5114610B4094BE1
:106AA000094C122054601860536843F0020353608D
:106AB0004B6803F00C03082BFAD110BC704700BFE1
:106AC000001002400020024000641D000000000091
:106AD00008B5FEF7D5FD0748074A436801215B6802
:106AE000516100219847FEF7EBFDBDE80840FEF735
:106AF000F7BB00BFA00D0020000401400000000013
:106B000008B5FEF7BDFD0748074A43680221DB6868
:106B1000516101219847FEF7D3FDBDE80840FEF71B
:106B2000DFBB00BFA00D00200004014000000000FA
:106B300008B5FEF7A5FD0748074A436804215B69CD
:106B4000516102219847FEF7BBFDBDE80840FEF702
:106B5000C7BB00BFA00D00200004014000000000E2
:106B600008B5FEF78DFD0748074A43680821DB6931
:106B7000516103219847FEF7A3FDBDE80840FEF7E9
:106B8000AFBB00BFA00D00200004014000000000CA
:106B900008B5FEF775FD0748074A436810215B6A90
:106BA000516104219847FEF78BFDBDE80840FEF7D0
:106BB00097BB00BFA00D00200004014000000000B2
:106BC00010B5FEF75DFD194B5C6904F478725A61EB
:106BD000A30624D460061CD4210614D4E2050CD4E8
:106BE000A30504D5124809214368DB6C9847FEF7DA
:106BF00067FDBDE81040FEF773BB0D4808214368F0
:106C00005B6C9847ECE70A4807214368DB6B9847C1
:106C1000E4E70748062143685B6B9847DCE70448D4
:106C200005214368DB6A9847D4E700BF00040140B0
:106C3000A00D002000000000000000000000000087
:106C400010B5FEF71DFD1D4B5C6904F47C425A61D2
:106C500062052CD4230524D4E0041CD4A10414D44C
:106C600062040CD4230404D515480F214368DB6F5C
:106C70009847FEF725FDBDE81040FEF731BB1048F0
:106C80000E2143685B6F9847ECE70D480D21436880
:106C9000DB6E9847E4E70A480C2143685B6E98472F
:106CA000DCE707480B214368DB6D9847D4E70448CD
:106CB0000A2143685B6D9847CCE700BF00040140A0
:106CC000A00D0020000000000000000000000000F7
:106CD00008B5FEF7D5FC0848084A43684FF48031F0
:106CE000D3F88430516110219847FEF7E9FCBDE8E4
:106CF0000840FEF7F5BA00BFA00D002000040140D7
:106D000008B5FEF7BDFC0848084A43684FF48021E7
:106D1000D3F89430516112219847FEF7D1FCBDE8B9
:106D20000840FEF7DDBA00BFA00D002000040140BE
:106D30000148FFF7A5BA00BFA00D00200000000029
:106D40002DE9F04105780446012D44D065684FF0E7
:106D5000000E2946F446F04677467346012011E0BE
:106D60002743D40744BF00FA03F44CEA040C92070B
:106D700044BF00FA03F24EEA020E0133132B01F175
:106D800008010DD055F8332000FA03F45607F4D566
:106D90004E68002EE4D100FA03F448EA0408E0E764
:106DA000B5F89810204AB5F89A309160B5F89C1063
:106DB000B5F89E00D36011611C4B1D495061002243
:106DC0001A61C3F808C0C3F80CE05961C3F8048025
:106DD0001F60BDE8F08160210620FEF7F1FA602116
:106DE0000720FEF7EDFA60210820FEF7E9FA60219E
:106DF0000920FEF7E5FA60210A20FEF7E1FA60219A
:106E00001720FEF7DDFA60212820FEF7D9FA284680
:106E10006021FEF7D5FA60212920FEF7D1FA602122
:106E20002A20FEF7CDFA91E700000140000401405E
:106E3000FFFF07000000000000000000000000004D
:106E400008B5FEF71DFC0B4B00211878DA68042802
:106E5000118204D1022018701180118291815B6827
:106E600004485B689847FEF72BFCBDE80840FEF736
:106E700037BA00BFA80D002000000000000000008D
:106E800008B5FEF7FDFB0B4B00211878DA680428E3
:106E9000118204D1022018701180118291815B68E7
:106EA00004485B689847FEF70BFCBDE80840FEF716
:106EB00017BA00BFB80D002000000000000000005D
:106EC00008B5FEF7DDFB0B4B00211878DA680428C3
:106ED000118204D1022018701180118291815B68A7
:106EE00004485B689847FEF7EBFBBDE80840FEF7F7
:106EF000F7B900BFC80D002000000000000000002E
:106F000008B5FEF7BDFB0B4B00211878DA680428A2
:106F1000118204D1022018701180118291815B6866
:106F200004485B689847FEF7CBFBBDE80840FEF7D6
:106F3000D7B900BFD80D00200000000000000000FD
:106F400008B50D4B0D4A1846DA60FFF7D1F90C4B26
:106F50004FF080421846DA60FFF7CAF9094B0A4A37
:106F60001846DA60FFF7C4F9084B094A1846DA6098
:106F7000BDE80840FFF7BCB9A80D0020002C014077
:106F8000B80D0020C80D002000040040D80D0020DE
:106F900000080040000000000000000000000000A9
:106FA00038B503780546012B15D06B68AA681B68B5
:106FB000B2FBF3F4013CA4B204FB03339A4202D0C7
:106FC0002948FEF7FDFBEB68002208211A80998012
:106FD0001C859A8138BD254B98421AD0244B984283
:106FE00029D0244B984232D0234B9842DDD1234BF9
:106FF0000024DA69702142F00402DA611A691E2065
:1070000042F004021A611C61FEF7DAF91C4BAB6016
:10701000CBE71A4B00249A69702142F400629A610E
:10702000DA68192042F40062DA60DC60FEF7C8F921
:10703000134BAB60B9E7114B0024DA69702142F0C1
:107040000102DA611A691C2042F00102DAE70B4BF7
:107050000024DA69702142F00202DA611A691D2007
:1070600042F00202CEE700BF50970008A80D0020B2
:10707000B80D0020C80D0020D80D002000100240DF
:1070800000A24A0400000000000000000000000010
:1070900008B50378022B00D008BD1A49C368002246
:1070A00088421A809A811A8211D0174B984217D0C1
:1070B000164B98421DD0164B9842EDD11E20FEF77C
:1070C000A7F9144AD36923F00403D361E4E7192034
:1070D000FEF79EF90F4A936923F40063936108BD9C
:1070E0001C20FEF795F90B4AD36923F00103D36105
:1070F00008BD1D20FEF78CF9064AD36923F0020370
:10710000D36108BDA80D0020B80D0020C80D0020D7
:10711000D80D002000100240000000000000000018
:10712000C36810B40122002005240139D9629A8273
:10713000586218829A811C8010BC704700000000C1
:10714000C36800221A801A829A81704700000000EA
:1071500030B4C469036A216800224FF400451D80E1
:107160001A809A809A820B68826923F001030B606F
:10717000217A0F236468106803FA01F12160016825
:10718000546821F001010160127A9340236030BC01
:10719000704700BF00000000000000000000000079
:1071A00038B5C56865B10446FFF7D2FF4FF0FF332D
:1071B0000022E260AB622846BDE83840FEF780BBA3
:1071C00038BD00BF0000000000000000000000000B
:1071D00038B50B070546046A01D5FEF741F8EA69A0
:1071E0000F2392E82100016821F001010160127A69
:1071F00093402B60A3889BB243F40073A38038BDF7
:10720000F8B50B070546046A2ED4A9690F2291E848
:10721000C0003068202320F001003060097A8A40E5
:107220003A60A28822F480521204120CA2802288B2
:1072300022F480621204120C2280228892B242F45C
:107240000072228083F31188FEF7E2F9EB682BB11C
:107250000022EA6018469A62FEF732FBFEF7F0F968
:10726000002383F31188F8BDFDF7FAFFCDE700BFD7
:10727000F8B53E4EFEF704FA346A3D4A238BA58AE0
:10728000ADB245EA034323F07F43934236D02FD972
:10729000384A934216D0023293421FD1B3691B6819
:1072A0005F68002F45D02388328A9BB243F4A063E5
:1072B00042F0010232822380FEF702FABDE8F84074
:1072C000FEF70EB8A388F26923F400731B0412685A
:1072D0001B0CA380136843F00103136015F00A0F21
:1072E00018BF238BFEF7ECF9BDE8F840FDF7F8BFB7
:1072F000013A9342F2D1338A2382EFE7A388B2693D
:1073000023F400731B0412681B0CA380136843F062
:1073100001031360A3889BB243F48053A380536896
:10732000012BDBD8238823F480631B041B0C2380F0
:10733000D4E7A288202322F400721204120CA28047
:10734000228892B242F40072228083F31188FEF701
:107350005FF9F06818B18762F760FEF7B1FAFEF7DF
:107360006FF9002383F31188B8E700BFE80D002010
:10737000020003008200070000000000000000007F
:10738000F8B5514DFEF77CF92C6A202383F3118860
:10739000FEF73EF9E969AA6991E8C00030680F2359
:1073A00020F001003060097A106803FA01F13960B9
:1073B0000168566821F001010160127A9340336040
:1073C000FEF73EF9002383F31188A38A03F4807348
:1073D0009BB233B1A28A012322F480721204120CF0
:1073E000A282A28A920507D5A28A43F0020322F460
:1073F00000721204120CA282A28A570512D5A28A28
:1074000043F0040322F480621204120CA282A288C8
:1074100022F400721204120CA280228892B242F46A
:1074200000722280A28A160507D5A28A43F00803BB
:1074300022F400621204120CA282A28AD00407D5A0
:10744000A28A43F0100322F480521204120CA2828A
:10745000A28A12F4804FA28A24D022F4804212041D
:10746000120CA282A28A43F02003110424D4AB6040
:10747000154C202383F31188FEF7CAF8E86830B171
:107480006FF0010383620023E360FEF719FAFEF751
:10749000D7F8002383F31188FEF712F9BDE8F8400E
:1074A000FDF71EBF120407D4002BE0D1FEF708F948
:1074B000BDE8F840FDF714BFA28A43F04003C2F3D1
:1074C0000E02A282D3E700BFE80D002000000000FA
:1074D00010B5074C2046FEF7C3FF064B06490020B7
:1074E000A3F10C02E0602162A361E26110BD00BF64
:1074F000E80D00203897000800540040000000000C
:1075000002788A23012A2DE9F0410446056A436185
:1075100076D02F464FF09A0EE269A1696068126832
:107520000968466890F80880C2F800E00B6005F131
:1075300010038B60936078494FF400422A80731ED9
:1075400000222A808B424FF41062AA8002D973482D
:10755000FEF736F9BB88724A23F03F031B041B0C6D
:10756000BB80BB8896429BB243F02403BB8036DCD1
:10757000B8F1010F02D06B48FEF722F96A4B760092
:1075800093FBF6F306FB03F3674AD21A002A77D17E
:10759000654B93FBF6F6B3B2032B69D92522B3F5FD
:1075A000805FC6F30B063A8402D36048FEF708F901
:1075B0006368216A1A78BE830B88022A9BB251D075
:1075C000032A4CD0012A02D123F00A039BB20B807C
:1075D0002B889BB243F001032B80BDE8F081544B14
:1075E0009E420BDCA8F10203012B53D95148FEF750
:1075F000E7F848F6FF760B233B84D9E70026D7E768
:107600004D4EB04285D14D4900200A69234642F4CF
:1076100000120A6108614A4A0A21A069FFF770F95D
:10762000002871D1444B474A0A21F069FFF768F9F5
:10763000002865D1414AA021D3691F2043F40013DB
:10764000D361FDF7BDFEA0212020FDF7B9FE7269D0
:10765000376A42F48053736143F0100E5CE743F0E5
:107660000A03B4E723F008039BB243F00203AEE73A
:107670003548FEF7A5F82523C6F30B063B8497E7AC
:107680003248FEF79DF8284B93FBF6F6B3B2032B76
:1076900084D8EDE7B8F1020F16D1234B06EB46066E
:1076A00093FBF6F306FB03F31F4AD21A42B91E4BB3
:1076B00093FBF6F66FEA46466FEA5646B6B29AE78D
:1076C0002348FEF77DF8F2E7B8F1030F20D106EB6F
:1076D0008606154B06EB860693FBF6F306FB03F3D3
:1076E000114AD21A42B9104B93FBF6F66FEA86465E
:1076F0006FEA9646B6B27EE71648FEF761F8F2E703
:107700001548FEF75DF895E71448FEF759F889E744
:1077100048F6FF766FE700BFFF083D009897000826
:10772000A0860100B097000800512502409800088B
:10773000801A0600F8970008E80D002000100240AB
:1077400001720008D1710008E0970008C89700088E
:10775000109800082898000884970008709700087F
:107760002DE9F04D86B00F9F0646884693469A460F
:10777000046A109D27B1012F5DD90E9B002B5AD0B2
:107780006B1C05D03346364A294601A8FEF730F86F
:10779000FDF71EFF002383F31188F169B2690968C0
:1077A0001268B3600E9B4FEA4808A6F81080C1F833
:1077B0000CB0C1F804A0D360576004E0FDF708FFE7
:1077C000002383F31188228B2023910702D422887F
:1077D00092050DD583F31188FDF7E2FE681CEDD00C
:1077E000049B002BEAD14FF0FF3006B0BDE8F08DCE
:1077F00083F31188FDF7D4FE013520D0049B002BC4
:10780000F1D0A388174D9BB243F40073A380238863
:10781000EA699BB243F4807323800220F260FEF792
:107820008FF8049B13B101A8FEF712F8EB69986A70
:1078300006B0BDE8F08D0C48FDF7C2FFA0E7A388B5
:10784000084D9BB243F40073A3802388EA699BB27E
:1078500043F4807323800220F260FEF771F8E5E7BD
:10786000A17100083C0D00207C9800080000000079
:10787000034A93899BB243F080039381704700BF12
:10788000003801400000000000000000000000007F
:107890002DE9F843574FFDF7F3FED7F85064B5894B
:1078A0003488B6F80480A4B22307ADB21FFA88F872
:1078B00054D1E30539D4A00627D4290601D52206E0
:1078C00072D463061BD5202383F31188FDF7A0FE35
:1078D000BB68002143F010034748BB60FEF7E8FA9D
:1078E000FDF7AEFE002383F3118825F04005ADB20D
:1078F000B581338823F040031B041B0C3380FDF754
:10790000DFFEBDE8F843FDF7EBBC202383F31188CD
:10791000FDF77EFE5FFA88F13648FEF7C9FEFDF7F7
:107920008FFE002383F31188C7E7202383F3118898
:10793000FDF76EFEBB68002143F400732E48BB6068
:10794000FEF7B6FAFDF77CFE002383F31188338837
:1079500023F480731B041B0C3380ACE714F0080F76
:107960000CBF4FF000094FF08009E00748BF49F015
:107970002009A10748BF49F04009620748BF49F400
:107980008079202383F31188FDF742FEBB68002134
:1079900043EA09031848BB60FEF78AFAFDF750FE78
:1079A000002383F3118884E7202383F31188DFF811
:1079B0004480FDF72DFE08F13000FEF7A9FB0028FA
:1079C00007DB80B2B080FDF73BFE002383F3118814
:1079D00077E7D8F8083008F1040043F008030021E5
:1079E000C8F80830FEF764FA25F0C00343F04003FE
:1079F000B381E8E70C0E0020100E0020000000000C
:107A000010B5054C054A20460021FEF701FE044B47
:107A1000C4F8503410BD00BF0C0E0020717800086F
:107A200000380140000000000000000000000000DD
:107A300038B5194C037B002918BF0C46012B0546AD
:107A40001DD02168154AD5F85034B2FBF1F292B23C
:107A50001A81A288E088218942F4045242F02C0263
:107A600040F0400041F0010192B280B289B200249E
:107A70009A81188299821C801A889B8838BD084B8D
:107A80009842DED1074AC0219369252043F4804300
:107A90009361FDF795FCD4E7A098000800512502FA
:107AA0000C0E00200010024000000000000000004A
:107AB000154A70B49369154D43F07D0393610368D3
:107AC000134CEB60836813496B604668A2F57C42F7
:107AD0002E60C568104BE5604569656005692560E5
:107AE0008469CC60046A4C60C4690C60416AD160EE
:107AF000C16A5160816A1160026BDA60826B5A6000
:107B0000426B1A6070BC70470010024000080140D0
:107B1000000C01400010014000180140000000006E
:107B2000032AF0B52CD0042A08BF416100231C466B
:107B30001D461E46DFF84CE008271EF8022011F013
:107B4000800F4FEA05154FEA03134FEA06164FEA76
:107B500004140CBF45F00F05134311F4004F0CBF84
:107B600046F00F061443013F4FEA4101E7D1426856
:107B7000164034434460026815402B430360F0BD57
:107B80000161D3E7B0980008000000000000000089
:107B9000FEF74EBF000000000000000000000000E3
:107BA000704700BF0000000000000000000000005F
:107BB000034B1A7C196842F001021A74596070472D
:107BC000D0230020000000000000000000000000A2
:107BD000044B93F82420596942F0010283F82420D1
:107BE00099617047D02300200000000000000000D1
:107BF000094B0121187C094A10F0040F18BF0846F0
:107C0000516199681A6808BF4FF0FF30013902448A
:107C100099601A60704700BFD0230020000C01401B
:107C20000A4B10B493F82420D96912F0040F5A6952
:107C300014BF01244FF0FF340548224401390224C7
:107C4000D9615A61446110BC704700BFD023002045
:107C500000080140000000000000000000000000DB
:107C6000F0B5114B83B01A685B6917121814191616
:107C7000161415161C128DF800208DF804308DF89E
:107C800006008DF807108DF801708DF802608DF8F0
:107C900003508DF8054001F093F96946082001F082
:107CA00057F903B0F0BD00BFD02300200000000052
:107CB00008B50E4B4FF480621A61202383F31188BC
:107CC000FDF7A6FC01F00CFA0948FEF7A1FB0948F4
:107CD000FEF79EFB0848FEF79BFB0848FEF798FB63
:107CE000FDF7AEFC002383F3118808BD000C0140B2
:107CF000A80D0020B80D0020C80D0020D80D0020D0
:107D00002DE9F04F8B4DDFF84C82DFF84CB2DFF8F5
:107D10004CA2DFF84C9285B04FF0FF318648FEF759
:107D20002FF94FF0FF318DF80C008348FEF728F94A
:107D30004FF0FF318DF80D007F48FEF721F94FF02D
:107D4000FF318DF80E007C48FEF71AF920238DF8DC
:107D50000F0083F31188FDF723FC6B69039EF61A6D
:107D6000FDF736FC002383F311889E4240F3DB804D
:107D7000724A102313610127714A4FF40051516177
:107D80008023A2F5806213611920FDF731FFD8F836
:107D900000407310019399FBF4F4202383F31188BE
:107DA000FDF7FEFB95F824302C6267F3820385F81B
:107DB0002430EE61FDF70CFC002383F31188614849
:107DC000A1B2FEF70DFB202383F31188FDF7E8FB3A
:107DD000EC69FDF7FDFB002383F31188019B321B47
:107DE0009342B8BF2246D8F80030DBF8007003FB9E
:107DF00003F37F0002FB0737394603E0134499423F
:107E000014DD194697FBF1F04F4B01EB000E0EEA23
:107E100003030EEBDE72002B4FEA6202EEDA013B47
:107E200063F00103013313449942EADC4B1E98428C
:107E30004BD0DAF8007020238F42A8BF0F4699FB81
:107E4000F7F783F31188FDF7ABFB3946022FB8BF74
:107E500002212962374FFDF7BBFB002383F3118812
:107E60003A481946FEF78CF8013034D1002CAADCD0
:107E70001920FDF7BDFE202383F31188FDF790FB49
:107E80002B7C9C0745D5FDF7A3FB002383F31188CA
:107E9000202383F31188FDF783FB95F82430254ACE
:107EA0006FF34103D9B2C80785F8243007D54B07D3
:107EB00005D55369906900211B1A53619161FDF743
:107EC00087FB002383F3118826E701FB1077002F3F
:107ED00008BF0146ADE71B48FEF73AFA1C48FEF71B
:107EE00037FA164B9B689E07C2D597F824307A69FB
:107EF00013F0040FFB6908BF4FF0FF3103F1FF33AC
:107F000018BF0121FB610D4B0A4402216A615961CE
:107F1000AEE70B4B094880214FF4005241611A61D2
:107F2000FFF79EFEAFE71F46044B102276425A61D0
:107F300022E700BFD02300206C240020000801406D
:107F4000000C0140C80D0020010000804C240020DE
:107F5000D80D002004080020000800200808002098
:107F6000A0860100000000000000000000000000EA
:107F700010B5114CE369002B14DD104B02221A617D
:107F8000202383F31188FDF743FB0D480378022B70
:107F900009D0218C0B48FEF703FAFDF751FB0023B3
:107FA00083F3118810BD216A01EBD171C1F34F0138
:107FB000FEF7F6F9EDE700BFD023002000080140EE
:107FC000D80D0020C80D00200000000000000000B7
:107FD00010B5114CA368002B14DD104B01221A615F
:107FE000202383F31188FDF713FB0D480378022B40
:107FF00009D0A1890B48FEF7D3F9FDF721FB002337
:1080000083F3118810BDE16801EBD171C1F34F0119
:10801000FEF7C6F9EDE700BFD0230020000C0140B9
:10802000B80D0020A80D0020000000000000000096
:108030002DE9F04F894DDFF84482DFF844B2DFF8D4
:1080400044A2DFF8449285B04FF0FF318448FDF739
:1080500097FF4FF0FF318DF80C008148FDF790FF3E
:108060004FF0FF318DF80D007D48FDF789FF4FF08F
:10807000FF318DF80E007A48FDF782FF20238DF83E
:108080000F0083F31188FDF78BFA2B68039EF61A15
:10809000FDF79EFA002383F311889E4240F3D680B9
:1080A000704A4FF40063136101276F4B6D484FF422
:1080B0000051802241611A611920FDF799FDD8F81D
:1080C00000407310019399FBF4F4202383F311888B
:1080D000FDF766FA2B7CEC6067F382032B74AE60CD
:1080E000FDF776FA002383F311886048A1B2FEF70A
:1080F00077F9202383F31188FDF752FAAC68FDF776
:1081000067FA002383F31188019B321B9342B8BFA7
:108110002246D8F80030DBF8007003FB03F37F0041
:1081200002FB0737394603E01344994214DD194630
:1081300097FBF1F04E4B01EB000E0EEA03030EEB42
:10814000DE72002B4FEA6202EEDA013B63F00103BC
:10815000013313449942EADC4B1E98424AD0DAF8C4
:10816000007020238F42A8BF0F4699FBF7F783F3D7
:108170001188FDF715FA3946022FB8BF0221E960D0
:10818000364FFDF725FA002383F311883948194645
:10819000FDF7F6FE013033D1002CAADC1920FDF7E3
:1081A00027FD202383F31188FDF7FAF995F8243091
:1081B0009C0741D5FDF70CFA002383F31188202397
:1081C00083F31188FDF7ECF92B7C244A6FF341030C
:1081D000D9B2C8072B7407D54B0705D5136850686B
:1081E00000211B1A13605160FDF7F2F9002383F39D
:1081F000118829E701FB1077002F08BF0146AEE781
:108200001A48FEF7A5F81C48FEF7A2F8154B9B6824
:10821000DE07C3D53A7C012312F0040F18BF1946BC
:10822000104A08BF4FF0FF3153613A68BB680A44F7
:10823000013B2A60BB60B1E70B4A80214FF4005339
:108240005161C2F81034FFF70BFDB3E71F46054B31
:108250004FF4006276425A6127E700BFD023002026
:108260001C240020000C014000080140A80D002043
:10827000010000804C240020B80D002004080020DC
:108280000008002008080020A0860100000000006F
:1082900010B582B004460191202383F31188FDF7C5
:1082A0007FF9164B002C164CC8BF1C46154ACCBF94
:1082B0000521002102EB8102137C9DF8041003F0DC
:1082C000FE0343F0020313742046FDF731FE9DF8D0
:1082D00005102046FDF72CFE9DF806102046FDF700
:1082E00027FE9DF807102046FDF722FEFDF770F9E6
:1082F000002383F3118802B010BD00BF6C2400205E
:108300001C240020D02300200000000000000000FA
:108310002DE9F0435F4E604C83B0304602222021AD
:10832000FFF7FEFB204602224FF48071FFF7F8FBB7
:10833000204602224FF48051FFF7F2FB00230C226B
:1083400056495748FDF7E4FD002303225549564896
:10835000FDF7DEFD00230C2254495548FDF7D8FDFA
:108360000023032253495448FDF7D2FD2046022240
:108370004FF48051FFF7D4FB304602222021FFF753
:10838000CFFB022220464FF48071FFF7C9FB4B4917
:108390004B48FDF77DFF4B494B48FDF7B1FF4B497B
:1083A0004B48FDF7ADFF4B494B48FDF7A9FF4B4943
:1083B0004B48FDF7A5FF0121616120460622FFF72A
:1083C000AFFB022140274FF480684FF080097161B4
:1083D00030464FF400550622FFF7A2FBC4F8148084
:1083E000414677612046C6F8149006222561FFF7C2
:1083F00097FB394630460622FFF792FB4946304646
:108400000622FFF78DFB294620460622FFF788FB50
:10841000204606224FF400610025FFF781FB30461D
:1084200006221021FFF77CFB3A4600952D4B4FF4B6
:108430000B612D48FDF7A4FB3A4600952B4B4FF4FA
:108440000B612B48FDF79CFB2A4BC6F8149018468D
:1084500093F810E093F824200EF0FC0E02F0FC02DA
:1084600065F3820E65F3820203F114013761C4F8EB
:1084700014801D605D609D60DD605D619D61DD61FA
:1084800083F810E083F8242003B0BDE8F04300F047
:1084900007BD00BF00080140000C0140402400203F
:1084A0001C240020F82300204C240020601200200F
:1084B0006C2400203C240020FC230020509900085C
:1084C000A00D002010990008A80D00202099000898
:1084D000B80D002030990008C80D00204099000810
:1084E000D80D00203180000870120020017D0008A6
:1084F000201B0020D023002000000000000000000E
:1085000038B504460D46202383F31188002CCCBFD8
:1085100014240024FDF744F8034B1D51FDF758F8CF
:10852000002383F3118838BDD02300200000000011
:1085300070B5202306460D46144683F31188FDF7D7
:108540002FF80649064A074B0E601C601560FDF7C0
:108550003FF8002383F3118870BD00BF040800209A
:1085600008080020000800200000000000000000B3
:10857000002870B54FF02003D4BF002401240D461D
:10858000164683F31188FDF70BF836B1A3000B49AB
:10859000234401EB83035B68336045B1074BA000C4
:1085A000044403EB8404237C03F001032B60FDF7F8
:1085B0000FF8002383F3118870BD00BFD023002083
:1085C000002870B54FF020030E46D4BF00240124CC
:1085D00083F31188FCF7E4FFA0000444074BA400D8
:1085E0001A19157CC5F340050EB11B593360FCF711
:1085F000EFFF002383F31188284670BDD0230020AD
:1086000010B52023044683F31188002CCCBF14241A
:108610000024FCF7C5FF044B1C59FCF7D9FF0023CD
:1086200083F31188204610BDD023002000000000F5
:1086300010B50A4A0A4C20230028C8BF144683F309
:108640001188FCF7ADFF00212046FDF771FCFCF717
:10865000BFFF002383F3118810BD00BFFC2300205F
:108660004C2400200000000000000000000000007A
:1086700000F03EB800000000000000000000000014
:1086800038B50D46044688B181B1202383F31188A3
:10869000FCF786FF2946204600F03AF802232370B3
:1086A000FCF796FF002383F3118838BD0148FDF7DE
:1086B00087F8EAE7F09900080000000000000000D9
:1086C00010B5044668B1202383F31188FCF768FFD6
:1086D000204600F035F8FCF77BFF002383F3118878
:1086E00010BD0248FDF76CF8EDE700BF009A0008E6
:1086F000024B034A012119705A6070478C240020F4
:1087000000300040000000000000000000000000F9
:1087100040F6FF7370B40A8845F255569A424AF6FD
:10872000AA2528BF1A464CF6CC4443681E608978B7
:1087300059609A601D601C6070BC704700000000AA
:108740004AF6AA2243681A60704700BF0000000082
:10875000007800F03DBC00BF0000000000000000F9
:1087600000F02EBC0000000000000000000000002F
:1087700010B5044648B15C2807D02146BDE810403A
:108780004FF0FF320448FDF78BBC4FF0FF325C2105
:108790000148FDF785FCF0E73C0E002000000000DA
:1087A00038B54578024604462946007800F060FB5B
:1087B0000028B8BF4042C0B2FFF7DAFF4DB1013D1B
:1087C000EDB22544013C14F8010FFFF7D1FFAC4294
:1087D000F9D14FF0FF3200210248BDE83840FDF7E3
:1087E0005FBC00BF3C0E0020000000000000000045
:1087F00008B5821C4178007800F00AFB0028B8BF59
:108800004042C0B2FFF7B4FFBDE808404FF0FF326E
:1088100000210148FDF744BC3C0E00200000000090
:1088200010B50078003018BF0120FFF7E9FE0446BC
:10883000C0B2FFF79DFFC4F30720FFF799FFC4F311
:108840000740FFF795FF200EFFF792FFBDE81040AD
:108850004FF0FF3200210148FDF722BC3C0E002002
:10886000826841680068FFF763BE00BF0000000037
:108870000378D0F80110181C18BF0120FFF740BE84
:1088800000B5007883B0003018BF012001AA694606
:10889000FFF76EFE9DF80000FFF76AFF9DF80400E9
:1088A000FFF766FF9DF80500FFF762FF9DF80600E1
:1088B000FFF75EFF9DF80700FFF75AFF4FF0FF320A
:1088C00000210348FDF7ECFB03B05DF804FB00BF9B
:1088D0003C0E00200000000000000000000000002E
:1088E00000B5007883B0003001A918BF0120FFF760
:1088F00067FEC0B2FFF73CFF9DF80400FFF738FFAA
:108900009DF80500FFF734FF9DF80600FFF730FFE4
:108910009DF80700FFF72CFF4FF0FF3200210348BE
:10892000FDF7BEFB03B05DF804FB00BF3C0E00206A
:108930000078003018BF0120FFF77ABE0000000069
:108940000378D0F80110181C18BF0120FFF7A0BC55
:10895000007800F0EDB900BF00000000000000004A
:10896000007800F04DB900BF0000000000000000DA
:1089700008B56F20FFF7FCFE6B20FFF7F9FE4FF004
:10898000FF3200210448FDF78BFBFA20FDF730F998
:10899000BDE8084000F044B93C0E00200000000093
:1089A00030B50C4A85B001AB07CA03C301AC1A80CD
:1089B0000DF10D0514F8010BFFF7DAFEAC42F9D109
:1089C00005484FF0FF32002105B0BDE83040FDF70B
:1089D00067BB00BF509A00083C0E0020000000005A
:1089E00030B585B001AB1C460A4A0DF10F0507CA28
:1089F00083E8070014F8010BFFF7BAFEAC42F9D187
:108A000005484FF0FF32002105B0BDE83040FDF7CA
:108A100047BB00BF5C9A00083C0E0020000000002D
:108A200010B50F4C102220464FF40071FFF778F874
:108A3000204602224FF48061FFF772F82046102290
:108A40004FF40061FFF76CF820464FF4805102228A
:108A5000FFF766F8BDE8104000210248FDF700BEB0
:108A6000000801400C0E0020000000000000000083
:108A700070B54FF0FF312548FDF782FA831C012BBA
:108A80000FD9234AC0B2137863B9B8B15C28214C1E
:108A90001DD022682049531C202BA8BF20238854B6
:108AA000236070BD1B4C1C4E216800254B1C202BE5
:108AB000A8BF202370541570236070BD164B1A7820
:108AC000012A15D0022A09D0124C0023F4E72368AA
:108AD0000121202B1170A8BF2023EDE75B780F4800
:108AE0000F2BD6BF0E4A0F4B52F823309847EBE7B7
:108AF000084C20680128E8DD01380B4A184413F8B7
:108B0000011F834202F8011FF9D1DEE71C0E00208D
:108B1000D82400209424002098240020B824002089
:108B2000109A0008E1890008B72400200000000026
:108B300008B5174B174ADB69174D9A61FFF798FD87
:108B400016491748FFF79CFD1548FFF7B9FD154C6E
:108B50001548FDF72DF92B684FF48042D90749BF1E
:108B6000E268626182F48042E2609B0748BFE3688A
:108B70004FF4005246BF5340E3606261FDF728F9AD
:108B8000FA20FDF735F80648FFF79AFDE0E700BF49
:108B90003C0D0020709A0008EC2400200C080020F6
:108BA0008C24002000100140DC2400200000000084
:108BB00030B50F4C4FF480414FF4005583B06161E4
:108BC000204665610622FEF7ABFF294620460622B5
:108BD000FEF7A6FF0748FDF75BF80023009340224D
:108BE000054B4FF4D8710548FCF7CAFF03B030BD00
:108BF00000100140DC240020318B0008F02400200C
:108C000010B504460448FDF7D3F8044B1C60BDE8DA
:108C10001040FDF7DDB800BFDC240020EC2400206C
:108C2000BFF34F8F0449054BCA6802F4E062134357
:108C3000CB60BFF34F8FFEE700ED00E00400FA05C4
:108C40002DE9F8431A4B1B4ADB69DFF874801A4F91
:108C50009A6101264FF0FF311848FDF791F900F0B5
:108C60000109032400F00205B9F1000F18D0C8F87B
:108C700010604FF40042CDB13A610320FCF7B8FF19
:108C80004FF40043C8F814604FF4AF707B61FCF7F9
:108C9000AFFF631E13F0FF04DCD0B9F1000FE6D183
:108CA000C8F814604FF40042002DE5D17A61E4E782
:108CB0003C0D0020809A0008001001405829002037
:108CC000000801400000000000000000000000005B
:108CD00030B51048104C01214FF4004583B041617C
:108CE00006226561FEF71CFF294620460622FEF794
:108CF00017FF0023032209490948FDF709F900235A
:108D000000934022074B4FF42C710748FCF738FFC3
:108D100003B030BD0008014000100140A026002033
:108D200058290020418C0008A826002000000000DF
:108D300010B52023044683F31188FCF731FC002C86
:108D400014BF012102210448FDF7F2F8FCF740FCB2
:108D5000002383F3118810BD582900200000000073
:108D60002DE9F047204C214D2746A846204B214AAB
:108D7000DB69214E86B09A614FF0FF311F48FDF745
:108D8000FFF82378002BF7D0013395F800E07D221F
:108D900001930292012300960DF117025021184809
:108DA0008DF817E0FDF78CFBDFF84C903B7830B97D
:108DB00008EB030219F8031052789142DCD0DFF877
:108DC000449000214FF4007A7D20C9F814A00233AA
:108DD000029001910091054A50210948FDF770FB6E
:108DE000C9F810A0C8E700BFBC29002078290020DE
:108DF0003C0D0020809A00089C290020702E002045
:108E0000E80D0020000C0140000000000000000000
:108E100070B5114C84B0207059B120464D1EEDB292
:108E20000135013A254412F8014F00F8014FA842DC
:108E3000F9D10A4C4FF4007500207D2665614B1C6A
:108E400001900090044A029650210548FDF738FB36
:108E5000256104B070BD00BF9C290020000C0140BA
:108E6000E80D0020000000000000000000000000ED
:108E700010B5074B84B07D240191009250211870E9
:108E80001A46029401230348FDF71AFB04B010BDF3
:108E90009C290020E80D00200000000000000000D8
:108EA000F0B5264B87B01B78254C06AA02F8013D89
:108EB00004F1010E09237D2706460D460193CDF8E6
:108EC00000E00297012350211E48FDF7F9FAD8B9B6
:108ED000214604F1080711F8012F08235040C0B2C1
:108EE00010F0010FC0F3470203F1FF3314BF82F00B
:108EF0008C00C0F3470013F0FF03F1D1B942EAD16F
:108F0000627A0F4B824201D007B0F0BD9878597851
:108F1000DA7801EB0021187901EB024202EB0062E2
:108F2000326099795A79D87902EB0122197A02EBE9
:108F3000004303EB01632B6007B0F0BD78290020EC
:108F40009C290020E80D0020000000000000000027
:108F500070B458B3184E194D33784A1E1844C0B235
:108F60000133DBB2337012F8011F83421C46E9540F
:108F7000F6D1661CF4B100220120295C08234A4086
:108F8000D2B212F0010FC2F3470103F1FF3314BF55
:108F900081F08C02C2F3470213F0FF03F1D10130DC
:108FA000C0B2A042E9DDAA5570BC7047024B034D28
:108FB0001C78DEE72246F6E7BC290020782900204D
:108FC000014B00221A707047BC29002000000000ED
:108FD00070B5044686B00023094E7D2202920193AB
:108FE00000933025022305AA502106488DF815402C
:108FF00034708DF81450FDF763FA06B070BD00BFF1
:1090000078290020E80D002000000000000000008A
:1090100000B587B0302306AA02F8053D7D20022165
:1090200005AB029001910093502101230748FDF701
:1090300047FA38B99DF81400F82828BFF02007B087
:109040005DF804FBF02007B05DF804FBE80D00209C
:1090500030B5174C83B017491748FDF709FA204679
:1090600011224021FEF75CFD204611228021FEF7EF
:1090700057FD4FF40071216120460622FEF750FD96
:10908000FFF7C6FF0D4B00240D4D1870012223463B
:109090000C490D482C70FCF73BFF00940B4B402211
:1090A0004FF496610A48FCF76BFD03B030BD00BF7A
:1090B000000C0140909A0008E80D0020782900205B
:1090C000BC29002098290020702E0020618D000806
:1090D000C029002000000000000000000000000087
:1090E00001210148FCF724BF702E00200000000081
:1090F00069646C65000000006D61696E000000002D
:109100005356233100000000535623320000000064
:109110005356233300000000535623340000000050
:10912000535623350000000053562336000000003C
:109130005356233700000000535623380000000028
:1091400053562339000000005356233130000000ED
:1091500053562331310000000000000000000000E1
:109160002263685654536574492228290000000080
:109170002263685654526573657449222829000099
:109180006368565452657365744928292C2023312D
:1091900000000000000000000000000000000000CF
:1091A000636853636852656164794928292C2023D8
:1091B00031000000737461636B206F766572666CBA
:1091C0006F770000000000000000000000000000B9
:1091D0002263685468644372656174654922282972
:1091E000000000002263685468645365745072691B
:1091F0006F7269747922282900000000636854683E
:1092000064526573756D6528292C20233100000098
:10921000226368546864536C6565702228290000D5
:109220006368546864457869745328292C20233175
:109230000000000022636854686457616974222842
:109240002900000063685468645761697428292CF8
:10925000202331000000000000000000000000009A
:109260002263684D7478496E6974222829000000D1
:109270002263684D74784C6F636B53222829000079
:1092800063684D74784C6F636B5328292C2023310D
:109290000000000063684D74784C6F636B5328299D
:1092A0002C202332000000002263684D7478547231
:1092B000794C6F636B5322282900000063684D745A
:1092C00078556E6C6F636B28292C202331000000C9
:1092D00063684D7478556E6C6F636B28292C20235E
:1092E0003200000063684D7478556E6C6F636B5389
:1092F00028292C202331000063684D7478556E6C4A
:109300006F636B5328292C202332000000000000DB
:1093100022636845767452656769737465724D613E
:10932000736B222829000000226368457674556E0D
:109330007265676973746572222829002263684523
:1093400076745369676E616C492228290000000019
:109350002263684576745369676E616C2228290020
:1093600022636845767442726F6164636173744D01
:1093700061736B4922282900226368457674446929
:109380007370617463682228290000006368457661
:1093900074446973706174636828292C2023310038
:1093A00022636849515265616454696D656F7574D3
:1093B000222829002263684F5157726974655469E5
:1093C0006D656F7574222829000000000000000000
:1093D0002265787453746172742228290000000099
:1093E000657874537461727428292C20233100002D
:1093F0002265787453746F7022282900657874533D
:10940000746F7028292C20233100000022657874A5
:109410004368616E6E656C456E61626C65222829D9
:10942000000000006578744368616E6E656C456E7F
:1094300061626C6528292C20233100002265787434
:109440004368616E6E656C44697361626C65222865
:10945000290000006578744368616E6E656C44692C
:109460007361626C6528292C202331000000000004
:1094700022707453746172742228290067707453C7
:109480007461727428292C202331000022677074C3
:1094900053746F702228290067707453746F70289A
:1094A000292C2023310000002267707453746172EC
:1094B00074436F6E74696E756F7573492228290045
:1094C0006770745374617274436F6E74696E756FF4
:1094D00075734928292C20233100000022677074FD
:1094E00053746172744F6E6553686F7449222829F2
:1094F0000000000067707453746172744F6E65539E
:10950000686F744928292C20233100002267707469
:1095100053746F7054696D657249222829000000E8
:1095200067707453746F7054696D65724928292C83
:1095300020233100677074506F6C6C656444656CF7
:10954000617928292C202331000000000000000050
:10955000226932635374617274222829000000006A
:10956000693263537461727428292C2023310000FE
:109570002269326353746F70222829006932635361
:10958000746F7028292C2023310000002269326377
:109590004765744572726F727322282900000000BB
:1095A000226932634D61737465725472616E736DBA
:1095B000697454696D656F75742228290000000074
:1095C0006932634D61737465725472616E736D6953
:1095D0007454696D656F757428292C20233100003F
:1095E000226932634D617374657252656365697691
:1095F0006554696D656F7574222829006932634D61
:1096000061737465725265636569766528292C20DB
:1096100023310000000000000000000000000000F6
:109620002273645374617274222829007364537422
:1096300061727428292C20233100000022736453A6
:10964000746F702228290000736453746F70282986
:109650002C20233100000000227364496E636F6D7B
:10966000696E67446174614922282900227364523B
:10967000657175657374446174614922282900001D
:10968000D1650008B16500085165000861650008F2
:10969000F1650008E1650008C1650008A1650008E2
:1096A00071650008000000000000000000000000DC
:1096B00022646D61416C6C6F6361746522282900BE
:1096C00022646D6152656C65617365222829000012
:1096D000646D6152656C6561736528292C202331A6
:1096E000000000000000000000000000000000007A
:1096F000080002400400024000000B001C00024071
:109700000400024004010C0030000240040002404A
:1097100008020D0044000240040002400C030E0049
:10972000580002400400024010040F006C00024088
:1097300004000240140510008000024004000240B2
:1097400018061100000000000000000000000000EA
:109750006770745F6C6C645F737461727428292C19
:109760002023310000000000000000000000000085
:109770006932635F6C6C645F737461727428292C46
:10978000202331006932635F6C6C645F73746172B3
:109790007428292C20233200226932635F6C6C64A8
:1097A0005F7365745F636C6F636B22282900000030
:1097B0006932635F6C6C645F7365745F636C6F6365
:1097C0006B28292C202331006932635F6C6C645F45
:1097D0007365745F636C6F636B28292C20233200E0
:1097E0006932635F6C6C645F7365745F636C6F6335
:1097F0006B28292C202333006932635F6C6C645F13
:109800007365745F636C6F636B28292C20233400AD
:109810006932635F6C6C645F7365745F636C6F6304
:109820006B28292C202335006932635F6C6C645FE0
:109830007365745F636C6F636B28292C202336007B
:109840006932635F6C6C645F7365745F636C6F63D4
:109850006B28292C20233800226932635F6C6C64EA
:109860005F6D61737465725F726563656976655F6C
:1098700074696D656F75742228290000226932634E
:109880005F6C6C645F6D61737465725F7472616E3E
:10989000736D69745F74696D656F75742228290032
:1098A00000C20100000000400000000000000000B5
:1098B0000402040808000307080808080808080844
:1098C0000B0F00000000000000000000000000007E
:1098D000FFFFFFFF4444444444444444FFFFFFFF70
:1098E0004444444444444444FFFFFFFF444444444C
:1098F00044444444FFFFFFFF44444444444444443C
:10990000FFFFFFFF8888888888888888000000001B
:10991000A0860100D17F00080000000000000000C8
:10992000A0860100F17B000800000000000000009C
:10993000A0860100717F0008000000000000000008
:10994000A0860100217C000800000000000000004B
:109950000000000000000000000000000000000007
:1099600000000000000000000000000000000000F7
:10997000000000000000000006000000D17B00088D
:1099800000000000000000000000000000000000D7
:1099900006000000B17C000800000000000000008C
:1099A00000000000000000000000000000000000B7
:1099B00006000000B17B000800000000000000006D
:1099C0000000000000000000000000000000000097
:1099D0000000000000000000000000000000000087
:1099E0000000000000000000000000000100010075
:1099F0002269776467537461727422282900000019
:109A00002269776467526573657422282900000013
:109A1000E1890008A18900087189000861890008AE
:109A2000518900084189000831890008E18800084F
:109A30008188000871880008618800082188000872
:109A4000F1870008A1870008618700085187000896
:109A5000312E302E312D6465760000006C63753038
:109A6000332D312E302E30000000000000000000A9
:109A70006C64000000000000000000000000000016
:109A800073680000000000000000000000000000FB
:0C9A900001000000A086010001000000A1
:109AA000E015000060090000401F00009C00060057
:04000005080051415D
:00000001FF
