:020000040800F2
:10000000000400201101000801020008010200089C
:1000100001020008010200080102000801020008B4
:100020000102000801020008010200085102000854
:100030000102000801020008010200082102000874
:1000400001020008F12A000801020008010200086C
:100050000102000801020008B1270008F12700088A
:100060003128000871280008B1280008F121000893
:1000700051220008B1220008112300087123000852
:10008000D123000831240008010200080102000801
:10009000010200080102000801020008F12800081E
:1000A00001020008A12D0008010200080102000859
:1000B000F13200081133000801020008B1310008D4
:1000C000D131000801020008010200080102000805
:1000D00001020008213A000801020008010200089C
:0C00E000E129000801020008312B000893
:1000F000704700BFAFF30080AFF30080AFF3008024
:10010000FEE700BFAFF30080AFF30080AFF30080E5
:1001100072B640F60004C2F2000484F309884FF07E
:10012000020484F31488BFF36F8F40F20004C2F21C
:10013000000440F20045C2F2000504E04FF05533E0
:10014000236004F10404AC42F8D340F20044C2F24C
:10015000000440F60005C2F2000504E04FF05533FC
:10016000236004F10404AC42F8D303F0A9FD45F286
:10017000F005C0F6000540F60004C2F2000405E0F8
:100180002B68236004F1040405F1040540F66C03B8
:10019000C2F200039C42F3D340F67004C2F20004A2
:1001A00042F23405C2F2000504E04FF00003236080
:1001B00004F10404AC42F8D3FFF79AFF40F2EC04D8
:1001C000C0F6000403E02368984704F1040440F2F9
:1001D000EC03C0F600039C42F5D304F089FA40F228
:1001E000EC04C0F6000403E02368984704F104041B
:1001F00040F2EC03C0F600039C42F5D3FFF780FF0A
:10020000FEE700BFAFF30080AFF30080AFF30080E4
:1002100072B6FEE7AFF30080AFF30080AFF300806B
:1002200008B500F0D5FA4FF0200383F3118800F0F1
:100230008FFA00F0CDF900F0ABFA4FF0000383F332
:10024000118800F0F5FA00F043F808BDAFF3008024
:1002500010B483B0EFF309840194019B03F12003F0
:100260000193019B83F309884FF0000383F3118806
:1002700003B010BC704700BFAFF30080AFF3008045
:1002800008B54FF46D43CEF200034FF000029A60C0
:100290004FF46D43CEF200034FF00002C0F2FA5269
:1002A000DA604FF007004FF0100100F0F1F84FF066
:1002B0000A004FF4007100F0EBF84FF00B004FF024
:1002C000800100F0E5F808BDAFF30080AFF30080D7
:1002D00010B483B04FF0200383F311884FF46D43C3
:1002E000CEF200035B6803F40063002B47D0EFF30A
:1002F00009840194019BA3F120030193019B83F3E3
:100300000988019B4FF08072DA6140F69C53C2F27B
:1003100000039B69002B11D040F69C53C2F20003EE
:100320001B689A6840F69C53C2F20003DB699B6825
:100330009A4294BF00230123DBB210E040F69C53A5
:10034000C2F200031B689A6840F69C53C2F2000395
:10035000DB699B689A4234BF00230123DBB2002B88
:1003600006D0019A40F29133C0F6000393610AE08F
:10037000019A40F29C33C0F60003936103E04FF012
:10038000000383F3118803B010BC7047AFF3008003
:1003900000F09EF900F094FD00F0BAF900DF00BF14
:1003A00003460A462DE9F04FC2F80CD0D3F80CD022
:1003B000BDE8F08FAFF30080AFF30080AFF30080B3
:1003C00008B500F0A5F94FF0000383F31188284623
:1003D000A04700F0DDFE08BDAFF30080AFF3008062
:1003E00084B001900091019B03F003034FEAC30323
:1003F00003934FF46143CEF20003019A4FEA920057
:100400004FF46142CEF2000201994FEA910101F1ED
:10041000C00152F82110039A4FF0FF0C0CFA02F2BF
:100420006FEA020201EA0201039ADDF800C00CFA49
:1004300002F241EA020100F1C00243F822104FF437
:100440006143CEF20003019A4FEA5212019901F082
:100450001F014FF0010000FA01F102F1600243F8C0
:1004600022104FF46143CEF20003019A4FEA521278
:10047000019901F01F014FF0010000FA01F143F86A
:10048000221004B0704700BFAFF30080AFF30080CC
:1004900084B001900091019B03F003034FEAC30372
:1004A00003934FF46D43CEF20003019A4FEA92009A
:1004B0004FF46D42CEF2000201994FEA910101F131
:1004C000060152F82110039A4FF0FF0C0CFA02F2C9
:1004D0006FEA020201EA0201039ADDF800C00CFA99
:1004E00002F241EA020100F1060243F8221004B0D0
:1004F000704700BFAFF30080AFF30080AFF3008020
:1005000082B0019040F69C53C2F20003DA6944F6CF
:100510007023C0F600039361FEE700BFAFF30080D5
:1005200000B583B0FFF7ACFE00F03AFB00F050FAE4
:1005300001F026FB00F0DCF940F63010C2F20000BA
:100540004FF0400100F014FD024640F69C53C2F209
:100550000003DA6140F69C53C2F20003DB694FF0FE
:10056000010283F8202040F69C53C2F20003DA69AE
:1005700040F20043C2F20003D36100F091F84FF063
:10058000000383F3118862B640F69C53C2F2000365
:10059000DA6944F67823C0F60003936140F2015310
:1005A000C0F600034FF00002009240F67000C2F265
:1005B00000004FF0C0014FF0010200F089FD03B0D0
:1005C00000BD00BFAFF30080AFF30080AFF3008049
:1005D00000B583B000F05CF940F69C53C2F2000312
:1005E0009B69002B0BDD40F69C53C2F200039B6914
:1005F00003F1FF3240F69C53C2F200039A6140F6C9
:100600009C53C2F20003DB695A6A02F101025A628A
:1006100040F68C53C2F20003DB6803F1010240F69E
:100620008C53C2F20003DA6040F68C53C2F200032E
:100630001B681A4640F68C53C2F200039A422DD032
:1006400040F68C53C2F200031B689A6802F1FF3235
:100650009A6019E0019BDB680093019B4FF0000258
:10066000DA60019B1A6840F68C53C2F200035360B3
:10067000019B1A6840F68C53C2F200031A60019B7A
:100680001A69009B1046984740F68C53C2F200034B
:100690001B680193019B9B68002BDBD003B000BD5E
:1006A00008B540F67813C2F200031B68002B06D190
:1006B00040F67C13C2F200031B68002B05D044F601
:1006C0009020C0F6000000F073F908BDAFF3008081
:1006D00008B540F67813C2F200031B68002B06D160
:1006E00040F67C13C2F200031B68002B05D044F6D1
:1006F0009820C0F6000000F05BF940F67C13C2F2CF
:1007000000034FF001021A6008BD00BFAFF3008084
:1007100008B540F67813C2F200031B68002B06D11F
:1007200040F67C13C2F200031B68002B05DC44F684
:10073000A020C0F6000000F03BF940F67C13C2F2A6
:1007400000034FF000021A6008BD00BFAFF3008045
:1007500008B540F67813C2F200031B68002B06DDD3
:1007600040F67C13C2F200031B68002B05D044F650
:10077000A820C0F6000000F01BF940F67C13C2F27E
:1007800000034FF001021A6008BD00BFAFF3008004
:1007900008B540F67813C2F200031B68002B06DD93
:1007A00040F67C13C2F200031B68002B05DC44F604
:1007B000B020C0F6000000F0FBF840F67C13C2F257
:1007C00000034FF000021A6008BD00BFAFF30080C5
:1007D00008B54FF0200383F3118840F67813C2F276
:1007E00000031B68002B06DB40F67C13C2F20003FB
:1007F0001B68002B05D044F6B820C0F6000000F0BE
:10080000D7F840F67813C2F200031B6803F1010227
:1008100040F67813C2F200031A604FF0000383F32E
:10082000118808BDAFF30080AFF30080AFF3008004
:1008300008B54FF0200383F3118840F67813C2F215
:1008400000031B68002B06DD40F67C13C2F2000398
:100850001B68002B05D044F6C020C0F6000000F055
:10086000A7F840F67813C2F200031B6803F1FF32C9
:1008700040F67813C2F200031A604FF0000383F3CE
:10088000118808BDAFF30080AFF30080AFF30080A4
:1008900008B540F67813C2F200031B68002B06DB94
:1008A00040F67C13C2F200031B68002B05DC44F603
:1008B000C820C0F6000000F07BF808BDAFF3008050
:1008C00008B540F67813C2F200031B68002B06D16E
:1008D00040F67C13C2F200031B68002B05DC44F6D3
:1008E000D020C0F6000000F063F808BDAFF3008030
:1008F00040F68013C2F200034FF040021A6040F647
:100900008013C2F20003014A5A6070478809002030
:1009100082B0019040F68013C2F200035A6840F69C
:100920008C53C2F20003DB68136040F68013C2F2FE
:1009300000035A6840F69C53C2F20003DB6953601F
:1009400040F68013C2F200035B68019A926A9A60D3
:1009500040F68013C2F200035B68019A92F82020EF
:100960001A7340F68013C2F200035B6803F11002B1
:1009700040F68013C2F200035A6040F68013C2F2C0
:1009800000035A68054B9A4205D340F68013C2F221
:100990000003034A5A6002B0704700BF880D002070
:1009A00088090020AFF30080AFF30080AFF3008030
:1009B00000B583B0019040F68853C2F20003019A5B
:1009C0001A60FFF725FC03B000BD00BFAFF3008045
:1009D00040F68C52C2F2000240F68C53C2F2000381
:1009E0005A6040F68C53C2F200035A6840F68C53AA
:1009F000C2F200031A6040F68C53C2F200034FF0BB
:100A0000FF329A6040F68C53C2F200034FF00002AE
:100A1000DA607047AFF30080AFF30080AFF300807F
:100A200000B587B00390029101920093FFF730FF69
:100A3000039B002B05D0019B002B02D0029B002BB7
:100A400005D144F6E020C0F60000FFF7B1FF039B9C
:100A5000009A1A61039B019ADA6040F68C53C2F245
:100A600000031B68059308E0059B9B68029AC3EB93
:100A700002030293059B1B680593059B9A68029BE2
:100A80009A42F1D3039B059A1A60039B1B685A682C
:100A9000039B5A60039B5B68059A03995160059A12
:100AA00052681A60039B029A9A60059A40F68C532A
:100AB000C2F200039A4206D0059B9A68029BC3EBE0
:100AC0000202059B9A6007B000BD00BFAFF3008033
:100AD00000B583B00190FFF7DBFE019B002B05D131
:100AE00044F6F020C0F60000FFF762FF019BDB68D0
:100AF000002B05D144F60030C0F60000FFF758FF88
:100B0000019B1A6840F68C53C2F200039A4208D047
:100B1000019B1B68019A12689168019A92680A44C5
:100B20009A60019B5B68019A12681A60019B1B68BE
:100B3000019A52685A60019B4FF00002DA6003B0DC
:100B400000BD00BFAFF30080AFF30080AFF30080C3
:100B500084B00190019B1B680393039B1A68019B5F
:100B60001A60019B1B68019A5A60039B184604B0E7
:100B7000704700BFAFF30080AFF30080AFF3008099
:100B800082B00190019B5B68019A12681A60019B18
:100B90001B68019A52685A60019B184602B0704760
:100BA00040F69C52C2F2000240F69C53C2F200038F
:100BB0005A6040F69C53C2F200035A6840F69C53B8
:100BC000C2F200031A6040F69C53C2F200034FF0D9
:100BD00000029A6040F69C53C2F200034FF01402E8
:100BE0009A6140F69C52C2F2000240F69C53C2F257
:100BF00000035A6140F69C53C2F200035A6940F662
:100C00009C53C2F200031A61704700BFAFF300802B
:100C100000B585B00190019B93F82030002B04D0E3
:100C2000019B93F820300E2B05D144F62030C0F6FE
:100C30000000FFF7BDFE019B4FF0000283F820206B
:100C400040F69C53C2F200030393039B1B6803937B
:100C5000039B9A68019B9B689A42F6D2019B039A78
:100C60001A60039B5A68019B5A60019B5B68039A58
:100C700001995160039A52681A60019B184605B0A9
:100C800000BD00BFAFF30080AFF30080AFF3008082
:100C900000B585B003468DF80730FFF711FE40F62A
:100CA0009C53C2F20003DB690393039B9DF807206A
:100CB00083F8202040F69C53C2F200034FF0140248
:100CC0009A6140F69C50C2F20000FFF741FF0246D5
:100CD00040F69C53C2F20003DA6140F69C53C2F224
:100CE0000003DB694FF0010283F820200398FFF72F
:100CF0000FFE6B46A3F12402039BDB699A4205D2E7
:100D000044F63430C0F60000FFF752FE40F69C5324
:100D1000C2F20003DB6918460399FFF741FB05B0F7
:100D200000BD00BFAFF30080AFF30080AFF30080E1
:100D300000B585B00190019B0393039B93F820308D
:100D40000D2B28D801A252F823F000BFA70D0008F0
:100D5000970D0008970D0008850D0008970D0008F5
:100D6000910D0008970D0008970D0008970D0008D9
:100D7000970D0008970D0008970D0008970D0008C3
:100D8000910D0008039B9B6A9A6802F101029A6028
:100D90000398FFF7F5FE039B4FF0FF329A6203982A
:100DA000FFF736FF00E000BF05B000BDAFF30080E5
:100DB00000B589B0034600918DF80730FFF780FD3C
:100DC000009BB3F1FF3F1AD040F69C53C2F20003E0
:100DD000DB6903AA1046009940F63152C0F60002C2
:100DE000FFF71EFE9DF807301846FFF751FF069BE0
:100DF000002B0AD003AB1846FFF76AFE06E09DF809
:100E000007301846FFF744FF00E000BF40F69C5350
:100E1000C2F20003DB699B6A184609B000BD00BF3F
:100E200000B585B001900091FFF74AFD019B009A43
:100E30009A62019B9A6840F69C53C2F20003DB69F8
:100E40009B689A4203D80198FFF7E2FE2FE040F634
:100E50009C53C2F20003DB691846FFF7D9FE034634
:100E6000039340F69C53C2F200034FF014029A61C0
:100E700040F69C53C2F20003019ADA61019B4FF0E5
:100E8000010283F820200398FFF742FD6B46A3F18F
:100E90002402039BDB699A4205D244F63430C0F643
:100EA0000000FFF785FD01980399FFF779FA05B077
:100EB00000BD00BFAFF30080AFF30080AFF3008050
:100EC00000B583B040F69C53C2F200034FF0140209
:100ED0009A6140F69C53C2F20003DB69019340F62D
:100EE0009C50C2F20000FFF733FE024640F69C53CE
:100EF000C2F20003DA6140F69C53C2F20003DB69E0
:100F00004FF0010283F820200198FFF781FE01983D
:100F1000FFF7FEFC6B46A3F12402019BDB699A42BA
:100F200005D244F63430C0F60000FFF741FD40F62C
:100F30009C53C2F20003DB6918460199FFF730FAAF
:100F400003B000BDAFF30080AFF30080AFF30080CB
:100F500084B00190019B1B680393039B1A68019B5B
:100F60001A60039B184604B0704700BFAFF30080BF
:100F700082B001900091019B009A9A60019B4FF012
:100F8000020283F82020019B4FF0000283F8212009
:100F9000019B009A5A64019B4FF000021A64019B66
:100FA0004FF00002DA63019B4FF000025A62019B8E
:100FB0004FF000029A6140F69C53C2F20003019A7E
:100FC000136140F69C53C2F200035A69019B5A61B7
:100FD000019B5A6940F69C53C2F200030199596182
:100FE00040F69C53C2F200035B691361019B03F15D
:100FF0002C031A46019BDA62019B03F130031A4667
:10100000019B5A63019B5A6B019B1A63019B03F17D
:101010004802019BDA61019B184602B0704700BF8D
:1010200084B00390029113468DF8073007E0039BCC
:101030009DF807201A70039B03F101030393039AA1
:10104000029B9A42F3D304B0704700BFAFF3008015
:1010500000B587B00390029101920093039B059322
:10106000FFF716FC039B002B08D0029BAF2B05D982
:10107000019B7F2B02D8009B002B05D144F65030FA
:10108000C0F60000FFF794FC039A029BA3F124032F
:101090001A44059BDA60059BDB68009A1A60059B81
:1010A000DB68089A5A60059BDA6840F2C133C0F6E3
:1010B0000003136205980199FFF75AFF034618468B
:1010C00007B000BDAFF30080AFF30080AFF3008046
:1010D00000B589B00590049103920293059A059B8F
:1010E00003F14803104619464FF0FF02FFF798FF3F
:1010F000059B03F148020599049B0B4410461946D1
:101100004FF05502FFF78CFF4FF0200383F3118857
:10111000FFF7DEFA0A9B009305980499039A029B55
:10112000FFF796FF0346079307984FF00001FFF77C
:1011300077FEFFF7EDFA4FF0000383F31188079B6A
:10114000184609B000BD00BFAFF30080AFF30080C8
:1011500000B583B00190019B002B05D144F690307F
:10116000C0F60000FFF724FC4FF0200383F3118842
:10117000FFF7AEFA4FF006000199FFF719FEFFF7EF
:10118000C7FA4FF0000383F3118803B000BD00BF1E
:1011900000B583B001904FF0200383F31188FFF76F
:1011A00097FA019800F004F803B000BDAFF3008097
:1011B00000B585B0019040F69C53C2F20003DB6994
:1011C0000393039B019A9A6209E0039B03F12C03AA
:1011D0001846FFF7BDFE03461846FFF719FD039BAF
:1011E000DA6A039B03F12C039A42EED1039B93F836
:1011F000213003F00303002B09D1039B5B69039AA1
:1012000012691A61039B1B69039A52695A614FF074
:101210000E00FFF73DFD44F6A030C0F60000FFF7DA
:10122000C7FB05B000BD00BFAFF30080AFF3008087
:1012300084B001900091009B0393039B1B68039370
:10124000009B039A9A4205D0039B9A68019B9B6876
:101250009A42F2D2019B039A1A60039B5A68019B3F
:101260005A60019B5B68039A01995160039A526826
:101270001A6004B0704700BFAFF30080AFF3008086
:1012800084B00190019B1B680393039B1A68019B28
:101290001A60019B1B68019A5A60039B184604B0B0
:1012A000704700BFAFF30080AFF30080AFF3008062
:1012B00082B00190019B5B68019A12681A60019BE1
:1012C0001B68019A52685A60019B184602B0704729
:1012D00000B583B00190019B002B05D144F6E030AE
:1012E000C0F60000FFF764FB019B1A46019B5A60A1
:1012F000019B5A68019B1A60019B4FF000029A60A3
:1013000003B000BDAFF30080AFF30080AFF3008007
:1013100000B583B001904FF0200383F31188FFF7ED
:10132000D7F9019800F00CF8FFF7F2F94FF000033D
:1013300083F3118803B000BDAFF30080AFF30080EA
:1013400000B585B0019040F69C53C2F20003DB6902
:101350000293FFF7B5FA019B002B05D144F6F0305C
:10136000C0F60000FFF724FB019B9B68002B62D0B6
:10137000019B9B68039335E0029B9A68039B9A60EC
:10138000039B93F82030042B04D0052B11D0002BA5
:101390001AD02DE00398FFF78BFF0246039B9B6A50
:1013A00010461946FFF744FF039B9B6A9B68039313
:1013B00018E00398FFF77CFF0246039B9B6A1046E8
:1013C0001946FFF735FF0CE0039B4FF0010283F84D
:1013D00020200398FFF76CFF03461846FFF718FC20
:1013E00000BF05E0039B9A68029B9B689A42C3D3A7
:1013F000019B02981946FFF71BFF029B019A9A6214
:101400004FF00400FFF744FC019B9A68029B9A424C
:1014100005D044F60040C0F60000FFF7C9FA029B71
:101420001A6C019B9A4210D044F61440C0F600009A
:10143000FFF7BEFA09E0019B029A9A60029B1A6CC0
:10144000019BDA60029B019A1A6405B000BD00BFDF
:1014500000B587B040F69C53C2F20003DB690393EA
:101460004FF0200383F31188FFF732F9039B1B6CC5
:10147000002B05D144F63C40C0F60000FFF798FA77
:10148000039B1B6C9A68039B9A4205D044F650401C
:10149000C0F60000FFF78CFA039B1B6C0293029BC3
:1014A000DA68039B1A64029B1A68029B9A4234D042
:1014B000039B5B6C0493039B1B6C059311E0059BE2
:1014C0001A68059B9A4209D0059B1B689A68049B81
:1014D0009A4203D9059B1B689B680493059BDB68B4
:1014E0000593059B002BEAD1039B049A9A60029B0B
:1014F0001846FFF7C5FE03460193029B019A9A60C6
:10150000019B1A6C029BDA60019B029A1A64019893
:101510004FF00001FFF784FC03E0029B4FF0000254
:101520009A60FFF7F5F84FF0000383F31188029BF0
:10153000184607B000BD00BFAFF30080AFF30080D6
:1015400000B583B001900091FFF7A2F9019B002B39
:1015500005D144F6CC40C0F60000FFF729FA019B04
:10156000DA6B009B42EA0302019BDA63019B93F86A
:101570002030082B07D1019BDA6B019B9B6A02EAA2
:101580000303002B0ED1019B93F82030092B10D1BF
:10159000019BDA6B019B9B6A02EA0302019B9B6A37
:1015A0009A4206D10198FFF733FB03464FF0000241
:1015B0009A6203B000BD00BFAFF30080AFF30080BC
:1015C00000B585B001900091FFF762F9019B002BF7
:1015D00005D144F6E040C0F60000FFF7E9F9019BB1
:1015E0001B6803930DE0039B5A68039B9968009B5B
:1015F00041EA030310461946FFF7A2FF039B1B684D
:101600000393019B039A9A42EDD105B000BD00BF40
:1016100082B001900091009A019B1A60009B5A6869
:10162000019B5A60019B5B68009A01995160009A86
:1016300052681A6002B07047AFF30080AFF30080C9
:1016400084B00190019B1B680393039B1A68019B64
:101650001A60019B1B68019A5A60039B184604B0EC
:10166000704700BFAFF30080AFF30080AFF300809E
:1016700000B583B001900091009B002B02D14FF088
:10168000FF3316E040F69C53C2F20003DB69019A77
:101690009A6240F69C53C2F20003DA69019B10463D
:1016A0001946FFF7B5FF4FF00D000099FFF780FBDB
:1016B0000346184603B000BDAFF30080AFF30080CF
:1016C00084B00390029101920093039B1A46039BFE
:1016D0005A60039B5A68039B1A60039B4FF00002F9
:1016E0009A60039B029A5A61039B5A69039B9A6111
:1016F000039B9A69039BDA60029A019B1A44039B3D
:101700001A61039B009ADA6104B07047AFF300805E
:1017100000B583B001900B468DF80330FFF7B8F8A1
:10172000019B5A69019B9B699A4206D1019B9B6868
:10173000002B02D06FF003032BE0019B9B6803F1A9
:101740000102019B9A60019B5B699DF803201A705E
:1017500003F10102019B5A61019B5A69019B1B69BC
:101760009A4203D3019BDA68019B5A61019B1A6874
:10177000019B9A420BD0019B1846FFF761FF03467D
:101780001846FFF745FA03464FF000029A624FF001
:101790000003184603B000BDAFF30080AFF3008034
:1017A00000B585B0019000914FF0200383F31188BC
:1017B000FEF78EFF019BDB69002B15D0019BDB69D7
:1017C0000198984711E001980099FFF751FF0346EF
:1017D0000393039B002B08DAFEF79AFF4FF00003F8
:1017E00083F31188039B25E000BF019B9B68002BBE
:1017F000E9D0019B9B6803F1FF32019B9A60019B3A
:101800009B691A788DF80B2003F10102019B9A6104
:10181000019B9A69019B1B699A4203D3019BDA6879
:10182000019B9A61FEF774FF4FF0000383F3118868
:101830009DF80B30184605B000BD00BFAFF3008027
:1018400000B587B00390029101920093039BDB697E
:1018500004934FF000030593019B002B05D144F640
:101860002050C0F60000FFF7A3F84FF0200383F3E9
:101870001188FEF72DFF049B002B12D0049B0398C8
:1018800098470FE003980099FFF7F2FE0346002BFC
:1018900008D0FEF73DFF4FF0000383F31188059B4E
:1018A0003BE000BF039B9B68002BEBD0039B9B6836
:1018B00003F1FF32039B9A60039B9B691978029A9C
:1018C0001170029A02F10102029203F10102039BDC
:1018D0009A61039B9A69039B1B699A4203D3039BFA
:1018E000DA68039B9A61FEF713FF4FF0000383F35E
:1018F0001188059B03F101030593019B03F1FF335D
:101900000193019B002B01D1059B06E04FF02003C2
:1019100083F31188FEF7DCFEADE7184607B000BD83
:1019200084B00390029101920093039B1A46039B9B
:101930005A60039B5A68039B1A60039B019A9A6042
:10194000039B029A5A61039B5A69039B9A61039B0A
:101950009A69039BDA60029A019B1A44039B1A61FD
:10196000039B009ADA6104B0704700BFAFF30080B8
:1019700000B587B003900B4601928DF80B304FF005
:10198000200383F31188FEF7A3FE10E0039801996A
:10199000FFF76EFE03460593059B002B07DAFEF763
:1019A000B7FE4FF0000383F31188059B2CE0039BE7
:1019B0009B68002BEAD0039B9B6803F1FF32039BDB
:1019C0009A60039B5B699DF80B201A7003F101027A
:1019D000039B5A61039B5A69039B1B699A4203D379
:1019E000039BDA68039B5A61039BDB69002B03D0DE
:1019F000039BDB6903989847FEF78AFE4FF00003CC
:101A000083F311884FF00003184607B000BD00BFF4
:101A100000B585B00190FEF73BFF019B5A69019B21
:101A20009B699A4206D1019B9B68002B02D06FF004
:101A300002032BE0019B9B6803F10102019B9A606A
:101A4000019B9B691A788DF80F2003F10102019B1D
:101A50009A61019B9A69019B1B699A4203D3019B7E
:101A6000DA68019B9A61019B1A68019B9A420BD02C
:101A7000019B1846FFF7E4FD03461846FFF7C8F838
:101A800003464FF000029A629DF80F30184605B0E9
:101A900000BD00BFAFF30080AFF30080AFF3008064
:101AA00000B587B00390029101920093039BDB691C
:101AB00004934FF000030593019B002B05D144F6DE
:101AC0003450C0F60000FEF773FF4FF0200383F39D
:101AD0001188FEF7FDFD0EE003980099FFF7C8FDA1
:101AE0000346002B07D0FEF713FE4FF0000383F3ED
:101AF0001188059B41E0039B9B68002BECD0039B66
:101B00009B6803F1FF32039B9A60039B5B69029A17
:101B100012781A7003F10102039B5A61029B03F1D0
:101B200001030293039B5A69039B1B699A4203D3E7
:101B3000039BDA68039B5A61049B002B02D0049B31
:101B400003989847FEF7E4FD4FF0000383F31188F4
:101B5000059B03F101030593019B03F1FF330193FF
:101B6000019B002B01D1059B07E04FF0200383F37D
:101B70001188FEF7ADFD00BFBDE7184607B000BDF8
:101B800042F23403C2F2000303F1070323F0070318
:101B90001A4640F6BC53C2F200031A6045F2000335
:101BA000C2F2000323F007031A4640F6C053C2F204
:101BB00000031A60704700BFAFF30080AFF30080EE
:101BC00008B500F0E5FC45F20000C0F6000001F0A9
:101BD0007FFF00F00DF800F05BF800F071F800F006
:101BE00087F800F04DFA02F073F808BDAFF30080FB
:101BF00008B500F0BDFF08BDAFF30080AFF3008073
:101C000082B00190019B4FF001021A70019B4FF0CE
:101C100000025A6002B07047AFF30080AFF300805B
:101C200000B583B001900091019B002B02D0009B76
:101C3000002B05D144F65050C0F60000FEF7B8FE68
:101C40004FF0200383F31188FEF742FD019B1B78C0
:101C5000012B09D0019B1B78022B05D044F6605064
:101C6000C0F60000FEF7A4FE019B009A5A6001989E
:101C700000F086FF019B4FF002021A70FEF748FD4C
:101C80004FF0000383F3118803B000BDAFF3008071
:101C900008B501F095F808BDAFF30080AFF3008000
:101CA00082B00190019B4FF001021A70019B4FF02E
:101CB00000025A6002B07047AFF30080AFF30080BB
:101CC00008B501F095FA08BDAFF30080AFF30080CE
:101CD00082B00190019B4FF001021A70019B4FF0FE
:101CE00000025A6002B07047AFF30080AFF300808B
:101CF00008B501F01DFB08BDAFF30080AFF3008015
:101D000082B00190019B4FF001021A70019B4FF0CD
:101D100000025A6002B07047AFF30080AFF300805A
:101D200000B583B001900091019B002B02D0009B75
:101D3000002B05D144F6F050C0F60000FEF738FE47
:101D40004FF0200383F31188FEF7C2FC019B1B7840
:101D5000012B09D0019B1B78022B05D044F60060B3
:101D6000C0F60000FEF724FE019B009A5A60009B1B
:101D70009A88019B1A81019801F0FAFA019B4FF0B1
:101D800002021A70FEF7C4FC4FF0000383F31188BF
:101D900003B000BDAFF30080AFF30080AFF300806D
:101DA00000B583B001900B46ADF80230019B002BCB
:101DB00005D144F62C60C0F60000FEF7F9FD4FF0A7
:101DC000200383F31188FEF783FC019B1B78022B11
:101DD00005D044F64060C0F60000FEF7E9FD019B27
:101DE000BDF802201A81019B1B69BDF8022002F197
:101DF000FF3292B2DA62FEF78BFC4FF0000383F3FE
:101E0000118803B000BD00BFAFF30080AFF30080C6
:101E100000B583B0019013460A468DF80320ADF853
:101E20000030019B002B03D09DF80330032B05D914
:101E300044F65860C0F60000FEF7BAFD4FF02003EC
:101E400083F31188FEF744FC019B1B78022B05D01D
:101E500044F67060C0F60000FEF7AAFD9DF803206E
:101E6000BDF80030019811461A4601F0D1FBFEF78B
:101E70004FFC4FF0000383F3118803B000BD00BF97
:101E800000B583B001900B468DF80330019B002B09
:101E900003D09DF80330032B05D944F65860C0F6F3
:101EA0000000FEF785FD4FF0200383F31188FEF755
:101EB0000FFC019B1B78022B05D044F68860C0F60E
:101EC0000000FEF775FD9DF803300198194601F0FA
:101ED000EFFBFEF71DFC4FF0000383F3118803B006
:101EE00000BD00BFAFF30080AFF30080AFF3008010
:101EF00000B585B0039002910192039B03F130037A
:101F000018460299019A4FF0FF33FFF7C9FD0346C7
:101F1000184605B000BD00BFAFF30080AFF30080EE
:101F200000B585B0039002910192039B03F1100369
:101F300018460299019A4FF0FF33FFF781FC0346E0
:101F4000184605B000BD00BFAFF30080AFF30080BE
:101F500082B00190019B9B6B002B14BF00230123D7
:101F6000184602B0704700BFAFF30080AFF30080A7
:101F700082B00190019B9B69002B14BF00230123B9
:101F8000184602B0704700BFAFF30080AFF3008087
:101F900000B585B003900B4601928DF80B30039B82
:101FA00003F130029DF80B3010461946019AFFF7F5
:101FB000DFFC0346184605B000BD00BFAFF300804C
:101FC00000B583B001900091019B03F11003184606
:101FD0000099FFF7E5FB0346184603B000BD00BFBC
:101FE00000B585B00390029101920093039B03F129
:101FF000300318460299019A009BFFF751FD0346F2
:10200000184605B000BD00BFAFF30080AFF30080FD
:1020100000B585B00390029101920093039B03F1F8
:10202000100318460299019A009BFFF709FC03462A
:10203000184605B000BD00BFAFF30080AFF30080CD
:1020400000B585B001904FF0200383F31188FEF7AF
:102050003FFB019B9B680393019B4FF000029A603A
:10206000FEF756FB4FF0000383F31188039B1846DD
:1020700005B000BDAFF30080AFF30080AFF3008088
:1020800008B501F0DDFC08BDAFF30080AFF30080C0
:1020900000B585B0039002910192039A44F6407313
:1020A000C0F600031360039B03F104031A46039B6D
:1020B0005A60039B4FF000029A60039B4FF00102AD
:1020C0001A73039B03F11002039B03F150031046A4
:1020D00019464FF40072029BFFF7F2FA039B03F1DB
:1020E0003002039B03F51473104619464FF4007237
:1020F000019BFFF715FC05B000BD00BFAFF30080EA
:1021000000B583B001900091019B002B05D144F6EE
:10211000A060C0F60000FEF74BFC4FF0200383F3F5
:102120001188FEF7D5FA019B1B7B012B09D0019B7F
:102130001B7B022B05D044F6AC60C0F60000FEF716
:1021400037FC0198009901F093FC019B4FF00202CB
:102150001A73FEF7DDFA4FF0000383F3118803B022
:1021600000BD00BFAFF30080AFF30080AFF300808D
:1021700000B583B001900B468DF80330FEF788FB65
:10218000019B002B05D144F6D860C0F60000FEF795
:102190000FFC019B9B69002B0DD1019B9B6843F0B9
:1021A0000402019B9A60019B03F1040318464FF05F
:1021B0000001FFF705FA019B03F110029DF80330BF
:1021C00010461946FFF7A4FA0346002B0DDA019BCF
:1021D0009B6843F08002019B9A60019B03F104031A
:1021E00018464FF00001FFF7EBF903B000BD00BF48
:1021F00000B583B0FEF7ECFA4FF00003C4F202031F
:102200001B6803F00F0301934FF00003C4F20203B5
:102210004FF00F025A6040F6C853C2F200031B6829
:10222000002B0CD040F6C853C2F200031A6840F6E7
:10223000C853C2F200035B68184601999047FEF745
:10224000F7FAFEF745F803B000BD00BFAFF300801A
:1022500000B583B0FEF7BCFA4FF00003C4F20203EE
:102260001B684FEA131303F00F0301934FF00003B1
:10227000C4F202034FF0F0025A6040F6C853C2F2B3
:1022800000039B68002B0CD040F6C853C2F2000339
:102290009A6840F6C853C2F20003DB6818460199F9
:1022A0009047FEF7C5FAFEF713F803B000BD00BF74
:1022B00000B583B0FEF78CFA4FF00003C4F20203BE
:1022C0001B684FEA132303F00F0301934FF0000341
:1022D000C4F202034FF470625A6040F6C853C2F26F
:1022E00000031B69002B0CD040F6C853C2F2000358
:1022F0001A6940F6C853C2F200035B691846019997
:102300009047FEF795FAFDF7E3FF03B000BD00BF6D
:1023100000B583B0FEF75CFA4FF00003C4F202038D
:102320001B684FEA133303F00F0301934FF00003D0
:10233000C4F202034FF470425A6040F6C853C2F22E
:1023400000039B69002B0CD040F6C853C2F2000377
:102350009A6940F6C853C2F20003DB691846019936
:102360009047FEF765FAFDF7B3FF03B000BD00BF6D
:1023700000B583B0FEF72CFA4FF00003C4F202035D
:102380001B684FEA134303F00F0301934FF0000360
:10239000C4F202034FF470225A6040F6C853C2F2EE
:1023A00000031B6A002B0CD040F6C853C2F2000396
:1023B0001A6A40F6C853C2F200035B6A18460199D4
:1023C0009047FEF735FAFDF783FF03B000BD00BF6D
:1023D00000B583B0FEF7FCF94FF00003C4F202032E
:1023E0001B684FEA135303F00F0301934FF00003F0
:1023F000C4F202034FF470025A6040F6C853C2F2AE
:1024000000039B6A002B0CD040F6C853C2F20003B5
:102410009A6A40F6C853C2F20003DB6A1846019973
:102420009047FEF705FAFDF753FF03B000BD00BF6C
:1024300000B583B0FEF7CCF94FF00003C4F20203FD
:102440001B684FEA136303F00F0301934FF000037F
:10245000C4F202034FF070625A6040F6C853C2F2F1
:1024600000031B6B002B0CD040F6C853C2F20003D4
:102470001A6B40F6C853C2F200035B6B1846019911
:102480009047FEF7D5F9FDF723FF03B000BD00BF6D
:1024900082B040F6C453C2F200034FF000021A604B
:1024A0004FF0000301931CE044F67072C0F6000286
:1024B00001990B464FEA43030B444FEA830313444D
:1024C0001B684FF000021A6040F6C853C2F20003C6
:1024D000019A4FF0000143F83210019B03F1010310
:1024E0000193019B062BDFDD4FF00003C4F20203D2
:1024F0004FF0FF325A6002B0704700BFAFF3008068
:102500004FF4E043C4F200034FF4E042C4F200028F
:10251000126842F480721A604FF48053C4F20203CE
:102520001B6A03F44073B3F5407F0DD04FF4805322
:10253000C4F202034FF480321A624FF48053C4F2A3
:1025400002034FF000021A624FF48053C4F20203F8
:102550001B6A03F40043002B17D14FF48053C4F2DD
:1025600002034FF48052C4F20202126A42F4407233
:102570001A624FF48053C4F202034FF48052C4F243
:102580000202126A42F400421A627047AFF30080FE
:1025900008B54FF48053C4F202031B694FF4805313
:1025A000C4F202034FF0FF321A614FF48053C4F2B9
:1025B00002034FF000021A614FF48053C4F2020389
:1025C000DB684FF48053C4F202034FF0FF32DA604D
:1025D0004FF48053C4F202034FF00002DA604EF26F
:1025E0001003CEF2000343F27F22C0F202025A60CF
:1025F0004EF21003CEF200034FF000029A604EF24A
:102600001003CEF200034FF007021A604EF6F053AB
:10261000CEF200034EF6F052CEF20002D26842F043
:102620008072DA604FF48053CEF200034FF4805290
:10263000CEF20002126842F001021A604FF4805399
:10264000C4F202034FF48052C4F20202D26942F093
:102650008052DA614FF48053C4F202034FF4805287
:10266000C4F20202D26942F00062DA61FFF748FF69
:10267000FFF70EFF08BD00BFAFF30080AFF300808F
:102680004FF48053C4F202034FF48052C4F20202AA
:10269000126842F001021A6000BF4FF48053C4F286
:1026A00002031B6803F00203002BF6D04FF48053A3
:1026B000C4F202034FF48052C4F20202126802F024
:1026C000F9021A604FF48053C4F202034FF0000283
:1026D0005A6000BF4FF48053C4F202035B6803F0FA
:1026E0000C03002BF6D14FF48053C4F202034FF4D5
:1026F0008052C4F20202126842F480321A6000BFB3
:102700004FF48053C4F202031B6803F40033002B20
:10271000F6D04FF48053C4F202034FF48052C4F257
:102720000202526842F4E8125A604FF48053C4F235
:1027300002034FF48052C4F20202126842F0807227
:102740001A6000BF4FF48053C4F202031B6803F009
:102750000073002BF6D04FF48053C4F202034FF401
:10276000C842C0F21D025A604FF40053C4F2020383
:102770004FF012021A604FF48053C4F202034FF478
:102780008052C4F20202526842F002025A6000BF54
:102790004FF48053C4F202035B6803F00C03082B70
:1027A000F6D17047AFF30080AFF30080AFF3008045
:1027B00008B5FEF70DF84FF48063C4F201034FF043
:1027C00001025A6140F60063C2F200035B685B6875
:1027D00040F60060C2F200004FF000019847FEF79B
:1027E00027F8FDF775FD08BDAFF30080AFF300805B
:1027F00008B5FDF7EDFF4FF48063C4F201034FF01D
:1028000002025A6140F60063C2F200035B68DB68B3
:1028100040F60060C2F200004FF001019847FEF759
:1028200007F8FDF755FD08BDAFF30080AFF300805A
:1028300008B5FDF7CDFF4FF48063C4F201034FF0FC
:1028400004025A6140F60063C2F200035B685B69F0
:1028500040F60060C2F200004FF002019847FDF719
:10286000E7FFFDF735FD08BDAFF30080AFF3008053
:1028700008B5FDF7ADFF4FF48063C4F201034FF0DC
:1028800008025A6140F60063C2F200035B68DB692C
:1028900040F60060C2F200004FF003019847FDF7D8
:1028A000C7FFFDF715FD08BDAFF30080AFF3008053
:1028B00008B5FDF78DFF4FF48063C4F201034FF0BC
:1028C00010025A6140F60063C2F200035B685B6A63
:1028D00040F60060C2F200004FF004019847FDF797
:1028E000A7FFFDF7F5FC08BDAFF30080AFF3008054
:1028F00000B583B0FDF76CFF4FF48063C4F20103B1
:102900005B6903F4787301934FF48063C4F20103AD
:10291000019A5A61019B03F02003002B0CD040F672
:102920000063C2F200035B68DB6A40F60060C2F23B
:1029300000004FF005019847019B03F04003002B76
:102940000CD040F60063C2F200035B685B6B40F69C
:102950000060C2F200004FF006019847019B03F0AF
:102960008003002B0CD040F60063C2F200035B68CA
:10297000DB6B40F60060C2F200004FF007019847A1
:10298000019B03F48073002B0CD040F60063C2F26D
:1029900000035B685B6C40F60060C2F200004FF021
:1029A00008019847019B03F40073002B0CD040F6FC
:1029B0000063C2F200035B68DB6C40F60060C2F2A9
:1029C00000004FF009019847FDF732FFFDF780FC4A
:1029D00003B000BDAFF30080AFF30080AFF3008021
:1029E00000B583B0FDF7F4FE4FF48063C4F2010339
:1029F0005B6903F47C4301934FF48063C4F20103E9
:102A0000019A5A61019B03F48063002B0CD040F6BD
:102A10000063C2F200035B685B6D40F60060C2F2C7
:102A200000004FF00A019847019B03F40063002B5C
:102A30000CD040F60063C2F200035B68DB6D40F629
:102A40000060C2F200004FF00B019847019B03F4B5
:102A50008053002B0CD040F60063C2F200035B6889
:102A60005B6E40F60060C2F200004FF00C01984728
:102A7000019B03F40053002B0CD040F60063C2F21C
:102A800000035B68DB6E40F60060C2F200004FF0AE
:102A90000D019847019B03F48043002B0CD040F6B6
:102AA0000063C2F200035B685B6F40F60060C2F235
:102AB00000004FF00E019847019B03F40043002BE8
:102AC0000CD040F60063C2F200035B68DB6F40F697
:102AD0000060C2F200004FF00F019847FDF7A8FE1A
:102AE000FDF7F6FB03B000BDAFF30080AFF300804D
:102AF00008B5FDF76DFE4FF48063C4F201034FF497
:102B000080325A6140F60063C2F200035B68D3F87A
:102B1000843040F60060C2F200004FF01001984788
:102B2000FDF786FEFDF7D4FB08BD00BFAFF30080C4
:102B300008B5FDF74DFE4FF48063C4F201034FF476
:102B400080225A6140F60063C2F200035B68D3F84A
:102B5000943040F60060C2F200004FF01201984736
:102B6000FDF766FEFDF7B4FB08BD00BFAFF30080C4
:102B700008B540F60060C2F20000FFF741F808BD5A
:102B800000B589B00190019B1B78012B3BD14FF020
:102B900006004FF06001FDF723FC4FF007004FF0F7
:102BA0006001FDF71DFC4FF008004FF06001FDF7DC
:102BB00017FC4FF009004FF06001FDF711FC4FF0DA
:102BC0000A004FF06001FDF70BFC4FF017004FF0CB
:102BD0006001FDF705FC4FF028004FF06001FDF7A4
:102BE000FFFB4FF001004FF06001FDF7F9FB4FF0E4
:102BF00029004FF06001FDF7F3FB4FF02A004FF082
:102C00006001FDF7EDFB4FF000030393039B04937A
:102C1000049B0593059B06934FF0000307934DE03B
:102C2000019B5B68079A53F8323003F00403002BD2
:102C300040D0019B5A68079B4FEAC30313445B686B
:102C4000002B09D0079B4FF0010202FA03F3069A0A
:102C500042EA0303069308E0079B4FF0010202FAE1
:102C600003F3059A42EA03030593019B5B68079A05
:102C700053F8323003F00103DBB2002B08D0079B7E
:102C80004FF0010202FA03F3049A42EA03030493A9
:102C9000019B5B68079A53F8323003F00203002B64
:102CA00008D0079B4FF0010202FA03F3039A42EAAD
:102CB00003030393079B03F101030793079B122B65
:102CC000AED94FF00003C4F20103019A5268B2F882
:102CD00098209A604FF00003C4F20103019A5268F1
:102CE000B2F89A20DA604FF00003C4F20103019AAF
:102CF0005268B2F89C201A614FF00003C4F201033D
:102D0000019A5268B2F89E205A614FF48063C4F26F
:102D100001034FF000021A614FF48063C4F2010313
:102D2000049A9A604FF48063C4F20103039ADA6054
:102D30004FF48063C4F201034FF6FF72C0F2070242
:102D40005A614FF48063C4F20103059A5A604FF44C
:102D50008063C4F20103069A1A6009B000BD00BF87
:102D600000B583B00190019BDB684FF000021A822E
:102D7000019B1B78042B06D1019B4FF002021A70B5
:102D8000019800F035F8019B5B685B6801989847F3
:102D900003B000BDAFF30080AFF30080AFF300805D
:102DA00008B5FDF715FD40F60860C2F20000FFF718
:102DB000D7FFFDF73DFDFDF78BFA08BDAFF30080AF
:102DC00008B540F60863C2F200034FF43052C4F273
:102DD0000102DA6040F60860C2F20000FEF760FF10
:102DE00008BD00BFAFF30080AFF30080AFF30080F9
:102DF00082B00190019BDB684FF000021A80019BBA
:102E0000DB684FF000021A82019BDB684FF0000282
:102E10009A8102B0704700BFAFF30080AFF300802B
:102E200000B587B00190019B1B6A0593059B1B8B26
:102E30009BB20493059B9B8A9BB20393049B4FEA2E
:102E40000342039B42EA030323F07F434FF0020255
:102E5000C0F2030293421ED04FF00202C0F20302FE
:102E6000934206D84FF00102C0F2030293420DD004
:102E700093E04FF08202C0F20702934234D04FF049
:102E80008402C0F20702934241D086E0019B1A8A75
:102E9000059B1A8281E0059B9B889BB223F40073FB
:102EA0009AB2059B9A80019B9B691B68019A926963
:102EB0001268126842F001021A60059B9B889BB25F
:102EC00043F480539AB2059B9A80019B9B691B68CF
:102ED0005B68012B60D8059B1B889BB223F4806341
:102EE0009AB2059B1A8058E0059B9B889BB223F4FD
:102EF00000739AB2059B9A80019BDB691B68019A5B
:102F0000D2691268126842F001021A6045E0019B22
:102F10009B691B685B68002B0FD0019B1B8A43F0E9
:102F200001039AB2019B1A82059B1B889BB243F452
:102F3000A0639AB2059B1A8036E0059B9B889BB2E2
:102F400023F400739AB2059B9A80059B1B889BB261
:102F500043F400739AB2059B1A804FF0200383F369
:102F60001188FDF7F5FB019BDB68002B0DD0019B61
:102F7000DB680293019B4FF00002DA60029B4FF086
:102F800000029A620298FDF743FEFDF701FC4FF044
:102F9000000383F3118800E000BF039B03F00A03E2
:102FA000002B01D0059B1B8B07B000BDAFF3008049
:102FB00000B587B00190019B1B6A04934FF020037A
:102FC00083F31188FDF7C4FB019BDB691B68019A41
:102FD000D2691268126822F001021A60019BDB6953
:102FE0005B68019AD269127A4FF00F0101FA02F27E
:102FF0001A60019B9B691B68019A926912681268AA
:1030000022F001021A60019B9B695B68019A926938
:10301000127A4FF00F0101FA02F21A60FDF7B8FBC5
:103020004FF0000383F311884FF000030593049BD6
:103030009B8A9BB203F48073002B0BD0049B9B8A6A
:103040009BB223F480739AB2049B9A82059B43F04F
:1030500001030593049B9B8A9BB203F40073002B2E
:103060000BD0049B9B8A9BB223F400739AB2049BFF
:103070009A82059B43F002030593049B9B8A9BB2B3
:1030800003F48063002B1BD0049B9B8A9BB223F428
:1030900080639AB2049B9A82049B9B889BB223F420
:1030A00000739AB2049B9A80049B1B889BB243F4E2
:1030B00000739AB2049B1A80059B43F004030593A6
:1030C000049B9B8A9BB203F40063002B0BD0049BF0
:1030D0009B8A9BB223F400639AB2049B9A82059B5D
:1030E00043F008030593049B9B8A9BB203F480532F
:1030F000002B0BD0049B9B8A9BB223F480539AB283
:10310000049B9A82059B43F010030593049B9B8AC2
:103110009BB203F48043002B0BD0049B9B8A9BB291
:1031200023F480439AB2049B9A82059B43F02003C8
:103130000593049B9B8A9BB29BB21BB2002B0DDABA
:10314000049B9B8A9BB24FEA43434FEA53439AB294
:10315000049B9A82059B43F040030593059B002B3B
:1031600020D0019B059A9A604FF0200383F31188C9
:10317000FDF7EEFA019BDB68002B0DD0019BDB68AD
:103180000393019B4FF00002DA60039B6FF0010292
:103190009A620398FDF73CFDFDF7FAFA4FF0000341
:1031A00083F3118807B000BDAFF30080AFF3008058
:1031B00008B5FDF70DFB40F61860C2F20000FFF7FE
:1031C0002FFEFDF735FBFDF783F808BDAFF3008058
:1031D00008B5FDF7FDFA40F61860C2F20000FFF7EF
:1031E000E7FEFDF725FBFDF773F808BDAFF30080A0
:1031F00008B540F61860C2F20000FEF769FD40F61F
:103200001863C2F200034FF00002DA6040F6186360
:10321000C2F200034FF4A842C4F200021A6240F660
:103220001863C2F20003044A9A6140F61863C2F2BE
:103230000003024ADA6108BDB84F0008AC4F00082D
:1032400000B585B00190019B1B691B8AADF80E305B
:10325000019B1B699B899AB2BDF80E3002EA0303F9
:10326000ADF80E30019B1B694FF6E0721A82BDF873
:103270000E3003F00203002B04D0019B5B681B6936
:1032800001989847BDF80E3003F00403002B04D0DA
:10329000019B5B689B6901989847BDF80E3003F06D
:1032A0000803002B04D0019B5B681B6A01989847B8
:1032B000BDF80E3003F01003002B04D0019B5B68B7
:1032C0009B6A01989847BDF80E3003F00103DBB20A
:1032D000002B04D0019B5B689B680198984705B060
:1032E00000BD00BFAFF30080AFF30080AFF30080FC
:1032F00008B5FDF76DFA40F63C60C2F20000FFF73A
:103300009FFFFDF795FAFCF7E3FF08BDAFF30080E0
:1033100008B5FDF75DFA40F65060C2F20000FFF715
:103320008FFFFDF785FAFCF7D3FF08BDAFF30080F0
:1033300008B540F63C60C2F20000FEF7E1FC40F642
:103340003C63C2F200034FF080421A6140F65060C5
:10335000C2F20000FEF7D4FC40F65063C2F2000354
:103360004FF48062C4F200021A6108BDAFF300801E
:1033700000B585B00190019B1B78012B6ED1019A9D
:1033800040F63C63C2F200039A422AD14FF48053C4
:10339000C4F202034FF48052C4F20202D26942F036
:1033A0000102DA614FF48053C4F202034FF48052F9
:1033B000C4F20202126942F001021A614FF4805312
:1033C000C4F202034FF000021A614FF01C004FF0EC
:1033D0007001FDF705F8019A4FF42243C0F24A4309
:1033E000D360019A40F65063C2F200039A422AD198
:1033F0004FF48053C4F202034FF48052C4F202022D
:10340000D26942F00202DA614FF48053C4F202033F
:103410004FF48052C4F20202126942F002021A61B1
:103420004FF48053C4F202034FF000021A614FF0D0
:103430001D004FF07001FCF7D3FF019A4FF42243B7
:10344000C0F24A43D360019B1B6946F668021A83A7
:10345000019B1B6946F668029A8327E0019B1B6962
:103460004FF000021A80019B1B694FF000029A8105
:10347000019B1B694FF000021A82019B1B694FF0F0
:1034800000025A63019B1B694FF000029A63019B83
:103490001B694FF00002DA63019B1B694FF00002C9
:1034A0001A64019B1B694FF000025A62019BDA68A3
:1034B000019B5B681B68B2FBF3F303F1FF330293DC
:1034C000029A4FF6FF739A420BD8029B03F1010355
:1034D000019A5268126802FB03F2019BDB689A4270
:1034E00005D044F60070C0F60000FDF761FA019BBC
:1034F0001B69029A92B21A85019B1B69019A128973
:1035000002F1FF3292B2DA62019B1B69019A5268A2
:10351000928D9A804FF00003ADF80E30019B5B68EE
:10352000DB6803F00F03012B07D0022B0BD1BDF892
:103530000E3043F00203ADF80E30BDF80E3043F00C
:103540000103ADF80E30019B5B685B6903F00F036C
:10355000012B07D0022B0BD1BDF80E3043F0200316
:10356000ADF80E30BDF80E3043F01003ADF80E305C
:10357000019B5B68DB6903F00F03012B07D0022B73
:103580000BD1BDF80E3043F40073ADF80E30BDF82A
:103590000E3043F48073ADF80E30019B5B685B6ABC
:1035A00003F00F03012B07D0022B0BD1BDF80E3017
:1035B00043F40053ADF80E30BDF80E3043F48053A1
:1035C000ADF80E30019B1B69BDF80E201A84019BDB
:1035D0001B694FF001029A82019B1B69019A526894
:1035E0009268002A0CBF0022012292B29A81019BAC
:1035F0001B694FF000021A82019B1B694FF0850284
:103600001A8005B000BD00BFAFF30080AFF30080AB
:1036100084B0019013460A468DF80320ADF80030BF
:10362000019B19699DF80330BDF8002003F10C03DC
:103630004FEA83030B445A60019B5A689DF803309C
:1036400003F101034FEAC30313449B68002B2CD002
:10365000019B1B699B899BB203939DF803304FF03C
:10366000020202FA03F31A46039B02EA0303002B49
:103670001BD1019B1B699DF803204FF0020101FA49
:1036800002F291B2039A92B241EA020292B29A8194
:10369000019B1B699DF803204FF0020101FA02F221
:1036A00092B26FEA020292B21A8204B0704700BF6F
:1036B00082B001900B468DF80330019B1A699DF88A
:1036C000033003F10C034FEA830313444FF000026D
:1036D0005A60019B1B69019A1269928992B291B258
:1036E0009DF803204FF0020000FA02F292B26FEA56
:1036F000020292B201EA020292B292B29A8102B03E
:10370000704700BFAFF30080AFF30080AFF30080DD
:1037100084B001900091019BD3F850340393019B36
:10372000D3F850244FF46053C4F201039A420BD1F2
:10373000009B1A684FF4A243C0F22523B3FBF2F3B7
:103740009AB2039B1A810AE0009B1A684FF4A243C5
:10375000C0F22523B3FBF2F39AB2039B1A81009BBC
:103760009B8843F4045343F02C039AB2039B9A8141
:10377000009BDB8843F040039AB2039B1A82009BB4
:103780001B8943F001039AB2039B9A82039B4FF07B
:1037900000021A80039B1B88039B9B8804B0704720
:1037A00000B585B001900B46ADF802304FF0000334
:1037B0000393BDF8023003F00803002B03D0039BF2
:1037C00043F080030393BDF8023003F00103DBB242
:1037D000002B03D0039B43F020030393BDF802307A
:1037E00003F00203002B03D0039B43F04003039339
:1037F000BDF8023003F00403002B03D0039B43F415
:10380000807303934FF0200383F31188FCF7A0FF2C
:10381000019B9A68039B42EA0302019B9A60019B09
:1038200003F1040318464FF00001FDF7C9FEFCF751
:10383000AFFF4FF0000383F3118805B000BD00BF58
:1038400000B587B00190019BD3F850340593059BD8
:103850009B89ADF81230059B1B88ADF81030059B95
:103860009B88ADF80E30BDF8103003F00F03002B2D
:1038700005D0BDF8103001981946FFF791FFBDF84B
:10388000103003F48073002B21D04FF0200383F31A
:103890001188FCF75DFF019B9B6843F40072019B5C
:1038A0009A60019B03F1040318464FF00001FDF7F5
:1038B00087FEFCF76DFF4FF0000383F31188059B33
:1038C0001B889BB223F480739AB2059B1A80BDF8C3
:1038D000103003F02003002B12D04FF0200383F3AD
:1038E0001188FCF735FFBDF80E30DBB201981946A0
:1038F000FEF73EFCFCF74CFF4FF0000383F311880A
:10390000BDF8123003F08003002B3AD0BDF8103020
:1039100003F08003002B34D04FF0200383F3118891
:10392000FCF716FF019B03F130031846FEF770F811
:1039300003460293029B002B19DA019B9B6843F01C
:103940000802019B9A60019B03F1040318464FF0A3
:103950000001FDF735FEBDF8123023F0C0039BB225
:1039600043F040039BB29AB2059B9A8103E0029B0D
:103970009AB2059B9A80FCF70BFF4FF0000383F38C
:103980001188BDF8103003F04003002B28D04FF011
:10399000200383F31188FCF7DBFE019B9B6843F057
:1039A0001002019B9A60019B03F1040318464FF03B
:1039B0000001FDF705FEFCF7EBFE4FF0000383F37B
:1039C0001188BDF8123023F040039AB2059B9A810A
:1039D000059B1B889BB223F040039AB2059B1A807B
:1039E00007B000BDAFF30080AFF30080AFF30080FD
:1039F00082B001904FF46053C4F201034FF460525F
:103A0000C4F20102928992B242F0800292B29A818B
:103A100002B07047AFF30080AFF30080AFF30080D7
:103A200008B5FCF7D5FE40F66460C2F20000FFF76F
:103A300007FFFCF7FDFEFCF74BFC08BDAFF3008071
:103A400008B540F66460C2F200004FF0000143F692
:103A5000F112C0F60002FEF71BFB40F66463C2F2EF
:103A600000034FF46052C4F20102C3F8502408BDB1
:103A700000B583B001900091009B002B04D144F667
:103A8000D073C0F600030093019B1B7B012B18D160
:103A9000019A40F66463C2F200039A4211D14FF4D6
:103AA0008053C4F202034FF48052C4F202029269BE
:103AB00042F480429A614FF025004FF0C001FCF7BC
:103AC0008FFC01980099FFF723FE03B000BD00BFF3
:103AD00082B001904FF48053C4F202034FF480523D
:103AE000C4F20202926942F07D029A614FF40063CF
:103AF000C4F20103019A1268DA604FF40063C4F261
:103B00000103019A92685A604FF40063C4F2010302
:103B1000019A52681A604FF44063C4F20103019A9B
:103B2000D268DA604FF44063C4F20103019A52692B
:103B30005A604FF44063C4F20103019A12691A609B
:103B40004FF48053C4F20103019A9269DA604FF492
:103B50008053C4F20103019A126A5A604FF48053F1
:103B6000C4F20103019AD2691A604FF4A053C4F25F
:103B70000103019A526ADA604FF4A053C4F20103C0
:103B8000019AD26A5A604FF4A053C4F20103019A19
:103B9000926A1A604FF4C053C4F20103019A126B87
:103BA000DA604FF4C053C4F20103019A926B5A6079
:103BB0004FF4C053C4F20103019A526B1A6002B071
:103BC000704700BFAFF30080AFF30080AFF3008019
:103BD0008AB0039002910192019B032B03D1039BB6
:103BE000029A1A6105E0019B042B02D1039B029A01
:103BF0005A6144F6E073C0F60003019A13441B783F
:103C000004934FF000030693069B0793079B0893CA
:103C1000089B09934FF00003059335E0089B4FEA9A
:103C200003130893099B4FEA03130993069B4FEA7A
:103C300003130693079B4FEA03130793029B03F0BA
:103C40008003002B04D1089B43F00F03089304E08A
:103C5000069A049B42EA03030693029B03F4004383
:103C6000002B04D1099B43F00F03099304E0079A4A
:103C7000049B42EA03030793029B4FEA4303029328
:103C8000059B03F101030593059B072BC6D9039BF5
:103C90005A68099B02EA0302079B42EA0302039B5C
:103CA0005A60039B1A68089B02EA0302069B42EAD9
:103CB0000302039B1A600AB0704700BFAFF3008095
:103CC00008B5FEF7DDFC08BDAFF30080AFF3008060
:103CD000704700BFAFF30080AFF30080AFF3008008
:103CE00000B583B0019041F68843C2F200031B681F
:103CF00003F1FF3241F68843C2F200031A6041F635
:103D00008843C2F200031B68002B1ADC41F688438B
:103D1000C2F200034FF000021A604FF0200383F359
:103D20001188FCF715FD40F65060C2F200004FF01C
:103D30000201FFF7BDFCFCF72BFD4FF0000383F3FE
:103D4000118803B000BD00BFAFF30080AFF3008067
:103D500000B583B0019041F68C43C2F200031B68AA
:103D600003F1FF3241F68C43C2F200031A6041F6C0
:103D70008C43C2F200031B68002B1ADC41F68C4313
:103D8000C2F200034FF000021A604FF0200383F3E9
:103D90001188FCF7DDFC40F63C60C2F200004FF0F9
:103DA0000101FFF785FCFCF7F3FC4FF0000383F300
:103DB000118803B000BD00BFAFF30080AFF30080F7
:103DC00010B58EB0019003AB0C9341F2D020C2F23B
:103DD00000004FF0FF31FDF7E3FC0346DAB20C9B25
:103DE0001A700C9B03F1010441F2D020C2F20000D2
:103DF0004FF0FF31FDF7D4FC0346DBB223700C9B80
:103E000003F1020441F2D020C2F200004FF0FF3172
:103E1000FDF7C6FC0346DBB223700C9B03F10304E1
:103E200041F2D020C2F200004FF0FF31FDF7B8FCA4
:103E30000346DBB2237041F2B823C2F200030B93B6
:103E40000B9B1A68039B9A4202DA4FF0010301E0D0
:103E50004FF0FF330A93039A0B9B1B68C3EB0203DB
:103E60000993099B83EAE372A2EBE37241F688436C
:103E7000C2F200031A600A9800F0AAFB4FF001009A
:103E800000F0D6FB4FF06400FDF762F940F6000346
:103E9000C2F200031A6848F2A063C0F2010393FB68
:103EA000F2F30893089B9BB240F65060C2F2000008
:103EB0001946FDF775FF40F65063C2F200031B89F7
:103EC00041F2883202FB03F241F25973CDF2B7138B
:103ED000A3FB02134FEA53339BB240F65060C2F289
:103EE00000004FF002011A46FDF792FF099B4FEACE
:103EF000D37213444FEA6303079348F2A063C0F2FE
:103F000001030D934FF00100FDF722F94FF020035C
:103F100083F31188FCF7DCFB41F68843C2F200030F
:103F20001B680693FCF7F4FB4FF0000383F3118842
:103F3000069B0593059A079B9A4204DD099A059B07
:103F4000C3EB020300E0059B059340F60003C2F2B9
:103F500000031A6840F60003C2F200031B6803FB6B
:103F600002F240F60803C2F200031B684FEA430363
:103F7000059901FB03F31344184600F071FB034657
:103F8000049340F60403C2F200031B68049A9A42A9
:103F9000B8BF1346049348F2A063C0F20103049A29
:103FA00093FBF2F308930D9A089B9A42B8BF13460D
:103FB0000D93089B9BB240F65060C2F20000194678
:103FC000FDF7EEFE069B002B9CDC4FF06400FDF736
:103FD000BFF84FF0FF3000F02BFBF4E6AFF30080AA
:103FE00010B58CB0019002AB0B9341F2FC20C2F2F1
:103FF00000004FF0FF31FDF7D3FB0346DAB20B9B15
:104000001A700B9B03F1010441F2FC20C2F2000084
:104010004FF0FF31FDF7C4FB0346DBB223700B9B6F
:1040200003F1020441F2FC20C2F200004FF0FF3124
:10403000FDF7B6FB0346DBB223700B9B03F10304D1
:1040400041F2FC20C2F200004FF0FF31FDF7A8FB67
:104050000346DBB22370624B0A930A9B1A68029BE9
:104060009A4202DA4FF0010301E04FF0FF33099367
:10407000029A0A9B1B68C3EB02030893089B83EA1E
:10408000E372A2EBE37241F68C43C2F200031A60C2
:10409000099800F0B5FA4FF0010000F0C9FA4FF0AE
:1040A0006400FDF755F840F60003C2F200031A68F9
:1040B00048F2A063C0F2010393FBF2F30793079B5E
:1040C0009BB240F63C60C2F200001946FDF768FE64
:1040D00040F63C63C2F200031B8941F2883202FBC6
:1040E00003F241F25973CDF2B713A3FB02134FEA67
:1040F00053339BB240F63C60C2F200004FF0010126
:104100001A46FDF785FE089B4FEAD37213444FEA27
:10411000630306934FF00100FDF71AF84FF02003F8
:1041200083F31188FCF7D4FA41F68843C2F2000306
:104130001B680593FCF7ECFA4FF0000383F311883A
:10414000059B0493049A069B9A4204DD089A049BFB
:10415000C3EB020300E0049B049340F60003C2F2A9
:1041600000031A6840F60003C2F200031B6803FB59
:1041700002F240F60803C2F200031B684FEA430351
:10418000049901FB03F31344184600F069FA03464F
:10419000039340F60403C2F200031B68039A9A4299
:1041A000B8BF1346039348F2A063C0F20103039A19
:1041B00093FBF2F30793079B9BB240F63C60C2F27D
:1041C00000001946FDF7ECFD059B002BA2DC4FF02B
:1041D0006400FCF7BDFF4FF0FF3000F029FA02E762
:1041E000C4120020AFF30080AFF30080AFF3008073
:1041F00000B585B0019000916B4603934FF020030A
:1042000083F31188FCF764FA019B002B04DD41F273
:10421000FC23C2F2000303E041F2D023C2F2000308
:104220000293039B1B7802981946FDF771FA039BD2
:1042300003F101031B7802981946FDF769FA039B05
:1042400003F102031B7802981946FDF761FA039BFC
:1042500003F103031B7802981946FDF759FAFCF79E
:1042600057FA4FF0000383F3118805B000BD00BF7B
:1042700000B583B04FF40060C4F201004FF020019C
:104280004FF00202FFF7A4FC4FF44060C4F20100BB
:104290004FF480714FF00202FFF79AFC4FF4406038
:1042A000C4F201004FF480514FF00202FFF790FC7E
:1042B00041F2D020C2F2000041F2F021C2F200012E
:1042C0004FF00C024FF00003FDF7FAF941F2FC2029
:1042D000C2F2000041F21C31C2F200014FF00C02A8
:1042E0004FF00003FDF7ECF940F60060C2F2000069
:1042F00045F24001C0F60001FDF792FC40F6506027
:10430000C2F2000040F60C01C2F20001FDF708FD08
:1043100040F65060C2F200004FF00201FDF7B0FD20
:104320004FF44060C4F201004FF001014FF0100261
:10433000FFF74EFC40F63C60C2F2000040F63C0144
:10434000C2F20001FDF7ECFC40F63C60C2F2000056
:104350004FF00101FDF794FD4FF40060C4F201003D
:104360004FF002014FF01002FFF732FC4FF44063B0
:10437000C4F201034FF480625A614FF40063C4F247
:1043800001034FF040025A614FF40063C4F201038D
:104390004FF080025A614FF44063C4F201034FF4BE
:1043A00000521A614FF44060C4F201004FF4806182
:1043B0004FF00602FFF70CFC4FF40060C4F201005E
:1043C0004FF040014FF00602FFF702FC4FF400608F
:1043D000C4F201004FF080014FF00602FFF7F8FB36
:1043E0004FF44060C4F201004FF400514FF0060258
:1043F000FFF7EEFB4FF44060C4F201004FF40061A0
:104400004FF00602FFF7E4FB4FF40060C4F2010036
:104410004FF010014FF00602FFF7DAFB4FF00003F8
:10442000009341F22830C2F200004FF496614FF041
:10443000400243F6C153C0F60003FCF749FE4FF0BB
:104440000003009341F2D870C2F200004FF496616D
:104450004FF0400243F6E173C0F60003FCF738FE6C
:104460004FF0000000F084F84FF0000000F068F812
:104470004FF0010000F094F841F2B823C2F20003BB
:104480001A7A6FF300021A7241F2B823C2F20003E3
:104490001A7A6FF341021A7241F2B823C2F2000392
:1044A0004FF000021A6041F2B823C2F200034FF04D
:1044B00000025A6041F2B823C2F200031A7D6FF382
:1044C00000021A7541F2B823C2F200031A7D6FF39D
:1044D00041021A7541F2B823C2F200034FF0000204
:1044E000DA6041F2B823C2F200034FF000021A6111
:1044F00003B000BDAFF30080AFF30080AFF30080E6
:1045000082B00190009141F2B823C2F200031A7AFE
:1045100042F001021A7202B0704700BFAFF3008090
:1045200082B00190009102B0704700BFAFF30080ED
:1045300082B00190009102B0704700BFAFF30080DD
:1045400082B00190019B002B07D04FF40063C4F2AE
:1045500001034FF040025A6106E04FF40063C4F2D9
:1045600001034FF040021A6102B07047AFF30080C0
:1045700082B00190019B002B07D04FF40063C4F27E
:1045800001034FF080025A6106E04FF40063C4F269
:1045900001034FF080021A6102B07047AFF3008050
:1045A00082B00190019B002B07D04FF44063C4F20E
:1045B00001034FF480625A6106E04FF44063C4F295
:1045C00001034FF480621A6102B07047AFF30080BC
:1045D00082B00190019B002B07DD4FF44063C4F2D1
:1045E00001034FF400621A6106E04FF44063C4F225
:1045F00001034FF400625A6102B07047AFF30080CC
:1046000082B00190019B002B07DD4FF40063C4F2E0
:1046100001034FF010021A6106E04FF40063C4F288
:1046200001034FF010025A6102B07047AFF30080EF
:1046300082B00190019B002B07D04FF44063C4F27D
:1046400001034FF400525A6106E04FF44063C4F294
:1046500001034FF400521A6102B07047AFF30080BB
:1046600086B00190019B0593019B0493019A059BE1
:1046700092FBF3F2059B13440393039B4FEAD3721F
:1046800013444FEA63031946039A4FEAE2734FEA71
:10469000D3731A4402F00102C3EB02030B440593E7
:1046A000049A059B9A4202DD059B0493DEE7019A7A
:1046B000049B92FBF3F2049B03F1FF339A420ED169
:1046C000019B049A93FBF2F2049901FB02F2C2EB04
:1046D0000303002B03D1049B03F1FF330493049BDA
:1046E000184606B0704700BFAFF30080AFF30080FC
:1046F00000B583B0FDF764FAFBF712FF00F028F86D
:1047000000F0BEF800F014F9FFF7B2FD4FF003001F
:1047100000F0F6F84FF06403019340F6C410FCF784
:1047200017FD4FF0000042F21071FFF761FD40F6F7
:10473000C410FCF70DFD4FF000004DF6F001CFF670
:10474000FF71FFF755FD40F6C410FCF701FDE8E7E7
:1047500008B54FF40060C4F201004FF400714FF04F
:104760001002FFF735FA4FF40060C4F201004FF475
:1047700080614FF00202FFF72BFA4FF40060C4F2A1
:1047800001004FF400614FF01002FFF721FA4FF4DF
:104790000060C4F201004FF480514FF00202FFF7B5
:1047A00017FA40F66460C2F2000045F2E001C0F67C
:1047B0000001FDF7A5FC08BDAFF30080AFF300805A
:1047C00000B583B0019040F69C53C2F20003DA6951
:1047D00044F62073C0F60003936141F69040C2F2A4
:1047E0000000FCF795FD41F6A043C2F200031A68F1
:1047F00041F65863C2F200031A6041F65863C2F2F0
:1048000000031B6803F00103DBB2002B0CD04FF454
:104810008053C4F201034FF48052C4F20102D26803
:1048200082F48042DA6006E04FF48053C4F2010360
:104830004FF480425A6141F65863C2F200031B688C
:1048400003F00203002B0CD04FF48053C4F2010399
:104850004FF48052C4F20102D26882F40052DA604E
:1048600006E04FF48053C4F201034FF400525A6142
:10487000FCF7EEFD4FF0FA00FCF76AFCADE700BF75
:1048800000B583B04FF48053C4F201034FF480426B
:104890005A614FF48053C4F201034FF400525A613D
:1048A0004FF48050C4F201004FF480414FF00602F3
:1048B000FFF78EF94FF48050C4F201004FF400511D
:1048C0004FF00602FFF784F941F69040C2F2000073
:1048D000FCF7FEFC4FF00003009341F6A840C2F243
:1048E00000004FF4D8714FF0400244F2C173C0F69B
:1048F0000003FCF7EDFB03B000BD00BFAFF3008089
:1049000000B583B0019041F69040C2F20000FCF780
:10491000FFFC41F6A043C2F20003019A1A60FCF7C3
:1049200097FD03B000BD00BFAFF30080AFF3008080
:1049300000B583B04FF40063C4F201034FF00102ED
:104940005A614FF48053C4F201034FF400425A619C
:104950004FF40060C4F201004FF001014FF0060275
:10496000FFF736F94FF48050C4F201004FF40041D4
:104970004FF00602FFF72CF942F21000C2F20000DD
:1049800042F23001C2F200014FF003024FF0000387
:10499000FCF796FE4FF00003009341F66060C2F210
:1049A00000004FF4D8714FF0400244F6C113C0F636
:1049B0000003FCF78DFB03B000BD00BFAFF3008028
:1049C00000B585B0019040F69C53C2F20003DA694D
:1049D00044F63073C0F60003936142F21000C2F255
:1049E00000004FF0FF31FCF7DBFE03460393039B0F
:1049F00003F00103DBB2002B07D04FF40063C4F2D5
:104A000001034FF001021A6106E04FF40063C4F2A3
:104A100001034FF001025A61039B03F00203002BD4
:104A200007D04FF48053C4F201034FF400421A61DF
:104A300006E04FF48053C4F201034FF400425A6180
:104A40004FF06400FCF784FB4FF40063C4F20103F1
:104A50004FF001025A614FF48053C4F201034FF446
:104A600000425A61B9E700BFAFF30080AFF30080A6
:104A700069646C65000000006D61696E00000000F3
:104A8000535623310000000053562332000000002B
:104A90005356233300000000535623340000000017
:104AA0005356233500000000535623360000000003
:104AB00053562337000000005356233800000000EF
:104AC00053562339000000005356233130000000B4
:104AD00053562331310000000000000000000000A8
:104AE0002263685654536574492228290000000047
:104AF0002263685654526573657449222829000060
:104B00006368565452657365744928292C202331F3
:104B10000000000000000000000000000000000095
:104B2000636853636852656164794928292C20239E
:104B300031000000737461636B206F766572666C80
:104B40006F7700000000000000000000000000007F
:104B50002263685468644372656174654922282938
:104B600000000000226368546864536574507269E1
:104B70006F72697479222829000000006368546804
:104B800064526573756D6528292C2023310000005F
:104B9000226368546864536C65657022282900009C
:104BA0006368546864457869745328292C2023313C
:104BB0000000000022636854686457616974222809
:104BC0002900000063685468645761697428292CBF
:104BD0002023310000000000000000000000000061
:104BE0002263684D7478496E697422282900000098
:104BF0002263684D74784C6F636B53222829000040
:104C000063684D74784C6F636B5328292C202331D3
:104C10000000000063684D74784C6F636B53282963
:104C20002C202332000000002263684D74785472F7
:104C3000794C6F636B5322282900000063684D7420
:104C400078556E6C6F636B28292C2023310000008F
:104C500063684D7478556E6C6F636B28292C202324
:104C60003200000063684D7478556E6C6F636B534F
:104C700028292C202331000063684D7478556E6C10
:104C80006F636B5328292C202332000000000000A2
:104C900022636845767452656769737465724D6105
:104CA000736B222829000000226368457674556ED4
:104CB00072656769737465722228290022636845EA
:104CC00076745369676E616C2228290022636845F7
:104CD00076745369676E616C4922282900000000D0
:104CE00022636845767442726F6164636173744DC8
:104CF00061736B49222829002263684576744469F0
:104D00007370617463682228290000006368457627
:104D100074446973706174636828292C20233100FE
:104D200022636849515265616454696D656F757499
:104D3000222829002263684F5157726974655469AB
:104D40006D656F75742228290000000000000000C6
:104D5000226578745374617274222829000000005F
:104D6000657874537461727428292C2023310000F3
:104D70002265787453746F70222829006578745303
:104D8000746F7028292C202331000000226578746C
:104D90004368616E6E656C456E61626C65222829A0
:104DA000000000006578744368616E6E656C456E46
:104DB00061626C6528292C202331000022657874FB
:104DC0004368616E6E656C44697361626C6522282C
:104DD000290000006578744368616E6E656C4469F3
:104DE0007361626C6528292C2023310000000000CB
:104DF0002270776D537461727422282900000000BC
:104E000070776D537461727428292C20233100004F
:104E10002270776D53746F702228290070776D535C
:104E2000746F7028292C2023310000002270776DC8
:104E30004368616E6765506572696F642228290056
:104E400070776D4368616E6765506572696F64283D
:104E5000292C2023310000002270776D456E61629D
:104E60006C654368616E6E656C2228290000000045
:104E700070776D456E61626C654368616E6E656CDE
:104E800028292C202331000070776D4469736162FA
:104E90006C654368616E6E656C28292C2023310097
:104EA00022736453746172742228290073645374EA
:104EB00061727428292C202331000000227364536E
:104EC000746F702228290000736453746F7028294E
:104ED0002C20233100000000227364496E636F6D43
:104EE000696E674461746149222829002273645203
:104EF00065717565737444617461492228290000E5
:104F000070776D5F6C6C645F737461727428292CA8
:104F1000202331000000000000000000000000001D
:104F20006C640000000000000000000000000000B1
:104F30007368000000000000000000000000000096
:104F4000F11E0008211F0008511F0008711F0008F2
:104F5000911F0008C11F0008E11F00081120000870
:104F600041200008000000000000000000000000D8
:104F7000080002400400024000000B001C00024038
:104F80000400024004010C00300002400400024012
:104F900008020D0044000240040002400C030E0011
:104FA000580002400400024010040F006C00024050
:104FB000040002401405100080000240040002407A
:104FC00018061100000000000000000000000000B2
:104FD00000C20100000000400000000000000000CE
:104FE000040204080800030708080808080808085D
:104FF0000B0F000000000000000000000000000097
:10500000FFFFFFFF4444444444444444FFFFFFFF88
:105010004444444444444444FFFFFFFF4444444464
:1050200044444444FFFFFFFF444444444444444454
:10503000FFFFFFFF88888888888888880000000034
:105040000000000000000000000000000000000060
:105050000000000000000000000000000000000050
:1050600000000000000000000200000001450008F0
:105070000000000000000000000000000000000030
:1050800002000000314500080000000000000000A0
:105090000000000000000000000000000000000010
:1050A0000200000021450008000000000000000090
:1050B00000000000000000000000000000000000F0
:1050C00000000000000000000000000000000000E0
:1050D00000000000000000000000000001000100CE
:0C50E00000C201000000000000030000FE
:1050F000C80000009001000064000000A0860100CC
:10510000A0860000E13C0008000000000000000054
:10511000000000000000000001000000000000008E
:10512000000000000000000000000000A086010058
:10513000A0860000513D00080000000000000000B3
:10514000010000000000000000000000000000005E
:0C51500000000000000000000000000053
:0400000508000111DD
:00000001FF
