:020000040800F2
:100000000004002011010008E1010008E1010008DE
:10001000E1010008E1010008E1010008E101000838
:10002000E1010008E1010008E101000811020008F7
:10003000E1010008E1010008E1010008E102000817
:10004000E1010008A11D0008E1010008E10100082C
:10005000E1010008E1010008A11B0008D11B000814
:10006000011C0008311C0008611C000881170008F1
:10007000C11700080118000841180008811800087D
:10008000C118000801190008E1010008E101000899
:10009000E1010008E1010008E1010008911C0008ED
:1000A000E1010008111F0008E1010008E10100085A
:1000B000511F0008911F0008D11F0008612300088C
:1000C00071240008E1010008E1010008E1010008D5
:1000D000E1010008012A0008E1010008E10100082F
:0C00E000111D0008E1010008D11D0008FE
:1000F000704700BFAFF30080AFF30080AFF3008024
:10010000FEE700BFAFF30080AFF30080AFF30080E5
:1001100072B6244A82F30988022383F31488BFF35A
:100120006F8F214B21498B4205D24FF0553043F858
:10013000040B8B42FBD31E4B934205D24FF055313B
:1001400043F8041B9342FBD302F0F2FD194B1A480B
:10015000834206D2194A52F8041B43F8041B834217
:10016000F9D3174B174A934204D2002143F8041BDA
:100170009342FBD3144D154CFFF7BAFFAC4204D2A7
:1001800054F8043B9847AC42FAD3114D114C03F09C
:1001900057FBAC4204D254F8043B9847AC42FAD324
:1001A000FFF7AEFF00080020000000200004002040
:1001B00000040020000800200C080020904C0008DB
:1001C00010080020882E0020EC000008EC00000839
:1001D000EC000008EC000008AFF30080AFF30080F3
:1001E000FEE700BFAFF30080AFF30080AFF3008005
:1001F00072B6FEE7AFF30080AFF30080AFF300808C
:1002000000F096F900F00CFC00F0AAF900DF00BF46
:10021000EFF30983203383F30988002383F31188E4
:10022000704700BFAFF30080AFF30080AFF30080F2
:1002300008B500224FF46D43CEF20003C0F2FA522B
:10024000002199600720DA60102100F0C1F80A202F
:100250004FF4007100F0BCF80B20802100F0B8F8DA
:1002600008BD00BFAFF30080AFF30080AFF30080A4
:10027000202383F311884FF46D43CEF200035B68B3
:1002800013F4006316D0EFF30983203B83F309884E
:10029000104A4FF080709169D86171B11168D269CC
:1002A00089689268914294BF002201227AB10A4A79
:1002B0009A6101E083F3118870471168D2698968F7
:1002C0009268914234BF00220122002AEFD1034AF2
:1002D0009A61F1E73C0D0020010200080C020008C1
:1002E00008B500F09DF9202383F3118800F058F938
:1002F00000F0D6F800F074F9002383F3118800F0C1
:10030000AFF9FFF7B5FF08BDAFF30080AFF3008092
:100310002DE9F04FC1F80CD0D0F80CD0BDE8F08F2B
:1003200008B500F01DF9002383F311882846A04783
:1003300000F08EFC08BD00BFAFF30080AFF300807B
:1003400000F0030330B4DB00FF259D4000F01F02E6
:1003500011FA03F34FF0010C0CFA02FC84084FF47D
:100360006142CEF20002C03452F82410400921EA62
:10037000050141EA030300F1600142F8243042F82C
:1003800021C042F820C030BC704700BFAFF30080EE
:1003900000F01F034FF0010C0CFA03FC00F0030205
:1003A000FF23D20013FA02F241094FF46143CEF267
:1003B00000032031800843F821C0C03053F82010DA
:1003C00021EA020243F82020704700BFAFF300800B
:1003D00000F0030310B4DB00FF249C4011FA03F388
:1003E00080084FF46D42CEF20002063052F820C071
:1003F0002CEA040141EA030342F8203010BC7047A4
:10040000024B034ADB699A61FEE700BF3C0D002006
:1004100000430008AFF30080AFF30080AFF300802B
:1004200030B583B0FFF704FF00F022FA00F0B0F916
:1004300000F0F6FE00F064F940F610004021C2F230
:10044000000000F015FB40F63C5440F20043C2F2BD
:100450000003C2F200040125E06180F82050C3616E
:1004600000F04EF8002383F3118862B644F208319D
:10047000E269C0F60001916140F65800002240F2A6
:1004800001430092C0F60003C0212A46C2F20000D8
:1004900000F066FB03B030BDAFF30080AFF3008027
:1004A00070B500F0FDF8114B9A69002A01DD013AA0
:1004B0009A61DB690E4C596A226801315962E3681E
:1004C0000133A242E3600FD09568013D95605DB9AC
:1004D00026461168D3681069D5604E602160984740
:1004E00022689368002BF4D070BD00BF3C0D002043
:1004F0002C0D0020AFF30080AFF30080AFF300803D
:1005000008B5064B1B6813B9054B1B6823B1054A98
:10051000054B1A60FFF76CFE08BD00BF18090020EC
:10052000240D002020430008280D0020AFF3008098
:10053000074B10B51B68074C13B9064C236823B151
:10054000054A064B1A60FFF753FE0123236010BDD6
:1005500018090020240D002028430008280D002041
:10056000084B10B51B68084C33B9074C2368002BA7
:1005700002DD0023236010BD044A054B1A60FFF71B
:1005800037FEF6E718090020240D0020304300084C
:10059000280D0020AFF30080AFF30080AFF30080A0
:1005A000084B10B51B68002BD8BF074C02DD064C6A
:1005B000236823B1054A064B1A60FFF719FE012391
:1005C000236010BD18090020240D002038430008C6
:1005D000280D0020AFF30080AFF30080AFF3008060
:1005E000094B10B51B68002BD8BF084C06DD074C23
:1005F0002368002B02DD0023236010BD044A054B55
:100600001A60FFF7F5FDF6E718090020240D002019
:1006100040430008280D0020AFF30080AFF30080B6
:1006200010B5202383F31188094C2368002B02DBCB
:10063000084A12682AB1084B084A1A60FFF7D8FD29
:10064000236801332360002383F3118810BD00BFAA
:1006500018090020240D0020280D00204843000820
:1006600010B5202383F31188094C2368002B02DD89
:10067000084A12682AB1084B084A1A60FFF7B8FD09
:100680002368013B2360002383F3118810BD00BF62
:1006900018090020240D0020280D002050430008D8
:1006A00008B5074B1B68002B04DB064B1B68002BAF
:1006B00000DD08BD044A054B1A60FFF799FDF8E715
:1006C00018090020240D002058430008280D0020A0
:1006D00008B5074B1B6823B9064B1B68002B00DDD0
:1006E00008BD054A054B1A60FFF782FDF8E700BF19
:1006F00018090020240D002060430008280D002068
:1007000040F61C13C2F200031A46402142F8081BAF
:100710005A607047AFF30080AFF30080AFF3008002
:1007200070B40D4A0D495368CE680D49846ACD698D
:1007300090F820C003F1100102F5816081421E6033
:100740005D609C6083F80CC028BF02F10803516013
:1007500028BF536070BC70471C0900202C0D00207E
:100760003C0D0020AFF30080AFF30080AFF30080BA
:1007700008B540F62853C2F200031860FFF738FDB1
:1007800008BD00BFAFF30080AFF30080AFF300807F
:1007900040F62C53C2F200034FF0FF329A60002261
:1007A0005B601B60DA607047AFF30080AFF30080DE
:1007B000F8B5044615461F460E46FFF771FFD4F103
:1007C000010338BF0023002D08BF43F00103002BB5
:1007D00019D1002E17D00E4927610B68E5609A6881
:1007E000964204D91B68B61A9A68B242FAD35A687C
:1007F0008B422360626014605C60A66002D09A68DD
:10080000961B9E60F8BD0348FFF7B2FFE3E700BF09
:100810002C0D002070430008AFF30080AFF3008080
:1008200010B50446FFF73CFF84B1E36893B1236839
:100830000A4A934203D09968A2688A189A6062684B
:10084000002113602368E1605A6010BD0448FFF77F
:100850008FFFEAE70348FFF78BFFE8E72C0D002046
:100860008043000890430008AFF30080AFF300809E
:1008700040F63C53C2F2000300229A6014225B60EF
:100880001B609A615B611B61704700BFAFF3008022
:1008900010B590F820300446D3F1010238BF002291
:1008A0000E2B14BF134642F001037BB90022094B03
:1008B000A16884F820201B689A688A42FBD25A6893
:1008C0002360626014605C60204610BD0248FFF740
:1008D0004FFFEBE73C0D0020B0430008AFF3008072
:1008E00008B590F820300D2B11D8DFE803F0151073
:1008F0001007100B101010101010100B836A9A685C
:1009000001329A60436802681A60026853604FF0CF
:10091000FF338362FFF7BCFF08BD00BFAFF3008069
:1009200070B5104C0646FFF7D3FEE569142185F833
:100930002060236828461A68A1610121546083F869
:1009400020102260E361FFF7EBFEEA69ADF12403BA
:100950009A4202D90448FFF70BFFE0692946FFF7E6
:10096000D7FC70BD3C0D0020C4430008AFF30080ED
:10097000F0B50F4687B00546FFF7AAFEB7F1FF3F77
:1009800013D00C4C01AEE36939460B4A3046FFF7F1
:100990000FFF2846FFF7C4FF049B13B13046FFF753
:1009A0003FFFE369986A07B0F0BD2846FFF7B8FF3C
:1009B000004CF6E73C0D0020E1080008AFF3008092
:1009C00070B5144D04460E46FFF782FEE869A26832
:1009D0008368A6629A4214D9FFF75AFF012306469C
:1009E00084F820301423AB61EC61FFF799FEF269C3
:1009F000ADF124039A4208D820463146FFF788FC1F
:100A000070BD2046FFF744FFFAE70348FFF7B0FE4A
:100A1000F2E700BF3C0D0020C4430008AFF30080A4
:100A200038B50F4C14212368E5691A68A1610121CA
:100A3000546083F8201028462260E361FFF728FF06
:100A40002846FFF76DFEEA69ADF124039A4202D908
:100A50000448FFF78DFEE0692946FFF759FC38BDD1
:100A60003C0D0020C4430008AFF30080AFF30080CA
:100A700000234FF0020C40F63C52C2F2000280F814
:100A800020C080F82130D2F814C070B400F13004D6
:100A900000F12C0600F1480502618160C0F814C025
:100AA000416450610364C36343628361CCF8100006
:100AB000C66244630463C56170BC7047AFF30080D5
:100AC000F8B504460D461F461646FFF7E9FDD4F17A
:100AD000010338BF0023AF2D98BF43F0010343B992
:100AE0007F2E94BF00230123002F08BF43F0010392
:100AF00013B11548FFF73CFE243D06986119E160EB
:100B00004860124800230862114A0221675184F8A4
:100B1000201084F82130506904F1300104F12C05D3
:100B200004F1480C22616061A6606664546123642C
:100B30000461E3636362A361E56261632163C4F8F6
:100B40001CC02046F8BD00BFE04300082103000898
:100B50003C0D0020AFF30080AFF30080AFF30080C6
:100B6000F0B50D4616461F4683B0044600F1480214
:100B70000346FF2103F8011B9342FBD163199A42FC
:100B800004D2552102F8011B9A42FBD1202383F3A2
:100B90001188FFF7CDFCDDF820C03B4632462946E0
:100BA0002046CDF800C0FFF78BFF00210446FFF779
:100BB00007FFFFF7D5FC002383F31188204603B01D
:100BC000F0BD00BFAFF30080AFF30080AFF3008053
:100BD00010B5044610B90948FFF7CAFD202383F376
:100BE0001188FFF7A5FC21460620FFF7C1FEFFF79D
:100BF000B7FC002383F3118810BD00BF2044000818
:100C0000114A38B5D4690346254655F82C0FA3621E
:100C1000A84206D00368E362FFF73AFEE06AA84202
:100C2000F8D194F8213013F0030F01BF22696369F2
:100C30001A61226908BF53610E20FFF771FE034855
:100C4000FFF796FD38BD00BF3C0D00203044000882
:100C500010B52023044683F31188FFF769FC204672
:100C6000FFF7CEFF10BD00BFAFF30080AFF30080F1
:100C700010B5044620B1002364602460A36010BD59
:100C80000148FFF775FDF6E770440008AFF30080F8
:100C900038B53D4B0546DC69FFF71AFD002D6FD0D6
:100CA000A868002867D0A26883689A4208D990F89B
:100CB00020308260042B42D0052B2AD0002B1DD07F
:100CC0002B461B689D4203D09968A2689142F8D2D6
:100CD0005A682360626004205C601460A562FFF7BC
:100CE0001FFEAB68A34202D02848FFF741FD236CEA
:100CF000AB4202D02648FFF73BFD38BD436802688F
:100D000001211A60026880F820105360FFF7C0FDCF
:100D1000D6E741680368D0F828C00B60D0F800E03F
:100D20006346CEF804101B689C4502D09968914236
:100D3000F9D25A680360426010605860C0E74168A9
:100D40000368D0F828C00B60D0F800E06346CEF806
:100D500004101B689C4502D099688A42F9D95A68E8
:100D60000360426010605860DCF80800A268836885
:100D700093429CD3A4E7236CAC60EB602564BCE792
:100D80000448FFF7F5FC8BE73C0D00209044000879
:100D9000A444000880440008AFF30080AFF3008053
:100DA00010B52023044683F31188FFF7C1FB2046CA
:100DB000FFF76EFFFFF7D4FB002383F3118810BD0C
:100DC0001E4A38B5D569202383F31188FFF7B0FB9D
:100DD0002C6C002C2CD0A368AB4203D01848FFF732
:100DE000C7FC2C6C2068E368A0422B641DD0696CA2
:100DF0004BB11A689A4203D09268914238BF1146AB
:100E0000DB68002BF5D10368026CA9602360002128
:100E10005C60A060E2600464FFF7D2FDFFF7A0FB16
:100E2000002383F31188204638BD0023A360F5E733
:100E30000448FFF79DFC2C6CCDE700BF3C0D002063
:100E4000E0440008CC440008AFF30080AFF300801A
:100E500038B504460D46FFF723FC002C1CD0E26B8E
:100E600094F820301543082BE5630CD0092B00D0F3
:100E700038BDA36A1D40AB42FAD12046FFF708FDFA
:100E800000238362F4E7A36A1D42F1D02046FFF7F6
:100E9000FFFC00238362EBE70148FFF769FCDEE714
:100EA0004C450008AFF30080AFF30080AFF3008043
:100EB00070B505460E46FFF7F3FB65B12C68AC42F2
:100EC00008D0A168606846EA0101FFF7C1FF246805
:100ED000AC42F6D170BD0248FFF74AFCEEE700BF16
:100EE00070450008AFF30080AFF30080AFF30080DF
:100EF00008B503464FF0FF3069B1074AD3F804C084
:100F0000D2690D2013609362C2F804C05A60CCF815
:100F10000020FFF72DFD08BD3C0D0020AFF3008041
:100F20008A184FF0000C40600060C0F808C04161B2
:100F30008161C1600261C361704700BFAFF300808F
:100F400038B504460D46FFF7ABFBA26963699342CF
:100F500018BFA26818D00132A26003F8015B2269B1
:100F60006361934228BFE368206828BF6361A042A1
:100F700008D0036823605C60FFF78AFC002383626B
:100F8000184638BD0020FCE7A268002AE3D06FF0C5
:100F90000300F6E7AFF30080AFF30080AFF300800B
:100FA00070B5202382B004460D4683F31188FFF705
:100FB000BFFAE3690BB120469847A6682046294648
:100FC00066B9FFF795FF0028F7DA0190FFF7C8FA36
:100FD000334683F31188019802B070BDA369013EC6
:100FE000A66013F8015B2269A361934224BFE36802
:100FF000A361FFF7B5FA002383F311882846EBE7D6
:101000002DE9F047044690468A461D46C769002AE6
:1010100038D0202383F31188FFF78AFA00260FB116
:101020002046B847D4F8089020462946B9F1000F69
:101030000BD1FFF75DFF0028F4D0FFF791FA4B4684
:1010400083F311883046BDE8F087A36909F1FF39C1
:10105000C4F8089013F8012B0AF806202269A3614E
:10106000934224BFE368A361FFF77AFA002383F376
:1010700011880136B045E5D0202383F31188FFF7AE
:1010800057FACCE70148FFF773FBC2E7B045000809
:1010900001EB020C40600060826041618161C160CF
:1010A000C0F810C0C3617047AFF30080AFF3008099
:1010B000F0B5202383B004460D46164683F311880D
:1010C000FFF736FAA7682046314667B9FFF710FFE9
:1010D0000028F7DA0190FFF743FA3B4683F31188C3
:1010E000019803B0F0BD6369013FA76003F8015B9D
:1010F00022696361934224BFE3686361E3690BB1D2
:1011000020469847FFF72CFA002383F311881846EE
:10111000E7E700BFAFF30080AFF30080AFF30080DC
:1011200038B50446FFF7BCFA6269A3699A4218BF52
:10113000A26816D00132A26013F8015B2269A36194
:10114000934228BFE368206828BFA361A04206D06D
:10115000036823605C60FFF79BFB002383622846E3
:1011600038BDA268002AE5D06FF00200F8E700BFA2
:101170002DE9F047044615460E469A46D0F81C80E5
:10118000002A40D0202383F31188FFF7D1F90027EC
:10119000D4F8089009F1FF33B9F1000F25D0A3600E
:1011A0003278636903F8012B22696361934224BF9B
:1011B000E3686361B8F1000F01D02046C047FFF734
:1011C000CFF9002383F31188013715F1FF3517D0CC
:1011D0000136202383F31188FFF7AAF9D4F8089089
:1011E00009F1FF33B9F1000FD9D120465146FFF77D
:1011F0007FFE0028CCD0FFF7B3F94B4683F311886C
:101200003846BDE8F0870248FFF7B2FABAE700BFF8
:10121000C4450008AFF30080AFF30080AFF3008057
:1012200045F20001084840F6605240F65C53C2F2B5
:101230000001C2F2000220F00700C2F2000321F018
:1012400007011060196070478F2E0020AFF30080F7
:1012500008B500F0EDFB44F6E020C0F6000001F018
:10126000E7FC00F00DF800F04BF800F009F900F091
:10127000FFF901F065FD08BDAFF30080AFF300801A
:1012800008B500F0BDFD08BDAFF30080AFF30080EE
:101290000123037000234360704700BFAFF3008059
:1012A00038B5D0F1010338BF0023002908BF43F04F
:1012B000010304460D46C3B9202383F31188FFF7C9
:1012C00037F92378013BDBB2012B02D90948FFF73C
:1012D0004FFA2046656000F09BFD02232370FFF764
:1012E0003FF9002383F3118838BD0348FFF740FA24
:1012F000E2E700BFF0450008E0450008AFF30080DA
:1013000008B500F085FE08BDAFF30080AFF30080A4
:101310000123037000234360704700BFAFF30080D8
:1013200038B5D0F1010338BF0023002908BF43F0CE
:10133000010304460D46C3B9202383F31188FFF748
:10134000F7F82378013BDBB2012B02D90948FFF7FC
:101350000FFA2046656000F08BFE02232370FFF732
:10136000FFF8002383F3118838BD0348FFF700FA24
:10137000E2E700BF8C46000880460008AFF300801B
:1013800010B50446B8B1202383F31188FFF7D0F8D5
:101390002378013BDBB2012B02D90948FFF7E8F9BA
:1013A000204600F0E5FE01232370FFF7D9F8002363
:1013B00083F3118810BD0348FFF7DAF9E3E700BFB4
:1013C000A84600089C460008AFF30080AFF30080F9
:1013D00038B504460D46FFF763F964B12378022B54
:1013E00002D00748FFF7C4F904232370204629469A
:1013F00000F00EFF38BD0348FFF7BAF9EEE700BF73
:1014000004470008EC460008AFF30080AFF300800B
:1014100038B505460C46202383F31188FFF788F87A
:1014200028462146FFF7D4FFFFF79AF8002383F3FD
:10143000118838BDAFF30080AFF30080AFF30080B8
:1014400010B50446FFF72CF96CB12378023BDBB2F0
:10145000022B02D90648FFF78BF90223237020469E
:1014600000F0E6FE10BD0348FFF782F9EDE700BF8C
:10147000304700081C470008AFF30080AFF300803E
:1014800008B501F09DF808BDAFF30080AFF3008010
:101490000123037000234360704700BFAFF3008057
:1014A00038B5D0F1010338BF0023002908BF43F04D
:1014B000010304460D46002B1FD123785A1ED2B2D9
:1014C000053B18BF0123012A94BF002303F0010349
:1014D00013B10C48FFF74CF9202383F31188FFF771
:1014E00027F82046656001F083F802232370FFF798
:1014F00037F8002383F3118838BD0348FFF738F924
:10150000DBE700BF7047000860470008AFF30080CA
:101510002DE9F0478846D0F1010138BF002184B0A1
:10152000B8F1000F08BF41F00101044692461D4684
:10153000DDF830900D9E0E9F49B9D2F1010338BFFE
:101540000023002D08BF43F00103002B2AD01A48C6
:10155000FFF70EF92378022B02D01848FFF708F99D
:10156000202383F31188FEF7E3FF0023A360032306
:10157000237020462B4641465246CDF800900196F6
:10158000029701F095F9B0F1FF3F054611D0022313
:101590002370FEF7E5FF002383F31188284604B08B
:1015A000BDE8F08716B1B9F1000FD0D0002FD1D12E
:1015B000CDE705232370ECE7B0470008D0470008CB
:1015C000806BD0F1010038BF00207047AFF300807E
:1015D0008069D0F1010038BF00207047AFF3008070
:1015E00070B52023044683F311880026FEF7A0FF80
:1015F000A568A660FEF7B4FF334683F3118828463A
:1016000070BD00BFAFF30080AFF30080AFF3008088
:1016100008B51030FFF7F4FC08BD00BFAFF3008041
:1016200008B510304FF0FF33FFF7EAFC08BD00BFEC
:1016300008B53030FFF79CFD08BD00BFAFF3008058
:1016400008B530304FF0FF33FFF792FD08BD00BF03
:1016500008B51030FFF7A4FC08BD00BFAFF3008051
:1016600008B53030FFF724FD08BD00BFAFF30080A0
:1016700008B501F085FA08BDAFF30080AFF3008034
:1016800038B50B4644F690018446C0F60001044686
:101690004CF8041BC4F804C04FF0000CC4F808C098
:1016A0004FF0010C04F15001154600F110004FF409
:1016B000007284F80CC0FFF733FC04F5147104F1D8
:1016C00030004FF400722B46FFF7E2FC38BD00BF3C
:1016D00038B504460D46C0B1202383F31188FEF7C8
:1016E00027FF237B013BDBB2012B02D90948FFF71F
:1016F0003FF82046294601F05BFA02232373FEF7E8
:101700002FFF002383F3118838BD0348FFF730F81B
:10171000E2E700BF3C48000830480008AFF3008013
:1017200038B504460D46FEF7BBFF002C20D0A1695A
:1017300039B104F110002946FFF702FC00280EDB46
:1017400038BDA368201D43F00403A360FFF7B0FB7E
:1017500004F110002946FFF7F3FB0028F0DAA36834
:10176000201D43F08003A3600021FFF7A1FBE7E702
:101770000148FEF7FDFFDAE768480008AFF3008094
:1017800008B5FEF74DFF0A4800220368C4F20202C2
:101790004FF00F0C1168C2F804C01BB1406801EA99
:1017A0000C019847FEF75CFFFEF762FD08BD00BF25
:1017B000640D0020AFF30080AFF30080AFF3008032
:1017C00008B5FEF72DFF0A4800228368C4F2020222
:1017D0004FF0F00C1168C2F804C01BB1C068C1F32F
:1017E00003119847FEF73CFFFEF742FD08BD00BF1E
:1017F000640D0020AFF30080AFF30080AFF30080F2
:1018000008B5FEF70DFF0A4800220369C4F2020280
:101810004FF4706C1168C2F804C01BB14069C1F389
:1018200003219847FEF71CFFFEF722FD08BD00BF0D
:10183000640D0020AFF30080AFF30080AFF30080B1
:1018400008B5FEF7EDFE0A4800228369C4F20202E1
:101850004FF4704C1168C2F804C01BB1C069C1F3E9
:1018600003319847FEF7FCFEFEF702FD08BD00BFFE
:10187000640D0020AFF30080AFF30080AFF3008071
:1018800008B5FEF7CDFE0A480022036AC4F2020240
:101890004FF4702C1168C2F804C01BB1406AC1F348
:1018A00003419847FEF7DCFEFEF7E2FC08BD00BFEF
:1018B000640D0020AFF30080AFF30080AFF3008031
:1018C00008B5FEF7ADFE0A480022836AC4F20202A0
:1018D0004FF4700C1168C2F804C01BB1C06AC1F3A8
:1018E00003519847FEF7BCFEFEF7C2FC08BD00BFDF
:1018F000640D0020AFF30080AFF30080AFF30080F1
:1019000008B5FEF78DFE0A480022036BC4F20202FE
:101910004FF0706C1168C2F804C01BB1406BC1F38A
:1019200003619847FEF79CFEFEF7A2FC08BD00BFCE
:10193000640D0020AFF30080AFF30080AFF30080B0
:101940000C49002310B4DFF830C00C4C0B601A4671
:101950001946E0580C3301604CF802100832542B41
:10196000F7D10023C4F202034FF0FF325A6010BCDB
:10197000704700BF9C0D0020640D00200049000846
:101980002DE9F041044684B000283BD094F809C00A
:10199000012505FA0CF8204E376818EA070F18BF22
:1019A00028462CD11D4848EA070700EBCC0517F064
:1019B0007F0F6B6018BF4FF48053376018BFC4F2BD
:1019C000020340F83C2018BF58694FF00F0C1CBFB1
:1019D00040F001005861237A60680CFA03FC236828
:1019E00000251E6826F001061E60C0F800C01D60BC
:1019F000104622B1A07A0901FEF7A2FC284604B0E5
:101A0000BDE8F0810648039102920193FEF7B0FE13
:101A1000019B029A0399B9E79C0D0020640D0020F8
:101A2000C0480008AFF30080AFF30080AFF3008040
:101A30004FF4805310B5C4F2020300214FF0FF3E73
:101A40004EF2100243F27F20D3F810C0CEF2000213
:101A5000C3F810E0C0F202001961DC684EF6F05CD9
:101A6000C3F80CE0D960506007209160CEF2000C02
:101A70001060DCF80C204FF4805042F08072CCF8FB
:101A80000C20CEF20000D0F800C04FF4E0424CF041
:101A9000010CC0F800C0D869C4F2000240F08050C8
:101AA000D861D86940F00060D861106840F4807057
:101AB00010601A6A02F44072B2F5407F1EBF4FF404
:101AC00080321A6219624FF48053C4F202031A6A18
:101AD00012F4004F07D11A6A42F440721A621A6A6D
:101AE00042F400421A62FFF72BFF10BDAFF30080F3
:101AF0004FF48053C4F202031A68194642F00102FF
:101B00001A600A684FF4805312F0020FC4F2020305
:101B1000F7D01A68194602F0F9021A6000225A60DA
:101B20004A684FF4805312F00C0FC4F20203F7D14D
:101B30001A68194642F480321A600A684FF48053DA
:101B400012F4003FC4F20203F7D05A68194642F477
:101B5000E8125A601A6842F080721A600A684FF4FC
:101B6000805312F0007FC4F20203F7D04FF4C84153
:101B7000C0F21D014FF400525960C4F2020212215A
:101B8000116059681A4641F002015960536803F028
:101B90000C03082BFAD17047AFF30080AFF300803D
:101BA00008B5FEF73DFD40F6A050C2F200004268C5
:101BB0004FF480630121C4F201035961536800218D
:101BC0009847FEF74DFDFEF753FB08BDAFF30080CD
:101BD00008B5FEF725FD40F6A050C2F200004268AD
:101BE0004FF480630221C4F201035961D3680121DB
:101BF0009847FEF735FDFEF73BFB08BDAFF30080CD
:101C000008B5FEF70DFD40F6A050C2F20000426894
:101C10004FF480630421C4F2010359615369022126
:101C20009847FEF71DFDFEF723FB08BDAFF30080CC
:101C300008B5FEF7F5FC40F6A050C2F2000042687D
:101C40004FF480630821C4F201035961D369032171
:101C50009847FEF705FDFEF70BFB08BDAFF30080CC
:101C600008B5FEF7DDFC40F6A050C2F20000426865
:101C70004FF480631021C4F201035961536A0421B7
:101C80009847FEF7EDFCFEF7F3FA08BDAFF30080CE
:101C900010B5FEF7C5FC4FF48063C4F201035A6926
:101CA00002F4787412F0200F5C6127D114F0400F19
:101CB0001ED114F0800F15D114F4807F0CD114F4D0
:101CC000007F04D0104809214368DB6C9847FEF779
:101CD000C7FCFEF7CDFA10BD0B48082143685B6CCA
:101CE0009847ECE7084807214368DB6B9847E3E730
:101CF0000548062143685B6B9847DAE702480521EF
:101D00004368DB6A9847D1E7A00D0020AFF300805D
:101D100010B5FEF785FC4FF48063C4F201035A69E5
:101D200002F47C4412F4806F5C6130D114F4006FD3
:101D300027D114F4805F1ED114F4005F15D114F480
:101D4000804F0CD114F4004F04D014480F21436885
:101D5000DB6F9847FEF784FCFEF78AFA10BD0F4848
:101D60000E2143685B6F9847ECE70C480D214368F0
:101D7000DB6E9847E3E709480C2143685B6E9847A0
:101D8000DAE706480B214368DB6D9847D1E7034843
:101D90000A2143685B6D9847C8E700BFA00D00208B
:101DA00008B5FEF73DFC40F6A050C2F200004268C4
:101DB0004FF48063C4F201034FF480315961D2F8CB
:101DC000843010219847FEF74BFCFEF751FA08BD0E
:101DD00008B5FEF725FC40F6A050C2F200004268AC
:101DE0004FF48063C4F201034FF480215961D2F8AB
:101DF000943012219847FEF733FCFEF739FA08BDFC
:101E000040F6A05008B5C2F20000FFF741FA08BD45
:101E10002DE9F84505780446012D4FD00023606870
:101E20001F4698469A461E461A46012414E004FAB4
:101E300002FC46EA0C0611F0010F1CBF04FA02FC7A
:101E400048EA0C0811F0020F02D014FA02F10F4315
:101E500001320833132A0ED0C15800EB030C11F0E5
:101E6000040FF5D0DCF80450002DE0D104FA02FC98
:101E70004AEA0C0ADFE7B0F89850B0F89A40B0F898
:101E80009CC00022B0F89E00C4F201024FF48063AF
:101E90004FF6FF719560C4F20103D460C0F20701F0
:101EA000C2F810C0506100221A61C3F80880DF60D8
:101EB0005961C3F804A01E60BDE8F88506206021C2
:101EC000FEF73EFA07206021FEF73AFA082060216B
:101ED000FEF736FA09206021FEF732FA0A20602167
:101EE000FEF72EFA17206021FEF72AFA282060213B
:101EF000FEF726FA28466021FEF722FA2920602103
:101F0000FEF71EFA2A206021FEF71AFA86E700BFC4
:101F100008B5FEF785FB0A4B00201978DA6804291A
:101F2000108204D1022119701080108290815B68A8
:101F300003485B689847FEF793FBFEF799F908BDE5
:101F4000A80D0020AFF30080AFF30080AFF3008056
:101F500008B5FEF765FB0A4B00201978DA680429FA
:101F6000108204D1022119701080108290815B6868
:101F700003485B689847FEF773FBFEF779F908BDE5
:101F8000B80D0020AFF30080AFF30080AFF3008006
:101F900008B5FEF745FB0A4B00201978DA680429DA
:101FA000108204D1022119701080108290815B6828
:101FB00003485B689847FEF753FBFEF759F908BDE5
:101FC000C80D0020AFF30080AFF30080AFF30080B6
:101FD00008B5FEF725FB0A4B00201978DA680429BA
:101FE000108204D1022119701080108290815B68E8
:101FF00003485B689847FEF733FBFEF739F908BDE5
:10200000D80D0020AFF30080AFF30080AFF3008065
:1020100008B54FF4305240F6A853C2F20003C4F2A0
:1020200001021846DA60FFF773F940F6B853C2F2BE
:1020300000034FF080421846DA60FFF769F940F676
:10204000C8534FF48062C2F20003C4F20002184683
:10205000DA60FFF75DF940F6D8504FF40063C2F242
:102060000000C4F20003C360FFF752F908BD00BFCF
:1020700038B503780446012B16D06368A2681B6844
:10208000B2FBF3F5013DADB205FB03339A4202D03A
:102090003048FEF76DFBE36800221A8008229A8020
:1020A00000221D859A8138BD2B4B984220D02B4BA6
:1020B000984235D02A4B98423FD02A4B9C42DCD1E3
:1020C0004FF48053C4F20203DA691E2042F0040286
:1020D000DA611A6942F004021A6100221A61702161
:1020E000FEF72EF94FF42243C0F24A43A360C4E73F
:1020F0004FF48053C4F202039A69192042F400623B
:102100009A61DA68702142F40062DA600022DA60D3
:10211000FEF716F94FF42243C0F24A43A360CCE71E
:102120004FF48053C4F20203DA691C2042F001022A
:10213000DA611A6942F00102CEE74FF48053C4F22B
:102140000203DA691D2042F00202DA611A6942F0E4
:102150000202C1E760490008A80D0020B80D002068
:10216000C80D0020D80D0020AFF30080AFF3008031
:10217000037810B5022B044600D010BDC3680022BE
:102180001A809A811A821E4B984214D01D4B984295
:102190001DD01D4B984226D01C4B9C42EDD11E20D9
:1021A000FEF7F6F84FF48053C4F20203DA6922F026
:1021B0000402DA61E1E71920FEF7EAF84FF48053F0
:1021C000C4F202039A6922F400629A61E4E71C20D7
:1021D000FEF7DEF84FF48053C4F20203DA6922F00E
:1021E0000102DA61C9E71D20FEF7D2F84FF48053EF
:1021F000C4F20203DA6922F00202DA61BDE700BF2D
:10220000A80D0020B80D0020C80D0020D80D00201A
:10221000C368012200200139D9629A82586218826B
:102220009A8105221A807047AFF30080AFF30080D7
:10223000C36800221A801A829A817047AFF3008027
:1022400070B4C2694FF00F0C157A036A0CFA05F5E9
:102250001468002148F200061E8019809980998236
:1022600021685268836921F0010121601560197AA3
:102270001A680CFA01FC11685B6821F00101116019
:10228000C3F800C070BC7047AFF30080AFF30080AC
:1022900038B5C46805464CB1FFF7D2FF0023EB60A8
:1022A0004FF0FF33A3622046FEF7F2FA38BD00BFBD
:1022B00011F0080F38B50446056A01D0FDF798FF04
:1022C000E3690F20197A1A6810FA01F110685B6847
:1022D00020F0010010601960AB889BB243F40073DA
:1022E000AB8038BDAFF30080AFF30080AFF3008068
:1022F00011F0080F38B50446056A2ED1A3690F20E6
:10230000197A1A6810FA01F110685B6820F0010070
:1023100010601960AA88202322F480521204120C43
:10232000AA802A8822F480621204120C2A802A8849
:1023300092B242F400722A8083F31188FEF730F9DA
:10234000E06820B10023E3608362FEF7A1FAFEF7A4
:1023500047F9002383F3118838BDFDF749FFCDE726
:10236000F8B53F4EFEF75CF9346A0223228BA58A4A
:10237000C0F20303ADB245EA024222F07F429A4224
:1023800036D00FD80123C0F203039A4201D1338A19
:10239000238215F00A0F18BF238BFEF761F9FDF7B2
:1023A00067FFF8BD8223C0F207039A4213D084234B
:1023B000C0F207039A42ECD1B3691B685F68002F33
:1023C00031D02388328A9BB242F0010243F4A063E9
:1023D00032822380E1E7A388F26923F400731B04AF
:1023E00012681B0CA380136843F001031360D0E74D
:1023F000A388B26923F400731B0412681B0CA3802A
:10240000136843F001031360A3889BB243F4805325
:10241000A3805368012BBCD8238823F480631B045A
:102420001B0C2380B5E7A288202322F4007212043B
:10243000120CA280228892B242F40072228083F3AE
:102440001188FEF7ADF8F06818B18762F760FEF703
:102450001FFAFEF7C5F8002383F3118899E700BF40
:10246000E80D0020AFF30080AFF30080AFF30080F1
:1024700038B5504DFEF7D4F82C6A202383F3118829
:10248000FEF78EF8EB690F2193F808C01A6801FA7D
:102490000CFCD2F800E058682EF0010EAB69C2F8CF
:1024A00000E0C0F800C0187A1A68814010685B68C4
:1024B00020F0010010601960FEF792F8002383F30A
:1024C0001188A38A13F4807306D0A28A012322F410
:1024D00080721204120CA282A28A12F4007F07D02A
:1024E000A28A43F0020322F400721204120CA282A8
:1024F000A28A12F4806F12D0A28A43F0040322F45D
:1025000080621204120CA282A28822F400721204C9
:10251000120CA280228892B242F400722280A28A17
:1025200012F4006F07D0A28A43F0080322F400627D
:102530001204120CA282A28A12F4805F07D0A28A2F
:1025400043F0100322F480521204120CA282A28AD9
:1025500012F4804F07D0A28A43F0200322F4804275
:102560001204120CA282A28A12B2002A05DB53B90D
:10257000FEF776F8FDF77CFE38BDA28A43F04003F3
:102580005204520CA282AB60202383F31188FEF721
:1025900007F8E86838B1074B0022DA606FF00103F2
:1025A0008362FEF775F9FEF71BF8002383F31188A9
:1025B000DEE700BFE80D0020AFF30080AFF300803E
:1025C00010B540F6E854C2F200042046FEF760FF62
:1025D000064B4FF4A842C4F20002A3F10C01002004
:1025E000E0602262A361E16110BD00BF48490008BC
:1025F00002788A23012A2DE9F04104464361056AE5
:1026000000F099802F464FF09A089C46A269E36932
:1026100060681B681168466805F11002C3F8008005
:1026200090F80880C1F800C08A609A6048F2000201
:102630002A8000234FF41062002E2B80AA8061DDD7
:102640004FF41063C0F23D039E425BDCBB8848F24E
:10265000A06223F03F031B041B0CBB80BB88C0F2AD
:1026600001029BB243F024039642BB804EDCB8F1DA
:10267000010F02D08048FEF77BF84FF4A2437600AA
:10268000C0F2252393FBF6F306FB03F24FF4A243BB
:10269000C0F225239B1A002B40F08E804FF4A243FA
:1026A000C0F2252393FBF6F39BB2032B7CD91E05C6
:1026B0002522360DB3F5805F3A8402D36F48FEF7CA
:1026C00057F8216A6268BE8312780B88022A9BB28F
:1026D00002BF43F002024FF6F77313400AD0032AF9
:1026E00008BF43F00A0305D0012A03D123F00A03EF
:1026F0001B041B0C0B802B889BB243F001032B8027
:10270000BDE8F0815E48FEF733F89FE74FF4D453FD
:10271000C0F206039E420CDCA8F10203DBB2012BDF
:1027200058D95848FEF724F848F6FF760B233B8427
:10273000C7E70026C5E7544EB0427FF463AF4FF4BD
:102740008053C4F202031A69806942F400121A61CC
:1027500000221A610A214D4A2346FFF711F9002889
:1027600040F08580F0690A21494A474BFFF708F994
:10277000002878D14FF48053C4F20203DA691F2095
:1027800042F40012A021DA61FDF7DAFD2020A02139
:10279000FDF7D6FDD6F814C0376A4CF4805CC6F855
:1027A00014C04CF0100831E73A481E05FDF7E0FF71
:1027B0002523360D3B8484E73748FDF7D9FF4FF4D6
:1027C000A243C0F2252393FBF6F39BB2032B3FF603
:1027D0006EAFE9E7B8F1020F1ED14FF4A24306EB4A
:1027E0004606C0F2252393FBF6F306FB03F24FF4F3
:1027F000A243C0F225239B1A53B94FF4A243C0F25F
:10280000252393FBF6F63605360D46F400468DE794
:102810002248FDF7ADFFF0E7B8F1030F18BF48F607
:10282000FF7683D106EB86064FF4A24306EB8606BD
:10283000C0F2252393FBF6F306FB03F24FF4A24309
:10284000C0F225239B1A53B94FF4A243C0F22523AB
:1028500093FBF6F63605360D46F4404666E710481B
:10286000FDF786FFF0E70F48FDF782FF82E70E488D
:10287000FDF77EFF76E700BFC0490008504A000818
:10288000A8490008084A0008E80D0020F1220008C5
:10289000B1220008F0490008D8490008204A000881
:1028A000384A00089449000880490008AFF30080C6
:1028B0002DE9F04F87B0119F06468846924699460B
:1028C000DDF840B0129D046A4FB1DBF1010338BF5F
:1028D0000023012F98BF43F00103002B56D1B5F11F
:1028E000FF3F05D001A82946374A3346FDF760FF70
:1028F000FDF736FE002383F31188F269B36912688D
:102900001B684FEA48080021A6F81080B160C2F8A1
:102910000CA0C2F80490C3F80CB05F6004E0FDF7AF
:102920001FFE002383F31188228B202312F0020F55
:1029300003D1228812F4007F0CD083F31188FDF7B5
:10294000F7FDB5F1FF3FEAD0049B002BE7D14FF034
:10295000FF3018E083F31188FDF7EAFDB5F1FF3F82
:1029600018D1A388194D9BB243F40073A380228829
:10297000EB6992B242F4807222800220F360FDF78C
:10298000CFFFEB69986A07B0BDE8F08F1048FDF7FC
:10299000EFFEA4E7049B002BD9D0A3880B4D9BB27C
:1029A00043F40073A3802288EB6992B242F48072F0
:1029B00022800220F360FDF7B3FF049B002BE0D0E0
:1029C00001A8FDF72DFFDCE7912200083C0D002057
:1029D0008C4A0008AFF30080AFF30080AFF30080B3
:1029E0004FF46053C4F201039A8992B242F080021C
:1029F0009A817047AFF30080AFF30080AFF300809F
:102A00002DE9F8455C4EFDF70BFED6F85054AF8922
:102A10002C88B5F80480A4B214F00F0FBFB21FFACF
:102A200088F826D014F0080A18BF4FF0800A14F076
:102A3000010F18BF4AF0200A14F0020F18BF4AF025
:102A4000400A14F0040F18BF4AF4807A202383F35D
:102A50001188FDF7A5FDB36848484AEA030A00213A
:102A6000C6F808A0FEF724FAFDF7BAFD002383F3A9
:102A7000118814F4807F3ED114F0200F2BD117F071
:102A8000800F02D014F0800F4ED114F0400F1CD0F4
:102A9000202383F31188FDF783FDB368374843F0A3
:102AA00010030021B360FEF703FAFDF799FD002340
:102AB00083F311884FF6BF7307EA0303AB812B88BA
:102AC00023F040031B041B0C2B80FDF7C9FDFDF711
:102AD000CFFBBDE8F885202383F31188FDF760FD67
:102AE0005FFA88F12448FEF71BFEFDF779FD00230D
:102AF00083F31188C3E7202383F31188FDF750FD8A
:102B0000B3681E4843F400730021B360FEF7D0F9A8
:102B1000FDF766FD002383F311882B8823F480736F
:102B20001B041B0C2B80A7E7202383F31188DFF8FD
:102B30004880FDF735FD08F13000FEF7F1FA002876
:102B4000A4BF80B2A88005DBFDF74AFD002383F314
:102B500011889AE7D8F8083008F1040043F0080318
:102B6000C8F808300021FEF7A3F927F0C00343F0AE
:102B70004003AB81E8E700BF0C0E0020100E0020E0
:102B800010B540F60C64C2F2000442F6E112C0F641
:102B9000000220460021FEF773FD4FF46053C4F29B
:102BA0000103C4F8503410BDAFF30080AFF30080D0
:102BB00038B51D4A037B0C46002908BF1446012B7B
:102BC000054620D021684FF4A242C0F22522D5F854
:102BD0005034B2FBF1F292B21A81A288E0882189C6
:102BE00042F4045242F02C0292B240F0400041F014
:102BF00001019A8180B2002289B2188299821A80DA
:102C00001A889B8838BD094B9842DBD14FF480531A
:102C1000C4F202039A69252042F480429A61C021DD
:102C2000FDF78EFBCEE700BFB04A00080C0E002077
:102C30004FF48053C4F202039A6942F07D029A6114
:102C400003684FF40062C4F20102D36081684FF45C
:102C5000406351604168C4F201031160C2684FF4DF
:102C60008051DA604269C4F201015A60D0F810C0A4
:102C70004FF4A052C3F800C08369C4F20102CB60D4
:102C8000D0F820C04FF4C053C1F804C0D0F81CC025
:102C9000C4F20103C1F800C0416AD160C16A516049
:102CA000816A1160026BDA60826B5A60426B1A6053
:102CB000704700BFAFF30080AFF30080AFF3008038
:102CC000032A70B408BF016102D0042A08BF416121
:102CD000DFF858C000231CF8026008259C461A46FD
:102CE0001C4600E04900120124011B0111F0800F75
:102CF00008BF42F00F024FEA0C1C18BF334311F417
:102D0000004F0CBF44F00F044CEA060C15F1FF35E0
:102D1000E8D141680C4044EA0C0CC0F804C00168DA
:102D20000A4042EA0303036070BC7047C04A0008CF
:102D300008B5FEF7DDFE08BDAFF30080AFF30080FD
:102D4000704700BFAFF30080AFF30080AFF30080A7
:102D500042F2D033C2F20003197C1A6841F001013B
:102D600019745A60704700BFAFF30080AFF3008062
:102D700042F2D033C2F2000393F824105A6941F0B2
:102D8000010183F824109A61704700BFAFF30080FF
:102D90004FF44062094B0121C4F2010251611A7CD7
:102DA0009968C2F38002012A186818BF4FF0FF32F9
:102DB0001218013999601A60704700BFD0230020B3
:102DC0004FF40062094B0221C4F20102516193F8F1
:102DD0002420D969C2F38002012A586918BF4FF034
:102DE000FF3212180139D9615A617047D02300208F
:102DF00010B4024600E01A4690FBF2FC0CEB020312
:102E0000D90F5C1804F00104611A03EBD37301EBD2
:102E100063039A42EFDC531E634518BF134604D187
:102E200002FB1300002818BF1346184610BC704759
:102E300010B5124CE369002B17DD4FF40063C4F2A8
:102E4000010302221A61202383F31188FDF7A8FBF6
:102E50000B480378022B09D0218C0A48FEF7B8FAF8
:102E6000FDF7BEFB002383F3118810BD216A01EB3F
:102E7000D171C1F34F01FEF7ABFAEDE7D02300208B
:102E8000D80D0020C80D0020AFF30080AFF3008004
:102E900010B5124CA368002B17DD4FF44063C4F249
:102EA000010301221A61202383F31188FDF778FBC7
:102EB0000B480378022B09D0A1890A48FEF788FA4B
:102EC000FDF78EFB002383F3118810BDE16801EB51
:102ED000D171C1F34F01FEF77BFAEDE7D02300205B
:102EE000B80D0020A80D0020AFF30080AFF30080E4
:102EF00008B54FF44063C4F201034FF480621A61D5
:102F0000202383F31188FDF74BFB01F0E9F940F62C
:102F1000A850C2F20000FEF793FA40F6B850C2F291
:102F20000000FEF78DFA40F6C850C2F20000FEF72E
:102F300087FA40F6D850C2F20000FEF781FAFDF79A
:102F40004FFB002383F3118808BD00BFAFF300805F
:102F500030B542F2D033C2F200031A685B6983B025
:102F600018141916151214144FEA226E4FEA232C66
:102F70008DF806008DF807108DF800208DF80150AF
:102F80008DF802408DF803E08DF804308DF805C00F
:102F900001F006F90820694601F0C2F803B030BD1F
:102FA0002DE9F04F89B04FF400604FF4406107AA5B
:102FB00007AB48F2A06901320233C4F20100C4F247
:102FC0000101804C804FDFF804A2DFF804820492F4
:102FD000059302900391C0F201094FF0FF317D4843
:102FE000FDF7DEFF4FF0FF3103467A488DF81C30C5
:102FF000FDF7D6FF049A034613704FF0FF31754872
:10300000FDF7CEFF059A034613704FF0FF3171486C
:10301000FDF7C6FF20238DF81F0083F31188FDF70D
:1030200087FA6369079EF61AFDF79AFA002383F37D
:1030300011889E4240F39E80029B1020186101255A
:1030400003994FF400524A611920FDF7C1FD3B6816
:103050004FEA660B99FBF3F30193202383F3118866
:10306000FDF766FA94F82430019865F3820384F83A
:1030700024302062E661FDF773FA002383F31188A0
:10308000019A554891B2FEF7C3F9202383F31188C2
:10309000FDF74EFAE569FDF763FA002383F3118823
:1030A0003B68721B03FB03F3DAF800109345B8BFCB
:1030B000B21A490002FB0130FFF79AFED8F800204F
:1030C00020239042A8BF104699FBF0F083F31188AB
:1030D0000090FDF72DFA00980228B8BF0220206268
:1030E000FDF73EFA002383F311883C481946FDF7AB
:1030F00057FFB0F1FF3F43D1002DC6DC1920FDF78B
:1031000067FD202383F31188FDF712FA237C03F077
:103110000203DBB23BB3FDF723FA002383F31188EC
:10312000202383F31188FDF703FA94F824306FF31A
:103130004103DAB212F0010F84F824300DD012F0FE
:10314000040F0AD042F2D033C2F200035A69184683
:103150009B69D31A436100238361FDF701FA0023C1
:1031600083F3118839E703994FF400520A61FFF79E
:10317000EFFED0E70299102276424A6100255FE710
:103180001548FEF7FDF81648FEF7FAF8029883682E
:1031900013F0020FB2D0022342F2D031C2F200018A
:1031A000436191F82430CA69C3F38003012B0846B8
:1031B000496918BF4FF0FF335B18013AC261636180
:1031C0009CE700BFD0230020040800200008002056
:1031D000080800206C240020C80D00204C2400208A
:1031E000D80D0020AFF30080AFF30080AFF3008074
:1031F0002DE9F04F89B04FF4406007A907AA48F2C3
:10320000A06901310232C4F201007F4C7F4FDFF828
:1032100000A2DFF80082049105920390C0F2010938
:103220004FF0FF317C48FDF7BBFE4FF0FF31034606
:1032300079488DF81C30FDF7B3FE049A03461370ED
:103240004FF0FF317448FDF7ABFE059A034613704B
:103250004FF0FF317048FDF7A3FE20238DF81F00CB
:1032600083F31188FDF764F92368079EF61AFDF7CA
:1032700077F9002383F311889E4240F39D80039BDE
:103280004FF400601861012503994FF400524A6120
:103290001920FDF79DFC3B684FEA660B99FBF3F3A1
:1032A0000293202383F31188FDF742F9237C0298CF
:1032B00065F382032374E060A660FDF751F90023F3
:1032C00083F31188029A554891B2FEF7A1F82023A2
:1032D00083F31188FDF72CF9A568FDF741F9002368
:1032E00083F31188731B9B45ACBF1A46F21A3B68E7
:1032F000DAF8001003FB03F3480002FB0030FFF78D
:1033000077FDD8F8002020239042A8BF104699FBF3
:10331000F0F083F311880190FDF70AF90198022873
:10332000B8BF0220E060FDF71BF9002383F311888A
:103330003B481946FDF734FEB0F1FF3F43D1002D65
:10334000C5DC1920FDF744FC202383F31188FDF729
:10335000EFF894F8243003F00203DBB22BB3FDF74F
:10336000FFF8002383F31188202383F31188FDF7EE
:10337000DFF8237C6FF34103DAB212F0010F2374FC
:103380000DD012F0040F0AD042F2D033C2F2000383
:103390001A6818465B68D31A036000234360FDF780
:1033A000DFF8002383F311883AE703994FF40052C2
:1033B0000A61FFF7CDFDD2E703994FF40062764230
:1033C0004A61002560E71548FDF7DAFF1548FDF76B
:1033D000D7FF0398836813F0010FB2D0012142F2A6
:1033E000D0324161C2F20002137C1046C3F3800365
:1033F000012B9268016818BF4FF0FF335B18013A48
:10340000826023609DE700BFD023002004080020D5
:1034100000080020080800201C240020A80D00201F
:103420004C240020B80D0020AFF30080AFF30080E3
:1034300030B583B00191054602AC202383F3118897
:10344000FDF776F8002D174BCCBF0522002203EBC9
:1034500082031A7C42F21C4542F26C40C2F2000028
:10346000C2F2000502F0FE02C8BF054642F00202A9
:1034700014F8041D28461A74FDF762FD6178284689
:10348000FDF75EFDA1782846FDF75AFDE178284654
:10349000FDF756FDFDF764F8002383F3118803B0B0
:1034A00030BD00BFD0230020AFF30080AFF3008019
:1034B0002DE9F0454FF40065C4F201054FF4406476
:1034C00083B0C4F20104284620210222FFF7F8FB52
:1034D000022220464FF48071FFF7F2FB20460222C1
:1034E0004FF48051FFF7ECFB42F21C4042F24041A6
:1034F0000C220023C2F20000C2F20001FDF710FD11
:1035000042F24C4042F2F83103220023C2F20000A2
:10351000C2F20001FDF704FD42F26C4041F260216D
:103520000C220023C2F20000C2F20001FDF7F8FCF9
:1035300042F2FC3042F23C4100230322C2F200007E
:10354000C2F20001FDF7ECFC204602224FF480514C
:10355000FFF7B6FB284620210222FFF7B1FB02222B
:1035600020464FF48071FFF7ABFB40F6A05044F6C5
:103570006031C2F20000C0F60001FDF791FE40F696
:10358000A85044F62031C2F20000C0F60001FDF759
:10359000C7FE40F6B85044F63031C2F20000C0F623
:1035A0000001FDF7BDFE40F6C85044F64031C2F2BE
:1035B0000000C0F60001FDF7B3FE40F6D85044F617
:1035C0005031C2F20000C0F60001FDF7A9FE012350
:1035D0002046194663610622FFF772FB0223194653
:1035E0006B6140274FF4806A4FF08008284606221E
:1035F0004FF40056FFF764FBC4F814A006226F6175
:103600002046C5F8148051462661FFF759FB28462D
:1036100039460622FFF754FB284641460622FFF7AB
:103620004FFB204631460622FFF74AFB2046062282
:103630004FF40061FFF744FB284610210622FFF7F4
:103640003FFB41F2702043F2F11300263A46C0F6E8
:1036500000034FF40B61C2F200000096FDF780FA00
:1036600041F6203042F6A1733A46C0F600034FF40B
:103670000B61C2F200000096FDF772FA42F2D03000
:10368000C5F81080C2F200002F61C4F814A0027CBB
:1036900090F8243002F0FC0203F0FC0366F382028F
:1036A00066F3820300F11401066046608660C6601E
:1036B000027446618661C66180F8243000F0D8FC4F
:1036C00003B0BDE8F08500BFAFF30080AFF300802A
:1036D00038B504460D46202383F31188FCF728FFF4
:1036E00042F2D033C2F20003002CCCBF05240024E8
:1036F00043F82450FCF734FF002383F3118838BDCE
:1037000070B5202304460D46164683F31188FCF756
:103710000FFF40F6040140F6080240F60003C2F233
:103720000001C2F20002C2F200031E600C601560CC
:10373000FCF716FF002383F3118870BDAFF3008000
:1037400070B520230C4616460028D4BF002501255D
:1037500083F31188FCF7ECFE36B1AB000A4A5B1923
:1037600002EB83035B68336044B1AB005D19064B29
:1037700003EB85052B7C03F001032360FCF7F0FECF
:10378000002383F3118870BDD0230020AFF30080A5
:1037900070B520230028D4BF002401240D4683F3F4
:1037A0001188FCF7C5FEA200084B141903EB840234
:1037B000167CC6F3400615B153F824302B60FCF795
:1037C000CFFE002383F31188304670BDD023002044
:1037D00010B52023044683F31188FCF7A9FE42F2BA
:1037E000D033C2F20003002CCCBF0524002453F8D0
:1037F0002440FCF7B5FE002383F31188204610BD5A
:1038000042F24C4242F2FC33C2F20002C2F2000326
:1038100010B50028D4BF14461C46202383F311881A
:10382000FCF786FE00212046FDF78AFBFCF798FE98
:10383000002383F3118810BDAFF30080AFF3008045
:1038400008B5FDF705FDFCF7EBFD00F061FA00F0AF
:1038500097F900F0F5FC00F003FBFFF729FE0320C9
:1038600000F086FA00F0B4F900F0B2F9FAE700BF10
:1038700008B5007800F09CFC08BD00BFAFF30080E5
:1038800008B500F08DFC08BDAFF30080AFF30080F9
:10389000D0F1010338BF00235C2808BF43F00103C7
:1038A00010B504462BB106485C214FF0FF32FDF7FE
:1038B000FFFB21464FF0FF320148FDF7F9FB10BD39
:1038C0003C0E0020AFF30080AFF30080AFF3008028
:1038D00008B500214FF0FF320148FDF7E9FB08BDB4
:1038E0003C0E0020AFF30080AFF30080AFF3008008
:1038F00070B54578044629460078224600F098FBCA
:103900000028B8BF4042C0B2FFF7C2FF3DB1002659
:10391000A05D0136FFF7BCFFF3B29D42F8D8FFF778
:10392000D7FF70BDAFF30080AFF30080AFF300802E
:1039300030B50A4B83B002AD93E8030045F8080D9B
:103940006C1EADF80410043514F8010FFFF7A0FF4A
:10395000AC42F9D1FFF7BCFF03B030BD404C0008CA
:1039600030B5094A85B001AB07CA83E807005C1E81
:1039700003F10A0514F8010FFFF78AFFAC42F9D1F1
:10398000FFF7A6FF05B030BD484C0008AFF300803C
:1039900008B5024651780078023200F019FB002881
:1039A000B8BF4042C0B2FFF773FFFFF791FF08BDF9
:1039B00010B50078003818BF0120FFF709FF044652
:1039C000C0B2FFF765FFC4F30720FFF761FFC4F340
:1039D0000740FFF75DFF200EFFF75AFFFFF778FF64
:1039E00010BD00BFAFF30080AFF30080AFF30080E5
:1039F000F8B587788179827A90F801E090F805C06F
:103A0000437A0579047A06783F040904120447EAE8
:103A10000E2741EA0C2190F807E090F80BC042EA2B
:103A20000322C378294347EA0600224341EA0E6194
:103A300042EA0C6240EA0360FFF762FEF8BD00BF95
:103A400008B5C178837890F801C00904027941EA89
:103A50000321037841EA0C0141EA0261181E18BFF4
:103A60000120FFF735FE08BDAFF30080AFF3008003
:103A700000B5007883B001A96A46003818BF01205C
:103A8000FFF75EFE9DF80400FFF702FF9DF80000BF
:103A9000FFF7FEFE9DF80100FFF7FAFE9DF8020019
:103AA000FFF7F6FE9DF80300FFF7F2FEFFF710FFA9
:103AB00003B000BDAFF30080AFF30080AFF3008030
:103AC00000B5007883B001A9003818BF0120FFF7C6
:103AD0005FFEC0B2FFF7DCFE9DF80400FFF7D8FEE2
:103AE0009DF80500FFF7D4FE9DF80600FFF7D0FE15
:103AF0009DF80700FFF7CCFEFFF7EAFE03B000BD1C
:103B000008B50078003818BF0120FFF779FE08BD1E
:103B100008B5C178837890F801C00904027941EAB8
:103B20000321037841EA0C0141EA0261181E18BF23
:103B30000120FFF77DFC08BDAFF30080AFF30080EC
:103B400008B5007800F0C4F908BD00BFAFF30080ED
:103B500008B5007800F00CF908BD00BFAFF3008095
:103B600008B56F20FFF794FE6B20FFF791FEFFF77B
:103B7000AFFEFA20FDF72CF800F012F908BD00BFE7
:103B800010B54FF40064C4F20104102220464FF433
:103B90000071FFF795F8204602224FF48061FFF78D
:103BA0008FF8204610224FF40061FFF789F8204675
:103BB0004FF480510222FFF783F840F60C60C2F206
:103BC00000000021FDF784FD10BD00BFAFF30080B1
:103BD00010B529484FF0FF31FDF7E2F9831C012BA6
:103BE0000ED9264AC0B213785BB9C0B92449254C16
:103BF0000B782068012B1ED0022B32D000232360CB
:103C000010BD204C4FF0000C216882F800C04B1C06
:103C10001B4A202BA8BF202350542360F0E75C28C8
:103C200016D0184C16492268531C202BA8BF2023FD
:103C300088542360E4E70128E0DD134A4B1C081890
:103C400013F8011B834202F8011FF9D10023D6E7C4
:103C50000C4C012123681170202BA8BF2023236066
:103C6000CEE74B78094A0F2BC8BF002352F8233008
:103C7000074898470023C2E71C0E00208C24002030
:103C80009424002090240020B3240020004C00083D
:103C9000B4240020AFF30080AFF30080AFF30080C6
:103CA000154B164ADB692DE9F0414FF48054144E50
:103CB000144D9A61C4F201044FF480484FF4005748
:103CC0001148FDF76DF833682B6013F0010F17BF33
:103CD000E268C4F8148082F48042E26013F0020FBC
:103CE00017BFE368676183F40053E360FDF768F88A
:103CF000FA20FCF76DFFE3E73C0D0020604C000864
:103D0000E424002098260020D4240020AFF3008073
:103D100030B54FF48054C4F201044FF480414FF4A5
:103D2000005583B06161062220466561FEF7C8FF39
:103D3000294606222046FEF7C3FF42F2D440C2F2D3
:103D40000000FCF795FF002242F2E84043F6A14351
:103D50000092C0F600034FF4D8714022C2F2000076
:103D6000FCF7FEFE03B030BDAFF30080AFF3008080
:103D700042F2D443C2F2000310B504461846FDF7E0
:103D80000FF842F2E443C2F200031C60FDF718F89A
:103D900010BD00BFAFF30080AFF30080AFF3008031
:103DA000BFF34F8F4FF46D42CEF20002D16804236F
:103DB00001F4E061C0F2FA5341EA0303D360BFF3B8
:103DC0004F8FFEE7AFF30080AFF30080AFF30080CA
:103DD0001E4B1F4ADB692DE9F0474FF400654FF495
:103DE00080549A61C4F201050127C4F201044FF422
:103DF000004618484FF0FF31FDF7D2F800F00109F6
:103E000000F0020A4FF00308B9F1000F17D02F613C
:103E1000BAF1000F17D02661032008F1FF38FCF734
:103E2000D7FE5FFA88F86F614FF4AF706661FCF7F8
:103E3000CFFEB8F1000FDCD0B9F1000FE7D16F6110
:103E4000BAF1000FE7D16661E6E700BF3C0D002044
:103E5000704C000850290020AFF30080AFF30080C1
:103E600030B54FF400604FF480540121C4F20100DA
:103E7000C4F201044FF4004583B04161062265613C
:103E8000FEF71EFF204629460622FEF719FF42F6DE
:103E9000501042F29C6103220023C2F20000C2F2E1
:103EA0000001FDF73DF8002242F2A06043F6D15335
:103EB0000092C0F600034FF42C714022C2F20000C1
:103EC000FCF74EFE03B030BDAFF30080AFF30080CF
:103ED00010B52023044683F31188FCF729FB002C3E
:103EE0000CBF022101210448FDF72AF8FCF738FB3A
:103EF000002383F3118810BD50290020AFF3008008
:103F00002DE9F04F2B4B2C4ADB6989B04FF440660A
:103F10002A4CDFF8ACA0DFF8AC909A610DF11F0BD2
:103F20007D25C4F201064FF400774FF000084FF0F2
:103F3000FF312548FDF734F82378002BF7D09AF8A5
:103F400000C001330193502101235A461F48CDF888
:103F5000009002958DF81FC0FDF7DAFA0346502154
:103F60001A48174ACBB942F6B41CC2F2000C9CF8AE
:103F7000003042F67012C2F2000202EB030E42F66B
:103F8000941CCDF814E0C2F2000C1CF803E0DDF83C
:103F900014C09CF801309E45C9D023787761023364
:103FA000CDF80080CDF804800295FDF7B1FA3761B5
:103FB000BDE700BF3C0D0020704C0008B429002074
:103FC0007029002094290020682E0020E80D002090
:103FD00030B5DFF854C085B08CF8000051B14B1EED
:103FE0000CF10100DBB2C01812F8013B0CF8013FE4
:103FF0008445F9D14FF44064C4F201044FF40075D4
:104000004FF0000C65614B1CCDF800C0CDF804C02A
:1040100050214FF07D0C044A0448CDF808C0FDF74C
:1040200077FA256105B030BD94290020E80D002005
:1040300030B542F6941C40F6E853C2F2000C054637
:10404000C2F200038CF8005085B08E461446184624
:10405000624650214FF07D0C01230094CDF804E01E
:10406000CDF808C0FDF754FA05B030BDAFF30080BD
:1040700070B5274B86B01B784FF0090C06AA254C6B
:1040800002F8013D06460D46CDF804C022484FF027
:104090007D0C502101230094CDF808C0FDF738FABB
:1040A000D0B90122013CA15C00234840C0B210F00D
:1040B000010F1ABFC0F3470080F08C00C0F3470027
:1040C0000133DBB2082BF2D10132D2B2092AEAD194
:1040D000627A124B824201D006B070BDD87893F854
:1040E00002C05A780004197900EB0C20821802EB08
:1040F00001623260D87993F806C0597900041A7ABF
:1041000000EB0C235B1803EB02632B60E4E700BFBA
:104110007029002095290020E80D00209429002016
:1041200070B400282ED01A4EDFF868C03378002211
:104130000133DBB233708C5C0132D5B2A8420CF88B
:1041400003401C46F4D8651C2346BCB10023012162
:104150001CF8010000224340DBB213F0010F1ABF2C
:10416000C3F3470383F08C03C3F347030132D2B296
:10417000082AF2D10131C9B2A142E9DD0CF80530BB
:1041800070BC7047024BDFF80CC01C78DBE700BF47
:10419000B429002070290020AFF30080AFF3008025
:1041A00042F6B413C2F2000300221A70704700BF37
:1041B00000B542F67012C2F2000287B0107040F6ED
:1041C000E85330220021C2F200038DF814207D2232
:1041D0008DF815000091019102921846502105AA10
:1041E0000223FDF795F907B000BD00BFAFF30080D3
:1041F00000B587B030230DF1140C06AA02F8013D7A
:10420000CDF800C04FF0020CCDF804C009484FF0C3
:104210007D0C50210123CDF808C0FDF779F930B9A4
:104220009DF81400F72888BFF02007B000BDF020EB
:10423000FBE700BFE80D0020AFF30080AFF3008084
:1042400030B540F6E85044F680414FF4406483B006
:10425000C4F20104C2F20000C0F60001FDF720F92B
:10426000402111222046FEF72BFD204680211122FD
:10427000FEF726FD4FF400731946062223612046FF
:10428000FEF71EFDFFF7B4FF42F6701E0024054640
:10429000C2F2000E42F6686042F6901142F6B41C7B
:1042A000C2F2000C01222346C2F20000C2F2000159
:1042B0008EF800508CF80040FCF732FE42F6B81041
:1042C00043F60173C0F600034FF496614022C2F238
:1042D00000000094FCF744FC03B030BDAFF3008055
:1042E00042F6686008B50121C2F20000FCF728FE22
:1042F00008BD00BFAFF30080AFF30080AFF30080D4
:1043000069646C65000000006D61696E000000006A
:1043100053562331000000005356233200000000A2
:10432000535623330000000053562334000000008E
:10433000535623350000000053562336000000007A
:104340005356233700000000535623380000000066
:10435000535623390000000053562331300000002B
:10436000535623313100000000000000000000001F
:1043700022636856545365744922282900000000BE
:1043800022636856545265736574492228290000D7
:104390006368565452657365744928292C2023316B
:1043A000000000000000000000000000000000000D
:1043B000636853636852656164794928292C202316
:1043C00031000000737461636B206F766572666CF8
:1043D0006F770000000000000000000000000000F7
:1043E00022636854686443726561746549222829B0
:1043F0000000000022636854686453657450726959
:104400006F7269747922282900000000636854687B
:1044100064526573756D6528292C202331000000D6
:10442000226368546864536C656570222829000013
:104430006368546864457869745328292C202331B3
:104440000000000022636854686457616974222880
:104450002900000063685468645761697428292C36
:1044600020233100000000000000000000000000D8
:104470002263684D7478496E69742228290000000F
:104480002263684D74784C6F636B532228290000B7
:1044900063684D74784C6F636B5328292C2023314B
:1044A0000000000063684D74784C6F636B532829DB
:1044B0002C202332000000002263684D747854726F
:1044C000794C6F636B5322282900000063684D7498
:1044D00078556E6C6F636B28292C20233100000007
:1044E00063684D7478556E6C6F636B28292C20239C
:1044F0003200000063684D7478556E6C6F636B53C7
:1045000028292C202331000063684D7478556E6C87
:104510006F636B5328292C20233200000000000019
:1045200022636845767452656769737465724D617C
:10453000736B222829000000226368457674556E4B
:104540007265676973746572222829002263684561
:1045500076745369676E616C492228290000000057
:104560002263684576745369676E616C222829005E
:1045700022636845767442726F6164636173744D3F
:1045800061736B4922282900226368457674446967
:10459000737061746368222829000000636845769F
:1045A00074446973706174636828292C2023310076
:1045B00022636849515265616454696D656F757411
:1045C000222829002263684F515772697465546923
:1045D0006D656F757422282900000000000000003E
:1045E00022657874537461727422282900000000D7
:1045F000657874537461727428292C20233100006B
:104600002265787453746F7022282900657874537A
:10461000746F7028292C20233100000022657874E3
:104620004368616E6E656C456E61626C6522282917
:10463000000000006578744368616E6E656C456EBD
:1046400061626C6528292C20233100002265787472
:104650004368616E6E656C44697361626C652228A3
:10466000290000006578744368616E6E656C44696A
:104670007361626C6528292C202331000000000042
:104680002270745374617274222829006770745305
:104690007461727428292C20233100002267707401
:1046A00053746F702228290067707453746F7028D8
:1046B000292C20233100000022677074537461722A
:1046C00074436F6E74696E756F7573492228290083
:1046D0006770745374617274436F6E74696E756F32
:1046E00075734928292C202331000000226770743B
:1046F00053746172744F6E6553686F744922282930
:104700000000000067707453746172744F6E6553DB
:10471000686F744928292C202331000022677074A7
:1047200053746F7054696D65724922282900000026
:1047300067707453746F7054696D65724928292CC1
:1047400020233100677074506F6C6C656444656C35
:10475000617928292C20233100000000000000008E
:1047600022693263537461727422282900000000A8
:10477000693263537461727428292C20233100003C
:104780002269326353746F7022282900693263539F
:10479000746F7028292C20233100000022693263B5
:1047A0004765744572726F727322282900000000F9
:1047B000226932634D61737465725472616E736DF8
:1047C000697454696D656F757422282900000000B2
:1047D0006932634D61737465725472616E736D6991
:1047E0007454696D656F757428292C20233100007D
:1047F000226932634D6173746572526563656976CF
:104800006554696D656F7574222829006932634D9E
:1048100061737465725265636569766528292C2019
:104820002331000000000000000000000000000034
:104830002273645374617274222829007364537460
:1048400061727428292C20233100000022736453E4
:10485000746F702228290000736453746F702829C4
:104860002C20233100000000227364496E636F6DB9
:10487000696E674461746149222829002273645279
:10488000657175657374446174614922282900005B
:104890004116000821160008C1150008D1150008AE
:1048A000611600085116000831160008111600089C
:1048B000E1150008000000000000000000000000FA
:1048C00022646D61416C6C6F6361746522282900FC
:1048D00022646D6152656C65617365222829000050
:1048E000646D6152656C6561736528292C202331E4
:1048F00000000000000000000000000000000000B8
:10490000080002400400024000000B001C000240AE
:104910000400024004010C00300002400400024088
:1049200008020D0044000240040002400C030E0087
:10493000580002400400024010040F006C000240C6
:1049400004000240140510008000024004000240F0
:104950001806110000000000000000000000000028
:104960006770745F6C6C645F737461727428292C57
:1049700020233100000000000000000000000000C3
:104980006932635F6C6C645F737461727428292C84
:10499000202331006932635F6C6C645F73746172F1
:1049A0007428292C20233200226932635F6C6C64E6
:1049B0005F7365745F636C6F636B2228290000006E
:1049C0006932635F6C6C645F7365745F636C6F63A3
:1049D0006B28292C202331006932635F6C6C645F83
:1049E0007365745F636C6F636B28292C202332001E
:1049F0006932635F6C6C645F7365745F636C6F6373
:104A00006B28292C202333006932635F6C6C645F50
:104A10007365745F636C6F636B28292C20233400EB
:104A20006932635F6C6C645F7365745F636C6F6342
:104A30006B28292C202335006932635F6C6C645F1E
:104A40007365745F636C6F636B28292C20233600B9
:104A50006932635F6C6C645F7365745F636C6F6312
:104A60006B28292C20233800226932635F6C6C6428
:104A70005F6D61737465725F726563656976655FAA
:104A800074696D656F75742228290000226932638C
:104A90005F6C6C645F6D61737465725F7472616E7C
:104AA000736D69745F74696D656F75742228290070
:104AB00000C20100000000400000000000000000F3
:104AC0000402040808000307080808080808080882
:104AD0000B0F0000000000000000000000000000BC
:104AE000FFFFFFFF4444444444444444FFFFFFFFAE
:104AF0004444444444444444FFFFFFFF444444448A
:104B000044444444FFFFFFFF444444444444444479
:104B1000FFFFFFFF88888888888888880000000059
:104B2000A0860100912E0008000000000000000097
:104B3000A0860100912D0008000000000000000088
:104B4000A0860100312E00080000000000000000D7
:104B5000A0860100C12D0008000000000000000038
:104B60000000000000000000000000000000000045
:104B70000000000000000000000000000000000035
:104B8000000000000000000006000000712D000879
:104B90000000000000000000000000000000000015
:104BA00006000000F12E00080000000000000000D8
:104BB00000000000000000000000000000000000F5
:104BC00006000000512D0008000000000000000059
:104BD00000000000000000000000000000000000D5
:104BE00000000000000000000000000000000000C5
:104BF00000000000000000000000000001000100B3
:104C00006139000831390008613B0008513B000858
:104C1000413B0008113B0008013B0008C13A000875
:104C2000713A0008413A0008F1390008B13900082A
:104C300091390008F13800088138000871380008FF
:104C4000302E302E310000006C637530332D312E44
:104C5000302E3000000000000000000000000000C6
:104C60006C64000000000000000000000000000074
:104C70007368000000000000000000000000000059
:0C4C800001000000A086010001000000FF
:0C4C9000E015000060090000401F00005B
:0400000508000111DD
:00000001FF
