:020000040800F2
:10000000000400201101000801020008010200089C
:1000100001020008010200080102000801020008B4
:100020000102000801020008010200085102000854
:100030000102000801020008010200082102000874
:1000400001020008812A00080102000801020008DC
:10005000010200080102000841270008812700086A
:10006000C127000801280008412800088121000854
:10007000E121000841220008A12200080123000814
:1000800061230008C12300080102000801020008E2
:10009000010200080102000801020008812800088E
:1000A00001020008512B00080102000801020008AB
:1000B000A1300008C130000801020008612F0008CB
:1000C000812F000801020008010200080102000857
:1000D00001020008D13700080102000801020008EF
:0C00E0007129000801020008C12A000874
:1000F000704700BFAFF30080AFF30080AFF3008024
:10010000FEE700BFAFF30080AFF30080AFF30080E5
:1001100072B640F60004C2F2000484F309884FF07E
:10012000020484F31488BFF36F8F40F20004C2F21C
:10013000000440F20045C2F2000504E04FF05533E0
:10014000236004F10404AC42F8D340F20044C2F24C
:10015000000440F60005C2F2000504E04FF05533FC
:10016000236004F10404AC42F8D303F081FC44F2B0
:100170005035C0F6000540F60004C2F2000405E068
:100180002B68236004F1040405F1040540F63003F4
:10019000C2F200039C42F3D340F63004C2F20004E2
:1001A00041F24445C2F2000504E04FF00003236031
:1001B00004F10404AC42F8D3FFF79AFF40F2EC04D8
:1001C000C0F6000403E02368984704F1040440F2F9
:1001D000EC03C0F600039C42F5D303F059FC40F257
:1001E000EC04C0F6000403E02368984704F104041B
:1001F00040F2EC03C0F600039C42F5D3FFF780FF0A
:10020000FEE700BFAFF30080AFF30080AFF30080E4
:1002100072B6FEE7AFF30080AFF30080AFF300806B
:1002200008B500F0D5FA4FF0200383F3118800F0F1
:100230008FFA00F0CDF900F0ABFA4FF0000383F332
:10024000118800F0F5FA00F043F808BDAFF3008024
:1002500010B483B0EFF309840194019B03F12003F0
:100260000193019B83F309884FF0000383F3118806
:1002700003B010BC704700BFAFF30080AFF3008045
:1002800008B54FF46D43CEF200034FF000029A60C0
:100290004FF46D43CEF200034FF00002C0F2FA5269
:1002A000DA604FF007004FF0100100F0F1F84FF066
:1002B0000A004FF4007100F0EBF84FF00B004FF024
:1002C000800100F0E5F808BDAFF30080AFF30080D7
:1002D00010B483B04FF0200383F311884FF46D43C3
:1002E000CEF200035B6803F40063002B47D0EFF30A
:1002F00009840194019BA3F120030193019B83F3E3
:100300000988019B4FF08072DA6140F65C53C2F2BB
:1003100000039B69002B11D040F65C53C2F200032E
:100320001B689A6840F65C53C2F20003DB699B6865
:100330009A4294BF00230123DBB210E040F65C53E5
:10034000C2F200031B689A6840F65C53C2F20003D5
:10035000DB699B689A4234BF00230123DBB2002B88
:1003600006D0019A40F29133C0F6000393610AE08F
:10037000019A40F29C33C0F60003936103E04FF012
:10038000000383F3118803B010BC7047AFF3008003
:1003900000F09EF900F094FD00F0BAF900DF00BF14
:1003A00003460A462DE9F04FC2F80CD0D3F80CD022
:1003B000BDE8F08FAFF30080AFF30080AFF30080B3
:1003C00008B500F0A5F94FF0000383F31188284623
:1003D000A04700F0DDFE08BDAFF30080AFF3008062
:1003E00084B001900091019B03F003034FEAC30323
:1003F00003934FF46143CEF20003019A4FEA920057
:100400004FF46142CEF2000201994FEA910101F1ED
:10041000C00152F82110039A4FF0FF0C0CFA02F2BF
:100420006FEA020201EA0201039ADDF800C00CFA49
:1004300002F241EA020100F1C00243F822104FF437
:100440006143CEF20003019A4FEA5212019901F082
:100450001F014FF0010000FA01F102F1600243F8C0
:1004600022104FF46143CEF20003019A4FEA521278
:10047000019901F01F014FF0010000FA01F143F86A
:10048000221004B0704700BFAFF30080AFF30080CC
:1004900084B001900091019B03F003034FEAC30372
:1004A00003934FF46D43CEF20003019A4FEA92009A
:1004B0004FF46D42CEF2000201994FEA910101F131
:1004C000060152F82110039A4FF0FF0C0CFA02F2C9
:1004D0006FEA020201EA0201039ADDF800C00CFA99
:1004E00002F241EA020100F1060243F8221004B0D0
:1004F000704700BFAFF30080AFF30080AFF3008020
:1005000082B0019040F65C53C2F20003DA6943F610
:100510002063C0F600039361FEE700BFAFF30080E5
:1005200000B583B0FFF7ACFE00F03AFB00F050FAE4
:1005300001F026FB00F0DCF940F6F000C2F200000A
:100540004FF0400100F014FD024640F65C53C2F249
:100550000003DA6140F65C53C2F20003DB694FF03E
:10056000010283F8202040F65C53C2F20003DA69EE
:1005700040F20043C2F20003D36100F091F84FF063
:10058000000383F3118862B640F65C53C2F20003A5
:10059000DA6943F62863C0F60003936140F2015321
:1005A000C0F600034FF00002009240F63000C2F2A5
:1005B00000004FF0C0014FF0010200F089FD03B0D0
:1005C00000BD00BFAFF30080AFF30080AFF3008049
:1005D00000B583B000F05CF940F65C53C2F2000352
:1005E0009B69002B0BDD40F65C53C2F200039B6954
:1005F00003F1FF3240F65C53C2F200039A6140F609
:100600005C53C2F20003DB695A6A02F101025A62CA
:1006100040F64C53C2F20003DB6803F1010240F6DE
:100620004C53C2F20003DA6040F64C53C2F20003AE
:100630001B681A4640F64C53C2F200039A422DD072
:1006400040F64C53C2F200031B689A6802F1FF3275
:100650009A6019E0019BDB680093019B4FF0000258
:10066000DA60019B1A6840F64C53C2F200035360F3
:10067000019B1A6840F64C53C2F200031A60019BBA
:100680001A69009B1046984740F64C53C2F200038B
:100690001B680193019B9B68002BDBD003B000BD5E
:1006A00008B540F63813C2F200031B68002B06D1D0
:1006B00040F63C13C2F200031B68002B05D043F642
:1006C0004060C0F6000000F073F908BDAFF3008091
:1006D00008B540F63813C2F200031B68002B06D1A0
:1006E00040F63C13C2F200031B68002B05D043F612
:1006F0004860C0F6000000F05BF940F63C13C2F21F
:1007000000034FF001021A6008BD00BFAFF3008084
:1007100008B540F63813C2F200031B68002B06D15F
:1007200040F63C13C2F200031B68002B05DC43F6C5
:100730005060C0F6000000F03BF940F63C13C2F2F6
:1007400000034FF000021A6008BD00BFAFF3008045
:1007500008B540F63813C2F200031B68002B06DD13
:1007600040F63C13C2F200031B68002B05D043F691
:100770005860C0F6000000F01BF940F63C13C2F2CE
:1007800000034FF001021A6008BD00BFAFF3008004
:1007900008B540F63813C2F200031B68002B06DDD3
:1007A00040F63C13C2F200031B68002B05DC43F645
:1007B0006060C0F6000000F0FBF840F63C13C2F2A7
:1007C00000034FF000021A6008BD00BFAFF30080C5
:1007D00008B54FF0200383F3118840F63813C2F2B6
:1007E00000031B68002B06DB40F63C13C2F200033B
:1007F0001B68002B05D043F66860C0F6000000F0CF
:10080000D7F840F63813C2F200031B6803F1010267
:1008100040F63813C2F200031A604FF0000383F36E
:10082000118808BDAFF30080AFF30080AFF3008004
:1008300008B54FF0200383F3118840F63813C2F255
:1008400000031B68002B06DD40F63C13C2F20003D8
:100850001B68002B05D043F67060C0F6000000F066
:10086000A7F840F63813C2F200031B6803F1FF3209
:1008700040F63813C2F200031A604FF0000383F30E
:10088000118808BDAFF30080AFF30080AFF30080A4
:1008900008B540F63813C2F200031B68002B06DBD4
:1008A00040F63C13C2F200031B68002B05DC43F644
:1008B0007860C0F6000000F07BF808BDAFF3008060
:1008C00008B540F63813C2F200031B68002B06D1AE
:1008D00040F63C13C2F200031B68002B05DC43F614
:1008E0008060C0F6000000F063F808BDAFF3008040
:1008F00040F64013C2F200034FF040021A6040F687
:100900004013C2F20003014A5A60704748090020B0
:1009100082B0019040F64013C2F200035A6840F6DC
:100920004C53C2F20003DB68136040F64013C2F27E
:1009300000035A6840F65C53C2F20003DB6953605F
:1009400040F64013C2F200035B68019A926A9A6013
:1009500040F64013C2F200035B68019A92F820202F
:100960001A7340F64013C2F200035B6803F11002F1
:1009700040F64013C2F200035A6040F64013C2F240
:1009800000035A68054B9A4205D340F64013C2F261
:100990000003034A5A6002B0704700BF480D0020B0
:1009A00048090020AFF30080AFF30080AFF3008070
:1009B00000B583B0019040F64853C2F20003019A9B
:1009C0001A60FFF725FC03B000BD00BFAFF3008045
:1009D00040F64C52C2F2000240F64C53C2F2000301
:1009E0005A6040F64C53C2F200035A6840F64C532A
:1009F000C2F200031A6040F64C53C2F200034FF0FB
:100A0000FF329A6040F64C53C2F200034FF00002EE
:100A1000DA607047AFF30080AFF30080AFF300807F
:100A200000B587B00390029101920093FFF730FF69
:100A3000039B002B05D0019B002B02D0029B002BB7
:100A400005D143F69060C0F60000FFF7B1FF039BAD
:100A5000009A1A61039B019ADA6040F64C53C2F285
:100A600000031B68059308E0059B9B68029AC3EB93
:100A700002030293059B1B680593059B9A68029BE2
:100A80009A42F1D3039B059A1A60039B1B685A682C
:100A9000039B5A60039B5B68059A03995160059A12
:100AA00052681A60039B029A9A60059A40F64C536A
:100AB000C2F200039A4206D0059B9A68029BC3EBE0
:100AC0000202059B9A6007B000BD00BFAFF3008033
:100AD00000B583B00190FFF7DBFE019B002B05D131
:100AE00043F6A060C0F60000FFF762FF019BDB68E1
:100AF000002B05D143F6B060C0F60000FFF758FFA9
:100B0000019B1A6840F64C53C2F200039A4208D087
:100B1000019B1B68019A12689168019A92680A44C5
:100B20009A60019B5B68019A12681A60019B1B68BE
:100B3000019A52685A60019B4FF00002DA6003B0DC
:100B400000BD00BFAFF30080AFF30080AFF30080C3
:100B500084B00190019B1B680393039B1A68019B5F
:100B60001A60019B1B68019A5A60039B184604B0E7
:100B7000704700BFAFF30080AFF30080AFF3008099
:100B800082B00190019B5B68019A12681A60019B18
:100B90001B68019A52685A60019B184602B0704760
:100BA00040F65C52C2F2000240F65C53C2F200030F
:100BB0005A6040F65C53C2F200035A6840F65C5338
:100BC000C2F200031A6040F65C53C2F200034FF019
:100BD00000029A6040F65C53C2F200034FF0140228
:100BE0009A6140F65C52C2F2000240F65C53C2F2D7
:100BF00000035A6140F65C53C2F200035A6940F6A2
:100C00005C53C2F200031A61704700BFAFF300806B
:100C100000B585B00190019B93F82030002B04D0E3
:100C2000019B93F820300E2B05D143F6D060C0F61F
:100C30000000FFF7BDFE019B4FF0000283F820206B
:100C400040F65C53C2F200030393039B1B680393BB
:100C5000039B9A68019B9B689A42F6D2019B039A78
:100C60001A60039B5A68019B5A60019B5B68039A58
:100C700001995160039A52681A60019B184605B0A9
:100C800000BD00BFAFF30080AFF30080AFF3008082
:100C900000B585B003468DF80730FFF711FE40F62A
:100CA0005C53C2F20003DB690393039B9DF80720AA
:100CB00083F8202040F65C53C2F200034FF0140288
:100CC0009A6140F65C50C2F20000FFF741FF024615
:100CD00040F65C53C2F20003DA6140F65C53C2F2A4
:100CE0000003DB694FF0010283F820200398FFF72F
:100CF0000FFE6B46A3F12402039BDB699A4205D2E7
:100D000043F6E460C0F60000FFF752FE40F65C5385
:100D1000C2F20003DB6918460399FFF741FB05B0F7
:100D200000BD00BFAFF30080AFF30080AFF30080E1
:100D300000B585B00190019B0393039B93F820308D
:100D40000D2B28D801A252F823F000BFA70D0008F0
:100D5000970D0008970D0008850D0008970D0008F5
:100D6000910D0008970D0008970D0008970D0008D9
:100D7000970D0008970D0008970D0008970D0008C3
:100D8000910D0008039B9B6A9A6802F101029A6028
:100D90000398FFF7F5FE039B4FF0FF329A6203982A
:100DA000FFF736FF00E000BF05B000BDAFF30080E5
:100DB00000B589B0034600918DF80730FFF780FD3C
:100DC000009BB3F1FF3F1AD040F65C53C2F2000320
:100DD000DB6903AA1046009940F63152C0F60002C2
:100DE000FFF71EFE9DF807301846FFF751FF069BE0
:100DF000002B0AD003AB1846FFF76AFE06E09DF809
:100E000007301846FFF744FF00E000BF40F65C5390
:100E1000C2F20003DB699B6A184609B000BD00BF3F
:100E200000B585B001900091FFF74AFD019B009A43
:100E30009A62019B9A6840F65C53C2F20003DB6938
:100E40009B689A4203D80198FFF7E2FE2FE040F634
:100E50005C53C2F20003DB691846FFF7D9FE034674
:100E6000039340F65C53C2F200034FF014029A6100
:100E700040F65C53C2F20003019ADA61019B4FF025
:100E8000010283F820200398FFF742FD6B46A3F18F
:100E90002402039BDB699A4205D243F6E460C0F664
:100EA0000000FFF785FD01980399FFF779FA05B077
:100EB00000BD00BFAFF30080AFF30080AFF3008050
:100EC00000B583B040F65C53C2F200034FF0140249
:100ED0009A6140F65C53C2F20003DB69019340F66D
:100EE0005C50C2F20000FFF733FE024640F65C534E
:100EF000C2F20003DA6140F65C53C2F20003DB6920
:100F00004FF0010283F820200198FFF781FE01983D
:100F1000FFF7FEFC6B46A3F12402019BDB699A42BA
:100F200005D243F6E460C0F60000FFF741FD40F64D
:100F30005C53C2F20003DB6918460199FFF730FAEF
:100F400003B000BDAFF30080AFF30080AFF30080CB
:100F500084B00190019B1B680393039B1A68019B5B
:100F60001A60039B184604B0704700BFAFF30080BF
:100F700082B001900091019B009A9A60019B4FF012
:100F8000020283F82020019B4FF0000283F8212009
:100F9000019B009A5A64019B4FF000021A64019B66
:100FA0004FF00002DA63019B4FF000025A62019B8E
:100FB0004FF000029A6140F65C53C2F20003019ABE
:100FC000136140F65C53C2F200035A69019B5A61F7
:100FD000019B5A6940F65C53C2F2000301995961C2
:100FE00040F65C53C2F200035B691361019B03F19D
:100FF0002C031A46019BDA62019B03F130031A4667
:10100000019B5A63019B5A6B019B1A63019B03F17D
:101010004802019BDA61019B184602B0704700BF8D
:1010200084B00390029113468DF8073007E0039BCC
:101030009DF807201A70039B03F101030393039AA1
:10104000029B9A42F3D304B0704700BFAFF3008015
:1010500000B587B00390029101920093039B059322
:10106000FFF716FC039B002B08D0029BAF2B05D982
:10107000019B7F2B02D8009B002B05D143F600700B
:10108000C0F60000FFF794FC039A029BA3F124032F
:101090001A44059BDA60059BDB68009A1A60059B81
:1010A000DB68089A5A60059BDA6840F2C133C0F6E3
:1010B0000003136205980199FFF75AFF034618468B
:1010C00007B000BDAFF30080AFF30080AFF3008046
:1010D00000B589B00590049103920293059A059B8F
:1010E00003F14803104619464FF0FF02FFF798FF3F
:1010F000059B03F148020599049B0B4410461946D1
:101100004FF05502FFF78CFF4FF0200383F3118857
:10111000FFF7DEFA0A9B009305980499039A029B55
:10112000FFF796FF0346079307984FF00001FFF77C
:1011300077FEFFF7EDFA4FF0000383F31188079B6A
:10114000184609B000BD00BFAFF30080AFF30080C8
:1011500000B583B00190019B002B05D143F6407090
:10116000C0F60000FFF724FC4FF0200383F3118842
:10117000FFF7AEFA4FF006000199FFF719FEFFF7EF
:10118000C7FA4FF0000383F3118803B000BD00BF1E
:1011900000B583B001904FF0200383F31188FFF76F
:1011A00097FA019800F004F803B000BDAFF3008097
:1011B00000B585B0019040F65C53C2F20003DB69D4
:1011C0000393039B019A9A6209E0039B03F12C03AA
:1011D0001846FFF7BDFE03461846FFF719FD039BAF
:1011E000DA6A039B03F12C039A42EED1039B93F836
:1011F000213003F00303002B09D1039B5B69039AA1
:1012000012691A61039B1B69039A52695A614FF074
:101210000E00FFF73DFD43F65070C0F60000FFF7EB
:10122000C7FB05B000BD00BFAFF30080AFF3008087
:1012300084B001900091009B0393039B1B68039370
:10124000009B039A9A4205D0039B9A68019B9B6876
:101250009A42F2D2019B039A1A60039B5A68019B3F
:101260005A60019B5B68039A01995160039A526826
:101270001A6004B0704700BFAFF30080AFF3008086
:1012800084B00190019B1B680393039B1A68019B28
:101290001A60019B1B68019A5A60039B184604B0B0
:1012A000704700BFAFF30080AFF30080AFF3008062
:1012B00082B00190019B5B68019A12681A60019BE1
:1012C0001B68019A52685A60019B184602B0704729
:1012D00000B583B00190019B002B05D143F69070BF
:1012E000C0F60000FFF764FB019B1A46019B5A60A1
:1012F000019B5A68019B1A60019B4FF000029A60A3
:1013000003B000BDAFF30080AFF30080AFF3008007
:1013100000B583B001904FF0200383F31188FFF7ED
:10132000D7F9019800F00CF8FFF7F2F94FF000033D
:1013300083F3118803B000BDAFF30080AFF30080EA
:1013400000B585B0019040F65C53C2F20003DB6942
:101350000293FFF7B5FA019B002B05D143F6A0706D
:10136000C0F60000FFF724FB019B9B68002B62D0B6
:10137000019B9B68039335E0029B9A68039B9A60EC
:10138000039B93F82030042B04D0052B11D0002BA5
:101390001AD02DE00398FFF78BFF0246039B9B6A50
:1013A00010461946FFF744FF039B9B6A9B68039313
:1013B00018E00398FFF77CFF0246039B9B6A1046E8
:1013C0001946FFF735FF0CE0039B4FF0010283F84D
:1013D00020200398FFF76CFF03461846FFF718FC20
:1013E00000BF05E0039B9A68029B9B689A42C3D3A7
:1013F000019B02981946FFF71BFF029B019A9A6214
:101400004FF00400FFF744FC019B9A68029B9A424C
:1014100005D043F6B070C0F60000FFF7C9FA029B92
:101420001A6C019B9A4210D043F6C470C0F60000BB
:10143000FFF7BEFA09E0019B029A9A60029B1A6CC0
:10144000019BDA60029B019A1A6405B000BD00BFDF
:1014500000B587B040F65C53C2F20003DB6903932A
:101460004FF0200383F31188FFF732F9039B1B6CC5
:10147000002B05D143F6EC70C0F60000FFF798FA98
:10148000039B1B6C9A68039B9A4205D044F20000B0
:10149000C0F60000FFF78CFA039B1B6C0293029BC3
:1014A000DA68039B1A64029B1A68029B9A4234D042
:1014B000039B5B6C0493039B1B6C059311E0059BE2
:1014C0001A68059B9A4209D0059B1B689A68049B81
:1014D0009A4203D9059B1B689B680493059BDB68B4
:1014E0000593059B002BEAD1039B049A9A60029B0B
:1014F0001846FFF7C5FE03460193029B019A9A60C6
:10150000019B1A6C029BDA60019B029A1A64019893
:101510004FF00001FFF784FC03E0029B4FF0000254
:101520009A60FFF7F5F84FF0000383F31188029BF0
:10153000184607B000BD00BFAFF30080AFF30080D6
:1015400000B583B001900091FFF7A2F9019B002B39
:1015500005D144F27C00C0F60000FFF729FA019B98
:10156000DA6B009B42EA0302019BDA63019B93F86A
:101570002030082B07D1019BDA6B019B9B6A02EAA2
:101580000303002B0ED1019B93F82030092B10D1BF
:10159000019BDA6B019B9B6A02EA0302019B9B6A37
:1015A0009A4206D10198FFF733FB03464FF0000241
:1015B0009A6203B000BD00BFAFF30080AFF30080BC
:1015C00000B585B001900091FFF762F9019B002BF7
:1015D00005D144F29000C0F60000FFF7E9F9019B45
:1015E0001B6803930DE0039B5A68039B9968009B5B
:1015F00041EA030310461946FFF7A2FF039B1B684D
:101600000393019B039A9A42EDD105B000BD00BF40
:1016100082B001900091009A019B1A60009B5A6869
:10162000019B5A60019B5B68009A01995160009A86
:1016300052681A6002B07047AFF30080AFF30080C9
:1016400084B00190019B1B680393039B1A68019B64
:101650001A60019B1B68019A5A60039B184604B0EC
:10166000704700BFAFF30080AFF30080AFF300809E
:1016700000B583B001900091009B002B02D14FF088
:10168000FF3316E040F65C53C2F20003DB69019AB7
:101690009A6240F65C53C2F20003DA69019B10467D
:1016A0001946FFF7B5FF4FF00D000099FFF780FBDB
:1016B0000346184603B000BDAFF30080AFF30080CF
:1016C00084B00390029101920093039B1A46039BFE
:1016D0005A60039B5A68039B1A60039B4FF00002F9
:1016E0009A60039B029A5A61039B5A69039B9A6111
:1016F000039B9A69039BDA60029A019B1A44039B3D
:101700001A61039B009ADA6104B07047AFF300805E
:1017100000B583B001900B468DF80330FFF7B8F8A1
:10172000019B5A69019B9B699A4206D1019B9B6868
:10173000002B02D06FF003032BE0019B9B6803F1A9
:101740000102019B9A60019B5B699DF803201A705E
:1017500003F10102019B5A61019B5A69019B1B69BC
:101760009A4203D3019BDA68019B5A61019B1A6874
:10177000019B9A420BD0019B1846FFF761FF03467D
:101780001846FFF745FA03464FF000029A624FF001
:101790000003184603B000BDAFF30080AFF3008034
:1017A00000B585B0019000914FF0200383F31188BC
:1017B000FEF78EFF019BDB69002B15D0019BDB69D7
:1017C0000198984711E001980099FFF751FF0346EF
:1017D0000393039B002B08DAFEF79AFF4FF00003F8
:1017E00083F31188039B25E000BF019B9B68002BBE
:1017F000E9D0019B9B6803F1FF32019B9A60019B3A
:101800009B691A788DF80B2003F10102019B9A6104
:10181000019B9A69019B1B699A4203D3019BDA6879
:10182000019B9A61FEF774FF4FF0000383F3118868
:101830009DF80B30184605B000BD00BFAFF3008027
:1018400000B587B00390029101920093039BDB697E
:1018500004934FF000030593019B002B05D144F244
:10186000D000C0F60000FFF7A3F84FF0200383F389
:101870001188FEF72DFF049B002B12D0049B0398C8
:1018800098470FE003980099FFF7F2FE0346002BFC
:1018900008D0FEF73DFF4FF0000383F31188059B4E
:1018A0003BE000BF039B9B68002BEBD0039B9B6836
:1018B00003F1FF32039B9A60039B9B691978029A9C
:1018C0001170029A02F10102029203F10102039BDC
:1018D0009A61039B9A69039B1B699A4203D3039BFA
:1018E000DA68039B9A61FEF713FF4FF0000383F35E
:1018F0001188059B03F101030593019B03F1FF335D
:101900000193019B002B01D1059B06E04FF02003C2
:1019100083F31188FEF7DCFEADE7184607B000BD83
:1019200084B00390029101920093039B1A46039B9B
:101930005A60039B5A68039B1A60039B019A9A6042
:10194000039B029A5A61039B5A69039B9A61039B0A
:101950009A69039BDA60029A019B1A44039B1A61FD
:10196000039B009ADA6104B0704700BFAFF30080B8
:1019700000B587B003900B4601928DF80B304FF005
:10198000200383F31188FEF7A3FE10E0039801996A
:10199000FFF76EFE03460593059B002B07DAFEF763
:1019A000B7FE4FF0000383F31188059B2CE0039BE7
:1019B0009B68002BEAD0039B9B6803F1FF32039BDB
:1019C0009A60039B5B699DF80B201A7003F101027A
:1019D000039B5A61039B5A69039B1B699A4203D379
:1019E000039BDA68039B5A61039BDB69002B03D0DE
:1019F000039BDB6903989847FEF78AFE4FF00003CC
:101A000083F311884FF00003184607B000BD00BFF4
:101A100000B585B00190FEF73BFF019B5A69019B21
:101A20009B699A4206D1019B9B68002B02D06FF004
:101A300002032BE0019B9B6803F10102019B9A606A
:101A4000019B9B691A788DF80F2003F10102019B1D
:101A50009A61019B9A69019B1B699A4203D3019B7E
:101A6000DA68019B9A61019B1A68019B9A420BD02C
:101A7000019B1846FFF7E4FD03461846FFF7C8F838
:101A800003464FF000029A629DF80F30184605B0E9
:101A900000BD00BFAFF30080AFF30080AFF3008064
:101AA00000B587B00390029101920093039BDB691C
:101AB00004934FF000030593019B002B05D144F2E2
:101AC000E400C0F60000FEF773FF4FF0200383F33D
:101AD0001188FEF7FDFD0EE003980099FFF7C8FDA1
:101AE0000346002B07D0FEF713FE4FF0000383F3ED
:101AF0001188059B41E0039B9B68002BECD0039B66
:101B00009B6803F1FF32039B9A60039B5B69029A17
:101B100012781A7003F10102039B5A61029B03F1D0
:101B200001030293039B5A69039B1B699A4203D3E7
:101B3000039BDA68039B5A61049B002B02D0049B31
:101B400003989847FEF7E4FD4FF0000383F31188F4
:101B5000059B03F101030593019B03F1FF330193FF
:101B6000019B002B01D1059B07E04FF0200383F37D
:101B70001188FEF7ADFD00BFBDE7184607B000BDF8
:101B800041F24443C2F2000303F1070323F00703C9
:101B90001A4640F67C53C2F200031A6045F2000375
:101BA000C2F2000323F007031A4640F68053C2F244
:101BB00000031A60704700BFAFF30080AFF30080EE
:101BC00008B500F0ADFC44F20030C0F6000001F0B2
:101BD00057FE00F00DF800F023F800F039F800F09F
:101BE0004FF800F015FA01F04BFF08BDAFF300808D
:101BF00008B500F085FF08BDAFF30080AFF30080AB
:101C000082B00190019B4FF001021A70019B4FF0CE
:101C100000025A6002B07047AFF30080AFF300805B
:101C200008B500F0A5FF08BDAFF30080AFF300805A
:101C300082B00190019B4FF001021A70019B4FF09E
:101C400000025A6002B07047AFF30080AFF300802B
:101C500008B501F0A5F908BDAFF30080AFF300802F
:101C600082B00190019B4FF001021A70019B4FF06E
:101C700000025A6002B07047AFF30080AFF30080FB
:101C800008B501F02DFA08BDAFF30080AFF3008076
:101C900082B00190019B4FF001021A70019B4FF03E
:101CA00000025A6002B07047AFF30080AFF30080CB
:101CB00000B583B001900091019B002B02D0009BE6
:101CC000002B05D144F20010C0F60000FEF770FEB4
:101CD0004FF0200383F31188FEF7FAFC019B1B7879
:101CE000012B09D0019B1B78022B05D044F2101068
:101CF000C0F60000FEF75CFE019B009A5A60009B54
:101D00009A88019B1A81019801F00AFA019B4FF011
:101D100002021A70FEF7FCFC4FF0000383F31188F7
:101D200003B000BDAFF30080AFF30080AFF30080DD
:101D300000B583B001900B46ADF80230019B002B3B
:101D400005D144F23C10C0F60000FEF731FE4FF022
:101D5000200383F31188FEF7BBFC019B1B78022B49
:101D600005D044F25010C0F60000FEF721FE019BA2
:101D7000BDF802201A81019B1B69BDF8022002F107
:101D8000FF3292B2DA62FEF7C3FC4FF0000383F336
:101D9000118803B000BD00BFAFF30080AFF3008037
:101DA00000B583B0019013460A468DF80320ADF8C4
:101DB0000030019B002B03D09DF80330032B05D985
:101DC00044F26810C0F60000FEF7F2FD4FF0200369
:101DD00083F31188FEF77CFC019B1B78022B05D056
:101DE00044F28010C0F60000FEF7E2FD9DF80320EB
:101DF000BDF80030019811461A4601F0E1FAFEF7ED
:101E000087FC4FF0000383F3118803B000BD00BFCF
:101E100000B583B001900B468DF80330019B002B79
:101E200003D09DF80330032B05D944F26810C0F6A7
:101E30000000FEF7BDFD4FF0200383F31188FEF78D
:101E400047FC019B1B78022B05D044F29810C0F68A
:101E50000000FEF7ADFD9DF803300198194601F032
:101E6000FFFAFEF755FC4FF0000383F3118803B02F
:101E700000BD00BFAFF30080AFF30080AFF3008080
:101E800000B585B0039002910192039B03F13003EA
:101E900018460299019A4FF0FF33FFF701FE0346FF
:101EA000184605B000BD00BFAFF30080AFF300805F
:101EB00000B585B0039002910192039B03F11003DA
:101EC00018460299019A4FF0FF33FFF7B9FC034619
:101ED000184605B000BD00BFAFF30080AFF300802F
:101EE00082B00190019B9B6B002B14BF0023012348
:101EF000184602B0704700BFAFF30080AFF3008018
:101F000082B00190019B9B69002B14BF0023012329
:101F1000184602B0704700BFAFF30080AFF30080F7
:101F200000B585B003900B4601928DF80B30039BF2
:101F300003F130029DF80B3010461946019AFFF765
:101F400017FD0346184605B000BD00BFAFF3008083
:101F500000B583B001900091019B03F11003184676
:101F60000099FFF71DFC0346184603B000BD00BFF3
:101F700000B585B00390029101920093039B03F199
:101F8000300318460299019A009BFFF789FD03462A
:101F9000184605B000BD00BFAFF30080AFF300806E
:101FA00000B585B00390029101920093039B03F169
:101FB000100318460299019A009BFFF741FC034663
:101FC000184605B000BD00BFAFF30080AFF300803E
:101FD00000B585B001904FF0200383F31188FEF720
:101FE00077FB019B9B680393019B4FF000029A6073
:101FF000FEF78EFB4FF0000383F31188039B184616
:1020000005B000BDAFF30080AFF30080AFF30080F8
:1020100008B501F0EDFB08BDAFF30080AFF3008021
:1020200000B585B0039002910192039A44F24023D7
:10203000C0F600031360039B03F104031A46039BDD
:102040005A60039B4FF000029A60039B4FF001021D
:102050001A73039B03F11002039B03F15003104614
:1020600019464FF40072029BFFF72AFB039B03F112
:102070003002039B03F51473104619464FF40072A7
:10208000019BFFF74DFC05B000BD00BFAFF3008022
:1020900000B583B001900091019B002B05D144F263
:1020A000B010C0F60000FEF783FC4FF0200383F36E
:1020B0001188FEF70DFB019B1B7B012B09D0019BB7
:1020C0001B7B022B05D044F2BC10C0F60000FEF7CB
:1020D0006FFC0198009901F0A3FB019B4FF00202F5
:1020E0001A73FEF715FB4FF0000383F3118803B05A
:1020F00000BD00BFAFF30080AFF30080AFF30080FE
:1021000000B583B001900B468DF80330FEF7C0FB9D
:10211000019B002B05D144F2E810C0F60000FEF749
:1021200047FC019B9B69002B0DD1019B9B6843F0F1
:102130000402019B9A60019B03F1040318464FF0CF
:102140000001FFF73DFA019B03F110029DF80330F7
:1021500010461946FFF7DCFA0346002B0DDA019B07
:102160009B6843F08002019B9A60019B03F104038A
:1021700018464FF00001FFF723FA03B000BD00BF7F
:1021800000B583B0FEF724FB4FF00003C4F2020356
:102190001B6803F00F0301934FF00003C4F2020326
:1021A0004FF00F025A6040F68853C2F200031B68DA
:1021B000002B0CD040F68853C2F200031A6840F698
:1021C0008853C2F200035B68184601999047FEF7F6
:1021D0002FFBFEF77DF803B000BD00BFAFF300801A
:1021E00000B583B0FEF7F4FA4FF00003C4F2020327
:1021F0001B684FEA131303F00F0301934FF0000322
:10220000C4F202034FF0F0025A6040F68853C2F263
:1022100000039B68002B0CD040F68853C2F20003E9
:102220009A6840F68853C2F20003DB6818460199A9
:102230009047FEF7FDFAFEF74BF803B000BD00BF74
:1022400000B583B0FEF7C4FA4FF00003C4F20203F6
:102250001B684FEA132303F00F0301934FF00003B1
:10226000C4F202034FF470625A6040F68853C2F21F
:1022700000031B69002B0CD040F68853C2F2000308
:102280001A6940F68853C2F200035B691846019947
:102290009047FEF7CDFAFEF71BF803B000BD00BF74
:1022A00000B583B0FEF794FA4FF00003C4F20203C6
:1022B0001B684FEA133303F00F0301934FF0000341
:1022C000C4F202034FF470425A6040F68853C2F2DF
:1022D00000039B69002B0CD040F68853C2F2000328
:1022E0009A6940F68853C2F20003DB6918460199E7
:1022F0009047FEF79DFAFDF7EBFF03B000BD00BF6E
:1023000000B583B0FEF764FA4FF00003C4F2020395
:102310001B684FEA134303F00F0301934FF00003D0
:10232000C4F202034FF470225A6040F68853C2F29E
:1023300000031B6A002B0CD040F68853C2F2000346
:102340001A6A40F68853C2F200035B6A1846019984
:102350009047FEF76DFAFDF7BBFF03B000BD00BF6D
:1023600000B583B0FEF734FA4FF00003C4F2020365
:102370001B684FEA135303F00F0301934FF0000360
:10238000C4F202034FF470025A6040F68853C2F25E
:1023900000039B6A002B0CD040F68853C2F2000366
:1023A0009A6A40F68853C2F20003DB6A1846019924
:1023B0009047FEF73DFAFDF78BFF03B000BD00BF6D
:1023C00000B583B0FEF704FA4FF00003C4F2020335
:1023D0001B684FEA136303F00F0301934FF00003F0
:1023E000C4F202034FF070625A6040F68853C2F2A2
:1023F00000031B6B002B0CD040F68853C2F2000385
:102400001A6B40F68853C2F200035B6B18460199C1
:102410009047FEF70DFAFDF75BFF03B000BD00BF6C
:1024200082B040F68453C2F200034FF000021A60FB
:102430004FF0000301931CE044F27022C0F600024A
:1024400001990B464FEA43030B444FEA83031344BD
:102450001B684FF000021A6040F68853C2F2000376
:10246000019A4FF0000143F83210019B03F1010380
:102470000193019B062BDFDD4FF00003C4F2020342
:102480004FF0FF325A6002B0704700BFAFF30080D8
:102490004FF4E043C4F200034FF4E042C4F2000200
:1024A000126842F480721A604FF48053C4F202033F
:1024B0001B6A03F44073B3F5407F0DD04FF4805393
:1024C000C4F202034FF480321A624FF48053C4F214
:1024D00002034FF000021A624FF48053C4F2020369
:1024E0001B6A03F40043002B17D14FF48053C4F24E
:1024F00002034FF48052C4F20202126A42F44072A4
:102500001A624FF48053C4F202034FF48052C4F2B3
:102510000202126A42F400421A627047AFF300806E
:1025200008B54FF48053C4F202031B694FF4805383
:10253000C4F202034FF0FF321A614FF48053C4F229
:1025400002034FF000021A614FF48053C4F20203F9
:10255000DB684FF48053C4F202034FF0FF32DA60BD
:102560004FF48053C4F202034FF00002DA604EF2DF
:102570001003CEF2000343F27F22C0F202025A603F
:102580004EF21003CEF200034FF000029A604EF2BA
:102590001003CEF200034FF007021A604EF6F0531C
:1025A000CEF200034EF6F052CEF20002D26842F0B4
:1025B0008072DA604FF48053CEF200034FF4805201
:1025C000CEF20002126842F001021A604FF480530A
:1025D000C4F202034FF48052C4F20202D26942F004
:1025E0008052DA614FF48053C4F202034FF48052F8
:1025F000C4F20202D26942F00062DA61FFF748FFDA
:10260000FFF70EFF08BD00BFAFF30080AFF30080FF
:102610004FF48053C4F202034FF48052C4F202021A
:10262000126842F001021A6000BF4FF48053C4F2F6
:1026300002031B6803F00203002BF6D04FF4805313
:10264000C4F202034FF48052C4F20202126802F094
:10265000F9021A604FF48053C4F202034FF00002F3
:102660005A6000BF4FF48053C4F202035B6803F06A
:102670000C03002BF6D14FF48053C4F202034FF445
:102680008052C4F20202126842F480321A6000BF23
:102690004FF48053C4F202031B6803F40033002B91
:1026A000F6D04FF48053C4F202034FF48052C4F2C8
:1026B0000202526842F4E8125A604FF48053C4F2A6
:1026C00002034FF48052C4F20202126842F0807298
:1026D0001A6000BF4FF48053C4F202031B6803F07A
:1026E0000073002BF6D04FF48053C4F202034FF472
:1026F000C842C0F21D025A604FF40053C4F20203F4
:102700004FF012021A604FF48053C4F202034FF4E8
:102710008052C4F20202526842F002025A6000BFC4
:102720004FF48053C4F202035B6803F00C03082BE0
:10273000F6D17047AFF30080AFF30080AFF30080B5
:1027400008B5FEF745F84FF48063C4F201034FF07B
:1027500001025A6140F6C053C2F200035B685B6835
:1027600040F6C050C2F200004FF000019847FEF75B
:102770005FF8FDF7ADFD08BDAFF30080AFF300805B
:1027800008B5FEF725F84FF48063C4F201034FF05B
:1027900002025A6140F6C053C2F200035B68DB6874
:1027A00040F6C050C2F200004FF001019847FEF71A
:1027B0003FF8FDF78DFD08BDAFF30080AFF300805B
:1027C00008B5FEF705F84FF48063C4F201034FF03B
:1027D00004025A6140F6C053C2F200035B685B69B1
:1027E00040F6C050C2F200004FF002019847FEF7D9
:1027F0001FF8FDF76DFD08BDAFF30080AFF300805B
:1028000008B5FDF7E5FF4FF48063C4F201034FF014
:1028100008025A6140F6C053C2F200035B68DB69EC
:1028200040F6C050C2F200004FF003019847FDF798
:10283000FFFFFDF74DFD08BDAFF30080AFF3008053
:1028400008B5FDF7C5FF4FF48063C4F201034FF0F4
:1028500010025A6140F6C053C2F200035B685B6A23
:1028600040F6C050C2F200004FF004019847FDF757
:10287000DFFFFDF72DFD08BDAFF30080AFF3008053
:1028800000B583B0FDF7A4FF4FF48063C4F20103E9
:102890005B6903F4787301934FF48063C4F201031E
:1028A000019A5A61019B03F02003002B0CD040F6E3
:1028B000C053C2F200035B68DB6A40F6C050C2F24C
:1028C00000004FF005019847019B03F04003002BE7
:1028D0000CD040F6C053C2F200035B685B6B40F65D
:1028E000C050C2F200004FF006019847019B03F070
:1028F0008003002B0CD040F6C053C2F200035B688B
:10290000DB6B40F6C050C2F200004FF00701984761
:10291000019B03F48073002B0CD040F6C053C2F22D
:1029200000035B685B6C40F6C050C2F200004FF0E1
:1029300008019847019B03F40073002B0CD040F66C
:10294000C053C2F200035B68DB6C40F6C050C2F2B9
:1029500000004FF009019847FDF76AFFFDF7B8FC4A
:1029600003B000BDAFF30080AFF30080AFF3008091
:1029700000B583B0FDF72CFF4FF48063C4F2010370
:102980005B6903F47C4301934FF48063C4F2010359
:10299000019A5A61019B03F48063002B0CD040F62E
:1029A000C053C2F200035B685B6D40F6C050C2F2D8
:1029B00000004FF00A019847019B03F40063002BCD
:1029C0000CD040F6C053C2F200035B68DB6D40F6EA
:1029D000C050C2F200004FF00B019847019B03F476
:1029E0008053002B0CD040F6C053C2F200035B684A
:1029F0005B6E40F6C050C2F200004FF00C019847E9
:102A0000019B03F40053002B0CD040F6C053C2F2DC
:102A100000035B68DB6E40F6C050C2F200004FF06E
:102A20000D019847019B03F48043002B0CD040F626
:102A3000C053C2F200035B685B6F40F6C050C2F245
:102A400000004FF00E019847019B03F40043002B58
:102A50000CD040F6C053C2F200035B68DB6F40F657
:102A6000C050C2F200004FF00F019847FDF7E0FEA2
:102A7000FDF72EFC03B000BDAFF30080AFF3008084
:102A800008B5FDF7A5FE4FF48063C4F201034FF4CF
:102A900080325A6140F6C053C2F200035B68D3F83B
:102AA000843040F6C050C2F200004FF01001984749
:102AB000FDF7BEFEFDF70CFC08BD00BFAFF30080C4
:102AC00008B5FDF785FE4FF48063C4F201034FF4AF
:102AD00080225A6140F6C053C2F200035B68D3F80B
:102AE000943040F6C050C2F200004FF012019847F7
:102AF000FDF79EFEFDF7ECFB08BD00BFAFF30080C5
:102B000008B540F6C050C2F20000FFF779F808BDE2
:102B100000B583B00190019BDB684FF000021A8280
:102B2000019B1B78042B06D1019B4FF002021A7007
:102B3000019800F035F8019B5B685B680198984745
:102B400003B000BDAFF30080AFF30080AFF30080AF
:102B500008B5FDF73DFE40F6C850C2F20000FFF791
:102B6000D7FFFDF765FEFDF7B3FB08BDAFF30080AF
:102B700008B540F6C853C2F200034FF43052C4F215
:102B80000102DA6040F6C850C2F20000FFF750F8C8
:102B900008BD00BFAFF30080AFF30080AFF300804B
:102BA00082B00190019BDB684FF000021A80019B0C
:102BB000DB684FF000021A82019BDB684FF00002D5
:102BC0009A8102B0704700BFAFF30080AFF300807E
:102BD00000B587B00190019B1B6A0593059B1B8B79
:102BE0009BB20493059B9B8A9BB20393049B4FEA81
:102BF0000342039B42EA030323F07F434FF00202A8
:102C0000C0F2030293421ED04FF00202C0F2030250
:102C1000934206D84FF00102C0F2030293420DD056
:102C200093E04FF08202C0F20702934234D04FF09B
:102C30008402C0F20702934241D086E0019B1A8AC7
:102C4000059B1A8281E0059B9B889BB223F400734D
:102C50009AB2059B9A80019B9B691B68019A9269B5
:102C60001268126842F001021A60059B9B889BB2B1
:102C700043F480539AB2059B9A80019B9B691B6821
:102C80005B68012B60D8059B1B889BB223F4806393
:102C90009AB2059B1A8058E0059B9B889BB223F44F
:102CA00000739AB2059B9A80019BDB691B68019AAD
:102CB000D2691268126842F001021A6045E0019B75
:102CC0009B691B685B68002B0FD0019B1B8A43F03C
:102CD00001039AB2019B1A82059B1B889BB243F4A5
:102CE000A0639AB2059B1A8036E0059B9B889BB235
:102CF00023F400739AB2059B9A80059B1B889BB2B4
:102D000043F400739AB2059B1A804FF0200383F3BB
:102D10001188FDF71DFD019BDB68002B0DD0019B89
:102D2000DB680293019B4FF00002DA60029B4FF0D8
:102D300000029A620298FDF76BFFFDF729FD4FF044
:102D4000000383F3118800E000BF039B03F00A0334
:102D5000002B01D0059B1B8B07B000BDAFF300809B
:102D600000B587B00190019B1B6A04934FF02003CC
:102D700083F31188FDF7ECFC019BDB691B68019A6A
:102D8000D2691268126822F001021A60019BDB69A5
:102D90005B68019AD269127A4FF00F0101FA02F2D0
:102DA0001A60019B9B691B68019A926912681268FC
:102DB00022F001021A60019B9B695B68019A92698B
:102DC000127A4FF00F0101FA02F21A60FDF7E0FCEF
:102DD0004FF0000383F311884FF000030593049B29
:102DE0009B8A9BB203F48073002B0BD0049B9B8ABD
:102DF0009BB223F480739AB2049B9A82059B43F0A2
:102E000001030593049B9B8A9BB203F40073002B80
:102E10000BD0049B9B8A9BB223F400739AB2049B51
:102E20009A82059B43F002030593049B9B8A9BB205
:102E300003F48063002B1BD0049B9B8A9BB223F47A
:102E400080639AB2049B9A82049B9B889BB223F472
:102E500000739AB2049B9A80049B1B889BB243F434
:102E600000739AB2049B1A80059B43F004030593F8
:102E7000049B9B8A9BB203F40063002B0BD0049B42
:102E80009B8A9BB223F400639AB2049B9A82059BAF
:102E900043F008030593049B9B8A9BB203F4805381
:102EA000002B0BD0049B9B8A9BB223F480539AB2D5
:102EB000049B9A82059B43F010030593049B9B8A15
:102EC0009BB203F48043002B0BD0049B9B8A9BB2E4
:102ED00023F480439AB2049B9A82059B43F020031B
:102EE0000593049B9B8A9BB29BB21BB2002B0DDA0D
:102EF000049B9B8A9BB24FEA43434FEA53439AB2E7
:102F0000049B9A82059B43F040030593059B002B8D
:102F100020D0019B059A9A604FF0200383F311881B
:102F2000FDF716FC019BDB68002B0DD0019BDB68D5
:102F30000393019B4FF00002DA60039B6FF00102E4
:102F40009A620398FDF764FEFDF722FC4FF0000340
:102F500083F3118807B000BDAFF30080AFF30080AA
:102F600008B5FDF735FC40F6D850C2F20000FFF777
:102F70002FFEFDF75DFCFDF7ABF908BDAFF3008058
:102F800008B5FDF725FC40F6D850C2F20000FFF767
:102F9000E7FEFDF74DFCFDF79BF908BDAFF30080A0
:102FA00008B540F6D850C2F20000FEF759FE40F6D0
:102FB000D853C2F200034FF00002DA6040F6D85353
:102FC000C2F200034FF4A842C4F200021A6240F6B3
:102FD000D853C2F20003044A9A6140F6D853C2F2B1
:102FE0000003024ADA6108BDB8420008AC4200089A
:102FF00000B585B00190019B1B691B8AADF80E30AE
:10300000019B1B699B899AB2BDF80E3002EA03034B
:10301000ADF80E30019B1B694FF6E0721A82BDF8C5
:103020000E3003F00203002B04D0019B5B681B6988
:1030300001989847BDF80E3003F00403002B04D02C
:10304000019B5B689B6901989847BDF80E3003F0BF
:103050000803002B04D0019B5B681B6A019898470A
:10306000BDF80E3003F01003002B04D0019B5B6809
:103070009B6A01989847BDF80E3003F00103DBB25C
:10308000002B04D0019B5B689B680198984705B0B2
:1030900000BD00BFAFF30080AFF30080AFF300804E
:1030A00008B5FDF795FB40F6FC50C2F20000FFF7B3
:1030B0009FFFFDF7BDFBFDF70BF908BDAFF30080E7
:1030C00008B5FDF785FB40F61060C2F20000FFF77F
:1030D0008FFFFDF7ADFBFDF7FBF808BDAFF30080F8
:1030E00008B540F6FC50C2F20000FEF7D1FD40F6F4
:1030F000FC53C2F200034FF080421A6140F61060A8
:10310000C2F20000FEF7C4FD40F61063C2F20003F5
:103110004FF48062C4F200021A6108BDAFF3008070
:1031200000B585B00190019B1B78012B6ED1019AEF
:1031300040F6FC53C2F200039A422AD14FF4805366
:10314000C4F202034FF48052C4F20202D26942F088
:103150000102DA614FF48053C4F202034FF480524B
:10316000C4F20202126942F001021A614FF4805364
:10317000C4F202034FF000021A614FF01C004FF03E
:103180007001FDF72DF9019A4FF42243C0F24A4332
:10319000D360019A40F61063C2F200039A422AD12A
:1031A0004FF48053C4F202034FF48052C4F202027F
:1031B000D26942F00202DA614FF48053C4F2020392
:1031C0004FF48052C4F20202126942F002021A6104
:1031D0004FF48053C4F202034FF000021A614FF023
:1031E0001D004FF07001FDF7FBF8019A4FF42243E8
:1031F000C0F24A43D360019B1B6946F668021A83FA
:10320000019B1B6946F668029A8327E0019B1B69B4
:103210004FF000021A80019B1B694FF000029A8157
:10322000019B1B694FF000021A82019B1B694FF042
:1032300000025A63019B1B694FF000029A63019BD5
:103240001B694FF00002DA63019B1B694FF000021B
:103250001A64019B1B694FF000025A62019BDA68F5
:10326000019B5B681B68B2FBF3F303F1FF3302932E
:10327000029A4FF6FF739A420BD8029B03F10103A7
:10328000019A5268126802FB03F2019BDB689A42C2
:1032900005D044F21020C0F60000FDF789FB019B29
:1032A0001B69029A92B21A85019B1B69019A1289C5
:1032B00002F1FF3292B2DA62019B1B69019A5268F5
:1032C000928D9A804FF00003ADF80E30019B5B6841
:1032D000DB6803F00F03012B07D0022B0BD1BDF8E5
:1032E0000E3043F00203ADF80E30BDF80E3043F05F
:1032F0000103ADF80E30019B5B685B6903F00F03BF
:10330000012B07D0022B0BD1BDF80E3043F0200368
:10331000ADF80E30BDF80E3043F01003ADF80E30AE
:10332000019B5B68DB6903F00F03012B07D0022BC5
:103330000BD1BDF80E3043F40073ADF80E30BDF87C
:103340000E3043F48073ADF80E30019B5B685B6A0E
:1033500003F00F03012B07D0022B0BD1BDF80E3069
:1033600043F40053ADF80E30BDF80E3043F48053F3
:10337000ADF80E30019B1B69BDF80E201A84019B2D
:103380001B694FF001029A82019B1B69019A5268E6
:103390009268002A0CBF0022012292B29A81019BFE
:1033A0001B694FF000021A82019B1B694FF08502D6
:1033B0001A8005B000BD00BFAFF30080AFF30080FE
:1033C00084B0019013460A468DF80320ADF8003012
:1033D000019B19699DF80330BDF8002003F10C032F
:1033E0004FEA83030B445A60019B5A689DF80330EF
:1033F00003F101034FEAC30313449B68002B2CD055
:10340000019B1B699B899BB203939DF803304FF08E
:10341000020202FA03F31A46039B02EA0303002B9B
:103420001BD1019B1B699DF803204FF0020101FA9B
:1034300002F291B2039A92B241EA020292B29A81E6
:10344000019B1B699DF803204FF0020101FA02F273
:1034500092B26FEA020292B21A8204B0704700BFC1
:1034600082B001900B468DF80330019B1A699DF8DC
:10347000033003F10C034FEA830313444FF00002BF
:103480005A60019B1B69019A1269928992B291B2AA
:103490009DF803204FF0020000FA02F292B26FEAA8
:1034A000020292B201EA020292B292B29A8102B090
:1034B000704700BFAFF30080AFF30080AFF3008030
:1034C00084B001900091019BD3F850340393019B89
:1034D000D3F850244FF46053C4F201039A420BD145
:1034E000009B1A684FF4A243C0F22523B3FBF2F30A
:1034F0009AB2039B1A810AE0009B1A684FF4A24318
:10350000C0F22523B3FBF2F39AB2039B1A81009B0E
:103510009B8843F4045343F02C039AB2039B9A8193
:10352000009BDB8843F040039AB2039B1A82009B06
:103530001B8943F001039AB2039B9A82039B4FF0CD
:1035400000021A80039B1B88039B9B8804B0704772
:1035500000B585B001900B46ADF802304FF0000386
:103560000393BDF8023003F00803002B03D0039B44
:1035700043F080030393BDF8023003F00103DBB294
:10358000002B03D0039B43F020030393BDF80230CC
:1035900003F00203002B03D0039B43F0400303938B
:1035A000BDF8023003F00403002B03D0039B43F467
:1035B000807303934FF0200383F31188FDF7C8F85D
:1035C000019B9A68039B42EA0302019B9A60019B5C
:1035D00003F1040318464FF00001FDF7F1FFFDF77A
:1035E000D7F84FF0000383F3118805B000BD00BF8A
:1035F00000B587B00190019BD3F850340593059B2B
:103600009B89ADF81230059B1B88ADF81030059BE7
:103610009B88ADF80E30BDF8103003F00F03002B7F
:1036200005D0BDF8103001981946FFF791FFBDF89D
:10363000103003F48073002B21D04FF0200383F36C
:103640001188FDF785F8019B9B6843F40072019B8C
:103650009A60019B03F1040318464FF00001FDF747
:10366000AFFFFDF795F84FF0000383F31188059B3A
:103670001B889BB223F480739AB2059B1A80BDF815
:10368000103003F02003002B12D04FF0200383F3FF
:103690001188FDF75DF8BDF80E30DBB201981946D0
:1036A000FEF72EFDFDF774F84FF0000383F3118849
:1036B000BDF8123003F08003002B3AD0BDF8103073
:1036C00003F08003002B34D04FF0200383F31188E4
:1036D000FDF73EF8019B03F130031846FEF798F919
:1036E00003460293029B002B19DA019B9B6843F06F
:1036F0000802019B9A60019B03F1040318464FF0F6
:103700000001FDF75DFFBDF8123023F0C0039BB24E
:1037100043F040039BB29AB2059B9A8103E0029B5F
:103720009AB2059B9A80FDF733F84FF0000383F3BC
:103730001188BDF8103003F04003002B28D04FF063
:10374000200383F31188FDF703F8019B9B6843F086
:103750001002019B9A60019B03F1040318464FF08D
:103760000001FDF72DFFFDF713F84FF0000383F381
:103770001188BDF8123023F040039AB2059B9A815C
:10378000059B1B889BB223F040039AB2059B1A80CD
:1037900007B000BDAFF30080AFF30080AFF300804F
:1037A00082B001904FF46053C4F201034FF46052B1
:1037B000C4F20102928992B242F0800292B29A81DE
:1037C00002B07047AFF30080AFF30080AFF300802A
:1037D00008B5FCF7FDFF40F62460C2F20000FFF7D9
:1037E00007FFFDF725F8FCF773FD08BDAFF3008078
:1037F00008B540F62460C2F200004FF0000143F229
:10380000A172C0F60002FEF70BFC40F62463C2F280
:1038100000034FF46052C4F20102C3F8502408BD03
:1038200000B583B001900091009B002B04D144F2BD
:10383000D023C0F600030093019B1B7B012B18D102
:10384000019A40F62463C2F200039A4211D14FF468
:103850008053C4F202034FF48052C4F20202926910
:1038600042F480429A614FF025004FF0C001FCF70E
:10387000B7FD01980099FFF723FE03B000BD00BF1C
:1038800082B001904FF48053C4F202034FF480528F
:10389000C4F20202926942F07D029A614FF4006321
:1038A000C4F20103019A1268DA604FF40063C4F2B3
:1038B0000103019A92685A604FF40063C4F2010355
:1038C000019A52681A604FF44063C4F20103019AEE
:1038D000D268DA604FF44063C4F20103019A52697E
:1038E0005A604FF44063C4F20103019A12691A60EE
:1038F0004FF48053C4F20103019A9269DA604FF4E5
:103900008053C4F20103019A126A5A604FF4805343
:10391000C4F20103019AD2691A604FF4A053C4F2B1
:103920000103019A526ADA604FF4A053C4F2010312
:10393000019AD26A5A604FF4A053C4F20103019A6B
:10394000926A1A604FF4C053C4F20103019A126BD9
:10395000DA604FF4C053C4F20103019A926B5A60CB
:103960004FF4C053C4F20103019A526B1A6002B0C3
:10397000704700BFAFF30080AFF30080AFF300806B
:103980008AB0039002910192019B032B03D1039B08
:10399000029A1A6105E0019B042B02D1039B029A53
:1039A0005A6144F2E023C0F60003019A13441B78E5
:1039B00004934FF000030693069B0793079B08931D
:1039C000089B09934FF00003059335E0089B4FEAED
:1039D00003130893099B4FEA03130993069B4FEACD
:1039E00003130693079B4FEA03130793029B03F00D
:1039F0008003002B04D1089B43F00F03089304E0DD
:103A0000069A049B42EA03030693029B03F40043D5
:103A1000002B04D1099B43F00F03099304E0079A9C
:103A2000049B42EA03030793029B4FEA430302937A
:103A3000059B03F101030593059B072BC6D9039B47
:103A40005A68099B02EA0302079B42EA0302039BAE
:103A50005A60039B1A68089B02EA0302069B42EA2B
:103A60000302039B1A600AB0704700BFAFF30080E7
:103A700008B5FEF7CDFD08BDAFF30080AFF30080C1
:103A8000704700BFAFF30080AFF30080AFF300805A
:103A900000B583B0FEF794F8FCF742FD00F0D0F8D3
:103AA00000F066F94FF0030000F0A2F94FF0640354
:103AB00000934FF40060C4F201004FF002014FF098
:103AC0000602FFF75DFF4FF00003019311E04FF492
:103AD0000063C4F201034FF002025A614FF4006325
:103AE000C4F201034FF002021A61019B03F10103CA
:103AF0000193019B632BEADD40F6FC50C2F200000B
:103B000040F60001C2F20001FEF7D2F840F6FC5088
:103B1000C2F200004FF00101FEF77AF94FF40060A5
:103B2000C4F201004FF002014FF01002FFF728FF2E
:103B3000009B9BB240F6FC50C2F200001946FEF713
:103B4000F7F840F6FC53C2F200031B8941F28832B9
:103B500002FB03F241F25973CDF2B713A3FB021338
:103B60004FEA53339BB240F6FC50C2F200004FF0D4
:103B700000011A46FEF714F940F6FC53C2F20003A6
:103B80001B8941F2883202FB03F241F25973CDF2F4
:103B9000B713A3FB02134FEA53339BB240F6FC501A
:103BA000C2F200004FF001011A46FEF7F9F840F6A4
:103BB000FC53C2F200031B8941F2883202FB03F27C
:103BC00041F25973CDF2B713A3FB02134FEA5333FB
:103BD0009BB240F6FC50C2F200004FF002011A46C0
:103BE000FEF7DEF840F6FC53C2F200031B8941F2F7
:103BF000883202FB03F241F25973CDF2B713A3FBF3
:103C000002134FEA53339BB240F6FC50C2F200005D
:103C10004FF003011A46FEF7C3F840F6C410FDF753
:103C200097FA40F6C410FDF793FA40F6C410FDF77A
:103C30008FFAF6E7AFF30080AFF30080AFF30080B8
:103C400008B54FF40060C4F201004FF400714FF06A
:103C50001002FFF795FE4FF40060C4F201004FF42C
:103C600080614FF00202FFF78BFE4FF40060C4F258
:103C700001004FF400614FF01002FFF781FE4FF496
:103C80000060C4F201004FF480514FF00202FFF7D0
:103C900077FE40F62460C2F2000044F24031C0F6E4
:103CA0000001FEF7F5F908BDAFF30080AFF3008027
:103CB00000B583B0019040F65C53C2F20003DA69AC
:103CC00044F23023C0F60003936141F27820C2F23F
:103CD0000000FDF71DFB41F28823C2F200031A68C1
:103CE00041F24043C2F200031A6041F24043C2F283
:103CF00000031B6803F00103DBB2002B0CD04FF470
:103D00008053C4F201034FF48052C4F20102D2681E
:103D100082F48042DA6006E04FF48053C4F201037B
:103D20004FF480425A6141F24043C2F200031B68E3
:103D300003F00203002B0CD04FF48053C4F20103B4
:103D40004FF48052C4F20102D26882F40052DA6069
:103D500006E04FF48053C4F201034FF400525A615D
:103D6000FDF776FB4FF0FA00FDF7F2F9ADE700BF83
:103D700000B583B04FF48053C4F201034FF4804286
:103D80005A614FF48053C4F201034FF400525A6158
:103D90004FF48050C4F201004FF480414FF006020E
:103DA000FFF7EEFD4FF48050C4F201004FF40051D4
:103DB0004FF00602FFF7E4FD41F27820C2F2000066
:103DC000FDF786FA4FF00003009341F29020C2F213
:103DD00000004FF4D8714FF0400243F6B143C0F6F3
:103DE0000003FDF775F903B000BD00BFAFF300801D
:103DF00000B583B0019041F27820C2F20000FDF7D7
:103E000087FA41F28823C2F20003019A1A60FDF793
:103E10001FFB03B000BD00BFAFF30080AFF3008015
:103E200069646C65000000006D61696E000000004F
:103E30005356233100000000535623320000000087
:103E40005356233300000000535623340000000073
:103E5000535623350000000053562336000000005F
:103E6000535623370000000053562338000000004B
:103E70005356233900000000535623313000000010
:103E80005356233131000000000000000000000004
:103E900022636856545365744922282900000000A3
:103EA00022636856545265736574492228290000BC
:103EB0006368565452657365744928292C20233150
:103EC00000000000000000000000000000000000F2
:103ED000636853636852656164794928292C2023FB
:103EE00031000000737461636B206F766572666CDD
:103EF0006F770000000000000000000000000000DC
:103F00002263685468644372656174654922282994
:103F1000000000002263685468645365745072693D
:103F20006F72697479222829000000006368546860
:103F300064526573756D6528292C202331000000BB
:103F4000226368546864536C6565702228290000F8
:103F50006368546864457869745328292C20233198
:103F60000000000022636854686457616974222865
:103F70002900000063685468645761697428292C1B
:103F800020233100000000000000000000000000BD
:103F90002263684D7478496E6974222829000000F4
:103FA0002263684D74784C6F636B5322282900009C
:103FB00063684D74784C6F636B5328292C20233130
:103FC0000000000063684D74784C6F636B532829C0
:103FD0002C202332000000002263684D7478547254
:103FE000794C6F636B5322282900000063684D747D
:103FF00078556E6C6F636B28292C202331000000EC
:1040000063684D7478556E6C6F636B28292C202380
:104010003200000063684D7478556E6C6F636B53AB
:1040200028292C202331000063684D7478556E6C6C
:104030006F636B5328292C202332000000000000FE
:1040400022636845767452656769737465724D6161
:10405000736B222829000000226368457674556E30
:104060007265676973746572222829002263684546
:1040700076745369676E616C222829002263684553
:1040800076745369676E616C49222829000000002C
:1040900022636845767442726F6164636173744D24
:1040A00061736B492228290022636845767444694C
:1040B0007370617463682228290000006368457684
:1040C00074446973706174636828292C202331005B
:1040D00022636849515265616454696D656F7574F6
:1040E000222829002263684F515772697465546908
:1040F0006D656F7574222829000000000000000023
:104100002270776D537461727422282900000000B8
:1041100070776D537461727428292C20233100004C
:104120002270776D53746F702228290070776D5359
:10413000746F7028292C2023310000002270776DC5
:104140004368616E6765506572696F642228290053
:1041500070776D4368616E6765506572696F64283A
:10416000292C2023310000002270776D456E61629A
:104170006C654368616E6E656C2228290000000042
:1041800070776D456E61626C654368616E6E656CDB
:1041900028292C202331000070776D4469736162F7
:1041A0006C654368616E6E656C28292C2023310094
:1041B00022736453746172742228290073645374E7
:1041C00061727428292C202331000000227364536B
:1041D000746F702228290000736453746F7028294B
:1041E0002C20233100000000227364496E636F6D40
:1041F000696E674461746149222829002273645200
:1042000065717565737444617461492228290000E1
:1042100070776D5F6C6C645F737461727428292CA5
:10422000202331000000000000000000000000001A
:104230006C640000000000000000000000000000AE
:10424000811E0008B11E0008E11E0008011F0008C1
:10425000211F0008511F0008711F0008A11F00083E
:10426000D11F000800000000000000000000000056
:10427000080002400400024000000B001C00024045
:104280000400024004010C0030000240040002401F
:1042900008020D0044000240040002400C030E001E
:1042A000580002400400024010040F006C0002405D
:1042B0000400024014051000800002400400024087
:1042C00018061100000000000000000000000000BF
:1042D00000C20100000000400000000000000000DB
:1042E000040204080800030708080808080808086A
:1042F0000B0F0000000000000000000000000000A4
:10430000FFFFFFFF4444444444444444FFFFFFFF95
:104310004444444444444444FFFFFFFF4444444471
:1043200044444444FFFFFFFF444444444444444461
:10433000FFFFFFFF88888888888888880000000041
:0C43400000C201000000000000030000AB
:1043500010270000102700000000000000000000EF
:10436000000000000000000000000000010000004C
:10437000000000000000000000000000000000003D
:0400000508000111DD
:00000001FF
