:020000040800F2
:10000000000400201101000801020008010200089C
:1000100001020008010200080102000801020008B4
:100020000102000801020008010200085102000854
:100030000102000801020008010200082102000874
:1000400001020008912D00080102000801020008C9
:100050000102000801020008512A0008912A000844
:10006000D12A0008112B0008512B00088123000819
:10007000E123000841240008A1240008012500080C
:1000800061250008C12500080102000801020008DE
:10009000010200080102000801020008912B00087B
:1000A00001020008413000080102000801020008B6
:1000B0006130000881300008A1300008113D0008BF
:1000C000313D000801020008010200080102000899
:1000D0000102000881430008010200080102000833
:0C00E000812C000801020008D12D00084E
:1000F000704700BFAFF30080AFF30080AFF3008024
:10010000FEE700BFAFF30080AFF30080AFF30080E5
:1001100072B640F60004C2F2000484F309884FF07E
:10012000020484F31488BFF36F8F40F20004C2F21C
:10013000000440F20045C2F2000504E04FF05533E0
:10014000236004F10404AC42F8D340F20044C2F24C
:10015000000440F60005C2F2000504E04FF05533FC
:10016000236004F10404AC42F8D304F059FA47F2D6
:100170006025C0F6000540F60004C2F2000405E068
:100180002B68236004F1040405F1040540F64C03D8
:10019000C2F200039C42F3D340F65004C2F20004C2
:1001A00042F2CC25C2F2000504E04FF000032360C8
:1001B00004F10404AC42F8D3FFF79AFF40F2EC04D8
:1001C000C0F6000403E02368984704F1040440F2F9
:1001D000EC03C0F600039C42F5D305F029FB40F286
:1001E000EC04C0F6000403E02368984704F104041B
:1001F00040F2EC03C0F600039C42F5D3FFF780FF0A
:10020000FEE700BFAFF30080AFF30080AFF30080E4
:1002100072B6FEE7AFF30080AFF30080AFF300806B
:1002200008B500F015FB4FF0200383F3118800F0B0
:10023000CFFA00F00DFA00F0EBFA4FF0000383F371
:10024000118800F035FB00F043F808BDAFF30080E3
:1002500010B483B0EFF309840194019B03F12003F0
:100260000193019B83F309884FF0000383F3118806
:1002700003B010BC704700BFAFF30080AFF3008045
:1002800008B54FF46D43CEF200034FF000029A60C0
:100290004FF46D43CEF200034FF00002C0F2FA5269
:1002A000DA604FF007004FF0100100F031F94FF025
:1002B0000A004FF4007100F02BF94FF00B004FF0E3
:1002C000800100F025F908BDAFF30080AFF3008096
:1002D00010B483B04FF0200383F311884FF46D43C3
:1002E000CEF200035B6803F40063002B47D0EFF30A
:1002F00009840194019BA3F120030193019B83F3E3
:100300000988019B4FF08072DA6140F67C53C2F29B
:1003100000039B69002B11D040F67C53C2F200030E
:100320001B689A6840F67C53C2F20003DB699B6845
:100330009A4294BF00230123DBB210E040F67C53C5
:10034000C2F200031B689A6840F67C53C2F20003B5
:10035000DB699B689A4234BF00230123DBB2002B88
:1003600006D0019A40F29133C0F6000393610AE08F
:10037000019A40F29C33C0F60003936103E04FF012
:10038000000383F3118803B010BC7047AFF3008003
:1003900000F0DEF900F0D4FD00F0FAF900DF00BF54
:1003A00003460A462DE9F04FC2F80CD0D3F80CD022
:1003B000BDE8F08FAFF30080AFF30080AFF30080B3
:1003C00008B500F0E5F94FF0000383F311882846E3
:1003D000A04700F01DFF08BDAFF30080AFF3008021
:1003E00084B001900091019B03F003034FEAC30323
:1003F00003934FF46143CEF20003019A4FEA920057
:100400004FF46142CEF2000201994FEA910101F1ED
:10041000C00152F82110039A4FF0FF0C0CFA02F2BF
:100420006FEA020201EA0201039ADDF800C00CFA49
:1004300002F241EA020100F1C00243F822104FF437
:100440006143CEF20003019A4FEA5212019901F082
:100450001F014FF0010000FA01F102F1600243F8C0
:1004600022104FF46143CEF20003019A4FEA521278
:10047000019901F01F014FF0010000FA01F143F86A
:10048000221004B0704700BFAFF30080AFF30080CC
:1004900084B00190019B03F003034FEAC30303936D
:1004A0004FF46143CEF20003019A4FEA52120199D0
:1004B00001F01F014FF0010000FA01F102F12002EA
:1004C00043F822104FF46143CEF20003019A4FEA41
:1004D00092004FF46142CEF2000201994FEA91017D
:1004E00001F1C00152F82110039A4FF0FF0C0CFAF1
:1004F00002F26FEA020201EA020100F1C00243F8CF
:10050000221004B0704700BFAFF30080AFF300804B
:1005100084B001900091019B03F003034FEAC303F1
:1005200003934FF46D43CEF20003019A4FEA920019
:100530004FF46D42CEF2000201994FEA910101F1B0
:10054000060152F82110039A4FF0FF0C0CFA02F248
:100550006FEA020201EA0201039ADDF800C00CFA18
:1005600002F241EA020100F1060243F8221004B04F
:10057000704700BFAFF30080AFF30080AFF300809F
:1005800082B0019040F67C53C2F20003DA6946F66D
:10059000E003C0F600039361FEE700BFAFF3008005
:1005A00000B583B0FFF76CFE00F03AFB00F050FAA4
:1005B00001F026FB00F0DCF940F61010C2F200005A
:1005C0004FF0400100F014FD024640F67C53C2F2A9
:1005D0000003DA6140F67C53C2F20003DB694FF09E
:1005E000010283F8202040F67C53C2F20003DA694E
:1005F00040F20043C2F20003D36100F091F84FF0E3
:10060000000383F3118862B640F67C53C2F2000304
:10061000DA6946F6E803C0F60003936140F28153BD
:10062000C0F600034FF00002009240F65000C2F204
:1006300000004FF0C0014FF0010200F089FD03B04F
:1006400000BD00BFAFF30080AFF30080AFF30080C8
:1006500000B583B000F05CF940F67C53C2F20003B1
:100660009B69002B0BDD40F67C53C2F200039B69B3
:1006700003F1FF3240F67C53C2F200039A6140F668
:100680007C53C2F20003DB695A6A02F101025A622A
:1006900040F66C53C2F20003DB6803F1010240F63E
:1006A0006C53C2F20003DA6040F66C53C2F20003EE
:1006B0001B681A4640F66C53C2F200039A422DD0D2
:1006C00040F66C53C2F200031B689A6802F1FF32D5
:1006D0009A6019E0019BDB680093019B4FF00002D8
:1006E000DA60019B1A6840F66C53C2F20003536053
:1006F000019B1A6840F66C53C2F200031A60019B1A
:100700001A69009B1046984740F66C53C2F20003EA
:100710001B680193019B9B68002BDBD003B000BDDD
:1007200008B540F65813C2F200031B68002B06D12F
:1007300040F65C13C2F200031B68002B05D046F69E
:100740000010C0F6000000F073F908BDAFF30080A0
:1007500008B540F65813C2F200031B68002B06D1FF
:1007600040F65C13C2F200031B68002B05D046F66E
:100770000810C0F6000000F05BF940F65C13C2F20E
:1007800000034FF001021A6008BD00BFAFF3008004
:1007900008B540F65813C2F200031B68002B06D1BF
:1007A00040F65C13C2F200031B68002B05DC46F622
:1007B0001010C0F6000000F03BF940F65C13C2F2E6
:1007C00000034FF000021A6008BD00BFAFF30080C5
:1007D00008B540F65813C2F200031B68002B06DD73
:1007E00040F65C13C2F200031B68002B05D046F6EE
:1007F0001810C0F6000000F01BF940F65C13C2F2BE
:1008000000034FF001021A6008BD00BFAFF3008083
:1008100008B540F65813C2F200031B68002B06DD32
:1008200040F65C13C2F200031B68002B05DC46F6A1
:100830002010C0F6000000F0FBF840F65C13C2F296
:1008400000034FF000021A6008BD00BFAFF3008044
:1008500008B54FF0200383F3118840F65813C2F215
:1008600000031B68002B06DB40F65C13C2F200039A
:100870001B68002B05D046F62810C0F6000000F0DB
:10088000D7F840F65813C2F200031B6803F10102C7
:1008900040F65813C2F200031A604FF0000383F3CE
:1008A000118808BDAFF30080AFF30080AFF3008084
:1008B00008B54FF0200383F3118840F65813C2F2B5
:1008C00000031B68002B06DD40F65C13C2F2000338
:1008D0001B68002B05D046F63010C0F6000000F073
:1008E000A7F840F65813C2F200031B6803F1FF3269
:1008F00040F65813C2F200031A604FF0000383F36E
:10090000118808BDAFF30080AFF30080AFF3008023
:1009100008B540F65813C2F200031B68002B06DB33
:1009200040F65C13C2F200031B68002B05DC46F6A0
:100930003810C0F6000000F07BF808BDAFF300806F
:1009400008B540F65813C2F200031B68002B06D10D
:1009500040F65C13C2F200031B68002B05DC46F670
:100960004010C0F6000000F063F808BDAFF300804F
:1009700040F66013C2F200034FF040021A6040F6E6
:100980006013C2F20003014A5A60704768090020F0
:1009900082B0019040F66013C2F200035A6840F63C
:1009A0006C53C2F20003DB68136040F66013C2F2BE
:1009B00000035A6840F67C53C2F20003DB695360BF
:1009C00040F66013C2F200035B68019A926A9A6073
:1009D00040F66013C2F200035B68019A92F820208F
:1009E0001A7340F66013C2F200035B6803F1100251
:1009F00040F66013C2F200035A6040F66013C2F280
:100A000000035A68054B9A4205D340F66013C2F2C0
:100A10000003034A5A6002B0704700BF680D00200F
:100A200068090020AFF30080AFF30080AFF30080CF
:100A300000B583B0019040F66853C2F20003019AFA
:100A40001A60FFF7E5FB03B000BD00BFAFF3008005
:100A500040F66C52C2F2000240F66C53C2F2000340
:100A60005A6040F66C53C2F200035A6840F66C5369
:100A7000C2F200031A6040F66C53C2F200034FF05A
:100A8000FF329A6040F66C53C2F200034FF000024E
:100A9000DA607047AFF30080AFF30080AFF30080FF
:100AA00000B587B00390029101920093FFF730FFE9
:100AB000039B002B05D0019B002B02D0029B002B37
:100AC00005D146F65010C0F60000FFF7B1FF039BBA
:100AD000009A1A61039B019ADA6040F66C53C2F2E5
:100AE00000031B68059308E0059B9B68029AC3EB13
:100AF00002030293059B1B680593059B9A68029B62
:100B00009A42F1D3039B059A1A60039B1B685A68AB
:100B1000039B5A60039B5B68059A03995160059A91
:100B200052681A60039B029A9A60059A40F66C53C9
:100B3000C2F200039A4206D0059B9A68029BC3EB5F
:100B40000202059B9A6007B000BD00BFAFF30080B2
:100B500000B583B00190FFF7DBFE019B002B05D1B0
:100B600046F66010C0F60000FFF762FF019BDB68ED
:100B7000002B05D146F67010C0F60000FFF758FFB5
:100B8000019B1A6840F66C53C2F200039A4208D0E7
:100B9000019B1B68019A12689168019A92680A4445
:100BA0009A60019B5B68019A12681A60019B1B683E
:100BB000019A52685A60019B4FF00002DA6003B05C
:100BC00000BD00BFAFF30080AFF30080AFF3008043
:100BD00084B00190019B1B680393039B1A68019BDF
:100BE0001A60019B1B68019A5A60039B184604B067
:100BF000704700BFAFF30080AFF30080AFF3008019
:100C000082B00190019B5B68019A12681A60019B97
:100C10001B68019A52685A60019B184602B07047DF
:100C200040F67C52C2F2000240F67C53C2F200034E
:100C30005A6040F67C53C2F200035A6840F67C5377
:100C4000C2F200031A6040F67C53C2F200034FF078
:100C500000029A6040F67C53C2F200034FF0140287
:100C60009A6140F67C52C2F2000240F67C53C2F216
:100C700000035A6140F67C53C2F200035A6940F601
:100C80007C53C2F200031A61704700BFAFF30080CB
:100C900000B585B00190019B93F82030002B04D063
:100CA000019B93F820300E2B05D146F69010C0F62C
:100CB0000000FFF7BDFE019B4FF0000283F82020EB
:100CC00040F67C53C2F200030393039B1B6803931B
:100CD000039B9A68019B9B689A42F6D2019B039AF8
:100CE0001A60039B5A68019B5A60019B5B68039AD8
:100CF00001995160039A52681A60019B184605B029
:100D000000BD00BFAFF30080AFF30080AFF3008001
:100D100000B585B003468DF80730FFF711FE40F6A9
:100D20007C53C2F20003DB690393039B9DF8072009
:100D300083F8202040F67C53C2F200034FF01402E7
:100D40009A6140F67C50C2F20000FFF741FF024674
:100D500040F67C53C2F20003DA6140F67C53C2F2E3
:100D60000003DB694FF0010283F820200398FFF7AE
:100D70000FFE6B46A3F12402039BDB699A4205D266
:100D800046F6A410C0F60000FFF752FE40F67C5372
:100D9000C2F20003DB6918460399FFF701FB05B0B7
:100DA00000BD00BFAFF30080AFF30080AFF3008061
:100DB00000B585B00190019B0393039B93F820300D
:100DC0000D2B28D801A252F823F000BF270E0008EF
:100DD000170E0008170E0008050E0008170E000871
:100DE000110E0008170E0008170E0008170E000855
:100DF000170E0008170E0008170E0008170E00083F
:100E0000110E0008039B9B6A9A6802F101029A6026
:100E10000398FFF7F5FE039B4FF0FF329A620398A9
:100E2000FFF736FF00E000BF05B000BDAFF3008064
:100E300000B589B0034600918DF80730FFF780FDBB
:100E4000009BB3F1FF3F1AD040F67C53C2F200037F
:100E5000DB6903AA1046009940F6B152C0F60002C1
:100E6000FFF71EFE9DF807301846FFF751FF069B5F
:100E7000002B0AD003AB1846FFF76AFE06E09DF888
:100E800007301846FFF744FF00E000BF40F67C53F0
:100E9000C2F20003DB699B6A184609B000BD00BFBF
:100EA00000B585B001900091FFF74AFD019B009AC3
:100EB0009A62019B9A6840F67C53C2F20003DB6998
:100EC0009B689A4203D80198FFF7E2FE2FE040F6B4
:100ED0007C53C2F20003DB691846FFF7D9FE0346D4
:100EE000039340F67C53C2F200034FF014029A6160
:100EF00040F67C53C2F20003019ADA61019B4FF085
:100F0000010283F820200398FFF742FD6B46A3F10E
:100F10002402039BDB699A4205D246F6A410C0F670
:100F20000000FFF785FD01980399FFF739FA05B036
:100F300000BD00BFAFF30080AFF30080AFF30080CF
:100F400000B583B040F67C53C2F200034FF01402A8
:100F50009A6140F67C53C2F20003DB69019340F6CC
:100F60007C50C2F20000FFF733FE024640F67C538D
:100F7000C2F20003DA6140F67C53C2F20003DB697F
:100F80004FF0010283F820200198FFF781FE0198BD
:100F9000FFF7FEFC6B46A3F12402019BDB699A423A
:100FA00005D246F6A410C0F60000FFF741FD40F65A
:100FB0007C53C2F20003DB6918460199FFF7F0F990
:100FC00003B000BDAFF30080AFF30080AFF300804B
:100FD00084B00190019B1B680393039B1A68019BDB
:100FE0001A60039B184604B0704700BFAFF300803F
:100FF00082B001900091019B009A9A60019B4FF092
:10100000020283F82020019B4FF0000283F8212088
:10101000019B009A5A64019B4FF000021A64019BE5
:101020004FF00002DA63019B4FF000025A62019B0D
:101030004FF000029A6140F67C53C2F20003019A1D
:10104000136140F67C53C2F200035A69019B5A6156
:10105000019B5A6940F67C53C2F200030199596121
:1010600040F67C53C2F200035B691361019B03F1FC
:101070002C031A46019BDA62019B03F130031A46E6
:10108000019B5A63019B5A6B019B1A63019B03F1FD
:101090004802019BDA61019B184602B0704700BF0D
:1010A00084B00390029113468DF8073007E0039B4C
:1010B0009DF807201A70039B03F101030393039A21
:1010C000029B9A42F3D304B0704700BFAFF3008095
:1010D00000B587B00390029101920093039B0593A2
:1010E000FFF716FC039B002B08D0029BAF2B05D902
:1010F000019B7F2B02D8009B002B05D146F6C01028
:10110000C0F60000FFF794FC039A029BA3F12403AE
:101110001A44059BDA60059BDB68009A1A60059B00
:10112000DB68089A5A60059BDA6840F2C133C0F662
:101130000003136205980199FFF75AFF034618460A
:1011400007B000BDAFF30080AFF30080AFF30080C5
:1011500000B589B00590049103920293059A059B0E
:1011600003F14803104619464FF0FF02FFF798FFBE
:10117000059B03F148020599049B0B441046194650
:101180004FF05502FFF78CFF4FF0200383F31188D7
:10119000FFF7DEFA0A9B009305980499039A029BD5
:1011A000FFF796FF0346079307984FF00001FFF7FC
:1011B00077FEFFF7EDFA4FF0000383F31188079BEA
:1011C000184609B000BD00BFAFF30080AFF3008048
:1011D00000B583B00190019B002B05D146F600209D
:1011E000C0F60000FFF724FC4FF0200383F31188C2
:1011F000FFF7AEFA4FF006000199FFF719FEFFF76F
:10120000C7FA4FF0000383F3118803B000BD00BF9D
:1012100000B583B001904FF0200383F31188FFF7EE
:1012200097FA019800F004F803B000BDAFF3008016
:1012300000B585B0019040F67C53C2F20003DB6933
:101240000393039B019A9A6209E0039B03F12C0329
:101250001846FFF7BDFE03461846FFF719FD039B2E
:10126000DA6A039B03F12C039A42EED1039B93F8B5
:10127000213003F00303002B09D1039B5B69039A20
:1012800012691A61039B1B69039A52695A614FF0F4
:101290000E00FFF73DFD46F61020C0F60000FFF7F8
:1012A000C7FB05B000BD00BFAFF30080AFF3008007
:1012B00084B001900091009B0393039B1B680393F0
:1012C000009B039A9A4205D0039B9A68019B9B68F6
:1012D0009A42F2D2019B039A1A60039B5A68019BBF
:1012E0005A60019B5B68039A01995160039A5268A6
:1012F0001A6004B0704700BFAFF30080AFF3008006
:1013000084B00190019B1B680393039B1A68019BA7
:101310001A60019B1B68019A5A60039B184604B02F
:10132000704700BFAFF30080AFF30080AFF30080E1
:1013300082B00190019B5B68019A12681A60019B60
:101340001B68019A52685A60019B184602B07047A8
:1013500000B583B00190019B002B05D146F65020CB
:10136000C0F60000FFF764FB019B1A46019B5A6020
:10137000019B5A68019B1A60019B4FF000029A6022
:1013800003B000BDAFF30080AFF30080AFF3008087
:1013900000B583B001904FF0200383F31188FFF76D
:1013A000D7F9019800F00CF8FFF7F2F94FF00003BD
:1013B00083F3118803B000BDAFF30080AFF300806A
:1013C00000B585B0019040F67C53C2F20003DB69A2
:1013D0000293FFF7B5FA019B002B05D146F660207A
:1013E000C0F60000FFF724FB019B9B68002B62D036
:1013F000019B9B68039335E0029B9A68039B9A606C
:10140000039B93F82030042B04D0052B11D0002B24
:101410001AD02DE00398FFF78BFF0246039B9B6ACF
:1014200010461946FFF744FF039B9B6A9B68039392
:1014300018E00398FFF77CFF0246039B9B6A104667
:101440001946FFF735FF0CE0039B4FF0010283F8CC
:1014500020200398FFF76CFF03461846FFF718FC9F
:1014600000BF05E0039B9A68029B9B689A42C3D326
:10147000019B02981946FFF71BFF029B019A9A6293
:101480004FF00400FFF744FC019B9A68029B9A42CC
:1014900005D046F67020C0F60000FFF7C9FA029B9F
:1014A0001A6C019B9A4210D046F68420C0F60000C8
:1014B000FFF7BEFA09E0019B029A9A60029B1A6C40
:1014C000019BDA60029B019A1A6405B000BD00BF5F
:1014D00000B587B040F67C53C2F20003DB6903938A
:1014E0004FF0200383F31188FFF732F9039B1B6C45
:1014F000002B05D146F6AC20C0F60000FFF798FAA5
:10150000039B1B6C9A68039B9A4205D046F6C02049
:10151000C0F60000FFF78CFA039B1B6C0293029B42
:10152000DA68039B1A64029B1A68029B9A4234D0C1
:10153000039B5B6C0493039B1B6C059311E0059B61
:101540001A68059B9A4209D0059B1B689A68049B00
:101550009A4203D9059B1B689B680493059BDB6833
:101560000593059B002BEAD1039B049A9A60029B8A
:101570001846FFF7C5FE03460193029B019A9A6045
:10158000019B1A6C029BDA60019B029A1A64019813
:101590004FF00001FFF784FC03E0029B4FF00002D4
:1015A0009A60FFF7F5F84FF0000383F31188029B70
:1015B000184607B000BD00BFAFF30080AFF3008056
:1015C00000B583B001900091FFF7A2F9019B002BB9
:1015D00005D146F63C30C0F60000FFF729FA019B22
:1015E000DA6B009B42EA0302019BDA63019B93F8EA
:1015F0002030082B07D1019BDA6B019B9B6A02EA22
:101600000303002B0ED1019B93F82030092B10D13E
:10161000019BDA6B019B9B6A02EA0302019B9B6AB6
:101620009A4206D10198FFF733FB03464FF00002C0
:101630009A6203B000BD00BFAFF30080AFF300803B
:1016400000B585B001900091FFF762F9019B002B76
:1016500005D146F65030C0F60000FFF7E9F9019BCE
:101660001B6803930DE0039B5A68039B9968009BDA
:1016700041EA030310461946FFF7A2FF039B1B68CC
:101680000393019B039A9A42EDD105B000BD00BFC0
:1016900082B001900091009A019B1A60009B5A68E9
:1016A000019B5A60019B5B68009A01995160009A06
:1016B00052681A6002B07047AFF30080AFF3008049
:1016C00084B00190019B1B680393039B1A68019BE4
:1016D0001A60019B1B68019A5A60039B184604B06C
:1016E000704700BFAFF30080AFF30080AFF300801E
:1016F00000B583B001900091009B002B02D14FF008
:10170000FF3316E040F67C53C2F20003DB69019A16
:101710009A6240F67C53C2F20003DA69019B1046DC
:101720001946FFF7B5FF4FF00D000099FFF780FB5A
:101730000346184603B000BDAFF30080AFF300804E
:1017400084B00390029101920093039B1A46039B7D
:101750005A60039B5A68039B1A60039B4FF0000278
:101760009A60039B029A5A61039B5A69039B9A6190
:10177000039B9A69039BDA60029A019B1A44039BBC
:101780001A61039B009ADA6104B07047AFF30080DE
:1017900000B583B001900B468DF80330FFF7B8F821
:1017A000019B5A69019B9B699A4206D1019B9B68E8
:1017B000002B02D06FF003032BE0019B9B6803F129
:1017C0000102019B9A60019B5B699DF803201A70DE
:1017D00003F10102019B5A61019B5A69019B1B693C
:1017E0009A4203D3019BDA68019B5A61019B1A68F4
:1017F000019B9A420BD0019B1846FFF761FF0346FD
:101800001846FFF745FA03464FF000029A624FF080
:101810000003184603B000BDAFF30080AFF30080B3
:1018200000B585B0019000914FF0200383F311883B
:10183000FEF78EFF019BDB69002B15D0019BDB6956
:101840000198984711E001980099FFF751FF03466E
:101850000393039B002B08DAFEF79AFF4FF0000377
:1018600083F31188039B25E000BF019B9B68002B3D
:10187000E9D0019B9B6803F1FF32019B9A60019BB9
:101880009B691A788DF80B2003F10102019B9A6184
:10189000019B9A69019B1B699A4203D3019BDA68F9
:1018A000019B9A61FEF774FF4FF0000383F31188E8
:1018B0009DF80B30184605B000BD00BFAFF30080A7
:1018C00000B587B00390029101920093039BDB69FE
:1018D00004934FF000030593019B002B05D146F6BE
:1018E0009030C0F60000FFF7A3F84FF0200383F319
:1018F0001188FEF72DFF049B002B12D0049B039848
:1019000098470FE003980099FFF7F2FE0346002B7B
:1019100008D0FEF73DFF4FF0000383F31188059BCD
:101920003BE000BF039B9B68002BEBD0039B9B68B5
:1019300003F1FF32039B9A60039B9B691978029A1B
:101940001170029A02F10102029203F10102039B5B
:101950009A61039B9A69039B1B699A4203D3039B79
:10196000DA68039B9A61FEF713FF4FF0000383F3DD
:101970001188059B03F101030593019B03F1FF33DC
:101980000193019B002B01D1059B06E04FF0200342
:1019900083F31188FEF7DCFEADE7184607B000BD03
:1019A00084B00390029101920093039B1A46039B1B
:1019B0005A60039B5A68039B1A60039B019A9A60C2
:1019C000039B029A5A61039B5A69039B9A61039B8A
:1019D0009A69039BDA60029A019B1A44039B1A617D
:1019E000039B009ADA6104B0704700BFAFF3008038
:1019F00000B587B003900B4601928DF80B304FF085
:101A0000200383F31188FEF7A3FE10E003980199E9
:101A1000FFF76EFE03460593059B002B07DAFEF7E2
:101A2000B7FE4FF0000383F31188059B2CE0039B66
:101A30009B68002BEAD0039B9B6803F1FF32039B5A
:101A40009A60039B5B699DF80B201A7003F10102F9
:101A5000039B5A61039B5A69039B1B699A4203D3F8
:101A6000039BDA68039B5A61039BDB69002B03D05D
:101A7000039BDB6903989847FEF78AFE4FF000034B
:101A800083F311884FF00003184607B000BD00BF74
:101A900000B585B00190FEF73BFF019B5A69019BA1
:101AA0009B699A4206D1019B9B68002B02D06FF084
:101AB00002032BE0019B9B6803F10102019B9A60EA
:101AC000019B9B691A788DF80F2003F10102019B9D
:101AD0009A61019B9A69019B1B699A4203D3019BFE
:101AE000DA68019B9A61019B1A68019B9A420BD0AC
:101AF000019B1846FFF7E4FD03461846FFF7C8F8B8
:101B000003464FF000029A629DF80F30184605B068
:101B100000BD00BFAFF30080AFF30080AFF30080E3
:101B200000B587B00390029101920093039BDB699B
:101B300004934FF000030593019B002B05D146F65B
:101B4000A430C0F60000FEF773FF4FF0200383F3CC
:101B50001188FEF7FDFD0EE003980099FFF7C8FD20
:101B60000346002B07D0FEF713FE4FF0000383F36C
:101B70001188059B41E0039B9B68002BECD0039BE5
:101B80009B6803F1FF32039B9A60039B5B69029A97
:101B900012781A7003F10102039B5A61029B03F150
:101BA00001030293039B5A69039B1B699A4203D367
:101BB000039BDA68039B5A61049B002B02D0049BB1
:101BC00003989847FEF7E4FD4FF0000383F3118874
:101BD000059B03F101030593019B03F1FF3301937F
:101BE000019B002B01D1059B07E04FF0200383F3FD
:101BF0001188FEF7ADFD00BFBDE7184607B000BD78
:101C000042F2CC23C2F2000303F1070323F00703DF
:101C10001A4640F69C53C2F200031A6045F20003D4
:101C2000C2F2000323F007031A4640F6A053C2F2A3
:101C300000031A60704700BFAFF30080AFF300806D
:101C400008B500F0F5FD47F23010C0F6000002F0D4
:101C5000EFFB00F00DF800F05BF800F051F900F038
:101C6000D7FA02F0E5FC08BDAFF30080AFF30080C7
:101C700008B501F0CDF808BDAFF30080AFF30080E8
:101C800082B00190019B4FF001021A70019B4FF04E
:101C900000025A6002B07047AFF30080AFF30080DB
:101CA00000B583B001900091019B002B02D0009BF6
:101CB000002B05D146F6C030C0F60000FEF7B8FE96
:101CC0004FF0200383F31188FEF742FD019B1B7840
:101CD000012B09D0019B1B78022B05D046F6D03092
:101CE000C0F60000FEF7A4FE019B009A5A6001981E
:101CF00001F096F8019B4FF002021A70FEF748FDC2
:101D00004FF0000383F3118803B000BDAFF30080F0
:101D100008B501F0D5F908BDAFF30080AFF300803E
:101D200082B00190019B4FF001021A70019B4FF0AD
:101D300000025A6002B07047AFF30080AFF300803A
:101D400000B583B001900091019B002B02D0009B55
:101D5000002B05D146F66040C0F60000FEF768FE95
:101D60004FF0200383F31188FEF7F2FC019B1B78F0
:101D7000012B09D0019B1B78022B05D046F66C4045
:101D8000C0F60000FEF754FE019B009A5A600198CD
:101D900001F0D6F9019B4FF002021A70FEF7F8FC31
:101DA0004FF0000383F3118803B000BDAFF3008050
:101DB00000B583B00190019B002B05D146F67C4015
:101DC000C0F60000FEF734FE4FF0200383F31188C5
:101DD000FEF7BEFC019B1B78012B09D0019B1B78F1
:101DE000022B05D046F68840C0F60000FEF720FE24
:101DF000019801F0ADFA019B4FF001021A70FEF755
:101E0000C7FC4FF0000383F3118803B000BD00BF8F
:101E100000B583B001900B46ADF802304FF02003BF
:101E200083F31188FEF794FCBDF80230019819463F
:101E300000F00EF8FEF7ACFC4FF0000383F31188BE
:101E400003B000BDAFF30080AFF30080AFF30080BC
:101E500000B583B001900B46ADF80230FEF758FD97
:101E6000019B002B05D146F6CC40C0F60000FEF7E2
:101E7000DFFD019B1B78022B05D046F6E440C0F63F
:101E80000000FEF7D5FD019B4FF004021A70BDF86B
:101E900002300198194601F0D3FA03B000BD00BF2B
:101EA00000B583B00190FEF733FD019B002B05D1F7
:101EB00046F6FC40C0F60000FEF7BAFD019B1B7819
:101EC000022B0DD0019B1B78032B09D0019B1B78A3
:101ED000042B05D046F61050C0F60000FEF7A8FD12
:101EE000019B4FF002021A70019801F0D1FA03B081
:101EF00000BD00BFAFF30080AFF30080AFF3008000
:101F000008B501F025FF08BDAFF30080AFF30080F6
:101F100082B00190019B4FF001021A70019B4FF0BB
:101F200000025A6002B07047AFF30080AFF3008048
:101F300000B583B001900091019B002B02D0009B63
:101F4000002B05D146F64050C0F60000FEF770FDAC
:101F5000019B1B78012B0DD0019B1B78022B09D014
:101F6000019B1B78052B05D046F65050C0F60000AB
:101F7000FEF75EFD4FF0200383F31188FEF7E8FBC8
:101F8000019B009A5A60019801F00AFF019B4FF0F3
:101F900002021A70FEF7FCFB4FF0000383F3118876
:101FA00003B000BDAFF30080AFF30080AFF300805B
:101FB00000B58BB00790059204930B46ADF81A302C
:101FC000079B002B15D0BDF81A30002B11D0049BB5
:101FD000002B0ED0059B002B0BD00D9B002B05D0AA
:101FE0000D9B002B05D00C9B002B02D00E9B002BD1
:101FF00005D146F69050C0F60000FEF719FD079B8C
:102000001B78022B05D046F6B050C0F60000FEF754
:102010000FFD4FF0200383F31188FEF799FB079B18
:102020004FF000029A60079B4FF003021A70BDF850
:102030001A300C9A00920D9A01920E9A0292079809
:102040001946059A049B01F05BFF03460993099B1F
:10205000B3F1FF3F04D1079B4FF005021A7003E074
:10206000079B4FF002021A70FEF792FB4FF000033D
:1020700083F31188099B18460BB000BDAFF30080B5
:1020800000B585B0039002910192039B03F13003E8
:1020900018460299019A4FF0FF33FFF741FD0346BE
:1020A000184605B000BD00BFAFF30080AFF300805D
:1020B00000B585B0039002910192039B03F11003D8
:1020C00018460299019A4FF0FF33FFF7F9FB0346D8
:1020D000184605B000BD00BFAFF30080AFF300802D
:1020E00082B00190019B9B6B002B14BF0023012346
:1020F000184602B0704700BFAFF30080AFF3008016
:1021000082B00190019B9B69002B14BF0023012327
:10211000184602B0704700BFAFF30080AFF30080F5
:1021200000B585B003900B4601928DF80B30039BF0
:1021300003F130029DF80B3010461946019AFFF763
:1021400057FC0346184605B000BD00BFAFF3008042
:1021500000B583B001900091019B03F11003184674
:102160000099FFF75DFB0346184603B000BD00BFB2
:1021700000B585B00390029101920093039B03F197
:10218000300318460299019A009BFFF7C9FC0346E9
:10219000184605B000BD00BFAFF30080AFF300806C
:1021A00000B585B00390029101920093039B03F167
:1021B000100318460299019A009BFFF781FB034622
:1021C000184605B000BD00BFAFF30080AFF300803C
:1021D00000B585B001904FF0200383F31188FEF71E
:1021E000B7FA019B9B680393019B4FF000029A6032
:1021F000FEF7CEFA4FF0000383F31188039B1846D5
:1022000005B000BDAFF30080AFF30080AFF30080F6
:1022100008B502F0C5F808BDAFF30080AFF3008049
:1022200000B585B0039002910192039A47F27003C2
:10223000C0F600031360039B03F104031A46039BDB
:102240005A60039B4FF000029A60039B4FF001021B
:102250001A73039B03F11002039B03F15003104612
:1022600019464FF40072029BFFF76AFA039B03F1D1
:102270003002039B03F51473104619464FF40072A5
:10228000019BFFF78DFB05B000BD00BFAFF30080E1
:1022900000B583B001900091019B002B05D146F65B
:1022A0001060C0F60000FEF7C3FB4FF0200383F37D
:1022B0001188FEF74DFA019B1B7B012B09D0019B76
:1022C0001B7B022B05D046F61C60C0F60000FEF713
:1022D000AFFB0198009902F07BF8019B4FF00202DE
:1022E0001A73FEF755FA4FF0000383F3118803B019
:1022F00000BD00BFAFF30080AFF30080AFF30080FC
:1023000000B583B001900B468DF80330FEF700FB5B
:10231000019B002B05D146F64860C0F60000FEF791
:1023200087FB019B9B69002B0DD1019B9B6843F0B0
:102330000402019B9A60019B03F1040318464FF0CD
:102340000001FFF77DF9019B03F110029DF80330B6
:1023500010461946FFF71CFA0346002B0DDA019BC5
:102360009B6843F08002019B9A60019B03F1040388
:1023700018464FF00001FFF763F903B000BD00BF3E
:1023800000B583B0FEF764FA4FF00003C4F2020315
:102390001B6803F00F0301934FF00003C4F2020324
:1023A0004FF00F025A6040F6A853C2F200031B68B8
:1023B000002B0CD040F6A853C2F200031A6840F676
:1023C000A853C2F200035B68184601999047FEF7D4
:1023D0006FFAFDF77DFF03B000BD00BFAFF30080D3
:1023E00000B583B0FEF734FA4FF00003C4F20203E5
:1023F0001B684FEA131303F00F0301934FF0000320
:10240000C4F202034FF0F0025A6040F6A853C2F241
:1024100000039B68002B0CD040F6A853C2F20003C7
:102420009A6840F6A853C2F20003DB681846019987
:102430009047FEF73DFAFDF74BFF03B000BD00BF2C
:1024400000B583B0FEF704FA4FF00003C4F20203B4
:102450001B684FEA132303F00F0301934FF00003AF
:10246000C4F202034FF470625A6040F6A853C2F2FD
:1024700000031B69002B0CD040F6A853C2F20003E6
:102480001A6940F6A853C2F200035B691846019925
:102490009047FEF70DFAFDF71BFF03B000BD00BF2C
:1024A00000B583B0FEF7D4F94FF00003C4F2020385
:1024B0001B684FEA133303F00F0301934FF000033F
:1024C000C4F202034FF470425A6040F6A853C2F2BD
:1024D00000039B69002B0CD040F6A853C2F2000306
:1024E0009A6940F6A853C2F20003DB6918460199C5
:1024F0009047FEF7DDF9FDF7EBFE03B000BD00BF2E
:1025000000B583B0FEF7A4F94FF00003C4F2020354
:102510001B684FEA134303F00F0301934FF00003CE
:10252000C4F202034FF470225A6040F6A853C2F27C
:1025300000031B6A002B0CD040F6A853C2F2000324
:102540001A6A40F6A853C2F200035B6A1846019962
:102550009047FEF7ADF9FDF7BBFE03B000BD00BF2D
:1025600000B583B0FEF774F94FF00003C4F2020324
:102570001B684FEA135303F00F0301934FF000035E
:10258000C4F202034FF470025A6040F6A853C2F23C
:1025900000039B6A002B0CD040F6A853C2F2000344
:1025A0009A6A40F6A853C2F20003DB6A1846019902
:1025B0009047FEF77DF9FDF78BFE03B000BD00BF2D
:1025C00000B583B0FEF744F94FF00003C4F20203F4
:1025D0001B684FEA136303F00F0301934FF00003EE
:1025E000C4F202034FF070625A6040F6A853C2F280
:1025F00000031B6B002B0CD040F6A853C2F2000363
:102600001A6B40F6A853C2F200035B6B184601999F
:102610009047FEF74DF9FDF75BFE03B000BD00BF2C
:1026200082B040F6A453C2F200034FF000021A60D9
:102630004FF0000301931CE047F2A002C0F6000235
:1026400001990B464FEA43030B444FEA83031344BB
:102650001B684FF000021A6040F6A853C2F2000354
:10266000019A4FF0000143F83210019B03F101037E
:102670000193019B062BDFDD4FF00003C4F2020340
:102680004FF0FF325A6002B0704700BFAFF30080D6
:1026900000B585B00390029101920093039B002B3B
:1026A00005D146F67060C0F60000FEF7C1F9039B45
:1026B0005B7A4FF0010202FA03F31A4640F6A45384
:1026C000C2F200031B6802EA0303002B02D04FF0A2
:1026D000010361E0039B5B7A1A4640F6A853C2F2FD
:1026E0000003019943F83210039B5B7A40F6A8522D
:1026F000C2F200024FEAC3031344009A5A60039BDC
:102700005B7A4FF0010202FA03F31A4640F6A45333
:10271000C2F200031B6842EA030240F6A453C2F26D
:1027200000031A6040F6A453C2F200031B6803F0D2
:102730007F03002B0BD04FF48053C4F202034FF4FD
:102740008052C4F20202526942F001025A61039BB4
:102750001B68039A1268126822F001021A60039B38
:102760005B68039A127A4FF00F0101FA02F21A60C5
:10277000039B1B684FF000021A60019B002B09D0DD
:10278000039B9B7A1A46029B4FEA03131046194695
:10279000FDF726FE4FF00003184605B000BD00BF50
:1027A0004FF4E043C4F200034FF4E042C4F20002ED
:1027B000126842F480721A604FF48053C4F202032C
:1027C0001B6A03F44073B3F5407F0DD04FF4805380
:1027D000C4F202034FF480321A624FF48053C4F201
:1027E00002034FF000021A624FF48053C4F2020356
:1027F0001B6A03F40043002B17D14FF48053C4F23B
:1028000002034FF48052C4F20202126A42F4407290
:102810001A624FF48053C4F202034FF48052C4F2A0
:102820000202126A42F400421A627047AFF300805B
:1028300008B54FF48053C4F202031B694FF4805370
:10284000C4F202034FF0FF321A614FF48053C4F216
:1028500002034FF000021A614FF48053C4F20203E6
:10286000DB684FF48053C4F202034FF0FF32DA60AA
:102870004FF48053C4F202034FF00002DA604EF2CC
:102880001003CEF2000343F27F22C0F202025A602C
:102890004EF21003CEF200034FF000029A604EF2A7
:1028A0001003CEF200034FF007021A604EF6F05309
:1028B000CEF200034EF6F052CEF20002D26842F0A1
:1028C0008072DA604FF48053CEF200034FF48052EE
:1028D000CEF20002126842F001021A604FF48053F7
:1028E000C4F202034FF48052C4F20202D26942F0F1
:1028F0008052DA614FF48053C4F202034FF48052E5
:10290000C4F20202D26942F00062DA61FFF748FFC6
:10291000FFF786FE08BD00BFAFF30080AFF3008075
:102920004FF48053C4F202034FF48052C4F2020207
:10293000126842F001021A6000BF4FF48053C4F2E3
:1029400002031B6803F00203002BF6D04FF4805300
:10295000C4F202034FF48052C4F20202126802F081
:10296000F9021A604FF48053C4F202034FF00002E0
:102970005A6000BF4FF48053C4F202035B6803F057
:102980000C03002BF6D14FF48053C4F202034FF432
:102990008052C4F20202126842F480321A6000BF10
:1029A0004FF48053C4F202031B6803F40033002B7E
:1029B000F6D04FF48053C4F202034FF48052C4F2B5
:1029C0000202526842F4E8125A604FF48053C4F293
:1029D00002034FF48052C4F20202126842F0807285
:1029E0001A6000BF4FF48053C4F202031B6803F067
:1029F0000073002BF6D04FF48053C4F202034FF45F
:102A0000C842C0F21D025A604FF40053C4F20203E0
:102A10004FF012021A604FF48053C4F202034FF4D5
:102A20008052C4F20202526842F002025A6000BFB1
:102A30004FF48053C4F202035B6803F00C03082BCD
:102A4000F6D17047AFF30080AFF30080AFF30080A2
:102A500008B5FDF7FDFE4FF48063C4F201034FF0AB
:102A600001025A6140F6E053C2F200035B685B6802
:102A700040F6E050C2F200004FF000019847FDF729
:102A800017FFFDF725FC08BDAFF30080AFF3008012
:102A900008B5FDF7DDFE4FF48063C4F201034FF08B
:102AA00002025A6140F6E053C2F200035B68DB6841
:102AB00040F6E050C2F200004FF001019847FDF7E8
:102AC000F7FEFDF705FC08BDAFF30080AFF3008013
:102AD00008B5FDF7BDFE4FF48063C4F201034FF06B
:102AE00004025A6140F6E053C2F200035B685B697E
:102AF00040F6E050C2F200004FF002019847FDF7A7
:102B0000D7FEFDF7E5FB08BDAFF30080AFF3008013
:102B100008B5FDF79DFE4FF48063C4F201034FF04A
:102B200008025A6140F6E053C2F200035B68DB69B9
:102B300040F6E050C2F200004FF003019847FDF765
:102B4000B7FEFDF7C5FB08BDAFF30080AFF3008013
:102B500008B5FDF77DFE4FF48063C4F201034FF02A
:102B600010025A6140F6E053C2F200035B685B6AF0
:102B700040F6E050C2F200004FF004019847FDF724
:102B800097FEFDF7A5FB08BDAFF30080AFF3008013
:102B900000B583B0FDF75CFE4FF48063C4F201031F
:102BA0005B6903F4787301934FF48063C4F201030B
:102BB000019A5A61019B03F02003002B0CD040F6D0
:102BC000E053C2F200035B68DB6A40F6E050C2F2F9
:102BD00000004FF005019847019B03F04003002BD4
:102BE0000CD040F6E053C2F200035B685B6B40F62A
:102BF000E050C2F200004FF006019847019B03F03D
:102C00008003002B0CD040F6E053C2F200035B6857
:102C1000DB6B40F6E050C2F200004FF0070198472E
:102C2000019B03F48073002B0CD040F6E053C2F2FA
:102C300000035B685B6C40F6E050C2F200004FF0AE
:102C400008019847019B03F40073002B0CD040F659
:102C5000E053C2F200035B68DB6C40F6E050C2F266
:102C600000004FF009019847FDF722FEFDF730FB09
:102C700003B000BDAFF30080AFF30080AFF300807E
:102C800000B583B0FDF7E4FD4FF48063C4F20103A7
:102C90005B6903F47C4301934FF48063C4F2010346
:102CA000019A5A61019B03F48063002B0CD040F61B
:102CB000E053C2F200035B685B6D40F6E050C2F285
:102CC00000004FF00A019847019B03F40063002BBA
:102CD0000CD040F6E053C2F200035B68DB6D40F6B7
:102CE000E050C2F200004FF00B019847019B03F443
:102CF0008053002B0CD040F6E053C2F200035B6817
:102D00005B6E40F6E050C2F200004FF00C019847B5
:102D1000019B03F40053002B0CD040F6E053C2F2A9
:102D200000035B68DB6E40F6E050C2F200004FF03B
:102D30000D019847019B03F48043002B0CD040F613
:102D4000E053C2F200035B685B6F40F6E050C2F2F2
:102D500000004FF00E019847019B03F40043002B45
:102D60000CD040F6E053C2F200035B68DB6F40F624
:102D7000E050C2F200004FF00F019847FDF798FDB8
:102D8000FDF7A6FA03B000BDAFF30080AFF30080FB
:102D900008B5FDF75DFD4FF48063C4F201034FF405
:102DA00080325A6140F6E053C2F200035B68D3F808
:102DB000843040F6E050C2F200004FF01001984716
:102DC000FDF776FDFDF784FA08BD00BFAFF3008084
:102DD00008B5FDF73DFD4FF48063C4F201034FF4E5
:102DE00080225A6140F6E053C2F200035B68D3F8D8
:102DF000943040F6E050C2F200004FF012019847C4
:102E0000FDF756FDFDF764FA08BD00BFAFF3008083
:102E100008B540F6E050C2F20000FEF731FF08BDF1
:102E200000B589B00190019B1B78012B3BD14FF07D
:102E300006004FF06001FDF7D3FA4FF007004FF0A6
:102E40006001FDF7CDFA4FF008004FF06001FDF78B
:102E5000C7FA4FF009004FF06001FDF7C1FA4FF0DB
:102E60000A004FF06001FDF7BBFA4FF017004FF07A
:102E70006001FDF7B5FA4FF028004FF06001FDF753
:102E8000AFFA4FF001004FF06001FDF7A9FA4FF0E3
:102E900029004FF06001FDF7A3FA4FF02A004FF030
:102EA0006001FDF79DFA4FF000030393039B049329
:102EB000049B0593059B06934FF0000307934DE099
:102EC000019B5B68079A53F8323003F00403002B30
:102ED00040D0019B5A68079B4FEAC30313445B68C9
:102EE000002B09D0079B4FF0010202FA03F3069A68
:102EF00042EA0303069308E0079B4FF0010202FA3F
:102F000003F3059A42EA03030593019B5B68079A62
:102F100053F8323003F00103DBB2002B08D0079BDB
:102F20004FF0010202FA03F3049A42EA0303049306
:102F3000019B5B68079A53F8323003F00203002BC1
:102F400008D0079B4FF0010202FA03F3039A42EA0A
:102F500003030393079B03F101030793079B122BC2
:102F6000AED94FF00003C4F20103019A5268B2F8DF
:102F700098209A604FF00003C4F20103019A52684E
:102F8000B2F89A20DA604FF00003C4F20103019A0C
:102F90005268B2F89C201A614FF00003C4F201039A
:102FA000019A5268B2F89E205A614FF48063C4F2CD
:102FB00001034FF000021A614FF48063C4F2010371
:102FC000049A9A604FF48063C4F20103039ADA60B2
:102FD0004FF48063C4F201034FF6FF72C0F20702A0
:102FE0005A614FF48063C4F20103059A5A604FF4AA
:102FF0008063C4F20103069A1A6009B000BD00BFE5
:1030000000B583B00190019BDB684FF000021A828B
:10301000019B1B78042B06D1019B4FF002021A7012
:10302000019800F035FA019B5B685B68019898474E
:1030300003B000BDAFF30080AFF30080AFF30080BA
:1030400008B5FDF705FC40F6E850C2F20000FFF7B6
:10305000D7FFFDF72DFCFDF73BF908BDAFF300806E
:1030600008B5FDF7F5FB40F6F850C2F20000FFF797
:10307000C7FFFDF71DFCFDF72BF908BDAFF300807E
:1030800008B5FDF7E5FB40F60860C2F20000FFF767
:10309000B7FFFDF70DFCFDF71BF908BDAFF300808E
:1030A00008B5FDF7D5FB40F61860C2F20000FFF747
:1030B000A7FFFDF7FDFBFDF70BF908BDAFF300809F
:1030C00008B540F6E853C2F200034FF43052C4F2A0
:1030D0000102DA6040F6E850C2F20000FEF720FE7E
:1030E00040F6F853C2F200034FF08042DA6040F637
:1030F000F850C2F20000FEF713FE40F60863C2F279
:1031000000034FF48062C4F20002DA6040F6086007
:10311000C2F20000FEF704FE40F61863C2F200039C
:103120004FF40062C4F20002DA6040F61860C2F2A6
:103130000000FEF7F5FD08BDAFF30080AFF300809F
:1031400000B585B00190019B1B78012B40F0C88031
:10315000019A40F6E853C2F200039A422AD14FF492
:103160008053C4F202034FF48052C4F20202926907
:1031700042F400629A614FF48053C4F202034FF4A8
:103180008052C4F20202D26842F40062DA604FF464
:103190008053C4F202034FF00002DA604FF01900CE
:1031A0004FF07001FDF71CF9019A4FF42243C0F271
:1031B0004A439360019A40F6F853C2F200039A42E0
:1031C0002AD14FF48053C4F202034FF48052C4F268
:1031D0000202D26942F00102DA614FF48053C4F274
:1031E00002034FF48052C4F20202126942F001025B
:1031F0001A614FF48053C4F202034FF000021A61C7
:103200004FF01C004FF07001FDF7EAF8019A4FF4FF
:103210002243C0F24A439360019A40F60863C2F227
:1032200000039A422AD14FF48053C4F202034FF4B0
:103230008052C4F20202D26942F00202DA614FF413
:103240008053C4F202034FF48052C4F202021269A6
:1032500042F002021A614FF48053C4F202034FF0AD
:1032600000021A614FF01D004FF07001FDF7B8F831
:10327000019A4FF42243C0F24A439360019A40F608
:103280001863C2F200039A422AD14FF48053C4F269
:1032900002034FF48052C4F20202D26942F00402E7
:1032A000DA614FF48053C4F202034FF48052C4F247
:1032B0000202126942F004021A614FF48053C4F210
:1032C00002034FF000021A614FF01E004FF0700130
:1032D000FDF786F8019A4FF42243C0F24A43936007
:1032E000019B9A68019B5B681B68B2FBF3F39BB27E
:1032F00003F1FF33ADF80E30BDF80E3003F10103DA
:10330000019A5268126802FB03F2019B9B689A4281
:1033100005D046F6B060C0F60000FDF789FB019BC2
:10332000DB684FF000021A80019BDB684FF0080257
:103330009A80019BDB68BDF80E201A85019BDB6833
:103340004FF000029A8105B000BD00BFAFF30080CE
:1033500000B583B00190019B1B78022B6AD1019BC1
:10336000DB684FF000021A80019BDB684FF000021F
:103370009A81019BDB684FF000021A82019A40F6A5
:10338000E853C2F200039A420FD14FF01900FDF743
:103390007FF84FF48053C4F202034FF48052C4F21A
:1033A0000202926922F400629A61019A40F6F8538F
:1033B000C2F200039A420FD14FF01C00FDF768F8EB
:1033C0004FF48053C4F202034FF48052C4F202025D
:1033D000D26922F00102DA61019A40F60863C2F272
:1033E00000039A420FD14FF01D00FDF751F84FF442
:1033F0008053C4F202034FF48052C4F20202D26935
:1034000022F00202DA61019A40F61863C2F2000368
:103410009A420FD14FF01E00FDF73AF84FF4805357
:10342000C4F202034FF48052C4F20202D26922F0C5
:103430000402DA6103B000BDAFF30080AFF3008097
:1034400082B001900B46ADF80230019BDB68BDF8FD
:10345000022002F1FF32DA62019BDB684FF00102C9
:103460009A82019BDB684FF000025A62019BDB6885
:103470004FF000021A82019BDB684FF001029A8133
:10348000019BDB684FF005021A8002B0704700BF55
:1034900082B00190019BDB684FF000021A80019B13
:1034A000DB684FF000021A82019BDB684FF00002DC
:1034B0009A8102B0704700BFAFF30080AFF3008085
:1034C00084B00190019B1B6A0393039B4FF400425D
:1034D0001A80039B4FF000021A80039B4FF00002FA
:1034E0009A80039B4FF000029A82019BDB691B6864
:1034F000019AD2691268126822F001021A60019BD7
:10350000DB695B68019AD269127A4FF00F0101FA08
:1035100002F21A60019B9B691B68019A926912680A
:10352000126822F001021A60019B9B695B68019A94
:103530009269127A4FF00F0101FA02F21A6004B098
:10354000704700BFAFF30080AFF30080AFF300809F
:1035500000B585B00190019B0393039BDB68002BB2
:1035600010D0039BDB6802930398FFF7A9FF039B2E
:103570004FF00002DA60029B4FF0FF329A6202982D
:10358000FDF786FB05B000BDAFF30080AFF3008010
:1035900000B587B00190019B1B6A0493019B5B6897
:1035A0005B680393019B5B681B7A8DF80B30019B72
:1035B000002B09D0039B002B06DD039A4FF4106308
:1035C000C0F23D039A4205DD46F6D060C0F6000029
:1035D000FDF72EFA049B9B889BB223F03F039AB21F
:1035E000049B9A80049B9B889BB243F024039AB26D
:1035F000049B9A804FF00003ADF8163040F6FF733D
:10360000ADF81430039A48F2A063C0F201039A4265
:1036100046DC9DF80B30012B05D046F6E860C0F67D
:103620000000FDF705FA039B4FEA43024FF4A24363
:10363000C0F2252393FBF2F102FB01F2C2EB03037C
:10364000002B05D046F60070C0F60000FDF7F0F93B
:10365000039B4FEA43024FF4A243C0F2252393FB9E
:10366000F2F3ADF81430BDF81430032B05D846F64C
:103670001870C0F60000FDF7DBF9BDF814304FEA12
:1036800003534FEA13539AB2BDF8163042EA0303CC
:103690009BB2ADF81630049B4FF025021A8493E0DC
:1036A000039A4FF4D453C0F206039A4200F38C807D
:1036B0009DF80B30022B09D09DF80B30032B05D061
:1036C00046F63070C0F60000FDF7B2F99DF80B30F9
:1036D000022B24D1039A13464FEA43031A444FF4B2
:1036E000A243C0F2252393FBF2F102FB01F2C2EBED
:1036F0000303002B05D046F64870C0F60000FDF726
:1037000097F9039A13464FEA43031A444FF4A2432E
:10371000C0F2252393FBF2F3ADF8143033E09DF8AB
:103720000B30032B2FD1039A13464FEA8303134424
:103730004FEA83021A444FF4A243C0F2252393FBBD
:10374000F2F102FB01F2C2EB0303002B05D046F6B7
:103750006070C0F60000FDF76BF9039A13464FEA5C
:10376000830313444FEA83021A444FF4A243C0F286
:10377000252393FBF2F3ADF81430BDF8163043F473
:103780008043ADF81630BDF81430002B05D146F655
:103790007870C0F60000FDF74BF9BDF814304FEA21
:1037A00003534FEA13539BB26FEA43436FEA534309
:1037B0009AB2BDF8163042EA03039BB2ADF8163058
:1037C000049B4FF00B021A84BDF8142040F6FF73DF
:1037D0009A4205D946F69070C0F60000FDF728F928
:1037E000049BBDF816209A8307B000BDAFF300809C
:1037F00086B00190019B1B6A0493019B5B681B7858
:103800008DF80F30049B1B88ADF816309DF80F30F3
:10381000022B0AD0032B15D0012B1AD1BDF816307C
:1038200023F00A03ADF8163013E0BDF8163043F06C
:103830000203ADF81630BDF8163023F00803ADF8DA
:10384000163006E0BDF8163043F00A03ADF8163026
:1038500000BF049BBDF816201A8006B0704700BF59
:1038600000B587B00190019B1B6A0593059B1B8BDC
:103870009BB20493059B9B8A9BB20393049B4FEAE4
:103880000342039B42EA030323F07F434FF002020B
:10389000C0F2030293421ED04FF00202C0F20302B4
:1038A000934206D84FF00102C0F2030293420DD0BA
:1038B00093E04FF08202C0F20702934234D04FF0FF
:1038C0008402C0F20702934241D086E0019B1A8A2B
:1038D000059B1A8281E0059B9B889BB223F40073B1
:1038E0009AB2059B9A80019B9B691B68019A926919
:1038F0001268126842F001021A60059B9B889BB215
:1039000043F480539AB2059B9A80019B9B691B6884
:103910005B68012B60D8059B1B889BB223F48063F6
:103920009AB2059B1A8058E0059B9B889BB223F4B2
:1039300000739AB2059B9A80019BDB691B68019A10
:10394000D2691268126842F001021A6045E0019BD8
:103950009B691B685B68002B0FD0019B1B8A43F09F
:1039600001039AB2019B1A82059B1B889BB243F408
:10397000A0639AB2059B1A8036E0059B9B889BB298
:1039800023F400739AB2059B9A80059B1B889BB217
:1039900043F400739AB2059B1A804FF0200383F31F
:1039A0001188FCF715FF019BDB68002B0DD0019BF4
:1039B000DB680293019B4FF00002DA60029B4FF03C
:1039C00000029A620298FDF763F9FCF721FF4FF0BD
:1039D000000383F3118800E000BF039B03F00A0398
:1039E000002B01D0059B1B8B07B000BDAFF30080FF
:1039F00000B585B001900091019B1B6A0393009B69
:103A000003F00803002B01D0FCF702FC019B9B692B
:103A10001B68019A92691268126822F001021A600A
:103A2000019B9B695B68019A9269127A4FF00F01C2
:103A300001FA02F21A60039B9B889BB223F4805325
:103A40009AB2039B9A80039B1B889BB223F48063EA
:103A50009AB2039B1A80039B1B889BB243F40073AA
:103A60009AB2039B1A804FF0200383F31188FCF76E
:103A7000AFFE019BDB68002B0DD0019BDB6802933E
:103A8000019B4FF00002DA60029B4FF000029A6245
:103A90000298FDF7FDF8FCF7BBFE4FF0000383F33F
:103AA000118805B000BD00BFAFF30080AFF3008008
:103AB00000B585B001900091019B1B6A0393009BA8
:103AC00003F00803002B01D0FCF7A2FB019BDB698C
:103AD0001B68019AD2691268126822F001021A600A
:103AE000019BDB695B68019AD269127A4FF00F0182
:103AF00001FA02F21A60039B9B889BB243F40073A5
:103B00009AB2039B9A8005B000BD00BFAFF300805E
:103B100000B587B00190019B1B6A04934FF020030E
:103B200083F31188FCF754FE019BDB691B68019A43
:103B3000D2691268126822F001021A60019BDB69E7
:103B40005B68019AD269127A4FF00F0101FA02F212
:103B50001A60019B9B691B68019A9269126812683E
:103B600022F001021A60019B9B695B68019A9269CD
:103B7000127A4FF00F0101FA02F21A60FCF748FEC8
:103B80004FF0000383F311884FF000030593049B6B
:103B90009B8A9BB203F48073002B0BD0049B9B8AFF
:103BA0009BB223F480739AB2049B9A82059B43F0E4
:103BB00001030593049B9B8A9BB203F40073002BC3
:103BC0000BD0049B9B8A9BB223F400739AB2049B94
:103BD0009A82059B43F002030593049B9B8A9BB248
:103BE00003F48063002B1BD0049B9B8A9BB223F4BD
:103BF00080639AB2049B9A82049B9B889BB223F4B5
:103C000000739AB2049B9A80049B1B889BB243F476
:103C100000739AB2049B1A80059B43F0040305933A
:103C2000049B9B8A9BB203F40063002B0BD0049B84
:103C30009B8A9BB223F400639AB2049B9A82059BF1
:103C400043F008030593049B9B8A9BB203F48053C3
:103C5000002B0BD0049B9B8A9BB223F480539AB217
:103C6000049B9A82059B43F010030593049B9B8A57
:103C70009BB203F48043002B0BD0049B9B8A9BB226
:103C800023F480439AB2049B9A82059B43F020035D
:103C90000593049B9B8A9BB29BB21BB2002B0DDA4F
:103CA000049B9B8A9BB24FEA43434FEA53439AB229
:103CB000049B9A82059B43F040030593059B002BD0
:103CC00020D0019B059A9A604FF0200383F311885E
:103CD000FCF77EFD019BDB68002B0DD0019BDB68B0
:103CE0000393019B4FF00002DA60039B6FF0010227
:103CF0009A620398FCF7CCFFFCF78AFD4FF00003B3
:103D000083F3118807B000BDAFF30080AFF30080EC
:103D100008B5FCF79DFD40F62860C2F20000FFF7F1
:103D20009FFDFCF7C5FDFCF7D3FA08BDAFF300809B
:103D300008B5FCF78DFD40F62860C2F20000FFF7E1
:103D4000E7FEFCF7B5FDFCF7C3FA08BDAFF3008052
:103D500008B540F62860C2F20000FEF7D9F840F638
:103D60002863C2F200034FF00002DA6040F62863D5
:103D7000C2F200034FF4A842C4F200021A6240F6F5
:103D80002863C2F20003044A9A6140F62863C2F233
:103D90000003024ADA6108BDE8700008DC70000820
:103DA00000B585B00190019B1B6A0393019B4FF006
:103DB0008A025A61019B1B78012B67D1019A40F658
:103DC0002863C2F200039A4260D14FF48053C4F2D8
:103DD00002034FF48052C4F20202126942F400124C
:103DE0001A614FF48053C4F202034FF000021A61CB
:103DF000019B9A6943F6F113C0F6000310464FF099
:103E00000A011A46019BFEF743FC03460293029BFC
:103E1000002B05D046F6A870C0F60000FCF708FE9F
:103E2000019BDA6943F6B123C0F6000310464FF058
:103E30000A011A46019BFEF72BFC03460293029BE4
:103E4000002B05D046F6BC70C0F60000FCF7F0FD74
:103E50004FF48053C4F202034FF48052C4F20202C2
:103E6000D26942F40012DA614FF01F004FF0A00156
:103E7000FCF7B6FA4FF020004FF0A001FCF7B0FAC3
:103E8000019B5B6943F48052019B5A61019BDB6992
:103E90001B68019A526942F010021A60019B9B69EB
:103EA0001B68019A52691A60019B9B691B68039AFF
:103EB00002F110029A60019BDB691B68039A02F110
:103EC00010029A60039B4FF400421A80039B4FF04C
:103ED00000021A80039B4FF410629A800198FFF74A
:103EE00057FB0198FFF784FC039B1B889BB243F0B0
:103EF00001039AB2039B1A8005B000BDAFF30080A6
:103F000000B58BB00390019200930B46ADF80A30D8
:103F1000039B1B6A09930D9B002B0BD00D9B012B60
:103F200002D90C9B002B05D146F6F470C0F60000B8
:103F3000FCF77EFD0E9BB3F1FF3F09D004AB1846A2
:103F40000E9943F25152C0F60002039BFCF7A8FD04
:103F5000FCF71EFC4FF0000383F31188BDF80A3014
:103F60004FEA43039AB2039B1A82039B4FF000026D
:103F70009A60039BDB691B68019ADA60039BDB692B
:103F80001B68009A5A60039B9B691B680C9ADA6055
:103F9000039B9B691B680D9A5A6015E04FF0200344
:103FA00083F31188FCF7D4FB0E9BB3F1FF3F05D0E0
:103FB000079B002B02D14FF0FF334FE0FCF7E8FBEB
:103FC0004FF0000383F31188099B1B8B9BB203F016
:103FD0000203002BE2D1099B1B889BB203F4007300
:103FE000002BDBD14FF0200383F31188FCF7B0FBEB
:103FF0000E9BB3F1FF3F05D0079B002B02D14FF082
:10400000FF332BE0099B9B889BB243F400739AB269
:10401000099B9A80099B1B889BB243F480739AB2D8
:10402000099B1A8040F67C53C2F20003DA69039BB5
:10403000DA604FF00200FCF76BFE0E9BB3F1FF3F1E
:1040400006D0079B002B03D004AB1846FCF780FD7D
:1040500040F67C53C2F20003DB699B6A18460BB042
:1040600000BD00BFAFF30080AFF30080AFF300806E
:1040700084B001900091019BD3F850340393019BCD
:10408000D3F850244FF46053C4F201039A420BD189
:10409000009B1A684FF4A243C0F22523B3FBF2F34E
:1040A0009AB2039B1A810AE0009B1A684FF4A2435C
:1040B000C0F22523B3FBF2F39AB2039B1A81009B53
:1040C0009B8843F4045343F02C039AB2039B9A81D8
:1040D000009BDB8843F040039AB2039B1A82009B4B
:1040E0001B8943F001039AB2039B9A82039B4FF012
:1040F00000021A80039B1B88039B9B8804B07047B7
:1041000000B585B001900B46ADF802304FF00003CA
:104110000393BDF8023003F00803002B03D0039B88
:1041200043F080030393BDF8023003F00103DBB2D8
:10413000002B03D0039B43F020030393BDF8023010
:1041400003F00203002B03D0039B43F040030393CF
:10415000BDF8023003F00403002B03D0039B43F4AB
:10416000807303934FF0200383F31188FCF730FB37
:10417000019B9A68039B42EA0302019B9A60019BA0
:1041800003F1040318464FF00001FDF759FAFCF75C
:104190003FFB4FF0000383F3118805B000BD00BF63
:1041A00000B587B00190019BD3F850340593059B6F
:1041B0009B89ADF81230059B1B88ADF81030059B2C
:1041C0009B88ADF80E30BDF8103003F00F03002BC4
:1041D00005D0BDF8103001981946FFF791FFBDF8E2
:1041E000103003F48073002B21D04FF0200383F3B1
:1041F0001188FCF7EDFA019B9B6843F40072019B68
:104200009A60019B03F1040318464FF00001FDF78B
:1042100017FAFCF7FDFA4FF0000383F31188059BB2
:104220001B889BB223F480739AB2059B1A80BDF859
:10423000103003F02003002B12D04FF0200383F343
:104240001188FCF7C5FABDF80E30DBB201981946AB
:10425000FEF756F8FCF7DCFA4FF0000383F3118801
:10426000BDF8123003F08003002B3AD0BDF81030B7
:1042700003F08003002B34D04FF0200383F3118828
:10428000FCF7A6FA019B03F130031846FDF700FC8A
:1042900003460293029B002B19DA019B9B6843F0B3
:1042A0000802019B9A60019B03F1040318464FF03A
:1042B0000001FDF7C5F9BDF8123023F0C0039BB231
:1042C00043F040039BB29AB2059B9A8103E0029BA4
:1042D0009AB2059B9A80FCF79BFA4FF0000383F398
:1042E0001188BDF8103003F04003002B28D04FF0A8
:1042F000200383F31188FCF76BFA019B9B6843F062
:104300001002019B9A60019B03F1040318464FF0D1
:104310000001FDF795F9FCF77BFA4FF0000383F3FA
:104320001188BDF8123023F040039AB2059B9A81A0
:10433000059B1B889BB223F040039AB2059B1A8011
:1043400007B000BDAFF30080AFF30080AFF3008093
:1043500082B001904FF46053C4F201034FF46052F5
:10436000C4F20102928992B242F0800292B29A8122
:1043700002B07047AFF30080AFF30080AFF300806E
:1043800008B5FCF765FA40F64C60C2F20000FFF792
:1043900007FFFCF78DFAFBF79BFF08BDAFF300802A
:1043A00008B540F64C60C2F200004FF0000144F244
:1043B0005132C0F60002FDF733FF40F64C63C2F203
:1043C00000034FF46052C4F20102C3F8502408BD48
:1043D00000B583B001900091009B002B04D147F2FF
:1043E0000013C0F600030093019B1B7B012B18D127
:1043F000019A40F64C63C2F200039A4211D14FF485
:104400008053C4F202034FF48052C4F20202926954
:1044100042F480429A614FF025004FF0C001FBF753
:10442000DFFF01980099FFF723FE03B000BD00BF36
:1044300082B001904FF48053C4F202034FF48052D3
:10444000C4F20202926942F07D029A614FF4006365
:10445000C4F20103019A1268DA604FF40063C4F2F7
:104460000103019A92685A604FF40063C4F2010399
:10447000019A52681A604FF44063C4F20103019A32
:10448000D268DA604FF44063C4F20103019A5269C2
:104490005A604FF44063C4F20103019A12691A6032
:1044A0004FF48053C4F20103019A9269DA604FF429
:1044B0008053C4F20103019A126A5A604FF4805388
:1044C000C4F20103019AD2691A604FF4A053C4F2F6
:1044D0000103019A526ADA604FF4A053C4F2010357
:1044E000019AD26A5A604FF4A053C4F20103019AB0
:1044F000926A1A604FF4C053C4F20103019A126B1E
:10450000DA604FF4C053C4F20103019A926B5A600F
:104510004FF4C053C4F20103019A526B1A6002B007
:10452000704700BFAFF30080AFF30080AFF30080AF
:104530008AB0039002910192019B032B03D1039B4C
:10454000029A1A6105E0019B042B02D1039B029A97
:104550005A6147F21013C0F60003019A13441B7806
:1045600004934FF000030693069B0793079B089361
:10457000089B09934FF00003059335E0089B4FEA31
:1045800003130893099B4FEA03130993069B4FEA11
:1045900003130693079B4FEA03130793029B03F051
:1045A0008003002B04D1089B43F00F03089304E021
:1045B000069A049B42EA03030693029B03F400431A
:1045C000002B04D1099B43F00F03099304E0079AE1
:1045D000049B42EA03030793029B4FEA43030293BF
:1045E000059B03F101030593059B072BC6D9039B8C
:1045F0005A68099B02EA0302079B42EA0302039BF3
:104600005A60039B1A68089B02EA0302069B42EA6F
:104610000302039B1A600AB0704700BFAFF300802B
:1046200008B5FEF77DF908BDAFF30080AFF3008059
:10463000704700BFAFF30080AFF30080AFF300809E
:1046400082B00190019B1B7C03F00103DBB2002BC5
:1046500012D0019B1B7CC3F38003DBB2002B0BDD6C
:10466000019B1A68019B5B68C3EB0202019B1A6005
:10467000019B4FF000025A6002B07047AFF3008018
:1046800082B00190009141F2A023C2F200031A7C93
:1046900042F001021A7441F2A023C2F200031A6828
:1046A00041F2A023C2F200035A6002B0704700BF7B
:1046B00082B00190009141F2A023C2F2000393F86E
:1046C000242042F0010283F8242041F2A023C2F208
:1046D00000035A6941F2A023C2F200039A6102B0BA
:1046E000704700BFAFF30080AFF30080AFF30080EE
:1046F00000B583B0019000914FF0FF3000F098FFBB
:104700004FF0200383F31188FCF762F802F080F881
:1047100040F6E850C2F20000FDF7C2FB40F6F85048
:10472000C2F20000FDF7BCFB40F60860C2F20000D8
:10473000FDF7B6FB40F61860C2F20000FDF7B0FBD3
:10474000FCF766F84FF0000383F3118803B000BD57
:1047500010B58EB0019002AB0D9341F2C820C2F2A9
:1047600000004FF0FF31FDF75BF80346DAB20D9B16
:104770001A700D9B03F1010441F2C820C2F200003F
:104780004FF0FF31FDF74CF80346DBB223700D9B71
:1047900003F1020441F2C820C2F200004FF0FF31E1
:1047A000FDF73EF80346DBB223700D9B03F10304D3
:1047B00041F2C820C2F200004FF0FF31FDF730F89F
:1047C0000346DBB2237041F2A023C2F200030C9334
:1047D0004FF0200383F31188FBF7BAFF029A0C9B7A
:1047E0001B68C3EB02030B93FBF7D2FF4FF00003F0
:1047F00083F311880B9B002B02DD4FF0010301E0D6
:104800004FF0FF330A930B9B002BB8BF5B420B9317
:104810000A9800F025FF4FF0010000F051FF4FF023
:104820001900FCF7D5FC40F60003C2F200031A6839
:1048300048F2A063C0F2010393FBF2F309930B9BD0
:104840004FEAD37213444FEA630308934FF02003F7
:1048500083F31188FBF77CFF0A9B002BD4BF002356
:104860000123D9B20C9A137C61F3820313740C9B5D
:10487000099ADA600C9B0B9A9A60FBF789FF4FF05C
:10488000000383F31188099B9BB240F6E850C2F203
:1048900000001946FDF7BCFA4FF0200383F311889E
:1048A000FBF756FF0C9B9B680793FBF771FF4FF0DC
:1048B000000383F311880B9A079BC3EB0203069353
:1048C000069B0593059A089B9A4204DD0B9A059B6B
:1048D000C3EB020300E0059B059340F60003C2F220
:1048E00000031A6840F60003C2F200031B6803FBD2
:1048F00002F240F60803C2F200031B684FEA4303CA
:10490000059901FB03F31344184600F049FF0346E1
:10491000049340F60403C2F200031B68049A9A420F
:10492000B8BF1346049348F2A063C0F20103049A8F
:1049300093FBF2F30993099B022BB8BF022309935F
:104940004FF0200383F31188FBF702FF0C9B099AB9
:10495000DA60FBF71DFF4FF0000383F3118841F28B
:10496000F420C2F200004FF00001FCF759FF0346AB
:104970000393039BB3F1FF3F34D040F6E850C2F2FB
:104980000000FDF715FA40F6F850C2F20000FDF7FE
:104990000FFA4FF44063C4F201039B6803F0010374
:1049A000DBB2002B23D04FF44063C4F201034FF07D
:1049B00001025A610C9B9B6803F1FF320C9B9A60C9
:1049C0000C9B1A680C9B1B7CC3F38003DBB2002B8F
:1049D00002DD4FF0010301E04FF0FF331A440C9B5E
:1049E0001A6005E0079B002B3FF756AF00E000BFC1
:1049F0004FF01900FCF7ECFB4FF0200383F3118814
:104A0000FBF7A6FE41F2A023C2F2000393F8243084
:104A100003F00203DBB2002B05D14FF0FF3000F0B2
:104A20004FFE00F065FEFBF7B3FE4FF0000383F38B
:104A300011884FF0200383F31188FBF789FE0C9A4D
:104A4000137C6FF3410313740C98FFF7F9FDFBF728
:104A50009FFE4FF0000383F311887CE6AFF30080E4
:104A600010B58EB0019002AB0D9341F21830C2F236
:104A700000004FF0FF31FCF7D3FE0346DAB20D9B86
:104A80001A700D9B03F1010441F21830C2F20000CC
:104A90004FF0FF31FCF7C4FE0346DBB223700D9BE1
:104AA00003F1020441F21830C2F200004FF0FF316E
:104AB000FCF7B6FE0346DBB223700D9B03F1030443
:104AC00041F21830C2F200004FF0FF31FCF7A8FEAF
:104AD0000346DBB22370A44B0C934FF0200383F307
:104AE0001188FBF735FE029A0C9B1B68C3EB02038F
:104AF0000B93FBF74DFE4FF0000383F311880B9BE4
:104B0000002B02DD4FF0010301E04FF0FF330A9369
:104B10000B9B002BB8BF5B420B930A9800F0B8FDCB
:104B20004FF0010000F0CCFD4FF01900FCF750FBF6
:104B300040F60003C2F200031A6848F2A063C0F214
:104B4000010393FBF2F309930B9B4FEAD3721344D7
:104B50004FEA630308934FF0200383F31188FBF7B8
:104B6000F7FD0A9B002BD4BF00230123D9B20C9A76
:104B7000137C61F3820313740C9B099ADA600C9B1B
:104B80000B9A9A60FBF704FE4FF0000383F3118841
:104B9000099B9BB240F60860C2F200001946FDF77F
:104BA00037F94FF0200383F31188FBF7D1FD0C9BFD
:104BB0009B680793FBF7ECFD4FF0000383F311882C
:104BC0000B9A079BC3EB02030693069B0593059A7A
:104BD000089B9A4204DD0B9A059BC3EB020300E09D
:104BE000059B059340F60003C2F200031A6840F6E5
:104BF0000003C2F200031B6803FB02F240F6080345
:104C0000C2F200031B684FEA4303059901FB03F35B
:104C10001344184600F0C4FD0346049340F6040311
:104C2000C2F200031B68049A9A42B8BF1346049369
:104C300048F2A063C0F20103049A93FBF2F30993D4
:104C4000099B022BB8BF022309934FF0200383F383
:104C50001188FBF77DFD0C9B099ADA60FBF798FD44
:104C60004FF0000383F3118841F2F420C2F20000F8
:104C70004FF00001FCF7D4FD03460393039BB3F10F
:104C8000FF3F36D040F60860C2F20000FDF790F812
:104C900040F61860C2F20000FDF78AF84FF4006396
:104CA000C4F201039B684FEA530303F00103DBB234
:104CB000002B23D04FF40063C4F201034FF0020233
:104CC0005A610C9B9B6803F1FF320C9B9A600C9B12
:104CD0001A680C9B1B7CC3F38003DBB2002B02DD44
:104CE0004FF0010301E04FF0FF331A440C9B1A60B0
:104CF00005E0079B002B3FF754AF00E000BF4FF0EB
:104D00001900FCF765FA4FF0200383F31188FBF7D5
:104D10001FFD41F2A023C2F200031B7C03F002033B
:104D2000DBB2002B05D14FF0FF3000F0C9FC00F0E2
:104D3000DFFCFBF72DFD4FF0000383F311884FF0EC
:104D4000200383F31188FBF703FD0C9A137C6FF3A8
:104D5000410313740C98FFF773FCFBF719FD4FF038
:104D6000000383F311887EE6B4120020AFF30080C5
:104D700000B585B0019041F2A023C2F20003039375
:104D8000039B9B68002B34DD4FF44063C4F20103A6
:104D90004FF001021A614FF0200383F31188FBF7F3
:104DA00017FD40F6F853C2F200031B78022B10D116
:104DB000039BDB684FEAD37213444FEA6303029309
:104DC000029B9BB240F6F850C2F200001946FDF774
:104DD0003FF8039BDB689BB240F6E850C2F200004C
:104DE0001946FDF735F8FBF713FD4FF0000383F389
:104DF000118805B000BD00BFAFF30080AFF30080A5
:104E000084B0019041F2A023C2F2000303934FF457
:104E10004063C4F201034FF001025A61039B9B6897
:104E200003F1FF32039B9A60039B1A68039B1B7C70
:104E3000C3F38003DBB2002B02DD4FF0010301E07E
:104E40004FF0FF331A44039B1A6004B0704700BF51
:104E500000B585B001901E4B0393039B9B68002B0C
:104E600034DD4FF40063C4F201034FF002021A6113
:104E70004FF0200383F31188FBF7AAFC40F6186378
:104E8000C2F200031B78022B10D1039BDB684FEAB0
:104E9000D37213444FEA63030293029B9BB240F622
:104EA0001860C2F200001946FCF7D2FF039BDB68D2
:104EB0009BB240F60860C2F200001946FCF7C8FF3A
:104EC000FBF7A6FC4FF0000383F3118805B000BD8B
:104ED000B4120020AFF30080AFF30080AFF3008086
:104EE00084B00190104B03934FF40063C4F20103AC
:104EF0004FF002025A61039B9B6803F1FF32039B50
:104F00009A60039B1A68039B1B7CC3F38003DBB28C
:104F1000002B02DD4FF0010301E04FF0FF331A4494
:104F2000039B1A6004B07047B4120020AFF30080F6
:104F300000B587B0019000916B4605934FF02003B8
:104F400083F31188FBF704FC019B002BD4BF0023E3
:104F50000123049341F2A022C2F2000204990B46FD
:104F60004FEA83030B444FEA8303134403F1100217
:104F700013786FF30003137041F2A022C2F2000213
:104F800004990B464FEA83030B444FEA830313440F
:104F900003F11002137843F002031370019B002BFE
:104FA00004DD41F21833C2F2000303E041F2C823EA
:104FB000C2F200030393059B1B7803981946FCF784
:104FC000E7FB059B03F101031B7803981946FCF7E7
:104FD000DFFB059B03F102031B7803981946FCF7DE
:104FE000D7FB059B03F103031B7803981946FCF7D5
:104FF000CFFBFBF7CDFB4FF0000383F3118807B025
:1050000000BD00BFAFF30080AFF30080AFF30080BE
:1050100000B583B04FF40060C4F201004FF02001EE
:105020004FF00202FFF784FA4FF44060C4F201002F
:105030004FF480714FF00202FFF77AFA4FF44060AC
:10504000C4F201004FF480514FF00202FFF770FAF2
:1050500041F2C820C2F2000041F2E821C2F2000190
:105060004FF00C024FF00003FCF76AFB41F2F42012
:10507000C2F2000041F21431C2F200014FF003020B
:105080004FF00003FCF75CFB41F21830C2F2000065
:1050900041F23831C2F200014FF00C024FF0000330
:1050A000FCF74EFB41F24430C2F2000041F26431A1
:1050B000C2F200014FF003024FF00003FCF740FB87
:1050C0004FF44060C4F201004FF480514FF00202EF
:1050D000FFF72EFA4FF40060C4F201004FF02001F8
:1050E0004FF00202FFF724FA4FF44060C4F20100CF
:1050F0004FF480714FF00202FFF71AFA40F6E050C9
:10510000C2F2000047F27011C0F60001FCF7C8FDC2
:1051100040F6E850C2F2000047F21021C0F600014C
:10512000FCF70EFE40F6F850C2F2000047F22021D4
:10513000C0F60001FCF704FE40F60860C2F2000071
:1051400047F23021C0F60001FCF7FAFD40F6186086
:10515000C2F2000047F24021C0F60001FCF7F0FD6A
:105160004FF44063C4F201034FF001025A614FF45F
:105170004060C4F201004FF001014FF00602FFF75A
:10518000D7F94FF40063C4F201034FF002025A61F1
:105190004FF40060C4F201004FF002014FF006022C
:1051A000FFF7C6F94FF44063C4F201034FF4806285
:1051B0005A614FF40063C4F201034FF040025A6198
:1051C0004FF40063C4F201034FF080025A614FF4C0
:1051D0004063C4F201034FF400521A614FF440607F
:1051E000C4F201004FF480614FF00602FFF7A0F90E
:1051F0004FF40060C4F201004FF040014FF006028E
:10520000FFF796F94FF40060C4F201004FF08001FF
:105210004FF00602FFF78CF94FF44060C4F2010032
:105220004FF400514FF00602FFF782F94FF440604F
:10523000C4F201004FF400614FF00602FFF778F965
:105240004FF40060C4F201004FF010014FF006026D
:10525000FFF76EF94FF00003009341F26830C2F29D
:1052600000004FF496614FF0400244F25173C0F6D3
:105270000003FBF76DFF4FF00003009341F61800A9
:10528000C2F200004FF496614FF0400244F66123F1
:10529000C0F60003FBF75CFF4FF0000000F0B0F930
:1052A0004FF0000000F094F94FF0010000F0C0F959
:1052B00041F2A023C2F200034FF000021A6041F253
:1052C000A023C2F200034FF000025A6041F2A02373
:1052D000C2F200034FF000029A6041F2A023C2F232
:1052E00000034FF00002DA6041F2A023C2F2000393
:1052F0001A7C6FF300021A7441F2A023C2F2000379
:105300001A7C6FF341021A7441F2A023C2F2000327
:105310001A7C6FF382021A7441F2A023C2F20003D6
:105320004FF000025A6141F2A023C2F200034FF095
:1053300000029A6141F2A023C2F200034FF0000282
:10534000DA6141F2A023C2F200034FF00002DA60FA
:1053500041F2A023C2F2000393F824206FF300026D
:1053600083F8242041F2A023C2F2000393F8242002
:105370006FF3410283F8242041F2A023C2F200031C
:1053800093F824206FF3820283F8242003B000BD39
:1053900000B585B001900091019B002BD4BF002384
:1053A000012303934FF0200383F31188FBF7D0F917
:1053B00041F2A022C2F2000203990B464FEA830396
:1053C0000B444FEA83031344009A1A60FBF7E0F999
:1053D0004FF0000383F3118805B000BDAFF30080E8
:1053E00000B585B00390029101924FF0200383F342
:1053F0001188FBF7ADF940F60003C2F20003039AEF
:105400001A6040F60403C2F20003029A1A6040F6E2
:105410000803C2F20003019A1A60FBF7B9F94FF0D2
:10542000000383F3118805B000BD00BFAFF3008017
:1054300000B587B0039002910192039B002BD4BF6B
:10544000002301230593059A13464FEA830313446F
:105450004FEA83031A4641F2A023C2F20003134429
:1054600004934FF0200383F31188FBF771F9019B3C
:10547000002B03D0049B5A68019B1A60029B002BEF
:1054800007D0049B1B7CC3F30003DBB21A46029BCC
:105490001A60FBF77DF94FF0000383F3118807B022
:1054A00000BD00BFAFF30080AFF30080AFF300801A
:1054B00000B587B001900091019B002BD4BF002361
:1054C00001230593059A13464FEA830313444FEAD9
:1054D00083031A4641F2A023C2F20003134404934B
:1054E0004FF0200383F31188FBF732F9049B1B7CF8
:1054F000C3F34003DBB20393009B002B03D0049B58
:105500001A68009B1A60FBF743F94FF0000383F31E
:105510001188039B184607B000BD00BFAFF30080A1
:1055200000B587B00190019B002BD4BF002301235D
:105530000593059A13464FEA830313444FEA830306
:105540001A4641F2A023C2F20003134404934FF021
:10555000200383F31188FBF7FBF8049B1B6803937C
:10556000FBF716F94FF0000383F31188039B1846ED
:1055700007B000BDAFF30080AFF30080AFF3008051
:1055800000B585B00190019B002B04DD41F244334E
:10559000C2F2000303E041F2F423C2F200030393DA
:1055A0004FF0200383F31188FBF7D2F803984FF0F4
:1055B0000001FCF7EDF8FBF7EBF84FF0000383F385
:1055C000118805B000BD00BFAFF30080AFF30080CD
:1055D00082B00190019B002B07DD4FF40063C4F201
:1055E00001034FF040025A6106E04FF40063C4F239
:1055F00001034FF040021A6102B07047AFF3008020
:1056000082B00190019B002B07DD4FF40063C4F2D0
:1056100001034FF080025A6106E04FF40063C4F2C8
:1056200001034FF080021A6102B07047AFF30080AF
:1056300082B00190019B002B07DD4FF44063C4F260
:1056400001034FF480625A6106E04FF44063C4F2F4
:1056500001034FF480621A6102B07047AFF300801B
:1056600082B00190019B002B07DD4FF44063C4F230
:1056700001034FF400621A6106E04FF44063C4F284
:1056800001034FF400625A6102B07047AFF300802B
:1056900082B00190019B002B07DD4FF40063C4F240
:1056A00001034FF010021A6106E04FF40063C4F2E8
:1056B00001034FF010025A6102B07047AFF300804F
:1056C00082B00190019B002B07DD4FF44063C4F2D0
:1056D00001034FF400525A6106E04FF44063C4F2F4
:1056E00001034FF400521A6102B07047AFF300801B
:1056F00000B583B041F2A023C2F200031B68DBB205
:105700008DF8003041F2A023C2F200031B684FEA7B
:105710002323DBB28DF8013041F2A023C2F2000353
:105720001B684FEA2343DBB28DF8023041F2A0231D
:10573000C2F200031B684FEA2363DBB28DF803302B
:1057400041F2A023C2F200035B69DBB28DF80430A2
:1057500041F2A023C2F200035B694FEA2323DBB2CC
:105760008DF8053041F2A023C2F200035B694FEAD5
:105770002343DBB28DF8063041F2A023C2F20003CE
:105780005B694FEA2363DBB28DF8073001F018F84C
:105790006B464FF00800194600F062FF03B000BDF1
:1057A00086B00190019B0593019B0493019A059B90
:1057B00092FBF3F2059B13440393039B4FEAD372CE
:1057C00013444FEA63031946039A4FEAE2734FEA20
:1057D000D3731A4402F00102C3EB02030B44059396
:1057E000049A059B9A4202DD059B0493DEE7019A29
:1057F000049B92FBF3F2049B03F1FF339A420ED118
:10580000019B049A93FBF2F2049901FB02F2C2EBB2
:105810000303002B03D1049B03F1FF330493049B88
:10582000184606B0704700BFAFF30080AFF30080AA
:1058300008B5FCF705FAFAF7B3FE00F0D9F800F066
:105840008FFC00F005FDFFF7E3FB00F059FF4FF080
:10585000030000F0C5FC00F003F9FCE7AFF30080A3
:1058600000B585B00190019B1B78002B0CBF002375
:10587000012303930398FFF753FE03460293029B11
:10588000DBB2184600F0DCFB029B4FEA2323DBB2BD
:10589000184600F0D5FB029B4FEA2343DBB21846C3
:1058A00000F0CEFB029B4FEA1363DBB2184600F018
:1058B000C7FB00F0E5FB05B000BD00BFAFF3008003
:1058C00000B587B00190019B1B788DF81730019BC4
:1058D00003F101031B788DF81630019B03F10203DD
:1058E0009DF817109DF81620084611461A4600F03C
:1058F00087FD03460493049B002B02DB049BDBB271
:1059000005E0049BDBB2C3F10003DBB2DBB28DF830
:105910000F309DF80F30184600F092FB00F0B0FBFE
:1059200007B000BDAFF30080AFF30080AFF300809D
:1059300000B587B00190019B1B788DF81630019B54
:1059400003F101031B788DF815309DF816209DF8A2
:10595000153010461946019A00F0B2FD0346049333
:10596000049B002B02DB049BDBB205E0049BDBB253
:10597000C3F10003DBB2DBB28DF80F309DF80F30BE
:10598000184600F05DFB4FF000038DF817300DE076
:105990009DF81730019A13441B78184600F050FB0D
:1059A0009DF8173003F101038DF817309DF817208B
:1059B0009DF815309A42EBD300F062FB07B000BDB2
:1059C00000B583B0019000F0FBFE03B000BD00BF46
:1059D00000B585B00190019B1B788DF80F309DF8C4
:1059E0000F30184600F0F4FE05B000BDAFF30080A4
:1059F00008B54FF40060C4F201004FF400714FF09D
:105A00001002FEF795FD4FF40060C4F201004FF460
:105A100080614FF00202FEF78BFD4FF40060C4F28C
:105A200001004FF400614FF01002FEF781FD4FF4CA
:105A30000060C4F201004FF480514FF00202FEF703
:105A400077FD40F64C60C2F200004FF00001FCF719
:105A50001FFC08BDAFF30080AFF30080AFF3008000
:105A600000B583B042484FF0FF31FBF7D9FE034643
:105A70000193019BB3F1FF3F03D0019B13F1020F90
:105A800002D14FF0010301E04FF000038DF8033025
:105A90009DF80330002B69D1019B8DF8023041F64F
:105AA0000853C2F200031B78002B37D19DF8023057
:105AB000002B13D141F60C53C2F200031B6841F6D0
:105AC000C840C2F20000194600F05AF841F60C53E3
:105AD000C2F200034FF000021A6039E09DF8023074
