:020000040800F2
:10000000000400201101000801020008010200089C
:1000100001020008010200080102000801020008B4
:100020000102000801020008010200085102000854
:100030000102000801020008010200082102000874
:1000400001020008D12A000801020008010200088C
:10005000010200080102000891270008D1270008CA
:10006000112800085128000891280008D121000813
:100070003122000891220008F122000851230008D3
:10008000B123000811240008010200080102000841
:10009000010200080102000801020008D12800083E
:1000A00001020008812D0008010200080102000879
:1000B000A12D0008C12D0008E12D00089135000890
:1000C000B135000801020008010200080102000821
:1000D000010200083139000801020008010200088D
:0C00E000C129000801020008112B0008D3
:1000F000704700BFAFF30080AFF30080AFF3008024
:10010000FEE700BFAFF30080AFF30080AFF30080E5
:1001100072B640F60004C2F2000484F309884FF07E
:10012000020484F31488BFF36F8F40F20004C2F21C
:10013000000440F20045C2F2000504E04FF05533E0
:10014000236004F10404AC42F8D340F20044C2F24C
:10015000000440F60005C2F2000504E04FF05533FC
:10016000236004F10404AC42F8D303F031FD45F6FA
:100170003055C0F6000540F60004C2F2000405E068
:100180002B68236004F1040405F1040540F63803EC
:10019000C2F200039C42F3D340F63804C2F20004DA
:1001A00042F29C05C2F2000504E04FF00003236018
:1001B00004F10404AC42F8D3FFF79AFF40F2EC04D8
:1001C000C0F6000403E02368984704F1040440F2F9
:1001D000EC03C0F600039C42F5D304F019FD40F295
:1001E000EC04C0F6000403E02368984704F104041B
:1001F00040F2EC03C0F600039C42F5D3FFF780FF0A
:10020000FEE700BFAFF30080AFF30080AFF30080E4
:1002100072B6FEE7AFF30080AFF30080AFF300806B
:1002200008B500F015FB4FF0200383F3118800F0B0
:10023000CFFA00F00DFA00F0EBFA4FF0000383F371
:10024000118800F035FB00F043F808BDAFF30080E3
:1002500010B483B0EFF309840194019B03F12003F0
:100260000193019B83F309884FF0000383F3118806
:1002700003B010BC704700BFAFF30080AFF3008045
:1002800008B54FF46D43CEF200034FF000029A60C0
:100290004FF46D43CEF200034FF00002C0F2FA5269
:1002A000DA604FF007004FF0100100F031F94FF025
:1002B0000A004FF4007100F02BF94FF00B004FF0E3
:1002C000800100F025F908BDAFF30080AFF3008096
:1002D00010B483B04FF0200383F311884FF46D43C3
:1002E000CEF200035B6803F40063002B47D0EFF30A
:1002F00009840194019BA3F120030193019B83F3E3
:100300000988019B4FF08072DA6140F66453C2F2B3
:1003100000039B69002B11D040F66453C2F2000326
:100320001B689A6840F66453C2F20003DB699B685D
:100330009A4294BF00230123DBB210E040F66453DD
:10034000C2F200031B689A6840F66453C2F20003CD
:10035000DB699B689A4234BF00230123DBB2002B88
:1003600006D0019A40F29133C0F6000393610AE08F
:10037000019A40F29C33C0F60003936103E04FF012
:10038000000383F3118803B010BC7047AFF3008003
:1003900000F0DEF900F0D4FD00F0FAF900DF00BF54
:1003A00003460A462DE9F04FC2F80CD0D3F80CD022
:1003B000BDE8F08FAFF30080AFF30080AFF30080B3
:1003C00008B500F0E5F94FF0000383F311882846E3
:1003D000A04700F01DFF08BDAFF30080AFF3008021
:1003E00084B001900091019B03F003034FEAC30323
:1003F00003934FF46143CEF20003019A4FEA920057
:100400004FF46142CEF2000201994FEA910101F1ED
:10041000C00152F82110039A4FF0FF0C0CFA02F2BF
:100420006FEA020201EA0201039ADDF800C00CFA49
:1004300002F241EA020100F1C00243F822104FF437
:100440006143CEF20003019A4FEA5212019901F082
:100450001F014FF0010000FA01F102F1600243F8C0
:1004600022104FF46143CEF20003019A4FEA521278
:10047000019901F01F014FF0010000FA01F143F86A
:10048000221004B0704700BFAFF30080AFF30080CC
:1004900084B00190019B03F003034FEAC30303936D
:1004A0004FF46143CEF20003019A4FEA52120199D0
:1004B00001F01F014FF0010000FA01F102F12002EA
:1004C00043F822104FF46143CEF20003019A4FEA41
:1004D00092004FF46142CEF2000201994FEA91017D
:1004E00001F1C00152F82110039A4FF0FF0C0CFAF1
:1004F00002F26FEA020201EA020100F1C00243F8CF
:10050000221004B0704700BFAFF30080AFF300804B
:1005100084B001900091019B03F003034FEAC303F1
:1005200003934FF46D43CEF20003019A4FEA920019
:100530004FF46D42CEF2000201994FEA910101F1B0
:10054000060152F82110039A4FF0FF0C0CFA02F248
:100550006FEA020201EA0201039ADDF800C00CFA18
:1005600002F241EA020100F1060243F8221004B04F
:10057000704700BFAFF30080AFF30080AFF300809F
:1005800082B0019040F66453C2F20003DA6945F28A
:100590002063C0F600039361FEE700BFAFF3008065
:1005A00000B583B0FFF76CFE00F03AFB00F050FAA4
:1005B00001F026FB00F0DCF940F6F800C2F2000082
:1005C0004FF0400100F014FD024640F66453C2F2C1
:1005D0000003DA6140F66453C2F20003DB694FF0B6
:1005E000010283F8202040F66453C2F20003DA6966
:1005F00040F20043C2F20003D36100F091F84FF0E3
:10060000000383F3118862B640F66453C2F200031C
:10061000DA6945F22863C0F60003936140F2815322
:10062000C0F600034FF00002009240F63800C2F21C
:1006300000004FF0C0014FF0010200F089FD03B04F
:1006400000BD00BFAFF30080AFF30080AFF30080C8
:1006500000B583B000F05CF940F66453C2F20003C9
:100660009B69002B0BDD40F66453C2F200039B69CB
:1006700003F1FF3240F66453C2F200039A6140F680
:100680006453C2F20003DB695A6A02F101025A6242
:1006900040F65453C2F20003DB6803F1010240F656
:1006A0005453C2F20003DA6040F65453C2F200031E
:1006B0001B681A4640F65453C2F200039A422DD0EA
:1006C00040F65453C2F200031B689A6802F1FF32ED
:1006D0009A6019E0019BDB680093019B4FF00002D8
:1006E000DA60019B1A6840F65453C2F2000353606B
:1006F000019B1A6840F65453C2F200031A60019B32
:100700001A69009B1046984740F65453C2F2000302
:100710001B680193019B9B68002BDBD003B000BDDD
:1007200008B540F64013C2F200031B68002B06D147
:1007300040F64413C2F200031B68002B05D045F2BB
:100740004060C0F6000000F073F908BDAFF3008010
:1007500008B540F64013C2F200031B68002B06D117
:1007600040F64413C2F200031B68002B05D045F28B
:100770004860C0F6000000F05BF940F64413C2F296
:1007800000034FF001021A6008BD00BFAFF3008004
:1007900008B540F64013C2F200031B68002B06D1D7
:1007A00040F64413C2F200031B68002B05DC45F23F
:1007B0005060C0F6000000F03BF940F64413C2F26E
:1007C00000034FF000021A6008BD00BFAFF30080C5
:1007D00008B540F64013C2F200031B68002B06DD8B
:1007E00040F64413C2F200031B68002B05D045F20B
:1007F0005860C0F6000000F01BF940F64413C2F246
:1008000000034FF001021A6008BD00BFAFF3008083
:1008100008B540F64013C2F200031B68002B06DD4A
:1008200040F64413C2F200031B68002B05DC45F2BE
:100830006060C0F6000000F0FBF840F64413C2F21E
:1008400000034FF000021A6008BD00BFAFF3008044
:1008500008B54FF0200383F3118840F64013C2F22D
:1008600000031B68002B06DB40F64413C2F20003B2
:100870001B68002B05D045F26860C0F6000000F050
:10088000D7F840F64013C2F200031B6803F10102DF
:1008900040F64013C2F200031A604FF0000383F3E6
:1008A000118808BDAFF30080AFF30080AFF3008084
:1008B00008B54FF0200383F3118840F64013C2F2CD
:1008C00000031B68002B06DD40F64413C2F2000350
:1008D0001B68002B05D045F27060C0F6000000F0E8
:1008E000A7F840F64013C2F200031B6803F1FF3281
:1008F00040F64013C2F200031A604FF0000383F386
:10090000118808BDAFF30080AFF30080AFF3008023
:1009100008B540F64013C2F200031B68002B06DB4B
:1009200040F64413C2F200031B68002B05DC45F2BD
:100930007860C0F6000000F07BF808BDAFF30080DF
:1009400008B540F64013C2F200031B68002B06D125
:1009500040F64413C2F200031B68002B05DC45F28D
:100960008060C0F6000000F063F808BDAFF30080BF
:1009700040F64813C2F200034FF040021A6040F6FE
:100980004813C2F20003014A5A6070475009002020
:1009900082B0019040F64813C2F200035A6840F654
:1009A0005453C2F20003DB68136040F64813C2F2EE
:1009B00000035A6840F66453C2F20003DB695360D7
:1009C00040F64813C2F200035B68019A926A9A608B
:1009D00040F64813C2F200035B68019A92F82020A7
:1009E0001A7340F64813C2F200035B6803F1100269
:1009F00040F64813C2F200035A6040F64813C2F2B0
:100A000000035A68054B9A4205D340F64813C2F2D8
:100A10000003034A5A6002B0704700BF500D002027
:100A200050090020AFF30080AFF30080AFF30080E7
:100A300000B583B0019040F65053C2F20003019A12
:100A40001A60FFF7E5FB03B000BD00BFAFF3008005
:100A500040F65452C2F2000240F65453C2F2000370
:100A60005A6040F65453C2F200035A6840F6545399
:100A7000C2F200031A6040F65453C2F200034FF072
:100A8000FF329A6040F65453C2F200034FF0000266
:100A9000DA607047AFF30080AFF30080AFF30080FF
:100AA00000B587B00390029101920093FFF730FFE9
:100AB000039B002B05D0019B002B02D0029B002B37
:100AC00005D145F29060C0F60000FFF7B1FF039B2F
:100AD000009A1A61039B019ADA6040F65453C2F2FD
:100AE00000031B68059308E0059B9B68029AC3EB13
:100AF00002030293059B1B680593059B9A68029B62
:100B00009A42F1D3039B059A1A60039B1B685A68AB
:100B1000039B5A60039B5B68059A03995160059A91
:100B200052681A60039B029A9A60059A40F65453E1
:100B3000C2F200039A4206D0059B9A68029BC3EB5F
:100B40000202059B9A6007B000BD00BFAFF30080B2
:100B500000B583B00190FFF7DBFE019B002B05D1B0
:100B600045F2A060C0F60000FFF762FF019BDB6862
:100B7000002B05D145F2B060C0F60000FFF758FF2A
:100B8000019B1A6840F65453C2F200039A4208D0FF
:100B9000019B1B68019A12689168019A92680A4445
:100BA0009A60019B5B68019A12681A60019B1B683E
:100BB000019A52685A60019B4FF00002DA6003B05C
:100BC00000BD00BFAFF30080AFF30080AFF3008043
:100BD00084B00190019B1B680393039B1A68019BDF
:100BE0001A60019B1B68019A5A60039B184604B067
:100BF000704700BFAFF30080AFF30080AFF3008019
:100C000082B00190019B5B68019A12681A60019B97
:100C10001B68019A52685A60019B184602B07047DF
:100C200040F66452C2F2000240F66453C2F200037E
:100C30005A6040F66453C2F200035A6840F66453A7
:100C4000C2F200031A6040F66453C2F200034FF090
:100C500000029A6040F66453C2F200034FF014029F
:100C60009A6140F66452C2F2000240F66453C2F246
:100C700000035A6140F66453C2F200035A6940F619
:100C80006453C2F200031A61704700BFAFF30080E3
:100C900000B585B00190019B93F82030002B04D063
:100CA000019B93F820300E2B05D145F2D060C0F6A1
:100CB0000000FFF7BDFE019B4FF0000283F82020EB
:100CC00040F66453C2F200030393039B1B68039333
:100CD000039B9A68019B9B689A42F6D2019B039AF8
:100CE0001A60039B5A68019B5A60019B5B68039AD8
:100CF00001995160039A52681A60019B184605B029
:100D000000BD00BFAFF30080AFF30080AFF3008001
:100D100000B585B003468DF80730FFF711FE40F6A9
:100D20006453C2F20003DB690393039B9DF8072021
:100D300083F8202040F66453C2F200034FF01402FF
:100D40009A6140F66450C2F20000FFF741FF02468C
:100D500040F66453C2F20003DA6140F66453C2F213
:100D60000003DB694FF0010283F820200398FFF7AE
:100D70000FFE6B46A3F12402039BDB699A4205D266
:100D800045F2E460C0F60000FFF752FE40F66453FF
:100D9000C2F20003DB6918460399FFF701FB05B0B7
:100DA00000BD00BFAFF30080AFF30080AFF3008061
:100DB00000B585B00190019B0393039B93F820300D
:100DC0000D2B28D801A252F823F000BF270E0008EF
:100DD000170E0008170E0008050E0008170E000871
:100DE000110E0008170E0008170E0008170E000855
:100DF000170E0008170E0008170E0008170E00083F
:100E0000110E0008039B9B6A9A6802F101029A6026
:100E10000398FFF7F5FE039B4FF0FF329A620398A9
:100E2000FFF736FF00E000BF05B000BDAFF3008064
:100E300000B589B0034600918DF80730FFF780FDBB
:100E4000009BB3F1FF3F1AD040F66453C2F2000397
:100E5000DB6903AA1046009940F6B152C0F60002C1
:100E6000FFF71EFE9DF807301846FFF751FF069B5F
:100E7000002B0AD003AB1846FFF76AFE06E09DF888
:100E800007301846FFF744FF00E000BF40F6645308
:100E9000C2F20003DB699B6A184609B000BD00BFBF
:100EA00000B585B001900091FFF74AFD019B009AC3
:100EB0009A62019B9A6840F66453C2F20003DB69B0
:100EC0009B689A4203D80198FFF7E2FE2FE040F6B4
:100ED0006453C2F20003DB691846FFF7D9FE0346EC
:100EE000039340F66453C2F200034FF014029A6178
:100EF00040F66453C2F20003019ADA61019B4FF09D
:100F0000010283F820200398FFF742FD6B46A3F10E
:100F10002402039BDB699A4205D245F2E460C0F6E5
:100F20000000FFF785FD01980399FFF739FA05B036
:100F300000BD00BFAFF30080AFF30080AFF30080CF
:100F400000B583B040F66453C2F200034FF01402C0
:100F50009A6140F66453C2F20003DB69019340F6E4
:100F60006450C2F20000FFF733FE024640F66453BD
:100F7000C2F20003DA6140F66453C2F20003DB6997
:100F80004FF0010283F820200198FFF781FE0198BD
:100F9000FFF7FEFC6B46A3F12402019BDB699A423A
:100FA00005D245F2E460C0F60000FFF741FD40F6CF
:100FB0006453C2F20003DB6918460199FFF7F0F9A8
:100FC00003B000BDAFF30080AFF30080AFF300804B
:100FD00084B00190019B1B680393039B1A68019BDB
:100FE0001A60039B184604B0704700BFAFF300803F
:100FF00082B001900091019B009A9A60019B4FF092
:10100000020283F82020019B4FF0000283F8212088
:10101000019B009A5A64019B4FF000021A64019BE5
:101020004FF00002DA63019B4FF000025A62019B0D
:101030004FF000029A6140F66453C2F20003019A35
:10104000136140F66453C2F200035A69019B5A616E
:10105000019B5A6940F66453C2F200030199596139
:1010600040F66453C2F200035B691361019B03F114
:101070002C031A46019BDA62019B03F130031A46E6
:10108000019B5A63019B5A6B019B1A63019B03F1FD
:101090004802019BDA61019B184602B0704700BF0D
:1010A00084B00390029113468DF8073007E0039B4C
:1010B0009DF807201A70039B03F101030393039A21
:1010C000029B9A42F3D304B0704700BFAFF3008095
:1010D00000B587B00390029101920093039B0593A2
:1010E000FFF716FC039B002B08D0029BAF2B05D902
:1010F000019B7F2B02D8009B002B05D145F200708D
:10110000C0F60000FFF794FC039A029BA3F12403AE
:101110001A44059BDA60059BDB68009A1A60059B00
:10112000DB68089A5A60059BDA6840F2C133C0F662
:101130000003136205980199FFF75AFF034618460A
:1011400007B000BDAFF30080AFF30080AFF30080C5
:1011500000B589B00590049103920293059A059B0E
:1011600003F14803104619464FF0FF02FFF798FFBE
:10117000059B03F148020599049B0B441046194650
:101180004FF05502FFF78CFF4FF0200383F31188D7
:10119000FFF7DEFA0A9B009305980499039A029BD5
:1011A000FFF796FF0346079307984FF00001FFF7FC
:1011B00077FEFFF7EDFA4FF0000383F31188079BEA
:1011C000184609B000BD00BFAFF30080AFF3008048
:1011D00000B583B00190019B002B05D145F2407012
:1011E000C0F60000FFF724FC4FF0200383F31188C2
:1011F000FFF7AEFA4FF006000199FFF719FEFFF76F
:10120000C7FA4FF0000383F3118803B000BD00BF9D
:1012100000B583B001904FF0200383F31188FFF7EE
:1012200097FA019800F004F803B000BDAFF3008016
:1012300000B585B0019040F66453C2F20003DB694B
:101240000393039B019A9A6209E0039B03F12C0329
:101250001846FFF7BDFE03461846FFF719FD039B2E
:10126000DA6A039B03F12C039A42EED1039B93F8B5
:10127000213003F00303002B09D1039B5B69039A20
:1012800012691A61039B1B69039A52695A614FF0F4
:101290000E00FFF73DFD45F25070C0F60000FFF76D
:1012A000C7FB05B000BD00BFAFF30080AFF3008007
:1012B00084B001900091009B0393039B1B680393F0
:1012C000009B039A9A4205D0039B9A68019B9B68F6
:1012D0009A42F2D2019B039A1A60039B5A68019BBF
:1012E0005A60019B5B68039A01995160039A5268A6
:1012F0001A6004B0704700BFAFF30080AFF3008006
:1013000084B00190019B1B680393039B1A68019BA7
:101310001A60019B1B68019A5A60039B184604B02F
:10132000704700BFAFF30080AFF30080AFF30080E1
:1013300082B00190019B5B68019A12681A60019B60
:101340001B68019A52685A60019B184602B07047A8
:1013500000B583B00190019B002B05D145F2907040
:10136000C0F60000FFF764FB019B1A46019B5A6020
:10137000019B5A68019B1A60019B4FF000029A6022
:1013800003B000BDAFF30080AFF30080AFF3008087
:1013900000B583B001904FF0200383F31188FFF76D
:1013A000D7F9019800F00CF8FFF7F2F94FF00003BD
:1013B00083F3118803B000BDAFF30080AFF300806A
:1013C00000B585B0019040F66453C2F20003DB69BA
:1013D0000293FFF7B5FA019B002B05D145F2A070EF
:1013E000C0F60000FFF724FB019B9B68002B62D036
:1013F000019B9B68039335E0029B9A68039B9A606C
:10140000039B93F82030042B04D0052B11D0002B24
:101410001AD02DE00398FFF78BFF0246039B9B6ACF
:1014200010461946FFF744FF039B9B6A9B68039392
:1014300018E00398FFF77CFF0246039B9B6A104667
:101440001946FFF735FF0CE0039B4FF0010283F8CC
:1014500020200398FFF76CFF03461846FFF718FC9F
:1014600000BF05E0039B9A68029B9B689A42C3D326
:10147000019B02981946FFF71BFF029B019A9A6293
:101480004FF00400FFF744FC019B9A68029B9A42CC
:1014900005D045F2B070C0F60000FFF7C9FA029B14
:1014A0001A6C019B9A4210D045F2C470C0F600003D
:1014B000FFF7BEFA09E0019B029A9A60029B1A6C40
:1014C000019BDA60029B019A1A6405B000BD00BF5F
:1014D00000B587B040F66453C2F20003DB690393A2
:1014E0004FF0200383F31188FFF732F9039B1B6C45
:1014F000002B05D145F2EC70C0F60000FFF798FA1A
:10150000039B1B6C9A68039B9A4205D045F600002A
:10151000C0F60000FFF78CFA039B1B6C0293029B42
:10152000DA68039B1A64029B1A68029B9A4234D0C1
:10153000039B5B6C0493039B1B6C059311E0059B61
:101540001A68059B9A4209D0059B1B689A68049B00
:101550009A4203D9059B1B689B680493059BDB6833
:101560000593059B002BEAD1039B049A9A60029B8A
:101570001846FFF7C5FE03460193029B019A9A6045
:10158000019B1A6C029BDA60019B029A1A64019813
:101590004FF00001FFF784FC03E0029B4FF00002D4
:1015A0009A60FFF7F5F84FF0000383F31188029B70
:1015B000184607B000BD00BFAFF30080AFF3008056
:1015C00000B583B001900091FFF7A2F9019B002BB9
:1015D00005D145F67C00C0F60000FFF729FA019B13
:1015E000DA6B009B42EA0302019BDA63019B93F8EA
:1015F0002030082B07D1019BDA6B019B9B6A02EA22
:101600000303002B0ED1019B93F82030092B10D13E
:10161000019BDA6B019B9B6A02EA0302019B9B6AB6
:101620009A4206D10198FFF733FB03464FF00002C0
:101630009A6203B000BD00BFAFF30080AFF300803B
:1016400000B585B001900091FFF762F9019B002B76
:1016500005D145F69000C0F60000FFF7E9F9019BBF
:101660001B6803930DE0039B5A68039B9968009BDA
:1016700041EA030310461946FFF7A2FF039B1B68CC
:101680000393019B039A9A42EDD105B000BD00BFC0
:1016900082B001900091009A019B1A60009B5A68E9
:1016A000019B5A60019B5B68009A01995160009A06
:1016B00052681A6002B07047AFF30080AFF3008049
:1016C00084B00190019B1B680393039B1A68019BE4
:1016D0001A60019B1B68019A5A60039B184604B06C
:1016E000704700BFAFF30080AFF30080AFF300801E
:1016F00000B583B001900091009B002B02D14FF008
:10170000FF3316E040F66453C2F20003DB69019A2E
:101710009A6240F66453C2F20003DA69019B1046F4
:101720001946FFF7B5FF4FF00D000099FFF780FB5A
:101730000346184603B000BDAFF30080AFF300804E
:1017400084B00390029101920093039B1A46039B7D
:101750005A60039B5A68039B1A60039B4FF0000278
:101760009A60039B029A5A61039B5A69039B9A6190
:10177000039B9A69039BDA60029A019B1A44039BBC
:101780001A61039B009ADA6104B07047AFF30080DE
:1017900000B583B001900B468DF80330FFF7B8F821
:1017A000019B5A69019B9B699A4206D1019B9B68E8
:1017B000002B02D06FF003032BE0019B9B6803F129
:1017C0000102019B9A60019B5B699DF803201A70DE
:1017D00003F10102019B5A61019B5A69019B1B693C
:1017E0009A4203D3019BDA68019B5A61019B1A68F4
:1017F000019B9A420BD0019B1846FFF761FF0346FD
:101800001846FFF745FA03464FF000029A624FF080
:101810000003184603B000BDAFF30080AFF30080B3
:1018200000B585B0019000914FF0200383F311883B
:10183000FEF78EFF019BDB69002B15D0019BDB6956
:101840000198984711E001980099FFF751FF03466E
:101850000393039B002B08DAFEF79AFF4FF0000377
:1018600083F31188039B25E000BF019B9B68002B3D
:10187000E9D0019B9B6803F1FF32019B9A60019BB9
:101880009B691A788DF80B2003F10102019B9A6184
:10189000019B9A69019B1B699A4203D3019BDA68F9
:1018A000019B9A61FEF774FF4FF0000383F31188E8
:1018B0009DF80B30184605B000BD00BFAFF30080A7
:1018C00000B587B00390029101920093039BDB69FE
:1018D00004934FF000030593019B002B05D145F6BF
:1018E000D000C0F60000FFF7A3F84FF0200383F309
:1018F0001188FEF72DFF049B002B12D0049B039848
:1019000098470FE003980099FFF7F2FE0346002B7B
:1019100008D0FEF73DFF4FF0000383F31188059BCD
:101920003BE000BF039B9B68002BEBD0039B9B68B5
:1019300003F1FF32039B9A60039B9B691978029A1B
:101940001170029A02F10102029203F10102039B5B
:101950009A61039B9A69039B1B699A4203D3039B79
:10196000DA68039B9A61FEF713FF4FF0000383F3DD
:101970001188059B03F101030593019B03F1FF33DC
:101980000193019B002B01D1059B06E04FF0200342
:1019900083F31188FEF7DCFEADE7184607B000BD03
:1019A00084B00390029101920093039B1A46039B1B
:1019B0005A60039B5A68039B1A60039B019A9A60C2
:1019C000039B029A5A61039B5A69039B9A61039B8A
:1019D0009A69039BDA60029A019B1A44039B1A617D
:1019E000039B009ADA6104B0704700BFAFF3008038
:1019F00000B587B003900B4601928DF80B304FF085
:101A0000200383F31188FEF7A3FE10E003980199E9
:101A1000FFF76EFE03460593059B002B07DAFEF7E2
:101A2000B7FE4FF0000383F31188059B2CE0039B66
:101A30009B68002BEAD0039B9B6803F1FF32039B5A
:101A40009A60039B5B699DF80B201A7003F10102F9
:101A5000039B5A61039B5A69039B1B699A4203D3F8
:101A6000039BDA68039B5A61039BDB69002B03D05D
:101A7000039BDB6903989847FEF78AFE4FF000034B
:101A800083F311884FF00003184607B000BD00BF74
:101A900000B585B00190FEF73BFF019B5A69019BA1
:101AA0009B699A4206D1019B9B68002B02D06FF084
:101AB00002032BE0019B9B6803F10102019B9A60EA
:101AC000019B9B691A788DF80F2003F10102019B9D
:101AD0009A61019B9A69019B1B699A4203D3019BFE
:101AE000DA68019B9A61019B1A68019B9A420BD0AC
:101AF000019B1846FFF7E4FD03461846FFF7C8F8B8
:101B000003464FF000029A629DF80F30184605B068
:101B100000BD00BFAFF30080AFF30080AFF30080E3
:101B200000B587B00390029101920093039BDB699B
:101B300004934FF000030593019B002B05D145F65C
:101B4000E400C0F60000FEF773FF4FF0200383F3BC
:101B50001188FEF7FDFD0EE003980099FFF7C8FD20
:101B60000346002B07D0FEF713FE4FF0000383F36C
:101B70001188059B41E0039B9B68002BECD0039BE5
:101B80009B6803F1FF32039B9A60039B5B69029A97
:101B900012781A7003F10102039B5A61029B03F150
:101BA00001030293039B5A69039B1B699A4203D367
:101BB000039BDA68039B5A61049B002B02D0049BB1
:101BC00003989847FEF7E4FD4FF0000383F3118874
:101BD000059B03F101030593019B03F1FF3301937F
:101BE000019B002B01D1059B07E04FF0200383F3FD
:101BF0001188FEF7ADFD00BFBDE7184607B000BD78
:101C000042F29C03C2F2000303F1070323F007032F
:101C10001A4640F68453C2F200031A6045F20003EC
:101C2000C2F2000323F007031A4640F68853C2F2BB
:101C300000031A60704700BFAFF30080AFF300806D
:101C400008B500F095FC45F60040C0F6000001F034
:101C5000C7FE00F00DF800F05BF800F021F900F08D
:101C6000FFF901F0BDFF08BDAFF30080AFF30080C6
:101C700008B500F06DFF08BDAFF30080AFF3008042
:101C800082B00190019B4FF001021A70019B4FF04E
:101C900000025A6002B07047AFF30080AFF30080DB
:101CA00000B583B001900091019B002B02D0009BF6
:101CB000002B05D145F60010C0F60000FEF7B8FE77
:101CC0004FF0200383F31188FEF742FD019B1B7840
:101CD000012B09D0019B1B78022B05D045F6101073
:101CE000C0F60000FEF7A4FE019B009A5A6001981E
:101CF00000F036FF019B4FF002021A70FEF748FD1C
:101D00004FF0000383F3118803B000BDAFF30080F0
:101D100008B501F075F808BDAFF30080AFF300809F
:101D200082B00190019B4FF001021A70019B4FF0AD
:101D300000025A6002B07047AFF30080AFF300803A
:101D400000B583B001900091019B002B02D0009B55
:101D5000002B05D145F6A010C0F60000FEF768FE86
:101D60004FF0200383F31188FEF7F2FC019B1B78F0
:101D7000012B09D0019B1B78022B05D045F6AC1036
:101D8000C0F60000FEF754FE019B009A5A600198CD
:101D900001F076F8019B4FF002021A70FEF7F8FC92
:101DA0004FF0000383F3118803B000BDAFF3008050
:101DB00000B583B00190019B002B05D145F6BC1006
:101DC000C0F60000FEF734FE4FF0200383F31188C5
:101DD000FEF7BEFC019B1B78012B09D0019B1B78F1
:101DE000022B05D045F6C810C0F60000FEF720FE15
:101DF000019801F04DF9019B4FF001021A70FEF7B6
:101E0000C7FC4FF0000383F3118803B000BD00BF8F
:101E100000B583B001900B46ADF802304FF02003BF
:101E200083F31188FEF794FCBDF80230019819463F
:101E300000F00EF8FEF7ACFC4FF0000383F31188BE
:101E400003B000BDAFF30080AFF30080AFF30080BC
:101E500000B583B001900B46ADF80230FEF758FD97
:101E6000019B002B05D145F60C20C0F60000FEF7C3
:101E7000DFFD019B1B78022B05D045F62420C0F620
:101E80000000FEF7D5FD019B4FF004021A70BDF86B
:101E900002300198194601F073F903B000BD00BF8C
:101EA00008B501F095FB08BDAFF30080AFF30080EB
:101EB00082B00190019B4FF001021A70019B4FF01C
:101EC00000025A6002B07047AFF30080AFF30080A9
:101ED00000B585B0039002910192039B03F130039A
:101EE00018460299019A4FF0FF33FFF719FE034697
:101EF000184605B000BD00BFAFF30080AFF300800F
:101F000000B585B0039002910192039B03F1100389
:101F100018460299019A4FF0FF33FFF7D1FC0346B0
:101F2000184605B000BD00BFAFF30080AFF30080DE
:101F300082B00190019B9B6B002B14BF00230123F7
:101F4000184602B0704700BFAFF30080AFF30080C7
:101F500082B00190019B9B69002B14BF00230123D9
:101F6000184602B0704700BFAFF30080AFF30080A7
:101F700000B585B003900B4601928DF80B30039BA2
:101F800003F130029DF80B3010461946019AFFF715
:101F90002FFD0346184605B000BD00BFAFF300801B
:101FA00000B583B001900091019B03F11003184626
:101FB0000099FFF735FC0346184603B000BD00BF8B
:101FC00000B585B00390029101920093039B03F149
:101FD000300318460299019A009BFFF7A1FD0346C2
:101FE000184605B000BD00BFAFF30080AFF300801E
:101FF00000B585B00390029101920093039B03F119
:10200000100318460299019A009BFFF759FC0346FA
:10201000184605B000BD00BFAFF30080AFF30080ED
:1020200000B585B001904FF0200383F31188FEF7CF
:102030008FFB019B9B680393019B4FF000029A600A
:10204000FEF7A6FB4FF0000383F31188039B1846AD
:1020500005B000BDAFF30080AFF30080AFF30080A8
:1020600008B501F075FC08BDAFF30080AFF3008048
:1020700000B585B0039002910192039A45F6403372
:10208000C0F600031360039B03F104031A46039B8D
:102090005A60039B4FF000029A60039B4FF00102CD
:1020A0001A73039B03F11002039B03F150031046C4
:1020B00019464FF40072029BFFF742FB039B03F1AA
:1020C0003002039B03F51473104619464FF4007257
:1020D000019BFFF765FC05B000BD00BFAFF30080BA
:1020E00000B583B001900091019B002B05D145F60E
:1020F0008020C0F60000FEF79BFC4FF0200383F326
:102100001188FEF725FB019B1B7B012B09D0019B4E
:102110001B7B022B05D045F68C20C0F60000FEF795
:1021200087FC0198009901F02BFC019B4FF0020203
:102130001A73FEF72DFB4FF0000383F3118803B0F1
:1021400000BD00BFAFF30080AFF30080AFF30080AD
:1021500000B583B001900B468DF80330FEF7D8FB35
:10216000019B002B05D145F6B820C0F60000FEF714
:102170005FFC019B9B69002B0DD1019B9B6843F089
:102180000402019B9A60019B03F1040318464FF07F
:102190000001FFF755FA019B03F110029DF803308F
:1021A00010461946FFF7F4FA0346002B0DDA019B9F
:1021B0009B6843F08002019B9A60019B03F104033A
:1021C00018464FF00001FFF73BFA03B000BD00BF17
:1021D00000B583B0FEF73CFB4FF00003C4F20203EE
:1021E0001B6803F00F0301934FF00003C4F20203D6
:1021F0004FF00F025A6040F69053C2F200031B6882
:10220000002B0CD040F69053C2F200031A6840F63F
:102210009053C2F200035B68184601999047FEF79D
:1022200047FBFEF755F803B000BD00BFAFF30080D9
:1022300000B583B0FEF70CFB4FF00003C4F20203BD
:102240001B684FEA131303F00F0301934FF00003D1
:10225000C4F202034FF0F0025A6040F69053C2F20B
:1022600000039B68002B0CD040F69053C2F2000391
:102270009A6840F69053C2F20003DB681846019951
:102280009047FEF715FBFEF723F803B000BD00BF33
:1022900000B583B0FEF7DCFA4FF00003C4F202038E
:1022A0001B684FEA132303F00F0301934FF0000361
:1022B000C4F202034FF470625A6040F69053C2F2C7
:1022C00000031B69002B0CD040F69053C2F20003B0
:1022D0001A6940F69053C2F200035B6918460199EF
:1022E0009047FEF7E5FAFDF7F3FF03B000BD00BF2E
:1022F00000B583B0FEF7ACFA4FF00003C4F202035E
:102300001B684FEA133303F00F0301934FF00003F0
:10231000C4F202034FF470425A6040F69053C2F286
:1023200000039B69002B0CD040F69053C2F20003CF
:102330009A6940F69053C2F20003DB69184601998E
:102340009047FEF7B5FAFDF7C3FF03B000BD00BF2D
:1023500000B583B0FEF77CFA4FF00003C4F202032D
:102360001B684FEA134303F00F0301934FF0000380
:10237000C4F202034FF470225A6040F69053C2F246
:1023800000031B6A002B0CD040F69053C2F20003EE
:102390001A6A40F69053C2F200035B6A184601992C
:1023A0009047FEF785FAFDF793FF03B000BD00BF2D
:1023B00000B583B0FEF74CFA4FF00003C4F20203FD
:1023C0001B684FEA135303F00F0301934FF0000310
:1023D000C4F202034FF470025A6040F69053C2F206
:1023E00000039B6A002B0CD040F69053C2F200030E
:1023F0009A6A40F69053C2F20003DB6A18460199CC
:102400009047FEF755FAFDF763FF03B000BD00BF2C
:1024100000B583B0FEF71CFA4FF00003C4F20203CC
:102420001B684FEA136303F00F0301934FF000039F
:10243000C4F202034FF070625A6040F69053C2F249
:1024400000031B6B002B0CD040F69053C2F200032C
:102450001A6B40F69053C2F200035B6B1846019969
:102460009047FEF725FAFDF733FF03B000BD00BF2C
:1024700082B040F68C53C2F200034FF000021A60A3
:102480004FF0000301931CE045F67032C0F60002E5
:1024900001990B464FEA43030B444FEA830313446D
:1024A0001B684FF000021A6040F69053C2F200031E
:1024B000019A4FF0000143F83210019B03F1010330
:1024C0000193019B062BDFDD4FF00003C4F20203F2
:1024D0004FF0FF325A6002B0704700BFAFF3008088
:1024E0004FF4E043C4F200034FF4E042C4F20002B0
:1024F000126842F480721A604FF48053C4F20203EF
:102500001B6A03F44073B3F5407F0DD04FF4805342
:10251000C4F202034FF480321A624FF48053C4F2C3
:1025200002034FF000021A624FF48053C4F2020318
:102530001B6A03F40043002B17D14FF48053C4F2FD
:1025400002034FF48052C4F20202126A42F4407253
:102550001A624FF48053C4F202034FF48052C4F263
:102560000202126A42F400421A627047AFF300801E
:1025700008B54FF48053C4F202031B694FF4805333
:10258000C4F202034FF0FF321A614FF48053C4F2D9
:1025900002034FF000021A614FF48053C4F20203A9
:1025A000DB684FF48053C4F202034FF0FF32DA606D
:1025B0004FF48053C4F202034FF00002DA604EF28F
:1025C0001003CEF2000343F27F22C0F202025A60EF
:1025D0004EF21003CEF200034FF000029A604EF26A
:1025E0001003CEF200034FF007021A604EF6F053CC
:1025F000CEF200034EF6F052CEF20002D26842F064
:102600008072DA604FF48053CEF200034FF48052B0
:10261000CEF20002126842F001021A604FF48053B9
:10262000C4F202034FF48052C4F20202D26942F0B3
:102630008052DA614FF48053C4F202034FF48052A7
:10264000C4F20202D26942F00062DA61FFF748FF89
:10265000FFF70EFF08BD00BFAFF30080AFF30080AF
:102660004FF48053C4F202034FF48052C4F20202CA
:10267000126842F001021A6000BF4FF48053C4F2A6
:1026800002031B6803F00203002BF6D04FF48053C3
:10269000C4F202034FF48052C4F20202126802F044
:1026A000F9021A604FF48053C4F202034FF00002A3
:1026B0005A6000BF4FF48053C4F202035B6803F01A
:1026C0000C03002BF6D14FF48053C4F202034FF4F5
:1026D0008052C4F20202126842F480321A6000BFD3
:1026E0004FF48053C4F202031B6803F40033002B41
:1026F000F6D04FF48053C4F202034FF48052C4F278
:102700000202526842F4E8125A604FF48053C4F255
:1027100002034FF48052C4F20202126842F0807247
:102720001A6000BF4FF48053C4F202031B6803F029
:102730000073002BF6D04FF48053C4F202034FF421
:10274000C842C0F21D025A604FF40053C4F20203A3
:102750004FF012021A604FF48053C4F202034FF498
:102760008052C4F20202526842F002025A6000BF74
:102770004FF48053C4F202035B6803F00C03082B90
:10278000F6D17047AFF30080AFF30080AFF3008065
:1027900008B5FEF75DF84FF48063C4F201034FF013
:1027A00001025A6140F6C853C2F200035B685B68DD
:1027B00040F6C850C2F200004FF000019847FEF703
:1027C00077F8FDF785FD08BDAFF30080AFF300801B
:1027D00008B5FEF73DF84FF48063C4F201034FF0F3
:1027E00002025A6140F6C853C2F200035B68DB681C
:1027F00040F6C850C2F200004FF001019847FEF7C2
:1028000057F8FDF765FD08BDAFF30080AFF300801A
:1028100008B5FEF71DF84FF48063C4F201034FF0D2
:1028200004025A6140F6C853C2F200035B685B6958
:1028300040F6C850C2F200004FF002019847FEF780
:1028400037F8FDF745FD08BDAFF30080AFF300801A
:1028500008B5FDF7FDFF4FF48063C4F201034FF0AC
:1028600008025A6140F6C853C2F200035B68DB6994
:1028700040F6C850C2F200004FF003019847FEF73F
:1028800017F8FDF725FD08BDAFF30080AFF300801A
:1028900008B5FDF7DDFF4FF48063C4F201034FF08C
:1028A00010025A6140F6C853C2F200035B685B6ACB
:1028B00040F6C850C2F200004FF004019847FDF7FF
:1028C000F7FFFDF705FD08BDAFF30080AFF3008013
:1028D00000B583B0FDF7BCFF4FF48063C4F2010381
:1028E0005B6903F4787301934FF48063C4F20103CE
:1028F000019A5A61019B03F02003002B0CD040F693
:10290000C853C2F200035B68DB6A40F6C850C2F2EB
:1029100000004FF005019847019B03F04003002B96
:102920000CD040F6C853C2F200035B685B6B40F604
:10293000C850C2F200004FF006019847019B03F017
:102940008003002B0CD040F6C853C2F200035B6832
:10295000DB6B40F6C850C2F200004FF00701984709
:10296000019B03F48073002B0CD040F6C853C2F2D5
:1029700000035B685B6C40F6C850C2F200004FF089
:1029800008019847019B03F40073002B0CD040F61C
:10299000C853C2F200035B68DB6C40F6C850C2F259
:1029A00000004FF009019847FDF782FFFDF790FC0A
:1029B00003B000BDAFF30080AFF30080AFF3008041
:1029C00000B583B0FDF744FF4FF48063C4F2010308
:1029D0005B6903F47C4301934FF48063C4F2010309
:1029E000019A5A61019B03F48063002B0CD040F6DE
:1029F000C853C2F200035B685B6D40F6C850C2F278
:102A000000004FF00A019847019B03F40063002B7C
:102A10000CD040F6C853C2F200035B68DB6D40F691
:102A2000C850C2F200004FF00B019847019B03F41D
:102A30008053002B0CD040F6C853C2F200035B68F1
:102A40005B6E40F6C850C2F200004FF00C01984790
:102A5000019B03F40053002B0CD040F6C853C2F284
:102A600000035B68DB6E40F6C850C2F200004FF016
:102A70000D019847019B03F48043002B0CD040F6D6
:102A8000C853C2F200035B685B6F40F6C850C2F2E5
:102A900000004FF00E019847019B03F40043002B08
:102AA0000CD040F6C853C2F200035B68DB6F40F6FF
:102AB000C850C2F200004FF00F019847FDF7F8FE32
:102AC000FDF706FC03B000BDAFF30080AFF300805C
:102AD00008B5FDF7BDFE4FF48063C4F201034FF467
:102AE00080325A6140F6C853C2F200035B68D3F8E3
:102AF000843040F6C850C2F200004FF010019847F1
:102B0000FDF7D6FEFDF7E4FB08BD00BFAFF3008084
:102B100008B5FDF79DFE4FF48063C4F201034FF446
:102B200080225A6140F6C853C2F200035B68D3F8B2
:102B3000943040F6C850C2F200004FF0120198479E
:102B4000FDF7B6FEFDF7C4FB08BD00BFAFF3008084
:102B500008B540F6C850C2F20000FFF791F808BD72
:102B600000B589B00190019B1B78012B3BD14FF040
:102B700006004FF06001FDF733FC4FF007004FF007
:102B80006001FDF72DFC4FF008004FF06001FDF7EC
:102B900027FC4FF009004FF06001FDF721FC4FF0DA
:102BA0000A004FF06001FDF71BFC4FF017004FF0DB
:102BB0006001FDF715FC4FF028004FF06001FDF7B4
:102BC0000FFC4FF001004FF06001FDF709FC4FF0E2
:102BD00029004FF06001FDF703FC4FF02A004FF091
:102BE0006001FDF7FDFB4FF000030393039B04938B
:102BF000049B0593059B06934FF0000307934DE05C
:102C0000019B5B68079A53F8323003F00403002BF2
:102C100040D0019B5A68079B4FEAC30313445B688B
:102C2000002B09D0079B4FF0010202FA03F3069A2A
:102C300042EA0303069308E0079B4FF0010202FA01
:102C400003F3059A42EA03030593019B5B68079A25
:102C500053F8323003F00103DBB2002B08D0079B9E
:102C60004FF0010202FA03F3049A42EA03030493C9
:102C7000019B5B68079A53F8323003F00203002B84
:102C800008D0079B4FF0010202FA03F3039A42EACD
:102C900003030393079B03F101030793079B122B85
:102CA000AED94FF00003C4F20103019A5268B2F8A2
:102CB00098209A604FF00003C4F20103019A526811
:102CC000B2F89A20DA604FF00003C4F20103019ACF
:102CD0005268B2F89C201A614FF00003C4F201035D
:102CE000019A5268B2F89E205A614FF48063C4F290
:102CF00001034FF000021A614FF48063C4F2010334
:102D0000049A9A604FF48063C4F20103039ADA6074
:102D10004FF48063C4F201034FF6FF72C0F2070262
:102D20005A614FF48063C4F20103059A5A604FF46C
:102D30008063C4F20103069A1A6009B000BD00BFA7
:102D400000B583B00190019BDB684FF000021A824E
:102D5000019B1B78042B06D1019B4FF002021A70D5
:102D6000019800F035FA019B5B685B680198984711
:102D700003B000BDAFF30080AFF30080AFF300807D
:102D800008B5FDF765FD40F6D050C2F20000FFF730
:102D9000D7FFFDF78DFDFDF79BFA08BDAFF300806F
:102DA00008B5FDF755FD40F6E050C2F20000FFF710
:102DB000C7FFFDF77DFDFDF78BFA08BDAFF300807F
:102DC00008B5FDF745FD40F6F050C2F20000FFF7F0
:102DD000B7FFFDF76DFDFDF77BFA08BDAFF300808F
:102DE00008B5FDF735FD40F60060C2F20000FFF7C0
:102DF000A7FFFDF75DFDFDF76BFA08BDAFF300809F
:102E000008B540F6D053C2F200034FF43052C4F27A
:102E10000102DA6040F6D050C2F20000FEF780FFF7
:102E200040F6E053C2F200034FF08042DA6040F611
:102E3000E050C2F20000FEF773FF40F6F053C2F21A
:102E400000034FF48062C4F20002DA6040F6F050F2
:102E5000C2F20000FEF764FF40F60063C2F2000316
:102E60004FF40062C4F20002DA6040F60060C2F281
:102E70000000FEF755FF08BDAFF30080AFF3008000
:102E800000B585B00190019B1B78012B40F0C880F4
:102E9000019A40F6D053C2F200039A422AD14FF46D
:102EA0008053C4F202034FF48052C4F202029269CA
:102EB00042F400629A614FF48053C4F202034FF46B
:102EC0008052C4F20202D26842F40062DA604FF427
:102ED0008053C4F202034FF00002DA604FF0190091
:102EE0004FF07001FDF77CFA019A4FF42243C0F2D3
:102EF0004A439360019A40F6E053C2F200039A42BB
:102F00002AD14FF48053C4F202034FF48052C4F22A
:102F10000202D26942F00102DA614FF48053C4F236
:102F200002034FF48052C4F20202126942F001021D
:102F30001A614FF48053C4F202034FF000021A6189
:102F40004FF01C004FF07001FDF74AFA019A4FF460
:102F50002243C0F24A439360019A40F6F053C2F212
:102F600000039A422AD14FF48053C4F202034FF473
:102F70008052C4F20202D26942F00202DA614FF4D6
:102F80008053C4F202034FF48052C4F20202126969
:102F900042F002021A614FF48053C4F202034FF070
:102FA00000021A614FF01D004FF07001FDF718FA92
:102FB000019A4FF42243C0F24A439360019A40F6CB
:102FC0000063C2F200039A422AD14FF48053C4F244
:102FD00002034FF48052C4F20202D26942F00402AA
:102FE000DA614FF48053C4F202034FF48052C4F20A
:102FF0000202126942F004021A614FF48053C4F2D3
:1030000002034FF000021A614FF01E004FF07001F2
:10301000FDF7E6F9019A4FF42243C0F24A43936068
:10302000019B9A68019B5B681B68B2FBF3F39BB240
:1030300003F1FF33ADF80E30BDF80E3003F101039C
:10304000019A5268126802FB03F2019B9B689A4244
:1030500005D045F6E020C0F60000FDF7E9FC019B35
:10306000DB684FF000021A80019BDB684FF008021A
:103070009A80019BDB68BDF80E201A85019BDB68F6
:103080004FF000029A8105B000BD00BFAFF3008091
:1030900000B583B00190019B1B78022B6AD1019B84
:1030A000DB684FF000021A80019BDB684FF00002E2
:1030B0009A81019BDB684FF000021A82019A40F668
:1030C000D053C2F200039A420FD14FF01900FDF71E
:1030D000DFF94FF48053C4F202034FF48052C4F27C
:1030E0000202926922F400629A61019A40F6E0536A
:1030F000C2F200039A420FD14FF01C00FDF7C8F94D
:103100004FF48053C4F202034FF48052C4F202021F
:10311000D26922F00102DA61019A40F6F053C2F25C
:1031200000039A420FD14FF01D00FDF7B1F94FF4A3
:103130008053C4F202034FF48052C4F20202D269F7
:1031400022F00202DA61019A40F60063C2F2000343
:103150009A420FD14FF01E00FDF79AF94FF48053B9
:10316000C4F202034FF48052C4F20202D26922F088
:103170000402DA6103B000BDAFF30080AFF300805A
:1031800082B001900B46ADF80230019BDB68BDF8C0
:10319000022002F1FF32DA62019BDB684FF001028C
:1031A0009A82019BDB684FF000025A62019BDB6848
:1031B0004FF000021A82019BDB684FF001029A81F6
:1031C000019BDB684FF005021A8002B0704700BF18
:1031D00082B00190019BDB684FF000021A80019BD6
:1031E000DB684FF000021A82019BDB684FF000029F
:1031F0009A8102B0704700BFAFF30080AFF3008048
:1032000000B587B00190019B1B6A0593059B1B8B42
:103210009BB20493059B9B8A9BB20393049B4FEA4A
:103220000342039B42EA030323F07F434FF0020271
:10323000C0F2030293421ED04FF00202C0F203021A
:10324000934206D84FF00102C0F2030293420DD020
:1032500093E04FF08202C0F20702934234D04FF065
:103260008402C0F20702934241D086E0019B1A8A91
:10327000059B1A8281E0059B9B889BB223F4007317
:103280009AB2059B9A80019B9B691B68019A92697F
:103290001268126842F001021A60059B9B889BB27B
:1032A00043F480539AB2059B9A80019B9B691B68EB
:1032B0005B68012B60D8059B1B889BB223F480635D
:1032C0009AB2059B1A8058E0059B9B889BB223F419
:1032D00000739AB2059B9A80019BDB691B68019A77
:1032E000D2691268126842F001021A6045E0019B3F
:1032F0009B691B685B68002B0FD0019B1B8A43F006
:1033000001039AB2019B1A82059B1B889BB243F46E
:10331000A0639AB2059B1A8036E0059B9B889BB2FE
:1033200023F400739AB2059B9A80059B1B889BB27D
:1033300043F400739AB2059B1A804FF0200383F385
:103340001188FDF745FA019BDB68002B0DD0019B2E
:10335000DB680293019B4FF00002DA60029B4FF0A2
:1033600000029A620298FDF793FCFDF751FA4FF0C4
:10337000000383F3118800E000BF039B03F00A03FE
:10338000002B01D0059B1B8B07B000BDAFF3008065
:1033900000B587B00190019B1B6A04934FF0200396
:1033A00083F31188FDF714FA019BDB691B68019A0E
:1033B000D2691268126822F001021A60019BDB696F
:1033C0005B68019AD269127A4FF00F0101FA02F29A
:1033D0001A60019B9B691B68019A926912681268C6
:1033E00022F001021A60019B9B695B68019A926955
:1033F000127A4FF00F0101FA02F21A60FDF708FA93
:103400004FF0000383F311884FF000030593049BF2
:103410009B8A9BB203F48073002B0BD0049B9B8A86
:103420009BB223F480739AB2049B9A82059B43F06B
:1034300001030593049B9B8A9BB203F40073002B4A
:103440000BD0049B9B8A9BB223F400739AB2049B1B
:103450009A82059B43F002030593049B9B8A9BB2CF
:1034600003F48063002B1BD0049B9B8A9BB223F444
:1034700080639AB2049B9A82049B9B889BB223F43C
:1034800000739AB2049B9A80049B1B889BB243F4FE
:1034900000739AB2049B1A80059B43F004030593C2
:1034A000049B9B8A9BB203F40063002B0BD0049B0C
:1034B0009B8A9BB223F400639AB2049B9A82059B79
:1034C00043F008030593049B9B8A9BB203F480534B
:1034D000002B0BD0049B9B8A9BB223F480539AB29F
:1034E000049B9A82059B43F010030593049B9B8ADF
:1034F0009BB203F48043002B0BD0049B9B8A9BB2AE
:1035000023F480439AB2049B9A82059B43F02003E4
:103510000593049B9B8A9BB29BB21BB2002B0DDAD6
:10352000049B9B8A9BB24FEA43434FEA53439AB2B0
:10353000049B9A82059B43F040030593059B002B57
:1035400020D0019B059A9A604FF0200383F31188E5
:10355000FDF73EF9019BDB68002B0DD0019BDB687A
:103560000393019B4FF00002DA60039B6FF00102AE
:103570009A620398FDF78CFBFDF74AF94FF00003C0
:1035800083F3118807B000BDAFF30080AFF3008074
:1035900008B5FDF75DF940F61060C2F20000FFF7D4
:1035A0002FFEFDF785F9FCF793FE08BDAFF3008011
:1035B00008B5FDF74DF940F61060C2F20000FFF7C4
:1035C000E7FEFDF775F9FCF783FE08BDAFF3008059
:1035D00008B540F61060C2F20000FEF769FC40F644
:1035E0001063C2F200034FF00002DA6040F610638D
:1035F000C2F200034FF4A842C4F200021A6240F67D
:103600001063C2F20003044A9A6140F61063C2F2EA
:103610000003024ADA6108BDB85B0008AC5B000831
:1036200084B001900091019BD3F850340393019B27
:10363000D3F850244FF46053C4F201039A420BD1E3
:10364000009B1A684FF4A243C0F22523B3FBF2F3A8
:103650009AB2039B1A810AE0009B1A684FF4A243B6
:10366000C0F22523B3FBF2F39AB2039B1A81009BAD
:103670009B8843F4045343F02C039AB2039B9A8132
:10368000009BDB8843F040039AB2039B1A82009BA5
:103690001B8943F001039AB2039B9A82039B4FF06C
:1036A00000021A80039B1B88039B9B8804B0704711
:1036B00000B585B001900B46ADF802304FF0000325
:1036C0000393BDF8023003F00803002B03D0039BE3
:1036D00043F080030393BDF8023003F00103DBB233
:1036E000002B03D0039B43F020030393BDF802306B
:1036F00003F00203002B03D0039B43F0400303932A
:10370000BDF8023003F00403002B03D0039B43F405
:10371000807303934FF0200383F31188FDF758F86B
:10372000019B9A68039B42EA0302019B9A60019BFA
:1037300003F1040318464FF00001FDF781FFFDF788
:1037400067F84FF0000383F3118805B000BD00BF98
:1037500000B587B00190019BD3F850340593059BC9
:103760009B89ADF81230059B1B88ADF81030059B86
:103770009B88ADF80E30BDF8103003F00F03002B1E
:1037800005D0BDF8103001981946FFF791FFBDF83C
:10379000103003F48073002B21D04FF0200383F30B
:1037A0001188FDF715F8019B9B6843F40072019B9B
:1037B0009A60019B03F1040318464FF00001FDF7E6
:1037C0003FFFFDF725F84FF0000383F31188059BB9
:1037D0001B889BB223F480739AB2059B1A80BDF8B4
:1037E000103003F02003002B12D04FF0200383F39E
:1037F0001188FCF7EDFFBDF80E30DBB201981946D9
:10380000FEF7A6FCFDF704F84FF0000383F31188E0
:10381000BDF8123003F08003002B3AD0BDF8103011
:1038200003F08003002B34D04FF0200383F3118882
:10383000FCF7CEFF019B03F130031846FEF728F991
:1038400003460293029B002B19DA019B9B6843F00D
:103850000802019B9A60019B03F1040318464FF094
:103860000001FDF7EDFEBDF8123023F0C0039BB25E
:1038700043F040039BB29AB2059B9A8103E0029BFE
:103880009AB2059B9A80FCF7C3FF4FF0000383F3C5
:103890001188BDF8103003F04003002B28D04FF002
:1038A000200383F31188FCF793FF019B9B6843F08F
:1038B0001002019B9A60019B03F1040318464FF02C
:1038C0000001FDF7BDFEFCF7A3FF4FF0000383F3FB
:1038D0001188BDF8123023F040039AB2059B9A81FB
:1038E000059B1B889BB223F040039AB2059B1A806C
:1038F00007B000BDAFF30080AFF30080AFF30080EE
:1039000082B001904FF46053C4F201034FF460524F
:10391000C4F20102928992B242F0800292B29A817C
:1039200002B07047AFF30080AFF30080AFF30080C8
:1039300008B5FCF78DFF40F63460C2F20000FFF7D7
:1039400007FFFCF7B5FFFCF7C3FC08BDAFF3008031
:1039500008B540F63460C2F200004FF0000143F6B3
:103960000112C0F60002FEF783FB40F63463C2F298
:1039700000034FF46052C4F20102C3F8502408BDA2
:1039800000B583B001900091009B002B04D145F657
:10399000D033C0F600030093019B1B7B012B18D191
:1039A000019A40F63463C2F200039A4211D14FF4F7
:1039B0008053C4F202034FF48052C4F202029269AF
:1039C00042F480429A614FF025004FF0C001FCF7AD
:1039D00007FD01980099FFF723FE03B000BD00BF6B
:1039E00082B001904FF48053C4F202034FF480522E
:1039F000C4F20202926942F07D029A614FF40063C0
:103A0000C4F20103019A1268DA604FF40063C4F251
:103A10000103019A92685A604FF40063C4F20103F3
:103A2000019A52681A604FF44063C4F20103019A8C
:103A3000D268DA604FF44063C4F20103019A52691C
:103A40005A604FF44063C4F20103019A12691A608C
:103A50004FF48053C4F20103019A9269DA604FF483
:103A60008053C4F20103019A126A5A604FF48053E2
:103A7000C4F20103019AD2691A604FF4A053C4F250
:103A80000103019A526ADA604FF4A053C4F20103B1
:103A9000019AD26A5A604FF4A053C4F20103019A0A
:103AA000926A1A604FF4C053C4F20103019A126B78
:103AB000DA604FF4C053C4F20103019A926B5A606A
:103AC0004FF4C053C4F20103019A526B1A6002B062
:103AD000704700BFAFF30080AFF30080AFF300800A
:103AE0008AB0039002910192019B032B03D1039BA7
:103AF000029A1A6105E0019B042B02D1039B029AF2
:103B00005A6145F6E033C0F60003019A13441B786E
:103B100004934FF000030693069B0793079B0893BB
:103B2000089B09934FF00003059335E0089B4FEA8B
:103B300003130893099B4FEA03130993069B4FEA6B
:103B400003130693079B4FEA03130793029B03F0AB
:103B50008003002B04D1089B43F00F03089304E07B
:103B6000069A049B42EA03030693029B03F4004374
:103B7000002B04D1099B43F00F03099304E0079A3B
:103B8000049B42EA03030793029B4FEA4303029319
:103B9000059B03F101030593059B072BC6D9039BE6
:103BA0005A68099B02EA0302079B42EA0302039B4D
:103BB0005A60039B1A68089B02EA0302069B42EACA
:103BC0000302039B1A600AB0704700BFAFF3008086
:103BD00008B5FEF745FD08BDAFF30080AFF30080E8
:103BE000704700BFAFF30080AFF30080AFF30080F9
:103BF00082B00190009141F28823C2F200031A7C46
:103C000042F001021A7441F28823C2F200031A68DA
:103C100041F28823C2F200035A6002B0704700BF2D
:103C200082B00190009141F28823C2F2000393F820
:103C3000242042F0010283F8242041F28823C2F2BA
:103C400000035A6941F28823C2F200039A6102B06C
:103C5000704700BFAFF30080AFF30080AFF3008088
:103C600082B00190009102B0704700BFAFF30080B6
:103C700010B58EB0019002AB0D9341F2B020C2F2AC
:103C800000004FF0FF31FDF7CBFD0346DAB20D9B8C
:103C90001A700D9B03F1010441F2B020C2F2000042
:103CA0004FF0FF31FDF7BCFD0346DBB223700D9BE7
:103CB00003F1020441F2B020C2F200004FF0FF31E4
:103CC000FDF7AEFD0346DBB223700D9B03F1030449
:103CD00041F2B020C2F200004FF0FF31FDF7A0FD2D
:103CE0000346DBB2237041F28823C2F200030C9337
:103CF0004FF0200383F31188FCF72AFD029A0C9BF6
:103D00001B68C3EB02030B93FCF742FD4FF000036B
:103D100083F311880B9B002B02DD4FF0010301E0C0
:103D20004FF0FF330A930B9B002BB8BF5B420B9302
:103D30000A9800F0DDFE4FF0010000F009FF4FF09F
:103D40001900FDF745FA40F60003C2F200031A68B5
:103D500048F2A063C0F2010393FBF2F309930B9BBB
:103D60004FEAD37213444FEA630308934FF02003E2
:103D700083F31188FCF7ECFC0A9B002BD4BF0023D3
:103D80000123D9B20C9A137C61F3820313740C9B48
:103D9000099ADA600C9B0B9A9A60FCF7F9FC4FF0D9
:103DA000000383F31188099B9BB240F6D050C2F206
:103DB00000001946FEF72CF84FF0200383F311881A
:103DC000FCF7C6FC0C9B9B680793FCF7E1FC4FF0EB
:103DD000000383F311880B9A079BC3EB020306933E
:103DE000069B0593059A089B9A4204DD0B9A059B56
:103DF000C3EB020300E0059B059340F60003C2F20B
:103E000000031A6840F60003C2F200031B6803FBBC
:103E100002F240F60803C2F200031B684FEA4303B4
:103E2000059901FB03F31344184600F0A9FE03466D
:103E3000049340F60403C2F200031B68049A9A42FA
:103E4000B8BF1346049348F2A063C0F20103049A7A
:103E500093FBF2F30993099B022BB8BF022309934A
:103E60004FF0200383F31188FCF772FC0C9B099A36
:103E7000DA60FCF78DFC4FF0000383F3118841F208
:103E8000DC20C2F200004FF00001FDF7C9FC034640
:103E90000393039BB3F1FF3F34D040F6D050C2F2FE
:103EA0000000FDF785FF40F6E050C2F20000FDF78C
:103EB0007FFF4FF44063C4F201039B6803F00103EA
:103EC000DBB2002B23D04FF44063C4F201034FF068
:103ED00001025A610C9B9B6803F1FF320C9B9A60B4
:103EE0000C9B1A680C9B1B7CC3F38003DBB2002B7A
:103EF00002DD4FF0010301E04FF0FF331A440C9B49
:103F00001A6005E0079B002B3FF756AF00E000BFAB
:103F10004FF01900FDF75CF94FF0200383F311888F
:103F2000FCF716FC41F28823C2F2000393F8243018
:103F300003F00203DBB2002B03D14FF0FF3000F09F
:103F400007FEFCF725FC4FF0000383F311884FF0C8
:103F5000200383F31188FCF7FBFB0C9A137C6FF3AF
:103F600041031374FCF714FC4FF0000383F3118832
:103F700081E600BFAFF30080AFF30080AFF30080B5
:103F800010B58EB0019002AB0D9341F20030C2F239
:103F900000004FF0FF31FDF743FC0346DAB20D9B02
:103FA0001A700D9B03F1010441F20030C2F20000CF
:103FB0004FF0FF31FDF734FC0346DBB223700D9B5D
:103FC00003F1020441F20030C2F200004FF0FF3171
:103FD000FDF726FC0346DBB223700D9B03F10304BF
:103FE00041F20030C2F200004FF0FF31FDF718FC43
:103FF0000346DBB22370A24B0C934FF0200383F3F4
:104000001188FCF7A5FB029A0C9B1B68C3EB02030B
:104010000B93FCF7BDFB4FF0000383F311880B9B60
:10402000002B02DD4FF0010301E04FF0FF330A9354
:104030000B9B002BB8BF5B420B930A9800F070FDFE
:104040004FF0010000F084FD4FF01900FDF7C0F8BB
:1040500040F60003C2F200031A6848F2A063C0F2FF
:10406000010393FBF2F309930B9B4FEAD3721344C2
:104070004FEA630308934FF0200383F31188FCF7A2
:1040800067FB0A9B002BD4BF00230123D9B20C9AF3
:10409000137C61F3820313740C9B099ADA600C9B06
:1040A0000B9A9A60FCF774FB4FF0000383F31188BE
:1040B000099B9BB240F6F050C2F200001946FDF792
:1040C000A7FE4FF0200383F31188FCF741FB0C9B04
:1040D0009B680793FCF75CFB4FF0000383F31188A8
:1040E0000B9A079BC3EB02030693069B0593059A65
:1040F000089B9A4204DD0B9A059BC3EB020300E088
:10410000059B059340F60003C2F200031A6840F6CF
:104110000003C2F200031B6803FB02F240F608032F
:10412000C2F200031B684FEA4303059901FB03F346
:104130001344184600F024FD0346049340F604039C
:10414000C2F200031B68049A9A42B8BF1346049354
:1041500048F2A063C0F20103049A93FBF2F30993BF
:10416000099B022BB8BF022309934FF0200383F36E
:104170001188FCF7EDFA0C9B099ADA60FCF708FB52
:104180004FF0000383F3118841F2DC20C2F20000FB
:104190004FF00001FDF744FB03460393039BB3F18B
:1041A000FF3F36D040F6F050C2F20000FDF700FEAF
:1041B00040F60060C2F20000FDF7FAFD4FF4006324
:1041C000C4F201039B684FEA530303F00103DBB21F
:1041D000002B23D04FF40063C4F201034FF002021E
:1041E0005A610C9B9B6803F1FF320C9B9A600C9BFD
:1041F0001A680C9B1B7CC3F38003DBB2002B02DD2F
:104200004FF0010301E04FF0FF331A440C9B1A609A
:1042100005E0079B002B3FF754AF00E000BF4FF0D5
:104220001900FCF7D5FF4FF0200383F31188FCF74A
:104230008FFA41F28823C2F200031B7C03F00203D1
:10424000DBB2002B03D14FF0FF3000F081FCFCF714
:104250009FFA4FF0000383F311884FF0200383F39C
:104260001188FCF775FA0C9A137C6FF341031374F1
:10427000FCF78EFA4FF0000383F3118883E600BF4A
:104280009C120020AFF30080AFF30080AFF30080FA
:1042900000B585B0019041F28823C2F20003039378
:1042A000039B9B68002B34DD4FF44063C4F2010391
:1042B0004FF001021A614FF0200383F31188FCF7DD
:1042C00087FA40F6E053C2F200031B78022B10D1AC
:1042D000039BDB684FEAD37213444FEA63030293F4
:1042E000029B9BB240F6E050C2F200001946FDF777
:1042F000AFFD039BDB689BB240F6D050C2F20000DA
:104300001946FDF7A5FDFCF783FA4FF0000383F390
:10431000118805B000BD00BFAFF30080AFF300808F
:1043200084B0019041F28823C2F2000303934FF45A
:104330004063C4F201034FF001025A61039B9B6882
:1043400003F1FF32039B9A60039B1A68039B1B7C5B
:10435000C3F38003DBB2002B02DD4FF0010301E069
:104360004FF0FF331A44039B1A6004B0704700BF3C
:1043700000B585B001901E4B0393039B9B68002BF7
:1043800034DD4FF40063C4F201034FF002021A61FE
:104390004FF0200383F31188FCF71AFA40F600630C
:1043A000C2F200031B78022B10D1039BDB684FEA9B
:1043B000D37213444FEA63030293029B9BB240F60D
:1043C0000060C2F200001946FDF742FD039BDB6866
:1043D0009BB240F6F050C2F200001946FDF738FDDE
:1043E000FCF716FA4FF0000383F3118805B000BD07
:1043F0009C120020AFF30080AFF30080AFF3008089
:1044000084B00190104B03934FF40063C4F2010396
:104410004FF002025A61039B9B6803F1FF32039B3A
:104420009A60039B1A68039B1B7CC3F38003DBB277
:10443000002B02DD4FF0010301E04FF0FF331A447F
:10444000039B1A6004B070479C120020AFF30080F9
:1044500000B587B0019000916B4605934FF02003A3
:1044600083F31188FCF774F9019B002BD4BF002360
:104470000123049341F28822C2F2000204990B4600
:104480004FEA83030B444FEA8303134403F1100202
:1044900013786FF30003137041F28822C2F2000216
:1044A00004990B464FEA83030B444FEA83031344FA
:1044B00003F11002137843F002031370019B002BE9
:1044C00004DD41F20033C2F2000303E041F2B02305
:1044D000C2F200030393059B1B7803981946FDF76E
:1044E00057F9059B03F101031B7803981946FDF763
:1044F0004FF9059B03F102031B7803981946FDF75A
:1045000047F9059B03F103031B7803981946FDF750
:104510003FF9FCF73DF94FF0000383F3118807B032
:1045200000BD00BFAFF30080AFF30080AFF30080A9
:1045300000B583B04FF40060C4F201004FF02001D9
:104540004FF00202FFF7CCFA4FF44060C4F20100D2
:104550004FF480714FF00202FFF7C2FA4FF440604F
:10456000C4F201004FF480514FF00202FFF7B8FA95
:1045700041F2B020C2F2000041F2D021C2F20001AB
:104580004FF00C024FF00003FDF7DAF841F2DC20A7
:10459000C2F2000041F2FC21C2F200014FF003021E
:1045A0004FF00003FDF7CCF841F20030C2F20000FA
:1045B00041F22031C2F200014FF00C024FF0000333
:1045C000FDF7BEF841F22C30C2F2000041F24C314E
:1045D000C2F200014FF003024FF00003FDF7B0F804
:1045E0004FF44060C4F201004FF480514FF00202DA
:1045F000FFF776FA4FF40060C4F201004FF020019B
:104600004FF00202FFF76CFA4FF44060C4F2010071
:104610004FF480714FF00202FFF762FA40F6C85083
:10462000C2F2000045F64041C0F60001FDF738FB3C
:1046300040F6D050C2F2000045F6E041C0F600015D
:10464000FDF77EFB40F6E050C2F2000045F6F04177
:10465000C0F60001FDF774FB40F6F050C2F2000016
:1046600045F60051C0F60001FDF76AFB40F6006018
:10467000C2F2000045F61051C0F60001FDF760FBE4
:104680004FF44063C4F201034FF001025A614FF44A
:104690004060C4F201004FF001014FF00602FFF745
:1046A0001FFA4FF40063C4F201034FF002025A6193
:1046B0004FF40060C4F201004FF002014FF0060217
:1046C000FFF70EFA4FF44063C4F201034FF4806227
:1046D0005A614FF40063C4F201034FF040025A6183
:1046E0004FF40063C4F201034FF080025A614FF4AB
:1046F0004063C4F201034FF400521A614FF440606A
:10470000C4F201004FF480614FF00602FFF7E8F9B0
:104710004FF40060C4F201004FF040014FF0060278
:10472000FFF7DEF94FF40060C4F201004FF08001A2
:104730004FF00602FFF7D4F94FF44060C4F20100D5
:104740004FF400514FF00602FFF7CAF94FF44060F2
:10475000C4F201004FF400614FF00602FFF7C0F908
:104760004FF40060C4F201004FF010014FF0060258
:10477000FFF7B6F94FF00003009341F25030C2F258
:1047800000004FF496614FF0400243F67143C0F6CB
:104790000003FCF7DDFC4FF00003009341F600003E
:1047A000C2F200004FF496614FF0400243F681736D
:1047B000C0F60003FCF7CCFC4FF0000000F068F9F5
:1047C0004FF0000000F04CF94FF0010000F078F9D4
:1047D00041F28823C2F200034FF000021A6041F256
:1047E0008823C2F200034FF000025A6041F288238E
:1047F000C2F200034FF000029A6041F28823C2F235
:1048000000034FF00002DA6041F28823C2F2000395
:104810001A7C6FF300021A7441F28823C2F200037B
:104820001A7C6FF341021A7441F28823C2F200032A
:104830001A7C6FF382021A7441F28823C2F20003D9
:104840004FF000025A6141F28823C2F200034FF098
:1048500000029A6141F28823C2F200034FF0000285
:10486000DA6141F28823C2F200034FF00002DA60FD
:1048700041F28823C2F2000393F824206FF3000270
:1048800083F8242041F28823C2F2000393F8242005
:104890006FF3410283F8242041F28823C2F200031F
:1048A00093F824206FF3820283F8242003B000BD24
:1048B00084B001900091019B002BD4BF0023012301
:1048C000039341F28822C2F2000203990B464FEA99
:1048D00083030B444FEA83031344009A1A6004B025
:1048E000704700BFAFF30080AFF30080AFF30080EC
:1048F00084B003900291019240F60003C2F20003DB
:10490000039A1A6040F60403C2F20003029A1A6086
:1049100040F60803C2F20003019A1A6004B070471F
:1049200000B587B0039002910192039B002BD4BF86
:10493000002301230593059A13464FEA830313448A
:104940004FEA83031A4641F28823C2F2000313445C
:1049500004934FF0200383F31188FBF7F9FE019BCA
:10496000002B03D0049B5A68019B1A60029B002B0A
:1049700007D0049B1B7CC3F30003DBB21A46029BE7
:104980001A60FBF705FF4FF0000383F3118807B0AF
:1049900000BD00BFAFF30080AFF30080AFF3008035
:1049A00000B587B001900091019B002BD4BF00237C
:1049B00001230593059A13464FEA830313444FEAF4
:1049C00083031A4641F28823C2F20003134404937E
:1049D0004FF0200383F31188FBF7BAFE049B1B7C86
:1049E000C3F34003DBB20393009B002B03D0049B73
:1049F0001A68009B1A60FBF7CBFE4FF0000383F3AD
:104A00001188039B184607B000BD00BFAFF30080BC
:104A100000B585B00190019B002B04DD41F22C33E1
:104A2000C2F2000303E041F2DC23C2F2000303936D
:104A30004FF0200383F31188FBF78AFE03984FF0B1
:104A40000001FCF7A5FEFBF7A3FE4FF0000383F384
:104A5000118805B000BD00BFAFF30080AFF3008048
:104A600082B00190019B002B07DD4FF40063C4F27C
:104A700001034FF040025A6106E04FF40063C4F2B4
:104A800001034FF040021A6102B07047AFF300809B
:104A900082B00190019B002B07DD4FF40063C4F24C
:104AA00001034FF080025A6106E04FF40063C4F244
:104AB00001034FF080021A6102B07047AFF300802B
:104AC00082B00190019B002B07DD4FF44063C4F2DC
:104AD00001034FF480625A6106E04FF44063C4F270
:104AE00001034FF480621A6102B07047AFF3008097
:104AF00082B00190019B002B07DD4FF44063C4F2AC
:104B000001034FF400621A6106E04FF44063C4F2FF
:104B100001034FF400625A6102B07047AFF30080A6
:104B200082B00190019B002B07DD4FF40063C4F2BB
:104B300001034FF010021A6106E04FF40063C4F263
:104B400001034FF010025A6102B07047AFF30080CA
:104B500082B00190019B002B07DD4FF44063C4F24B
:104B600001034FF400525A6106E04FF44063C4F26F
:104B700001034FF400521A6102B07047AFF3008096
:104B800086B00190019B0593019B0493019A059BBC
:104B900092FBF3F2059B13440393039B4FEAD372FA
:104BA00013444FEA63031946039A4FEAE2734FEA4C
:104BB000D3731A4402F00102C3EB02030B440593C2
:104BC000049A059B9A4202DD059B0493DEE7019A55
:104BD000049B92FBF3F2049B03F1FF339A420ED144
:104BE000019B049A93FBF2F2049901FB02F2C2EBDF
:104BF0000303002B03D1049B03F1FF330493049BB5
:104C0000184606B0704700BFAFF30080AFF30080D6
:104C100000B583B0FDF714F8FBF7C2FC00F010F804
:104C200000F0BEFB00F034FCFFF782FC4FF0030005
:104C300000F0F6FB4FF06403019300F039F8FCE755
:104C400008B54FF40060C4F201004FF400714FF05A
:104C50001002FEF745FF4FF40060C4F201004FF46C
:104C600080614FF00202FEF73BFF4FF40060C4F298
:104C700001004FF400614FF01002FEF731FF4FF4D6
:104C80000060C4F201004FF480514FF00202FEF7C1
:104C900027FF40F63460C2F2000045F62051C0F60E
:104CA0000001FDF71DFA08BDAFF30080AFF30080EF
:104CB00000B583B042484FF0FF31FCF7B1FD034629
:104CC0000193019BB3F1FF3F03D0019B13F1020F4E
:104CD00002D14FF0010301E04FF000038DF80330E3
:104CE0009DF80330002B69D1019B8DF8023041F60D
:104CF000F043C2F200031B78002B37D19DF802303D
:104D0000002B13D141F6F443C2F200031B6841F6B5
:104D1000B040C2F20000194600F05AF841F6F443E0
:104D2000C2F200034FF000021A6039E09DF8023031
:104D30005C2B13D041F6F443C2F200031A6841F62B
:104D4000B043C2F200039DF80210995402F101022F
:104D500041F6F443C2F200031A6021E041F6F04349
:104D6000C2F200034FF001021A7019E041F6F0435D
:104D7000C2F200034FF000021A7041F6F443C2F28F
:104D800000031A6841F6B043C2F200039DF8021016
:104D9000995402F1010241F6F443C2F200031A6091
:104DA00041F6F443C2F200031B68202BB4BF1A463D
:104DB000202241F6F443C2F200031A6003B000BDA2
:104DC000440E0020AFF30080AFF30080AFF300800B
:104DD00000B587B001900091019B1B788DF81330CE
:104DE000019B03F1010303939DF81330012B02D0C3
:104DF000022B1AD01CE04FF0000305930EE0059B38
:104E0000039A13441A7841F6D043C2F2000305997D
:104E10000B441A70059B03F101030593009B03F1FA
:104E2000FF32059B9A42EADC02E000F009F800BF7D
:104E300007B000BDAFF30080AFF30080AFF3008098
:104E400000B583B041F6B043C2F200035B78019332
:104E50004FF00B030093019A009B9A4201DA019BE9
:104E600001E04FF00003019340F60C03C2F200038F
:104E7000019A53F8223041F6D040C2F20000984720
:104E800003B000BDAFF30080AFF30080AFF300804C
:104E900000B589B0019045F60033C0F600030DF16E
:104EA0000C0C93E807008CE807004FF00B03069307
:104EB0004FF0000307930AE003AA079B13441B78F3
:104EC000184600F0DDF9079B03F101030793079AE9
:104ED000069B9A42F0DB00F0F3F909B000BD00BF79
:104EE00000B587B0019045F60C32C0F6000202AB67
:104EF00092E80300186003F1040319804FF00503E2
:104F000004934FF0000305930AE002AA059B1344A3
:104F10001B78184600F0B4F9059B03F101030593D3
:104F2000059A049B9A42F0DB00F0CAF907B000BD75
:104F300000B583B00190019B1B78184600F070FA11
:104F400003B000BDAFF30080AFF30080AFF300808B
:104F500000B585B0019045F61432C0F6000203ABEF
:104F600012681146198003F102034FEA12421A70C7
:104F70009DF80C30184600F083F99DF80D30184666
:104F800000F07EF900F09CF94FF0FA00FCF720F9F0
:104F900000F076FA05B000BDAFF30080AFF30080FB
:104FA00000B585B00190019B1B780393039BDBB296
:104FB000184600F0B5FA05B000BD00BFAFF30080A1
:104FC00000B587B0019003AB0593019B1B78002BC4
:104FD0000CBF002301230493019B03F104031A78FF
:104FE000059B1A70059B03F10103019A02F103026C
:104FF00012781A70059B03F10203019A02F1020272
:1050000012781A70059B03F10303019A02F1010261
:1050100012781A70039B04981946FFF719FA07B023
:1050200000BD00BFAFF30080AFF30080AFF300809E
:1050300000B585B00190019B1B78002B0CBF0023AD
:10504000012303930398FFF7E3FC05B000BD00BF05
:1050500000B587B00190019B1B78002B0CBF00238B
:105060000123059302AB05981946FFF799FC034607
:10507000049302AB0393049BDBB2184600F000F9E3
:10508000039B1B78184600F0FBF8039B03F1010318
:105090001B78184600F0F4F8039B03F102031B7819
:1050A000184600F0EDF8039B03F103031B78184644
:1050B00000F0E6F800F004F907B000BDAFF300809F
:1050C00000B587B00190019B1B78002B0CBF00231B
:1050D0000123059303AA02AB059811461A46FFF770
:1050E0001FFC02AB0493039BDBB2184600F0C8F828
:1050F000049B1B78184600F0C3F8049B03F10103DE
:105100001B78184600F0BCF8049B03F102031B78DF
:10511000184600F0B5F8049B03F103031B7818460A
:1051200000F0AEF800F0CCF807B000BDAFF300809F
:1051300000B587B00190019B1B78002B0CBF0023AA
:105140000123059303AB0493019B03F104031A7835
:10515000049B1A70049B03F10103019A02F10302FC
:1051600012781A70049B03F10203019A02F1020201
:1051700012781A70049B03F10303019A02F10102F1
:1051800012781A70039B05981946FFF791FB07B038
:1051900000BD00BFAFF30080AFF30080AFF300802D
:1051A00000B587B0019004AB0593019B03F10303A5
:1051B0001A78059B1A70059B03F10103019A02F10D
:1051C000020212781A70059B03F10203019A02F1A0
:1051D000010212781A70059B03F10303019A1278F9
:1051E0001A7003AB0593019B03F107031A78059B23
:1051F0001A70059B03F10103019A02F1060212786D
:105200001A70059B03F10203019A02F1050212785C
:105210001A70059B03F10303019A02F1040212784C
:105220001A7002AB0593019B03F10B031A78059BDF
:105230001A70059B03F10103019A02F10A02127828
:105240001A70059B03F10203019A02F10902127818
:105250001A70059B03F10303019A02F10802127808
:105260001A700499039A029B084611461A46FFF7E2
:105270003FFB07B000BD00BFAFF30080AFF300807D
:1052800000B583B003468DF807309DF80730002B3A
:1052900003D09DF807305C2B06D108484FF05C0125
:1052A0004FF0FF32FCF7A4FB9DF807300348194686
:1052B0004FF0FF32FCF79CFB03B000BD640E0020F2
:1052C00008B504484FF000014FF0FF32FCF790FBA7
:1052D00008BD00BF640E0020AFF30080AFF3008074
:1052E00000B583B0019040F66453C2F20003DA695E
:1052F00045F62033C0F60003936141F6F840C2F250
:105300000000FCF745F841F60853C2F200031A68A2
:1053100041F6C063C2F200031A6041F6C063C2F2F4
:1053200000031B6803F00103DBB2002B0CD04FF429
:105330008053C4F201034FF48052C4F20102D268D8
:1053400082F48042DA6006E04FF48053C4F2010335
:105350004FF480425A6141F6C063C2F200031B68F9
:1053600003F00203002B0CD04FF48053C4F201036E
:105370004FF48052C4F20102D26882F40052DA6023
:1053800006E04FF48053C4F201034FF400525A6117
:10539000FCF79EF84FF0FA00FBF71AFFADE700BFED
:1053A00000B583B04FF48053C4F201034FF4804240
:1053B0005A614FF48053C4F201034FF400525A6112
:1053C0004FF48050C4F201004FF480414FF00602C8
:1053D000FEF786FB4FF48050C4F201004FF40051F9
:1053E0004FF00602FEF77CFB41F6F840C2F20000E7
:1053F000FBF7AEFF4FF00003009341F61050C2F2EE
:1054000000004FF4D8714FF0400245F2E123C0F69E
:105410000003FBF79DFE03B000BD00BFAFF30080AB
:1054200000B583B0019041F6F840C2F20000FBF7EE
:10543000AFFF41F60853C2F20003019A1A60FCF76D
:1054400047F803B000BD00BFAFF30080AFF30080AA
:10545000BFF34F8F4FF46D42CEF200024FF46D4315
:10546000CEF20003DB6803F4E0614FF00403C0F206
:10547000FA5341EA0303D360BFF34F8FFEE700BF47
:1054800008B5FFF7E5FF08BDAFF30080AFF300807C
:1054900000B583B04FF40063C4F201034FF0010282
:1054A0005A614FF48053C4F201034FF400425A6131
:1054B0004FF40060C4F201004FF001014FF006020A
:1054C000FEF70EFB4FF48050C4F201004FF4004190
:1054D0004FF00602FEF704FB42F27800C2F2000031
:1054E00042F29801C2F200014FF003024FF00003B4
:1054F000FCF726F94FF00003009341F6C860C2F2B2
:1055000000004FF4D8714FF0400245F27153C0F6DD
:105510000003FBF71DFE03B000BD00BFAFF300802A
:1055200000B583B003468DF807304FF0200383F3B6
:105530001188FBF70DF99DF80730002B02D04FF0D2
:10554000010301E04FF0020342F27800C2F20000D2
:105550001946FCF71DF9FBF71BF94FF0000383F325
:10556000118803B000BD00BFAFF30080AFF300802F
:1055700000B585B0019040F66453C2F20003DA69C9
:1055800045F63033C0F60003936142F27800C2F270
:1055900000004FF0FF31FCF743F903460393039BF0
:1055A00003F00103DBB2002B07D04FF40063C4F219
:1055B00001034FF001021A6106E04FF40063C4F2E8
:1055C00001034FF001025A61039B03F00203002B19
:1055D00007D04FF48053C4F201034FF400421A6124
:1055E00006E04FF48053C4F201034FF400425A61C5
:1055F0004FF01900FBF7ECFD4FF40063C4F2010318
:105600004FF001025A614FF48053C4F201034FF48A
:1056100000425A61B9E700BFAFF30080AFF30080EA
:1056200069646C65000000006D61696E0000000037
:10563000535623310000000053562332000000006F
:10564000535623330000000053562334000000005B
:105650005356233500000000535623360000000047
:105660005356233700000000535623380000000033
:1056700053562339000000005356233130000000F8
:1056800053562331310000000000000000000000EC
:10569000226368565453657449222829000000008B
:1056A00022636856545265736574492228290000A4
:1056B0006368565452657365744928292C20233138
:1056C00000000000000000000000000000000000DA
:1056D000636853636852656164794928292C2023E3
:1056E00031000000737461636B206F766572666CC5
:1056F0006F770000000000000000000000000000C4
:10570000226368546864437265617465492228297C
:105710000000000022636854686453657450726925
:105720006F72697479222829000000006368546848
:1057300064526573756D6528292C202331000000A3
:10574000226368546864536C6565702228290000E0
:105750006368546864457869745328292C20233180
:10576000000000002263685468645761697422284D
:105770002900000063685468645761697428292C03
:1057800020233100000000000000000000000000A5
:105790002263684D7478496E6974222829000000DC
:1057A0002263684D74784C6F636B53222829000084
:1057B00063684D74784C6F636B5328292C20233118
:1057C0000000000063684D74784C6F636B532829A8
:1057D0002C202332000000002263684D747854723C
:1057E000794C6F636B5322282900000063684D7465
:1057F00078556E6C6F636B28292C202331000000D4
:1058000063684D7478556E6C6F636B28292C202368
:105810003200000063684D7478556E6C6F636B5393
:1058200028292C202331000063684D7478556E6C54
:105830006F636B5328292C202332000000000000E6
:1058400022636845767452656769737465724D6149
:10585000736B222829000000226368457674556E18
:10586000726567697374657222282900226368452E
:1058700076745369676E616C22282900226368453B
:1058800076745369676E616C492228290000000014
:1058900022636845767442726F6164636173744D0C
:1058A00061736B4922282900226368457674446934
:1058B000737061746368222829000000636845766C
:1058C00074446973706174636828292C2023310043
:1058D00022636849515265616454696D656F7574DE
:1058E000222829002263684F5157726974655469F0
:1058F0006D656F757422282900000000000000000B
:1059000022657874537461727422282900000000A3
:10591000657874537461727428292C202331000037
:105920002265787453746F70222829006578745347
:10593000746F7028292C20233100000022657874B0
:105940004368616E6E656C456E61626C65222829E4
:10595000000000006578744368616E6E656C456E8A
:1059600061626C6528292C2023310000226578743F
:105970004368616E6E656C44697361626C65222870
:10598000290000006578744368616E6E656C446937
:105990007361626C6528292C20233100000000000F
:1059A00022707453746172742228290067707453D2
:1059B0007461727428292C202331000022677074CE
:1059C00053746F702228290067707453746F7028A5
:1059D000292C2023310000002267707453746172F7
:1059E00074436F6E74696E756F7573492228290050
:1059F0006770745374617274436F6E74696E756FFF
:105A000075734928292C2023310000002267707407
:105A100053746172744F6E6553686F7449222829FC
:105A20000000000067707453746172744F6E6553A8
:105A3000686F744928292C20233100002267707474
:105A400053746F7054696D657249222829000000F3
:105A500067707453746F7054696D65724928292C8E
:105A600020233100677074506F6C6C656444656C02
:105A7000617928292C20233100000000000000005B
:105A800022736453746172742228290073645374FE
:105A900061727428292C2023310000002273645382
:105AA000746F702228290000736453746F70282962
:105AB0002C20233100000000227364496E636F6D57
:105AC000696E674461746149222829002273645217
:105AD00065717565737444617461492228290000F9
