:020000040800F2
:1000000000040020A10A0008710B0008710B000811
:10001000710B0008710B0008710B0008710B0008D0
:10002000710B0008710B0008710B0008C10B000870
:10003000710B0008710B0008710B0008910B000890
:10004000710B0008112F0008710B0008710B0008DC
:10005000710B0008710B0008B12C0008E12C00089E
:10006000112D0008412D0008712D000851280008AD
:10007000A1280008F128000841290008912900085A
:10008000E1290008312A0008710B0008710B0008F3
:10009000710B0008710B0008710B0008A12D0008FE
:1000A000710B0008C12F0008710B0008710B0008CC
:1000B000E12F00080130000821300008F136000867
:1000C00011370008710B0008710B0008710B000854
:1000D000710B0008D13B0008710B0008710B000880
:0C00E000512E0008710B0008412F000891
:1000F0004BB942B9002908BF002802D04FF0FF31A8
:10010000084600F03DB882B0EC462DE9005000F002
:100110001FF8DDF804E002B00CBC704700000000DE
:100120002DE970431646804689461D4600F030F89A
:1001300000FB05F3A0FB064506FB0136069B75197F
:10014000B8EB040469EB0505C3E90045BDE870831D
:100150002DE970431646804689461D4600F0C8F9D1
:1001600000FB05F3A0FB064506FB0136069B75194F
:10017000B8EB040469EB0505C3E90045BDE87083ED
:10018000704700BF000000000000000000000000F9
:1001900000292DE9F04F1C4685B0C0F2CB80002627
:1001A000002CC0F2C2808C4617461446054688468D
:1001B0009A46002B4AD18A426ED9B2FA82F35BB1D9
:1001C000C3F1200401FA03F830FA04F210FA03F53F
:1001D00017FA03F442EA08084FEA144A4046514627
:1001E0001FFA84FB00F00CFB51468146404600F0AC
:1001F00035FC280C0BFB09F340EA0148434509D9BB
:1002000018EB040809F1FF3904D2434584BF09F112
:10021000FF39A044C3EB080851464046ADB200F098
:10022000EFFA51460746404600F018FC0BFB07FB6F
:1002300045EA0145AB4505D9013F2D1902D2AB4531
:1002400088BF013F47EA0949002403E08B420CD9EB
:100250000024A1464A46234616B1524263EB4303AB
:100260001046194605B0BDE8F08FB3FA83F4002CB0
:1002700040F0B3808B424FF001092CBF4FF0000CCF
:100280004FF0010C82428CBF67464CF00107002FF3
:10029000E0D13C46B946DDE722B90120114600F025
:1002A000AFFA0446B4FA84F3002B49D1C4EB080832
:1002B000270C1FFA84FA012102913946404600F0CA
:1002C0009FFA39468146404600F0C8FB2A0C0AFBDB
:1002D00009F342EA014B5B4509D91BEB040B09F119
:1002E000FF3904D25B4584BF09F1FF39A344C3EB56
:1002F0000B0B39465846ADB200F082FA39468046BB
:10030000584600F0ABFB0AFB08FA45EA0145AA454E
:1003100007D92D1908F1FF3803D2AA4588BF08F183
:10032000FF3848EA0949029C94E7F643524263EBDE
:10033000430338E7404261EB41014FF0FF362FE7BE
:100340009C40C3F1200728FA07FA35FA07F2270C78
:1003500008FA03FB3946504642EA0B029D400292DE
:1003600000F04EFA39468346504600F077FB029B78
:100370001FFA84FA4FEA13490AFB0BF349EA0148D2
:10038000434505D918EB04080BF1FF3BC0F0AA80E8
:10039000C3EB08083946404600F032FA3946814638
:1003A000404600F05BFB02980AFB09F31FFA80FC51
:1003B0004CEA0148434509D918EB040809F1FF3913
:1003C00004D2434584BF09F1FF39A04449EA0B4EEA
:1003D000C3EB0808CDF808E06FE7C4F120030AFA80
:1003E00004FADA4021FA03F842EA0A0A01FA04F9A7
:1003F00030FA03F240464FEA1A4B42EA09010391F0
:10040000594617FA04F3029300F0FAF95946814667
:10041000404600F023FB1FFA8AF3039803FB09F21E
:10042000070C47EA0148424504D918EB0A0809F1CC
:10043000FF3951D3C2EB080859464046019300F0FA
:10044000DFF959460746404600F008FB019B039838
:1004500003FB07F31FFA80FC4CEA014C634507D904
:10046000013F1CEB0A0C03D2634501D9013FD44480
:1004700047EA0949029FC3EB0C0C1FFA89FE4FEAB9
:100480001943B8B23F0C00FB0EF800FB03F107FB69
:100490000E1207FB03F002EB1842914288BF00F5F1
:1004A000803000EB124EF44512D34FEA02421FFA9D
:1004B00088F814BF0021012102EB080C15FA04F49E
:1004C00064452CBF002401F00104002C3FF4C2AEAF
:1004D00009F1FF390024BDE6424584BF09F1FF3927
:1004E000D044A7E7434584BF0BF1FF3BA0444FE74F
:1004F0002DE9F04F054683B00C46174680460E4660
:10050000002B4DD18A4261D9B2FA82F353B1C3F1C3
:10051000200411FA03F630FA04F29F4042EA06067C
:1005200000FA03F83C0C304621461FFA87FA00F027
:1005300067F921468146304600F090FA4FEA1840AC
:100540000AFB09F340EA0146B34208D9F61909F15A
:10055000FF3904D2B34284BF09F1FF39F619F61A04
:10056000214630461FFA88F800F04AF92146054630
:10057000304600F073FA0AFB05FA48EA0148C24522
:1005800006D9013D18EB070802D2C24588BF013DDC
:1005900045EA094A00263146504603B0BDE8F08FCF
:1005A0008B425BD8B3FA83F6002E5AD18B424FF0C0
:1005B000010A2CBF0024012482428CBF254644F04E
:1005C0000105002DE7D12E46AA46E4E722B9012015
:1005D000114600F015F90746B7FA87F3002B40F0F3
:1005E000B680E41B4FEA174BBDB2012659462046A0
:1005F00000F006F959464FEA18498246204600F0B5
:100600002DFA05FB0AF349EA0144A34208D9E4198B
:100610000AF1FF3A04D2A34284BF0AF1FF3AE41977
:10062000E41A5946204600F0EBF859468146204628
:1006300000F014FA1FFA88F305FB09F543EA0148B4
:10064000454508D918EB070809F1FF3903D245459C
:1006500088BF09F1FF3949EA0A4A9CE70026B246F9
:1006600099E7C6F12001B34032FA01F724FA01F903
:100670001F43B44030FA01F348464FEA174843EAB3
:10068000040101914146B240009200F0B9F84146A0
:10069000BCB28246484600F0E1F9019804FB0AF337
:1006A0004FEA104B4BEA014B5B4505D91BEB070B9F
:1006B0000AF1FF3AC0F09380C3EB0B0B414658465A
:1006C00000F09EF841468146584600F0C7F901986F
:1006D00004FB09F41FFA80FC4CEA01439C4203D955
:1006E000DB1909F1FF3974D3009F49EA0A4A1C1B40
:1006F0001FFA8AFEB8B23A0C4FEA1A4700FB0EFC0A
:1007000000FB07F302FB0E3102FB07F201EB1C4179
:100710008B4288BF02F5803202EB114E744512D332
:100720004FEA01411FFA8CF214BF0023012301EBB1
:10073000020C15FA06F666452CBF002603F00106EA
:10074000002E3FF428AF0AF1FF3A002623E79F402E
:10075000C3F1200134FA01F614FA03F24FEA174B01
:1007600025FA01FA3046594605FA03F84AEA020A20
:1007700000F046F85946BDB28146304600F06EF9A9
:100780004FEA1A4C05FB09F34CEA0144A34203D992
:10079000E41909F1FF3928D3E41A5946204600F03C
:1007A0002FF859460646204600F058F91FFA8AF4F9
:1007B00005FB06F344EA0144A34206D9013EE419CD
:1007C00003D2A34201D9013EE419E41A46EA0946DC
:1007D0000CE79C4284BF09F1FF39DB1984E75B45D4
:1007E00084BF0AF1FF3ABB4466E7A34284BF09F124
:1007F000FF39E419D0E700BF00000000000000004E
:100800004A1E08BF7047C0F02481884240F216811A
:10081000114200F01781B0FA80F3B1FA81F2A2EB35
:100820000303C3F11F0304A202EB03134FF0000202
:100830009F4600BFAFF30080B0EBC17F00BF42EB2B
:10084000020228BFA0EBC170B0EB817F00BF42EB7A
:10085000020228BFA0EB8170B0EB417F00BF42EBEA
:10086000020228BFA0EB4170B0EB017F00BF42EB5A
:10087000020228BFA0EB0170B0EBC16F00BF42EBDA
:10088000020228BFA0EBC160B0EB816F00BF42EB5A
:10089000020228BFA0EB8160B0EB416F00BF42EBCA
:1008A000020228BFA0EB4160B0EB016F00BF42EB3A
:1008B000020228BFA0EB0160B0EBC15F00BF42EBBA
:1008C000020228BFA0EBC150B0EB815F00BF42EB3A
:1008D000020228BFA0EB8150B0EB415F00BF42EBAA
:1008E000020228BFA0EB4150B0EB015F00BF42EB1A
:1008F000020228BFA0EB0150B0EBC14F00BF42EB9A
:10090000020228BFA0EBC140B0EB814F00BF42EB19
:10091000020228BFA0EB8140B0EB414F00BF42EB89
:10092000020228BFA0EB4140B0EB014F00BF42EBF9
:10093000020228BFA0EB0140B0EBC13F00BF42EB79
:10094000020228BFA0EBC130B0EB813F00BF42EBF9
:10095000020228BFA0EB8130B0EB413F00BF42EB69
:10096000020228BFA0EB4130B0EB013F00BF42EBD9
:10097000020228BFA0EB0130B0EBC12F00BF42EB59
:10098000020228BFA0EBC120B0EB812F00BF42EBD9
:10099000020228BFA0EB8120B0EB412F00BF42EB49
:1009A000020228BFA0EB4120B0EB012F00BF42EBB9
:1009B000020228BFA0EB0120B0EBC11F00BF42EB39
:1009C000020228BFA0EBC110B0EB811F00BF42EBB9
:1009D000020228BFA0EB8110B0EB411F00BF42EB29
:1009E000020228BFA0EB4110B0EB011F00BF42EB99
:1009F000020228BFA0EB0110B0EBC10F00BF42EB19
:100A0000020228BFA0EBC100B0EB810F00BF42EB98
:100A1000020228BFA0EB8100B0EB410F00BF42EB08
:100A2000020228BFA0EB4100B0EB010F00BF42EB78
:100A3000020228BFA0EB0100104670470CBF012046
:100A400000207047B1FA81F2C2F11F0220FA02F0D1
:100A5000704708B14FF0FF30FFF792BB0029F8D084
:100A60002DE90340FFF7CCFEBDE8064002FB00F392
:100A7000A1EB0301704700BF000000000000000070
:100A8000704700BFAFF30080AFF30080AFF300808A
:100A9000FEE700BFAFF30080AFF30080AFF300804C
:100AA00072B6264C84F309884FF0020484F314884C
:100AB000BFF36F8F224C234D04E04FF0553323607A
:100AC00004F10404AC42F8D31F4C1C4D04E04FF079
:100AD0005533236004F10404AC42F8D303F098F9D1
:100AE0001A4D1B4C05E02B68236004F1040405F14A
:100AF0000405184B9C42F6D3174C184D04E04FF0F8
:100B00000003236004F10404AC42F8D3FFF7B8FFFC
:100B1000134C03E02368984704F10404114B9C42F2
:100B2000F8D304F0B5FA104C03E02368984704F1B9
:100B300004040E4B9C42F8D3FFF7AAFF00080020E4
:100B4000000000200004002000040020406600088F
:100B500000080020500800205008002058210020E4
:100B6000EC000008EC000008EC000008EC000008B5
:100B7000FEE700BFAFF30080AFF30080AFF300806B
:100B800072B6FEE7AFF30080AFF30080AFF30080F2
:100B900008B500F05DFA4FF0200383F3118800F0F0
:100BA00027FA00F095F900F03BFA4FF0000383F3C9
:100BB000118800F075FA00F03BF808BDAFF3008033
:100BC00010B483B0EFF309840194019B03F1200377
:100BD0000193019B83F309884FF0000383F311888D
:100BE00003B010BC704700BFAFF30080AFF30080CC
:100BF00008B50D4B4FF000029A600B4B0B4ADA60C0
:100C00004FF007004FF0100100F0DAF84FF00A0043
:100C10004FF4007100F0D4F84FF00B004FF080015A
:100C200000F0CEF808BD00BF00ED00E00000FA05BE
:100C300010B483B04FF0200383F311881F4B5B681F
:100C400003F40063002B32D0EFF309840194019B7D
:100C5000A3F120030193019B83F30988019B4FF0CB
:100C60008072DA61164B9B69002B0BD0144B1B680A
:100C70009A68134BDB699B689A4294BF0023012357
:100C8000DBB20AE00E4B1B689A680D4BDB699B6870
:100C90009A4234BF00230123DBB2002B03D0019B17
:100CA000084A9A6107E0019B074A9A6103E04FF006
:100CB000000383F3118803B010BC704700ED00E01F
:100CC0007C0D0020D10C0008DC0C0008AFF3008084
:100CD00000F05EF900F09CFC00F072F900DF00BF4C
:100CE00003460A462DE9F04FC2F80CD0D3F80CD0D9
:100CF000BDE8F08FAFF30080AFF30080AFF300806A
:100D000008B500F05DF94FF0000383F31188284621
:100D1000A04700F0C5FD08BDAFF30080AFF3008031
:100D200010B485B001900091019B03F003034FEADA
:100D3000C30303931E4B019A4FEA92021C49019888
:100D40004FEA900000F1C00051F8200003994FF0E5
:100D5000FF0404FA01F16FEA010108400399009CC5
:100D600004FA01F140EA010102F1C00243F8221045
:100D70000F4B019A4FEA5212019901F01F014FF0F7
:100D8000010000FA01F102F1600243F82210084B61
:100D9000019A4FEA5212019901F01F014FF0010030
:100DA00000FA01F143F8221005B010BC704700BFF3
:100DB00000E100E0AFF30080AFF30080AFF300800C
:100DC00010B485B001900091019B03F003034FEA3A
:100DD000C3030393104B019A4FEA92020E49019804
:100DE0004FEA900000F1060051F8200003994FF0FF
:100DF000FF0404FA01F16FEA010108400399009C25
:100E000004FA01F140EA010102F1060243F822105E
:100E100005B010BC704700BF00ED00E0AFF30080EC
:100E200082B00190024BDB69024A9A61FEE700BF83
:100E30007C0D0020205D0008AFF30080AFF3008040
:100E400000B583B0FFF7D4FE00F0A2FA00F0D8F9A5
:100E500001F026FA00F07CF914484FF0400100F050
:100E60001FFC0246124BDA61114BDB694FF00102A5
:100E700083F820200E4BDB690E4ADA6100F070F82F
:100E80004FF0000383F3118862B6094BDB690A4A0D
:100E90009A610A4B4FF00002009209484FF0C001DE
:100EA0004FF0010200F09CFC03B000BD10090020CF
:100EB0007C0D002000040020285D0008210E0008A1
:100EC00050080020AFF30080AFF30080AFF3008044
:100ED00000B583B000F00CF91F4B9B69002B05DDBA
:100EE0001D4B9B6903F1FF321B4B9A611A4BDB6967
:100EF0005A6A02F101025A62184BDB6803F10102DF
:100F0000164BDA60154B1B681A46144B9A4221D0D7
:100F1000124B1B689A6802F1FF329A6013E0019B42
:100F2000DB680093019B4FF00002DA60019B1B68B5
:100F30000A4A5A60019B1A68084B1A60019B1A6999
:100F4000009B10469847054B1B680193019B9B68CB
:100F5000002BE4D003B000BD7C0D00206C0D002000
:100F600008B5064B1B68002B03D1054B1B68002BF3
:100F700002D0044800F034F908BD00BF5809002031
:100F80005C090020405D0008AFF30080AFF30080F3
:100F900008B5084B1B68002B03D1074B1B68002BBF
:100FA00002D0064800F01CF9034B4FF001021A6012
:100FB00008BD00BF580900205C090020485D0008FA
:100FC00008B5084B1B68002B03D1074B1B68002B8F
:100FD00002DC064800F004F9034B4FF000021A60EF
:100FE00008BD00BF580900205C090020505D0008C2
:100FF00008B5084B1B68002B03DD074B1B68002B53
:1010000002D0064800F0ECF8034B4FF001021A60E2
:1010100008BD00BF580900205C090020585D000889
:1010200008B5084B1B68002B03DD074B1B68002B22
:1010300002DC064800F0D4F8034B4FF000021A60BF
:1010400008BD00BF580900205C090020605D000851
:1010500008B54FF0200383F311880B4B1B68002B5E
:1010600003DB0A4B1B68002B02D0094800F0B8F8DC
:10107000054B1B6803F10102034B1A604FF000039C
:1010800083F3118808BD00BF580900205C090020C7
:10109000685D0008AFF30080AFF30080AFF300801D
:1010A00008B54FF0200383F311880B4B1B68002B0E
:1010B00003DD0A4B1B68002B02D0094800F090F8B2
:1010C000054B1B6803F1FF32034B1A604FF000031E
:1010D00083F3118808BD00BF580900205C09002077
:1010E000705D0008AFF30080AFF30080AFF30080C5
:1010F00008B5064B1B68002B03DB054B1B68002B58
:1011000002DC044800F06CF808BD00BF580900205C
:101110005C090020785D0008AFF30080AFF3008029
:1011200008B5064B1B68002B03D1054B1B68002B31
:1011300002DC044800F054F808BD00BF5809002044
:101140005C090020805D0008AFF30080AFF30080F1
:10115000034B4FF040021A60014B024A5A6070473D
:101160006009002068090020AFF30080AFF3008021
:1011700082B00190124B5B68124AD2681A60104B21
:101180005B68114AD2695A600D4B5B68019A926A9A
:101190009A600B4B5B68019A92F820201A73084BF7
:1011A0005B6803F11002064B5A60054B5A68074B07
:1011B0009A4202D3024B064A5A6002B0704700BFFF
:1011C000600900206C0D00207C0D0020680D0020BF
:1011D00068090020AFF30080AFF30080AFF3008018
:1011E00000B583B00190034B019A1A60FFF7C8FC69
:1011F00003B000BD680D0020AFF30080AFF30080A6
:10120000074A074B5A60064B5A68054B1A60044B55
:101210004FF0FF329A60024B4FF00002DA607047E5
:101220006C0D0020AFF30080AFF30080AFF30080BF
:1012300000B587B00390029101920093FFF758FF29
:10124000039B002B05D0019B002B02D0029B002B9F
:1012500002D11C48FFF7C4FF039B009A1A61039B4D
:10126000019ADA60184B1B68059307E0059B9B68A1
:10127000029AD31A0293059B1B680593059B9A68F3
:10128000029B9A42F2D3039B059A1A60039B1B6848
:101290005A68039B5A60039B5B68059A03995160E7
:1012A000059A52681A60039B029A9A60059A064B47
:1012B0009A4205D0059B9A68029BD21A059B9A60B8
:1012C00007B000BD905D00086C0D0020AFF30080FA
:1012D00000B583B00190FFF70BFF019B002B02D1FB
:1012E0001348FFF77DFF019BDB68002B02D11148FB
:1012F000FFF776FF019B1A680F4B9A4208D0019BBB
:101300001B68019A12689168019A92688A189A601B
:10131000019B5B68019A12681A60019B1B68019A25
:1013200052685A60019B4FF00002DA6003B000BDC2
:10133000A05D0008B05D00086C0D0020AFF30080D8
:1013400084B00190019B1B680393039B1A68019B67
:101350001A60019B1B68019A5A60039B184604B0EF
:10136000704700BFAFF30080AFF30080AFF30080A1
:1013700082B00190019B5B68019A12681A60019B20
:101380001B68019A52685A60019B184602B0704768
:101390000B4A0B4B5A600A4B5A68094B1A60084BB0
:1013A0004FF000029A60064B4FF014029A61044A13
:1013B000034B5A61024B5A69014B1A61704700BFD7
:1013C0007C0D0020AFF30080AFF30080AFF300800E
:1013D00000B585B00190019B93F82030002B04D01C
:1013E000019B93F820300E2B02D11348FFF7F8FE33
:1013F000019B4FF0000283F82020104B0393039BC6
:101400001B680393039B9A68019B9B689A42F6D2E0
:10141000019B039A1A60039B5A68019B5A60019BC7
:101420005B68039A01995160039A52681A60019BA4
:10143000184605B000BD00BFD05D00087C0D00203F
:1014400000B585B003468DF80730FFF769FE164BEF
:10145000DB690393039B9DF8072083F82020124B40
:101460004FF014029A611048FFF76AFF02460E4BD4
:10147000DA610D4BDB694FF0010283F820200398FD
:10148000FFF776FE6B46A3F12402039BDB699A42C9
:1014900002D20648FFF7A4FE034BDB691846039906
:1014A000FFF71EFC05B000BD7C0D0020E45D0008C8
:1014B00000B585B00190019B0393039B93F8203006
:1014C0000D2B28D801A252F823F000BF27150008E1
:1014D000171500081715000805150008171500084E
:1014E0001115000817150008171500081715000832
:1014F000171500081715000817150008171500081C
:1015000011150008039B9B6A9A6802F101029A6018
:101510000398FFF72DFF039B4FF0FF329A62039869
:10152000FFF756FF00E000BF05B000BDAFF300803D
:1015300000B589B0034600918DF80730FFF7F0FD44
:10154000009BB3F1FF3F14D00F4BDB6903AA104699
:1015500000990E4AFFF76CFE9DF807301846FFF71A
:101560006FFF069B002B09D003AB1846FFF7B0FEB8
:1015700004E09DF807301846FFF762FF024BDB6975
:101580009B6A184609B000BD7C0D0020B11400080C
:1015900000B585B001900091FFF7C2FD019B009A54
:1015A0009A62019B9A68174BDB699B689A4203D841
:1015B0000198FFF70DFF22E0124BDB691846FFF799
:1015C00007FF03900F4B4FF014029A610D4B019AE5
:1015D000DA61019B4FF0010283F820200398FFF7A6
:1015E000C7FD6B46A3F12402039BDB699A4202D23A
:1015F0000548FFF7F5FD01980399FFF771FB05B06A
:1016000000BD00BF7C0D0020E45D0008AFF300804A
:1016100000B583B0154B4FF014029A61134BDB6990
:1016200001931248FFF78CFE0246104BDA610F4B14
:10163000DB694FF0010283F820200198FFF7C8FE14
:101640000198FFF795FD6B46A3F12402019BDB692E
:101650009A4202D20648FFF7C3FD044BDB691846E5
:101660000199FFF73DFB03B000BD00BF7C0D0020DA
:10167000E45D0008AFF30080AFF30080AFF30080BB
:1016800084B00190019B1B680393039B1A68019B24
:101690001A60039B184604B0704700BFAFF3008088
:1016A00082B001900091019B009A9A60019B4FF0DB
:1016B000020283F82020019B4FF0000283F82120D2
:1016C000019B009A5A64019B4FF000021A64019B2F
:1016D0004FF00002DA63019B4FF000025A62019B57
:1016E0004FF000029A61144A019B1A61124B5A6929
:1016F000019B5A61019B5B690F4A019951610E4A36
:1017000052691A61019B03F12C031A46019BDA62AC
:10171000019B03F130031A46019B5A63019B5A6BEC
:10172000019B1A63019B03F14802019BDA61019B53
:10173000184602B0704700BF7C0D0020AFF3008058
:1017400084B00390029113468DF8073007E0039BA5
:101750009DF807201A70039B03F101030393039A7A
:10176000029B9A42F3D304B0704700BFAFF30080EE
:1017700000B587B00390029101920093039B0593FB
:10178000FFF7B6FC039B002B08D0029BAF2B05D9BB
:10179000019B7F2B02D8009B002B02D10E48FFF744
:1017A0001FFD039A029BA3F12403D218059BDA6064
:1017B000059BDB68009A1A60059BDB68089A5A60F3
:1017C000059BDB68054A1A6205980199FFF768FFD7
:1017D0000346184607B000BD005E0008010D000872
:1017E00000B589B00590049103920293059A059B78
:1017F00003F14803104619464FF0FF02FFF7A0FF20
:10180000059B03F148020599049BCB181046194625
:101810004FF05502FFF794FF4FF0200383F3118838
:10182000FFF7B6FB0A9B009305980499039A029B65
:10183000FFF79EFF079007984FF00001FFF7A8FE03
:10184000FFF7BEFB4FF0000383F31188079B184698
:1018500009B000BDAFF30080AFF30080AFF30080AC
:1018600000B583B00190019B002B02D10A48FFF71D
:10187000B7FC4FF0200383F31188FFF789FB4FF08B
:1018800006000199FFF754FEFFF79AFB4FF00003A3
:1018900083F3118803B000BD405E0008AFF3008001
:1018A00000B583B001904FF0200383F31188FFF758
:1018B0006FFB019800F004F803B000BDAFF30080A7
:1018C00000B585B00190194BDB690393039B019A26
:1018D0009A6209E0039B03F12C031846FFF7D0FE40
:1018E00003461846FFF774FD039BDA6A039B03F176
:1018F0002C039A42EED1039B93F8213003F00303AB
:10190000002B09D1039B5B69039A12691A61039B3F
:101910001B69039A52695A614FF00E00FFF790FD60
:101920000348FFF75DFC05B000BD00BF7C0D002043
:10193000505E0008AFF30080AFF30080AFF300808B
:1019400000B583B001900091019B002B02D0009B59
:10195000002B02DA0748FFF743FC019B1A46019B64
:101960005A60019B5A68019B1A60019B009A9A6019
:1019700003B000BD905E0008AFF30080AFF30080BD
:1019800084B001900091009B0393039B1B68039319
:10199000009B039A9A4205D0039B9A68019B9B681F
:1019A0009A42F2D2019B039A1A60039B5A68019BE8
:1019B0005A60019B5B68039A01995160039A5268CF
:1019C0001A6004B0704700BFAFF30080AFF300802F
:1019D00084B00190019B1B680393039B1A68019BD1
:1019E0001A60019B1B68019A5A60039B184604B059
:1019F000704700BFAFF30080AFF30080AFF300800B
:101A000082B00190019B5B68019A12681A60019B89
:101A10001B68019A52685A60019B184602B07047D1
:101A200000B583B00190019B002B02D10848FFF75D
:101A3000D7FB019B1A46019B5A60019B5A68019B88
:101A40001A60019B4FF000029A6003B000BD00BF16
:101A5000E05F0008AFF30080AFF30080AFF30080D9
:101A600000B583B001904FF0200383F31188FFF796
:101A70008FFA019800F00CF8FFF7A2FA4FF000037C
:101A800083F3118803B000BDAFF30080AFF3008093
:101A900000B585B001903C4BDB690293FFF740FB3A
:101AA000019B002B02D13948FFF79AFB019B9B68F1
:101AB000002B5CD0019B9B68039335E0029B9A68E6
:101AC000039B9A60039B93F82030042B04D0052BD2
:101AD00011D0002B1AD02DE00398FFF791FF02469A
:101AE000039B9B6A10461946FFF74AFF039B9B6ABC
:101AF0009B68039318E00398FFF782FF0246039B5D
:101B00009B6A10461946FFF73BFF0CE0039B4FF022
:101B1000010283F820200398FFF772FF034618465E
:101B2000FFF756FC00BF05E0039B9A68029B9B6889
:101B30009A42C3D3019B02981946FFF721FF029BEB
:101B4000019A9A624FF00400FFF77AFC019B9A68B1
:101B5000029B9A4202D00E48FFF742FB029B1A6C8E
:101B6000019B9A420DD00B48FFF73AFB09E0019B1D
:101B7000029A9A60029B1A6C019BDA60029B019A9E
:101B80001A6405B000BD00BF7C0D0020F05F0008A6
:101B90000060000814600008AFF30080AFF300801D
:101BA00000B587B0334BDB6903934FF0200383F319
:101BB0001188FFF7EDF9039B1B6C002B02D12E4817
:101BC000FFF70EFB039B1B6C9A68039B9A4202D0A3
:101BD0002A48FFF705FB039B1B6C0293029BDA6804
:101BE000039B1A64029B1A68029B9A4233D0039BA0
:101BF0005B6C0493039B1B6C059311E0059B1A68B7
:101C0000059B9A4209D0059B1B689A68049B9A42DF
:101C100003D9059B1B689B680493059BDB680593B0
:101C2000059B002BEAD1039B049A9A60029B1846FD
:101C3000FFF7CEFE0190029B019A9A60019B1A6CFD
:101C4000029BDA60019B029A1A6401984FF000012E
:101C5000FFF79EFC03E0029B4FF000029A60FFF743
:101C6000AFF94FF0000383F31188029B184607B0C9
:101C700000BD00BF7C0D00203C60000850600008E3
:101C800000B583B001900091FFF732FA019B002B61
:101C900002D11648FFF7A4FA019BDA6B009B1A43A6
:101CA000019BDA63019B93F82030082B07D1019B3D
:101CB000DA6B019B9B6A02EA0303002B0DD1019BA7
:101CC00093F82030092B0FD1019BDA6B019B9B6AA3
:101CD0001A40019B9B6A9A4206D10198FFF778FB54
:101CE00003464FF000029A6203B000BDCC600008CA
:101CF00000B585B001900091FFF7FAF9019B002B28
:101D000002D10D48FFF76CFA019B1B6803930DE0AD
:101D1000039B5A68039B9968009B41EA03031046A2
:101D20001946FFF7ADFF039B1B680393019B039AC2
:101D30009A42EDD105B000BDE0600008AFF300802D
:101D400082B001900091009A019B1A60009B5A6832
:101D5000019B5A60019B5B68009A01995160009A4F
:101D600052681A6002B07047AFF30080AFF3008092
:101D700084B00190019B1B680393039B1A68019B2D
:101D80001A60019B1B68019A5A60039B184604B0B5
:101D9000704700BFAFF30080AFF30080AFF3008067
:101DA00000B583B001900091009B002B02D14FF051
:101DB000FF3310E0094BDB69019A9A62074BDA693D
:101DC000019B10461946FFF7BBFF4FF00D0000992D
:101DD000FFF7AEFB0346184603B000BD7C0D0020A4
:101DE00084B00390029101920093039B1A46039BD7
:101DF0005A60039B5A68039B1A60039B4FF00002D2
:101E00009A60039B029A5A61039B5A69039B9A61E9
:101E1000039B9A69039BDA60029A019BD218039B89
:101E20001A61039B009ADA6104B07047AFF3008037
:101E300000B583B001900B468DF80330FFF758F9D9
:101E4000019B5A69019B9B699A4206D1019B9B6841
:101E5000002B02D06FF003032BE0019B9B6803F182
:101E60000102019B9A60019B5B699DF803201A7037
:101E700003F10102019B5A61019B5A69019B1B6995
:101E80009A4203D3019BDA68019B5A61019B1A684D
:101E9000019B9A420BD0019B1846FFF769FF03464E
:101EA0001846FFF795FA03464FF000029A624FF08A
:101EB0000003184603B000BDAFF30080AFF300800D
:101EC00000B585B0019000914FF0200383F3118895
:101ED000FFF75EF8019BDB69002B14D0019BDB69E7
:101EE0000198984710E001980099FFF759FF039077
:101EF000039B002B08DAFFF763F84FF0000383F32E
:101F00001188039B25E000BF019B9B68002BEAD052
:101F1000019B9B6803F1FF32019B9A60019B9B69C7
:101F20001A788DF80B2003F10102019B9A61019B45
:101F30009A69019B1B699A4203D3019BDA68019B52
:101F40009A61FFF73DF84FF0000383F311889DF885
:101F50000B30184605B000BDAFF30080AFF3008032
:101F600000B587B00390029101920093039BDB6957
:101F700004934FF000030593019B002B02D12F48DF
:101F8000FFF72EF94FF0200383F31188FFF700F8D5
:101F9000049B002B12D0049B039898470FE00398F2
:101FA0000099FFF7FDFE0346002B08D0FFF708F865
:101FB0004FF0000383F31188059B3BE000BF039BB8
:101FC0009B68002BEBD0039B9B6803F1FF32039BC4
:101FD0009A60039B9B691978029A1170029A02F128
:101FE0000102029203F10102039B9A61039B9A6929
:101FF000039B1B699A4203D3039BDA68039B9A6194
:10200000FEF7DEFF4FF0000383F31188059B03F119
:1020100001030593019B03F1FF330193019B002B07
:1020200001D1059B06E04FF0200383F31188FEF7F2
:10203000AFFFADE7184607B000BD00BF2061000844
:1020400084B00390029101920093039B1A46039B74
:102050005A60039B5A68039B1A60039B019A9A601B
:10206000039B029A5A61039B5A69039B9A61039BE3
:102070009A69039BDA60029A019BD218039B1A614A
:10208000039B009ADA6104B0704700BFAFF3008091
:1020900000B587B003900B4601928DF80B304FF0DE
:1020A000200383F31188FEF773FF0FE00398019973
:1020B000FFF776FE0590059B002B07DAFEF780FF01
:1020C0004FF0000383F31188059B2CE0039B9B6872
:1020D000002BEBD0039B9B6803F1FF32039B9A60BC
:1020E000039B5B699DF80B201A7003F10102039BAF
:1020F0005A61039B5A69039B1B699A4203D3039B52
:10210000DA68039B5A61039BDB69002B03D0039BB6
:10211000DB6903989847FEF753FF4FF0000383F302
:1021200011884FF00003184607B000BDAFF30080E0
:1021300000B585B00190FEF7DBFF019B5A69019B5A
:102140009B699A4206D1019B9B68002B02D06FF0DD
:1021500002032BE0019B9B6803F10102019B9A6043
:10216000019B9B691A788DF80F2003F10102019BF6
:102170009A61019B9A69019B1B699A4203D3019B57
:10218000DA68019B9A61019B1A68019B9A420BD005
:10219000019B1846FFF7ECFD03461846FFF718F9B8
:1021A00003464FF000029A629DF80F30184605B0C2
:1021B00000BD00BFAFF30080AFF30080AFF300803D
:1021C00000B587B00390029101920093039BDB69F5
:1021D00004934FF000030593019B002B02D12F487D
:1021E000FEF7FEFF4FF0200383F31188FEF7D0FEC9
:1021F0000EE003980099FFF7D3FD0346002B07D0AC
:10220000FEF7DEFE4FF0000383F31188059B41E0EB
:10221000039B9B68002BECD0039B9B6803F1FF3270
:10222000039B9A60039B5B69029A12781A7003F110
:102230000102039B5A61029B03F101030293039B7A
:102240005A69039B1B699A4203D3039BDA68039B79
:102250005A61049B002B02D0049B03989847FEF719
:10226000AFFE4FF0000383F31188059B03F10103D8
:102270000593019B03F1FF330193019B002B01D1D7
:10228000059B07E04FF0200383F31188FEF780FEE3
:1022900000BFBDE7184607B000BD00BF34610008AD
:1022A000074B03F1070323F007031A46054B1A6097
:1022B000054B23F007031A46044B1A60704700BF12
:1022C000582100209C0D002000500020A00D00206F
:1022D00008B500F03DFC074801F0D2FC00F010F812
:1022E00000F026F800F0BCF800F002FA01F098FDCA
:1022F00008BD00BFC0650008AFF30080AFF30080E9
:1023000008B500F035FE08BDAFF30080AFF30080E4
:1023100082B00190019B4FF001021A70019B4FF0B7
:1023200000025A6002B07047AFF30080AFF3008044
:1023300008B500F085FE08BDAFF30080AFF3008064
:1023400082B00190019B4FF001021A70019B4FF087
:1023500000025A6002B07047AFF30080AFF3008014
:1023600000B583B001900091019B002B02D0009B2F
:10237000002B02D11248FEF733FF4FF0200383F306
:102380001188FEF705FE019B1B78012B06D0019BEF
:102390001B78022B02D00B48FEF722FF019B009A0C
:1023A0005A60019800F07CFE019B4FF002021A7007
:1023B000FEF706FE4FF0000383F3118803B000BD63
:1023C000506100085C610008AFF30080AFF300804B
:1023D00000B583B001900B46ADF802304FF02003FA
:1023E00083F31188FEF7D4FDBDF802300198194639
:1023F00000F00EF8FEF7E4FD4FF0000383F31188C0
:1024000003B000BDAFF30080AFF30080AFF30080F6
:1024100000B583B001900B46ADF80230FEF768FEC0
:10242000019B002B02D10B48FEF7DAFE019B1B78C3
:10243000022B02D00848FEF7D3FE019B4FF00402A6
:102440001A70BDF802300198194600F0E9FE03B099
:1024500000BD00BFBC610008D4610008AFF300807C
:1024600008B501F065F908BDAFF30080AFF3008057
:1024700082B00190019B4FF001021A70019B4FF056
:1024800000025A6002B07047AFF30080AFF30080E3
:1024900000B58BB00790059204930B46ADF81A3047
:1024A000079B002B15D0BDF81A30002B11D0049BD0
:1024B000002B0ED0059B002B0BD00D9B002B05D0C5
:1024C0000D9B002B05D00C9B002B02D00E9B002BEC
:1024D00002D11F48FEF784FE079B1B78022B02D017
:1024E0001C48FEF77DFE4FF0200383F31188FEF7B2
:1024F0004FFD079B4FF000029A60079B4FF00302CD
:102500001A70BDF81A300C9A00920D9A01920E9A28
:10251000029207981946059A049B01F029F909903F
:10252000099BB3F1FF3F04D1079B4FF005021A70DE
:1025300003E0079B4FF002021A70FEF741FD4FF0D7
:10254000000383F31188099B18460BB000BD00BF40
:1025500080620008A0620008AFF30080AFF3008043
:1025600000B585B0039002910192039B03F1300303
:1025700018460299019A4FF0FF33FFF721FE0346F8
:10258000184605B000BD00BFAFF30080AFF3008078
:1025900000B585B0039002910192039B03F11003F3
:1025A00018460299019A4FF0FF33FFF7D9FC034612
:1025B000184605B000BD00BFAFF30080AFF3008048
:1025C00082B00190019B9B6B002B14BF0023012361
:1025D000184602B0704700BFAFF30080AFF3008031
:1025E00082B00190019B9B69002B14BF0023012343
:1025F000184602B0704700BFAFF30080AFF3008011
:1026000000B585B003900B4601928DF80B30039B0B
:1026100003F130029DF80B3010461946019AFFF77E
:1026200037FD0346184605B000BD00BFAFF300807C
:1026300000B583B001900091019B03F1100318468F
:102640000099FFF73DFC0346184603B000BD00BFEC
:1026500000B585B00390029101920093039B03F1B2
:10266000300318460299019A009BFFF7A9FD034623
:10267000184605B000BD00BFAFF30080AFF3008087
:1026800000B585B00390029101920093039B03F182
:10269000100318460299019A009BFFF761FC03465C
:1026A000184605B000BD00BFAFF30080AFF3008057
:1026B00000B585B001904FF0200383F31188FEF739
:1026C00067FC019B9B680393019B4FF000029A609B
:1026D000FEF776FC4FF0000383F31188039B184646
:1026E00005B000BDAFF30080AFF30080AFF3008012
:1026F00008B501F07DFA08BDAFF30080AFF30080AC
:1027000000B585B0039002910192039B154A1A60AF
:10271000039B03F104031A46039B5A60039B4FF08B
:1027200000029A60039B4FF001021A73039B03F1AE
:102730001002039B03F15003104619464FF4007238
:10274000029BFFF74DFB039B03F13002039B03F554
:102750001473104619464FF40072019BFFF770FC8A
:1027600005B000BD00650008AFF30080AFF3008046
:1027700000B583B001900091019B002B02D112485B
:10278000FEF72EFD4FF0200383F31188FEF700FCC7
:10279000019B1B7B012B06D0019B1B7B022B02D0D4
:1027A0000A48FEF71DFD0198009901F039FA019BD6
:1027B0004FF002021A73FEF703FC4FF0000383F39D
:1027C000118803B000BD00BF006300080C6300085F
:1027D00000B583B001900B468DF80330FEF788FCFE
:1027E000019B002B02D11848FEF7FAFC019B9B6964
:1027F000002B0DD1019B9B6843F00402019B9A6062
:10280000019B03F1040318464FF00001FFF770FA33
:10281000019B03F110029DF8033010461946FFF7A3
:1028200007FB0346002B0DDA019B9B6843F08002F7
:10283000019B9A60019B03F1040318464FF00001CD
:10284000FFF756FA03B000BD38630008AFF300800D
:1028500000B583B0FEF7FCFB0C4B1B6803F00F03C5
:1028600001930A4B4FF00F025A60094B1B68002B73
:1028700006D0074B1B68064A5268104601999847D4
:10288000FEF70EFCFEF7D4F903B000BD00000240D5
:10289000A80D0020AFF30080AFF30080AFF30080FD
:1028A00000B583B0FEF7D4FB0D4B1B684FEA131342
:1028B00003F00F0301930A4B4FF0F0025A60094BEB
:1028C0009B68002B06D0074B9B68064AD2681046CF
:1028D00001999847FEF7E4FBFEF7AAF903B000BDA3
:1028E00000000240A80D0020AFF30080AFF300808D
:1028F00000B583B0FEF7ACFB0D4B1B684FEA13230A
:1029000003F00F0301930A4B4FF470625A60094BB6
:102910001B69002B06D0074B1B69064A52691046FB
:1029200001999847FEF7BCFBFEF782F903B000BDA2
:1029300000000240A80D0020AFF30080AFF300803C
:1029400000B583B0FEF784FB0D4B1B684FEA1333D1
:1029500003F00F0301930A4B4FF470425A60094B86
:102960009B69002B06D0074B9B69064AD26910462B
:1029700001999847FEF794FBFEF75AF903B000BDA2
:1029800000000240A80D0020AFF30080AFF30080EC
:1029900000B583B0FEF75CFB0D4B1B684FEA134399
:1029A00003F00F0301930A4B4FF470225A60094B56
:1029B0001B6A002B06D0074B1B6A064A526A104658
:1029C00001999847FEF76CFBFEF732F903B000BDA2
:1029D00000000240A80D0020AFF30080AFF300809C
:1029E00000B583B0FEF734FB0D4B1B684FEA135361
:1029F00003F00F0301930A4B4FF470025A60094B26
:102A00009B6A002B06D0074B9B6A064AD26A104687
:102A100001999847FEF744FBFEF70AF903B000BDA1
:102A200000000240A80D0020AFF30080AFF300804B
:102A300000B583B0FEF70CFB0D4B1B684FEA136328
:102A400003F00F0301930A4B4FF070625A60094B79
:102A50001B6B002B06D0074B1B6B064A526B1046B4
:102A600001999847FEF71CFBFEF7E2F803B000BDA2
:102A700000000240A80D0020AFF30080AFF30080FB
:102A800082B0144B4FF000021A604FF00003019324
:102A900016E01149019A13464FEA43039B184FEA87
:102AA0008303CB181B684FF000021A600B4B019A8E
:102AB0004FF0000143F83210019B03F10103019331
:102AC000019B062BE5DD064B4FF0FF325A6002B04A
:102AD000704700BFA40D002030650008A80D00203D
:102AE00000000240AFF30080AFF30080AFF300803E
:102AF000134B134A126842F480721A60114B1B6A1E
:102B000003F44073B3F5407F07D00E4B4FF480328F
:102B10001A620C4B4FF000021A620A4B1B6A03F454
:102B20000043002B0BD1074B064A126A42F4407255
:102B30001A62044B034A126A42F400421A62704756
:102B40000070004000100240AFF30080AFF300803F
:102B500008B51E4B1B691D4B4FF0FF321A611B4B12
:102B60004FF000021A61194BDB68184B4FF0FF322F
:102B7000DA60164B4FF00002DA60154B154A5A60C6
:102B8000134B4FF000029A60114B4FF007021A608E
:102B9000114B114AD26842F08072DA600F4B0F4A33
:102BA000126842F001021A60084B084AD26942F0EA
:102BB0008052DA61054B054AD26942F00062DA615F
:102BC000FFF796FFFFF75CFF08BD00BF0010024053
:102BD00010E000E07F320200F0ED00E0001000E0C5
:102BE0002F4B2F4A126842F001021A6000BF2C4B93
:102BF0001B6803F00203002BF9D0294B284A126806
:102C000002F0F9021A60264B4FF000025A6000BF32
:102C1000234B5B6803F00C03002BF9D1204B204AB7
:102C2000126842F480321A6000BF1D4B1B6803F427
:102C30000033002BF9D01A4B194A526A42F00102B4
:102C40005A6200BF164B5B6A03F00203002BF9D0F7
:102C5000134B134A526842F4E8125A60104B104A60
:102C6000126842F080721A6000BF0D4B1B6803F0BF
:102C70000073002BF9D00A4B0A4A5A600A4B4FF0F6
:102C800012021A60064B064A526842F002025A606B
:102C900000BF034B5B6803F00C03082BF9D17047AE
:102CA0000010024000641D0000200240AFF30080CD
:102CB00008B5FEF7CDF9084B4FF001025A61074BFA
:102CC0005B685B6805484FF000019847FEF7E8F93C
:102CD000FDF7AEFF08BD00BF00040140E00D00207D
:102CE00008B5FEF7B5F9084B4FF002025A61074BE1
:102CF0005B68DB6805484FF001019847FEF7D0F9A3
:102D0000FDF796FF08BD00BF00040140E00D002064
:102D100008B5FEF79DF9084B4FF004025A61074BC6
:102D20005B685B6905484FF002019847FEF7B8F908
:102D3000FDF77EFF08BD00BF00040140E00D00204C
:102D400008B5FEF785F9084B4FF008025A61074BAA
:102D50005B68DB6905484FF003019847FEF7A0F96F
:102D6000FDF766FF08BD00BF00040140E00D002034
:102D700008B5FEF76DF9084B4FF010025A61074B8A
:102D80005B685B6A05484FF004019847FEF788F9D5
:102D9000FDF74EFF08BD00BF00040140E00D00201C
:102DA00000B583B0FEF754F9244B5B6903F47873E4
:102DB0000193224B019A5A61019B03F02003002BDF
:102DC00006D01F4B5B68DB6A1D484FF00501984732
:102DD000019B03F04003002B06D0194B5B685B6B33
:102DE00017484FF006019847019B03F08003002B22
:102DF00006D0134B5B68DB6B11484FF00701984717
:102E0000019B03F48073002B06D00D4B5B685B6C59
:102E10000B484FF008019847019B03F40073002B07
:102E200006D0074B5B68DB6C05484FF009019847FB
:102E3000FEF736F9FDF7FCFE03B000BD00040140CB
:102E4000E00D0020AFF30080AFF30080AFF300800F
:102E500000B583B0FEF7FCF82A4B5B6903F47C43B2
:102E60000193284B019A5A61019B03F48063002B64
:102E700006D0254B5B685B6D23484FF00A019847ED
:102E8000019B03F40063002B06D01F4B5B68DB6DD6
:102E90001D484FF00B019847019B03F48053002B12
:102EA00006D0194B5B685B6E17484FF00C019847D2
:102EB000019B03F40053002B06D0134B5B68DB6EC1
:102EC00011484FF00D019847019B03F48043002BFC
:102ED00006D00D4B5B685B6F0B484FF00E019847B7
:102EE000019B03F40043002B06D0074B5B68DB6FAC
:102EF00005484FF00F019847FEF7D2F8FDF798FE0E
:102F000003B000BD00040140E00D0020AFF30080DD
:102F100008B5FEF79DF8084B4FF480325A61074B15
:102F20005B68D3F8843005484FF010019847FEF7EE
:102F3000B7F8FDF77DFE08BD00040140E00D00205C
:102F400008B5FEF785F8084B4FF480225A61074B0D
:102F50005B68D3F8943005484FF012019847FEF7AC
:102F60009FF8FDF765FE08BD00040140E00D00205C
:102F700008B50248FFF7CCF908BD00BFE00D0020FE
:102F800000B583B00190019BDB684FF000021A820C
:102F9000019B1B78042B06D1019B4FF002021A7093
:102FA000019800F065F9019B5B685B6801989847A0
:102FB00003B000BDAFF30080AFF30080AFF300803B
:102FC00008B5FEF745F80448FFF7DAFFFEF768F8A2
:102FD000FDF72EFE08BD00BFE80D0020AFF3008016
:102FE00008B5FEF735F80448FFF7CAFFFEF758F8B2
:102FF000FDF71EFE08BD00BFF80D0020AFF30080F6
:1030000008B5FEF725F80448FFF7BAFFFEF748F8C1
:10301000FDF70EFE08BD00BF080E0020AFF30080D4
:1030200008B5FEF715F80448FFF7AAFFFEF738F8D1
:10303000FDF7FEFD08BD00BF180E0020AFF30080B5
:1030400008B50D4B0D4ADA600B48FFF779F90C4BC8
:103050004FF08042DA600A48FFF772F9094B0A4ADA
:10306000DA600848FFF76CF9084B094ADA6007484C
:10307000FFF766F908BD00BFE80D0020002C0140F5
:10308000F80D0020080E002000040040180E00205B
:1030900000080040AFF30080AFF30080AFF3008082
:1030A00000B585B00190019B1B78012B73D1019A6B
:1030B000524B9A4218D1524B514A926942F40062E3
:1030C0009A614F4B4E4AD26842F40062DA604C4B30
:1030D0004FF00002DA604FF019004FF07001FDF779
:1030E0001FFE019B474A9A60019A474B9A4218D1AA
:1030F000434B434AD26942F00102DA61404B404AF5
:10310000126942F001021A613D4B4FF000021A6150
:103110004FF01C004FF07001FDF702FE019B394A91
:103120009A60019A394B9A4218D1354B344AD26988
:1031300042F00202DA61324B314A126942F0020275
:103140001A612F4B4FF000021A614FF01D004FF033
:103150007001FDF7E5FD019B2A4A9A60019A2C4B0C
:103160009A4218D1264B264AD26942F00402DA610B
:10317000234B234A126942F004021A61204B4FF09C
:1031800000021A614FF01E004FF07001FDF7C8FDFC
:10319000019B1C4A9A60019B9A68019B5B681B68B3
:1031A000B2FBF3F39BB203F1FF33ADF80E30BDF881
:1031B0000E3003F10103019A5268126802FB03F218
:1031C000019B9B689A4202D01248FEF709F8019BC6
:1031D000DB684FF000021A80019BDB684FF00802A9
:1031E0009A80019BDB68BDF80E201A85019BDB6885
:1031F0004FF000029A8105B000BD00BFE80D00202D
:103200000010024000A24A04F80D0020080E002021
:10321000180E002060630008AFF30080AFF3008059
:1032200082B001900B46ADF80230019BDB68BDF81F
:10323000022002F1FF32DA62019BDB684FF00102EB
:103240009A82019BDB684FF000025A62019BDB68A7
:103250004FF000021A82019BDB684FF001029A8155
:10326000019BDB684FF005021A8002B0704700BF77
:1032700082B00190019BDB684FF000021A80019B35
:10328000DB684FF000021A82019BDB684FF00002FE
:103290009A8102B0704700BFAFF30080AFF30080A7
:1032A00084B00190019B1B6A0393039B4FF400427F
:1032B0001A80039B4FF000021A80039B4FF000021C
:1032C0009A80039B4FF000029A82019BDB691B6886
:1032D000019AD2691268126822F001021A60019BF9
:1032E000DB695B68019AD269127A4FF00F0101FA2B
:1032F00002F21A60019B9B691B68019A926912682D
:10330000126822F001021A60019B9B695B68019AB6
:103310009269127A4FF00F0101FA02F21A6004B0BA
:10332000704700BFAFF30080AFF30080AFF30080C1
:1033300000B585B00190019B0393039BDB68002BD4
:1033400010D0039BDB6802930398FFF7A9FF039B50
:103350004FF00002DA60029B4FF0FF329A6202984F
:10336000FEF736F805B000BDAFF30080AFF3008084
:1033700000B587B00190019B1B6A0593059B1B8BD1
:103380009BB20493059B9B8A9BB20393049B4FEAD9
:103390000342039B42EA030323F07F43504A9342D4
:1033A00012D04F4A934203D84E4A934207D08DE041
:1033B0004D4A934231D04D4A934241D086E0019B21
:1033C0001A8A059B1A8281E0059B9B889BB223F495
:1033D00000739AB2059B9A80019B9B691B68019AB6
:1033E00092691268126842F001021A60059B9B887C
:1033F0009BB243F480539AB2059B9A80019B9B69D0
:103400001B685B68012B60D8059B1B889BB223F46B
:1034100080639AB2059B1A8058E0059B9B889BB2FB
:1034200023F400739AB2059B9A80019BDB691B68A9
:10343000019AD2691268126842F001021A6045E0EE
:10344000019B9B691B685B68002B0FD0019B1B8A4B
:1034500043F001039AB2019B1A82059B1B889BB221
:1034600043F4A0639AB2059B1A8036E0059B9B88C3
:103470009BB223F400739AB2059B9A80059B1B882C
:103480009BB243F400739AB2059B1A804FF020035D
:1034900083F31188FDF7ACFD019BDB68002B0DD099
:1034A000019BDB680293019B4FF00002DA60029BF4
:1034B0004FF000029A620298FDF78AFFFDF7B0FD17
:1034C0004FF0000383F3118800E000BF039B03F07B
:1034D0000A03002B01D0059B1B8B07B000BD00BF6A
:1034E00002000300010003008200070084000700BF
:1034F00000B587B00190019B1B6A04934FF0200335
:1035000083F31188FDF774FD019BDB691B68019A49
:10351000D2691268126822F001021A60019BDB690D
:103520005B68019AD269127A4FF00F0101FA02F238
:103530001A60019B9B691B68019A92691268126864
:1035400022F001021A60019B9B695B68019A9269F3
:10355000127A4FF00F0101FA02F21A60FDF760FDD6
:103560004FF0000383F311884FF000030593049B91
:103570009B8A9BB203F48073002B0BD0049B9B8A25
:103580009BB223F480739AB2049B9A82059B43F00A
:1035900001030593049B9B8A9BB203F40073002BE9
:1035A0000BD0049B9B8A9BB223F400739AB2049BBA
:1035B0009A82059B43F002030593049B9B8A9BB26E
:1035C00003F48063002B1BD0049B9B8A9BB223F4E3
:1035D00080639AB2049B9A82049B9B889BB223F4DB
:1035E00000739AB2049B9A80049B1B889BB243F49D
:1035F00000739AB2049B1A80059B43F00403059361
:10360000049B9B8A9BB203F40063002B0BD0049BAA
:103610009B8A9BB223F400639AB2049B9A82059B17
:1036200043F008030593049B9B8A9BB203F48053E9
:10363000002B0BD0049B9B8A9BB223F480539AB23D
:10364000049B9A82059B43F010030593049B9B8A7D
:103650009BB203F48043002B0BD0049B9B8A9BB24C
:1036600023F480439AB2049B9A82059B43F0200383
:103670000593049B9B8A9BB29BB21BB2002B0DDA75
:10368000049B9B8A9BB24FEA43434FEA53439AB24F
:10369000049B9A82059B43F040030593059B002BF6
:1036A00020D0019B059A9A604FF0200383F3118884
:1036B000FDF79EFC019BDB68002B0DD0019BDB68B6
:1036C0000393019B4FF00002DA60039B6FF001024D
:1036D0009A620398FDF77CFEFDF7A2FC4FF0000311
:1036E00083F3118807B000BDAFF30080AFF3008013
:1036F00008B5FDF7ADFC0448FFF73AFEFDF7D0FC36
:10370000FDF796FA08BD00BF280E0020AFF3008039
:1037100008B5FDF79DFC0448FFF7EAFEFDF7C0FC85
:10372000FDF786FA08BD00BF280E0020AFF3008029
:1037300008B50848FEF79CFE064B4FF00002DA6021
:10374000044B054A1A62034B044A9A61014B044A2E
:10375000DA6108BD280E002000540040786500089A
:103760006C650008AFF30080AFF30080AFF300801A
:1037700000B58BB00390019200930B46ADF80A3070
:10378000039B1B6A09930D9B002B08D00D9B012BFB
:1037900002D90C9B002B02D14848FDF721FD0E9B5E
:1037A000B3F1FF3F06D004AB18460E99444A039B81
:1037B000FDF73EFDFDF704FC4FF0000383F3118895
:1037C000BDF80A304FEA43039AB2039B1A82039B67
:1037D0004FF000029A60039BDB691B68019ADA6074
:1037E000039BDB691B68009A5A60039B9B691B68FB
:1037F0000C9ADA60039B9B691B680D9A5A6015E06E
:103800004FF0200383F31188FDF7C2FB0E9BB3F149
:10381000FF3F05D0079B002B02D14FF0FF3349E05B
:10382000FDF7CEFB4FF0000383F31188099B1B8B40
:103830009BB203F00203002BE2D1099B1B889BB2D1
:1038400003F40073002BDBD14FF0200383F31188C6
:10385000FDF79EFB0E9BB3F1FF3F05D0079B002BAE
:1038600002D14FF0FF3325E0099B9B889BB243F4C4
:1038700000739AB2099B9A80099B1B889BB243F400
:1038800080739AB2099B1A800E4BDA69039BDA6047
:103890004FF00200FDF7D4FD0E9BB3F1FF3F06D0C1
:1038A000079B002B03D004AB1846FDF711FD054B19
:1038B000DB699B6A18460BB000BD00BFA46400081A
:1038C000313300087C0D0020AFF30080AFF300809F
:1038D00084B001900091019BD3F850340393019B75
:1038E000D3F850241A4B9A4208D1009B1B68194AFE
:1038F000B2FBF3F39AB2039B1A8107E0009B1B68AB
:10390000144AB2FBF3F39AB2039B1A81009B9B8883
:1039100043F4045343F02C039AB2039B9A81009B17
:10392000DB8843F040039AB2039B1A82009B1B89F9
:1039300043F001039AB2039B9A82039B4FF000026B
:103940001A80039B1B88039B9B8804B0704700BFB1
:103950000038014000512502AFF30080AFF3008032
:1039600000B585B001900B46ADF802304FF0000372
:103970000393BDF8023003F00803002B03D0039B30
:1039800043F080030393BDF8023003F00103DBB280
:10399000002B03D0039B43F020030393BDF80230B8
:1039A00003F00203002B03D0039B43F04003039377
:1039B000BDF8023003F00403002B03D0039B43F453
:1039C000807303934FF0200383F31188FDF710FBFE
:1039D000019B9A68039B1A43019B9A60019B03F128
:1039E000040318464FF00001FEF782F9FDF718FBBB
:1039F0004FF0000383F3118805B000BDAFF30080E2
:103A000000B587B00190019BD3F850340593059B16
:103A10009B89ADF81230059B1B88ADF81030059BD3
:103A20009B88ADF80E30BDF8103003F00F03002B6B
:103A300005D0BDF8103001981946FFF791FFBDF889
:103A4000103003F48073002B21D04FF0200383F358
:103A50001188FDF7CDFA019B9B6843F40072019B2E
:103A60009A60019B03F1040318464FF00001FEF732
:103A70003FF9FDF7D5FA4FF0000383F31188059B5A
:103A80001B889BB223F480739AB2059B1A80BDF801
:103A9000103003F02003002B12D04FF0200383F3EB
:103AA0001188FDF7A5FABDF80E30DBB20198194672
:103AB000FEF78EFEFDF7B4FA4FF0000383F3118892
:103AC000BDF8123003F08003002B39D0BDF8103060
:103AD00003F08003002B33D04FF0200383F31188D1
:103AE000FDF786FA019B03F130031846FEF720FB31
:103AF0000290029B002B19DA019B9B6843F008029D
:103B0000019B9A60019B03F1040318464FF00001EA
:103B1000FEF7EEF8BDF8123023F0C0039BB243F07D
:103B200040039BB29AB2059B9A8103E0029B9AB232
:103B3000059B9A80FDF774FA4FF0000383F3118818
:103B4000BDF8103003F04003002B28D04FF02003C5
:103B500083F31188FDF74CFA019B9B6843F0100238
:103B6000019B9A60019B03F1040318464FF000018A
:103B7000FEF7BEF8FDF754FA4FF0000383F3118807
:103B8000BDF8123023F040039AB2059B9A81059B41
:103B90001B889BB223F040039AB2059B1A8007B0A2
:103BA00000BD00BFAFF30080AFF30080AFF3008033
:103BB00082B00190044B044A928992B242F0800292
:103BC00092B29A8102B0704700380140AFF3008092
:103BD00008B5FDF73DFA0448FFF712FFFDF760FA5C
:103BE000FDF726F808BD00BF4C0E0020AFF30080A3
:103BF00008B505484FF00001044AFEF781FD024B6D
:103C0000034AC3F8502408BD4C0E0020B13B000805
:103C100000380140AFF30080AFF30080AFF30080C5
:103C200000B583B001900091009B002B01D10E4B99
:103C30000093019B1B7B012B0FD1019A0B4B9A42E6
:103C40000BD10B4B0A4A926942F480429A614FF0C1
:103C500025004FF0C001FDF763F801980099FFF7C8
:103C600037FE03B000BD00BF906500084C0E002079
:103C700000100240AFF30080AFF30080AFF300808C
:103C800082B00190214B214A926942F07D029A61F3
:103C90001F4B019A1268DA601D4B019A92685A60B4
:103CA0001B4B019A52681A601A4B019AD268DA606B
:103CB000184B019A52695A60164B019A12691A60A0
:103CC000154B019A9269DA60134B019A126A5A6095
:103CD000114B019AD2691A60104B019A526ADA604C
:103CE0000E4B019AD26A5A600C4B019A926A1A6082
:103CF0000B4B019A126BDA60094B019A926B5A6076
:103D0000074B019A526B1A6002B0704700100240D4
:103D100000080140000C0140001001400014014067
:103D200000180140AFF30080AFF30080AFF30080D4
:103D30008AB0039002910192019B032B03D1039B54
:103D4000029A1A6105E0019B042B02D1039B029A9F
:103D50005A612E4A019BD3181B7804934FF000033D
:103D60000693069B0793079B0893089B09934FF0C4
:103D70000003059335E0089B4FEA03130893099B62
:103D80004FEA03130993069B4FEA03130693079B1D
:103D90004FEA03130793029B03F08003002B04D127
:103DA000089B43F00F03089304E0069A049B42EA41
:103DB00003030693029B03F40043002B04D1099BE9
:103DC00043F00F03099304E0079A049B42EA0303BC
:103DD0000793029B4FEA43030293059B03F1010300
:103DE0000593059B072BC6D9039B5A68099B1A406C
:103DF000079B1A43039B5A60039B1A68089B1A404F
:103E0000069B1A43039B1A600AB07047A06500081E
:103E100008B5FEF7E5FE08BDAFF30080AFF3008004
:103E2000704700BFAFF30080AFF30080AFF30080B6
:103E300000B585B001904FF0200383F31188FDF7A2
:103E4000A7F8224B1B691A46204BDB68D31A1A4687
:103E50001E4B9B68D31A0393039B032B2DDD019B01
:103E60001B788DF80B309DF80B3018481946FDF77C
:103E7000DFFF019B03F101031B788DF80B309DF8E8
:103E80000B3012481946FDF7D3FF019B03F10203E3
:103E90001B788DF80B309DF80B300C481946FDF758
:103EA000C7FF019B03F103031B788DF80B309DF8CE
:103EB0000B3006481946FDF7BBFFFDF781F84FF0C0
:103EC000000383F3118805B000BD00BFFC12002081
:103ED00000B583B04FF0200383F31188FDF758F845
:103EE0000D4B1B691A460C4BDB68D31A1A460A4B5A
:103EF0009B68D31A0193FDF763F84FF0000383F337
:103F00001188019B002B01DA03F103034FEAA3039D
:103F1000184603B000BD00BFFC120020AFF30080C4
:103F200000B583B000F064F8214822494FF08002C8
:103F30004FF00003FDF754FF1F4820494FF02002C7
:103F40004FF00003FDF74CFF1D481E494FF00402DF
:103F50004FF00003FDF744FF1B481C49FEF700FA31
:103F60001B481C49FEF7FCF91B481C49FEF7F8F9F1
:103F70001B481C49FEF7F4F94FF0010000F048FF20
:103F80004FF0FF3000F02CFF4FF0010000F058FF21
:103F900000F0E6F84FF00003009313484FF40B6174
:103FA0004FF04002114BFDF71BFC03B000BD00BFFA
:103FB000FC1200201C1300209C130020BC130020C6
:103FC000DC130020FC130020E80D00200066000830
:103FD000F80D002010660008080E0020206600087A
:103FE000180E00203066000800140020614200080E
:103FF00008B5564B4FF001025A6154484FF0010189
:104000004FF00602FFF794FE514B4FF002025A6147
:104010004F484FF002014FF00602FFF789FE4B4B6D
:104020004FF480425A6149484FF480414FF00602F4
:10403000FFF77EFE454B4FF002025A6143484FF0B6
:1040400002014FF00602FFF773FE40484FF4006193
:104050004FF00602FFF76CFE3D484FF010014FF0A5
:104060000602FFF765FE3A484FF480714FF00602F2
:10407000FFF75EFE35484FF400414FF00602FFF7B0
:1040800057FE324B4FF480625A61314B4FF0400281
:104090005A612F4B4FF080025A612C4B4FF4005263
:1040A0001A612A484FF480614FF00602FFF740FE84
:1040B00027484FF040014FF00602FFF739FE244831
:1040C0004FF080014FF00602FFF732FE1F484FF419
:1040D00000514FF00602FFF72BFE1D484FF0200164
:1040E0004FF00202FFF724FE18484FF480714FF0A2
:1040F0000202FFF71DFE15484FF480514FF00202F7
:10410000FFF716FE11484FF480514FF00202FFF7FF
:104110000FFE0F484FF020014FF00202FFF708FE9C
:104120000B484FF004014FF00202FFF701FE084870
:104130004FF008014FF00202FFF7FAFD03484FF479
:1041400080714FF00202FFF7F3FD08BD000C014043
:1041500000080140AFF30080AFF30080AFF30080B0
:1041600000B583B04FF0000301936BE03849019A2A
:1041700013464FEA83039B184FEA8303CB184FF093
:1041800000021A603249019A13464FEA83039B18D2
:104190004FEA8303CB1803F104034FF000021A60C7
:1041A0002B49019A13464FEA83039B184FEA830376
:1041B000CB1803F108034FF000021A602449019A5A
:1041C00013464FEA83039B184FEA8303CB1803F18E
:1041D0000C034FF000021A601D49019A13464FEA82
:1041E00083039B184FEA8303CB1803F11002137863
:1041F0006FF3000313701649019A13464FEA8303C5
:104200009B184FEA8303CB1803F1100213786FF366
:10421000410313700E49019A13464FEA83039B181A
:104220004FEA8303CB1803F1100213786FF3820374
:10423000137008484FF00001FDF782FB019B03F16A
:1042400001030193019B032B90DD03B000BD00BF70
:10425000A0120020F0120020AFF30080AFF3008026
:1042600030B58DB001904FF000038DF82F3000E095
:1042700000BF03AB089382484FF0FF31FDF720FEEB
:104280000346DAB2089B1A70089B03F101047C48CC
:104290004FF0FF31FDF714FE0346DBB22370089B9D
:1042A00003F1020476484FF0FF31FDF709FE0346A3
:1042B000DBB22370089B03F1030471484FF0FF3118
:1042C000FDF7FEFD0346DBB223704FF0030001F063
:1042D00077FB4FF000030A9368E003AA0A9BD31808
:1042E0001B785BB2002BD4BF00230123D9B26548F1
:1042F0000A9A13464FEA83039B184FEA8303C318B5
:1043000003F11002137861F38203137003AA0A9B6E
:10431000D3181B785BB283EAE371A1EBE3715948D0
:104320000A9A13464FEA83039B184FEA8303C31884
:1043300003F10803196053490A9A13464FEA8303AD
:104340009B184FEA8303CB1803F11002137843F054
:10435000080313704B490A9A13464FEA83039B18CC
:104360004FEA8303CB1803F1100213786FF30003B5
:10437000137003AA0A9BD3181B785BB2002B0CBFE7
:1043800000230123D9B23F480A9A13464FEA830318
:104390009B184FEA8303C31803F11002137861F3EB
:1043A000410313700A9B03F101030A930A9B032B39
:1043B00093DD344B1B7CC3F38003DBB2184600F063
:1043C00057FD304B93F82430C3F38003DBB218461B
:1043D00000F066FD2B4B93F83830C3F38003DBB25B
:1043E000184600F075FD274B93F84C30C3F380035B
:1043F000DBB2184600F084FD224B9B68214A92688C
:1044000002FB03F21F4BDB691E49C96901FB03F381
:10441000D2181C4B5B6C1B49496C01FB03F1194B17
:104420001B6B1848006B00FB03F3CB18D3180793E2
:10443000079800F0E5FD0790079B1A464FEAE373E3
:10444000114901FB03F14FF0000000FB02F00918D5
:104450000D48A2FB0023C9180B460C4909680C46FD
:104460004FEAE1751046194622462B46FBF740FEFF
:1044700002460B46134606934FF000030A9348E0AA
:10448000FC120020A0120020A086010000080020DD
:10449000A4490A9A13464FEA83039B184FEA830301
:1044A000CB1803F108031B68069A92FBF3F34FEA5B
:1044B000D372D3184FEA630319469A480A9A1346EF
:1044C0004FEA83039B184FEA8303C31803F10C03DD
:1044D000196094490A9A13464FEA83039B184FEADE
:1044E0008303CB1803F10C031B68022BACBF1946E6
:1044F00002218C480A9A13464FEA83039B184FEA1D
:104500008303C31803F10C0319600A9B03F1010331
:104510000A930A9B032BBBDD9DF82F30002B0BD198
:104520004FF0010000F004FD4FF01900FDF798F97D
:104530004FF001038DF82F307A4B9B68002B03DD81
:10454000794B4FF001021A61764BDB69002B03DDDA
:10455000764B4FF002021A61724B1B6B002B03DD8E
:10456000714B4FF480421A616E4B5B6C002B03DD84
:104570006D4B4FF002021A614FF0000309934FF0A8
:1045800000030A9315E067490A9A13464FEA83032A
:104590009B184FEA8303CB1803F110031B78C3F376
:1045A0004003DBB2099AD31809930A9B03F1010374
:1045B0000A930A9B032BE6DD5A4B1B7C03F0020394
:1045C000DBB2002B06D0574BDB689BB2584819462C
:1045D000FDF7FEFE534B93F8243003F00203DBB2E9
:1045E000002B06D04F4B1B6A9BB252481946FDF771
:1045F000EFFE4C4B93F8383003F00203DBB2002B94
:1046000006D0484B5B6B9BB24B481946FDF7E0FE6A
:10461000444B93F84C3003F00203DBB2002B06D07E
:10462000404B9B6C9BB245481946FDF7D1FE4FF0BD
:1046300000030A9308E042484FF0FF31FDF740FCC9
:104640000A9B03F101030A930A9A099B9A42F2DB3F
:104650004FF000030A9312E032490A9A13464FEAD8
:1046600083039B184FEA8303CB1803F110021378DE
:104670006FF3410313700A9B03F101030A930A9B32
:10468000032BE9DD4FF0200383F31188FCF780FC56
:104690002C4B9B680593059B032B09DC4FF0FF30E7
:1046A00000F046FC00F064FC4FF000038DF82F3062
:1046B000FCF786FC4FF0000383F31188059B032B66
:1046C00003DC4FF0010001F07BF91F484FF00001BF
:1046D000FDF7F6FB0490049BB3F1FF3F3FF4C8AD38
:1046E0004FF0200383F31188FCF752FC154B9B68B5
:1046F0000593FCF765FC4FF0000383F311884FF03E
:1047000000030A9308E00F484FF00001FDF7D8FBC3
:104710000A9B03F101030A930A9A059B9A42F2DB72
:10472000A7E500BFA0120020000C014000080140D6
:10473000E80D0020F80D0020080E0020180E0020C3
:10474000DC130020FC1200209C130020AFF300803B
:1047500000B585B001903D4B0393039B1B7C03F098
:104760000803DBB2002B2FD04FF0200383F3118816
:10477000FCF73EFC039B1B7C03F00203DBB2002B27
:1047800007D0039BDB689BB231481946FDF740FE1A
:1047900004E030484FF00001FDF74AFBFCF740FC15
:1047A0004FF0000383F311882B4B4FF001025A6145
:1047B000039A137C6FF3C3031374039B9B6803F189
:1047C000FF32039B9A603EE0039B9B68002B29DD30
:1047D0004FF0200383F31188FCF70AFC039B1B7C3A
:1047E00003F00203DBB2002B07D0039BDB689BB214
:1047F00017481946FDF70CFE04E016484FF000017B
:10480000FDF716FBFCF70CFC4FF0000383F3118857
:10481000114B4FF001021A61039A137C43F0080315
:10482000137410E04FF0200383F31188FCF7E0FBD2
:1048300008484FF00001FDF7FBFAFCF7F1FB4FF0E1
:10484000000383F3118805B000BD00BFA012002053
:10485000E80D0020DC130020000C0140AFF30080C5
:1048600000B585B001903D4B0393039B1B7C03F087
:104870000803DBB2002B2FD04FF0200383F3118805
:10488000FCF7B6FB039B1B7C03F00203DBB2002B9F
:1048900007D0039BDB689BB231481946FDF7B8FD92
:1048A00004E030484FF00001FDF7C2FAFCF7B8FB16
:1048B0004FF0000383F311882B4B4FF002025A6133
:1048C000039A137C6FF3C3031374039B9B6803F178
:1048D000FF32039B9A603EE0039B9B68002B29DD1F
:1048E0004FF0200383F31188FCF782FB039B1B7CB2
:1048F00003F00203DBB2002B07D0039BDB689BB203
:1049000017481946FDF784FD04E016484FF00001F2
:10491000FDF78EFAFCF784FB4FF0000383F3118858
:10492000114B4FF002021A61039A137C43F0080303
:10493000137410E04FF0200383F31188FCF758FB49
:1049400008484FF00001FDF773FAFCF769FB4FF0E0
:10495000000383F3118805B000BD00BFB41200202E
:10496000F80D0020DC13002000080140AFF30080A8
:1049700000B585B001903D4B0393039B1B7C03F076
:104980000803DBB2002B2FD04FF0200383F31188F4
:10499000FCF72EFB039B1B7C03F00203DBB2002B16
:1049A00007D0039BDB689BB231481946FDF730FD09
:1049B00004E030484FF00001FDF73AFAFCF730FB15
:1049C0004FF0000383F311882B4B4FF480425A6160
:1049D000039A137C6FF3C3031374039B9B6803F167
:1049E000FF32039B9A603EE0039B9B68002B29DD0E
:1049F0004FF0200383F31188FCF7FAFA039B1B7C2A
:104A000003F00203DBB2002B07D0039BDB689BB2F1
:104A100017481946FDF7FCFC04E016484FF000016A
:104A2000FDF706FAFCF7FCFA4FF0000383F3118858
:104A3000114B4FF480421A61039A137C43F0080330
:104A4000137410E04FF0200383F31188FCF7D0FAC1
:104A500008484FF00001FDF7EBF9FCF7E1FA4FF0E1
:104A6000000383F3118805B000BD00BFC812002009
:104A7000080E0020DC130020000C0140AFF3008082
:104A800000B585B001903D4B0393039B1B7C03F065
:104A90000803DBB2002B2FD04FF0200383F31188E3
:104AA000FCF7A6FA039B1B7C03F00203DBB2002B8E
:104AB00007D0039BDB689BB231481946FDF7A8FC81
:104AC00004E030484FF00001FDF7B2F9FCF7A8FA16
:104AD0004FF0000383F311882B4B4FF002025A6111
:104AE000039A137C6FF3C3031374039B9B6803F156
:104AF000FF32039B9A603EE0039B9B68002B29DDFD
:104B00004FF0200383F31188FCF772FA039B1B7CA0
:104B100003F00203DBB2002B07D0039BDB689BB2E0
:104B200017481946FDF774FC04E016484FF00001E1
:104B3000FDF77EF9FCF774FA4FF0000383F3118858
:104B4000114B4FF002021A61039A137C43F00803E1
:104B5000137410E04FF0200383F31188FCF748FA38
:104B600008484FF00001FDF763F9FCF759FA4FF0E0
:104B7000000383F3118805B000BD00BFDC120020E4
:104B8000180E0020DC130020000C0140AFF3008061
:104B900000B585B001900091019B002BD4BF00238C
:104BA000012303934FF0200383F31188FCF7F0F9FE
:104BB0000949039A13464FEA83039B184FEA83037C
:104BC000CB18009A1A60FCF7FBF94FF0000383F34F
:104BD000118805B000BD00BFA0120020AFF3008017
:104BE00000B585B00390029101924FF0200383F34A
:104BF0001188FCF7CDF9084B039A1A60074B029A0B
:104C00001A60074B019A1A60FCF7DAF94FF00003BB
:104C100083F3118805B000BD0008002004080020BF
:104C200008080020AFF30080AFF30080AFF30080EE
:104C300000B587B0039002910192039B002BD4BF73
:104C4000002301230593059A13464FEA83039B181B
:104C50004FEA83031A46114BD31804934FF02003F5
:104C600083F31188FCF794F9019B002B03D0049B7C
:104C70005A68019B1A60029B002B07D0049B1B7C87
:104C8000C3F30003DBB21A46029B1A60FCF798F9E3
:104C90004FF0000383F3118807B000BDA01200207D
:104CA00000B587B001900091019B002BD4BF002379
:104CB00001230593059A13464FEA83039B184FEA95
:104CC00083031A460F4BD31804934FF0200383F34A
:104CD0001188FCF75DF9049B1B7CC3F34003DBB236
:104CE0000393009B002B03D0049B1A68009B1A605F
:104CF000FCF766F94FF0000383F31188039B184615
:104D000007B000BDA0120020AFF30080AFF3008019
:104D100000B587B00190019B002BD4BF0023012375
:104D20000593059A13464FEA83039B184FEA8303C2
:104D30001A460B4BD31804934FF0200383F31188CA
:104D4000FCF726F9049B1B680393FCF739F94FF035
:104D5000000383F31188039B184607B000BD00BF12
:104D6000A0120020AFF30080AFF30080AFF300800B
:104D700000B583B04FF0200383F31188FCF708F9E6
:104D800013484FF00001FDF753F84FF00003019373
:104D900012E01049019A13464FEA83039B184FEA29
:104DA0008303CB1803F1100213786FF341031370E0
:104DB000019B03F101030193019B032BE9DDFCF748
:104DC000FFF84FF0000383F3118803B000BD00BF6C
:104DD0009C130020A0120020AFF30080AFF30080EE
:104DE00082B00190019B002B04DD054B4FF0400287
:104DF0005A6103E0024B4FF040021A6102B0704763
:104E000000080140AFF30080AFF30080AFF30080F3
:104E100082B00190019B002B04DD054B4FF0800216
:104E20005A6103E0024B4FF080021A6102B07047F2
:104E300000080140AFF30080AFF30080AFF30080C3
:104E400082B00190019B002B04DD054B4FF4806282
:104E50005A6103E0024B4FF480621A6102B070475E
:104E6000000C0140AFF30080AFF30080AFF300808F
:104E700082B00190019B002B04DD054B4FF40062D2
:104E80001A6103E0024B4FF400625A6102B07047AE
:104E9000000C0140AFF30080AFF30080AFF300805F
:104EA00082B00190019B002B04DD054B4FF01002F6
:104EB0001A6103E0024B4FF010025A6102B07047D2
:104EC00000080140AFF30080AFF30080AFF3008033
:104ED00082B00190019B002B04DD054B4FF48072E2
:104EE0001A6103E0024B4FF480725A6102B07047BE
:104EF00000080140AFF30080AFF30080AFF3008003
:104F000082B00190019B002B04DD054B4FF4004261
:104F10001A6103E0024B4FF400425A6102B070473D
:104F2000000C0140AFF30080AFF30080AFF30080CE
:104F300000B583B00190019B002B08DD094B4FF4B5
:104F400000525A614FF0FF30FFF762FF07E04FF069
:104F50000100FFF75DFF034B4FF400521A6103B0ED
:104F600000BD00BF000C0140AFF30080AFF3008034
:104F700000B583B01E4B1B68DBB28DF800301C4BB4
:104F80001B684FEA2323DBB28DF80130184B1B68F6
:104F90004FEA2343DBB28DF80230154B1B684FEA12
:104FA0002363DBB28DF80330114B5B69DBB28DF804
:104FB00004300F4B5B694FEA2323DBB28DF80530D9
:104FC0000B4B5B694FEA2343DBB28DF80630084B8D
:104FD0005B694FEA2363DBB28DF8073000F010FE07
:104FE0006B464FF00800194600F0CAFD03B000BD43
:104FF000A0120020AFF30080AFF30080AFF3008079
:1050000086B00190019B0593019B0493019A059B37
:1050100092FBF3F2059BD3180393039B4FEAD372E1
:10502000D3184FEA63031A460399174B01EA0303A7
:10503000002B05DA03F1FF3363F0010303F10103F1
:10504000D3180593049A059B9A4202DD059B0493AD
:10505000DCE7019A049B92FBF3F2049B03F1FF331C
:105060009A420DD1019B049A93FBF2F2049901FB41
:1050700002F29B1A002B03D1049B03F1FF3304932C
:10508000049B184606B0704701000080AFF3008013
:1050900008B5FDF71DF9FBF7D3FE00F061FC00F049
:1050A00007F9FEF73DFF4FF0000000F089FC00F02B
:1050B0005FF9FCE7AFF30080AFF30080AFF300804F
:1050C00000B585B001900E4BDB690E4A9A610E481F
:1050D0004FF0FF31FCF7F4FE03904FF0200383F311
:1050E0001188FBF755FF039BDBB208481946FCF714
:1050F0009FFEFBF765FF4FF0000383F31188E6E79F
:105100007C0D0020D06400085C0E0020301D0020C3
:1051100000B585B00190019B1B78002B0CBF0023CC
:10512000012303930398FFF7F3FD0290029BDBB288
:10513000184600F09DFB029B4FEA2323DBB2184682
:1051400000F096FB029B4FEA2343DBB2184600F0C7
:105150008FFB029B4FEA1363DBB2184600F088FB1B
:1051600000F0A6FB05B000BDAFF30080AFF30080F8
:1051700000B587B00190019B1B788DF81730019B1B
:1051800003F101031B788DF81630019B03F1020334
:105190009DF817109DF81620084611461A4600F093
:1051A0006FFC0490049B002B02DB049BDBB204E049
:1051B000049BDBB2C3F10003DBB28DF80F309DF826
:1051C0000F30184600F054FB00F072FB07B000BD32
:1051D00000B587B00190019B1B788DF81630019BBC
:1051E00003F101031B788DF815309DF816209DF80A
:1051F000153010461946019A00F09AFC0490049B61
:10520000002B02DB049BDBB204E0049BDBB2C3F1A6
:105210000003DBB28DF80F309DF80F30184600F018
:1052200027FB4FF000038DF817300DE09DF8173085
:10523000019AD3181B78184600F01AFB9DF8173016
:1052400003F101038DF817309DF817209DF81530F4
:105250009A42EBD300F02CFB07B000BDAFF3008007
:1052600000B583B0019000F0CBFC03B000BD00BFDF
:1052700000B585B00190019B1B788DF80F309DF82B
:105280000F30184600F0C4FC05B000BDAFF300803D
:1052900000B585B00190FEF71BFE0390039BDBB2C7
:1052A000184600F0E5FA00F003FB05B000BD00BFB2
:1052B00000B583B0254826494FF020024FF0000387
:1052C000FCF78EFD234824494FF020024FF00003E5
:1052D000FCF786FD21484FF400714FF01002FEF7F5
:1052E00027FD1E484FF480614FF00202FEF720FDBB
:1052F0001A484FF400614FF01002FEF719FD1748ED
:105300004FF480514FF00202FEF712FD14484FF0A7
:105310000001FDF72DFA4FF00003009311484FF400
:10532000D8714FF04002104BFCF75AFA0F484FF07B
:1053300040014FF01102FEF7FBFC0C484FF08001DA
:105340004FF01102FEF7F4FC03B000BD301D002049
:10535000F01C0020501D0020101D002000080140FE
:105360004C0E0020701D0020C1500008000C0140B0
:1053700000B583B023484FF0FF31FCF7A1FD019049
:10538000019B8DF80330204B1B78002B22D19DF818
:105390000330002B0AD11D4B1B681D48194600F035
:1053A0003FF81A4B4FF000021A6021E09DF80330DD
:1053B0005C2B0AD0154B1B68154A9DF80310D1547D
:1053C00003F10102114B1A6012E00F4B4FF0010282
:1053D0001A700DE00C4B4FF000021A700B4B1B685B
:1053E0000B4A9DF80310D15403F10102074B1A60D8
:1053F000064B1B68202BB4BF1A462022034B1A60B1
:1054000003B000BD301D0020201F0020241F0020FD
:10541000B01C0020AFF30080AFF30080AFF300803A
:1054200000B587B001900091019B1B788DF8133077
:10543000019B03F1010303939DF81330012B02D06C
:10544000022B17D019E04FF0000305930BE0059BEA
:10545000039AD3181A780A49059BCB181A70059B32
:1054600003F101030593009B03F1FF32059B9A4270
:10547000EDDC02E000F00CF800BF07B000BD00BF9B
:10548000D01C0020AFF30080AFF30080AFF30080AA
:1054900000B583B00B4B5B7801934FF01103009381
:1054A000019A009B9A4201DA019B01E04FF0000350
:1054B0000193054B019A53F822300448984703B0F2
:1054C00000BD00BFB01C00200C080020D01C002034
:1054D00000B589B001900F4A03AB07CA83E8070003
:1054E0004FF00B0306934FF0000307930AE003AA63
:1054F000079BD3181B78184600F0BAF9079B03F1F5
:1055000001030793079A069B9A42F0DB00F0D0F95B
:1055100009B000BDD4640008AFF30080AFF3008091
:1055200000B589B001900F4A03AB07CA03C31A80C4
:105530004FF0090306934FF0000307930AE003AA14
:10554000079BD3181B78184600F092F9079B03F1CC
:1055500001030793079A069B9A42F0DB00F0A8F933
:1055600009B000BDE0640008AFF30080AFF3008035
:1055700000B585B001900F4A03AB1268114619803F
:1055800003F102034FEA12421A709DF80C301846DC
:1055900000F06EF99DF80D30184600F069F900F042
:1055A00087F94FF0FA00FCF75BF900F039FA05B023
:1055B00000BD00BFEC640008AFF30080AFF30080D3
:1055C00000B583B00190019B1B78184600F0F8F9F4
:1055D00003B000BDAFF30080AFF30080AFF30080F5
:1055E00000B585B00190019B1B780393039BDBB250
:1055F000184600F01DFA05B000BD00BFAFF30080F3
:1056000000B583B00190019B1846FEF711FC03B072
:1056100000BD00BFAFF30080AFF30080AFF30080A8
:1056200000B583B00190FFF7A3FB03B000BD00BF3E
:1056300000B587B00190019B1B78002B0CBF0023A5
:105640000123059303AB05981946FFF729FB049046
:10565000049BDBB2184600F00BF9039BDBB2184643
:1056600000F006F9039B4FEA2323DBB2184600F053
:10567000FFF8039B4FEA2343DBB2184600F0F8F82B
:10568000039B4FEA1363DBB2184600F0F1F800F019
:105690000FF907B000BD00BFAFF30080AFF300808B
:1056A00000B587B00190019B1B78002B0CBF002335
:1056B0000123059304AA03AB059811461A46FFF788
:1056C000B7FA049BDBB2184600F0D2F8039BDBB2BA
:1056D000184600F0CDF8039B4FEA2323DBB21846AF
:1056E00000F0C6F8039B4FEA2343DBB2184600F0F4
:1056F000BFF8039B4FEA1363DBB2184600F0B8F81B
:1057000000F0D6F807B000BDAFF30080AFF3008023
:1057100000B585B00190019B1B78002B0CBF0023C6
:1057200001230393019B03F101031B780293019B67
:1057300003F102031B784FEA0323029A42EA0303B0
:105740000293019B03F103031B784FEA0343029A80
:1057500042EA03030293019B03F104031B784FEA1F
:105760000363029A42EA0303029303980299FFF744
:105770000FFA05B000BD00BFAFF30080AFF30080AB
:1057800000B587B00190019B1B780593019B03F145
:1057900001031B784FEA0323059A42EA03030593AA
:1057A000019B03F102031B784FEA0343059A42EA87
:1057B00003030593019B03F103031B784FEA036383
:1057C000059A42EA03030593019B03F104031B7846
:1057D0000493019B03F105031B784FEA0323049A0A
:1057E00042EA03030493019B03F106031B784FEA8B
:1057F0000343049A42EA03030493019B03F1070362
:105800001B784FEA0363049A42EA03030493019B63
:1058100003F108031B780393019B03F109031B7831
:105820004FEA0323039A42EA03030393019B03F124
:105830000A031B784FEA0343039A42EA03030393E4
:10584000019B03F10B031B784FEA0363039A42EABF
:105850000303039305980499039AFFF7C1F907B06E
:1058600000BD00BFAFF30080AFF30080AFF3008056
:1058700000B583B003468DF807309DF80730002B44
:1058800003D09DF807305C2B06D108484FF05C012F
:105890004FF0FF32FCF7FCFB9DF807300348194638
:1058A0004FF0FF32FCF7F4FB03B000BD7C0E00208C
:1058B00008B504484FF000014FF0FF32FCF7E8FB59
:1058C00008BD00BF7C0E0020AFF30080AFF3008066
:1058D00000B583B001901A4BDB691A4A9A611A48E5
:1058E000FCF7BEF8194B1A68194B1A60184B1B6865
:1058F00003F00103DBB2002B06D0164B154AD26829
:1059000082F48042DA6003E0124B4FF480425A6125
:105910000F4B1B6803F00203002B06D00D4B0D4A02
:10592000D26882F40052DA6003E00A4B4FF400526E
:105930005A61FCF735F94FF0FA00FBF791FFCEE71B
:105940007C0D0020F0640008281F0020381F002074
:10595000F020002000100140AFF30080AFF3008082
:1059600000B583B0124B4FF480425A61104B4FF494
:1059700000525A610E484FF480414FF00602FEF784
:10598000D7F90B484FF400514FF00602FEF7D0F95B
:105990000848FCF745F84FF00003009306484FF421
:1059A000D8714FF04002054BFBF71AFF03B000BD62
:1059B00000100140281F0020401F0020D15800087F
:1059C00000B583B001900548FCF74AF8044B019AF2
:1059D0001A60FCF7E5F803B000BD00BF281F0020E7
:1059E000381F0020AFF30080AFF30080AFF30080DA
:1059F000BFF34F8F054A054BDB6803F4E061044BAE
:105A000041EA0303D360BFF34F8FFEE700ED00E0F0
:105A10000400FA05AFF30080AFF30080AFF300801D
:105A200008B5FFF7E5FF08BDAFF30080AFF30080D6
:105A300000B583B003468DF807304FF0200383F3A1
:105A40001188FBF7A5FA9DF80730002B02D04FF024
:105A5000010301E04FF0020305481946FCF7E8F99D
:105A6000FBF7AEFA4FF0000383F3118803B000BDDB
:105A7000F4200020AFF30080AFF30080AFF300808C
:105A800000B58BB00B46049202468DF817208DF8B6
:105A90001630214B9DF817201A704FF000038DF837
:105AA000273010E09DF8273003F101039DF82720EF
:105AB00004998A181178184AD1549DF8273003F1B7
:105AC00001038DF827309DF827209DF816309A4263
:105AD000E8D34FF07D030893104B4FF400725A61E6
