:020000040800F2
:100000000004002041040008110500081105000843
:100010001105000811050008110500081105000868
:100020001105000811050008110500086105000808
:100030001105000811050008110500083105000828
:1000400011050008312B00081105000811050008F2
:100050001105000811050008E12800081129000811
:100060004129000871290008A1290008B1230008CE
:100070000124000851240008A1240008F1240008EC
:100080004125000891250008110500081105000808
:10009000110500081105000811050008D129000804
:1000A00011050008512D0008110500081105000870
:1000B000712D0008912D0008B12D0008113900089C
:1000C0003139000811050008110500081105000864
:1000D00011050008313F000811050008110500084E
:0C00E000712A000811050008612B0008BF
:1000F00053B94AB9002908BF00281CBF4FF0FF318F
:100100004FF0FF3000F084B9ADF1080C6DE904CE7A
:1001100000F006F8DDF804E0DDE9022304B07047E2
:100120002DE9F04F8C460C460546099E002B4FD119
:100130008A4217466BD9B2FA82FEBEF1000F0BD08D
:10014000CEF1200520FA05F501FA0EF345EA030C7D
:1001500002FA0EF700FA0EF5390CBCFBF1F0BAB258
:1001600001FB10C300FB02F84FEA154C4CEA0344B4
:10017000A04509D9E41900F1FF3380F02881A0459A
:1001800040F2258102383C44C8EB0404B4FBF1F38F
:1001900001FB134C03FB02F2ACB244EA0C418A426D
:1001A00009D9C91903F1FF3480F00F818A4240F266
:1001B0000C81023B39448A1A43EA00400021002E98
:1001C00063D022FA0EF2002386E80C00BDE8F08F1F
:1001D0008B4207D9002E56D0002186E81100084630
:1001E000BDE8F08FB3FA83F1002940F09380A34279
:1001F00002D3824200F2FE80851A64EB03039C4620
:100200000120002E41D086E82010BDE8F08F12B901
:100210000127B7FBF2F7B7FA87FEBEF1000F36D120
:10022000E41B4FEA17481FFA87F90121B4FBF8F3E2
:1002300008FB134409FB03F24FEA154C4CEA044453
:10024000A24207D9E41903F1FF3002D2A24200F220
:10025000D3800346A41AB4FBF8F008FB104809FB4E
:1002600000F9ACB244EA0842914507D9D21900F12D
:10027000FF3402D2914500F2BA802046C9EB020257
:1002800040EA03409BE731463046BDE8F08F07FA6D
:100290000EF7CEF1200C24FA0CF34FEA1748B3FB0B
:1002A000F8FA1FFA87F908FB1A3520FA0CFC04FA51
:1002B0000EF40AFB09FB4CEA040C4FEA1C4242EA2A
:1002C00005439B4500FA0EF50AD9DB190AF1FF3206
:1002D00080F08B809B4540F28880AAF1020A3B4463
:1002E000CBEB0303B3FBF8F008FB103300FB09F47E
:1002F0001FFA8CFC4CEA03439C4207D9DB1900F13E
:10030000FF326ED29C426CD902383B441C1B40EA3F
:100310000A418BE7C1F1200E8B4022FA0EFC4CEA19
:10032000030C24FA0EF74FEA1C49B7FBF9FA1FFA3F
:100330008CF309FB1A7720FA0EF88C400AFB03F5C0
:1003400048EA04044FEA144848EA0747BD4202FA63
:1003500001F200FA01FB09D917EB0C070AF1FF3093
:1003600041D2BD423FD9AAF1020A67447F1BB7FBC5
:10037000F9F509FB157705FB03F3A4B244EA074737
:10038000BB4208D917EB0C0705F1FF3027D2BB425F
:1003900025D9023D674445EA0A40A0FB0289FF1ABD
:1003A0004F4545464C4614D329D066B3BBEB0503F5
:1003B00067EB040707FA0EFECB40CF404EEA03037B
:1003C00086E888000021BDE8F08F2346F3E6184652
:1003D000DAE6B8EB020569EB0C040138E5E70546FF
:1003E000D9E7104692E78246C0E7924678E702389E
:1003F0003A4443E7084604E7023B3C442AE7C34546
:10040000E7D33C46D1E73146BDE8F08F000000005D
:10041000704700BF00000000000000000000000066
:1004200000BF704700000000000000000000000056
:10043000FEE700BF00000000000000000000000018
:1004400072B6254C84F30988022484F31488BFF320
:100450006F8F224C224D04E023461C1D4FF0553275
:100460001A60AC42F8D31F4C1B4D04E023461C1D00
:100470004FF055321A60AC42F8D303F041FE1A4DEA
:100480001A4C05E023461C1D2A46151D12681A60E9
:10049000174B9C42F6D3174C174D03E023461C1D07
:1004A00000221A60AC42F9D3FFF7BAFF134C02E006
:1004B000236898470434124B9C42F9D304F020FE81
:1004C000104C02E02368984704340F4B9C42F9D348
:1004D000FFF7AEFF00BF00BF0008002000000020B3
:1004E0000004002000040020B86700080008002075
:1004F0005008002050080020581F0020EC00000881
:10050000EC000008EC000008EC000008000000000F
:10051000FEE700BF00000000000000000000000037
:1005200072B6FEE7000000000000000000000000BE
:1005300008B500F035FA202383F3118800F000FAA3
:1005400000F06EF900F014FA002383F3118800F034
:1005500047FA00F035F800BF08BD00BF00000000FA
:1005600082B0EFF309830193019B20330193019B38
:1005700083F30988002383F3118800BF02B070471A
:1005800008B50A4B00229A60084B094ADA6010212C
:10059000072000F0CDF84FF400710A2000F0C8F8F1
:1005A00080210B2000F0C4F800BF08BD00ED00E082
:1005B0000000FA050000000000000000000000003C
:1005C00082B0202383F311881E4B5B6803F4006321
:1005D000002B31D0EFF309830193019B203B019362
:1005E000019B83F30988019B4FF08072DA61164BFF
:1005F0009B69002B0BD0144B1B689A68124BDB696C
:100600009B689A428CBF01230023DBB20AE00E4BA9
:100610001B689A680C4BDB699B689A422CBF0123CC
:100620000023DBB2002B03D0019B084A9A6106E04D
:10063000019B074A9A6102E0002383F3118802B00C
:10064000704700BF00ED00E07C0D0020610600084F
:100650006C06000800000000000000000000000020
:1006600000F03EF900F064FC00F052F900DF00BF3A
:1006700003460A462DE9F04FC2F80CD0D3F80CD04F
:10068000BDE8F08F00BF00BF0000000000000000C8
:1006900008B500F03DF9002383F311882846A047F0
:1006A00000F07EFD00BF08BD00000000000000005B
:1006B00010B485B001900091019BDB0003F018039A
:1006C0000393194C019B9B081749019A9208C03269
:1006D00051F82220FF20039900FA01F1C94311408B
:1006E0000098039A00FA02F20A43C03344F8232028
:1006F0000D49019B5B09019A02F01F02012000FADB
:1007000002F2603341F823200749019B5B09019AFB
:1007100002F01F02012000FA02F241F8232000BF7C
:1007200005B010BC704700BF00E100E00000000011
:1007300010B485B001900091019B03F00303DB002E
:1007400003930D4C019B9B080B49019A92080632BA
:1007500051F82220FF20039900FA01F1C94311400A
:100760000098039A00FA02F20A43063344F8232061
:1007700000BF05B010BC704700ED00E000000000B5
:1007800082B00190024BDB69024A9A61FEE700BF2A
:100790007C0D0020F05C000800000000000000005C
:1007A00000B583B0FFF7ECFE00F08AFA00F0C0F964
:1007B00001F09EFA00F064F94021124800F000FCBC
:1007C0000246114BDA61104BDB69012283F82020CD
:1007D0000D4BDB690D4ADA6100F06AF8002383F300
:1007E000118862B6084BDB69094A9A6100230093BD
:1007F000084B0122C021084800F07AFC00BF03B07A
:100800005DF804FB100900207C0D0020000400208E
:10081000F85C000881070008500800200000000074
:1008200000B583B000F0FCF81D4B9B69002B04DD84
:100830001B4B9B69013B1A4A9361194BDB695A6A4E
:1008400001325A62174BDB680133164AD360154BED
:100850001B68144A93421FD0124B1B689A68013AD6
:100860009A6012E0019BDB680093019B0022DA6032
:10087000019B1B680B4A5A60019B1B68094A136065
:10088000019B1A69009B10469847064B1B68019311
:10089000019B9B68002BE5D000BF03B05DF804FB13
:1008A0007C0D00206C0D0020000000000000000006
:1008B00008B5064B1B68002B03D1054B1B68002BAA
:1008C00002D0044800F024F900BF08BD58090020F8
:1008D0005C090020105D000800000000000000001E
:1008E00008B5084B1B68002B03D1074B1B68002B76
:1008F00002D0064800F00CF9034B01221A6000BF39
:1009000008BD00BF580900205C090020185D0008E0
:1009100008B5084B1B68002B03D1074B1B68002B45
:1009200002DC064800F0F4F8034B00221A6000BF16
:1009300008BD00BF580900205C090020205D0008A8
:1009400008B5084B1B68002B03DD074B1B68002B09
:1009500002D0064800F0DCF8034B01221A6000BF09
:1009600008BD00BF580900205C090020285D000870
:1009700008B5084B1B68002B03DD074B1B68002BD9
:1009800002DC064800F0C4F8034B00221A6000BFE6
:1009900008BD00BF580900205C090020305D000838
:1009A00008B5202383F311880A4B1B68002B03DB57
:1009B000094B1B68002B02D0084800F0A9F8054B32
:1009C0001B680133034A1360002383F3118800BFBF
:1009D00008BD00BF580900205C090020385D0008F0
:1009E00008B5202383F311880A4B1B68002B03DD15
:1009F000094B1B68002B02D0084800F089F8054B12
:100A00001B68013B034A1360002383F3118800BF76
:100A100008BD00BF580900205C090020405D0008A7
:100A200008B5064B1B68002B03DB054B1B68002B2E
:100A300002DC044800F06CF800BF08BD5809002033
:100A40005C090020485D0008000000000000000074
:100A500008B5064B1B68002B03D1054B1B68002B08
:100A600002DC044800F054F800BF08BD580900201B
:100A70005C090020505D000800000000000000003C
:100A8000034B40221A60024B024A5A6000BF704773
:100A9000600900206809002000000000000000003C
:100AA00082B00190124B5B68124AD2681A60104BF8
:100AB0005B68114AD2695A600D4B5B68019A926A71
:100AC0009A600B4B5B68019A92F820201A73084BCE
:100AD0005B681033064A5360054B5B68074A9342D4
:100AE00002D3034B064A5A6000BF02B0704700BFF2
:100AF000600900206C0D00207C0D0020680D002096
:100B00006809002000000000000000000000000054
:100B100000B583B00190044A019B1360FFF700FD0C
:100B200000BF03B05DF804FB680D0020000000006A
:100B3000074B074A5A60064B5B68054A1360044B33
:100B40004FF0FF329A60024B0022DA6000BF70471C
:100B50006C0D0020000000000000000000000000FC
:100B600000B587B00390029101920093FFF758FF00
:100B7000039B002B05D0019B002B02D0029B002B76
:100B800002D11D48FFF7C4FF039B009A1A61039B23
:100B9000019ADA60194B1B68059307E0059B9B6877
:100BA000029AD31A0293059B1B680593059B9A68CA
:100BB000029B9A42F2D3039B059A1A60039B1B681F
:100BC0005A68039B5A60039B5B68059A03995160BE
:100BD000059A52681A60039B029A9A60059B074A1D
:100BE000934205D0059B9A68029BD21A059B9A6096
:100BF00000BF07B05DF804FB605D00086C0D0020CD
:100C000000B583B00190FFF70BFF019B002B02D1D1
:100C10001448FFF77DFF019BDB68002B02D11248CF
:100C2000FFF776FF019B1B68104A934208D0019B97
:100C30001B68019A12689168019A92680A449A6046
:100C4000019B5B68019A12681A60019B1B68019AFC
:100C500052685A60019B0022DA6000BF03B05DF861
:100C600004FB00BF705D0008805D00086C0D002073
:100C700084B00190019B1B680393039B1A68019B3E
:100C80001A60019B1B68019A5A60039B184604B0C6
:100C9000704700BF000000000000000000000000DE
:100CA00082B00190019B5B68019A12681A60019BF7
:100CB0001B68019A52685A60019B184602B070473F
:100CC0000A4B0A4A5A60094B5B68084A1360074B93
:100CD00000229A60054B14229A61044B034A5A6120
:100CE000024B5B69014A136100BF70477C0D002015
:100CF00000B585B00190019B93F82030002B04D003
:100D0000019B93F820300E2B02D11348FFF700FF10
:100D1000019B002283F82020104B0393039B1B6848
:100D20000393039B9A68019B9B689A42F6D2019BAE
:100D3000039A1A60039B5A68019B5A60019B5B6887
:100D4000039A01995160039A52681A60019B1846F0
:100D500005B05DF804FB00BFA05D00087C0D00201D
:100D600000B585B003468DF80730FFF771FE164BCE
:100D7000DB690393039B9DF8072083F82020124B27
:100D800014229A611048FFF773FF02460E4BDA6196
:100D90000D4BDB69012283F820200398FFF780FECA
:100DA0006B46A3F12402039BDB699A4202D20748F7
:100DB000FFF7AEFE044BDB6903991846FFF758FCBA
:100DC00000BF05B05DF804FB7C0D0020B45D000899
:100DD00000B585B00190019B0393039B93F82030ED
:100DE0000D2B27D801A252F823F000BF450E0008B2
:100DF000350E0008350E0008250E0008350E0008D7
:100E00002F0E0008350E0008350E0008350E0008BC
:100E1000350E0008350E0008350E0008350E0008A6
:100E20002F0E0008039B9B6A9A6801329A60039810
:100E3000FFF736FF039B4FF0FF329A620398FFF7EC
:100E400057FF00E000BF05B05DF804FB00000000A4
:100E500000B589B0034600918DF80730FFF7F8FD23
:100E6000009BB3F1FF3F13D00F4BDB6903A80F4A80
:100E70000099FFF775FE9DF807301846FFF770FFE1
:100E8000069B002B09D003AB1846FFF7B9FE04E020
:100E90009DF807301846FFF763FF034BDB699B6A39
:100EA000184609B05DF804FB7C0D0020D10D000848
:100EB00000B585B001900091FFF7CAFD019B009A33
:100EC0009A62019B9A68174BDB699B689A4203D828
:100ED0000198FFF70DFF20E0124BDB691846FFF782
:100EE00007FF03900F4B14229A610E4A019BD361B6
:100EF000019B012283F820200398FFF7D1FD6B4668
:100F0000A3F12402039BDB699A4202D20648FFF751
:100F1000FFFD03990198FFF7ABFB00BF05B05DF83B
:100F200004FB00BF7C0D0020B45D00080000000041
:100F300000B583B0154B14229A61144BDB69019301
:100F40001248FFF795FE0246104BDA610F4BDB6942
:100F5000012283F820200198FFF7CAFE0198FFF7CD
:100F60009FFD6B46A3F12402019BDB699A4202D2EA
:100F70000748FFF7CDFD054BDB6901991846FFF7E0
:100F800077FB00BF03B05DF804FB00BF7C0D0020C1
:100F9000B45D000800000000000000000000000038
:100FA00084B00190019B1B680393039B1A68019B0B
:100FB0001A60039B184604B0704700BF0000000091
:100FC00082B001900091019B009A9A60019B0222DD
:100FD00083F82020019B002283F82120019B009AA6
:100FE0005A64019B00221A64019B0022DA63019B70
:100FF00000225A62019B00229A61019B124A1A61E7
:10100000114B5A69019B5A61019B5B690E49019A18
:101010004A610D4A52691A61019B03F12C02019B3E
:10102000DA62019B03F13002019B5A63019B5A6B08
:10103000019B1A63019B03F14802019BDA61019B4A
:10104000184602B0704700BF7C0D00200000000071
:1010500084B00390029113468DF8073005E0039B9E
:101060005A1C03929DF807201A70039A029B9A4219
:10107000F5D300BF04B0704700000000000000007E
:1010800000B587B00390029101920093039B0593F2
:10109000FFF7C6FC039B002B08D0029BAF2B05D9A2
:1010A000019B7F2B02D8009B002B02D10E48FFF73B
:1010B0002FFD029B243B039A1A44059BDA60059B93
:1010C000DB68009A1A60059BDB68089A5A60059BEA
:1010D000DB68064A1A6201990598FFF771FF03461B
:1010E000184607B05DF804FBD05D000891060008C3
:1010F00000B589B00590049103920293059B483393
:10110000FF2219460598FFF7A3FF059B03F148004E
:10111000059A049B134455221946FFF799FF202393
:1011200083F31188FFF7DCFB0A9B0093029B039A71
:1011300004990598FFF7A4FF079000210798FFF78F
:10114000B7FEFFF7E5FB002383F31188079B1846E2
:1011500009B05DF804FB00BF0000000000000000C3
:1011600000B583B00190019B002B02D10A48FFF724
:10117000CFFC202383F31188FFF7B2FB01990620EF
:10118000FFF766FEFFF7C4FB002383F3118800BF5F
:1011900003B05DF804FB00BF105E00080000000013
:1011A00000B583B00190202383F31188FFF798FBEB
:1011B000019800F005F800BF03B05DF804FB00BF24
:1011C00000B585B00190184BDB690393039B019A2E
:1011D0009A6208E0039B2C331846FFF7E1FE0346B2
:1011E0001846FFF785FD039BDA6A039B2C339A426E
:1011F000F0D1039B93F8213003F00303002B09D1B6
:10120000039B5B69039A12691A61039B1B69039A2A
:1012100052695A610E20FFF7A3FD0448FFF778FCDE
:1012200000BF05B05DF804FB7C0D0020205E0008C7
:1012300082B001900091019B009A1A60009B5A684D
:10124000019B5A60019B5B68009A01995160009A6A
:1012500052681A6000BF02B0704700BF0000000073
:1012600084B00190019B1B680393039B1A68019B48
:101270001A60019B1B68019A5A60039B184604B0D0
:10128000704700BF000000000000000000000000E8
:1012900000B583B001900091019B002B02D0009B10
:1012A000002B02DA0848FFF733FC019A019B5A60D1
:1012B000019B5A68019B1A60019B009A9A6000BFCB
:1012C00003B05DF804FB00BF605E00080000000092
:1012D00000B585B00190202383F31188FFF700FB50
:1012E000019800F00DF80390FFF712FB002383F341
:1012F0001188039B184605B05DF804FB0000000050
:1013000000B583B00190FFF7A3FB019B002B02D136
:101310001B48FFF7FDFB019B9B68002B04DB019B37
:101320001A68019B9A420BD0019B9B68002B04DA40
:10133000019B1A68019B9A4202D11248FFF7E8FB11
:10134000019B9B685A1E019B9A60019B9B68002B26
:1013500011DA0D4BDB69019A9A620B4BDB69019A3A
:1013600011461846FFF764FF0320FFF7F9FC064B10
:10137000DB699B6A00E00023184603B05DF804FBBC
:10138000945E0008A45E00087C0D002000000000B0
:1013900000B585B00190FFF743FB019B002B02D104
:1013A0001748FFF7B5FB019B9B68002B04DB019BF3
:1013B0001A68019B9A420BD0019B9B68002B04DAB0
:1013C000019B1A68019B9A4202D10E48FFF7A0FBCD
:1013D000019B9B685A1C019B9A60019B9B68002B98
:1013E0000ADC019B1846FFF73BFF0390039B00229A
:1013F0009A620398FFF77CFC00BF05B05DF804FB20
:101400000C5F0008205F00080000000000000000E2
:1014100084B001900091009B0393039B1B6803938E
:10142000039A009B9A4205D0039B9A68019B9B6894
:101430009A42F2D2019B039A1A60039B5A68019B5D
:101440005A60019B5B68039A01995160039A526844
:101450001A6000BF04B070470000000000000000E8
:1014600084B00190019B1B680393039B1A68019B46
:101470001A60019B1B68019A5A60039B184604B0CE
:10148000704700BF000000000000000000000000E6
:1014900082B00190019B5B68019A12681A60019BFF
:1014A0001B68019A52685A60019B184602B0704747
:1014B00000B583B00190019B002B02D10848FFF7D3
:1014C00027FB019A019B5A60019B5A68019B1A6095
:1014D000019B00229A6000BF03B05DF804FB00BFCF
:1014E000B05F0008000000000000000000000000E5
:1014F00000B583B00190202383F31188FFF7F0F942
:10150000019800F00DF8FFF703FA002383F3118828
:1015100000BF03B05DF804FB000000000000000005
:1015200000B585B001903C4BDB690293FFF790FA60
:10153000019B002B02D13948FFF7EAFA019B9B6817
:10154000002B5AD0019B9B68039334E0029B9A685E
:10155000039B9A60039B93F82030042B04D0052B47
:1015600011D0002B1AD02CE00398FFF791FF024610
:10157000039B9B6A19461046FFF74AFF039B9B6A31
:101580009B68039317E00398FFF782FF0246039BD3
:101590009B6A19461046FFF73BFF0BE0039B0122B5
:1015A00083F820200398FFF773FF03461846FFF7E0
:1015B0009FFB00BF05E0039B9A68029B9B689A42D1
:1015C000C4D3019B19460298FFF722FF029B019AA0
:1015D0009A620420FFF7C4FB019B9A68029B9A421F
:1015E00002D00F48FFF794FA029B1A6C019B9A42B3
:1015F0000DD00C48FFF78CFA09E0019B029A9A6023
:10160000029B1A6C019BDA60029B019A1A6400BF6C
:1016100005B05DF804FB00BF7C0D0020C05F000832
:10162000D05F0008E45F0008000000000000000038
:1016300000B587B0314BDB690393202383F3118816
:10164000FFF74EF9039B1B6C002B02D12C48FFF7D0
:101650005FFA039B1B6C9A68039B9A4202D029484D
:10166000FFF756FA039B1B6C0293029BDA68039BFD
:101670001A64029B1A68029B9A4232D0039B5B6CED
:101680000493039B1B6C059311E0059B1A68059B53
:101690009A4209D0059B1B689A68049B9A4203D919
:1016A000059B1B689B680493059BDB680593059B62
:1016B000002BEAD1039B049A9A60029B1846FFF71D
:1016C000CFFE0190029B019A9A60019B1A6C029BCB
:1016D000DA60019B029A1A6400210198FFF7E8FB87
:1016E00002E0029B00229A60FFF712F9002383F3C5
:1016F0001188029B184607B05DF804FB7C0D0020A2
:101700000C600008206000080000000000000000DD
:1017100000B583B001900091FFF782F9019B002B87
:1017200002D11648FFF7F4F9019BDA6B009B1A43CC
:10173000019BDA63019B93F82030082B06D1019BB3
:10174000DA6B019B9B6A1340002B0DD1019B93F830
:101750002030092B0ED1019BDA6B019B9B6A1A404A
:10176000019B9B6A9A4205D10198FFF7C1FA024694
:101770000023936200BF03B05DF804FB9C60000887
:1017800000B585B001900091FFF74AF9019B002B4D
:1017900002D10D48FFF7BCF9019B1B6803930BE0D6
:1017A000039B5868039B9A68009B13431946FFF7F5
:1017B000AFFF039B1B680393039A019B9A42EFD1EF
:1017C00000BF05B05DF804FBB06000080000000039
:1017D00082B001900091019B009A1A60009B5A68A8
:1017E000019B5A60019B5B68009A01995160009AC5
:1017F00052681A6000BF02B0704700BF00000000CE
:1018000084B00190019B1B680393039B1A68019BA2
:101810001A60019B1B68019A5A60039B184604B02A
:10182000704700BF00000000000000000000000042
:1018300000B583B001900091009B002B02D14FF0C6
:10184000FF330FE0094BDB69019A9A62074BDB69B2
:10185000019A11461846FFF7BBFF00990D20FFF7CC
:10186000F7FA0346184603B05DF804FB7C0D002030
:1018700084B00390029101920093039A039B5A60F3
:10188000039B5A68039B1A60039B00229A60039B88
:10189000029A5A61039B5A69039B9A61039B9A6956
:1018A000039BDA60029A019B1A44039B1A61039B13
:1018B000009ADA6100BF04B0704700BF000000006A
:1018C00000B583B001900B468DF80330FFF7A8F800
:1018D000019B5A69019B9B699A4206D1019B9B68B7
:1018E000002B02D06FF0030327E0019B9B685A1C7A
:1018F000019B9A60019B5B69591C019A51619DF89B
:1019000003201A70019B5A69019B1B699A4203D3F9
:10191000019BDA68019B5A61019B1A68019B9A42FC
:101920000AD0019B1846FFF76BFF03461846FFF7E6
:10193000DFF90246002393620023184603B05DF8E6
:1019400004FB00BF000000000000000000000000D9
:1019500000B585B001900091202383F31188FEF734
:10196000BFFF019BDB69002B13D0019BDB69019852
:1019700098470EE000990198FFF75AFF0390039BE8
:10198000002B06DAFEF7C4FF002383F31188039BC4
:1019900021E0019B9B68002BECD0019B9B685A1EA9
:1019A000019B9A60019B9B69591C019A91611B786C
:1019B0008DF80B30019B9A69019B1B699A4203D3F6
:1019C000019BDA68019B9A61FEF7A2FF002383F373
:1019D00011889DF80B30184605B05DF804FB00BF78
:1019E00000B587B00390029101920093039BDB69DD
:1019F000049300230593019B002B02D12948FFF794
:101A000087F8202383F31188FEF76AFF049B002BDD
:101A100011D0049B039898470DE000990398FFF7B5
:101A200007FF0346002B06D0FEF772FF002383F367
:101A30001188059B32E0039B9B68002BEDD0039B34
:101A40009B685A1E039B9A60029B5A1C0292039A3F
:101A50009269501C0399886112781A70039B9A69E5
:101A6000039B1B699A4203D3039BDA68039B9A6129
:101A7000FEF74EFF002383F31188059B0133059386
:101A8000019B013B0193019B002B01D1059B05E0CC
:101A9000202383F31188FEF723FFB7E7184607B02A
:101AA0005DF804FBF060000800000000000000008A
:101AB00084B00390029101920093039A039B5A60B1
:101AC000039B5A68039B1A60039B019A9A60039BCD
:101AD000029A5A61039B5A69039B9A61039B9A6914
:101AE000039BDA60029A019B1A44039B1A61039BD1
:101AF000009ADA6100BF04B0704700BF0000000028
:101B000000B587B003900B4601928DF80B3020236F
:101B100083F31188FEF7E4FE0EE001990398FFF7C6
:101B200087FE0590059B002B06DAFEF7F1FE0023E9
:101B300083F31188059B28E0039B9B68002BECD066
:101B4000039B9B685A1E039B9A60039B5B69591C0D
:101B5000039A51619DF80B201A70039B5A69039BED
:101B60001B699A4203D3039BDA68039B5A61039B68
:101B7000DB69002B03D0039BDB6903989847FEF7D2
:101B8000C7FE002383F311880023184607B05DF8D1
:101B900004FB00BF00000000000000000000000087
:101BA00000B585B00190FEF73BFF019B5A69019B90
:101BB0009B699A4206D1019B9B68002B02D06FF073
:101BC000020328E0019B9B685A1C019B9A60019BC1
:101BD0009B69591C019A91611B788DF80F30019B0C
:101BE0009A69019B1B699A4203D3019BDA68019BA6
:101BF0009A61019B1A68019B9A420AD0019B184680
:101C0000FFF7FEFD03461846FFF772F80246002371
:101C100093629DF80F30184605B05DF804FB00BFD5
:101C200000B587B00390029101920093039BDB699A
:101C3000049300230593019B002B02D12948FEF752
:101C400067FF202383F31188FEF74AFE0DE0009919
:101C50000398FFF7EDFD0346002B06D0FEF758FE74
:101C6000002383F31188059B38E0039B9B68002BBE
:101C7000EDD0039B9B685A1E039B9A60039B5B6994
:101C8000591C039A5161029A511C029112781A70E0
:101C9000039B5A69039B1B699A4203D3039BDA682F
:101CA000039B5A61049B002B02D0049B0398984726
:101CB000FEF72EFE002383F31188059B0133059365
:101CC000019B013B0193019B002B01D1059B05E08A
:101CD000202383F31188FEF703FEB7E7184607B009
:101CE0005DF804FB04610008000000000000000033
:101CF000074B073323F007031A46064B1A60064BBF
:101D000023F007031A46054B1A6000BF704700BF57
:101D1000581F00209C0D002000500020A00D002026
:101D200008B500F02DFD074802F02AF900F010F880
:101D300000F05EF800F01CF900F0C2FA02F0E8F9D9
:101D400000BF08BD80660008000000000000000021
:101D500008B500F01DFF00BF08BD00BF0000000077
:101D600082B00190019B01221A70019B00225A60EF
:101D700000BF02B0704700BF00000000000000007C
:101D800000B583B001900091019B002B02D0009B15
:101D9000002B02D11248FEF7BBFE202383F31188EB
:101DA000FEF79EFD019B1B78012B06D0019B1B7843
:101DB000022B02D00B48FEF7ABFE019B009A5A6043
:101DC000019800F0EDFE019B02221A70FEF7A0FDC3
:101DD000002383F3118800BF03B05DF804FB00BF4C
:101DE00020610008306100080000000000000000D1
:101DF00008B500F0EDFF00BF08BD00BF0000000007
:101E000082B00190019B01221A70019B00225A604E
:101E100000BF02B0704700BF0000000000000000DB
:101E200000B583B001900091019B002B02D0009B74
:101E3000002B02D11248FEF76BFE202383F311889A
:101E4000FEF74EFD019B1B78012B06D0019B1B78F2
:101E5000022B02D00B48FEF75BFE019B009A5A60F2
:101E6000019800F0E5FF019B02221A70FEF750FD79
:101E7000002383F3118800BF03B05DF804FB00BFAB
:101E8000C0610008CC6100080000000000000000F4
:101E900000B583B001900B46ADF80230202383F3E8
:101EA0001188FEF71DFDBDF802301946019800F0BB
:101EB0000FF8FEF72DFD002383F3118800BF03B058
:101EC0005DF804FB000000000000000000000000BE
:101ED00000B583B001900B46ADF80230FEF7A0FDCF
:101EE000019B002B02D10B48FEF712FE019B1B78D1
:101EF000022B02D00848FEF70BFE019B04221A7049
:101F0000BDF802301946019801F042F800BF03B055
:101F10005DF804FB2C620008446200080000000029
:101F200000B583B00190FEF77BFD019B002B02D131
:101F30000D48FEF7EDFD019B1B78022B0AD0019B9B
:101F40001B78032B06D0019B1B78042B02D007487B
:101F5000FEF7DEFD019B02221A70019801F040F8A5
:101F600000BF03B05DF804FB5C620008706200080B
:101F700008B501F0EDFC00BF08BD00BF0000000087
:101F800082B00190019B01221A70019B00225A60CD
:101F900000BF02B0704700BF00000000000000005A
:101FA00000B583B001900091019B002B02D0009BF3
:101FB000002B02D11448FEF7ABFD019B1B78012BCF
:101FC0000AD0019B1B78022B06D0019B1B78052BA6
:101FD00002D00E48FEF79CFD202383F31188FEF704
:101FE0007FFC019B009A5A60019801F0D1FC019B93
:101FF00002221A70FEF78CFC002383F3118800BFC5
:1020000003B05DF804FB00BFA0620008B0620008E6
:1020100000B58BB00790059204930B46ADF81A30CB
:10202000079B002B15D0BDF81A30002B11D0049B54
:10203000002B0ED0059B002B0BD00D9B002B05D049
:102040000D9B002B05D00C9B002B02D00E9B002B70
:1020500002D11C48FEF75CFD079B1B78022B02D0C7
:102060001948FEF755FD202383F31188FEF738FC4D
:10207000079B00229A60079B03221A70BDF81A1072
:102080000E9B02930D9B01930C9B0093049B059A5E
:10209000079801F00DFD0990099BB3F1FF3F03D1B3
:1020A000079B05221A7002E0079B02221A70FEF7B6
:1020B0002FFC002383F31188099B18460BB05DF8B1
:1020C00004FB00BFF062000810630008000000007D
:1020D00000B589B00590039202930B46ADF812301B
:1020E000202383F31188FEF7FBFB059B00229A60F7
:1020F000059B00221A70BDF812100B9B01930A9BDE
:102100000093029B039A059801F07AFD0790079BC4
:10211000B3F1FF3F03D1059B05221A7002E0059B36
:1021200002221A70FEF7F4FB002383F31188079B49
:10213000184609B05DF804FB000000000000000034
:1021400000B585B0039002910192039B03F130002A
:102150004FF0FF33019A0299FFF762FD03461846DC
:1021600005B05DF804FB00BF0000000000000000A7
:1021700000B585B0039002910192039B03F110001A
:102180004FF0FF33019A0299FFF72AFC03461846E5
:1021900005B05DF804FB00BF000000000000000077
:1021A00082B00190019B9B6B002B0CBF012300238D
:1021B000DBB2184602B070470000000000000000CB
:1021C00082B00190019B9B69002B0CBF012300236F
:1021D000DBB2184602B070470000000000000000AB
:1021E00000B585B003900B4601928DF80B30039B30
:1021F00030339DF80B10019A1846FFF781FC034617
:10220000184605B05DF804FB000000000000000067
:1022100000B583B001900091019B103300991846DE
:10222000FFF796FB0346184603B05DF804FB00BFBA
:1022300000B585B00390029101920093039B03F1D6
:102240003000009B019A0299FFF7EAFC034618460A
:1022500005B05DF804FB00BF0000000000000000B6
:1022600000B585B00390029101920093039B03F1A6
:102270001000009B019A0299FFF7B2FB0346184633
:1022800005B05DF804FB00BF000000000000000086
:1022900000B585B00190202383F31188FEF720FB61
:1022A000019B9B680393019B00229A60FEF730FB21
:1022B000002383F31188039B184605B05DF804FBE7
:1022C00008B501F045FE00BF08BD00BF00000000DA
:1022D00000B585B0039002910192039B124A1A60E7
:1022E000039B1A1D039B5A60039B00229A60039B69
:1022F00001221A73039B03F11000039B03F15001A9
:10230000029B4FF40072FFF7B3FA039B03F1300016
:10231000039B03F51471019B4FF40072FFF7C8FB98
:1023200000BF05B05DF804FBD065000800000000A8
:1023300000B583B001900B468DF80330FEF770FBBB
:10234000019B002B02D11748FEF7E2FB019B9B6922
:10235000002B0BD1019B9B6843F00402019B9A6008
:10236000019B043300211846FFF70AFA019B103342
:102370009DF8032011461846FFF7A2FA0346002BEA
:102380000BDA019B9B6843F08002019B9A60019BE2
:10239000043300211846FFF7F3F900BF03B05DF8DE
:1023A00004FB00BFA863000800000000000000005C
:1023B00000B583B0FEF7F4FA0D4B1B6803F00F0372
:1023C00001930B4B0F225A600A4B1B68002B06D05F
:1023D000084B1B68074A5268019910469847FEF758
:1023E000FFFAFEF7EDF800BF03B05DF804FB00BF95
:1023F00000000240A80D00200000000000000000C6
:1024000000B583B0FEF7CCFA0D4B1B681B0903F037
:102410000F0301930A4BF0225A600A4B9B68002B72
:1024200006D0084B9B68074AD26801991046984726
:10243000FEF7D6FAFEF7C4F800BF03B05DF804FB60
:1024400000000240A80D0020000000000000000075
:1024500000B583B0FEF7A4FA0E4B1B681B0A03F00D
:102460000F0301930B4B4FF470625A600A4B1B69C8
:10247000002B06D0084B1B69074A52690199104688
:102480009847FEF7ADFAFEF79BF800BF03B05DF882
:1024900004FB00BF00000240A80D00200000000067
:1024A00000B583B0FEF77CFA0E4B1B681B0B03F0E4
:1024B0000F0301930B4B4FF470425A600A4B9B6918
:1024C000002B06D0084B9B69074AD2690199104638
:1024D0009847FEF785FAFEF773F800BF03B05DF882
:1024E00004FB00BF00000240A80D00200000000017
:1024F00000B583B0FEF754FA0E4B1B681B0C03F0BB
:102500000F0301930B4B4FF470225A600A4B1B6A66
:10251000002B06D0084B1B6A074A526A01991046E5
:102520009847FEF75DFAFEF74BF800BF03B05DF881
:1025300004FB00BF00000240A80D002000000000C6
:1025400000B583B0FEF72CFA0E4B1B681B0D03F091
:102550000F0301930B4B4FF470025A600A4B9B6AB6
:10256000002B06D0084B9B6A074AD26A0199104695
:102570009847FEF735FAFEF723F800BF03B05DF881
:1025800004FB00BF00000240A80D00200000000076
:1025900000B583B0FEF704FA0E4B1B681B0E03F068
:1025A0000F0301930B4B4FF070625A600A4B1B6B89
:1025B000002B06D0084B1B6B074A526B0199104643
:1025C0009847FEF70DFAFDF7FBFF00BF03B05DF87B
:1025D00004FB00BF00000240A80D00200000000026
:1025E00082B0114B00221A600023019311E00F49C1
:1025F000019A13465B0013449B000B441B680022A6
:102600001A600B4A019B002142F83310019B0133F1
:102610000193019B062BEADD064B4FF0FF325A6017
:1026200000BF02B0704700BFA40D00200066000884
:10263000A80D002000000240000000000000000083
:1026400000B585B00390029101920093039B002B8B
:1026500002D12D48FEF75CFA039B5B7A1A460123F0
:1026600093401A46294B1B681340002B01D00123CD
:1026700045E0039B5B7A1946254A019B42F83130BD
:10268000039B5B7A224ADB001344009A5A60039B47
:102690005B7A1A46012393401A461C4B1B6813436E
:1026A0001A4A1360194B1B6803F07F03002B05D0F7
:1026B000184A184B5B6943F001035361039B1B6885
:1026C000039A1268126822F001021A60039B5B6889
:1026D000039A127A11460F228A401A60039B1B68E4
:1026E00000221A60019B002B08D0039B9B7A1A469C
:1026F000029B1B0119461046FDF7DAFF002318461E
:1027000005B05DF804FB00BFD0630008A40D0020F5
:10271000A80D002000100240000000000000000092
:10272000134A134B1B6843F480731360114B1B6AED
:1027300003F44073B3F5407F06D00E4B4FF4803264
:102740001A620C4B00221A620A4B1B6A03F4004304
:10275000002B0BD1074A074B1B6A43F440731362EB
:10276000044A044B1B6A43F40043136200BF7047E2
:102770000070004000100240000000000000000057
:1027800008B51C4B1B691B4B4FF0FF321A61194BEC
:1027900000221A61174BDB68164B4FF0FF32DA60EC
:1027A000144B0022DA60144B144A5A60124B002278
:1027B0009A60114B07221A60114A114BDB6843F0F3
:1027C0008073D3600F4A0F4B1B6843F00103136003
:1027D000084A084BDB6943F08053D361054A054B37
:1027E000DB6943F00063D361FFF79AFFFFF7F8FE60
:1027F00000BF08BD0010024010E000E07F32020080
:10280000F0ED00E0001000E000000000000000001B
:102810002F4A2F4B1B6843F00103136000BF2C4B62
:102820001B6803F00203002BF9D0294A284B1B68D0
:1028300003F0F9031360264B00225A6000BF244BBB
:102840005B6803F00C03002BF9D1214A204B1B6875
:1028500043F48033136000BF1D4B1B6803F4003347
:10286000002BF9D01A4A1A4B5B6A43F001035362FA
:1028700000BF174B5B6A03F00203002BF9D0144A28
:10288000134B5B6843F4E8135360114A104B1B6809
:1028900043F08073136000BF0D4B1B6803F000739F
:1028A000002BF9D00A4B0B4A5A600B4B12221A60CC
:1028B000074A074B5B6843F00203536000BF044BB9
:1028C0005B6803F00C03082BF9D100BF704700BF11
:1028D0000010024000641D000020024000000000C3
:1028E00008B5FEF75DF8074B01225A61064B5B689D
:1028F0005B68002104489847FEF772F8FDF760FE18
:1029000000BF08BD00040140E00D002000000000F1
:1029100008B5FEF745F8074B02225A61064B5B6883
:10292000DB68012104489847FEF75AF8FDF748FE96
:1029300000BF08BD00040140E00D002000000000C1
:1029400008B5FEF72DF8074B04225A61064B5B6869
:102950005B69022104489847FEF742F8FDF730FE14
:1029600000BF08BD00040140E00D00200000000091
:1029700008B5FEF715F8074B08225A61064B5B684D
:10298000DB69032104489847FEF72AF8FDF718FE93
:1029900000BF08BD00040140E00D00200000000061
:1029A00008B5FDF7FDFF074B10225A61064B5B6827
:1029B0005B6A042104489847FEF712F8FDF700FE11
:1029C00000BF08BD00040140E00D00200000000031
:1029D00000B583B0FDF7E4FF234B5B6903F4787324
:1029E0000193214A019B5361019B03F02003002BBB
:1029F00005D01E4B5B68DB6A05211C489847019B8C
:102A000003F04003002B05D0184B5B685B6B06217D
:102A100016489847019B03F08003002B05D0134B09
:102A20005B68DB6B072111489847019B03F48073B7
:102A3000002B05D00D4B5B685B6C08210B48984759
:102A4000019B03F40073002B05D0084B5B68DB6C23
:102A5000092106489847FDF7C3FFFDF7B1FD00BF08
:102A600003B05DF804FB00BF00040140E00D00204E
:102A700000B583B0FDF794FF284B5B6903F47C43FA
:102A80000193264A019B5361019B03F48063002B51
:102A900005D0234B5B685B6D0A2121489847019B59
:102AA00003F40063002B05D01D4B5B68DB6D0B212D
:102AB0001B489847019B03F48053002B05D0184B0B
:102AC0005B685B6E0C2116489847019B03F400532A
:102AD000002B05D0124B5B68DB6E0D211048984728
:102AE000019B03F48043002B05D00D4B5B685B6FAB
:102AF0000E210B489847019B03F40043002B05D09F
:102B0000074B5B68DB6F0F2105489847FDF768FFAF
:102B1000FDF756FD00BF03B05DF804FB0004014063
:102B2000E00D002000000000000000000000000098
:102B300008B5FDF735FF084B4FF480325A61074B5B
:102B40005B68D3F88430102104489847FDF748FFAC
:102B5000FDF736FD00BF08BD00040140E00D002078
:102B600008B5FDF71DFF084B4FF480225A61074B53
:102B70005B68D3F89430122104489847FDF730FF82
:102B8000FDF71EFD00BF08BD00040140E00D002060
:102B900008B50248FFF7E4F800BF08BDE00D0020CB
:102BA00000B589B00190019B1B78012B27D16021D2
:102BB0000620FDF77DFD60210720FDF779FD6021EE
:102BC0000820FDF775FD60210920FDF771FD6021EA
:102BD0000A20FDF76DFD60211720FDF769FD6021DA
:102BE0002820FDF765FD60210120FDF761FD6021D2
:102BF0002920FDF75DFD60212A20FDF759FD002306
:102C00000393039B0493049B0593059B0693002366
:102C1000079346E0019B5B68079A53F8323003F054
:102C20000403002B3AD0019B5A68079BDB00134436
:102C30005B68002B08D00122079B02FA03F31A46B7
:102C4000069B1343069307E00122079B02FA03F356
:102C50001A46059B13430593019B5B68079A53F83B
:102C6000323003F00103002B07D00122079B02FA48
:102C700003F31A46049B13430493019B5B68079A72
:102C800053F8323003F00203002B07D00122079BD8
:102C900002FA03F31A46039B13430393079B013382
:102CA0000793079B122BB5D9164A019B5B68B3F8B3
:102CB00098309360134A019B5B68B3F89A30D360F5
:102CC000104A019B5B68B3F89C3013610D4A019B6D
:102CD0005B68B3F89E3053610B4B00221A610A4ABD
:102CE000049B9360084A039BD360074B074A5A61D1
:102CF000054A059B5360044A069B136000BF09B058
:102D00005DF804FB0000014000040140FFFF0700E4
:102D100000B583B00190019BDB6800221A82019B01
:102D20001B78042B05D1019B02221A70019800F038
:102D300057F9019B5B685B680198984700BF03B037
:102D40005DF804FB0000000000000000000000002F
:102D500008B5FDF725FE0448FFF7DAFFFDF740FE52
:102D6000FDF72EFC00BF08BDE80D002000000000AC
:102D700008B5FDF715FE0448FFF7CAFFFDF730FE62
:102D8000FDF71EFC00BF08BDF80D0020000000008C
:102D900008B5FDF705FE0448FFF7BAFFFDF720FE72
:102DA000FDF70EFC00BF08BD080E0020000000006B
:102DB00008B5FDF7F5FD0448FFF7AAFFFDF710FE83
:102DC000FDF7FEFB00BF08BD180E0020000000004C
:102DD00008B50D4B0D4ADA600B48FFF711F80C4BA4
:102DE0004FF08042DA600A48FFF70AF8094B0A4AB6
:102DF000DA600848FFF704F8084B094ADA60074828
:102E0000FEF7FEFF00BF08BDE80D0020002C0140CA
:102E1000F80D0020080E002000040040180E0020CD
:102E2000000800400000000000000000000000005A
:102E300000B585B00190019B1B78012B67D1019BE8
:102E40004B4A934215D14B4A4A4B9B6943F400636A
:102E50009361484A474BDB6843F40063D360454BBA
:102E60000022DA6070211920FDF722FC019B424A02
:102E70009A60019B414A934215D13E4A3D4BDB6922
:102E800043F00103D3613B4A3A4B1B6943F0010312
:102E90001361384B00221A6170211C20FDF708FCD9
:102EA000019B354A9A60019B354A934215D1314ABC
:102EB000304BDB6943F00203D3612E4A2D4B1B6973
:102EC00043F0020313612B4B00221A6170211D2075
:102ED000FDF7EEFB019B284A9A60019B294A934229
:102EE00015D1244A234BDB6943F00403D361214A03
:102EF000204B1B6943F0040313611E4B00221A612F
:102F000070211E20FDF7D4FB019B1B4A9A60019B98
:102F10009A68019B5B681B68B2FBF3F39BB2013BB1
:102F2000ADF80E30BDF80E3001331A46019B5B68D8
:102F30001B6803FB02F2019B9B689A4202D0124875
:102F4000FDF7E6FD019BDB6800221A80019BDB6830
:102F500008229A80019BDB68BDF80E201A85019B30
:102F6000DB6800229A8100BF05B05DF804FB00BF5A
:102F7000E80D00200010024000A24A04F80D0020D5
:102F8000080E0020180E0020106400080000000049
:102F900082B001900B46ADF80230019BDB68BDF8B2
:102FA0000220013ADA62019BDB6801229A82019BCE
:102FB000DB6800225A62019BDB6800221A82019BB7
:102FC000DB6801229A81019BDB6805221A8000BF21
:102FD00002B0704700000000000000000000000088
:102FE00082B00190019BDB6800221A80019BDB68A4
:102FF00000221A82019BDB6800229A8100BF02B086
:10300000704700BF0000000000000000000000004A
:1030100084B00190019B1B6A0393039B4FF4004211
:103020001A80039B00221A80039B00229A80039B34
:1030300000229A82019BDB691B68019AD26912689F
:10304000126822F001021A60019BDB695B68019A39
:10305000D269127A11460F228A401A60019B9B693D
:103060001B68019A92691268126822F001021A60C4
:10307000019B9B695B68019A9269127A11460F2243
:103080008A401A6000BF04B0704700BF0000000013
:1030900000B585B00190019B0393039BDB68002B77
:1030A0000FD0039BDB6802930398FFF7B1FF039BEC
:1030B0000022DA60029B4FF0FF329A620298FDF71D
:1030C00017FE00BF05B05DF804FB00BF0000000064
:1030D00000B587B00190019B1B6A0493019B5B685C
:1030E0005B680393019B5B681B7A8DF80B30019B37
:1030F000002B06D0039B002B03DD039B664A934203
:1031000002DD6648FDF704FD049B9B889BB223F01B
:103110003F039AB2049B9A80049B9B889BB243F026
:1031200024039AB2049B9A800023ADF8163040F62F
:10313000FF73ADF81430039B594A934230DC9DF87D
:103140000B30012B02D05748FDF7E2FC039B5B00DC
:10315000554A92FBF3F103FB01F3D31A002B02D083
:103160005248FDF7D5FC039B5B004F4A92FBF3F3FB
:10317000ADF81430BDF81430032B02D84C48FDF7DD
:10318000C7FCBDF81430C3F30B039AB2BDF8163078
:1031900013439BB2ADF81630049B25221A846AE0D3
:1031A000039B444A934266DC9DF80B30022B06D009
:1031B0009DF80B30032B02D03F48FDF7A9FC9DF88A
:1031C0000B30022B18D1039A13465B001344364A86
:1031D00092FBF3F103FB01F3D31A002B02D0374823
:1031E000FDF796FC039A13465B0013442E4A92FBAC
:1031F000F3F3ADF8143025E09DF80B30032B21D10B
:10320000039A13469B0013449A001344264A92FBE8
:10321000F3F103FB01F3D31A002B02D02848FDF78A
:1032200077FC039A13469B0013449A0013441E4AEA
:1032300092FBF3F3ADF81430BDF8163043F480433D
:10324000ADF81630BDF81430002B02D11D48FDF743
:103250005FFCBDF81430C3F30B039AB2BDF816300F
:1032600013439BB26FEA43436FEA5343ADF8163002
:10327000049B0B221A84BDF81430B3F5805F02D38F
:103280001148FDF745FC049BBDF816209A8300BF4A
:1032900007B05DF804FB00BF00093D003064000882
:1032A000A0860100486400080051250260640008FF
:1032B00078640008801A060090640008A86400087A
:1032C000C0640008D8640008F06400080000000032
:1032D00086B00190019B1B6A0493019B5B681B787D
:1032E0008DF80F30049B1B88ADF816309DF80F3019
:1032F000022B0AD0032B15D0012B1AD1BDF81630A2
:1033000023F00A03ADF8163013E0BDF8163043F091
:103310000203ADF81630BDF8163023F00803ADF8FF
:10332000163006E0BDF8163043F00A03ADF816304B
:1033300000BF049BBDF816201A8000BF06B070477E
:1033400000B589B00190019B1B6A0693069B1B8BFD
:103350009BB20593069B9B8A9BB20793019B93F8B4
:103360002430002B40F0A380059B1A04079B1343D5
:1033700023F07F43914A934212D0B3F1031F03D24B
:103380008F4A934207D089E08E4A934231D08E4AC9
:10339000934241D082E0019B1A8A069B1A827DE00B
:1033A000069B9B889BB223F400739AB2069B9A807B
:1033B000019B9B691B68019A92691268126842F02E
:1033C00001021A60069B9B889BB243F480539AB219
:1033D000069B9A80019B9B691B685B68012B5CD8EC
:1033E000069B1B889BB223F480639AB2069B1A80CB
:1033F00053E0069B9B889BB223F400739AB2069B12
:103400009A80019BDB691B68019AD2691268126875
:1034100042F001021A6041E0019B9B691B685B68F6
:10342000002B0FD0019B1B8A43F001039AB2019B32
:103430001A82069B1B889BB243F4A0639AB2069B38
:103440001A80B7E0069B9B889BB223F400739AB264
:10345000069B9A80069B1B889BB243F400739AB22A
:10346000069B1A80202383F31188FDF769FA019BDC
:10347000DB68002B0BD0019BDB680493019B0022CF
:10348000DA60049B00229A620498FDF731FCFDF794
:103490006FFA002383F3118800E000BF079B03F05D
:1034A0000A03002B00F08680069B1B8B82E0079BA3
:1034B00003F00A03002B07D0069B9B8A9BB207935D
:1034C000069B1B8B9BB20593079B03F08003002B8D
:1034D00022D0202383F31188FDF732FA019BDB6AA7
:1034E000002B06D0019BDB6A1846FEF759FB03460A
:1034F00000E000230393FDF73BFA002383F31188D8
:10350000039B13F1030F04D0039B9BB2DBB29AB26F
:1035100000E00022069B1A82079B03F04003002B69
:103520001AD0069B1B8A9BB28DF80B30019B9B6ABD
:10353000002B11D0202383F31188FDF701FA019BA2
:103540009B6A9DF80B2011461846FEF7B9F9FDF766
:103550000FFA002383F31188079B03F01003002B5D
:1035600013D0019B1B6B002B03D0019B1B6B01989D
:103570009847069B9B8A9BB20793069B1B889BB22E
:1035800043F001039AB2069B1A80079B03F4806301
:10359000002B0FD0019B5B6B002B03D0019B5B6B5F
:1035A00001989847069B9B8A9BB223F480639AB24A
:1035B000069B9A8209B05DF804FB00BF020003007D
:1035C00001000300820007008400070000000000E3
:1035D00000B585B001900091019B1B6A0393009B8D
:1035E00003F00803002B01D0FCF79AFF019B9B69B5
:1035F0001B68019A92691268126822F001021A602F
:10360000019B9B695B68019A9269127A11460F22AD
:103610008A401A60019B93F82430002B31D1039B20
:103620009B889BB223F480539AB2039B9A80039B9E
:103630001B889BB223F480639AB2039B1A80039B7E
:103640001B889BB243F400739AB2039B1A80202319
:1036500083F31188FDF774F9019BDB68002B0BD015
:10366000019BDB680293019B0022DA60029B00222F
:103670009A620298FDF73CFBFDF77AF9002383F389
:10368000118800BF05B05DF804FB00BF000000001A
:1036900000B585B001900091019B1B6A0393009BCC
:1036A00003F00803002B01D0FCF73AFF019BDB6914
:1036B0001B68019AD2691268126822F001021A602E
:1036C000019BDB695B68019AD269127A11460F226D
:1036D0008A401A60039B9B889BB243F400739AB2A2
:1036E000039B9A8000BF05B05DF804FB000000005A
:1036F00000B587B00190019B1B6A0493202383F3DC
:103700001188FDF71DF9019BDB691B68019AD269DD
:103710001268126822F001021A60019BDB695B6883
:10372000019AD269127A11460F228A401A60019BCF
:103730009B691B68019A92691268126822F0010263
:103740001A60019B9B695B68019A9269127A114623
:103750000F228A401A60FDF70BF9002383F31188CA
:1037600000230593049B9B8A9BB203F48073002B78
:103770000BD0049B9B8A9BB223F480739AB2049B68
:103780009A82059B43F001030593049B9B8A9BB29D
:1037900003F40073002B0BD0049B9B8A9BB223F491
:1037A00000739AB2049B9A82059B43F0020305932F
:1037B000019B93F82430002B23D1049B9B8A9BB25E
:1037C00003F48063002B2CD0049B9B8A9BB223F4D0
:1037D00080639AB2049B9A82049B9B889BB223F4D9
:1037E00000739AB2049B9A80049B1B889BB243F49B
:1037F00000739AB2049B1A80059B43F0040305935F
:103800000FE0049B9B8A9BB223F480639AB2049BD3
:103810009A82019B5B6B002B03D0019B5B6B019831
:103820009847049B9B8A9BB203F40063002B0BD048
:10383000049B9B8A9BB223F400639AB2049B9A82F6
:10384000059B43F008030593049B9B8A9BB203F4FA
:103850008053002B0BD0049B9B8A9BB223F4805394
:103860009AB2049B9A82059B43F010030593049B34
:103870009B8A9BB203F48043002B0BD0049B9B8A52
:103880009BB223F480439AB2049B9A82059B43F037
:1038900020030593049B9B8A9BB29BB21BB2002B17
:1038A0000BDA049B9B8A9BB2C3F30E039AB2049B70
:1038B0009A82059B43F040030593059B002B1DD086
:1038C000019B059A9A60202383F31188FDF738F84D
:1038D000019BDB68002B0CD0019BDB680393019BF1
:1038E0000022DA60039B6FF001029A620398FDF7F1
:1038F000FFF9FDF73DF8002383F3118800BF07B0FF
:103900005DF804FB00000000000000000000000063
:1039100008B5FDF745F80448FFF712FDFDF760F81C
:10392000FCF74EFE00BF08BD280E0020000000007E
:1039300008B5FDF735F80448FFF7DAFEFDF750F853
:10394000FCF73EFE00BF08BD280E0020000000006E
:1039500008B50848FEF714FB064B0022DA60054B59
:10396000054A1A62034B054A9A61024B044ADA611E
:1039700000BF08BD280E0020005400404866000823
:103980003C6600080000000000000000000000008D
:1039900000B585B00190019B1B6A0393019B8A22AD
:1039A0005A61019B1B78012B3CD1019B394A934200
:1039B00038D1394A384B1B6943F400131361364B35
:1039C00000221A61019B9869019B344A0A21FEF783
:1039D00037FE0290029B002B02D03148FDF798F889
:1039E000019BD869019B2F4A0A21FEF729FE02900C
:1039F000029B002B02D02C48FDF78AF8264A264B62
:103A0000DB6943F40013D361A0211F20FCF750FEB3
:103A1000A0212020FCF74CFE019B5B6943F48052FF
:103A2000019B5A61019BDB691B68019A526942F054
:103A300010021A60019B9B691B68019A52691A6007
:103A4000019B9B691B68039A10329A60019BDB699A
:103A50001B68039A10329A60039B4FF400421A804D
:103A6000039B00221A80039B4FF410629A800198F6
:103A7000FFF72EFB0198FFF72BFC039B1B889BB2E3
:103A800043F001039AB2039B1A8000BF05B05DF8B2
:103A900004FB00BF280E002000100240D1350008B2
:103AA00008650008913600081C6500080000000049
:103AB00000B58BB00390019200930B46ADF80A302D
:103AC000039B1B6A09930D9B002B08D00D9B012BB8
:103AD00002D90C9B002B02D14648FDF719F80E9B2A
:103AE000B3F1FF3F05D004A8039B434A0E99FDF7AD
:103AF00037F8FCF70DFF002383F31188BDF80A3077
:103B00005B009AB2039B1A82039B00229A60039B7C
:103B1000DB691B68019ADA60039BDB691B68009A0A
:103B20005A60039B9B691B680C9ADA60039B9B6934
:103B30001B680D9A5A6013E0202383F31188FCF769
:103B4000CFFE0E9BB3F1FF3F05D0079B002B02D1A8
:103B50004FF0FF334AE0FCF7DBFE002383F31188CC
:103B6000099B1B8B9BB203F00203002BE4D1099B42
:103B70001B889BB203F40073002BDDD1202383F359
:103B80001188FCF7ADFE0E9BB3F1FF3F05D0079BFC
:103B9000002B02D14FF0FF3328E0039B002283F873
:103BA0002420099B9B889BB243F400739AB2099B23
:103BB0009A80099B1B889BB243F480739AB2099B3D
:103BC0001A800E4BDA69039BDA600220FDF7C8F811
:103BD0000E9BB3F1FF3F06D0079B002B03D004AB35
:103BE0001846FDF70DF8054BDB699B6A18460BB0CC
:103BF0005DF804FB54650008913000087C0D00203E
:103C000086B00390019200930B46ADF80A30039BF7
:103C10001B6A05932E4BDA69039BDA60059B1B8BAD
:103C20009BB203F00203002B06D1059B1B889BB2BD
:103C300003F40073002B02D04FF0FF3345E0BDF8D2
:103C40000A305B009AB2039B1A82039B00229A609F
:103C5000039B019A9A62039B069A1A63039B009A3C
:103C6000DA62039B079A5A63039B012283F824209C
:103C7000059B1B889BB223F480739AB2059B1A8024
:103C8000059B9B889BB223F400639AB2059B9A80A4
:103C9000BDF80A305B009BB2DBB29AB2059B1A8179
:103CA000059B9B889BB243F4C0639AB2059B9A80A4
:103CB000059B1B889BB243F480639AB2059B1A80D4
:103CC000034BDA69039BDA600023184606B070479D
:103CD0007C0D00200000000000000000000000003B
:103CE00000B585B001900B46ADF802300023039378
:103CF000BDF8023003F00803002B03D0039B43F010
:103D000080030393BDF8023003F00103002B03D0BE
:103D1000039B43F020030393BDF8023003F002033A
:103D2000002B03D0039B43F040030393BDF8023004
:103D300003F00403002B03D0039B43F4807303932D
:103D4000202383F31188FCF7FBFD019B9A68039BFA
:103D50001A43019B9A60019B043300211846FDF72A
:103D60000FFDFCF705FE002383F3118800BF05B0AB
:103D70005DF804FB000000000000000000000000EF
:103D800000B587B00190019BD3F850340593059B93
:103D90009B89ADF81230059B1B88ADF81030059B50
:103DA0009B88ADF80E30BDF8103003F00F03002BE8
:103DB00005D0BDF8103019460198FFF791FFBDF806
:103DC000103003F48073002B1DD0202383F311885F
:103DD000FCF7B6FD019B9B6843F40072019B9A605F
:103DE000019B043300211846FDF7CAFCFCF7C0FD17
:103DF000002383F31188059B1B889BB223F48073F7
:103E00009AB2059B1A80BDF8103003F02003002BF6
:103E100010D0202383F31188FCF792FDBDF80E30FB
:103E2000DBB219460198FEF783FAFCF7A1FD0023E7
:103E300083F31188BDF8123003F08003002B34D0D7
:103E4000BDF8103003F08003002B2ED0202383F325
:103E50001188FCF775FD019B30331846FDF7A0FE75
:103E60000290029B002B17DA019B9B6843F008022B
:103E7000019B9A60019B043300211846FDF780FCEA
:103E8000BDF8123023F0C0039BB243F040039BB255
:103E90009AB2059B9A8103E0029B9AB2059B9A8095
:103EA000FCF766FD002383F31188BDF8103003F0A2
:103EB0004003002B24D0202383F31188FCF740FD1E
:103EC000019B9B6843F01002019B9A60019B0433A5
:103ED00000211846FDF754FCFCF74AFD002383F34C
:103EE0001188BDF8123023F040039AB2059B9A81E5
:103EF000059B1B889BB223F040039AB2059B1A8056
:103F000000BF07B05DF804FB0000000000000000E7
:103F100082B00190054A054B9B899BB243F0800318
:103F20009BB2938100BF02B0704700BF00380140D0
:103F300008B5FCF735FD0448FFF722FFFCF750FDFC
:103F4000FCF73EFB00BF08BD600E00200000000033
:103F500008B5054A00210548FEF7BAF9034B044AA3
:103F6000C3F8502400BF08BD113F0008600E0020B8
:103F700000380140000000000000000000000000C8
:103F800082B00190224A224B9B6943F07D039361EA
:103F9000204A019B1B68D3601E4A019B9B685360AB
:103FA0001C4A019B5B6813601B4A019BDB68D36062
:103FB000194A019B5B695360174A019B1B69136097
:103FC000164A019B9B69D360144A019B1B6A53608C
:103FD000124A019BDB691360114A019B5B6AD36043
:103FE0000F4A019BDB6A53600D4A019B9B6A136079
:103FF0000C4A019B1B6BD3600A4A019B9B6B53606D
:10400000084A019B5B6B136000BF02B0704700BFA2
:104010000010024000080140000C01400010014067
:1040200000140140001801400000000000000000E2
:104030008AB0039002910192019B032B03D1039B51
:10404000029A1A6105E0019B042B02D1039B029A9C
:104050005A612A4A019B13441B7804930023069358
:10406000069B0793079B0893089B099300230593DE
:104070002DE0089B1B010893099B1B010993069BDC
:104080001B010693079B1B010793029B03F0800310
:10409000002B04D1089B43F00F03089303E0069A1A
:1040A000049B13430693029B03F40043002B04D1AB
:1040B000099B43F00F03099303E0079A049B134302
:1040C0000793029B5B000293059B01330593059BBD
:1040D000072BCED9039B5A68099B1A40079B1A43AA
:1040E000039B5A60039B1A68089B1A40069B1A435D
:1040F000039B1A6000BF0AB0704700BF60660008EB
:1041000008B5FEF785FB00BF08BD00BF000000003A
:1041100000BF704700000000000000000000000029
:1041200082B001900091064A137C43F0010313749E
:10413000034B1B68024A536000BF02B0704700BFC8
:10414000B412002000000000000000000000000089
:1041500082B001900091074A92F8303043F0010399
:1041600082F83030034B1B6A024A536200BF02B030
:10417000704700BFB41200200000000000000000E3
:1041800000B583B0019000914FF0FF3000F050FE79
:10419000202383F31188FCF7D3FB01F019FD0A48B3
:1041A000FDF7BEFE0948FDF7BBFE0948FDF7B8FE66
:1041B0000848FDF7B5FEFCF7DBFB002383F311880D
:1041C00000BF03B05DF804FBE80D0020F80D0020EF
:1041D000080E0020180E0020000000000000000063
:1041E00000B585B085498648FDF71AFE85498648A1
:1041F000FDF716FE85498648FDF712FE854986487B
:10420000FDF70EFE854B01225A61062201218348EB
:10421000FFF70EFF824B02225A61062202218048DC
:10422000FFF706FF7D4B4FF480425A6106224FF4A0
:1042300080417A48FFF7FCFE784B02225A61062241
:1042400002217648FFF7F4FE06224FF4006173481E
:10425000FFF7EEFE062210217148FFF7E9FE062265
:104260004FF480716E48FFF7E3FE06224FF40041E1
:104270006A48FFF7DDFE694B4FF480625A61684B74
:1042800040225A61664B80225A61644B4FF40052BF
:104290001A6106224FF480616048FFF7C9FE0622CA
:1042A00040215F48FFF7C4FE062280215C48FFF7EB
:1042B000BFFE06224FF400515848FFF7B9FE022214
:1042C00020215748FFF7B4FE02224FF48071534873
:1042D000FFF7AEFE02224FF480515048FFF7A8FED0
:1042E00000230C224F495048FDF7C2FA0023032255
:1042F0004E494F48FDF7BCFA02224FF4805147481F
:10430000FFF796FE022220214548FFF791FE022288
:1043100004214348FFF78CFE022208214048FFF7A2
:1043200087FE02224FF480713C48FFF781FE41492D
:104330004148FDF725FD00230093404B40224FF4F8
:104340000B613F48FCF7D4FE012000F059FD4FF00F
:10435000FF3000F03DFD012000F06AFD00230393D3
:1043600045E0384A039B5B01134400221A60354A3A
:10437000039B5B011344043300221A60314A039B00
:104380005B011344083300221A602E4A039B5B0131
:1043900013440C3300221A602A4A039B5B01134426
:1043A00003F1100213786FF300031370254A039B87
:1043B0005B01134403F1100213786FF34103137090
:1043C000204A039B5B01134403F1100213786FF33F
:1043D00082031370039B5B0110331A4A13440433A6
:1043E00001211846FCF754FF039B01330393039B01
:1043F000032BB6DD00BF05B05DF804FB6067000865
:10440000E80D002070670008F80D002080670008A4
:10441000080E002090670008180E0020000C0140D4
:1044200000080140541300203413002080130020A2
:1044300060130020C0660008E00D00205144000811
:1044400088130020B41200200000000000000000CB
:104450002DE9F0478EB0039008AB0C934FF0FF317D
:104460008B48FDF775FA0346DAB20C9B1A700C9B69
:104470005C1C4FF0FF318648FDF76AFA0346DBB259
:1044800023700C9B9C1C4FF0FF318148FDF760FAB4
:104490000346DBB223700C9BDC1C4FF0FF317C48E1
:1044A000FDF756FA0346DBB2237000230D933BE081
:1044B00008AA0D9B13441B785BB2002BCCBF0123D1
:1044C0000023D9B2734A0D9B5B01134403F1100220
:1044D000137861F38203137008AA0D9B13441B78B1
:1044E0005BB283EAE372A2EBE3726A490D9B5B0164
:1044F0000B4408331A60674A0D9B5B01134403F1B8
:104500001002137843F008031370624A0D9B5B019D
:10451000134410331B78C3F38003DBB2184600F05A
:104520009FFC0D9B01330D930D9B032BC0DD594B5D
:104530009B68584A926802FB03F2564B9B6A5549A6
:10454000896A01FB03F31A44524B9B6C5149896CF5
:1045500001FB03F31A444F4B9B6E4E49896E01FBDE
:1045600003F313440B930B9800F0F2FC0B900B9B9E
:1045700019464FEAE1720B461446DB1844EB04047B
:104580005B1844EB0204A60146EA93669D015B19A1
:1045900044EB06044FEA840848EA93789F003B46C0
:1045A00044465B1844EB02044FEA840A4AEA937AD1
:1045B0004FEA83094B4654465B1844EB0204620100
:1045C0000192019A42EAD36201925B010093DDE914
:1045D000003418462146304B1B684FEAE3741A46F4
:1045E0002346FBF785FD03460C460A9300230D93F3
:1045F00025E0284A0D9B5B01134408331B680A9A87
:1046000092FBF3F3DA0F13445B101946214A0D9B1A
:104610005B0113440C3319601E4A0D9B5B0113446C
:104620000C331B68022BB8BF02231A4619490D9B95
:104630005B010B440C331A600D9B01330D930D9BF2
:10464000032BD6DD012000F023FC1920FCF788FDA8
:10465000104B9B68002B02DD104B01221A610D4BA1
:104660009B6A002B02DD0E4B02221A61094B9B6CE8
:10467000002B03DD094B4FF480421A61054B9B6E02
:10468000002B02DD054B02221A6100230D9318E076
:1046900034130020B412002000080020000C014058
:1046A00000080140364A0D9B5B01134408331A6829
:1046B0000D9B9B000EA90B4443F8282C0D9B013346
:1046C0000D930D9B032BEDDD2D4B9B68002B06DD21
:1046D0002B4BDB689BB219462A48FDF7D9FB284BC8
:1046E0009B6A002B06DD264BDB6A9BB219462648E7
:1046F000FDF7CEFB224B9B6C002B06DD204BDB6CC9
:104700009BB219462148FDF7C3FB1D4B9B6E002B46
:1047100006DD1B4BDB6E9BB219461D48FDF7B8FB4F
:10472000049B002B02DD1B48FCF7D2FD059B002BF0
:1047300002DD1948FCF7CCFD069B002B02DD174873
:10474000FCF7C6FD079B002B02DD1548FCF7C0FDFA
:10475000202383F31188FCF7C3F8124B9B6809935D
:10476000099B032B05DC4FF0FF3000F091FB00F0BC
:10477000AFFBFCF7CDF8002383F311886CE600BF94
:10478000B4120020E80D0020F80D0020080E0020D3
:10479000180E0020C8120020E81200200813002084
:1047A0002813002034130020000000000000000047
:1047B00000B585B001902E4B0393039B1B7C03F047
:1047C0000803DBB2002B1ED0202383F31188FCF7F3
:1047D000B7F8039BDB689BB219462648FDF778FBC8
:1047E000FCF7C6F8002383F31188234B01225A619A
:1047F000039A137C6FF3C3031374039B9B685A1EC5
:10480000039B9A6030E0039B9B68002B19DD2023FB
:1048100083F31188FCF794F8039BDB689BB219467D
:104820001448FDF755FBFCF7A3F8002383F3118828
:10483000114B01221A61039A137C43F0080313748D
:1048400012E0202383F31188FCF77AF8039BDB69DD
:10485000002B04DC039B14331846FCF799FDFCF78E
:1048600087F8002383F3118800BF05B05DF804FBCF
:10487000B4120020E80D0020000C014000000000F0
:1048800000B585B001902E4B0393039B1B7C03F076
:104890000803DBB2002B1ED0202383F31188FCF722
:1048A0004FF8039BDB689BB219462648FDF710FBC7
:1048B000FCF75EF8002383F31188234B02225A6130
:1048C000039A137C6FF3C3031374039B9B685A1EF4
:1048D000039B9A6030E0039B9B68002B19DD20232B
:1048E00083F31188FCF72CF8039BDB689BB2194615
:1048F0001448FDF7EDFAFCF73BF8002383F3118829
:10490000114B02221A61039A137C43F008031374BB
:1049100012E0202383F31188FCF712F8039BDB6974
:10492000002B04DC039B14331846FCF731FDFCF725
:104930001FF8002383F3118800BF05B05DF804FB66
:10494000D4120020F80D00200008014000000000F3
:1049500000B585B001902F4B0393039B1B7C03F0A4
:104960000803DBB2002B1FD0202383F31188FBF751
:10497000E7FF039BDB689BB219462748FDF7A8FABF
:10498000FBF7F6FF002383F31188244B4FF480429A
:104990005A61039A137C6FF3C3031374039B9B68E0
:1049A0005A1E039B9A6031E0039B9B68002B1ADD23
:1049B000202383F31188FBF7C3FF039BDB689BB2C3
:1049C00019461548FDF784FAFBF7D2FF002383F35D
:1049D0001188124B4FF480421A61039A137C43F002
:1049E0000803137412E0202383F31188FBF7A8FF58
:1049F000039BDB69002B04DC039B14331846FCF794
:104A0000C7FCFBF7B5FF002383F3118800BF05B097
:104A10005DF804FBF4120020080E0020000C014099
:104A200000B585B001902E4B0393039B1B7C03F0D4
:104A30000803DBB2002B1ED0202383F31188FBF781
:104A40007FFF039BDB689BB219462648FDF740FABF
:104A5000FBF78EFF002383F31188234B02225A6158
:104A6000039A137C6FF3C3031374039B9B685A1E52
:104A7000039B9A6030E0039B9B68002B19DD202389
:104A800083F31188FBF75CFF039BDB689BB219463D
:104A90001448FDF71DFAFBF76BFF002383F3118821
:104AA000114B02221A61039A137C43F0080313741A
:104AB00012E0202383F31188FBF742FF039BDB699D
:104AC000002B04DC039B14331846FCF761FCFBF756
:104AD0004FFF002383F3118800BF05B05DF804FB8E
:104AE00014130020180E0020000C014000000000EC
:104AF00000B585B001900091019B002BCCBF012334
:104B00000023DBB20393202383F31188FBF7E8FE35
:104B1000074A039B5B011344009A1A60FBF7F8FEF7
:104B2000002383F3118800BF05B05DF804FB00BFCC
:104B3000B41200200000000000000000000000008F
:104B400000B585B0039002910192202383F3118870
:104B5000FBF7C6FE084A039B1360084A029B1360DA
:104B6000074A019B1360FBF7D3FE002383F31188F0
:104B700000BF05B05DF804FB000800200408002019
:104B800008080020000000000000000000000000F5
:104B900000B587B0039002910192039B002BCCBF1C
:104BA00001230023DBB20593059B5B01114A1344EB
:104BB0000493202383F31188FBF792FE019B002BC3
:104BC00003D0049B5A68019B1A60029B002B07D0FC
:104BD000049B1B7CC3F30003DBB21A46029B1A60E2
:104BE000FBF796FE002383F3118800BF07B05DF842
:104BF00004FB00BFB4120020000000000000000011
:104C000000B587B001900091019B002BCCBF012320
:104C10000023DBB20593059B5B010F4A1344049309
:104C2000202383F31188FBF75BFE049B1B7CC3F3FB
:104C30004003DBB20393009B002B03D0049B1A6854
:104C4000009B1A60FBF764FE002383F31188039B2B
:104C5000184607B05DF804FBB41200200000000005
:104C600000B587B00190019B002BCCBF012300232E
:104C7000DBB20593059B5B010A4A1344049320238E
:104C800083F31188FBF72CFE049B1B680393FBF74F
:104C90003FFE002383F31188039B184607B05DF89D
:104CA00004FB00BFB4120020000000000000000060
:104CB00000B583B0094B0193202383F31188FBF7E0
:104CC0000FFE00210198FCF7FBFDFBF721FE0023FE
:104CD00083F3118800BF03B05DF804FB601300206C
:104CE00000B585B00190202383F31188FBF7F8FD10
:104CF000354B9B680393039B032B5BDD019B1B7868
:104D00008DF80B309DF80B3019462F48FCF7D8FD75
:104D1000019B5B788DF80B309DF80B3019462A48C3
:104D2000FCF7CEFD019B9B788DF80B309DF80B3086
:104D300019462548FCF7C4FD019BDB788DF80B3044
:104D40009DF80B3019462048FCF7BAFD1F4A137C2A
:104D50006FF3000313741D4A137C43F002031374B2
:104D60001A4A92F830306FF3000382F83030174A55
:104D700092F8303043F0020382F83030134A92F850
:104D800050306FF3000382F85030104A92F85030E0
:104D900043F0020382F850300C4A92F870306FF3FF
:104DA000000382F87030094A92F8703043F0020331
:104DB00082F87030FBF7ACFD002383F3118800BF4D
:104DC00005B05DF804FB00BF34130020B4120020CE
:104DD00082B00190019B002B03DD054B40225A61FC
:104DE00002E0034B40221A6100BF02B0704700BFCF
:104DF000000801400000000000000000000000006A
:104E000082B00190019B002B03DD054B80225A618B
:104E100002E0034B80221A6100BF02B0704700BF5E
:104E20000008014000000000000000000000000039
:104E300082B00190019B002B04DD064B4FF4806291
:104E40005A6103E0034B4FF480621A6100BF02B065
:104E5000704700BF000C014000000000000000008F
:104E600082B00190019B002B04DD064B4FF40062E1
:104E70001A6103E0034B4FF400625A6100BF02B0B5
:104E8000704700BF000C014000000000000000005F
:104E900000B583B00190019B002B08DD094B4FF456
:104EA00000525A614FF0FF30FFF7AAFF06E00120E1
:104EB000FFF7A6FF034B4FF400521A6100BF03B087
:104EC0005DF804FB000C0140000000000000000041
:104ED00000B583B01C4B1B68DBB28DF800301A4B59
:104EE0001B681B12DBB28DF80130174B1B681B14BB
:104EF000DBB28DF80230144B1B681B16DBB28DF849
:104F00000330114B1B6ADBB28DF804300E4B1B6A69
:104F10001B12DBB28DF805300B4B1B6A1B14DBB286
:104F20008DF80630084B1B6A1B16DBB28DF8073074
:104F300000F01EFE6B461946082000F0D9FD00BFA8
:104F400003B05DF804FB00BFB412002000000000B5
:104F500086B00190019B0593019B0493019A059BE8
:104F600092FBF3F2059B13440393039BDA0F134464
:104F70005B101946039A154B1340002B03DA013BD3
:104F800063F0010301330B440593049A059B9A4295
:104F900002DD059B0493E1E7019A049B92FBF3F287
:104FA000049B013B9A420CD1019B049A93FBF2F2C1
:104FB000049901FB02F29B1A002B02D1049B013BD6
:104FC0000493049B184606B0704700BF01000080A0
:104FD00008B500F04DF800BF08BD00BF000000009C
:104FE00000B583B001900091019B002B02D0009B83
:104FF000002B02D10B48FBF78BFD202383F3118894
:10500000FBF76EFC0099019800F042F8019B022228
:105010001A70FBF77DFC002383F3118800BF03B0F7
:105020005DF804FB8065000800000000000000003F
:1050300000B583B00190019B002B02D10948FBF71A
:1050400067FD202383F31188FBF74AFC019800F0E9
:1050500047F8FBF75DFC002383F3118800BF03B022
:105060005DF804FB906500080000000000000000EF
:10507000034B01221A70024B024A5A6000BF70476C
:10508000381C00200030004000000000000000003C
:1050900084B001900091019B5B680393039B45F2F0
:1050A00055521A60009B9B781A46039B5A60009BDE
:1050B0001B88B3F5805F03D2009B1B881A4601E072
:1050C00040F6FF72039B9A60039B4AF6AA221A607D
:1050D000039B4CF6CC421A6000BF04B0704700BF7F
:1050E00082B00190019B5B684AF6AA221A6000BF59
:1050F00002B0704700000000000000000000000047
:1051000008B5FCF70DFEFBF74BFB00F0F1FB00F0E0
:10511000D7F8FFF765F8002000F01AFC00F008F956
:10512000FCE700BF000000000000000000000000DD
:1051300000B585B00190019B1B78002B14BF0123A3
:105140000023DBB203930398FFF78AFD0290029BD2
:10515000DBB2184600F03CFB029B1B12DBB2184688
:1051600000F036FB029B1B14DBB2184600F030FB4C
:10517000029B1B0EDBB2184600F02AFB00F050FB2E
:1051800000BF05B05DF804FB000000000000000057
:1051900000B587B00190019B1B788DF81730019BFB
:1051A0005B788DF81630019B9A1C9DF816109DF8BF
:1051B0001730184600F024FC0490049B002B02DBFF
:1051C000049BDBB203E0049BDBB25B42DBB28DF8F5
:1051D0000F309DF80F30184600F0FAFA00F020FB6F
:1051E00000BF07B05DF804FB0000000000000000F5
:1051F00000B587B00190019B1B788DF81630019B9C
:105200005B788DF815309DF815109DF81630019AD1
:10521000184600F045FC0490049B002B02DB049B25
:10522000DBB203E0049BDBB25B42DBB28DF80F30F4
:105230009DF80F30184600F0CBFA00238DF8173098
:105240000CE09DF81730019A13441B78184600F0C3
:10525000BFFA9DF8173001338DF817309DF81720ED
:105260009DF815309A42ECD300F0DAFA00BF07B08F
:105270005DF804FB000000000000000000000000DA
:1052800000B583B0019000F073FC00BF03B05DF87F
:1052900004FB00BF00000000000000000000000050
:1052A00000B585B00190019B1B788DF80F309DF8FB
:1052B0000F30184600F064FC00BF05B05DF804FB39
:1052C00000B583B00023202212491348FCF7D0FA1E
:1052D0000023202211491248FCF7CAFA114912484A
:1052E000FCF75EFE112240211048FEF7A1FE1122BC
:1052F00080210E48FEF79CFE0023019300230093BB
:10530000074B054A01210848FCF7E2FE00BF03B045
:105310005DF804FB801C0020C01C0020A01C0020A5
:10532000E01C0020A0670008280E0020000C0140AF
:1053300000B583B04FF0FF312048FCF709FB019026
:10534000019B8DF803301E4B1B78002B1FD19DF85D
:105350000330002B09D11B4B1B6819461A4800F07B
:1053600037F8184B00221A601DE09DF803305C2BC3
:1053700009D0144B1B685A1C12490A6012499DF847
:105380000320CA540FE00E4B01221A700BE00C4BA5
:1053900000221A700B4B1B685A1C0A490A600A4902
:1053A0009DF80320CA54074B1B68202BA8BF20235D
:1053B000044A136000BF03B05DF804FBC01C00206A
:1053C000001D0020041D0020401C002000000000E3
:1053D00000B587B001900091019B1B788DF81330C8
:1053E000019B013303939DF81330012B02D0022B54
:1053F00015D017E0002305930BE0059B039A134497
:1054000019780A4A059B13440A461A70059B013312
:105410000593009B5A1E059B9A42EEDC02E000F0C9
:1054200007F800BF00BF07B05DF804FB601C002058
:1054300000B583B00B4B5B78019310230093019A66
:10544000009B9A4201DA019B00E000230193064A87
:10545000019B52F823300548984700BF03B05DF820
:1054600004FB00BF401C00200C080020601C002032
:1054700000B589B00190114A03AB07CA83E8070061
:1054800003AB184600F004FC034606930023079381
:1054900009E003AA079B13441B78184600F098F90B
:1054A000079B01330793079A069B9A42F1DB00F0B2
:1054B000B7F900BF09B05DF804FB00BFA0650008A4
:1054C00000B589B00190114A03AB07CA03C31A8023
:1054D00003AB184600F0DCFB03460693002307935A
:1054E00009E003AA079B13441B78184600F070F9E3
:1054F000079B01330793079A069B9A42F1DB00F062
:105500008FF900BF09B05DF804FB00BFAC6500086F
:1055100000B585B001900E4A03AB126811461980A0
:105520000233120C1A709DF80C30184600F050F936
:105530009DF80D30184600F04BF900F071F9FA2093
:10554000FBF70EFE00F034FA00BF05B05DF804FB77
:10555000B865000800000000000000000000000026
:1055600000B583B00190019B1B78184600F0F0F95C
:1055700000BF03B05DF804FB000000000000000065
:1055800000B585B00190019B1B780393039BDBB2B0
:10559000184600F015FA00BF05B05DF804FB00BF27
:1055A00000B583B001900198FFF79AFB00BF03B0EC
:1055B0005DF804FB00000000000000000000000097
:1055C00000B583B00190FFF773FB00BF03B05DF837
:1055D00004FB00BF0000000000000000000000000D
:1055E00000B587B00190019B1B78002B14BF0123ED
:1055F0000023DBB2059303AB19460598FFF700FBC8
:105600000490049BDBB2184600F0E2F8039BDBB287
:10561000184600F0DDF8039B1B12DBB2184600F0C1
:10562000D7F8039B1B14DBB2184600F0D1F8039B9C
:105630001B0EDBB2184600F0CBF800F0F1F800BF0B
:1056400007B05DF804FB00BF000000000000000090
:1056500000B587B00190019B1B78002B14BF01237C
:105660000023DBB2059303AA04AB19460598FFF7A4
:105670008FFA049BDBB2184600F0AAF8039BDBB25A
:10568000184600F0A5F8039B1B12DBB2184600F089
:105690009FF8039B1B14DBB2184600F099F8039B9C
:1056A0001B0EDBB2184600F093F800F0B9F800BF0B
:1056B00007B05DF804FB00BF000000000000000020
:1056C00000B585B00190019B1B78002B14BF01230E
:1056D0000023DBB20393019B01331B780293019BF0
:1056E00002331B781B02029A13430293019B03337C
:1056F0001B781B04029A13430293019B04331B780B
:105700001B06029A1343029302990398FFF7F0F9DC
:1057100000BF05B05DF804FB0000000000000000C1
:1057200000B587B00190019B1B780593019B013365
:105730001B781B02059A13430593019B02331B78C8
:105740001B04059A13430593019B03331B781B0627
:10575000059A13430593019B04331B780493019B23
:1057600005331B781B02049A13430493019B0633F1
:105770001B781B04049A13430493019B07331B7883
:105780001B06049A13430493019B08331B7803936D
:10579000019B09331B781B02039A13430393019B5C
:1057A0000A331B781B04039A13430393019B0B33A7
:1057B0001B781B06039A13430393039A04990598D5
:1057C000FFF7BEF900BF07B05DF804FB0000000062
:1057D00000B583B003468DF807309DF80730002BE5
:1057E00003D09DF807305C2B05D14FF0FF325C21D0
:1057F0000748FCF785F99DF807304FF0FF3219464E
:105800000348FCF77DF900BF03B05DF804FB00BF5F
:10581000900E0020000000000000000000000000CA
:1058200008B54FF0FF3200210248FCF769F900BFCC
:1058300008BD00BF900E0020000000000000000026
:1058400000B583B001901F4BDB691F4A9A61FFF7D7
:10585000BFFB1E491E48FFF7C3FB1D48FFF7E8FBCF
:105860001C48FBF745FE1C4B1B681C4A13601B4B76
:105870001B6803F00103002B06D0194A184BDB68A4
:1058800083F48043D36003E0154B4FF480425A61A8
:10589000124B1B6803F00203002B06D0104A104B7A
:1058A000DB6883F40053D36003E00D4B4FF40052E8
:1058B0005A61FBF7BDFEFA20FBF752FC0448FFF7E4
:1058C000B7FBCDE77C0D0020C06500084C08002028
:1058D000381C0020081D0020181D0020D01E0020AC
:1058E0000010014000000000000000000000000067
:1058F00000B583B0114B4FF480425A610F4B4FF407
:1059000000525A6106224FF480410C48FEF790FB8A
:1059100006224FF400510948FEF78AFB0848FBF7BE
:10592000C7FD00230093074B40224FF4D87106486F
:10593000FBF7DEFB00BF03B05DF804FB0010014085
:10594000081D002041580008201D00200000000014
:1059500000B583B001900648FBF7CAFD054A019BDC
:105960001360FBF765FE00BF03B05DF804FB00BFEA
:10597000081D0020181D002000000000000000008D
:10598000BFF34F8F0549054BDB6803F4E062044B1E
:105990001343CB60BFF34F8FFEE700BF00ED00E085
:1059A0000400FA05000000000000000000000000F4
:1059B00008B5FFF7E5FF00BF08BD00BF000000000D
:1059C00000B583B003468DF80730202383F3118898
:1059D000FAF786FF9DF80730002B01D0012300E085
:1059E000022319460548FBF76BFFFAF791FF0023E6
:1059F00083F3118800BF03B05DF804FBD41E0020C0
:105A000000B58BB0034604928DF817300B468DF825
:105A100016301E4A9DF81730137000238DF827307A
:105A20000EE09DF8273001339DF8272004990A44A1
:105A30001178164AD1549DF8273001338DF827305C
:105A40009DF827209DF816309A42EAD37D230893CB
:105A50000F4B4FF400725A619DF8163001331A460D
:105A6000089B029300230193002300931346074AE7
:105A700050210848FCF7CCFA0790054B4FF4007210
:105A80001A61079B18460BB05DF804FBF41E00205A
:105A9000000C0140280E0020000000000000000063
:105AA00000B589B0034604928DF817300B468DF887
:105AB00016300C4A9DF8173013707D2307939DF81C
:105AC0001630079A02920193049B00930123054A22
:105AD00050210548FCF79CFA0690069B184609B031
