:020000040800F2
:100000000004002011010008E1010008E1010008DE
:10001000E1010008E1010008E1010008E101000838
:10002000E1010008E1010008E101000831020008D7
:10003000E1010008E1010008E101000801020008F7
:10004000E1010008D1260008E1010008E1010008F3
:10005000E1010008E101000881240008B124000842
:10006000E12400081125000841250008511F00085F
:10007000A11F0008F11F000841200008912000087E
:10008000E120000831210008E1010008E101000839
:10009000E1010008E1010008E10100087125000804
:1000A000E1010008F1280008E1010008E101000871
:1000B00011290008312900085129000811340008CD
:1000C00031340008E1010008E1010008E101000805
:1000D000E1010008E1390008E1010008E101000840
:0C00E00011260008E101000801270008BB
:1000F00000BF70470000000000000000000000008A
:10010000FEE700BF0000000000000000000000004B
:1001100072B6254C84F30988022484F31488BFF353
:100120006F8F224C224D04E023461C1D4FF05532A8
:100130001A60AC42F8D31F4C1B4D04E023461C1D33
:100140004FF055321A60AC42F8D303F061FD1A4DFE
:100150001A4C05E023461C1D2A46151D12681A601C
:10016000174B9C42F6D3174C174D03E023461C1D3A
:1001700000221A60AC42F9D3FFF7BAFF134C02E039
:10018000236898470434124B9C42F9D304F080FD55
:10019000104C02E02368984704340F4B9C42F9D37B
:1001A000FFF7AEFF00BF00BF0008002000000020E6
:1001B0000004002000040020006600080008002061
:1001C0005008002050080020D42E0020EC00000829
:1001D000EC000008EC000008EC0000080000000043
:1001E000FEE700BF0000000000000000000000006B
:1001F00072B6FEE7000000000000000000000000F2
:1002000008B500F065FA202383F3118800F030FA76
:1002100000F09EF900F044FA002383F3118800F007
:1002200077FA00F035F800BF08BD00BF00000000FD
:1002300082B0EFF309830193019B20330193019B6B
:1002400083F30988002383F3118800BF02B070474D
:1002500008B50A4B00229A60084B094ADA6010215F
:10026000072000F0FDF84FF400710A2000F0F8F8C4
:1002700080210B2000F0F4F800BF08BD00ED00E085
:100280000000FA050000000000000000000000006F
:1002900082B0202383F311881E4B5B6803F4006354
:1002A000002B31D0EFF309830193019B203B019395
:1002B000019B83F30988019B4FF08072DA61164B32
:1002C0009B69002B0BD0144B1B689A68124BDB699F
:1002D0009B689A428CBF01230023DBB20AE00E4BDD
:1002E0001B689A680C4BDB699B689A422CBF012300
:1002F0000023DBB2002B03D0019B084A9A6106E081
:10030000019B074A9A6102E0002383F3118802B03F
:10031000704700BF00ED00E07C0D002031030008B5
:100320003C03000800000000000000000000000086
:1003300000F06EF900F094FC00F082F900DF00BFDD
:1003400003460A462DE9F04FC2F80CD0D3F80CD082
:10035000BDE8F08F00BF00BF0000000000000000FB
:1003600008B500F06DF9002383F311882846A047F3
:1003700000F0AEFD00BF08BD00000000000000005E
:1003800010B485B001900091019BDB0003F01803CD
:100390000393194C019B9B081749019A9208C0329C
:1003A00051F82220FF20039900FA01F1C9431140BE
:1003B0000098039A00FA02F20A43C03344F823205B
:1003C0000D49019B5B09019A02F01F02012000FA0E
:1003D00002F2603341F823200749019B5B09019A2F
:1003E00002F01F02012000FA02F241F8232000BFB0
:1003F00005B010BC704700BF00E100E00000000045
:1004000010B485B00190019BDB0003F01803039347
:100410001049019B5B09019A02F01F02012000FABA
:1004200002F2203341F823200A48019B9B08094926
:10043000019A9208C03251F82220FF24039904FA4D
:1004400001F1C9430A40C03340F8232000BF05B082
:1004500010BC704700E100E0000000000000000058
:1004600010B485B001900091019B03F00303DB0001
:1004700003930D4C019B9B080B49019A920806328D
:1004800051F82220FF20039900FA01F1C9431140DD
:100490000098039A00FA02F20A43063344F8232034
:1004A00000BF05B010BC704700ED00E00000000088
:1004B00082B00190024BDB69024A9A61FEE700BFFD
:1004C0007C0D0020605C00080000000000000000BF
:1004D00000B583B0FFF7BCFE00F08AFA00F0C0F967
:1004E00001F0AEF900F064F94021124800F000FC80
:1004F0000246114BDA61104BDB69012283F82020A0
:100500000D4BDB690D4ADA6100F06AF8002383F3D2
:10051000118862B6084BDB69094A9A61002300938F
:10052000084B0122C021084800F07AFC00BF03B04C
:100530005DF804FB100900207C0D00200004002061
:10054000685C0008B10400085008002000000000AA
:1005500000B583B000F0FCF81D4B9B69002B04DD57
:100560001B4B9B69013B1A4A9361194BDB695A6A21
:1005700001325A62174BDB680133164AD360154BC0
:100580001B68144A93421FD0124B1B689A68013AA9
:100590009A6012E0019BDB680093019B0022DA6005
:1005A000019B1B680B4A5A60019B1B68094A136038
:1005B000019B1A69009B10469847064B1B680193E4
:1005C000019B9B68002BE5D000BF03B05DF804FBE6
:1005D0007C0D00206C0D00200000000000000000D9
:1005E00008B5064B1B68002B03D1054B1B68002B7D
:1005F00002D0044800F024F900BF08BD58090020CB
:100600005C090020805C0008000000000000000081
:1006100008B5084B1B68002B03D1074B1B68002B48
:1006200002D0064800F00CF9034B01221A6000BF0B
:1006300008BD00BF580900205C090020885C000844
:1006400008B5084B1B68002B03D1074B1B68002B18
:1006500002DC064800F0F4F8034B00221A6000BFE9
:1006600008BD00BF580900205C090020905C00080C
:1006700008B5084B1B68002B03DD074B1B68002BDC
:1006800002D0064800F0DCF8034B01221A6000BFDC
:1006900008BD00BF580900205C090020985C0008D4
:1006A00008B5084B1B68002B03DD074B1B68002BAC
:1006B00002DC064800F0C4F8034B00221A6000BFB9
:1006C00008BD00BF580900205C090020A05C00089C
:1006D00008B5202383F311880A4B1B68002B03DB2A
:1006E000094B1B68002B02D0084800F0A9F8054B05
:1006F0001B680133034A1360002383F3118800BF92
:1007000008BD00BF580900205C090020A85C000853
:1007100008B5202383F311880A4B1B68002B03DDE7
:10072000094B1B68002B02D0084800F089F8054BE4
:100730001B68013B034A1360002383F3118800BF49
:1007400008BD00BF580900205C090020B05C00080B
:1007500008B5064B1B68002B03DB054B1B68002B01
:1007600002DC044800F06CF800BF08BD5809002006
:100770005C090020B85C00080000000000000000D8
:1007800008B5064B1B68002B03D1054B1B68002BDB
:1007900002DC044800F054F800BF08BD58090020EE
:1007A0005C090020C05C00080000000000000000A0
:1007B000034B40221A60024B024A5A6000BF704746
:1007C000600900206809002000000000000000000F
:1007D00082B00190124B5B68124AD2681A60104BCB
:1007E0005B68114AD2695A600D4B5B68019A926A44
:1007F0009A600B4B5B68019A92F820201A73084BA1
:100800005B681033064A5360054B5B68074A9342A6
:1008100002D3034B064A5A6000BF02B0704700BFC4
:10082000600900206C0D00207C0D0020680D002068
:100830006809002000000000000000000000000027
:1008400000B583B00190044A019B1360FFF7D0FC10
:1008500000BF03B05DF804FB680D0020000000003D
:10086000074B074A5A60064B5B68054A1360044B06
:100870004FF0FF329A60024B0022DA6000BF7047EF
:100880006C0D0020000000000000000000000000CF
:1008900000B587B00390029101920093FFF758FFD3
:1008A000039B002B05D0019B002B02D0029B002B49
:1008B00002D11D48FFF7C4FF039B009A1A61039BF6
:1008C000019ADA60194B1B68059307E0059B9B684A
:1008D000029AD31A0293059B1B680593059B9A689D
:1008E000029B9A42F2D3039B059A1A60039B1B68F2
:1008F0005A68039B5A60039B5B68059A0399516091
:10090000059A52681A60039B029A9A60059B074AEF
:10091000934205D0059B9A68029BD21A059B9A6068
:1009200000BF07B05DF804FBD05C00086C0D002030
:1009300000B583B00190FFF70BFF019B002B02D1A4
:100940001448FFF77DFF019BDB68002B02D11248A2
:10095000FFF776FF019B1B68104A934208D0019B6A
:100960001B68019A12689168019A92680A449A6019
:10097000019B5B68019A12681A60019B1B68019ACF
:1009800052685A60019B0022DA6000BF03B05DF834
:1009900004FB00BFE05C0008F05C00086C0D002068
:1009A00084B00190019B1B680393039B1A68019B11
:1009B0001A60019B1B68019A5A60039B184604B099
:1009C000704700BF000000000000000000000000B1
:1009D00082B00190019B5B68019A12681A60019BCA
:1009E0001B68019A52685A60019B184602B0704712
:1009F0000A4B0A4A5A60094B5B68084A1360074B66
:100A000000229A60054B14229A61044B034A5A61F2
:100A1000024B5B69014A136100BF70477C0D0020E7
:100A200000B585B00190019B93F82030002B04D0D5
:100A3000019B93F820300E2B02D11348FFF700FFE3
:100A4000019B002283F82020104B0393039B1B681B
:100A50000393039B9A68019B9B689A42F6D2019B81
:100A6000039A1A60039B5A68019B5A60019B5B685A
:100A7000039A01995160039A52681A60019B1846C3
:100A800005B05DF804FB00BF105D00087C0D002080
:100A900000B585B003468DF80730FFF771FE164BA1
:100AA000DB690393039B9DF8072083F82020124BFA
:100AB00014229A611048FFF773FF02460E4BDA6169
:100AC0000D4BDB69012283F820200398FFF780FE9D
:100AD0006B46A3F12402039BDB699A4202D20748CA
:100AE000FFF7AEFE044BDB6903991846FFF728FCBD
:100AF00000BF05B05DF804FB7C0D0020245D0008FC
:100B000000B585B00190019B0393039B93F82030BF
:100B10000D2B27D801A252F823F000BF750B000857
:100B2000650B0008650B0008550B0008650B0008F5
:100B30005F0B0008650B0008650B0008650B0008DB
:100B4000650B0008650B0008650B0008650B0008C5
:100B50005F0B0008039B9B6A9A6801329A600398B6
:100B6000FFF736FF039B4FF0FF329A620398FFF7BF
:100B700057FF00E000BF05B05DF804FB0000000077
:100B800000B589B0034600918DF80730FFF7F8FDF6
:100B9000009BB3F1FF3F13D00F4BDB6903A80F4A53
:100BA0000099FFF775FE9DF807301846FFF770FFB4
:100BB000069B002B09D003AB1846FFF7B9FE04E0F3
:100BC0009DF807301846FFF763FF034BDB699B6A0C
:100BD000184609B05DF804FB7C0D0020010B0008ED
:100BE00000B585B001900091FFF7CAFD019B009A06
:100BF0009A62019B9A68174BDB699B689A4203D8FB
:100C00000198FFF70DFF20E0124BDB691846FFF754
:100C100007FF03900F4B14229A610E4A019BD36188
:100C2000019B012283F820200398FFF7D1FD6B463A
:100C3000A3F12402039BDB699A4202D20648FFF724
:100C4000FFFD03990198FFF77BFB00BF05B05DF83E
:100C500004FB00BF7C0D0020245D000800000000A4
:100C600000B583B0154B14229A61144BDB690193D4
:100C70001248FFF795FE0246104BDA610F4BDB6915
:100C8000012283F820200198FFF7CAFE0198FFF7A0
:100C90009FFD6B46A3F12402019BDB699A4202D2BD
:100CA0000748FFF7CDFD054BDB6901991846FFF7B3
:100CB00047FB00BF03B05DF804FB00BF7C0D0020C4
:100CC000245D00080000000000000000000000009B
:100CD00084B00190019B1B680393039B1A68019BDE
:100CE0001A60039B184604B0704700BF0000000064
:100CF00082B001900091019B009A9A60019B0222B0
:100D000083F82020019B002283F82120019B009A78
:100D10005A64019B00221A64019B0022DA63019B42
:100D200000225A62019B00229A61019B124A1A61B9
:100D3000114B5A69019B5A61019B5B690E49019AEB
:100D40004A610D4A52691A61019B03F12C02019B11
:100D5000DA62019B03F13002019B5A63019B5A6BDB
:100D6000019B1A63019B03F14802019BDA61019B1D
:100D7000184602B0704700BF7C0D00200000000044
:100D800084B00390029113468DF8073005E0039B71
:100D90005A1C03929DF807201A70039A029B9A42EC
:100DA000F5D300BF04B07047000000000000000051
:100DB00000B587B00390029101920093039B0593C5
:100DC000FFF7C6FC039B002B08D0029BAF2B05D975
:100DD000019B7F2B02D8009B002B02D10E48FFF70E
:100DE0002FFD029B243B039A1A44059BDA60059B66
:100DF000DB68009A1A60059BDB68089A5A60059BBD
:100E0000DB68064A1A6201990598FFF771FF0346ED
:100E1000184607B05DF804FB405D00086103000858
:100E200000B589B00590049103920293059B483365
:100E3000FF2219460598FFF7A3FF059B03F1480021
:100E4000059A049B134455221946FFF799FF202366
:100E500083F31188FFF7DCFB0A9B0093029B039A44
:100E600004990598FFF7A4FF079000210798FFF762
:100E7000B7FEFFF7E5FB002383F31188079B1846B5
:100E800009B05DF804FB00BF000000000000000096
:100E900000B583B00190019B002B02D10A48FFF7F7
:100EA000CFFC202383F31188FFF7B2FB01990620C2
:100EB000FFF766FEFFF7C4FB002383F3118800BF32
:100EC00003B05DF804FB00BF805D00080000000077
:100ED00000B583B00190202383F31188FFF798FBBE
:100EE000019800F005F800BF03B05DF804FB00BFF7
:100EF00000B585B00190184BDB690393039B019A01
:100F00009A6208E0039B2C331846FFF7E1FE034684
:100F10001846FFF785FD039BDA6A039B2C339A4240
:100F2000F0D1039B93F8213003F00303002B09D188
:100F3000039B5B69039A12691A61039B1B69039AFD
:100F400052695A610E20FFF7A3FD0448FFF778FCB1
:100F500000BF05B05DF804FB7C0D0020905D00082B
:100F600084B001900091009B0393039B1B68039343
:100F7000039A009B9A4205D0039B9A68019B9B6849
:100F80009A42F2D2019B039A1A60039B5A68019B12
:100F90005A60019B5B68039A01995160039A5268F9
:100FA0001A6000BF04B0704700000000000000009D
:100FB00084B00190019B1B680393039B1A68019BFB
:100FC0001A60019B1B68019A5A60039B184604B083
:100FD000704700BF0000000000000000000000009B
:100FE00082B00190019B5B68019A12681A60019BB4
:100FF0001B68019A52685A60019B184602B07047FC
:1010000000B583B00190019B002B02D10848FFF787
:1010100017FC019A019B5A60019B5A68019B1A6058
:10102000019B00229A6000BF03B05DF804FB00BF83
:10103000D05D00080000000000000000000000007B
:1010400000B583B00190202383F31188FFF7E0FA05
:10105000019800F00DF8FFF7F3FA002383F31188ED
:1010600000BF03B05DF804FB0000000000000000BA
:1010700000B585B001903C4BDB690293FFF780FB24
:10108000019B002B02D13948FFF7DAFB019B9B68DB
:10109000002B5AD0019B9B68039334E0029B9A6813
:1010A000039B9A60039B93F82030042B04D0052BFC
:1010B00011D0002B1AD02CE00398FFF791FF0246C5
:1010C000039B9B6A19461046FFF74AFF039B9B6AE6
:1010D0009B68039317E00398FFF782FF0246039B88
:1010E0009B6A19461046FFF73BFF0BE0039B01226A
:1010F00083F820200398FFF773FF03461846FFF795
:101100008FFC00BF05E0039B9A68029B9B689A4294
:10111000C4D3019B19460298FFF722FF029B019A54
:101120009A620420FFF7B4FC019B9A68029B9A42E2
:1011300002D00F48FFF784FB029B1A6C019B9A4276
:101140000DD00C48FFF77CFB09E0019B029A9A60E6
:10115000029B1A6C019BDA60029B019A1A6400BF21
:1011600005B05DF804FB00BF7C0D0020E05D0008C9
:10117000F05D0008045E00080000000000000000B0
:1011800000B587B0314BDB690393202383F31188CB
:10119000FFF73EFA039B1B6C002B02D12C48FFF794
:1011A0004FFB039B1B6C9A68039B9A4202D0294811
:1011B000FFF746FB039B1B6C0293029BDA68039BC1
:1011C0001A64029B1A68029B9A4232D0039B5B6CA2
:1011D0000493039B1B6C059311E0059B1A68059B08
:1011E0009A4209D0059B1B689A68049B9A4203D9CE
:1011F000059B1B689B680493059BDB680593059B17
:10120000002BEAD1039B049A9A60029B1846FFF7D1
:10121000CFFE0190029B019A9A60019B1A6C029B7F
:10122000DA60019B029A1A6400210198FFF7D8FC4A
:1012300002E0029B00229A60FFF702FA002383F388
:101240001188029B184607B05DF804FB7C0D002056
:101250002C5E0008405E0008000000000000000056
:1012600000B583B001900091FFF772FA019B002B4B
:1012700002D11648FFF7E4FA019BDA6B009B1A4390
:10128000019BDA63019B93F82030082B06D1019B68
:10129000DA6B019B9B6A1340002B0DD1019B93F8E5
:1012A0002030092B0ED1019BDA6B019B9B6A1A40FF
:1012B000019B9B6A9A4205D10198FFF7B1FB024658
:1012C0000023936200BF03B05DF804FBBC5E00081E
:1012D00000B585B001900091FFF73AFA019B002B11
:1012E00002D10D48FFF7ACFA019B1B6803930BE09A
:1012F000039B5868039B9A68009B13431946FFF7AA
:10130000AFFF039B1B680393039A019B9A42EFD1A3
:1013100000BF05B05DF804FBD05E000800000000CF
:1013200082B001900091019B009A1A60009B5A685C
:10133000019B5A60019B5B68009A01995160009A79
:1013400052681A6000BF02B0704700BF0000000082
:1013500084B00190019B1B680393039B1A68019B57
:101360001A60019B1B68019A5A60039B184604B0DF
:10137000704700BF000000000000000000000000F7
:1013800000B583B001900091009B002B02D14FF07B
:10139000FF330FE0094BDB69019A9A62074BDB6967
:1013A000019A11461846FFF7BBFF00990D20FFF781
:1013B000E7FB0346184603B05DF804FB7C0D0020F4
:1013C00084B00390029101920093039A039B5A60A8
:1013D000039B5A68039B1A60039B00229A60039B3D
:1013E000029A5A61039B5A69039B9A61039B9A690B
:1013F000039BDA60029A019B1A44039B1A61039BC8
:10140000009ADA6100BF04B0704700BF000000001E
:1014100000B583B001900B468DF80330FFF798F9C3
:10142000019B5A69019B9B699A4206D1019B9B686B
:10143000002B02D06FF0030327E0019B9B685A1C2E
:10144000019B9A60019B5B69591C019A51619DF84F
:1014500003201A70019B5A69019B1B699A4203D3AE
:10146000019BDA68019B5A61019B1A68019B9A42B1
:101470000AD0019B1846FFF76BFF03461846FFF79B
:10148000CFFA0246002393620023184603B05DF8AA
:1014900004FB00BF0000000000000000000000008E
:1014A00000B585B001900091202383F31188FFF7E8
:1014B000AFF8019BDB69002B13D0019BDB6901981E
:1014C00098470EE000990198FFF75AFF0390039B9D
:1014D000002B06DAFFF7B4F8002383F31188039B8F
:1014E00021E0019B9B68002BECD0019B9B685A1E5E
:1014F000019B9A60019B9B69591C019A91611B7821
:101500008DF80B30019B9A69019B1B699A4203D3AA
:10151000019BDA68019B9A61FFF792F8002383F33D
:1015200011889DF80B30184605B05DF804FB00BF2C
:1015300000B587B00390029101920093039BDB6991
:10154000049300230593019B002B02D12948FFF748
:1015500077F9202383F31188FFF75AF8049B002BB7
:1015600011D0049B039898470DE000990398FFF76A
:1015700007FF0346002B06D0FFF762F8002383F332
:101580001188059B32E0039B9B68002BEDD0039BE9
:101590009B685A1E039B9A60029B5A1C0292039AF4
:1015A0009269501C0399886112781A70039B9A699A
:1015B000039B1B699A4203D3039BDA68039B9A61DE
:1015C000FFF73EF8002383F31188059B0133059351
:1015D000019B013B0193019B002B01D1059B05E081
:1015E000202383F31188FFF713F8B7E7184607B0F5
:1015F0005DF804FB105F0008000000000000000020
:1016000084B00390029101920093039A039B5A6065
:10161000039B5A68039B1A60039B019A9A60039B81
:10162000029A5A61039B5A69039B9A61039B9A69C8
:10163000039BDA60029A019B1A44039B1A61039B85
:10164000009ADA6100BF04B0704700BF00000000DC
:1016500000B587B003900B4601928DF80B30202324
:1016600083F31188FEF7D4FF0EE001990398FFF78A
:1016700087FE0590059B002B06DAFEF7E1FF0023AD
:1016800083F31188059B28E0039B9B68002BECD01B
:10169000039B9B685A1E039B9A60039B5B69591CC2
:1016A000039A51619DF80B201A70039B5A69039BA2
:1016B0001B699A4203D3039BDA68039B5A61039B1D
:1016C000DB69002B03D0039BDB6903989847FEF787
:1016D000B7FF002383F311880023184607B05DF895
:1016E00004FB00BF0000000000000000000000003C
:1016F00000B585B00190FFF72BF8019B5A69019B5B
:101700009B699A4206D1019B9B68002B02D06FF027
:10171000020328E0019B9B685A1C019B9A60019B75
:101720009B69591C019A91611B788DF80F30019BC0
:101730009A69019B1B699A4203D3019BDA68019B5A
:101740009A61019B1A68019B9A420AD0019B184634
:10175000FFF7FEFD03461846FFF762F90246002335
:1017600093629DF80F30184605B05DF804FB00BF8A
:1017700000B587B00390029101920093039BDB694F
:10178000049300230593019B002B02D12948FFF706
:1017900057F8202383F31188FEF73AFF0DE00099F4
:1017A0000398FFF7EDFD0346002B06D0FEF748FF38
:1017B000002383F31188059B38E0039B9B68002B73
:1017C000EDD0039B9B685A1E039B9A60039B5B6949
:1017D000591C039A5161029A511C029112781A7095
:1017E000039B5A69039B1B699A4203D3039BDA68E4
:1017F000039B5A61049B002B02D0049B03989847DB
:10180000FEF71EFF002383F31188059B0133059328
:10181000019B013B0193019B002B01D1059B05E03E
:10182000202383F31188FEF7F3FEB7E7184607B0CD
:101830005DF804FB245F00080000000000000000C9
:10184000074B073323F007031A46064B1A60064B73
:1018500023F007031A46054B1A6000BF704700BF0C
:10186000D42E00209C0D002000500020A00D002050
:1018700008B500F055FD074802F00AF900F010F82D
:1018800000F05EF800F04CF900F0BAFA02F0C8F986
:1018900000BF08BDD0640008000000000000000088
:1018A00008B500F045FF00BF08BD00BF0000000004
:1018B00082B00190019B01221A70019B00225A60A4
:1018C00000BF02B0704700BF000000000000000031
:1018D00000B583B001900091019B002B02D0009BCA
:1018E000002B02D11248FEF7ABFF202383F31188AF
:1018F000FEF78EFE019B1B78012B06D0019B1B7807
:10190000022B02D00B48FEF79BFF019B009A5A6006
:10191000019800F015FF019B02221A70FEF790FE5D
:10192000002383F3118800BF03B05DF804FB00BF00
:10193000405F0008505F0008000000000000000049
:1019400008B501F015F800BF08BD00BF0000000099
:1019500082B00190019B01221A70019B00225A6003
:1019600000BF02B0704700BF000000000000000090
:1019700000B583B001900091019B002B02D0009B29
:10198000002B02D11248FEF75BFF202383F311885E
:10199000FEF73EFE019B1B78012B06D0019B1B78B6
:1019A000022B02D00B48FEF74BFF019B009A5A60B6
:1019B000019801F00DF8019B02221A70FEF740FE1B
:1019C000002383F3118800BF03B05DF804FB00BF60
:1019D000E05F0008EC5F000800000000000000006D
:1019E00000B583B00190019B002B02D11048FEF797
:1019F00027FF202383F31188FEF70AFE019B1B7843
:101A0000012B06D0019B1B78022B02D00948FEF760
:101A100017FF019801F08CF8019B01221A70FEF764
:101A20000FFE002383F3118800BF03B05DF804FBB1
:101A3000FC5F0008086000080000000000000000D3
:101A400000B583B001900B46ADF80230202383F33C
:101A50001188FEF7DDFDBDF802301946019800F04F
:101A60000FF8FEF7EDFD002383F3118800BF03B0EC
:101A70005DF804FB00000000000000000000000012
:101A800000B583B001900B46ADF80230FEF760FE62
:101A9000019B002B02D10B48FEF7D2FE019B1B7865
:101AA000022B02D00848FEF7CBFE019B04221A70DD
:101AB000BDF802301946019801F092F800BF03B05A
:101AC0005DF804FB4C600008646000080000000042
:101AD00000B583B00190FEF73BFE019B002B02D1C5
:101AE0000D48FEF7ADFE019B1B78022B0AD0019B2F
:101AF0001B78032B06D0019B1B78042B02D00748D0
:101B0000FEF79EFE019B02221A70019801F090F8E8
:101B100000BF03B05DF804FB7C6000089060000823
:101B200008B501F095FC00BF08BD00BF0000000033
:101B300082B00190019B01221A70019B00225A6021
:101B400000BF02B0704700BF0000000000000000AE
:101B500000B583B001900091019B002B02D0009B47
:101B6000002B02D11448FEF76BFE019B1B78012B62
:101B70000AD0019B1B78022B06D0019B1B78052BFA
:101B800002D00E48FEF75CFE202383F31188FEF797
:101B90003FFD019B009A5A60019801F079FC019B7E
:101BA00002221A70FEF74CFD002383F3118800BF58
:101BB00003B05DF804FB00BFC0600008D0600008FF
:101BC00000B58BB00790059204930B46ADF81A3020
:101BD000079B002B15D0BDF81A30002B11D0049BA9
:101BE000002B0ED0059B002B0BD00D9B002B05D09E
:101BF0000D9B002B05D00C9B002B02D00E9B002BC5
:101C000002D11C48FEF71CFE079B1B78022B02D05A
:101C10001948FEF715FE202383F31188FEF7F8FC20
:101C2000079B00229A60079B03221A70BDF81A10C6
:101C30000E9B02930D9B01930C9B0093049B059AB2
:101C4000079801F0B5FC0990099BB3F1FF3F03D160
:101C5000079B05221A7002E0079B02221A70FEF70A
:101C6000EFFC002383F31188099B18460BB05DF845
:101C700004FB00BF10610008306100080000000094
:101C800000B585B0039002910192039B03F13000EF
:101C90004FF0FF33019A0299FFF76AFD0346184699
:101CA00005B05DF804FB00BF00000000000000006C
:101CB00000B585B0039002910192039B03F11000DF
:101CC0004FF0FF33019A0299FFF732FC03461846A2
:101CD00005B05DF804FB00BF00000000000000003C
:101CE00082B00190019B9B6B002B0CBF0123002352
:101CF000DBB2184602B07047000000000000000090
:101D000082B00190019B9B69002B0CBF0123002333
:101D1000DBB2184602B0704700000000000000006F
:101D200000B585B003900B4601928DF80B30039BF4
:101D300030339DF80B10019A1846FFF789FC0346D3
:101D4000184605B05DF804FB00000000000000002C
:101D500000B583B001900091019B103300991846A3
:101D6000FFF79EFB0346184603B05DF804FB00BF77
:101D700000B585B00390029101920093039B03F19B
:101D80003000009B019A0299FFF7F2FC03461846C7
:101D900005B05DF804FB00BF00000000000000007B
:101DA00000B585B00390029101920093039B03F16B
:101DB0001000009B019A0299FFF7BAFB03461846F0
:101DC00005B05DF804FB00BF00000000000000004B
:101DD00000B585B00190202383F31188FEF718FC2D
:101DE000019B9B680393019B00229A60FEF728FCED
:101DF000002383F31188039B184605B05DF804FBAC
:101E000008B501F0FDFD00BF08BD00BF00000000E7
:101E100000B585B0039002910192039B124A1A60AB
:101E2000039B1A1D039B5A60039B00229A60039B2D
:101E300001221A73039B03F11000039B03F150016D
:101E4000029B4FF40072FFF7BBFA039B03F13000D3
:101E5000039B03F51471019B4FF40072FFF7D0FB55
:101E600000BF05B05DF804FB10640008000000002E
:101E700000B583B001900091019B002B02D1114865
:101E8000FEF7DEFC202383F31188FEF7C1FB019BE4
:101E90001B7B012B06D0019B1B7B022B02D00A4827
:101EA000FEF7CEFC0099019801F0C2FD019B0222D1
:101EB0001A73FEF7C5FB002383F3118800BF03B03C
:101EC0005DF804FB906100089C61000800000000C0
:101ED00000B583B001900B468DF80330FEF738FC57
:101EE000019B002B02D11748FEF7AAFC019B9B69BE
:101EF000002B0BD1019B9B6843F00402019B9A606D
:101F0000019B043300211846FFF7E2F9019B1033CF
:101F10009DF8032011461846FFF77AFA0346002B76
:101F20000BDA019B9B6843F08002019B9A60019B46
:101F3000043300211846FFF7CBF900BF03B05DF86A
:101F400004FB00BFC86100080000000000000000A2
:101F500000B583B0FEF7BCFB0D4B1B6803F00F030D
:101F600001930B4B0F225A600A4B1B68002B06D0C3
:101F7000084B1B68074A5268019910469847FEF7BC
:101F8000C7FBFEF785F900BF03B05DF804FB00BF97
:101F900000000240A80D002000000000000000002A
:101FA00000B583B0FEF794FB0D4B1B681B0903F0D3
:101FB0000F0301930A4BF0225A600A4B9B68002BD7
:101FC00006D0084B9B68074AD2680199104698478B
:101FD000FEF79EFBFEF75CF900BF03B05DF804FB63
:101FE00000000240A80D00200000000000000000DA
:101FF00000B583B0FEF76CFB0E4B1B681B0A03F0A9
:102000000F0301930B4B4FF470625A600A4B1B692C
:10201000002B06D0084B1B69074A526901991046EC
:102020009847FEF775FBFEF733F900BF03B05DF884
:1020300004FB00BF00000240A80D002000000000CB
:1020400000B583B0FEF744FB0E4B1B681B0B03F07F
:102050000F0301930B4B4FF470425A600A4B9B697C
:10206000002B06D0084B9B69074AD269019910469C
:102070009847FEF74DFBFEF70BF900BF03B05DF884
:1020800004FB00BF00000240A80D0020000000007B
:1020900000B583B0FEF71CFB0E4B1B681B0C03F056
:1020A0000F0301930B4B4FF470225A600A4B1B6ACB
:1020B000002B06D0084B1B6A074A526A019910464A
:1020C0009847FEF725FBFEF7E3F800BF03B05DF885
:1020D00004FB00BF00000240A80D0020000000002B
:1020E00000B583B0FEF7F4FA0E4B1B681B0D03F02E
:1020F0000F0301930B4B4FF470025A600A4B9B6A1B
:10210000002B06D0084B9B6A074AD26A01991046F9
:102110009847FEF7FDFAFEF7BBF800BF03B05DF885
:1021200004FB00BF00000240A80D002000000000DA
:1021300000B583B0FEF7CCFA0E4B1B681B0E03F004
:102140000F0301930B4B4FF070625A600A4B1B6BED
:10215000002B06D0084B1B6B074A526B01991046A7
:102160009847FEF7D5FAFEF793F800BF03B05DF885
:1021700004FB00BF00000240A80D0020000000008A
:1021800082B0114B00221A600023019311E00F4925
:10219000019A13465B0013449B000B441B6800220A
:1021A0001A600B4A019B002142F83310019B013356
:1021B0000193019B062BEADD064B4FF0FF325A607C
:1021C00000BF02B0704700BFA40D002040640008AB
:1021D000A80D0020000002400000000000000000E8
:1021E00000B585B00390029101920093039B002BF0
:1021F00002D12D48FEF724FB039B5B7A1A4601238C
:1022000093401A46294B1B681340002B01D0012331
:1022100045E0039B5B7A1946254A019B42F8313021
:10222000039B5B7A224ADB001344009A5A60039BAB
:102230005B7A1A46012393401A461C4B1B681343D2
:102240001A4A1360194B1B6803F07F03002B05D05B
:10225000184A184B5B6943F001035361039B1B68E9
:10226000039A1268126822F001021A60039B5B68ED
:10227000039A127A11460F228A401A60039B1B6848
:1022800000221A60019B002B08D0039B9B7A1A4600
:10229000029B1B0119461046FEF772F800231846F0
:1022A00005B05DF804FB00BFF0610008A40D00203C
:1022B000A80D0020001002400000000000000000F7
:1022C000134A134B1B6843F480731360114B1B6A52
:1022D00003F44073B3F5407F06D00E4B4FF48032C9
:1022E0001A620C4B00221A620A4B1B6A03F4004369
:1022F000002B0BD1074A074B1B6A43F44073136250
:10230000044A044B1B6A43F40043136200BF704746
:1023100000700040001002400000000000000000BB
:1023200008B51C4B1B691B4B4FF0FF321A61194B50
:1023300000221A61174BDB68164B4FF0FF32DA6050
:10234000144B0022DA60144B144A5A60124B0022DC
:102350009A60114B07221A60114A114BDB6843F057
:102360008073D3600F4A0F4B1B6843F00103136067
:10237000084A084BDB6943F08053D361054A054B9B
:10238000DB6943F00063D361FFF79AFFFFF7F8FEC4
:1023900000BF08BD0010024010E000E07F320200E4
:1023A000F0ED00E0001000E0000000000000000080
:1023B0002F4A2F4B1B6843F00103136000BF2C4BC7
:1023C0001B6803F00203002BF9D0294A284B1B6835
:1023D00003F0F9031360264B00225A6000BF244B20
:1023E0005B6803F00C03002BF9D1214A204B1B68DA
:1023F00043F48033136000BF1D4B1B6803F40033AC
:10240000002BF9D01A4A1A4B5B6A43F0010353625E
:1024100000BF174B5B6A03F00203002BF9D0144A8C
:10242000134B5B6843F4E8135360114A104B1B686D
:1024300043F08073136000BF0D4B1B6803F0007303
:10244000002BF9D00A4B0B4A5A600B4B12221A6030
:10245000074A074B5B6843F00203536000BF044B1D
:102460005B6803F00C03082BF9D100BF704700BF75
:102470000010024000641D00002002400000000027
:1024800008B5FEF725F9074B01225A61064B5B6838
:102490005B68002104489847FEF73AF9FDF7F8FE1B
:1024A00000BF08BD00040140E00D00200000000056
:1024B00008B5FEF70DF9074B02225A61064B5B681F
:1024C000DB68012104489847FEF722F9FDF7E0FE9A
:1024D00000BF08BD00040140E00D00200000000026
:1024E00008B5FEF7F5F8074B04225A61064B5B6806
:1024F0005B69022104489847FEF70AF9FDF7C8FE18
:1025000000BF08BD00040140E00D002000000000F5
:1025100008B5FEF7DDF8074B08225A61064B5B68E9
:10252000DB69032104489847FEF7F2F8FDF7B0FE97
:1025300000BF08BD00040140E00D002000000000C5
:1025400008B5FEF7C5F8074B10225A61064B5B68C9
:102550005B6A042104489847FEF7DAF8FDF798FE15
:1025600000BF08BD00040140E00D00200000000095
:1025700000B583B0FEF7ACF8234B5B6903F47873C6
:102580000193214A019B5361019B03F02003002B1F
:1025900005D01E4B5B68DB6A05211C489847019BF0
:1025A00003F04003002B05D0184B5B685B6B0621E2
:1025B00016489847019B03F08003002B05D0134B6E
:1025C0005B68DB6B072111489847019B03F480731C
:1025D000002B05D00D4B5B685B6C08210B489847BE
:1025E000019B03F40073002B05D0084B5B68DB6C88
:1025F000092106489847FEF78BF8FDF749FE00BF12
:1026000003B05DF804FB00BF00040140E00D0020B2
:1026100000B583B0FEF75CF8284B5B6903F47C439C
:102620000193264A019B5361019B03F48063002BB5
:1026300005D0234B5B685B6D0A2121489847019BBD
:1026400003F40063002B05D01D4B5B68DB6D0B2191
:102650001B489847019B03F48053002B05D0184B6F
:102660005B685B6E0C2116489847019B03F400538E
:10267000002B05D0124B5B68DB6E0D21104898478C
:10268000019B03F48043002B05D00D4B5B685B6F0F
:102690000E210B489847019B03F40043002B05D003
:1026A000074B5B68DB6F0F2105489847FEF730F852
:1026B000FDF7EEFD00BF03B05DF804FB0004014030
:1026C000E00D0020000000000000000000000000FD
:1026D00008B5FDF7FDFF084B4FF480325A61074BF8
:1026E0005B68D3F88430102104489847FEF710F84F
:1026F000FDF7CEFD00BF08BD00040140E00D002045
:1027000008B5FDF7E5FF084B4FF480225A61074BEF
:102710005B68D3F89430122104489847FDF7F8FF1E
:10272000FDF7B6FD00BF08BD00040140E00D00202C
:1027300008B50248FFF7BCF800BF08BDE00D002057
:1027400000B589B00190019B1B78012B27D1602136
:102750000620FDF715FE60210720FDF711FE602120
:102760000820FDF70DFE60210920FDF709FE60211C
:102770000A20FDF705FE60211720FDF701FE60210C
:102780002820FDF7FDFD60210120FDF7F9FD602106
:102790002920FDF7F5FD60212A20FDF7F1FD00233A
:1027A0000393039B0493049B0593059B06930023CB
:1027B000079346E0019B5B68079A53F8323003F0B9
:1027C0000403002B3AD0019B5A68079BDB0013449B
:1027D0005B68002B08D00122079B02FA03F31A461C
:1027E000069B1343069307E00122079B02FA03F3BB
:1027F0001A46059B13430593019B5B68079A53F8A0
:10280000323003F00103002B07D00122079B02FAAC
:1028100003F31A46049B13430493019B5B68079AD6
:1028200053F8323003F00203002B07D00122079B3C
:1028300002FA03F31A46039B13430393079B0133E6
:102840000793079B122BB5D9164A019B5B68B3F817
:1028500098309360134A019B5B68B3F89A30D36059
:10286000104A019B5B68B3F89C3013610D4A019BD1
:102870005B68B3F89E3053610B4B00221A610A4A21
:10288000049B9360084A039BD360074B074A5A6135
:10289000054A059B5360044A069B136000BF09B0BC
:1028A0005DF804FB0000014000040140FFFF070049
:1028B00000B583B00190019BDB6800221A82019B66
:1028C0001B78042B05D1019B02221A70019800F09D
:1028D000AFF9019B5B685B680198984700BF03B044
:1028E0005DF804FB00000000000000000000000094
:1028F00008B5FDF7EDFE0448FFF7DAFFFDF708FF26
:10290000FDF7C6FC00BF08BDE80D00200000000078
:1029100008B5FDF7DDFE0448FFF7CAFFFDF7F8FE36
:10292000FDF7B6FC00BF08BDF80D00200000000058
:1029300008B5FDF7CDFE0448FFF7BAFFFDF7E8FE46
:10294000FDF7A6FC00BF08BD080E00200000000037
:1029500008B5FDF7BDFE0448FFF7AAFFFDF7D8FE56
:10296000FDF796FC00BF08BD180E00200000000017
:1029700008B50D4B0D4ADA600B48FEF7E9FF0C4B2A
:102980004FF08042DA600A48FEF7E2FF094B0A4A3C
:10299000DA600848FEF7DCFF084B094ADA600748AE
:1029A000FEF7D6FF00BF08BDE80D0020002C014057
:1029B000F80D0020080E002000040040180E002032
:1029C00000080040000000000000000000000000BF
:1029D00000B585B00190019B1B78012B67D1019B4D
:1029E0004B4A934215D14B4A4A4B9B6943F40063CF
:1029F0009361484A474BDB6843F40063D360454B1F
:102A00000022DA6070211920FDF7BAFC019B424ACE
:102A10009A60019B414A934215D13E4A3D4BDB6986
:102A200043F00103D3613B4A3A4B1B6943F0010376
:102A30001361384B00221A6170211C20FDF7A0FCA5
:102A4000019B354A9A60019B354A934215D1314A20
:102A5000304BDB6943F00203D3612E4A2D4B1B69D7
:102A600043F0020313612B4B00221A6170211D20D9
:102A7000FDF786FC019B284A9A60019B294A9342F4
:102A800015D1244A234BDB6943F00403D361214A67
:102A9000204B1B6943F0040313611E4B00221A6193
:102AA00070211E20FDF76CFC019B1B4A9A60019B64
:102AB0009A68019B5B681B68B2FBF3F39BB2013B16
:102AC000ADF80E30BDF80E3001331A46019B5B683D
:102AD0001B6803FB02F2019B9B689A4202D01248DA
:102AE000FDF7AEFE019BDB6800221A80019BDB68CC
:102AF00008229A80019BDB68BDF80E201A85019B95
:102B0000DB6800229A8100BF05B05DF804FB00BFBE
:102B1000E80D00200010024000A24A04F80D002039
:102B2000080E0020180E002030620008000000008F
:102B300000B583B00190019B1B78022B3FD1019B14
:102B4000DB6800221A80019BDB6800229A81019BCE
:102B5000DB6800221A82019B1B4A934208D119208C
:102B6000FDF74EFC194A194B9B6923F400639361EE
:102B7000019B174A934208D11C20FDF741FC134AE0
:102B8000124BDB6923F00103D361019B114A93428D
:102B900008D11D20FDF734FC0C4A0C4BDB6923F0F7
:102BA0000203D361019B0C4A934208D11E20FDF71A
:102BB00027FC064A054BDB6923F00403D36100BF01
:102BC00003B05DF804FB00BFE80D002000100240D8
:102BD000F80D0020080E0020180E00200000000054
:102BE00082B001900B46ADF80230019BDB68BDF866
:102BF0000220013ADA62019BDB6801229A82019B82
:102C0000DB6800225A62019BDB6800221A82019B6A
:102C1000DB6801229A81019BDB6805221A8000BFD4
:102C200002B070470000000000000000000000003B
:102C300082B00190019BDB6800221A80019BDB6857
:102C400000221A82019BDB6800229A8100BF02B039
:102C5000704700BF000000000000000000000000FE
:102C600084B00190019B1B6A0393039B4FF40042C5
:102C70001A80039B00221A80039B00229A80039BE8
:102C800000229A82019BDB691B68019AD269126853
:102C9000126822F001021A60019BDB695B68019AED
:102CA000D269127A11460F228A401A60019B9B69F1
:102CB0001B68019A92691268126822F001021A6078
:102CC000019B9B695B68019A9269127A11460F22F7
:102CD0008A401A6000BF04B0704700BF00000000C7
:102CE00000B585B00190019B0393039BDB68002B2B
:102CF0000FD0039BDB6802930398FFF7B1FF039BA0
:102D00000022DA60029B4FF0FF329A620298FDF7D0
:102D100087FE00BF05B05DF804FB00BF00000000A7
:102D200000B587B00190019B1B6A0493019B5B680F
:102D30005B680393019B5B681B7A8DF80B30019BEA
:102D4000002B06D0039B002B03DD039B664A9342B6
:102D500002DD6648FDF774FD049B9B889BB223F05F
:102D60003F039AB2049B9A80049B9B889BB243F0DA
:102D700024039AB2049B9A800023ADF8163040F6E3
:102D8000FF73ADF81430039B594A934230DC9DF831
:102D90000B30012B02D05748FDF752FD039B5B001F
:102DA000554A92FBF3F103FB01F3D31A002B02D037
:102DB0005248FDF745FD039B5B004F4A92FBF3F33E
:102DC000ADF81430BDF81430032B02D84C48FDF791
:102DD00037FDBDF81430C3F30B039AB2BDF81630BB
:102DE00013439BB2ADF81630049B25221A846AE087
:102DF000039B444A934266DC9DF80B30022B06D0BD
:102E00009DF80B30032B02D03F48FDF719FD9DF8CC
:102E10000B30022B18D1039A13465B001344364A39
:102E200092FBF3F103FB01F3D31A002B02D03748D6
:102E3000FDF706FD039A13465B0013442E4A92FBEE
:102E4000F3F3ADF8143025E09DF80B30032B21D1BE
:102E5000039A13469B0013449A001344264A92FB9C
:102E6000F3F103FB01F3D31A002B02D02848FDF73E
:102E7000E7FC039A13469B0013449A0013441E4A2E
:102E800092FBF3F3ADF81430BDF8163043F48043F1
:102E9000ADF81630BDF81430002B02D11D48FDF7F7
:102EA000CFFCBDF81430C3F30B039AB2BDF8163053
:102EB00013439BB26FEA43436FEA5343ADF81630B6
:102EC000049B0B221A84BDF81430B3F5805F02D343
:102ED0001148FDF7B5FC049BBDF816209A8300BF8E
:102EE00007B05DF804FB00BF00093D005062000818
:102EF000A086010068620008005125028062000877
:102F000098620008801A0600B0620008C8620008D3
:102F1000E0620008F862000810630008000000008A
:102F200086B00190019B1B6A0493019B5B681B7830
:102F30008DF80F30049B1B88ADF816309DF80F30CC
:102F4000022B0AD0032B15D0012B1AD1BDF8163055
:102F500023F00A03ADF8163013E0BDF8163043F045
:102F60000203ADF81630BDF8163023F00803ADF8B3
:102F7000163006E0BDF8163043F00A03ADF81630FF
:102F800000BF049BBDF816201A8000BF06B0704732
:102F900000B587B00190019B1B6A0593059B1B8BB5
:102FA0009BB20493059B9B8A9BB20393049B1A04D8
:102FB000039B134323F07F434E4A934212D0B3F155
:102FC000031F03D24C4A934207D089E04B4A9342F5
:102FD00031D04B4A934241D082E0019B1A8A059B33
:102FE0001A827DE0059B9B889BB223F400739AB202
:102FF000059B9A80019B9B691B68019A92691268E4
:10300000126842F001021A60059B9B889BB243F450
:1030100080539AB2059B9A80019B9B691B685B68F1
:10302000012B5CD8059B1B889BB223F480639AB26A
:10303000059B1A8053E0059B9B889BB223F4007389
:103040009AB2059B9A80019BDB691B68019AD26941
:103050001268126842F001021A6041E0019B9B690C
:103060001B685B68002B0FD0019B1B8A43F0010398
:103070009AB2019B1A82059B1B889BB243F4A06302
:103080009AB2059B1A8032E0059B9B889BB223F481
:1030900000739AB2059B9A80059B1B889BB243F4F0
:1030A00000739AB2059B1A80202383F31188FDF7E1
:1030B000DFFA019BDB68002B0BD0019BDB680293DE
:1030C000019B0022DA60029B00229A620298FDF7BF
:1030D000A7FCFDF7E5FA002383F3118800E000BFA9
:1030E000039B03F00A03002B01D0059B1B8B07B049
:1030F0005DF804FB020003000100030082000700EA
:103100008400070000000000000000000000000034
:1031100000B585B001900091019B1B6A0393009B51
:1031200003F00803002B01D0FDF762F8019B9B69B7
:103130001B68019A92691268126822F001021A60F3
:10314000019B9B695B68019A9269127A11460F2272
:103150008A401A60039B9B889BB223F480539AB2E7
:10316000039B9A80039B1B889BB223F480639AB2D3
:10317000039B1A80039B1B889BB243F400739AB293
:10318000039B1A80202383F31188FDF771FA019BBA
:10319000DB68002B0BD0019BDB680293019B0022B4
:1031A000DA60029B00229A620298FDF739FCFDF773
:1031B00077FA002383F3118800BF05B05DF804FBA4
:1031C00000B585B001900091019B1B6A0393009BA1
:1031D00003F00803002B01D0FDF70AF8019BDB691F
:1031E0001B68019AD2691268126822F001021A6003
:1031F000019BDB695B68019AD269127A11460F2242
:103200008A401A60039B9B889BB243F400739AB276
:10321000039B9A8000BF05B05DF804FB000000002E
:1032200000B587B00190019B1B6A0493202383F3B0
:103230001188FDF71DFA019BDB691B68019AD269B1
:103240001268126822F001021A60019BDB695B6858
:10325000019AD269127A11460F228A401A60019BA4
:103260009B691B68019A92691268126822F0010238
:103270001A60019B9B695B68019A9269127A1146F8
:103280000F228A401A60FDF70BFA002383F311889E
:1032900000230593049B9B8A9BB203F48073002B4D
:1032A0000BD0049B9B8A9BB223F480739AB2049B3D
:1032B0009A82059B43F001030593049B9B8A9BB272
:1032C00003F40073002B0BD0049B9B8A9BB223F466
:1032D00000739AB2049B9A82059B43F00203059304
:1032E000049B9B8A9BB203F48063002B1BD0049B3E
:1032F0009B8A9BB223F480639AB2049B9A82049BBC
:103300009B889BB223F400739AB2049B9A80049B1F
:103310001B889BB243F400739AB2049B1A80059BEE
:1033200043F004030593049B9B8A9BB203F4006360
:10333000002B0BD0049B9B8A9BB223F400639AB2B0
:10334000049B9A82059B43F008030593049B9B8A88
:103350009BB203F48053002B0BD0049B9B8A9BB23F
:1033600023F480539AB2049B9A82059B43F0100386
:103370000593049B9B8A9BB203F48043002B0BD0E4
:10338000049B9B8A9BB223F480439AB2049B9A824B
:10339000059B43F020030593049B9B8A9BB29BB241
:1033A0001BB2002B0BDA049B9B8A9BB2C3F30E0368
:1033B0009AB2049B9A82059B43F040030593059BB8
:1033C000002B1DD0019B059A9A60202383F311885E
:1033D000FDF74EF9019BDB68002B0CD0019BDB68ED
:1033E0000393019B0022DA60039B6FF001029A6253
:1033F0000398FDF715FBFDF753F9002383F31188BC
:1034000000BF07B05DF804FB0000000000000000F2
:1034100008B5FDF75DF90448FFF7BAFDFDF778F947
:10342000FCF736FF00BF08BD280E0020000000009A
:1034300008B5FDF74DF90448FFF7F2FEFDF768F90E
:10344000FCF726FF00BF08BD280E0020000000008A
:1034500008B50848FEF76CFB064B0022DA60054B06
:10346000054A1A62034B054A9A61024B044ADA6123
:1034700000BF08BD280E00200054004088640008EA
:103480007C64000800000000000000000000000054
:1034900000B585B00190019B1B6A0393019B8A22B2
:1034A0005A61019B1B78012B3CD1019B394A934205
:1034B00038D1394A384B1B6943F400131361364B3A
:1034C00000221A61019B9869019B344A0A21FEF788
:1034D00087FE0290029B002B02D03148FDF7B0F925
:1034E000019BD869019B2F4A0A21FEF779FE0290C1
:1034F000029B002B02D02C48FDF7A2F9264A264B4E
:10350000DB6943F40013D361A0211F20FCF738FFCF
:10351000A0212020FCF734FF019B5B6943F480521B
:10352000019B5A61019BDB691B68019A526942F059
:1035300010021A60019B9B691B68019A52691A600C
:10354000019B9B691B68039A10329A60019BDB699F
:103550001B68039A10329A60039B4FF400421A8052
:10356000039B00221A80039B4FF410629A800198FB
:10357000FFF7D6FB0198FFF7D3FC039B1B889BB298
:1035800043F001039AB2039B1A8000BF05B05DF8B7
:1035900004FB00BF280E002000100240113100087B
:1035A00028630008C13100083C63000800000000E7
:1035B00000B58BB00390019200930B46ADF80A3032
:1035C000039B1B6A09930D9B002B08D00D9B012BBD
:1035D00002D90C9B002B02D14448FDF731F90E9B18
:1035E000B3F1FF3F05D004A8039B414A0E99FDF7B4
:1035F0004FF9FDF725F8002383F31188BDF80A3051
:103600005B009AB2039B1A82039B00229A60039B81
:10361000DB691B68019ADA60039BDB691B68009A0F
:103620005A60039B9B691B680C9ADA60039B9B6939
:103630001B680D9A5A6013E0202383F31188FCF76E
:10364000E7FF0E9BB3F1FF3F05D0079B002B02D194
:103650004FF0FF3346E0FCF7F3FF002383F31188BC
:10366000099B1B8B9BB203F00203002BE4D1099B47
:103670001B889BB203F40073002BDDD1202383F35E
:103680001188FCF7C5FF0E9BB3F1FF3F05D0079BE8
:10369000002B02D14FF0FF3324E0099B9B889BB2A3
:1036A00043F400739AB2099B9A80099B1B889BB2D2
:1036B00043F480739AB2099B1A800E4BDA69039B1C
:1036C000DA600220FDF7E4F90E9BB3F1FF3F06D06C
:1036D000079B002B03D004AB1846FDF729F9054BD7
:1036E000DB699B6A18460BB05DF804FB7463000845
:1036F000E12C00087C0D002000000000000000000C
:1037000084B001900091019BD3F850340393019B46
:10371000D3F850341A4A934208D1009B1B68194AC7
:10372000B2FBF3F39AB2039B1A8107E0009B1B687C
:10373000144AB2FBF3F39AB2039B1A81009B9B8855
:1037400043F4045343F02C039AB2039B9A81009BE9
:10375000DB8843F040039AB2039B1A82009B1B89CB
:1037600043F001039AB2039B9A82039B00221A80C2
:10377000039B1B88039B9B8800BF04B0704700BF5E
:103780000038014000512502000000000000000048
:1037900000B585B001900B46ADF8023000230393CD
:1037A000BDF8023003F00803002B03D0039B43F065
:1037B00080030393BDF8023003F00103002B03D014
:1037C000039B43F020030393BDF8023003F0020390
:1037D000002B03D0039B43F040030393BDF802305A
:1037E00003F00403002B03D0039B43F48073039383
:1037F000202383F31188FCF73BFF019B9A68039B0E
:103800001A43019B9A60019B043300211846FDF77F
:103810005FFDFCF745FF002383F3118800BF05B06F
:103820005DF804FB00000000000000000000000044
:1038300000B587B00190019BD3F850340593059BE8
:103840009B89ADF81230059B1B88ADF81030059BA5
:103850009B88ADF80E30BDF8103003F00F03002B3D
:1038600005D0BDF8103019460198FFF791FFBDF85B
:10387000103003F48073002B1DD0202383F31188B4
:10388000FCF7F6FE019B9B6843F40072019B9A6073
:10389000019B043300211846FDF71AFDFCF700FFD9
:1038A000002383F31188059B1B889BB223F480734C
:1038B0009AB2059B1A80BDF8103003F02003002B4C
:1038C00010D0202383F31188FCF7D2FEBDF80E3010
:1038D000DBB219460198FEF7FBFAFCF7E1FE002384
:1038E00083F31188BDF8123003F08003002B34D02D
:1038F000BDF8103003F08003002B2ED0202383F37B
:103900001188FCF7B5FE019B30331846FDF7F0FE39
:103910000290029B002B17DA019B9B6843F0080280
:10392000019B9A60019B043300211846FDF7D0FCEF
:10393000BDF8123023F0C0039BB243F040039BB2AA
:103940009AB2059B9A8103E0029B9AB2059B9A80EA
:10395000FCF7A6FE002383F31188BDF8103003F0B6
:103960004003002B24D0202383F31188FCF780FE32
:10397000019B9B6843F01002019B9A60019B0433FA
:1039800000211846FDF7A4FCFCF78AFE002383F310
:103990001188BDF8123023F040039AB2059B9A813A
:1039A000059B1B889BB223F040039AB2059B1A80AB
:1039B00000BF07B05DF804FB00000000000000003D
:1039C00082B00190054A054B9B899BB243F080036E
:1039D0009BB2938100BF02B0704700BF0038014026
:1039E00008B5FCF775FE0448FFF722FFFCF790FED0
:1039F000FCF74EFC00BF08BD4C0E0020000000008C
:103A000008B5054A00210548FEF702FA034B044AAF
:103A1000C3F8502400BF08BDC13900084C0E002077
:103A2000003801400000000000000000000000001D
:103A300000B583B001900091009B002B01D10E4B8B
:103A40000093019B1B7B012B0DD1019B0B4A9342E1
:103A500009D10B4A0A4B9B6943F480439361C0210F
:103A60002520FCF78DFC00990198FFF749FE00BF67
:103A700003B05DF804FB00BFA06400084C0E0020FA
:103A800000100240000000000000000000000000E4
:103A900082B00190224A224B9B6943F07D039361DF
:103AA000204A019B1B68D3601E4A019B9B685360A0
:103AB0001C4A019B5B6813601B4A019BDB68D36057
:103AC000194A019B5B695360174A019B1B6913608C
:103AD000164A019B9B69D360144A019B1B6A536081
:103AE000124A019BDB691360114A019B5B6AD36038
:103AF0000F4A019BDB6A53600D4A019B9B6A13606E
:103B00000C4A019B1B6BD3600A4A019B9B6B536061
:103B1000084A019B5B6B136000BF02B0704700BF97
:103B20000010024000080140000C0140001001405C
:103B300000140140001801400000000000000000D7
:103B40008AB0039002910192019B032B03D1039B46
:103B5000029A1A6105E0019B042B02D1039B029A91
:103B60005A612A4A019B13441B780493002306934D
:103B7000069B0793079B0893089B099300230593D3
:103B80002DE0089B1B010893099B1B010993069BD1
:103B90001B010693079B1B010793029B03F0800305
:103BA000002B04D1089B43F00F03089303E0069A0F
:103BB000049B13430693029B03F40043002B04D1A0
:103BC000099B43F00F03099303E0079A049B1343F7
:103BD0000793029B5B000293059B01330593059BB2
:103BE000072BCED9039B5A68099B1A40079B1A439F
:103BF000039B5A60039B1A68089B1A40069B1A4352
:103C0000039B1A6000BF0AB0704700BFB064000891
:103C100008B5FEF7CDFB00BF08BD00BF00000000E7
:103C200000BF70470000000000000000000000001E
:103C300082B00190019B1B7C03F00103DBB2002BDF
:103C400010D0019B1B7CC3F38003DBB2002B09DD8A
:103C5000019B1A68019B5B68D21A019B1A60019B49
:103C600000225A6000BF02B0704700BF0000000091
:103C700082B001900091064A137C43F00103137453
:103C8000034B1B68024A536000BF02B0704700BF7D
:103C9000A012002000000000000000000000000052
:103CA00082B001900091074A92F8243043F001035A
:103CB00082F82430034B5B69024A936100BF02B073
:103CC000704700BFA01200200000000000000000AC
:103CD00000B583B0019000914FF0FF3000F058FE26
:103CE000202383F31188FCF7C3FC01F029FF0A4865
:103CF000FDF7EEFE0948FDF7EBFE0948FDF7E8FE8B
:103D00000848FDF7E5FEFCF7CBFC002383F31188A0
:103D100000BF03B05DF804FBE80D0020F80D0020A3
:103D2000080E0020180E0020000000000000000017
:103D300010B590B0019003AB0F934FF0FF3197484F
:103D4000FDF7AEFB0346DAB20F9B1A700F9B5C1CAB
:103D50004FF0FF319148FDF7A3FB0346DBB2237020
:103D60000F9B9C1C4FF0FF318C48FDF799FB0346DD
:103D7000DBB223700F9BDC1C4FF0FF318748FDF74F
:103D80008FFB0346DBB22370854B0E93202383F316
:103D90001188FCF73DFC039A0E9B1B68D31A0D9308
:103DA000FCF74EFC002383F311880D9B002B01DDF3
:103DB000012301E04FF0FF330C930D9B002BB8BFA4
:103DC0005B420D930C9800F0FBFD012000F028FEF3
:103DD0001920FDF75DF8734B1B68734A92FBF3F3F0
:103DE0000B930D9BDA0F13445B100A93202383F38C
:103DF0001188FCF70DFC0C9B002BCCBF012300238A
:103E0000D9B20E9A137C61F3820313740E9B0B9A42
:103E1000DA600E9B0D9A9A60FCF712FC002383F384
:103E200011880B9B9BB219466048FDF709FE2023C1
:103E300083F31188FCF7ECFB0E9B9B680993FCF75E
:103E4000FFFB002383F311880D9A099BD31A089373
:103E5000089B0793079A0A9B9A4203DD0D9A079BDA
:103E6000D31A00E0079B07934E4B1B684D4A12681C
:103E700002FB03F24E4B1B685B00079901FB03F347
:103E80001344184600F02CFE06904A4B1B68069A15
:103E90009342A8BF13460693434A069B92FBF3F353
:103EA0000B930B9B022BB8BF02230B93202383F3AE
:103EB0001188FCF7ADFB0E9B0B9ADA60FCF7C0FB98
:103EC000002383F3118800213B48FDF7E9FA0590B0
:103ED000059BB3F1FF3F24D03448FDF781FD3748FF
:103EE000FDF77EFD364B9B6803F00103002B1CD0D1
:103EF000334B01225A610E9B9B685A1E0E9B9A609F
:103F00000E9B1A680E9B1B7CC3F38003DBB2002B55
:103F100001DD012301E04FF0FF331A440E9B1A60CC
:103F200003E0099B002B82DC00E000BF1920FCF7B6
:103F3000AFFF202383F31188FCF76AFB174B9A68C5
:103F4000204B9B6813440493154B93F8243003F0E3
:103F50000203DBB2002B08D1049B002B05D14FF0EC
:103F6000FF3000F05DFD00F07BFDFCF769FB0023F6
:103F700083F31188202383F31188FCF749FB0E9A01
:103F8000137C6FF3410313740E98FFF751FEFCF797
:103F900057FB002383F31188CDE600BFC812002031
:103FA000A012002000080020A0860100E80D0020DB
:103FB0000808002004080020F4120020F80D00205A
:103FC000000C014018130020000000000000000059
:103FD00010B590B0019003AB0F934FF0FF319748AD
:103FE000FDF75EFA0346DAB20F9B1A700F9B5C1C5A
:103FF0004FF0FF319148FDF753FA0346DBB22370CF
:104000000F9B9C1C4FF0FF318C48FDF749FA03468B
:10401000DBB223700F9BDC1C4FF0FF318748FDF7AC
:104020003FFA0346DBB22370854B0E93202383F3C4
:104030001188FCF7EDFA039A0E9B1B68D31A0D93B7
:10404000FCF7FEFA002383F311880D9B002B01DDA2
:10405000012301E04FF0FF330C930D9B002BB8BF01
:104060005B420D930C9800F0C3FC012000F0D8FCDB
:104070001920FCF70DFF734B1B68734A92FBF3F397
:104080000B930D9BDA0F13445B100A93202383F3E9
:104090001188FCF7BDFA0C9B002BCCBF0123002339
:1040A000D9B20E9A137C61F3820313740E9B0B9AA0
:1040B000DA600E9B0D9A9A60FCF7C2FA002383F334
:1040C00011880B9B9BB219466048FDF7B9FC202371
:1040D00083F31188FCF79CFA0E9B9B680993FCF70D
:1040E000AFFA002383F311880D9A099BD31A089322
:1040F000089B0793079A0A9B9A4203DD0D9A079B38
:10410000D31A00E0079B07934E4B1B684D4A126879
:1041100002FB03F24E4B1B685B00079901FB03F3A4
:104120001344184600F0DCFC06904A4B1B68069AC4
:104130009342A8BF13460693434A069B92FBF3F3B0
:104140000B930B9B022BB8BF02230B93202383F30B
:104150001188FCF75DFA0E9B0B9ADA60FCF770FA97
:10416000002383F3118800213B48FDF799F905905E
:10417000059BB3F1FF3F25D03448FDF731FC3748AC
:10418000FDF72EFC364B9B685B0803F00103002B08
:104190001CD0334B02225A610E9B9B685A1E0E9B09
:1041A0009A600E9B1A680E9B1B7CC3F38003DBB2E4
:1041B000002B01DD012301E04FF0FF331A440E9B79
:1041C0001A6003E0099B002B81DC00E000BF19208E
:1041D000FCF75EFE202383F31188FCF719FA214BCC
:1041E0009A68164B9B68134404931F4B1B7C03F087
:1041F0000203DBB2002B08D1049B002B05D14FF04A
:10420000FF3000F00DFC00F02BFCFCF719FA002346
:1042100083F31188202383F31188FCF7F9F90E9AB0
:10422000137C6FF3410313740E98FFF701FDFCF745
:1042300007FA002383F31188CDE600BF181300208E
:10424000B412002000080020A0860100080E002003
:104250000808002004080020F4120020180E002096
:1042600000080140C8120020A01200200000000039
:1042700000B585B00190174B0393039B9B68002BFF
:1042800023DD154B01221A61202383F31188FCF7EB
:10429000EFF9124B1B78022B0BD1039BDB68DA0F73
:1042A00013445B100293029B9BB219460B48FDF727
:1042B000E7FB039BDB689BB219460948FDF7E0FB6F
:1042C000FCF7EEF9002383F3118800BF05B05DF819
:1042D00004FB00BFA0120020000C0140F80D0020DC
:1042E000E80D0020000000000000000000000000B9
:1042F00084B001900E4B03930E4B01225A61039B35
:104300009B685A1E039B9A60039B1A68039B1B7C45
:10431000C3F38003DBB2002B01DD012301E04FF08A
:10432000FF331A44039B1A6000BF04B0704700BFFC
:10433000A0120020000C014000000000000000005E
:1043400000B585B00190174B0393039B9B68002B2E
:1043500023DD154B02221A61202383F31188FCF719
:1043600087F9124B1B78022B0BD1039BDB68DA0F0A
:1043700013445B100293029B9BB219460B48FDF756
:104380007FFB039BDB689BB219460948FDF778FB6E
:10439000FCF786F9002383F3118800BF05B05DF8B0
:1043A00004FB00BFB412002000080140180E0020DA
:1043B000080E0020000000000000000000000000C7
:1043C00084B001900E4B03930E4B02225A61039B63
:1043D0009B685A1E039B9A60039B1A68039B1B7C75
:1043E000C3F38003DBB2002B01DD012301E04FF0BA
:1043F000FF331A44039B1A6000BF04B0704700BF2C
:10440000B41200200008014000000000000000007D
:1044100000B587B0019000916B460593202383F38C
:104420001188FCF7F5F8019B002BCCBF012300237A
:10443000DBB204932249049A13469B0013449B0069
:104440000B4403F1100213786FF3000313701C493F
:10445000049A13469B0013449B000B4403F1100283
:10446000137843F002031370019B002B01DD154B01
:1044700000E0154B0393059B1B7819460398FCF746
:10448000C7FF059B01331B7819460398FCF7C0FF53
:10449000059B02331B7819460398FCF7B9FF059B6F
:1044A00003331B7819460398FCF7B2FFFCF7C8F8F2
:1044B000002383F3118800BF07B05DF804FB00BF41
:1044C000A012002018130020C812002000000000D5
:1044D00000B583B0022220217548FFF731FB02228C
:1044E0004FF480717348FFF72BFB02224FF4805189
:1044F0007048FFF725FB00230C226F496F48FCF73B
:104500005FFF002303226E496E48FCF759FF00232A
:104510000C226D496D48FCF753FF002303226C49C0
:104520006C48FCF74DFF02224FF480516148FFF7C1
:1045300007FB022220215E48FFF702FB02224FF414
:1045400080715C48FFF7FCFA63496448FDF7C0F9E5
:1045500063496448FDF70CFA63496448FDF708FABB
:1045600063496448FDF704FA63496448FDF700FABB
:10457000504B01225A61062201214E48FFF7E0FA12
:104580004B4B02225A61062202214948FFF7D8FA12
:10459000484B4FF480625A61454B40225A61444B6C
:1045A00080225A61434B4FF400521A6106224FF4A5
:1045B00080614048FFF7C4FA062240213C48FFF7DB
:1045C000BFFA062280213A48FFF7BAFA06224FF4D2
:1045D00000513848FFF7B4FA06224FF4006135481D
:1045E000FFF7AEFA062210213148FFF7A9FA00239F
:1045F0000093434B40224FF40B614248FCF710FC00
:1046000000230093404B40224FF40B613F48FCF7DE
:1046100007FC012000F0A4F94FF0FF3000F088F90A
:10462000012000F0B5F93A4B00221A60384B002205
:104630005A60374B00229A60354B0022DA60344AC8
:10464000137C6FF300031374314A137C6FF341033F
:1046500013742F4A137C6FF3820313742C4B0022C4
:104660005A612B4B00229A61294B0022DA61284BB8
:104670000022DA60264A92F824306FF3000382F8B1
:104680002430234A92F824306FF3410382F8243017
:104690001F4A92F824306FF3820382F824301D49B8
:1046A0001B4801F09DF800BF03B05DF804FB00BF9C
:1046B00000080140000C0140E8120020C812002050
:1046C00014130020F41200203813002018130020C7
:1046D000641300204413002010650008E00D002042
:1046E000B0650008E80D0020C0650008F80D002046
:1046F000D0650008080E0020E0650008180E0020B4
:10470000313D000868130020D13F0008181C00202C
:10471000A0120020B41200200000000000000000E1
:1047200000B585B001900091019B002BCCBF012307
:104730000023DBB20393202383F31188FBF768FF88
:104740000849039A13469B0013449B000B44009AAC
:104750001A60FBF775FF002383F3118800BF05B0D3
:104760005DF804FBA0120020000000000000000023
:1047700000B585B0039002910192202383F3118844
:10478000FBF746FF084A039B1360084A029B13602D
:10479000074A019B1360FBF753FF002383F3118843
:1047A00000BF05B05DF804FB0008002004080020ED
:1047B00008080020000000000000000000000000C9
:1047C00000B587B0039002910192039B002BCCBFF0
:1047D00001230023DBB20593059A13469B00134483
:1047E0009B00114A13440493202383F31188FBF7A1
:1047F0000FFF019B002B03D0049B5A68019B1A609A
:10480000029B002B07D0049B1B7CC3F30003DBB28D
:104810001A46029B1A60FBF713FF002383F31188EB
:1048200000BF07B05DF804FBA012002000000000EC
:1048300000B587B001900091019B002BCCBF0123F4
:104840000023DBB20593059A13469B0013449B009B
:104850000F4A13440493202383F31188FBF7D8FEF7
:10486000049B1B7CC3F34003DBB20393009B002B30
:1048700003D0049B1A68009B1A60FBF7E1FE00233B
:1048800083F31188039B184607B05DF804FB00BF53
:10489000A012002000000000000000000000000046
:1048A00000B587B00190019B002BCCBF01230023F2
:1048B000DBB20593059A13469B0013449B000A4AFA
:1048C00013440493202383F31188FBF7A1FE049B78
:1048D0001B680393FBF7B4FE002383F31188039B4B
:1048E000184607B05DF804FBA0120020000000008D
:1048F00000B585B00190019B002B01DD0A4B00E063
:104900000A4B0393202383F31188FBF781FE0021D8
:104910000398FCF77DFDFBF793FE002383F31188DA
:1049200000BF05B05DF804FB44130020F412002022
:1049300082B00190019B002B03DD054B40225A61A0
:1049400002E0034B40221A6100BF02B0704700BF73
:10495000000801400000000000000000000000000E
:1049600082B00190019B002B03DD054B80225A6130
:1049700002E0034B80221A6100BF02B0704700BF03
:1049800000080140000000000000000000000000DE
:1049900082B00190019B002B04DD064B4FF4806236
:1049A0005A6103E0034B4FF480621A6100BF02B00A
:1049B000704700BF000C0140000000000000000034
:1049C00082B00190019B002B04DD064B4FF4006286
:1049D0001A6103E0034B4FF400625A6100BF02B05A
:1049E000704700BF000C0140000000000000000004
:1049F00082B00190019B002B03DD054B10221A6150
:104A000002E0034B10225A6100BF02B0704700BFA2
:104A1000000801400000000000000000000000004D
:104A200000B583B00190019B002B08DD094B4FF4CA
:104A300000525A614FF0FF30FFF792FF06E001206D
:104A4000FFF78EFF034B4FF400521A6100BF03B013
:104A50005DF804FB000C01400000000000000000B5
:104A600000B583B01C4B1B68DBB28DF800301A4BCD
:104A70001B681B12DBB28DF80130174B1B681B142F
:104A8000DBB28DF80230144B1B681B16DBB28DF8BD
:104A90000330114B5B69DBB28DF804300E4B5B6960
:104AA0001B12DBB28DF805300B4B5B691B14DBB2BC
:104AB0008DF80630084B5B691B16DBB28DF80730AA
:104AC00000F0DEFF6B461946082000F051FF00BFE2
:104AD00003B05DF804FB00BFA0120020000000003E
:104AE00086B00190019B0593019B0493019A059B5D
:104AF00092FBF3F2059B13440393039BDA0F1344D9
:104B00005B101946039A154B1340002B03DA013B47
:104B100063F0010301330B440593049A059B9A4209
:104B200002DD059B0493E1E7019A049B92FBF3F2FB
:104B3000049B013B9A420CD1019B049A93FBF2F235
:104B4000049901FB02F29B1A002B02D1049B013B4A
:104B50000493049B184606B0704700BF0100008014
:104B600008B500F04DF800BF08BD00BF0000000010
:104B700000B583B001900091019B002B02D0009BF7
:104B8000002B02D10B48FBF75BFE202383F3118837
:104B9000FBF73EFD0099019800F042F8019B0222CC
:104BA0001A70FBF74DFD002383F3118800BF03B09B
:104BB0005DF804FBA0630008000000000000000096
:104BC00000B583B00190019B002B02D10948FBF78F
:104BD00037FE202383F31188FBF71AFD019800F0BC
:104BE00047F8FBF72DFD002383F3118800BF03B0C6
:104BF0005DF804FBB0630008000000000000000046
:104C0000034B01221A70024B024A5A6000BF7047E0
:104C1000C824002000300040000000000000000018
:104C200084B001900091019B5B680393039B45F264
:104C300055521A60009B9B781A46039B5A60009B52
:104C40001B88B3F5805F03D2009B1B881A4601E0E6
:104C500040F6FF72039B9A60039B4AF6AA221A60F1
:104C6000039B4CF6CC421A6000BF04B0704700BFF3
:104C700082B00190019B5B684AF6AA221A6000BFCD
:104C800002B07047000000000000000000000000BB
:104C900008B5FCF7EDFDFBF71BFC00F019FC00F07C
:104CA000D7F800F0A5FE00F07BFCFFF711FC002018
:104CB00000F03EFC00F0F4F8FCE700BF000000004C
:104CC00000B585B00190019B1B78002B14BF012318
:104CD0000023DBB203930398FFF7E2FD0290029BEF
:104CE000DBB2184600F064FB029B1B12DBB21846D5
:104CF00000F05EFB029B1B14DBB2184600F058FB71
:104D0000029B1B0EDBB2184600F052FB00F078FB52
:104D100000BF05B05DF804FB0000000000000000CB
:104D200000B587B00190019B1B788DF81730019B6F
:104D30005B788DF81630019B9A1C9DF816109DF833
:104D40001730184600F0D4FC0490049B002B02DBC3
:104D5000049BDBB203E0049BDBB25B42DBB28DF869
:104D60000F309DF80F30184600F022FB00F048FB92
:104D700000BF07B05DF804FB000000000000000069
:104D800000B587B00190019B1B788DF81630019B10
:104D90005B788DF815309DF815109DF81630019A46
:104DA000184600F0F5FC0490049B002B02DB049BEA
:104DB000DBB203E0049BDBB25B42DBB28DF80F3069
:104DC0009DF80F30184600F0F3FA00238DF81730E5
:104DD0000CE09DF81730019A13441B78184600F038
:104DE000E7FA9DF8173001338DF817309DF817203A
:104DF0009DF815309A42ECD300F002FB00BF07B0DB
:104E00005DF804FB0000000000000000000000004E
:104E100000B583B0019000F033FE00BF03B05DF831
:104E200004FB00BF000000000000000000000000C4
:104E300000B585B00190019B1B788DF80F309DF86F
:104E40000F30184600F024FE00BF05B05DF804FBEB
:104E500008B510224FF400710D48FEF771FE0222D2
:104E60004FF480610A48FEF76BFE10224FF4006198
:104E70000748FEF765FE02224FF480510448FEF712
:104E80005FFE00210348FCF7F3FF00BF08BD00BF31
:104E9000000801404C0E002000000000000000004F
:104EA00000B583B04FF0FF312948FCF7F9FA0190C3
:104EB000019BB3F1FF3F03D0019B13F1020F01D11E
:104EC000012300E000238DF803309DF80330002B10
:104ED00039D1019B8DF802301E4B1B78002B1FD15E
:104EE0009DF80230002B09D11B4B1B6819461B484B
:104EF00000F036F8184B00221A601DE09DF80230D1
:104F00005C2B09D0144B1B685A1C13490A601349C7
:104F10009DF80220CA540FE00E4B01221A700BE0DC
:104F20000C4B00221A700C4B1B685A1C0A490A6071
:104F30000A499DF80220CA54074B1B68202BA8BFC2
:104F40002023054A136000BF03B05DF804FB00BFD7
:104F50005C0E00201025002014250020D024002005
:104F600000B587B001900091019B1B788DF813303C
:104F7000019B013303939DF81330012B02D0022BC8
:104F800015D017E0002305930BE0059B039A13440B
:104F900019780A4A059B13440A461A70059B013387
:104FA0000593009B5A1E059B9A42EEDC02E000F03E
:104FB00007F800BF00BF07B05DF804FBF024002035
:104FC00000B583B00B4B5B78019310230093019ADB
:104FD000009B9A4201DA019B00E000230193064AFC
:104FE000019B52F823300548984700BF03B05DF895
:104FF00004FB00BFD02400200C080020F024002077
:1050000000B589B00190114A03AB07CA83E80700D5
:1050100003AB184600F0F4FD034606930023079304
:1050200009E003AA079B13441B78184600F0C0F957
:10503000079B01330793079A069B9A42F1DB00F026
:10504000DFF900BF09B05DF804FB00BFC0630008D2
:1050500000B589B00190114A03AB07CA03C31A8097
:1050600003AB184600F0CCFD0346069300230793DC
:1050700009E003AA079B13441B78184600F098F92F
:10508000079B01330793079A069B9A42F1DB00F0D6
:10509000B7F900BF09B05DF804FB00BFCC6300089E
:1050A00000B585B001900E4A03AB12681146198015
:1050B0000233120C1A709DF80C30184600F078F983
:1050C0009DF80D30184600F073F900F099F9FA20B8
:1050D000FBF7DEFE00F05CFA00BF05B05DF804FBF4
:1050E000D86300080000000000000000000000007D
:1050F00000B583B00190019B1B78184600F018FAA8
:1051000000BF03B05DF804FB0000000000000000D9
:1051100000B585B00190019B1B780393039BDBB224
:10512000184600F075FA00BF05B05DF804FB00BF3B
:1051300000B585B00190019B1B78002B14BF0123A3
:105140000023DBB20393019B01331B780293019B85
:1051500002331B781B02029A13430293019B033311
:105160001B781B04029A13430293019B04331B78A0
:105170001B06029A1343029302990398FFF748F91A
:1051800000BF05B05DF804FB000000000000000057
:1051900000B585B00190019B1B78002B14BF012343
:1051A0000023DBB203930398FFF7A2FB00BF05B017
:1051B0005DF804FB0000000000000000000000009B
:1051C00000B587B00190019B1B78002B14BF012311
:1051D0000023DBB2059303AB19460598FFF728FBC4
:1051E0000490049BDBB2184600F0E2F8039BDBB2AC
:1051F000184600F0DDF8039B1B12DBB2184600F0E6
:10520000D7F8039B1B14DBB2184600F0D1F8039BC0
:105210001B0EDBB2184600F0CBF800F0F1F800BF2F
:1052200007B05DF804FB00BF0000000000000000B4
:1052300000B587B00190019B1B78002B14BF0123A0
:105240000023DBB2059303AA04AB19460598FFF7C8
:10525000B7FA049BDBB2184600F0AAF8039BDBB256
:10526000184600F0A5F8039B1B12DBB2184600F0AD
:105270009FF8039B1B14DBB2184600F099F8039BC0
:105280001B0EDBB2184600F093F800F0B9F800BF2F
:1052900007B05DF804FB00BF000000000000000044
:1052A00000B585B00190019B1B78002B14BF012332
:1052B0000023DBB20393019B01331B780293019B14
:1052C00002331B781B02029A13430293019B0333A0
:1052D0001B781B04029A13430293019B04331B782F
:1052E0001B06029A1343029302990398FFF718FAD8
:1052F00000BF05B05DF804FB0000000000000000E6
:1053000000B587B00190019B1B780593019B013389
:105310001B781B02059A13430593019B02331B78EC
:105320001B04059A13430593019B03331B781B064B
:10533000059A13430593019B04331B780493019B47
:1053400005331B781B02049A13430493019B063315
:105350001B781B04049A13430493019B07331B78A7
:105360001B06049A13430493019B08331B78039391
:10537000019B09331B781B02039A13430393019B80
:105380000A331B781B04039A13430393019B0B33CB
:105390001B781B06039A13430393039A04990598F9
:1053A000FFF7E6F900BF07B05DF804FB000000005E
:1053B00000B583B003468DF807309DF80730002B09
:1053C00003D09DF807305C2B05D14FF0FF325C21F4
:1053D0000748FCF73DF99DF807304FF0FF321946BA
:1053E0000348FCF735F900BF03B05DF804FB00BFCC
:1053F0007C0E002000000000000000000000000003
:1054000008B54FF0FF3200210248FCF721F900BF38
:1054100008BD00BF7C0E002000000000000000005E
:1054200000B583B001901F4BDB691F4A9A61FFF7FB
:1054300097FB1E491E48FFF79BFB1D48FFF7C0FB6B
:105440001C48FBF7FDFD1C4B1B681C4A13601B4BE3
:105450001B6803F00103002B06D0194A184BDB68C8
:1054600083F48043D36003E0154B4FF480425A61CC
:10547000124B1B6803F00203002B06D0104A104B9E
:10548000DB6883F40053D36003E00D4B4FF400520C
:105490005A61FBF775FEFA20FBF7FAFC0448FFF7A8
:1054A0008FFBCDE77C0D0020E06300084C08002056
:1054B000C82400201825002028250020E0260020F0
:1054C000001001400000000000000000000000008B
:1054D00000B583B0114B4FF480425A610F4B4FF42B
:1054E00000525A6106224FF480410C48FEF728FB17
:1054F00006224FF400510948FEF722FB0848FBF74B
:105500007FFD00230093074B40224FF4D8710648DB
:10551000FBF786FC00BF03B05DF804FB0010014000
:10552000182500202154000830250020000000002C
:1055300000B583B001900648FBF782FD054A019B48
:105540001360FBF71DFE00BF03B05DF804FB00BF56
:105550001825002028250020000000000000000081
:10556000BFF34F8F0549054BDB6803F4E062044B42
:105570001343CB60BFF34F8FFEE700BF00ED00E0A9
:105580000400FA0500000000000000000000000018
:1055900008B5FFF7E5FF00BF08BD00BF0000000031
:1055A00000B583B0124B01225A61124B4FF40042F6
:1055B0005A61062201210E48FEF7C2FA06224FF474
:1055C00000410C48FEF7BCFA002303220A490B48AD
:1055D000FBF7F6FE00230093094B40224FF42C7199
:1055E0000848FBF71DFC00BF03B05DF804FB00BFDB
:1055F0000008014000100140B8290020982900202F
:1056000051560008E82600200000000000000000BD
:1056100000B583B003468DF80730202383F311884B
:10562000FAF7F6FF9DF80730002B01D0012300E0C8
:10563000022319460548FBF7EBFEFBF701F80023B0
:1056400083F3118800BF03B05DF804FB98290020A4
:1056500000B585B00190204BDB69204A9A614FF07C
:10566000FF311F48FBF71CFF029000238DF80F301D
:105670002CE0029B03F00103002B03D0194B012205
:105680001A6102E0174B01225A61029B03F00203E8
:10569000002B04D0144B4FF400421A6103E0124B6C
:1056A0004FF400425A610320FBF7F2FB0D4B01223D
:1056B0005A610D4B4FF400425A614FF4AF70FBF743
:1056C000E7FB9DF80F3001338DF80F309DF80F3058
:1056D000022BCED9C3E700BF7C0D0020F063000889
:1056E000982900200008014000100140000000003F
:1056F00000B58BB0034604928DF817300B468DF839
:1057000016301E4A9DF81730137000238DF827308D
:105710000EE09DF8273001339DF8272004990A44B4
:105720001178164AD1549DF8273001338DF827306F
:105730009DF827209DF816309A42EAD37D230893DE
:105740000F4B4FF400725A619DF8163001331A4620
:10575000089B029300230193002300931346074AFA
:1057600050210848FCF72CFA0790054B4FF40072C3
:105770001A61079B18460BB05DF804FBBC2900209A
:10578000000C0140280E0020000000000000000076
:1057900000B589B0034604928DF817300B468DF89A
:1057A00016300C4A9DF8173013707D2307939DF82F
:1057B0001630079A02920193049B00930123054A35
:1057C00050210548FCF7FCF90690069B184609B0E5
:1057D0005DF804FBBC290020280E0020000000001A
:1057E00000B58BB0059004917D230993234B1B7862
:1057F0008DF81E300DF11E02099B029309230193BF
:105800001F4B0093012350211E48FCF7D9F9089043
:10581000089B002B2ED108211B4800F0A1F903465C
:105820008DF81F30184B5B7A9DF81F209A4221D1CA
:10583000154B5B781A46144B9B781B021A44124B8B
:10584000DB781B041A44104B1B791B061A44059B7A
:105850001A600D4B5B791A460B4B9B791B021A445D
:10586000094BDB791B041A44074B1B7A1B061A44AD
:10587000049B1A6000BF0BB05DF804FBE029002018
:10588000BD290020280E0020BC29002000000000B7
:1058900000B589B0234B1B78002B3ED07D230793A6
:1058A000214B1B788DF817301E4B1B78013319469E
:1058B0000DF11702079B029301911C4B00930123EA
:1058C00050211B48FCF77CF90690069B002B0BD15E
:1058D000144B1B781A46154B9A5C124B1B780133FC
:1058E0001149CB5C9A4218D0124B4FF400725A61A6
:1058F0000C4B1B7802331A46079B0293002301933B
:10590000002300931346084A50210948FCF758F930
:105910000690084B4FF400721A6100BF09B05DF8A1
:1059200004FB00BFDC290020E0290020BC29002066
:10593000280E0020000C01400000000000000000C4
:1059400000B585B00190064BDB69064A9A614FF0BD
:10595000FF310548FBF7A4FD0390FFF799FFF6E739
:105960007C0D002000640008B02E00200000000024
:1059700010B584B0034600918DF8073000238DF8F0
:105980000F3014E0154B1B780133DAB2134B1A7049
:10599000124B1B7819469DF80F30009A13441A7861
:1059A0000F4B5A549DF80F3001338DF80F309DF88E
:1059B0000F209DF807309A42E4D3084B1B785C1CFB
:1059C000064B1B781946064800F0CAF803461A46EB
:1059D000034B1A5500BF04B010BD00BFDC290020E6
:1059E000E02900200000000000000000000000008E
:1059F00000B583B019491A48FCF7AAF811224021D2
:105A00001848FEF79DF8112280211648FEF798F8F5
:105A1000144B4FF400721A6106224FF400711148C2
:105A2000FEF78EF800F05CF803461A460E4B1A702B
:105A30000E4B00221A70002301220D490D48FBF77E
:105A4000BFFC002300930C4B40224FF496610B489F
:105A5000FBF7E6F900BF03B05DF804FBF065000852
:105A6000280E0020000C0140E0290020DC29002045
:105A7000D02E0020B02E002041590008002A00201E
:105A8000024B00221A7000BF704700BFDC290020C3
:105A900000B589B003468DF817300E4A9DF81730CF
:105AA00013707D23079330238DF818309DF817303D
:105AB0008DF8193006AA079B029300230193002357
:105AC0000093022350210448FCF77AF800BF09B084
:105AD0005DF804FBE0290020280E002000000000F3
