:020000040800F2
:100000000004002041040008110500081105000843
:100010001105000811050008110500081105000868
:100020001105000811050008110500086105000808
:100030001105000811050008110500083105000828
:1000400011050008312900081105000811050008F4
:100050001105000811050008E12600081127000815
:100060004127000871270008A1270008B1210008D6
:100070000122000851220008A1220008F1220008F4
:10008000412300089123000811050008110500080C
:10009000110500081105000811050008D127000806
:1000A00011050008512B0008110500081105000872
:1000B000712B0008912B0008B12B0008C1350008F6
:1000C000E1350008110500081105000811050008B8
:1000D00011050008913B00081105000811050008F2
:0C00E000712800081105000861290008C3
:1000F00053B94AB9002908BF00281CBF4FF0FF318F
:100100004FF0FF3000F084B9ADF1080C6DE904CE7A
:1001100000F006F8DDF804E0DDE9022304B07047E2
:100120002DE9F04F8C460C460546099E002B4FD119
:100130008A4217466BD9B2FA82FEBEF1000F0BD08D
:10014000CEF1200520FA05F501FA0EF345EA030C7D
:1001500002FA0EF700FA0EF5390CBCFBF1F0BAB258
:1001600001FB10C300FB02F84FEA154C4CEA0344B4
:10017000A04509D9E41900F1FF3380F02881A0459A
:1001800040F2258102383C44C8EB0404B4FBF1F38F
:1001900001FB134C03FB02F2ACB244EA0C418A426D
:1001A00009D9C91903F1FF3480F00F818A4240F266
:1001B0000C81023B39448A1A43EA00400021002E98
:1001C00063D022FA0EF2002386E80C00BDE8F08F1F
:1001D0008B4207D9002E56D0002186E81100084630
:1001E000BDE8F08FB3FA83F1002940F09380A34279
:1001F00002D3824200F2FE80851A64EB03039C4620
:100200000120002E41D086E82010BDE8F08F12B901
:100210000127B7FBF2F7B7FA87FEBEF1000F36D120
:10022000E41B4FEA17481FFA87F90121B4FBF8F3E2
:1002300008FB134409FB03F24FEA154C4CEA044453
:10024000A24207D9E41903F1FF3002D2A24200F220
:10025000D3800346A41AB4FBF8F008FB104809FB4E
:1002600000F9ACB244EA0842914507D9D21900F12D
:10027000FF3402D2914500F2BA802046C9EB020257
:1002800040EA03409BE731463046BDE8F08F07FA6D
:100290000EF7CEF1200C24FA0CF34FEA1748B3FB0B
:1002A000F8FA1FFA87F908FB1A3520FA0CFC04FA51
:1002B0000EF40AFB09FB4CEA040C4FEA1C4242EA2A
:1002C00005439B4500FA0EF50AD9DB190AF1FF3206
:1002D00080F08B809B4540F28880AAF1020A3B4463
:1002E000CBEB0303B3FBF8F008FB103300FB09F47E
:1002F0001FFA8CFC4CEA03439C4207D9DB1900F13E
:10030000FF326ED29C426CD902383B441C1B40EA3F
:100310000A418BE7C1F1200E8B4022FA0EFC4CEA19
:10032000030C24FA0EF74FEA1C49B7FBF9FA1FFA3F
:100330008CF309FB1A7720FA0EF88C400AFB03F5C0
:1003400048EA04044FEA144848EA0747BD4202FA63
:1003500001F200FA01FB09D917EB0C070AF1FF3093
:1003600041D2BD423FD9AAF1020A67447F1BB7FBC5
:10037000F9F509FB157705FB03F3A4B244EA074737
:10038000BB4208D917EB0C0705F1FF3027D2BB425F
:1003900025D9023D674445EA0A40A0FB0289FF1ABD
:1003A0004F4545464C4614D329D066B3BBEB0503F5
:1003B00067EB040707FA0EFECB40CF404EEA03037B
:1003C00086E888000021BDE8F08F2346F3E6184652
:1003D000DAE6B8EB020569EB0C040138E5E70546FF
:1003E000D9E7104692E78246C0E7924678E702389E
:1003F0003A4443E7084604E7023B3C442AE7C34546
:10040000E7D33C46D1E73146BDE8F08F000000005D
:10041000704700BF00000000000000000000000066
:1004200000BF704700000000000000000000000056
:10043000FEE700BF00000000000000000000000018
:1004400072B6254C84F30988022484F31488BFF320
:100450006F8F224C224D04E023461C1D4FF0553275
:100460001A60AC42F8D31F4C1B4D04E023461C1D00
:100470004FF055321A60AC42F8D303F0A1FC1A4D8C
:100480001A4C05E023461C1D2A46151D12681A60E9
:10049000174B9C42F6D3174C174D03E023461C1D07
:1004A00000221A60AC42F9D3FFF7BAFF134C02E006
:1004B000236898470434124B9C42F9D304F090FD12
:1004C000104C02E02368984704340F4B9C42F9D348
:1004D000FFF7AEFF00BF00BF0008002000000020B3
:1004E00000040020000400207866000800080020B6
:1004F0005008002050080020A81F0020EC00000831
:10050000EC000008EC000008EC000008000000000F
:10051000FEE700BF00000000000000000000000037
:1005200072B6FEE7000000000000000000000000BE
:1005300008B500F035FA202383F3118800F000FAA3
:1005400000F06EF900F014FA002383F3118800F034
:1005500047FA00F035F800BF08BD00BF00000000FA
:1005600082B0EFF309830193019B20330193019B38
:1005700083F30988002383F3118800BF02B070471A
:1005800008B50A4B00229A60084B094ADA6010212C
:10059000072000F0CDF84FF400710A2000F0C8F8F1
:1005A00080210B2000F0C4F800BF08BD00ED00E082
:1005B0000000FA050000000000000000000000003C
:1005C00082B0202383F311881E4B5B6803F4006321
:1005D000002B31D0EFF309830193019B203B019362
:1005E000019B83F30988019B4FF08072DA61164BFF
:1005F0009B69002B0BD0144B1B689A68124BDB696C
:100600009B689A428CBF01230023DBB20AE00E4BA9
:100610001B689A680C4BDB699B689A422CBF0123CC
:100620000023DBB2002B03D0019B084A9A6106E04D
:10063000019B074A9A6102E0002383F3118802B00C
:10064000704700BF00ED00E07C0D0020610600084F
:100650006C06000800000000000000000000000020
:1006600000F03EF900F064FC00F052F900DF00BF3A
:1006700003460A462DE9F04FC2F80CD0D3F80CD04F
:10068000BDE8F08F00BF00BF0000000000000000C8
:1006900008B500F03DF9002383F311882846A047F0
:1006A00000F07EFD00BF08BD00000000000000005B
:1006B00010B485B001900091019BDB0003F018039A
:1006C0000393194C019B9B081749019A9208C03269
:1006D00051F82220FF20039900FA01F1C94311408B
:1006E0000098039A00FA02F20A43C03344F8232028
:1006F0000D49019B5B09019A02F01F02012000FADB
:1007000002F2603341F823200749019B5B09019AFB
:1007100002F01F02012000FA02F241F8232000BF7C
:1007200005B010BC704700BF00E100E00000000011
:1007300010B485B001900091019B03F00303DB002E
:1007400003930D4C019B9B080B49019A92080632BA
:1007500051F82220FF20039900FA01F1C94311400A
:100760000098039A00FA02F20A43063344F8232061
:1007700000BF05B010BC704700ED00E000000000B5
:1007800082B00190024BDB69024A9A61FEE700BF2A
:100790007C0D0020C05B000800000000000000008D
:1007A00000B583B0FFF7ECFE00F08AFA00F0C0F964
:1007B00001F0CEF900F064F94021124800F000FC8D
:1007C0000246114BDA61104BDB69012283F82020CD
:1007D0000D4BDB690D4ADA6100F06AF8002383F300
:1007E000118862B6084BDB69094A9A6100230093BD
:1007F000084B0122C021084800F07AFC00BF03B07A
:100800005DF804FB100900207C0D0020000400208E
:10081000C85B0008810700085008002000000000A5
:1008200000B583B000F0FCF81D4B9B69002B04DD84
:100830001B4B9B69013B1A4A9361194BDB695A6A4E
:1008400001325A62174BDB680133164AD360154BED
:100850001B68144A93421FD0124B1B689A68013AD6
:100860009A6012E0019BDB680093019B0022DA6032
:10087000019B1B680B4A5A60019B1B68094A136065
:10088000019B1A69009B10469847064B1B68019311
:10089000019B9B68002BE5D000BF03B05DF804FB13
:1008A0007C0D00206C0D0020000000000000000006
:1008B00008B5064B1B68002B03D1054B1B68002BAA
:1008C00002D0044800F024F900BF08BD58090020F8
:1008D0005C090020E05B0008000000000000000050
:1008E00008B5084B1B68002B03D1074B1B68002B76
:1008F00002D0064800F00CF9034B01221A6000BF39
:1009000008BD00BF580900205C090020E85B000812
:1009100008B5084B1B68002B03D1074B1B68002B45
:1009200002DC064800F0F4F8034B00221A6000BF16
:1009300008BD00BF580900205C090020F05B0008DA
:1009400008B5084B1B68002B03DD074B1B68002B09
:1009500002D0064800F0DCF8034B01221A6000BF09
:1009600008BD00BF580900205C090020F85B0008A2
:1009700008B5084B1B68002B03DD074B1B68002BD9
:1009800002DC064800F0C4F8034B00221A6000BFE6
:1009900008BD00BF580900205C090020005C000869
:1009A00008B5202383F311880A4B1B68002B03DB57
:1009B000094B1B68002B02D0084800F0A9F8054B32
:1009C0001B680133034A1360002383F3118800BFBF
:1009D00008BD00BF580900205C090020085C000821
:1009E00008B5202383F311880A4B1B68002B03DD15
:1009F000094B1B68002B02D0084800F089F8054B12
:100A00001B68013B034A1360002383F3118800BF76
:100A100008BD00BF580900205C090020105C0008D8
:100A200008B5064B1B68002B03DB054B1B68002B2E
:100A300002DC044800F06CF800BF08BD5809002033
:100A40005C090020185C00080000000000000000A5
:100A500008B5064B1B68002B03D1054B1B68002B08
:100A600002DC044800F054F800BF08BD580900201B
:100A70005C090020205C000800000000000000006D
:100A8000034B40221A60024B024A5A6000BF704773
:100A9000600900206809002000000000000000003C
:100AA00082B00190124B5B68124AD2681A60104BF8
:100AB0005B68114AD2695A600D4B5B68019A926A71
:100AC0009A600B4B5B68019A92F820201A73084BCE
:100AD0005B681033064A5360054B5B68074A9342D4
:100AE00002D3034B064A5A6000BF02B0704700BFF2
:100AF000600900206C0D00207C0D0020680D002096
:100B00006809002000000000000000000000000054
:100B100000B583B00190044A019B1360FFF700FD0C
:100B200000BF03B05DF804FB680D0020000000006A
:100B3000074B074A5A60064B5B68054A1360044B33
:100B40004FF0FF329A60024B0022DA6000BF70471C
:100B50006C0D0020000000000000000000000000FC
:100B600000B587B00390029101920093FFF758FF00
:100B7000039B002B05D0019B002B02D0029B002B76
:100B800002D11D48FFF7C4FF039B009A1A61039B23
:100B9000019ADA60194B1B68059307E0059B9B6877
:100BA000029AD31A0293059B1B680593059B9A68CA
:100BB000029B9A42F2D3039B059A1A60039B1B681F
:100BC0005A68039B5A60039B5B68059A03995160BE
:100BD000059A52681A60039B029A9A60059B074A1D
:100BE000934205D0059B9A68029BD21A059B9A6096
:100BF00000BF07B05DF804FB305C00086C0D0020FE
:100C000000B583B00190FFF70BFF019B002B02D1D1
:100C10001448FFF77DFF019BDB68002B02D11248CF
:100C2000FFF776FF019B1B68104A934208D0019B97
:100C30001B68019A12689168019A92680A449A6046
:100C4000019B5B68019A12681A60019B1B68019AFC
:100C500052685A60019B0022DA6000BF03B05DF861
:100C600004FB00BF405C0008505C00086C0D0020D5
:100C700084B00190019B1B680393039B1A68019B3E
:100C80001A60019B1B68019A5A60039B184604B0C6
:100C9000704700BF000000000000000000000000DE
:100CA00082B00190019B5B68019A12681A60019BF7
:100CB0001B68019A52685A60019B184602B070473F
:100CC0000A4B0A4A5A60094B5B68084A1360074B93
:100CD00000229A60054B14229A61044B034A5A6120
:100CE000024B5B69014A136100BF70477C0D002015
:100CF00000B585B00190019B93F82030002B04D003
:100D0000019B93F820300E2B02D11348FFF700FF10
:100D1000019B002283F82020104B0393039B1B6848
:100D20000393039B9A68019B9B689A42F6D2019BAE
:100D3000039A1A60039B5A68019B5A60019B5B6887
:100D4000039A01995160039A52681A60019B1846F0
:100D500005B05DF804FB00BF705C00087C0D00204E
:100D600000B585B003468DF80730FFF771FE164BCE
:100D7000DB690393039B9DF8072083F82020124B27
:100D800014229A611048FFF773FF02460E4BDA6196
:100D90000D4BDB69012283F820200398FFF780FECA
:100DA0006B46A3F12402039BDB699A4202D20748F7
:100DB000FFF7AEFE044BDB6903991846FFF758FCBA
:100DC00000BF05B05DF804FB7C0D0020845C0008CA
:100DD00000B585B00190019B0393039B93F82030ED
:100DE0000D2B27D801A252F823F000BF450E0008B2
:100DF000350E0008350E0008250E0008350E0008D7
:100E00002F0E0008350E0008350E0008350E0008BC
:100E1000350E0008350E0008350E0008350E0008A6
:100E20002F0E0008039B9B6A9A6801329A60039810
:100E3000FFF736FF039B4FF0FF329A620398FFF7EC
:100E400057FF00E000BF05B05DF804FB00000000A4
:100E500000B589B0034600918DF80730FFF7F8FD23
:100E6000009BB3F1FF3F13D00F4BDB6903A80F4A80
:100E70000099FFF775FE9DF807301846FFF770FFE1
:100E8000069B002B09D003AB1846FFF7B9FE04E020
:100E90009DF807301846FFF763FF034BDB699B6A39
:100EA000184609B05DF804FB7C0D0020D10D000848
:100EB00000B585B001900091FFF7CAFD019B009A33
:100EC0009A62019B9A68174BDB699B689A4203D828
:100ED0000198FFF70DFF20E0124BDB691846FFF782
:100EE00007FF03900F4B14229A610E4A019BD361B6
:100EF000019B012283F820200398FFF7D1FD6B4668
:100F0000A3F12402039BDB699A4202D20648FFF751
:100F1000FFFD03990198FFF7ABFB00BF05B05DF83B
:100F200004FB00BF7C0D0020845C00080000000072
:100F300000B583B0154B14229A61144BDB69019301
:100F40001248FFF795FE0246104BDA610F4BDB6942
:100F5000012283F820200198FFF7CAFE0198FFF7CD
:100F60009FFD6B46A3F12402019BDB699A4202D2EA
:100F70000748FFF7CDFD054BDB6901991846FFF7E0
:100F800077FB00BF03B05DF804FB00BF7C0D0020C1
:100F9000845C000800000000000000000000000069
:100FA00084B00190019B1B680393039B1A68019B0B
:100FB0001A60039B184604B0704700BF0000000091
:100FC00082B001900091019B009A9A60019B0222DD
:100FD00083F82020019B002283F82120019B009AA6
:100FE0005A64019B00221A64019B0022DA63019B70
:100FF00000225A62019B00229A61019B124A1A61E7
:10100000114B5A69019B5A61019B5B690E49019A18
:101010004A610D4A52691A61019B03F12C02019B3E
:10102000DA62019B03F13002019B5A63019B5A6B08
:10103000019B1A63019B03F14802019BDA61019B4A
:10104000184602B0704700BF7C0D00200000000071
:1010500084B00390029113468DF8073005E0039B9E
:101060005A1C03929DF807201A70039A029B9A4219
:10107000F5D300BF04B0704700000000000000007E
:1010800000B587B00390029101920093039B0593F2
:10109000FFF7C6FC039B002B08D0029BAF2B05D9A2
:1010A000019B7F2B02D8009B002B02D10E48FFF73B
:1010B0002FFD029B243B039A1A44059BDA60059B93
:1010C000DB68009A1A60059BDB68089A5A60059BEA
:1010D000DB68064A1A6201990598FFF771FF03461B
:1010E000184607B05DF804FBA05C000891060008F4
:1010F00000B589B00590049103920293059B483393
:10110000FF2219460598FFF7A3FF059B03F148004E
:10111000059A049B134455221946FFF799FF202393
:1011200083F31188FFF7DCFB0A9B0093029B039A71
:1011300004990598FFF7A4FF079000210798FFF78F
:10114000B7FEFFF7E5FB002383F31188079B1846E2
:1011500009B05DF804FB00BF0000000000000000C3
:1011600000B583B00190019B002B02D10A48FFF724
:10117000CFFC202383F31188FFF7B2FB01990620EF
:10118000FFF766FEFFF7C4FB002383F3118800BF5F
:1011900003B05DF804FB00BFE05C00080000000045
:1011A00000B583B00190202383F31188FFF798FBEB
:1011B000019800F005F800BF03B05DF804FB00BF24
:1011C00000B585B00190184BDB690393039B019A2E
:1011D0009A6208E0039B2C331846FFF7E1FE0346B2
:1011E0001846FFF785FD039BDA6A039B2C339A426E
:1011F000F0D1039B93F8213003F00303002B09D1B6
:10120000039B5B69039A12691A61039B1B69039A2A
:1012100052695A610E20FFF7A3FD0448FFF778FCDE
:1012200000BF05B05DF804FB7C0D0020F05C0008F9
:1012300000B583B001900091019B002B02D0009B70
:10124000002B02DA0848FFF763FC019A019B5A6001
:10125000019B5A68019B1A60019B009A9A6000BF2B
:1012600003B05DF804FB00BF305D00080000000023
:1012700084B001900091009B0393039B1B68039330
:10128000039A009B9A4205D0039B9A68019B9B6836
:101290009A42F2D2019B039A1A60039B5A68019BFF
:1012A0005A60019B5B68039A01995160039A5268E6
:1012B0001A6000BF04B0704700000000000000008A
:1012C00084B00190019B1B680393039B1A68019BE8
:1012D0001A60019B1B68019A5A60039B184604B070
:1012E000704700BF00000000000000000000000088
:1012F00082B00190019B5B68019A12681A60019BA1
:101300001B68019A52685A60019B184602B07047E8
:1013100000B583B00190019B002B02D10848FFF774
:10132000F7FB019A019B5A60019B5A68019B1A6066
:10133000019B00229A6000BF03B05DF804FB00BF70
:10134000805E0008000000000000000000000000B7
:1013500000B583B00190202383F31188FFF7C0FA12
:10136000019800F00DF8FFF7D3FA002383F31188FA
:1013700000BF03B05DF804FB0000000000000000A7
:1013800000B585B001903C4BDB690293FFF760FB31
:10139000019B002B02D13948FFF7BAFB019B9B68E8
:1013A000002B5AD0019B9B68039334E0029B9A6800
:1013B000039B9A60039B93F82030042B04D0052BE9
:1013C00011D0002B1AD02CE00398FFF791FF0246B2
:1013D000039B9B6A19461046FFF74AFF039B9B6AD3
:1013E0009B68039317E00398FFF782FF0246039B75
:1013F0009B6A19461046FFF73BFF0BE0039B012257
:1014000083F820200398FFF773FF03461846FFF781
:101410006FFC00BF05E0039B9A68029B9B689A42A1
:10142000C4D3019B19460298FFF722FF029B019A41
:101430009A620420FFF794FC019B9A68029B9A42EF
:1014400002D00F48FFF764FB029B1A6C019B9A4283
:101450000DD00C48FFF75CFB09E0019B029A9A60F3
:10146000029B1A6C019BDA60029B019A1A6400BF0E
:1014700005B05DF804FB00BF7C0D0020905E000805
:10148000A05E0008B45E000800000000000000003C
:1014900000B587B0314BDB690393202383F31188B8
:1014A000FFF71EFA039B1B6C002B02D12C48FFF7A1
:1014B0002FFB039B1B6C9A68039B9A4202D029481E
:1014C000FFF726FB039B1B6C0293029BDA68039BCE
:1014D0001A64029B1A68029B9A4232D0039B5B6C8F
:1014E0000493039B1B6C059311E0059B1A68059BF5
:1014F0009A4209D0059B1B689A68049B9A4203D9BB
:10150000059B1B689B680493059BDB680593059B03
:10151000002BEAD1039B049A9A60029B1846FFF7BE
:10152000CFFE0190029B019A9A60019B1A6C029B6C
:10153000DA60019B029A1A6400210198FFF7B8FC57
:1015400002E0029B00229A60FFF7E2F9002383F396
:101550001188029B184607B05DF804FB7C0D002043
:10156000DC5E0008F05E00080000000000000000E3
:1015700000B583B001900091FFF752FA019B002B58
:1015800002D11648FFF7C4FA019BDA6B009B1A439D
:10159000019BDA63019B93F82030082B06D1019B55
:1015A000DA6B019B9B6A1340002B0DD1019B93F8D2
:1015B0002030092B0ED1019BDA6B019B9B6A1A40EC
:1015C000019B9B6A9A4205D10198FFF791FB024665
:1015D0000023936200BF03B05DF804FB6C5F00085A
:1015E00000B585B001900091FFF71AFA019B002B1E
:1015F00002D10D48FFF78CFA019B1B6803930BE0A7
:10160000039B5868039B9A68009B13431946FFF796
:10161000AFFF039B1B680393039A019B9A42EFD190
:1016200000BF05B05DF804FB805F0008000000000B
:1016300082B001900091019B009A1A60009B5A6849
:10164000019B5A60019B5B68009A01995160009A66
:1016500052681A6000BF02B0704700BF000000006F
:1016600084B00190019B1B680393039B1A68019B44
:101670001A60019B1B68019A5A60039B184604B0CC
:10168000704700BF000000000000000000000000E4
:1016900000B583B001900091009B002B02D14FF068
:1016A000FF330FE0094BDB69019A9A62074BDB6954
:1016B000019A11461846FFF7BBFF00990D20FFF76E
:1016C000C7FB0346184603B05DF804FB7C0D002001
:1016D00084B00390029101920093039A039B5A6095
:1016E000039B5A68039B1A60039B00229A60039B2A
:1016F000029A5A61039B5A69039B9A61039B9A69F8
:10170000039BDA60029A019B1A44039B1A61039BB4
:10171000009ADA6100BF04B0704700BF000000000B
:1017200000B583B001900B468DF80330FFF778F9D0
:10173000019B5A69019B9B699A4206D1019B9B6858
:10174000002B02D06FF0030327E0019B9B685A1C1B
:10175000019B9A60019B5B69591C019A51619DF83C
:1017600003201A70019B5A69019B1B699A4203D39B
:10177000019BDA68019B5A61019B1A68019B9A429E
:101780000AD0019B1846FFF76BFF03461846FFF788
:10179000AFFA0246002393620023184603B05DF8B7
:1017A00004FB00BF0000000000000000000000007B
:1017B00000B585B001900091202383F31188FFF7D5
:1017C0008FF8019BDB69002B13D0019BDB6901982B
:1017D00098470EE000990198FFF75AFF0390039B8A
:1017E000002B06DAFFF794F8002383F31188039B9C
:1017F00021E0019B9B68002BECD0019B9B685A1E4B
:10180000019B9A60019B9B69591C019A91611B780D
:101810008DF80B30019B9A69019B1B699A4203D397
:10182000019BDA68019B9A61FFF772F8002383F34A
:1018300011889DF80B30184605B05DF804FB00BF19
:1018400000B587B00390029101920093039BDB697E
:10185000049300230593019B002B02D12948FFF735
:1018600057F9202383F31188FFF73AF8049B002BE4
:1018700011D0049B039898470DE000990398FFF757
:1018800007FF0346002B06D0FFF742F8002383F33F
:101890001188059B32E0039B9B68002BEDD0039BD6
:1018A0009B685A1E039B9A60029B5A1C0292039AE1
:1018B0009269501C0399886112781A70039B9A6987
:1018C000039B1B699A4203D3039BDA68039B9A61CB
:1018D000FFF71EF8002383F31188059B013305935E
:1018E000019B013B0193019B002B01D1059B05E06E
:1018F000202383F31188FEF7F3FFB7E7184607B0FC
:101900005DF804FBC05F000800000000000000005C
:1019100084B00390029101920093039A039B5A6052
:10192000039B5A68039B1A60039B019A9A60039B6E
:10193000029A5A61039B5A69039B9A61039B9A69B5
:10194000039BDA60029A019B1A44039B1A61039B72
:10195000009ADA6100BF04B0704700BF00000000C9
:1019600000B587B003900B4601928DF80B30202311
:1019700083F31188FEF7B4FF0EE001990398FFF797
:1019800087FE0590059B002B06DAFEF7C1FF0023BA
:1019900083F31188059B28E0039B9B68002BECD008
:1019A000039B9B685A1E039B9A60039B5B69591CAF
:1019B000039A51619DF80B201A70039B5A69039B8F
:1019C0001B699A4203D3039BDA68039B5A61039B0A
:1019D000DB69002B03D0039BDB6903989847FEF774
:1019E00097FF002383F311880023184607B05DF8A2
:1019F00004FB00BF00000000000000000000000029
:101A000000B585B00190FFF70BF8019B5A69019B67
:101A10009B699A4206D1019B9B68002B02D06FF014
:101A2000020328E0019B9B685A1C019B9A60019B62
:101A30009B69591C019A91611B788DF80F30019BAD
:101A40009A69019B1B699A4203D3019BDA68019B47
:101A50009A61019B1A68019B9A420AD0019B184621
:101A6000FFF7FEFD03461846FFF742F90246002342
:101A700093629DF80F30184605B05DF804FB00BF77
:101A800000B587B00390029101920093039BDB693C
:101A9000049300230593019B002B02D12948FFF7F3
:101AA00037F8202383F31188FEF71AFF0DE0009921
:101AB0000398FFF7EDFD0346002B06D0FEF728FF45
:101AC000002383F31188059B38E0039B9B68002B60
:101AD000EDD0039B9B685A1E039B9A60039B5B6936
:101AE000591C039A5161029A511C029112781A7082
:101AF000039B5A69039B1B699A4203D3039BDA68D1
:101B0000039B5A61049B002B02D0049B03989847C7
:101B1000FEF7FEFE002383F31188059B0133059336
:101B2000019B013B0193019B002B01D1059B05E02B
:101B3000202383F31188FEF7D3FEB7E7184607B0DA
:101B40005DF804FBD45F0008000000000000000006
:101B5000074B073323F007031A46064B1A60064B60
:101B600023F007031A46054B1A6000BF704700BFF9
:101B7000A81F00209C0D002000500020A00D002078
:101B800008B500F0FDFC074802F05AF800F010F824
:101B900000F05EF800F0F4F800F062FA02F018F9D4
:101BA00000BF08BD40650008000000000000000004
:101BB00008B500F0EDFE00BF08BD00BF000000004A
:101BC00082B00190019B01221A70019B00225A6091
:101BD00000BF02B0704700BF00000000000000001E
:101BE00000B583B001900091019B002B02D0009BB7
:101BF000002B02D11248FEF78BFF202383F31188BC
:101C0000FEF76EFE019B1B78012B06D0019B1B7813
:101C1000022B02D00B48FEF77BFF019B009A5A6013
:101C2000019800F0BDFE019B02221A70FEF770FEC3
:101C3000002383F3118800BF03B05DF804FB00BFED
:101C4000F05F0008006000080000000000000000D5
:101C500008B500F0BDFF00BF08BD00BF00000000D8
:101C600082B00190019B01221A70019B00225A60F0
:101C700000BF02B0704700BF00000000000000007D
:101C800000B583B001900091019B002B02D0009B16
:101C9000002B02D11248FEF73BFF202383F311886B
:101CA000FEF71EFE019B1B78012B06D0019B1B78C3
:101CB000022B02D00B48FEF72BFF019B009A5A60C3
:101CC000019800F0B5FF019B02221A70FEF720FE7A
:101CD000002383F3118800BF03B05DF804FB00BF4D
:101CE000906000089C6000080000000000000000F8
:101CF00000B583B001900B46ADF80230202383F38A
:101D00001188FEF7EDFDBDF802301946019800F08C
:101D10000FF8FEF7FDFD002383F3118800BF03B029
:101D20005DF804FB0000000000000000000000005F
:101D300000B583B001900B46ADF80230FEF770FE9F
:101D4000019B002B02D10B48FEF7E2FE019B1B78A2
:101D5000022B02D00848FEF7DBFE019B04221A701A
:101D6000BDF802301946019801F012F800BF03B027
:101D70005DF804FBFC60000814610008000000002E
:101D800008B501F03DFC00BF08BD00BF0000000029
:101D900082B00190019B01221A70019B00225A60BF
:101DA00000BF02B0704700BF00000000000000004C
:101DB00000B583B001900091019B002B02D0009BE5
:101DC000002B02D11448FEF7A3FE019B1B78012BC8
:101DD0000AD0019B1B78022B06D0019B1B78052B98
:101DE00002D00E48FEF794FE202383F31188FEF7FD
:101DF00077FD019B009A5A60019801F021FC019B3C
:101E000002221A70FEF784FD002383F3118800BFBD
:101E100003B05DF804FB00BF70610008806100083A
:101E200000B58BB00790059204930B46ADF81A30BD
:101E3000079B002B15D0BDF81A30002B11D0049B46
:101E4000002B0ED0059B002B0BD00D9B002B05D03B
:101E50000D9B002B05D00C9B002B02D00E9B002B62
:101E600002D11C48FEF754FE079B1B78022B02D0C0
:101E70001948FEF74DFE202383F31188FEF730FD4D
:101E8000079B00229A60079B03221A70BDF81A1064
:101E90000E9B02930D9B01930C9B0093049B059A50
:101EA000079801F05DFC0990099BB3F1FF3F03D156
:101EB000079B05221A7002E0079B02221A70FEF7A8
:101EC00027FD002383F31188099B18460BB05DF8AA
:101ED00004FB00BFC0610008E061000800000000D2
:101EE00000B585B0039002910192039B03F130008D
:101EF0004FF0FF33019A0299FFF7C2FD03461846DF
:101F000005B05DF804FB00BF000000000000000009
:101F100000B585B0039002910192039B03F110007C
:101F20004FF0FF33019A0299FFF78AFC03461846E7
:101F300005B05DF804FB00BF0000000000000000D9
:101F400082B00190019B9B6B002B0CBF01230023EF
:101F5000DBB2184602B0704700000000000000002D
:101F600082B00190019B9B69002B0CBF01230023D1
:101F7000DBB2184602B0704700000000000000000D
:101F800000B585B003900B4601928DF80B30039B92
:101F900030339DF80B10019A1846FFF7E1FC034619
:101FA000184605B05DF804FB0000000000000000CA
:101FB00000B583B001900091019B10330099184641
:101FC000FFF7F6FB0346184603B05DF804FB00BFBD
:101FD00000B585B00390029101920093039B03F139
:101FE0003000009B019A0299FFF74AFD034618460C
:101FF00005B05DF804FB00BF000000000000000019
:1020000000B585B00390029101920093039B03F108
:102010001000009B019A0299FFF712FC0346184634
:1020200005B05DF804FB00BF0000000000000000E8
:1020300000B585B00190202383F31188FEF750FC92
:10204000019B9B680393019B00229A60FEF760FC52
:10205000002383F31188039B184605B05DF804FB49
:1020600008B501F0A5FD00BF08BD00BF00000000DD
:1020700000B585B0039002910192039B124A1A6049
:10208000039B1A1D039B5A60039B00229A60039BCB
:1020900001221A73039B03F11000039B03F150010B
:1020A000029B4FF40072FFF713FB039B03F1300018
:1020B000039B03F51471019B4FF40072FFF728FC9A
:1020C00000BF05B05DF804FB80640008000000005C
:1020D00000B583B001900091019B002B02D1114803
:1020E000FEF716FD202383F31188FEF7F9FB019B11
:1020F0001B7B012B06D0019B1B7B022B02D00A48C5
:10210000FEF706FD0099019801F06AFD019B02228D
:102110001A73FEF7FDFB002383F3118800BF03B0A1
:102120005DF804FB406200084C62000800000000FB
:1021300000B583B001900B468DF80330FEF770FCBC
:10214000019B002B02D11748FEF7E2FC019B9B6923
:10215000002B0BD1019B9B6843F00402019B9A600A
:10216000019B043300211846FFF73AFA019B103314
:102170009DF8032011461846FFF7D2FA0346002BBC
:102180000BDA019B9B6843F08002019B9A60019BE4
:10219000043300211846FFF723FA00BF03B05DF8AF
:1021A00004FB00BF7862000800000000000000008F
:1021B00000B583B0FEF7F4FB0D4B1B6803F00F0373
:1021C00001930B4B0F225A600A4B1B68002B06D061
:1021D000084B1B68074A5268019910469847FEF75A
:1021E000FFFBFEF7EDF900BF03B05DF804FB00BF95
:1021F00000000240A80D00200000000000000000C8
:1022000000B583B0FEF7CCFB0D4B1B681B0903F038
:102210000F0301930A4BF0225A600A4B9B68002B74
:1022200006D0084B9B68074AD26801991046984728
:10223000FEF7D6FBFEF7C4F900BF03B05DF804FB60
:1022400000000240A80D0020000000000000000077
:1022500000B583B0FEF7A4FB0E4B1B681B0A03F00E
:102260000F0301930B4B4FF470625A600A4B1B69CA
:10227000002B06D0084B1B69074A5269019910468A
:102280009847FEF7ADFBFEF79BF900BF03B05DF882
:1022900004FB00BF00000240A80D00200000000069
:1022A00000B583B0FEF77CFB0E4B1B681B0B03F0E5
:1022B0000F0301930B4B4FF470425A600A4B9B691A
:1022C000002B06D0084B9B69074AD269019910463A
:1022D0009847FEF785FBFEF773F900BF03B05DF882
:1022E00004FB00BF00000240A80D00200000000019
:1022F00000B583B0FEF754FB0E4B1B681B0C03F0BC
:102300000F0301930B4B4FF470225A600A4B1B6A68
:10231000002B06D0084B1B6A074A526A01991046E7
:102320009847FEF75DFBFEF74BF900BF03B05DF881
:1023300004FB00BF00000240A80D002000000000C8
:1023400000B583B0FEF72CFB0E4B1B681B0D03F092
:102350000F0301930B4B4FF470025A600A4B9B6AB8
:10236000002B06D0084B9B6A074AD26A0199104697
:102370009847FEF735FBFEF723F900BF03B05DF881
:1023800004FB00BF00000240A80D00200000000078
:1023900000B583B0FEF704FB0E4B1B681B0E03F069
:1023A0000F0301930B4B4FF070625A600A4B1B6B8B
:1023B000002B06D0084B1B6B074A526B0199104645
:1023C0009847FEF70DFBFEF7FBF800BF03B05DF882
:1023D00004FB00BF00000240A80D00200000000028
:1023E00082B0114B00221A600023019311E00F49C3
:1023F000019A13465B0013449B000B441B680022A8
:102400001A600B4A019B002142F83310019B0133F3
:102410000193019B062BEADD064B4FF0FF325A6019
:1024200000BF02B0704700BFA40D0020B0640008D8
:10243000A80D002000000240000000000000000085
:1024400000B585B00390029101920093039B002B8D
:1024500002D12D48FEF75CFB039B5B7A1A460123F1
:1024600093401A46294B1B681340002B01D00123CF
:1024700045E0039B5B7A1946254A019B42F83130BF
:10248000039B5B7A224ADB001344009A5A60039B49
:102490005B7A1A46012393401A461C4B1B68134370
:1024A0001A4A1360194B1B6803F07F03002B05D0F9
:1024B000184A184B5B6943F001035361039B1B6887
:1024C000039A1268126822F001021A60039B5B688B
:1024D000039A127A11460F228A401A60039B1B68E6
:1024E00000221A60019B002B08D0039B9B7A1A469E
:1024F000029B1B0119461046FEF7DAF80023184626
:1025000005B05DF804FB00BFA0620008A40D002028
:10251000A80D002000100240000000000000000094
:10252000134A134B1B6843F480731360114B1B6AEF
:1025300003F44073B3F5407F06D00E4B4FF4803266
:102540001A620C4B00221A620A4B1B6A03F4004306
:10255000002B0BD1074A074B1B6A43F440731362ED
:10256000044A044B1B6A43F40043136200BF7047E4
:102570000070004000100240000000000000000059
:1025800008B51C4B1B691B4B4FF0FF321A61194BEE
:1025900000221A61174BDB68164B4FF0FF32DA60EE
:1025A000144B0022DA60144B144A5A60124B00227A
:1025B0009A60114B07221A60114A114BDB6843F0F5
:1025C0008073D3600F4A0F4B1B6843F00103136005
:1025D000084A084BDB6943F08053D361054A054B39
:1025E000DB6943F00063D361FFF79AFFFFF7F8FE62
:1025F00000BF08BD0010024010E000E07F32020082
:10260000F0ED00E0001000E000000000000000001D
:102610002F4A2F4B1B6843F00103136000BF2C4B64
:102620001B6803F00203002BF9D0294A284B1B68D2
:1026300003F0F9031360264B00225A6000BF244BBD
:102640005B6803F00C03002BF9D1214A204B1B6877
:1026500043F48033136000BF1D4B1B6803F4003349
:10266000002BF9D01A4A1A4B5B6A43F001035362FC
:1026700000BF174B5B6A03F00203002BF9D0144A2A
:10268000134B5B6843F4E8135360114A104B1B680B
:1026900043F08073136000BF0D4B1B6803F00073A1
:1026A000002BF9D00A4B0B4A5A600B4B12221A60CE
:1026B000074A074B5B6843F00203536000BF044BBB
:1026C0005B6803F00C03082BF9D100BF704700BF13
:1026D0000010024000641D000020024000000000C5
:1026E00008B5FEF75DF9074B01225A61064B5B689E
:1026F0005B68002104489847FEF772F9FDF760FF18
:1027000000BF08BD00040140E00D002000000000F3
:1027100008B5FEF745F9074B02225A61064B5B6884
:10272000DB68012104489847FEF75AF9FDF748FF96
:1027300000BF08BD00040140E00D002000000000C3
:1027400008B5FEF72DF9074B04225A61064B5B686A
:102750005B69022104489847FEF742F9FDF730FF14
:1027600000BF08BD00040140E00D00200000000093
:1027700008B5FEF715F9074B08225A61064B5B684E
:10278000DB69032104489847FEF72AF9FDF718FF93
:1027900000BF08BD00040140E00D00200000000063
:1027A00008B5FEF7FDF8074B10225A61064B5B682F
:1027B0005B6A042104489847FEF712F9FDF700FF11
:1027C00000BF08BD00040140E00D00200000000033
:1027D00000B583B0FEF7E4F8234B5B6903F478732C
:1027E0000193214A019B5361019B03F02003002BBD
:1027F00005D01E4B5B68DB6A05211C489847019B8E
:1028000003F04003002B05D0184B5B685B6B06217F
:1028100016489847019B03F08003002B05D0134B0B
:102820005B68DB6B072111489847019B03F48073B9
:10283000002B05D00D4B5B685B6C08210B4898475B
:10284000019B03F40073002B05D0084B5B68DB6C25
:10285000092106489847FEF7C3F8FDF7B1FE00BF0F
:1028600003B05DF804FB00BF00040140E00D002050
:1028700000B583B0FEF794F8284B5B6903F47C4302
:102880000193264A019B5361019B03F48063002B53
:1028900005D0234B5B685B6D0A2121489847019B5B
:1028A00003F40063002B05D01D4B5B68DB6D0B212F
:1028B0001B489847019B03F48053002B05D0184B0D
:1028C0005B685B6E0C2116489847019B03F400532C
:1028D000002B05D0124B5B68DB6E0D21104898472A
:1028E000019B03F48043002B05D00D4B5B685B6FAD
:1028F0000E210B489847019B03F40043002B05D0A1
:10290000074B5B68DB6F0F2105489847FEF768F8B7
:10291000FDF756FE00BF03B05DF804FB0004014064
:10292000E00D00200000000000000000000000009A
:1029300008B5FEF735F8084B4FF480325A61074B63
:102940005B68D3F88430102104489847FEF748F8B4
:10295000FDF736FE00BF08BD00040140E00D002079
:1029600008B5FEF71DF8084B4FF480225A61074B5B
:102970005B68D3F89430122104489847FEF730F88A
:10298000FDF71EFE00BF08BD00040140E00D002061
:1029900008B50248FFF714F900BF08BDE00D00209C
:1029A00000B589B00190019B1B78012B27D16021D4
:1029B0000620FDF77DFE60210720FDF779FE6021EE
:1029C0000820FDF775FE60210920FDF771FE6021EA
:1029D0000A20FDF76DFE60211720FDF769FE6021DA
:1029E0002820FDF765FE60210120FDF761FE6021D2
:1029F0002920FDF75DFE60212A20FDF759FE002306
:102A00000393039B0493049B0593059B0693002368
:102A1000079346E0019B5B68079A53F8323003F056
:102A20000403002B3AD0019B5A68079BDB00134438
:102A30005B68002B08D00122079B02FA03F31A46B9
:102A4000069B1343069307E00122079B02FA03F358
:102A50001A46059B13430593019B5B68079A53F83D
:102A6000323003F00103002B07D00122079B02FA4A
:102A700003F31A46049B13430493019B5B68079A74
:102A800053F8323003F00203002B07D00122079BDA
:102A900002FA03F31A46039B13430393079B013384
:102AA0000793079B122BB5D9164A019B5B68B3F8B5
:102AB00098309360134A019B5B68B3F89A30D360F7
:102AC000104A019B5B68B3F89C3013610D4A019B6F
:102AD0005B68B3F89E3053610B4B00221A610A4ABF
:102AE000049B9360084A039BD360074B074A5A61D3
:102AF000054A059B5360044A069B136000BF09B05A
:102B00005DF804FB0000014000040140FFFF0700E6
:102B100000B583B00190019BDB6800221A82019B03
:102B20001B78042B05D1019B02221A70019800F03A
:102B300057F9019B5B685B680198984700BF03B039
:102B40005DF804FB00000000000000000000000031
:102B500008B5FDF725FF0448FFF7DAFFFDF740FF52
:102B6000FDF72EFD00BF08BDE80D002000000000AD
:102B700008B5FDF715FF0448FFF7CAFFFDF730FF62
:102B8000FDF71EFD00BF08BDF80D0020000000008D
:102B900008B5FDF705FF0448FFF7BAFFFDF720FF72
:102BA000FDF70EFD00BF08BD080E0020000000006C
:102BB00008B5FDF7F5FE0448FFF7AAFFFDF710FF83
:102BC000FDF7FEFC00BF08BD180E0020000000004D
:102BD00008B50D4B0D4ADA600B48FFF741F80C4B76
:102BE0004FF08042DA600A48FFF73AF8094B0A4A88
:102BF000DA600848FFF734F8084B094ADA600748FA
:102C0000FFF72EF800BF08BDE80D0020002C0140A2
:102C1000F80D0020080E002000040040180E0020CF
:102C2000000800400000000000000000000000005C
:102C300000B585B00190019B1B78012B67D1019BEA
:102C40004B4A934215D14B4A4A4B9B6943F400636C
:102C50009361484A474BDB6843F40063D360454BBC
:102C60000022DA6070211920FDF722FD019B424A03
:102C70009A60019B414A934215D13E4A3D4BDB6924
:102C800043F00103D3613B4A3A4B1B6943F0010314
:102C90001361384B00221A6170211C20FDF708FDDA
:102CA000019B354A9A60019B354A934215D1314ABE
:102CB000304BDB6943F00203D3612E4A2D4B1B6975
:102CC00043F0020313612B4B00221A6170211D2077
:102CD000FDF7EEFC019B284A9A60019B294A93422A
:102CE00015D1244A234BDB6943F00403D361214A05
:102CF000204B1B6943F0040313611E4B00221A6131
:102D000070211E20FDF7D4FC019B1B4A9A60019B99
:102D10009A68019B5B681B68B2FBF3F39BB2013BB3
:102D2000ADF80E30BDF80E3001331A46019B5B68DA
:102D30001B6803FB02F2019B9B689A4202D0124877
:102D4000FDF7E6FE019BDB6800221A80019BDB6831
:102D500008229A80019BDB68BDF80E201A85019B32
:102D6000DB6800229A8100BF05B05DF804FB00BF5C
:102D7000E80D00200010024000A24A04F80D0020D7
:102D8000080E0020180E0020E0620008000000007D
:102D900082B001900B46ADF80230019BDB68BDF8B4
:102DA0000220013ADA62019BDB6801229A82019BD0
:102DB000DB6800225A62019BDB6800221A82019BB9
:102DC000DB6801229A81019BDB6805221A8000BF23
:102DD00002B070470000000000000000000000008A
:102DE00082B00190019BDB6800221A80019BDB68A6
:102DF00000221A82019BDB6800229A8100BF02B088
:102E0000704700BF0000000000000000000000004C
:102E100084B00190019B1B6A0393039B4FF4004213
:102E20001A80039B00221A80039B00229A80039B36
:102E300000229A82019BDB691B68019AD2691268A1
:102E4000126822F001021A60019BDB695B68019A3B
:102E5000D269127A11460F228A401A60019B9B693F
:102E60001B68019A92691268126822F001021A60C6
:102E7000019B9B695B68019A9269127A11460F2245
:102E80008A401A6000BF04B0704700BF0000000015
:102E900000B585B00190019B0393039BDB68002B79
:102EA0000FD0039BDB6802930398FFF7B1FF039BEE
:102EB0000022DA60029B4FF0FF329A620298FDF71F
:102EC00017FF00BF05B05DF804FB00BF0000000065
:102ED00000B587B00190019B1B6A0493019B5B685E
:102EE0005B680393019B5B681B7A8DF80B30019B39
:102EF000002B06D0039B002B03DD039B664A934205
:102F000002DD6648FDF704FE049B9B889BB223F01C
:102F10003F039AB2049B9A80049B9B889BB243F028
:102F200024039AB2049B9A800023ADF8163040F631
:102F3000FF73ADF81430039B594A934230DC9DF87F
:102F40000B30012B02D05748FDF7E2FD039B5B00DD
:102F5000554A92FBF3F103FB01F3D31A002B02D085
:102F60005248FDF7D5FD039B5B004F4A92FBF3F3FC
:102F7000ADF81430BDF81430032B02D84C48FDF7DF
:102F8000C7FDBDF81430C3F30B039AB2BDF8163079
:102F900013439BB2ADF81630049B25221A846AE0D5
:102FA000039B444A934266DC9DF80B30022B06D00B
:102FB0009DF80B30032B02D03F48FDF7A9FD9DF88B
:102FC0000B30022B18D1039A13465B001344364A88
:102FD00092FBF3F103FB01F3D31A002B02D0374825
:102FE000FDF796FD039A13465B0013442E4A92FBAD
:102FF000F3F3ADF8143025E09DF80B30032B21D10D
:10300000039A13469B0013449A001344264A92FBEA
:10301000F3F103FB01F3D31A002B02D02848FDF78C
:1030200077FD039A13469B0013449A0013441E4AEB
:1030300092FBF3F3ADF81430BDF8163043F480433F
:10304000ADF81630BDF81430002B02D11D48FDF745
:103050005FFDBDF81430C3F30B039AB2BDF8163010
:1030600013439BB26FEA43436FEA5343ADF8163004
:10307000049B0B221A84BDF81430B3F5805F02D391
:103080001148FDF745FD049BBDF816209A8300BF4B
:1030900007B05DF804FB00BF00093D0000630008B5
:1030A000A086010018630008005125023063000863
:1030B00048630008801A060060630008786300080F
:1030C00090630008A8630008C063000800000000C7
:1030D00086B00190019B1B6A0493019B5B681B787F
:1030E0008DF80F30049B1B88ADF816309DF80F301B
:1030F000022B0AD0032B15D0012B1AD1BDF81630A4
:1031000023F00A03ADF8163013E0BDF8163043F093
:103110000203ADF81630BDF8163023F00803ADF801
:10312000163006E0BDF8163043F00A03ADF816304D
:1031300000BF049BBDF816201A8000BF06B0704780
:1031400000B587B00190019B1B6A0593059B1B8B03
:103150009BB20493059B9B8A9BB20393049B1A0426
:10316000039B134323F07F434E4A934212D0B3F1A3
:10317000031F03D24C4A934207D089E04B4A934243
:1031800031D04B4A934241D082E0019B1A8A059B81
:103190001A827DE0059B9B889BB223F400739AB250
:1031A000059B9A80019B9B691B68019A9269126832
:1031B000126842F001021A60059B9B889BB243F49F
:1031C00080539AB2059B9A80019B9B691B685B6840
:1031D000012B5CD8059B1B889BB223F480639AB2B9
:1031E000059B1A8053E0059B9B889BB223F40073D8
:1031F0009AB2059B9A80019BDB691B68019AD26990
:103200001268126842F001021A6041E0019B9B695A
:103210001B685B68002B0FD0019B1B8A43F00103E6
:103220009AB2019B1A82059B1B889BB243F4A06350
:103230009AB2059B1A8032E0059B9B889BB223F4CF
:1032400000739AB2059B9A80059B1B889BB243F43E
:1032500000739AB2059B1A80202383F31188FDF72F
:103260006FFB019BDB68002B0BD0019BDB6802939B
:10327000019B0022DA60029B00229A620298FDF70D
:1032800037FDFDF775FB002383F3118800E000BFD5
:10329000039B03F00A03002B01D0059B1B8B07B097
:1032A0005DF804FB02000300010003008200070038
:1032B0008400070000000000000000000000000083
:1032C00000B585B001900091019B1B6A0393009BA0
:1032D00003F00803002B01D0FDF722F9019B9B6945
:1032E0001B68019A92691268126822F001021A6042
:1032F000019B9B695B68019A9269127A11460F22C1
:103300008A401A60039B9B889BB223F480539AB235
:10331000039B9A80039B1B889BB223F480639AB221
:10332000039B1A80039B1B889BB243F400739AB2E1
:10333000039B1A80202383F31188FDF701FB019B77
:10334000DB68002B0BD0019BDB680293019B002202
:10335000DA60029B00229A620298FDF7C9FCFDF731
:1033600007FB002383F3118800BF05B05DF804FB61
:1033700000B585B001900091019B1B6A0393009BEF
:1033800003F00803002B01D0FDF7CAF8019BDB69AD
:103390001B68019AD2691268126822F001021A6051
:1033A000019BDB695B68019AD269127A11460F2290
:1033B0008A401A60039B9B889BB243F400739AB2C5
:1033C000039B9A8000BF05B05DF804FB000000007D
:1033D00000B587B00190019B1B6A0493202383F3FF
:1033E0001188FDF7ADFA019BDB691B68019AD26970
:1033F0001268126822F001021A60019BDB695B68A7
:10340000019AD269127A11460F228A401A60019BF2
:103410009B691B68019A92691268126822F0010286
:103420001A60019B9B695B68019A9269127A114646
:103430000F228A401A60FDF79BFA002383F311885C
:1034400000230593049B9B8A9BB203F48073002B9B
:103450000BD0049B9B8A9BB223F480739AB2049B8B
:103460009A82059B43F001030593049B9B8A9BB2C0
:1034700003F40073002B0BD0049B9B8A9BB223F4B4
:1034800000739AB2049B9A82059B43F00203059352
:10349000049B9B8A9BB203F48063002B1BD0049B8C
:1034A0009B8A9BB223F480639AB2049B9A82049B0A
:1034B0009B889BB223F400739AB2049B9A80049B6E
:1034C0001B889BB243F400739AB2049B1A80059B3D
:1034D00043F004030593049B9B8A9BB203F40063AF
:1034E000002B0BD0049B9B8A9BB223F400639AB2FF
:1034F000049B9A82059B43F008030593049B9B8AD7
:103500009BB203F48053002B0BD0049B9B8A9BB28D
:1035100023F480539AB2049B9A82059B43F01003D4
:103520000593049B9B8A9BB203F48043002B0BD032
:10353000049B9B8A9BB223F480439AB2049B9A8299
:10354000059B43F020030593049B9B8A9BB29BB28F
:103550001BB2002B0BDA049B9B8A9BB2C3F30E03B6
:103560009AB2049B9A82059B43F040030593059B06
:10357000002B1DD0019B059A9A60202383F31188AC
:10358000FDF7DEF9019BDB68002B0CD0019BDB68AB
:103590000393019B0022DA60039B6FF001029A62A1
:1035A0000398FDF7A5FBFDF7E3F9002383F31188EA
:1035B00000BF07B05DF804FB000000000000000041
:1035C00008B5FDF7EDF90448FFF7BAFDFDF708FA75
:1035D000FCF7F6FF00BF08BD280E00200000000029
:1035E00008B5FDF7DDF90448FFF7F2FEFDF7F8F93D
:1035F000FCF7E6FF00BF08BD280E00200000000019
:1036000008B50848FEF7C4FB064B0022DA60054BFC
:10361000054A1A62034B054A9A61024B044ADA6171
:1036200000BF08BD280E002000540040F8640008C8
:10363000EC64000800000000000000000000000032
:1036400000B585B00190019B1B6A0393019B8A2200
:103650005A61019B1B78012B3CD1019B394A934253
:1036600038D1394A384B1B6943F400131361364B88
:1036700000221A61019B9869019B344A0A21FEF7D6
:10368000DFFE0290029B002B02D03148FDF740FA8A
:10369000019BD869019B2F4A0A21FEF7D1FE0290B7
:1036A000029B002B02D02C48FDF732FA264A264B0B
:1036B000DB6943F40013D361A0211F20FCF7F8FF5E
:1036C000A0212020FCF7F4FF019B5B6943F48052AA
:1036D000019B5A61019BDB691B68019A526942F0A8
:1036E00010021A60019B9B691B68019A52691A605B
:1036F000019B9B691B68039A10329A60019BDB69EE
:103700001B68039A10329A60039B4FF400421A80A0
:10371000039B00221A80039B4FF410629A80019849
:10372000FFF7D6FB0198FFF7D3FC039B1B889BB2E6
:1037300043F001039AB2039B1A8000BF05B05DF805
:1037400004FB00BF280E002000100240C132000818
:10375000D863000871330008EC6300080000000023
:1037600000B58BB00390019200930B46ADF80A3080
:10377000039B1B6A09930D9B002B08D00D9B012B0B
:1037800002D90C9B002B02D14448FDF7C1F90E9BD6
:10379000B3F1FF3F05D004A8039B414A0E99FDF702
:1037A000DFF9FDF7B5F8002383F31188BDF80A307F
:1037B0005B009AB2039B1A82039B00229A60039BD0
:1037C000DB691B68019ADA60039BDB691B68009A5E
:1037D0005A60039B9B691B680C9ADA60039B9B6988
:1037E0001B680D9A5A6013E0202383F31188FDF7BC
:1037F00077F80E9BB3F1FF3F05D0079B002B02D15A
:103800004FF0FF3346E0FDF783F8002383F3118880
:10381000099B1B8B9BB203F00203002BE4D1099B95
:103820001B889BB203F40073002BDDD1202383F3AC
:103830001188FDF755F80E9BB3F1FF3F05D0079BAC
:10384000002B02D14FF0FF3324E0099B9B889BB2F1
:1038500043F400739AB2099B9A80099B1B889BB220
:1038600043F480739AB2099B1A800E4BDA69039B6A
:10387000DA600220FDF774FA0E9BB3F1FF3F06D029
:10388000079B002B03D004AB1846FDF7B9F9054B95
:10389000DB699B6A18460BB05DF804FB24640008E2
:1038A000912E00087C0D00200000000000000000A8
:1038B00084B001900091019BD3F850340393019B95
:1038C000D3F850341A4A934208D1009B1B68194A16
:1038D000B2FBF3F39AB2039B1A8107E0009B1B68CB
:1038E000144AB2FBF3F39AB2039B1A81009B9B88A4
:1038F00043F4045343F02C039AB2039B9A81009B38
:10390000DB8843F040039AB2039B1A82009B1B8919
:1039100043F001039AB2039B9A82039B00221A8010
:10392000039B1B88039B9B8800BF04B0704700BFAC
:103930000038014000512502000000000000000096
:1039400000B585B001900B46ADF80230002303931B
:10395000BDF8023003F00803002B03D0039B43F0B3
:1039600080030393BDF8023003F00103002B03D062
:10397000039B43F020030393BDF8023003F00203DE
:10398000002B03D0039B43F040030393BDF80230A8
:1039900003F00403002B03D0039B43F480730393D1
:1039A000202383F31188FCF7CBFF019B9A68039BCC
:1039B0001A43019B9A60019B043300211846FDF7CE
:1039C0000FFEFCF7D5FF002383F3118800BF05B07D
:1039D0005DF804FB00000000000000000000000093
:1039E00000B587B00190019BD3F850340593059B37
:1039F0009B89ADF81230059B1B88ADF81030059BF4
:103A00009B88ADF80E30BDF8103003F00F03002B8B
:103A100005D0BDF8103019460198FFF791FFBDF8A9
:103A2000103003F48073002B1DD0202383F3118802
:103A3000FCF786FF019B9B6843F40072019B9A6030
:103A4000019B043300211846FDF7CAFDFCF790FFE7
:103A5000002383F31188059B1B889BB223F480739A
:103A60009AB2059B1A80BDF8103003F02003002B9A
:103A700010D0202383F31188FCF762FFBDF80E30CD
:103A8000DBB219460198FEF753FBFCF771FF0023E8
:103A900083F31188BDF8123003F08003002B34D07B
:103AA000BDF8103003F08003002B2ED0202383F3C9
:103AB0001188FCF745FF019B30331846FDF7A0FF46
:103AC0000290029B002B17DA019B9B6843F00802CF
:103AD000019B9A60019B043300211846FDF780FD8D
:103AE000BDF8123023F0C0039BB243F040039BB2F9
:103AF0009AB2059B9A8103E0029B9AB2059B9A8039
:103B0000FCF736FF002383F31188BDF8103003F073
:103B10004003002B24D0202383F31188FCF710FFEF
:103B2000019B9B6843F01002019B9A60019B043348
:103B300000211846FDF754FDFCF71AFF002383F31C
:103B40001188BDF8123023F040039AB2059B9A8188
:103B5000059B1B889BB223F040039AB2059B1A80F9
:103B600000BF07B05DF804FB00000000000000008B
:103B700082B00190054A054B9B899BB243F08003BC
:103B80009BB2938100BF02B0704700BF0038014074
:103B900008B5FCF705FF0448FFF722FFFCF720FFFC
:103BA000FCF70EFD00BF08BD4C0E00200000000019
:103BB00008B5054A00210548FEF75AFA034B044AA6
:103BC000C3F8502400BF08BD713B00084C0E002014
:103BD000003801400000000000000000000000006C
:103BE00000B583B001900091009B002B01D10E4BDA
:103BF0000093019B1B7B012B0DD1019B0B4A934230
:103C000009D10B4A0A4B9B6943F480439361C0215D
:103C10002520FCF74DFD00990198FFF749FE00BFF4
:103C200003B05DF804FB00BF106500084C0E0020D7
:103C30000010024000000000000000000000000032
:103C400082B00190224A224B9B6943F07D0393612D
:103C5000204A019B1B68D3601E4A019B9B685360EE
:103C60001C4A019B5B6813601B4A019BDB68D360A5
:103C7000194A019B5B695360174A019B1B691360DA
:103C8000164A019B9B69D360144A019B1B6A5360CF
:103C9000124A019BDB691360114A019B5B6AD36086
:103CA0000F4A019BDB6A53600D4A019B9B6A1360BC
:103CB0000C4A019B1B6BD3600A4A019B9B6B5360B0
:103CC000084A019B5B6B136000BF02B0704700BFE6
:103CD0000010024000080140000C014000100140AB
:103CE0000014014000180140000000000000000026
:103CF0008AB0039002910192019B032B03D1039B95
:103D0000029A1A6105E0019B042B02D1039B029ADF
:103D10005A612A4A019B13441B780493002306939B
:103D2000069B0793079B0893089B09930023059321
:103D30002DE0089B1B010893099B1B010993069B1F
:103D40001B010693079B1B010793029B03F0800353
:103D5000002B04D1089B43F00F03089303E0069A5D
:103D6000049B13430693029B03F40043002B04D1EE
:103D7000099B43F00F03099303E0079A049B134345
:103D80000793029B5B000293059B01330593059B00
:103D9000072BCED9039B5A68099B1A40079B1A43ED
:103DA000039B5A60039B1A68089B1A40069B1A43A0
:103DB000039B1A6000BF0AB0704700BF206500086F
:103DC00008B5FEF725FC00BF08BD00BF00000000DD
:103DD00000BF70470000000000000000000000006D
:103DE00000B585B00190202383F31188FCF778FD9E
:103DF0001F4B1B691A461E4BDB68D31A1A461C4B15
:103E00009B68D31A0393039B032B27DD019B1B782D
:103E10008DF80B309DF80B3019461548FDF780FCE6
:103E2000019B5B788DF80B309DF80B3019461048DC
:103E3000FDF776FC019B9B788DF80B309DF80B30DD
:103E400019460B48FDF76CFC019BDB788DF80B30B5
:103E50009DF80B3019460648FDF762FCFCF758FD4B
:103E6000002383F3118800BF05B05DF804FB00BF99
:103E7000FC12002000000000000000000000000014
:103E800000B583B0202383F31188FCF729FD0C4B88
:103E90001B691A460A4BDB68D31A1A46084B9B6803
:103EA000D31A0193FCF734FD002383F31188019B9F
:103EB000002B00DA03339B10184603B05DF804FBB7
:103EC000FC120020000000000000000000000000C4
:103ED00082B001900091064A137C43F001031374F1
:103EE000034B1B68024A536000BF02B0704700BF1B
:103EF000A0120020000000000000000000000000F0
:103F000082B001900091074A92F8243043F00103F7
:103F100082F82430034B5B69024A936100BF02B010
:103F2000704700BFA0120020000000000000000049
:103F300082B001900091074A92F8383043F00103B3
:103F400082F83830034B9B6A024AD36200BF02B04A
:103F5000704700BFA0120020000000000000000019
:103F600082B001900091074A92F84C3043F001036F
:103F700082F84C30034BDB6B024A136400BF02B083
:103F8000704700BFA01200200000000000000000E9
:103F900000B583B0112240212648FFF7A9FE112267
:103FA00080212448FFF7A4FE23492448FDF700FFA1
:103FB00000F06EF80023802221492248FDF788FB9B
:103FC0000023202220492148FDF782FB0023042200
:103FD0001F492048FDF77CFB1F492048FDF750FE94
:103FE0001F492048FDF74CFE1F492048FDF748FEB9
:103FF0001F492048FDF744FE1F492048FDF7F0FD0A
:104000004FF0FF3000F0C4FE4FF0FF3000F0A8FE8C
:10401000012000F0D5FE00F0CBF800230093184BF0
:1040200040224FF40B611748FDF762F800BF03B060
:104030005DF804FB000C014060660008280E0020BB
:104040001C130020FC120020BC1300209C13002035
:10405000FC130020DC13002020660008E80D00207F
:1040600030660008F80D002040660008080E0020A9
:1040700050660008180E002080650008E00D002042
:104080008142000800140020000000000000000031
:1040900008B5454B01225A61062201214248FFF72B
:1040A00027FE424B02225A61062202213F48FFF7B7
:1040B0001FFE3D4B4FF480425A6106224FF480416F
:1040C0003948FFF715FE384B02225A6106220221B9
:1040D0003548FFF70DFE06224FF400613248FFF726
:1040E00007FE062210213148FFF702FE06224FF498
:1040F00080712E48FFF7FCFD06224FF400412A484C
:10410000FFF7F6FD284B4FF480625A61274B40229F
:104110005A61264B80225A61234B4FF400521A6198
:1041200006224FF480612048FFF7E2FD062240217D
:104130001E48FFF7DDFD062280211C48FFF7D8FD51
:1041400006224FF400511848FFF7D2FD0222202129
:104150001648FFF7CDFD02224FF480711248FFF799
:10416000C7FD02224FF480510F48FFF7C1FD022224
:104170004FF480510C48FFF7BBFD022220210B4871
:10418000FFF7B6FD022204210848FFF7B1FD022225
:1041900008210648FFF7ACFD02224FF48071024867
:1041A000FFF7A6FD00BF08BD000C0140000801405C
:1041B00000B583B00023019354E02E49019A1346C1
:1041C0009B0013449B000B4400221A602949019A6A
:1041D00013469B0013449B000B44043300221A60D7
:1041E0002449019A13469B0013449B000B44083357
:1041F00000221A601F49019A13469B0013449B003A
:104200000B440C3300221A601A49019A13469B0092
:1042100013449B000B4403F1100213786FF3000367
:1042200013701449019A13469B0013449B000B44DE
:1042300003F1100213786FF3410313700D49019AD3
:1042400013469B0013449B000B4403F110021378A8
:104250006FF38203137000210748FCF7E9FF019B0D
:1042600001330193019B032BA7DD00BF03B05DF871
:1042700004FB00BFA0120020F0120020000000008C
:104280002DE9F0478EB0039000238DF8373005AB51
:104290000A934FF0FF31BA48FDF78AFA0346DAB2C3
:1042A0000A9B1A700A9B5C1C4FF0FF31B448FDF763
:1042B0007FFA0346DBB223700A9B9C1C4FF0FF3150
:1042C000AF48FDF775FA0346DBB223700A9BDC1C8E
:1042D0004FF0FF31AA48FDF76BFA0346DBB22370BB
:1042E000032001F0ADFA00230C935CE005AA0C9BBF
:1042F00013441B785BB2002BCCBF01230023D9B23F
:10430000A0480C9A13469B0013449B00034403F1FE
:104310001002137861F38203137005AA0C9B1344F7
:104320001B785BB283EAE371A1EBE37195480C9AC9
:1043300013469B0013449B000344083319609149C2
:104340000C9A13469B0013449B000B4403F110028C
:10435000137843F0080313708A490C9A13469B00A4
:1043600013449B000B4403F1100213786FF3000316
:10437000137005AA0C9B13441B785BB2002B14BF6F
:1043800001230023D9B27F480C9A13469B001344A3
:104390009B00034403F11002137861F3410313708F
:1043A0000C9B01330C930C9B032B9FDD754B1B7CEB
:1043B000C3F38003DBB2184600F01AFD714B93F88B
:1043C0002430C3F38003DBB2184600F029FD6D4BA7
:1043D00093F83830C3F38003DBB2184600F038FDA1
:1043E000684B93F84C30C3F38003DBB2184600F0FF
:1043F00047FD644B9B68634A926802FB03F2614B82
:10440000DB696049C96901FB03F31A445D4B1B6B0F
:104410005C49096B01FB03F31A445A4B5B6C594925
:10442000496C01FB03F313440993099800F098FDCC
:104430000990099B19464FEAE1720B461446DB18B6
:1044400044EB04045B1844EB0204A60146EA9366BD
:104450009D015B1944EB06044FEA840848EA93780F
:104460009F003B4644465B1844EB02044FEA840A33
:104470004AEA937A4FEA83094B4654465B1844EB69
:10448000020462010192019A42EAD36201925B0145
:104490000093DDE90034184621463B4B1B684FEA88
:1044A000E3741A462346FBF723FE03460C460893A3
:1044B00000230C9331E033490C9A13469B001344BC
:1044C0009B000B4408331B68089A92FBF3F3DA0F46
:1044D00013445B1018462B490C9A13469B00134457
:1044E0009B000B440C33186026490C9A13469B0022
:1044F00013449B000B440C331B68022BB8BF0223F0
:10450000194620480C9A13469B0013449B00034411
:104510000C3319600C9B01330C930C9B032BCADDED
:104520009DF83730002B08D1012000F0C1FC192084
:10453000FCF716FE01238DF83730124B9B68002BD9
:1045400002DD124B01221A610E4BDB69002B02DDEA
:104550000F4B02221A610B4B1B6B002B03DD0B4B25
:104560004FF480421A61074B5B6C002B02DD074B56
:1045700002221A6100230B9300230C931DE000BF5D
:10458000FC120020A012002000080020000C0140B6
:10459000000801405D490C9A13469B0013449B00A0
:1045A0000B4410331B78C3F34003DBB21A460B9B5A
:1045B00013440B930C9B01330C930C9B032BE9DDF1
:1045C000524B1B7C03F00203DBB2002B06D04F4B97
:1045D000DB689BB219464E48FDF78AFB4B4B93F8BC
:1045E000243003F00203DBB2002B06D0474B1B6ADA
:1045F0009BB219464748FDF77BFB444B93F8383094
:1046000003F00203DBB2002B06D0404B5B6B9BB286
:1046100019464148FDF76CFB3C4B93F84C3003F0D6
:104620000203DBB2002B06D0384B9B6C9BB21946C1
:104630003A48FDF75DFB00230C9307E04FF0FF3194
:104640003748FDF7B5F80C9B01330C930C9A0B9B84
:104650009A42F3DB00230C930FE02C490C9A13468B
:104660009B0013449B000B4403F1100213786FF37B
:10467000410313700C9B01330C930C9B032BECDD5B
:10468000202383F31188FCF72BF9264B9B680793B3
:10469000079B032B08DC4FF0FF3000F009FC00F013
:1046A0001FFC00238DF83730FCF732F9002383F329
:1046B0001188079B032B02DC012001F0C1F80021C7
:1046C0001948FDF775F80690069BB3F1FF3F3FF4DC
:1046D000DEAD202383F31188FCF702F9114B9B68B0
:1046E0000793FCF715F9002383F3118800230C933B
:1046F00006E000210B48FDF75BF80C9B01330C939F
:104700000C9A079B9A42F4DBC1E500BFA01200207F
:10471000E80D0020F80D0020080E0020180E0020E3
:10472000DC130020FC1200209C130020000000007D
:1047300000B585B00190384B0393039B1B7C03F0BD
:104740000803DBB2002B2AD0202383F31188FCF767
:10475000F7F8039B1B7C03F00203DBB2002B07D0AE
:10476000039BDB689BB219462C48FDF7E1FA03E096
:1047700000212B48FCF7D4FFFCF7FAF8002383F361
:104780001188284B01225A61039A137C6FF3C303EB
:104790001374039B9B685A1E039B9A6037E0039B2C
:1047A0009B68002B25DD202383F31188FCF7C8F8D4
:1047B000039B1B7C03F00203DBB2002B07D0039B9F
:1047C000DB689BB219461548FDF7B2FA03E00021F9
:1047D0001348FCF7A5FFFCF7CBF8002383F31188FF
:1047E000104B01221A61039A137C43F008031374DF
:1047F0000DE0202383F31188FCF7A2F8002108487C
:10480000FCF78EFFFCF7B4F8002383F3118800BF98
:1048100005B05DF804FB00BFA0120020E80D0020E9
:10482000DC130020000C014000000000000000002C
:1048300000B585B00190384B0393039B1B7C03F0BC
:104840000803DBB2002B2AD0202383F31188FCF766
:1048500077F8039B1B7C03F00203DBB2002B07D02D
:10486000039BDB689BB219462C48FDF761FA03E015
:1048700000212B48FCF754FFFCF77AF8002383F360
:104880001188284B02225A61039A137C6FF3C303E9
:104890001374039B9B685A1E039B9A6037E0039B2B
:1048A0009B68002B25DD202383F31188FCF748F853
:1048B000039B1B7C03F00203DBB2002B07D0039B9E
:1048C000DB689BB219461548FDF732FA03E0002178
:1048D0001348FCF725FFFCF74BF8002383F31188FE
:1048E000104B02221A61039A137C43F008031374DD
:1048F0000DE0202383F31188FCF722F800210848FB
:10490000FCF70EFFFCF734F8002383F3118800BF97
:1049100005B05DF804FB00BFB4120020F80D0020C4
:10492000DC1300200008014000000000000000002F
:1049300000B585B00190394B0393039B1B7C03F0BA
:104940000803DBB2002B2BD0202383F31188FBF765
:10495000F7FF039B1B7C03F00203DBB2002B07D0A5
:10496000039BDB689BB219462D48FDF7E1F903E094
:1049700000212C48FCF7D4FEFBF7FAFF002383F359
:104980001188294B4FF480425A61039A137C6FF3CC
:10499000C3031374039B9B685A1E039B9A6038E001
:1049A000039B9B68002B26DD202383F31188FBF7F4
:1049B000C7FF039B1B7C03F00203DBB2002B07D075
:1049C000039BDB689BB219461548FDF7B1F903E07C
:1049D00000211448FCF7A4FEFBF7CAFF002383F371
:1049E0001188114B4FF480421A61039A137C43F0F3
:1049F000080313740DE0202383F31188FBF7A0FF55
:104A000000210848FCF78CFEFBF7B2FF002383F37C
:104A1000118800BF05B05DF804FB00BFC81200207C
:104A2000080E0020DC130020000C014000000000F4
:104A300000B585B00190384B0393039B1B7C03F0BA
:104A40000803DBB2002B2AD0202383F31188FBF765
:104A500077FF039B1B7C03F00203DBB2002B07D024
:104A6000039BDB689BB219462C48FDF761F903E014
:104A700000212B48FCF754FEFBF77AFF002383F359
:104A80001188284B02225A61039A137C6FF3C303E7
:104A90001374039B9B685A1E039B9A6037E0039B29
:104AA0009B68002B25DD202383F31188FBF748FF4B
:104AB000039B1B7C03F00203DBB2002B07D0039B9C
:104AC000DB689BB219461548FDF732F903E0002177
:104AD0001348FCF725FEFBF74BFF002383F31188F7
:104AE000104B02221A61039A137C43F008031374DB
:104AF0000DE0202383F31188FBF722FF00210848F3
:104B0000FCF70EFEFBF734FF002383F3118800BF90
:104B100005B05DF804FB00BFDC120020180E002079
:104B2000DC130020000C0140000000000000000029
:104B300000B585B001900091019B002BCCBF0123F3
:104B40000023DBB20393202383F31188FBF7C8FE15
:104B50000849039A13469B0013449B000B44009A98
:104B60001A60FBF7D5FE002383F3118800BF05B060
:104B70005DF804FBA012002000000000000000000F
:104B800000B585B0039002910192202383F3118830
:104B9000FBF7A6FE084A039B1360084A029B1360BA
:104BA000074A019B1360FBF7B3FE002383F31188D0
:104BB00000BF05B05DF804FB0008002004080020D9
:104BC00008080020000000000000000000000000B5
:104BD00000B587B0039002910192039B002BCCBFDC
:104BE00001230023DBB20593059A13469B0013446F
:104BF0009B00114A13440493202383F31188FBF78D
:104C00006FFE019B002B03D0049B5A68019B1A6026
:104C1000029B002B07D0049B1B7CC3F30003DBB279
:104C20001A46029B1A60FBF773FE002383F3118878
:104C300000BF07B05DF804FBA012002000000000D8
:104C400000B587B001900091019B002BCCBF0123E0
:104C50000023DBB20593059A13469B0013449B0087
:104C60000F4A13440493202383F31188FBF738FE83
:104C7000049B1B7CC3F34003DBB20393009B002B1C
:104C800003D0049B1A68009B1A60FBF741FE0023C7
:104C900083F31188039B184607B05DF804FB00BF3F
:104CA000A012002000000000000000000000000032
:104CB00000B587B00190019B002BCCBF01230023DE
:104CC000DBB20593059A13469B0013449B000A4AE6
:104CD00013440493202383F31188FBF701FE049B04
:104CE0001B680393FBF714FE002383F31188039BD7
:104CF000184607B05DF804FBA01200200000000079
:104D000000B583B0202383F31188FBF7E9FD002170
:104D10001048FCF705FD002301930FE00E49019AAE
:104D200013469B0013449B000B4403F110021378BD
:104D30006FF341031370019B01330193019B032B1C
:104D4000ECDDFBF7E5FD002383F3118800BF03B022
:104D50005DF804FB9C130020A0120020000000005E
:104D600082B00190019B002B03DD054B40225A616C
:104D700002E0034B40221A6100BF02B0704700BF3F
:104D800000080140000000000000000000000000DA
:104D900082B00190019B002B03DD054B80225A61FC
:104DA00002E0034B80221A6100BF02B0704700BFCF
:104DB00000080140000000000000000000000000AA
:104DC00082B00190019B002B04DD064B4FF4806202
:104DD0005A6103E0034B4FF480621A6100BF02B0D6
:104DE000704700BF000C0140000000000000000000
:104DF00082B00190019B002B04DD064B4FF4006252
:104E00001A6103E0034B4FF400625A6100BF02B025
:104E1000704700BF000C01400000000000000000CF
:104E200082B00190019B002B03DD054B10221A611B
:104E300002E0034B10225A6100BF02B0704700BF6E
:104E40000008014000000000000000000000000019
:104E500082B00190019B002B04DD064B4FF4807261
:104E60001A6103E0034B4FF480725A6100BF02B035
:104E7000704700BF00080140000000000000000073
:104E800082B00190019B002B04DD064B4FF40042E1
:104E90001A6103E0034B4FF400425A6100BF02B0B5
:104EA000704700BF000C014000000000000000003F
:104EB00082B00190019B002B04DD064B4FF40052A1
:104EC0005A6103E0034B4FF400521A6100BF02B075
:104ED000704700BF000C014000000000000000000F
:104EE00000B583B01C4B1B68DBB28DF800301A4B49
:104EF0001B681B12DBB28DF80130174B1B681B14AB
:104F0000DBB28DF80230144B1B681B16DBB28DF838
:104F10000330114B5B69DBB28DF804300E4B5B69DB
:104F20001B12DBB28DF805300B4B5B691B14DBB237
:104F30008DF80630084B5B691B16DBB28DF8073025
:104F400000F08EFD6B461946082000F049FD00BFB9
:104F500003B05DF804FB00BFA012002000000000B9
:104F600086B00190019B0593019B0493019A059BD8
:104F700092FBF3F2059B13440393039BDA0F134454
:104F80005B101946039A154B1340002B03DA013BC3
:104F900063F0010301330B440593049A059B9A4285
:104FA00002DD059B0493E1E7019A049B92FBF3F277
:104FB000049B013B9A420CD1019B049A93FBF2F2B1
:104FC000049901FB02F29B1A002B02D1049B013BC6
:104FD0000493049B184606B0704700BF0100008090
:104FE00008B5FCF7CDFDFBF7DBFB00F0F9FB00F0AB
:104FF000EFF8FEF7CDFF032000F022FC00F020F9CF
:10500000FCE700BF000000000000000000000000FE
:1050100000B585B00190019B1B78002B14BF0123C4
:105020000023DBB203930398FFF742FE0290029B3A
:10503000DBB2184600F054FB029B1B12DBB2184691
:1050400000F04EFB029B1B14DBB2184600F048FB3D
:10505000029B1B0EDBB2184600F042FB00F068FB1F
:1050600000BF05B05DF804FB000000000000000078
:1050700000B587B00190019B1B788DF81730019B1C
:105080005B788DF81630019B9A1C9DF816109DF8E0
:105090001730184600F02CFC0490049B002B02DB18
:1050A000049BDBB203E0049BDBB25B42DBB28DF816
:1050B0000F309DF80F30184600F012FB00F038FB5F
:1050C00000BF07B05DF804FB000000000000000016
:1050D00000B587B00190019B1B788DF81630019BBD
:1050E0005B788DF815309DF815109DF81630019AF3
:1050F000184600F04DFC0490049B002B02DB049B3F
:10510000DBB203E0049BDBB25B42DBB28DF80F3015
:105110009DF80F30184600F0E3FA00238DF81730A1
:105120000CE09DF81730019A13441B78184600F0E4
:10513000D7FA9DF8173001338DF817309DF81720F6
:105140009DF815309A42ECD300F0F2FA00BF07B098
:105150005DF804FB000000000000000000000000FB
:1051600000B583B0019000F07BFC00BF03B05DF898
:1051700004FB00BF00000000000000000000000071
:1051800000B585B00190019B1B788DF80F309DF81C
:105190000F30184600F06CFC00BF05B05DF804FB52
:1051A00000B585B00190FEF76BFE0390039BDBB268
:1051B000184600F095FA00F0BBFA00BF05B05DF8A4
:1051C00004FB00BF00000000000000000000000021
:1051D00008B50023202214491448FCF779FA00236B
:1051E000202213491348FCF773FA10224FF4007180
:1051F0001148FEF77DFD02224FF480610E48FEF754
:1052000077FD10224FF400610B48FEF771FD02227A
:105210004FF480510848FEF76BFD00210748FCF76A
:1052200057FF00BF08BD00BFF01C0020301D00204C
:10523000101D0020501D0020000801404C0E0020D1
:1052400000B583B04FF0FF312048FCF7B1FA019070
:10525000019B8DF803301E4B1B78002B1FD19DF84E
:105260000330002B09D11B4B1B6819461A4800F06C
:1052700037F8184B00221A601DE09DF803305C2BB4
:1052800009D0144B1B685A1C12490A6012499DF838
:105290000320CA540FE00E4B01221A700BE00C4B96
:1052A00000221A700B4B1B685A1C0A490A600A49F3
:1052B0009DF80320CA54074B1B68202BA8BF20234E
:1052C000044A136000BF03B05DF804FB5C0E0020CD
:1052D000701D0020741D0020B01C00200000000084
:1052E00000B587B001900091019B1B788DF81330B9
:1052F000019B013303939DF81330012B02D0022B45
:1053000015D017E0002305930BE0059B039A134487
:1053100019780A4A059B13440A461A70059B013303
:105320000593009B5A1E059B9A42EEDC02E000F0BA
:1053300007F800BF00BF07B05DF804FBD01C0020D9
:1053400000B583B00B4B5B78019311230093019A56
:10535000009B9A4201DA019B00E000230193064A78
:10536000019B52F823300548984700BF03B05DF811
:1053700004FB00BFB01C00200C080020D01C002043
:1053800000B589B00190114A03AB07CA83E8070052
:1053900003AB184600F0E4FB034606930023079393
:1053A00009E003AA079B13441B78184600F098F9FC
:1053B000079B01330793079A069B9A42F1DB00F0A3
:1053C000B7F900BF09B05DF804FB00BF54640008E2
:1053D00000B589B00190114A03AB07CA03C31A8014
:1053E00003AB184600F0BCFB03460693002307936B
:1053F00009E003AA079B13441B78184600F070F9D4
:10540000079B01330793079A069B9A42F1DB00F052
:105410008FF900BF09B05DF804FB00BF60640008AD
:1054200000B585B001900E4A03AB12681146198091
:105430000233120C1A709DF80C30184600F050F927
:105440009DF80D30184600F04BF900F071F9FA2084
:10545000FBF786FE00F024FA00BF05B05DF804FB00
:105460006C64000800000000000000000000000064
:1054700000B583B00190019B1B78184600F0E0F95D
:1054800000BF03B05DF804FB000000000000000056
:1054900000B585B00190019B1B780393039BDBB2A1
:1054A000184600F005FA00BF05B05DF804FB00BF28
:1054B00000B583B001900198FEF792FC00BF03B0E5
:1054C0005DF804FB00000000000000000000000088
:1054D00000B583B00190FFF713FC00BF03B05DF887
:1054E00004FB00BF000000000000000000000000FE
:1054F00000B587B00190019B1B78002B14BF0123DE
:105500000023DBB2059303AB19460598FFF798FB20
:105510000490049BDBB2184600F0E2F8039BDBB278
:10552000184600F0DDF8039B1B12DBB2184600F0B2
:10553000D7F8039B1B14DBB2184600F0D1F8039B8D
:105540001B0EDBB2184600F0CBF800F0F1F800BFFC
:1055500007B05DF804FB00BF000000000000000081
:1055600000B587B00190019B1B78002B14BF01236D
:105570000023DBB2059303AA04AB19460598FFF795
:1055800027FB049BDBB2184600F0AAF8039BDBB2B2
:10559000184600F0A5F8039B1B12DBB2184600F07A
:1055A0009FF8039B1B14DBB2184600F099F8039B8D
:1055B0001B0EDBB2184600F093F800F0B9F800BFFC
:1055C00007B05DF804FB00BF000000000000000011
:1055D00000B585B00190019B1B78002B14BF0123FF
:1055E0000023DBB20393019B01331B780293019BE1
:1055F00002331B781B02029A13430293019B03336D
:105600001B781B04029A13430293019B04331B78FB
:105610001B06029A1343029302990398FFF788FA34
:1056200000BF05B05DF804FB0000000000000000B2
:1056300000B587B00190019B1B780593019B013356
:105640001B781B02059A13430593019B02331B78B9
:105650001B04059A13430593019B03331B781B0618
:10566000059A13430593019B04331B780493019B14
:1056700005331B781B02049A13430493019B0633E2
:105680001B781B04049A13430493019B07331B7874
:105690001B06049A13430493019B08331B7803935E
:1056A000019B09331B781B02039A13430393019B4D
:1056B0000A331B781B04039A13430393019B0B3398
:1056C0001B781B06039A13430393039A04990598C6
:1056D000FFF756FA00BF07B05DF804FB00000000BA
:1056E00000B583B003468DF807309DF80730002BD6
:1056F00003D09DF807305C2B05D14FF0FF325C21C1
:105700000748FCF72DF99DF807304FF0FF32194696
:105710000348FCF725F900BF03B05DF804FB00BFA8
:105720007C0E0020000000000000000000000000CF
:1057300008B54FF0FF3200210248FCF711F900BF15
:1057400008BD00BF7C0E002000000000000000002B
:1057500000B583B00190194BDB69194A9A61194869
:10576000FBF7F6FD184B1B68184A1360174B1B68B4
:1057700003F00103002B06D0154A154BDB6883F4B8
:105780008043D36003E0124B4FF480425A610F4BC9
:105790001B6803F00203002B06D00D4A0C4BDB689C
:1057A00083F40053D36003E0094B4FF400525A6175
:1057B000FBF76EFEFA20FBF7D3FCD0E77C0D002050
:1057C00070640008781D0020881D0020401F002004
:1057D0000010014000000000000000000000000078
:1057E00000B583B0114B4FF480425A610F4B4FF418
:1057F00000525A6106224FF480410C48FEF778FAB5
:1058000006224FF400510948FEF772FA0848FBF7E8
:105810007FFD00230093074B40224FF4D8710648C8
:10582000FBF766FC00BF03B05DF804FB001001400D
:10583000781D002051570008901D00200000000036
:1058400000B583B001900648FBF782FD054A019B35
:105850001360FBF71DFE00BF03B05DF804FB00BF43
:10586000781D0020881D00200000000000000000BE
:10587000BFF34F8F0549054BDB6803F4E062044B2F
:105880001343CB60BFF34F8FFEE700BF00ED00E096
:105890000400FA0500000000000000000000000005
:1058A00008B5FFF7E5FF00BF08BD00BF000000001E
:1058B00000B583B003468DF80730202383F31188A9
:1058C000FBF70EF89DF80730002B01D0012300E014
:1058D000022319460548FBF723FFFBF719F80023BD
:1058E00083F3118800BF03B05DF804FB441F002060
:1058F00000B58BB0034604928DF817300B468DF837
:1059000016301E4A9DF81730137000238DF827308B
:105910000EE09DF8273001339DF8272004990A44B2
:105920001178164AD1549DF8273001338DF827306D
:105930009DF827209DF816309A42EAD37D230893DC
:105940000F4B4FF400725A619DF8163001331A461E
:10595000089B029300230193002300931346074AF8
:1059600050210848FCF75CFA0790054B4FF4007291
:105970001A61079B18460BB05DF804FB641F0020FA
:10598000000C0140280E0020000000000000000074
:1059900000B589B0034604928DF817300B468DF898
:1059A00016300C4A9DF8173013707D2307939DF82D
:1059B0001630079A02920193049B00930123054A33
:1059C00050210548FCF72CFA0690069B184609B0B2
:1059D0005DF804FB641F0020280E0020000000007A
:1059E00010B584B0034600918DF8073000238DF880
:1059F0000F3014E0154B1B780133DAB2134B1A70D9
:105A0000124B1B7819469DF80F30009A13441A78F0
:105A10000F4B5A549DF80F3001338DF80F309DF81D
:105A20000F209DF807309A42E4D3084B1B785C1C8A
:105A3000064B1B781946064800F042F803461A4602
:105A4000034B1A5500BF04B010BD00BF841F0020D7
:105A5000881F00200000000000000000000000007F
:105A6000024B00221A7000BF704700BF841F002045
:105A700000B589B003468DF817300E4A9DF81730EF
:105A800013707D23079330238DF818309DF817305D
:105A90008DF8193006AA079B029300230193002377
:105AA0000093022350210448FCF7BAF900BF09B063
:105AB0005DF804FB881F0020280E00200000000075
:105AC00084B001900B468DF803308C238DF80C3098
:105AD00000238DF80F3001238DF80E3030E09DF853
