:020000040800F2
:10000000000400201101000801020008010200089C
:1000100001020008010200080102000801020008B4
:100020000102000801020008010200085102000854
:100030000102000801020008010200082102000874
:1000400001020008B12A00080102000801020008AC
:10005000010200080102000871270008B12700080A
:10006000F1270008312800087128000881200008C5
:10007000E120000841210008A12100080122000818
:1000800061220008C12200080102000801020008E4
:10009000010200080102000801020008B12800085E
:1000A00001020008612D0008010200080102000899
:1000B000812D0008A12D0008C12D0008613700081E
:1000C000813700080102000801020008010200084F
:1000D00001020008C13C00080102000801020008FA
:0C00E000A129000801020008F12A000814
:1000F000704700BFAFF30080AFF30080AFF3008024
:10010000FEE700BFAFF30080AFF30080AFF30080E5
:1001100072B640F60004C2F2000484F309884FF07E
:10012000020484F31488BFF36F8F40F20004C2F21C
:10013000000440F20045C2F2000504E04FF05533E0
:10014000236004F10404AC42F8D340F20044C2F24C
:10015000000440F60005C2F2000504E04FF05533FC
:10016000236004F10404AC42F8D303F0C9FE44F662
:10017000E075C0F6000540F60004C2F2000405E098
:100180002B68236004F1040405F1040540F608031C
:10019000C2F200039C42F3D340F60804C2F200040A
:1001A00041F2FC45C2F2000504E04FF00003236079
:1001B00004F10404AC42F8D3FFF79AFF40F2EC04D8
:1001C000C0F6000403E02368984704F1040440F2F9
:1001D000EC03C0F600039C42F5D304F0E9F840F2CA
:1001E000EC04C0F6000403E02368984704F104041B
:1001F00040F2EC03C0F600039C42F5D3FFF780FF0A
:10020000FEE700BFAFF30080AFF30080AFF30080E4
:1002100072B6FEE7AFF30080AFF30080AFF300806B
:1002200008B500F0D5FA4FF0200383F3118800F0F1
:100230008FFA00F0CDF900F0ABFA4FF0000383F332
:10024000118800F0F5FA00F043F808BDAFF3008024
:1002500010B483B0EFF309840194019B03F12003F0
:100260000193019B83F309884FF0000383F3118806
:1002700003B010BC704700BFAFF30080AFF3008045
:1002800008B54FF46D43CEF200034FF000029A60C0
:100290004FF46D43CEF200034FF00002C0F2FA5269
:1002A000DA604FF007004FF0100100F0F1F84FF066
:1002B0000A004FF4007100F0EBF84FF00B004FF024
:1002C000800100F0E5F808BDAFF30080AFF30080D7
:1002D00010B483B04FF0200383F311884FF46D43C3
:1002E000CEF200035B6803F40063002B47D0EFF30A
:1002F00009840194019BA3F120030193019B83F3E3
:100300000988019B4FF08072DA6140F63453C2F2E3
:1003100000039B69002B11D040F63453C2F2000356
:100320001B689A6840F63453C2F20003DB699B688D
:100330009A4294BF00230123DBB210E040F634530D
:10034000C2F200031B689A6840F63453C2F20003FD
:10035000DB699B689A4234BF00230123DBB2002B88
:1003600006D0019A40F29133C0F6000393610AE08F
:10037000019A40F29C33C0F60003936103E04FF012
:10038000000383F3118803B010BC7047AFF3008003
:1003900000F09EF900F094FD00F0BAF900DF00BF14
:1003A00003460A462DE9F04FC2F80CD0D3F80CD022
:1003B000BDE8F08FAFF30080AFF30080AFF30080B3
:1003C00008B500F0A5F94FF0000383F31188284623
:1003D000A04700F0DDFE08BDAFF30080AFF3008062
:1003E00084B001900091019B03F003034FEAC30323
:1003F00003934FF46143CEF20003019A4FEA920057
:100400004FF46142CEF2000201994FEA910101F1ED
:10041000C00152F82110039A4FF0FF0C0CFA02F2BF
:100420006FEA020201EA0201039ADDF800C00CFA49
:1004300002F241EA020100F1C00243F822104FF437
:100440006143CEF20003019A4FEA5212019901F082
:100450001F014FF0010000FA01F102F1600243F8C0
:1004600022104FF46143CEF20003019A4FEA521278
:10047000019901F01F014FF0010000FA01F143F86A
:10048000221004B0704700BFAFF30080AFF30080CC
:1004900084B001900091019B03F003034FEAC30372
:1004A00003934FF46D43CEF20003019A4FEA92009A
:1004B0004FF46D42CEF2000201994FEA910101F131
:1004C000060152F82110039A4FF0FF0C0CFA02F2C9
:1004D0006FEA020201EA0201039ADDF800C00CFA99
:1004E00002F241EA020100F1060243F8221004B0D0
:1004F000704700BFAFF30080AFF30080AFF3008020
:1005000082B0019040F63453C2F20003DA6944F23B
:10051000F073C0F600039361FEE700BFAFF3008005
:1005200000B583B0FFF7ACFE00F03AFB00F050FAE4
:1005300001F026FB00F0DCF940F6C800C2F2000032
:100540004FF0400100F014FD024640F63453C2F271
:100550000003DA6140F63453C2F20003DB694FF066
:10056000010283F8202040F63453C2F20003DA6916
:1005700040F20043C2F20003D36100F091F84FF063
:10058000000383F3118862B640F63453C2F20003CD
:10059000DA6944F2F873C0F60003936140F2015344
:1005A000C0F600034FF00002009240F60800C2F2CD
:1005B00000004FF0C0014FF0010200F089FD03B0D0
:1005C00000BD00BFAFF30080AFF30080AFF3008049
:1005D00000B583B000F05CF940F63453C2F200037A
:1005E0009B69002B0BDD40F63453C2F200039B697C
:1005F00003F1FF3240F63453C2F200039A6140F631
:100600003453C2F20003DB695A6A02F101025A62F2
:1006100040F62453C2F20003DB6803F1010240F606
:100620002453C2F20003DA6040F62453C2F20003FE
:100630001B681A4640F62453C2F200039A422DD09A
:1006400040F62453C2F200031B689A6802F1FF329D
:100650009A6019E0019BDB680093019B4FF0000258
:10066000DA60019B1A6840F62453C2F2000353601B
:10067000019B1A6840F62453C2F200031A60019BE2
:100680001A69009B1046984740F62453C2F20003B3
:100690001B680193019B9B68002BDBD003B000BD5E
:1006A00008B540F61013C2F200031B68002B06D1F8
:1006B00040F61413C2F200031B68002B05D044F669
:1006C0001000C0F6000000F073F908BDAFF3008021
:1006D00008B540F61013C2F200031B68002B06D1C8
:1006E00040F61413C2F200031B68002B05D044F639
:1006F0001800C0F6000000F05BF940F61413C2F2D7
:1007000000034FF001021A6008BD00BFAFF3008084
:1007100008B540F61013C2F200031B68002B06D187
:1007200040F61413C2F200031B68002B05DC44F6EC
:100730002000C0F6000000F03BF940F61413C2F2AE
:1007400000034FF000021A6008BD00BFAFF3008045
:1007500008B540F61013C2F200031B68002B06DD3B
:1007600040F61413C2F200031B68002B05D044F6B8
:100770002800C0F6000000F01BF940F61413C2F286
:1007800000034FF001021A6008BD00BFAFF3008004
:1007900008B540F61013C2F200031B68002B06DDFB
:1007A00040F61413C2F200031B68002B05DC44F66C
:1007B0003000C0F6000000F0FBF840F61413C2F25F
:1007C00000034FF000021A6008BD00BFAFF30080C5
:1007D00008B54FF0200383F3118840F61013C2F2DE
:1007E00000031B68002B06DB40F61413C2F2000363
:1007F0001B68002B05D044F63800C0F6000000F05E
:10080000D7F840F61013C2F200031B6803F101028F
:1008100040F61013C2F200031A604FF0000383F396
:10082000118808BDAFF30080AFF30080AFF3008004
:1008300008B54FF0200383F3118840F61013C2F27D
:1008400000031B68002B06DD40F61413C2F2000300
:100850001B68002B05D044F64000C0F6000000F0F5
:10086000A7F840F61013C2F200031B6803F1FF3231
:1008700040F61013C2F200031A604FF0000383F336
:10088000118808BDAFF30080AFF30080AFF30080A4
:1008900008B540F61013C2F200031B68002B06DBFC
:1008A00040F61413C2F200031B68002B05DC44F66B
:1008B0004800C0F6000000F07BF808BDAFF30080F0
:1008C00008B540F61013C2F200031B68002B06D1D6
:1008D00040F61413C2F200031B68002B05DC44F63B
:1008E0005000C0F6000000F063F808BDAFF30080D0
:1008F00040F61813C2F200034FF040021A6040F6AF
:100900001813C2F20003014A5A6070472009002000
:1009100082B0019040F61813C2F200035A6840F604
:100920002453C2F20003DB68136040F61813C2F2CE
:1009300000035A6840F63453C2F20003DB69536087
:1009400040F61813C2F200035B68019A926A9A603B
:1009500040F61813C2F200035B68019A92F8202057
:100960001A7340F61813C2F200035B6803F1100219
:1009700040F61813C2F200035A6040F61813C2F290
:1009800000035A68054B9A4205D340F61813C2F289
:100990000003034A5A6002B0704700BF200D0020D8
:1009A00020090020AFF30080AFF30080AFF3008098
:1009B00000B583B0019040F62053C2F20003019AC3
:1009C0001A60FFF725FC03B000BD00BFAFF3008045
:1009D00040F62452C2F2000240F62453C2F2000351
:1009E0005A6040F62453C2F200035A6840F624537A
:1009F000C2F200031A6040F62453C2F200034FF023
:100A0000FF329A6040F62453C2F200034FF0000216
:100A1000DA607047AFF30080AFF30080AFF300807F
:100A200000B587B00390029101920093FFF730FF69
:100A3000039B002B05D0019B002B02D0029B002BB7
:100A400005D144F66000C0F60000FFF7B1FF039B3C
:100A5000009A1A61039B019ADA6040F62453C2F2AD
:100A600000031B68059308E0059B9B68029AC3EB93
:100A700002030293059B1B680593059B9A68029BE2
:100A80009A42F1D3039B059A1A60039B1B685A682C
:100A9000039B5A60039B5B68059A03995160059A12
:100AA00052681A60039B029A9A60059A40F6245392
:100AB000C2F200039A4206D0059B9A68029BC3EBE0
:100AC0000202059B9A6007B000BD00BFAFF3008033
:100AD00000B583B00190FFF7DBFE019B002B05D131
:100AE00044F67000C0F60000FFF762FF019BDB6870
:100AF000002B05D144F68000C0F60000FFF758FF38
:100B0000019B1A6840F62453C2F200039A4208D0AF
:100B1000019B1B68019A12689168019A92680A44C5
:100B20009A60019B5B68019A12681A60019B1B68BE
:100B3000019A52685A60019B4FF00002DA6003B0DC
:100B400000BD00BFAFF30080AFF30080AFF30080C3
:100B500084B00190019B1B680393039B1A68019B5F
:100B60001A60019B1B68019A5A60039B184604B0E7
:100B7000704700BFAFF30080AFF30080AFF3008099
:100B800082B00190019B5B68019A12681A60019B18
:100B90001B68019A52685A60019B184602B0704760
:100BA00040F63452C2F2000240F63453C2F200035F
:100BB0005A6040F63453C2F200035A6840F6345388
:100BC000C2F200031A6040F63453C2F200034FF041
:100BD00000029A6040F63453C2F200034FF0140250
:100BE0009A6140F63452C2F2000240F63453C2F227
:100BF00000035A6140F63453C2F200035A6940F6CA
:100C00003453C2F200031A61704700BFAFF3008093
:100C100000B585B00190019B93F82030002B04D0E3
:100C2000019B93F820300E2B05D144F6A000C0F6AE
:100C30000000FFF7BDFE019B4FF0000283F820206B
:100C400040F63453C2F200030393039B1B680393E3
:100C5000039B9A68019B9B689A42F6D2019B039A78
:100C60001A60039B5A68019B5A60019B5B68039A58
:100C700001995160039A52681A60019B184605B0A9
:100C800000BD00BFAFF30080AFF30080AFF3008082
:100C900000B585B003468DF80730FFF711FE40F62A
:100CA0003453C2F20003DB690393039B9DF80720D2
:100CB00083F8202040F63453C2F200034FF01402B0
:100CC0009A6140F63450C2F20000FFF741FF02463D
:100CD00040F63453C2F20003DA6140F63453C2F2F4
:100CE0000003DB694FF0010283F820200398FFF72F
:100CF0000FFE6B46A3F12402039BDB699A4205D2E7
:100D000044F6B400C0F60000FFF752FE40F634533C
:100D1000C2F20003DB6918460399FFF741FB05B0F7
:100D200000BD00BFAFF30080AFF30080AFF30080E1
:100D300000B585B00190019B0393039B93F820308D
:100D40000D2B28D801A252F823F000BFA70D0008F0
:100D5000970D0008970D0008850D0008970D0008F5
:100D6000910D0008970D0008970D0008970D0008D9
:100D7000970D0008970D0008970D0008970D0008C3
:100D8000910D0008039B9B6A9A6802F101029A6028
:100D90000398FFF7F5FE039B4FF0FF329A6203982A
:100DA000FFF736FF00E000BF05B000BDAFF30080E5
:100DB00000B589B0034600918DF80730FFF780FD3C
:100DC000009BB3F1FF3F1AD040F63453C2F2000348
:100DD000DB6903AA1046009940F63152C0F60002C2
:100DE000FFF71EFE9DF807301846FFF751FF069BE0
:100DF000002B0AD003AB1846FFF76AFE06E09DF809
:100E000007301846FFF744FF00E000BF40F63453B8
:100E1000C2F20003DB699B6A184609B000BD00BF3F
:100E200000B585B001900091FFF74AFD019B009A43
:100E30009A62019B9A6840F63453C2F20003DB6960
:100E40009B689A4203D80198FFF7E2FE2FE040F634
:100E50003453C2F20003DB691846FFF7D9FE03469C
:100E6000039340F63453C2F200034FF014029A6128
:100E700040F63453C2F20003019ADA61019B4FF04D
:100E8000010283F820200398FFF742FD6B46A3F18F
:100E90002402039BDB699A4205D244F6B400C0F6F3
:100EA0000000FFF785FD01980399FFF779FA05B077
:100EB00000BD00BFAFF30080AFF30080AFF3008050
:100EC00000B583B040F63453C2F200034FF0140271
:100ED0009A6140F63453C2F20003DB69019340F695
:100EE0003450C2F20000FFF733FE024640F634539E
:100EF000C2F20003DA6140F63453C2F20003DB6948
:100F00004FF0010283F820200198FFF781FE01983D
:100F1000FFF7FEFC6B46A3F12402019BDB699A42BA
:100F200005D244F6B400C0F60000FFF741FD40F6DC
:100F30003453C2F20003DB6918460199FFF730FA17
:100F400003B000BDAFF30080AFF30080AFF30080CB
:100F500084B00190019B1B680393039B1A68019B5B
:100F60001A60039B184604B0704700BFAFF30080BF
:100F700082B001900091019B009A9A60019B4FF012
:100F8000020283F82020019B4FF0000283F8212009
:100F9000019B009A5A64019B4FF000021A64019B66
:100FA0004FF00002DA63019B4FF000025A62019B8E
:100FB0004FF000029A6140F63453C2F20003019AE6
:100FC000136140F63453C2F200035A69019B5A611F
:100FD000019B5A6940F63453C2F2000301995961EA
:100FE00040F63453C2F200035B691361019B03F1C5
:100FF0002C031A46019BDA62019B03F130031A4667
:10100000019B5A63019B5A6B019B1A63019B03F17D
:101010004802019BDA61019B184602B0704700BF8D
:1010200084B00390029113468DF8073007E0039BCC
:101030009DF807201A70039B03F101030393039AA1
:10104000029B9A42F3D304B0704700BFAFF3008015
:1010500000B587B00390029101920093039B059322
:10106000FFF716FC039B002B08D0029BAF2B05D982
:10107000019B7F2B02D8009B002B05D144F6D000AA
:10108000C0F60000FFF794FC039A029BA3F124032F
:101090001A44059BDA60059BDB68009A1A60059B81
:1010A000DB68089A5A60059BDA6840F2C133C0F6E3
:1010B0000003136205980199FFF75AFF034618468B
:1010C00007B000BDAFF30080AFF30080AFF3008046
:1010D00000B589B00590049103920293059A059B8F
:1010E00003F14803104619464FF0FF02FFF798FF3F
:1010F000059B03F148020599049B0B4410461946D1
:101100004FF05502FFF78CFF4FF0200383F3118857
:10111000FFF7DEFA0A9B009305980499039A029B55
:10112000FFF796FF0346079307984FF00001FFF77C
:1011300077FEFFF7EDFA4FF0000383F31188079B6A
:10114000184609B000BD00BFAFF30080AFF30080C8
:1011500000B583B00190019B002B05D144F610101F
:10116000C0F60000FFF724FC4FF0200383F3118842
:10117000FFF7AEFA4FF006000199FFF719FEFFF7EF
:10118000C7FA4FF0000383F3118803B000BD00BF1E
:1011900000B583B001904FF0200383F31188FFF76F
:1011A00097FA019800F004F803B000BDAFF3008097
:1011B00000B585B0019040F63453C2F20003DB69FC
:1011C0000393039B019A9A6209E0039B03F12C03AA
:1011D0001846FFF7BDFE03461846FFF719FD039BAF
:1011E000DA6A039B03F12C039A42EED1039B93F836
:1011F000213003F00303002B09D1039B5B69039AA1
:1012000012691A61039B1B69039A52695A614FF074
:101210000E00FFF73DFD44F62010C0F60000FFF77A
:10122000C7FB05B000BD00BFAFF30080AFF3008087
:1012300084B001900091009B0393039B1B68039370
:10124000009B039A9A4205D0039B9A68019B9B6876
:101250009A42F2D2019B039A1A60039B5A68019B3F
:101260005A60019B5B68039A01995160039A526826
:101270001A6004B0704700BFAFF30080AFF3008086
:1012800084B00190019B1B680393039B1A68019B28
:101290001A60019B1B68019A5A60039B184604B0B0
:1012A000704700BFAFF30080AFF30080AFF3008062
:1012B00082B00190019B5B68019A12681A60019BE1
:1012C0001B68019A52685A60019B184602B0704729
:1012D00000B583B00190019B002B05D144F660104E
:1012E000C0F60000FFF764FB019B1A46019B5A60A1
:1012F000019B5A68019B1A60019B4FF000029A60A3
:1013000003B000BDAFF30080AFF30080AFF3008007
:1013100000B583B001904FF0200383F31188FFF7ED
:10132000D7F9019800F00CF8FFF7F2F94FF000033D
:1013300083F3118803B000BDAFF30080AFF30080EA
:1013400000B585B0019040F63453C2F20003DB696A
:101350000293FFF7B5FA019B002B05D144F67010FC
:10136000C0F60000FFF724FB019B9B68002B62D0B6
:10137000019B9B68039335E0029B9A68039B9A60EC
:10138000039B93F82030042B04D0052B11D0002BA5
:101390001AD02DE00398FFF78BFF0246039B9B6A50
:1013A00010461946FFF744FF039B9B6A9B68039313
:1013B00018E00398FFF77CFF0246039B9B6A1046E8
:1013C0001946FFF735FF0CE0039B4FF0010283F84D
:1013D00020200398FFF76CFF03461846FFF718FC20
:1013E00000BF05E0039B9A68029B9B689A42C3D3A7
:1013F000019B02981946FFF71BFF029B019A9A6214
:101400004FF00400FFF744FC019B9A68029B9A424C
:1014100005D044F68010C0F60000FFF7C9FA029B21
:101420001A6C019B9A4210D044F69410C0F600004A
:10143000FFF7BEFA09E0019B029A9A60029B1A6CC0
:10144000019BDA60029B019A1A6405B000BD00BFDF
:1014500000B587B040F63453C2F20003DB69039352
:101460004FF0200383F31188FFF732F9039B1B6CC5
:10147000002B05D144F6BC10C0F60000FFF798FA27
:10148000039B1B6C9A68039B9A4205D044F6D010CC
:10149000C0F60000FFF78CFA039B1B6C0293029BC3
:1014A000DA68039B1A64029B1A68029B9A4234D042
:1014B000039B5B6C0493039B1B6C059311E0059BE2
:1014C0001A68059B9A4209D0059B1B689A68049B81
:1014D0009A4203D9059B1B689B680493059BDB68B4
:1014E0000593059B002BEAD1039B049A9A60029B0B
:1014F0001846FFF7C5FE03460193029B019A9A60C6
:10150000019B1A6C029BDA60019B029A1A64019893
:101510004FF00001FFF784FC03E0029B4FF0000254
:101520009A60FFF7F5F84FF0000383F31188029BF0
:10153000184607B000BD00BFAFF30080AFF30080D6
:1015400000B583B001900091FFF7A2F9019B002B39
:1015500005D144F64C20C0F60000FFF729FA019BA4
:10156000DA6B009B42EA0302019BDA63019B93F86A
:101570002030082B07D1019BDA6B019B9B6A02EAA2
:101580000303002B0ED1019B93F82030092B10D1BF
:10159000019BDA6B019B9B6A02EA0302019B9B6A37
:1015A0009A4206D10198FFF733FB03464FF0000241
:1015B0009A6203B000BD00BFAFF30080AFF30080BC
:1015C00000B585B001900091FFF762F9019B002BF7
:1015D00005D144F66020C0F60000FFF7E9F9019B51
:1015E0001B6803930DE0039B5A68039B9968009B5B
:1015F00041EA030310461946FFF7A2FF039B1B684D
:101600000393019B039A9A42EDD105B000BD00BF40
:1016100082B001900091009A019B1A60009B5A6869
:10162000019B5A60019B5B68009A01995160009A86
:1016300052681A6002B07047AFF30080AFF30080C9
:1016400084B00190019B1B680393039B1A68019B64
:101650001A60019B1B68019A5A60039B184604B0EC
:10166000704700BFAFF30080AFF30080AFF300809E
:1016700000B583B001900091009B002B02D14FF088
:10168000FF3316E040F63453C2F20003DB69019ADF
:101690009A6240F63453C2F20003DA69019B1046A5
:1016A0001946FFF7B5FF4FF00D000099FFF780FBDB
:1016B0000346184603B000BDAFF30080AFF30080CF
:1016C00084B00390029101920093039B1A46039BFE
:1016D0005A60039B5A68039B1A60039B4FF00002F9
:1016E0009A60039B029A5A61039B5A69039B9A6111
:1016F000039B9A69039BDA60029A019B1A44039B3D
:101700001A61039B009ADA6104B07047AFF300805E
:1017100000B583B001900B468DF80330FFF7B8F8A1
:10172000019B5A69019B9B699A4206D1019B9B6868
:10173000002B02D06FF003032BE0019B9B6803F1A9
:101740000102019B9A60019B5B699DF803201A705E
:1017500003F10102019B5A61019B5A69019B1B69BC
:101760009A4203D3019BDA68019B5A61019B1A6874
:10177000019B9A420BD0019B1846FFF761FF03467D
:101780001846FFF745FA03464FF000029A624FF001
:101790000003184603B000BDAFF30080AFF3008034
:1017A00000B585B0019000914FF0200383F31188BC
:1017B000FEF78EFF019BDB69002B15D0019BDB69D7
:1017C0000198984711E001980099FFF751FF0346EF
:1017D0000393039B002B08DAFEF79AFF4FF00003F8
:1017E00083F31188039B25E000BF019B9B68002BBE
:1017F000E9D0019B9B6803F1FF32019B9A60019B3A
:101800009B691A788DF80B2003F10102019B9A6104
:10181000019B9A69019B1B699A4203D3019BDA6879
:10182000019B9A61FEF774FF4FF0000383F3118868
:101830009DF80B30184605B000BD00BFAFF3008027
:1018400000B587B00390029101920093039BDB697E
:1018500004934FF000030593019B002B05D144F640
:10186000A020C0F60000FFF7A3F84FF0200383F399
:101870001188FEF72DFF049B002B12D0049B0398C8
:1018800098470FE003980099FFF7F2FE0346002BFC
:1018900008D0FEF73DFF4FF0000383F31188059B4E
:1018A0003BE000BF039B9B68002BEBD0039B9B6836
:1018B00003F1FF32039B9A60039B9B691978029A9C
:1018C0001170029A02F10102029203F10102039BDC
:1018D0009A61039B9A69039B1B699A4203D3039BFA
:1018E000DA68039B9A61FEF713FF4FF0000383F35E
:1018F0001188059B03F101030593019B03F1FF335D
:101900000193019B002B01D1059B06E04FF02003C2
:1019100083F31188FEF7DCFEADE7184607B000BD83
:1019200084B00390029101920093039B1A46039B9B
:101930005A60039B5A68039B1A60039B019A9A6042
:10194000039B029A5A61039B5A69039B9A61039B0A
:101950009A69039BDA60029A019B1A44039B1A61FD
:10196000039B009ADA6104B0704700BFAFF30080B8
:1019700000B587B003900B4601928DF80B304FF005
:10198000200383F31188FEF7A3FE10E0039801996A
:10199000FFF76EFE03460593059B002B07DAFEF763
:1019A000B7FE4FF0000383F31188059B2CE0039BE7
:1019B0009B68002BEAD0039B9B6803F1FF32039BDB
:1019C0009A60039B5B699DF80B201A7003F101027A
:1019D000039B5A61039B5A69039B1B699A4203D379
:1019E000039BDA68039B5A61039BDB69002B03D0DE
:1019F000039BDB6903989847FEF78AFE4FF00003CC
:101A000083F311884FF00003184607B000BD00BFF4
:101A100000B585B00190FEF73BFF019B5A69019B21
:101A20009B699A4206D1019B9B68002B02D06FF004
:101A300002032BE0019B9B6803F10102019B9A606A
:101A4000019B9B691A788DF80F2003F10102019B1D
:101A50009A61019B9A69019B1B699A4203D3019B7E
:101A6000DA68019B9A61019B1A68019B9A420BD02C
:101A7000019B1846FFF7E4FD03461846FFF7C8F838
:101A800003464FF000029A629DF80F30184605B0E9
:101A900000BD00BFAFF30080AFF30080AFF3008064
:101AA00000B587B00390029101920093039BDB691C
:101AB00004934FF000030593019B002B05D144F6DE
:101AC000B420C0F60000FEF773FF4FF0200383F34D
:101AD0001188FEF7FDFD0EE003980099FFF7C8FDA1
:101AE0000346002B07D0FEF713FE4FF0000383F3ED
:101AF0001188059B41E0039B9B68002BECD0039B66
:101B00009B6803F1FF32039B9A60039B5B69029A17
:101B100012781A7003F10102039B5A61029B03F1D0
:101B200001030293039B5A69039B1B699A4203D3E7
:101B3000039BDA68039B5A61049B002B02D0049B31
:101B400003989847FEF7E4FD4FF0000383F31188F4
:101B5000059B03F101030593019B03F1FF330193FF
:101B6000019B002B01D1059B07E04FF0200383F37D
:101B70001188FEF7ADFD00BFBDE7184607B000BDF8
:101B800041F2FC43C2F2000303F1070323F0070311
:101B90001A4640F65453C2F200031A6045F200039D
:101BA000C2F2000323F007031A4640F65853C2F26C
:101BB00000031A60704700BFAFF30080AFF30080EE
:101BC00008B500F0B5FC44F6F060C0F6000002F085
:101BD0009FF800F00DF800F05BF800F071F800F0ED
:101BE000CFF902F095F908BDAFF30080AFF30080A4
:101BF00008B500F09DFF08BDAFF30080AFF3008093
:101C000082B00190019B4FF001021A70019B4FF0CE
:101C100000025A6002B07047AFF30080AFF300805B
:101C200000B583B001900091019B002B02D0009B76
:101C3000002B05D144F6D020C0F60000FEF7B8FE18
:101C40004FF0200383F31188FEF742FD019B1B78C0
:101C5000012B09D0019B1B78022B05D044F6E02014
:101C6000C0F60000FEF7A4FE019B009A5A6001989E
:101C700000F066FF019B4FF002021A70FEF748FD6C
:101C80004FF0000383F3118803B000BDAFF3008071
:101C900008B501F0A5F808BDAFF30080AFF30080F0
:101CA00082B00190019B4FF001021A70019B4FF02E
:101CB00000025A6002B07047AFF30080AFF30080BB
:101CC00008B501F06DFD08BDAFF30080AFF30080F3
:101CD00082B00190019B4FF001021A70019B4FF0FE
:101CE00000025A6002B07047AFF30080AFF300808B
:101CF00000B583B001900091019B002B02D0009BA6
:101D0000002B05D144F67030C0F60000FEF750FEFF
:101D1000019B1B78012B0DD0019B1B78022B09D056
:101D2000019B1B78052B05D044F68030C0F60000DF
:101D3000FEF73EFE4FF0200383F31188FEF7C8FC48
:101D4000019B009A5A60019801F052FD019B4FF0EF
:101D500002021A70FEF7DCFC4FF0000383F31188D7
:101D600003B000BDAFF30080AFF30080AFF300809D
:101D700000B589B00590039202930B46ADF812307E
:101D80004FF0200383F31188FEF7A2FC059B4FF070
:101D900000029A60059B4FF000021A70BDF81230E5
:101DA0000A9A00920B9A019205981946039A029B8F
:101DB00001F0CEFD03460793079BB3F1FF3F04D12B
:101DC000059B4FF005021A7003E0059B4FF00202DD
:101DD0001A70FEF79DFC4FF0000383F31188079BF8
:101DE000184609B000BD00BFAFF30080AFF300801C
:101DF00000B585B0039002910192039B03F130037B
:101E000018460299019A4FF0FF33FFF749FE034647
:101E1000184605B000BD00BFAFF30080AFF30080EF
:101E200000B585B0039002910192039B03F110036A
:101E300018460299019A4FF0FF33FFF701FD034660
:101E4000184605B000BD00BFAFF30080AFF30080BF
:101E500082B00190019B9B6B002B14BF00230123D8
:101E6000184602B0704700BFAFF30080AFF30080A8
:101E700082B00190019B9B69002B14BF00230123BA
:101E8000184602B0704700BFAFF30080AFF3008088
:101E900000B585B003900B4601928DF80B30039B83
:101EA00003F130029DF80B3010461946019AFFF7F6
:101EB0005FFD0346184605B000BD00BFAFF30080CC
:101EC00000B583B001900091019B03F11003184607
:101ED0000099FFF765FC0346184603B000BD00BF3C
:101EE00000B585B00390029101920093039B03F12A
:101EF000300318460299019A009BFFF7D1FD034673
:101F0000184605B000BD00BFAFF30080AFF30080FE
:101F100000B585B00390029101920093039B03F1F9
:101F2000100318460299019A009BFFF789FC0346AB
:101F3000184605B000BD00BFAFF30080AFF30080CE
:101F400000B585B001904FF0200383F31188FEF7B0
:101F5000BFFB019B9B680393019B4FF000029A60BB
:101F6000FEF7D6FB4FF0000383F31188039B18465E
:101F700005B000BDAFF30080AFF30080AFF3008089
:101F800008B501F0ADFE08BDAFF30080AFF30080EF
:101F900000B585B0039002910192039A44F6406324
:101FA000C0F600031360039B03F104031A46039B6E
:101FB0005A60039B4FF000029A60039B4FF00102AE
:101FC0001A73039B03F11002039B03F150031046A5
:101FD00019464FF40072029BFFF772FB039B03F15B
:101FE0003002039B03F51473104619464FF4007238
:101FF000019BFFF795FC05B000BD00BFAFF300806B
:1020000000B583B001900B468DF80330FEF740FC1D
:10201000019B002B05D144F67840C0F60000FEF786
:10202000C7FC019B9B69002B0DD1019B9B6843F072
:102030000402019B9A60019B03F1040318464FF0D0
:102040000001FFF7BDFA019B03F110029DF8033078
:1020500010461946FFF75CFB0346002B0DDA019B87
:102060009B6843F08002019B9A60019B03F104038B
:1020700018464FF00001FFF7A3FA03B000BD00BF00
:1020800000B583B0FEF7A4FB4FF00003C4F20203D7
:102090001B6803F00F0301934FF00003C4F2020327
:1020A0004FF00F025A6040F66053C2F200031B6803
:1020B000002B0CD040F66053C2F200031A6840F6C1
:1020C0006053C2F200035B68184601999047FEF71F
:1020D000AFFBFEF7FDF803B000BD00BFAFF300801B
:1020E00000B583B0FEF774FB4FF00003C4F20203A7
:1020F0001B684FEA131303F00F0301934FF0000323
:10210000C4F202034FF0F0025A6040F66053C2F28C
:1021100000039B68002B0CD040F66053C2F2000312
:102120009A6840F66053C2F20003DB6818460199D2
:102130009047FEF77DFBFEF7CBF803B000BD00BF74
:1021400000B583B0FEF744FB4FF00003C4F2020376
:102150001B684FEA132303F00F0301934FF00003B2
:10216000C4F202034FF470625A6040F66053C2F248
:1021700000031B69002B0CD040F66053C2F2000331
:102180001A6940F66053C2F200035B691846019970
:102190009047FEF74DFBFEF79BF803B000BD00BF74
:1021A00000B583B0FEF714FB4FF00003C4F2020346
:1021B0001B684FEA133303F00F0301934FF0000342
:1021C000C4F202034FF470425A6040F66053C2F208
:1021D00000039B69002B0CD040F66053C2F2000351
:1021E0009A6940F66053C2F20003DB691846019910
:1021F0009047FEF71DFBFEF76BF803B000BD00BF74
:1022000000B583B0FEF7E4FA4FF00003C4F2020316
:102210001B684FEA134303F00F0301934FF00003D1
:10222000C4F202034FF470225A6040F66053C2F2C7
:1022300000031B6A002B0CD040F66053C2F200036F
:102240001A6A40F66053C2F200035B6A18460199AD
:102250009047FEF7EDFAFEF73BF803B000BD00BF74
:1022600000B583B0FEF7B4FA4FF00003C4F20203E6
:102270001B684FEA135303F00F0301934FF0000361
:10228000C4F202034FF470025A6040F66053C2F287
:1022900000039B6A002B0CD040F66053C2F200038F
:1022A0009A6A40F66053C2F20003DB6A184601994D
:1022B0009047FEF7BDFAFEF70BF803B000BD00BF74
:1022C00000B583B0FEF784FA4FF00003C4F20203B6
:1022D0001B684FEA136303F00F0301934FF00003F1
:1022E000C4F202034FF070625A6040F66053C2F2CB
:1022F00000031B6B002B0CD040F66053C2F20003AE
:102300001A6B40F66053C2F200035B6B18460199EA
:102310009047FEF78DFAFDF7DBFF03B000BD00BF6D
:1023200082B040F65C53C2F200034FF000021A6024
:102330004FF0000301931CE044F67062C0F6000207
:1023400001990B464FEA43030B444FEA83031344BE
:102350001B684FF000021A6040F66053C2F200039F
:10236000019A4FF0000143F83210019B03F1010381
:102370000193019B062BDFDD4FF00003C4F2020343
:102380004FF0FF325A6002B0704700BFAFF30080D9
:1023900000B585B00390029101920093039B002B3E
:1023A00005D144F6A040C0F60000FEF701FB039BF8
:1023B0005B7A4FF0010202FA03F31A4640F65C53CF
:1023C000C2F200031B6802EA0303002B02D04FF0A5
:1023D000010361E0039B5B7A1A4640F66053C2F248
:1023E0000003019943F83210039B5B7A40F6605278
:1023F000C2F200024FEAC3031344009A5A60039BDF
:102400005B7A4FF0010202FA03F31A4640F65C537E
:10241000C2F200031B6842EA030240F65C53C2F2B8
:1024200000031A6040F65C53C2F200031B6803F01D
:102430007F03002B0BD04FF48053C4F202034FF400
:102440008052C4F20202526942F001025A61039BB7
:102450001B68039A1268126822F001021A60039B3B
:102460005B68039A127A4FF00F0101FA02F21A60C8
:10247000039B1B684FF000021A60019B002B09D0E0
:10248000039B9B7A1A46029B4FEA03131046194698
:10249000FDF7A6FF4FF00003184605B000BD00BFD2
:1024A0004FF4E043C4F200034FF4E042C4F20002F0
:1024B000126842F480721A604FF48053C4F202032F
:1024C0001B6A03F44073B3F5407F0DD04FF4805383
:1024D000C4F202034FF480321A624FF48053C4F204
:1024E00002034FF000021A624FF48053C4F2020359
:1024F0001B6A03F40043002B17D14FF48053C4F23E
:1025000002034FF48052C4F20202126A42F4407293
:102510001A624FF48053C4F202034FF48052C4F2A3
:102520000202126A42F400421A627047AFF300805E
:1025300008B54FF48053C4F202031B694FF4805373
:10254000C4F202034FF0FF321A614FF48053C4F219
:1025500002034FF000021A614FF48053C4F20203E9
:10256000DB684FF48053C4F202034FF0FF32DA60AD
:102570004FF48053C4F202034FF00002DA604EF2CF
:102580001003CEF2000343F27F22C0F202025A602F
:102590004EF21003CEF200034FF000029A604EF2AA
:1025A0001003CEF200034FF007021A604EF6F0530C
:1025B000CEF200034EF6F052CEF20002D26842F0A4
:1025C0008072DA604FF48053CEF200034FF48052F1
:1025D000CEF20002126842F001021A604FF48053FA
:1025E000C4F202034FF48052C4F20202D26942F0F4
:1025F0008052DA614FF48053C4F202034FF48052E8
:10260000C4F20202D26942F00062DA61FFF748FFC9
:10261000FFF786FE08BD00BFAFF30080AFF3008078
:102620004FF48053C4F202034FF48052C4F202020A
:10263000126842F001021A6000BF4FF48053C4F2E6
:1026400002031B6803F00203002BF6D04FF4805303
:10265000C4F202034FF48052C4F20202126802F084
:10266000F9021A604FF48053C4F202034FF00002E3
:102670005A6000BF4FF48053C4F202035B6803F05A
:102680000C03002BF6D14FF48053C4F202034FF435
:102690008052C4F20202126842F480321A6000BF13
:1026A0004FF48053C4F202031B6803F40033002B81
:1026B000F6D04FF48053C4F202034FF48052C4F2B8
:1026C0000202526A42F001025A6200BF4FF4805384
:1026D000C4F202035B6A03F00203002BF6D04FF44E
:1026E0008053C4F202034FF48052C4F202025268D3
:1026F00042F4E8125A604FF48053C4F202034FF4DC
:102700008052C4F20202126842F080721A6000BF66
:102710004FF48053C4F202031B6803F00073002BD4
:10272000F6D04FF48053C4F202034FF4C842C0F213
:102730001D025A604FF40053C4F202034FF012021C
:102740001A604FF48053C4F202034FF48052C4F273
:102750000202526842F002025A6000BF4FF48053F6
:10276000C4F202035B6803F00C03082BF6D1704738
:1027700008B5FEF72DF84FF48063C4F201034FF063
:1027800001025A6140F69853C2F200035B685B682D
:1027900040F69850C2F200004FF000019847FEF753
:1027A00047F8FDF795FD08BDAFF30080AFF300805B
:1027B00008B5FEF70DF84FF48063C4F201034FF043
:1027C00002025A6140F69853C2F200035B68DB686C
:1027D00040F69850C2F200004FF001019847FEF712
:1027E00027F8FDF775FD08BDAFF30080AFF300805B
:1027F00008B5FDF7EDFF4FF48063C4F201034FF01D
:1028000004025A6140F69853C2F200035B685B69A8
:1028100040F69850C2F200004FF002019847FEF7D0
:1028200007F8FDF755FD08BDAFF30080AFF300805A
:1028300008B5FDF7CDFF4FF48063C4F201034FF0FC
:1028400008025A6140F69853C2F200035B68DB69E4
:1028500040F69850C2F200004FF003019847FDF790
:10286000E7FFFDF735FD08BDAFF30080AFF3008053
:1028700008B5FDF7ADFF4FF48063C4F201034FF0DC
:1028800010025A6140F69853C2F200035B685B6A1B
:1028900040F69850C2F200004FF004019847FDF74F
:1028A000C7FFFDF715FD08BDAFF30080AFF3008053
:1028B00000B583B0FDF78CFF4FF48063C4F20103D1
:1028C0005B6903F4787301934FF48063C4F20103EE
:1028D000019A5A61019B03F02003002B0CD040F6B3
:1028E0009853C2F200035B68DB6A40F69850C2F26C
:1028F00000004FF005019847019B03F04003002BB7
:102900000CD040F69853C2F200035B685B6B40F654
:102910009850C2F200004FF006019847019B03F067
:102920008003002B0CD040F69853C2F200035B6882
:10293000DB6B40F69850C2F200004FF00701984759
:10294000019B03F48073002B0CD040F69853C2F225
:1029500000035B685B6C40F69850C2F200004FF0D9
:1029600008019847019B03F40073002B0CD040F63C
:102970009853C2F200035B68DB6C40F69850C2F2D9
:1029800000004FF009019847FDF752FFFDF7A0FC4A
:1029900003B000BDAFF30080AFF30080AFF3008061
:1029A00000B583B0FDF714FF4FF48063C4F2010358
:1029B0005B6903F47C4301934FF48063C4F2010329
:1029C000019A5A61019B03F48063002B0CD040F6FE
:1029D0009853C2F200035B685B6D40F69850C2F2F8
:1029E00000004FF00A019847019B03F40063002B9D
:1029F0000CD040F69853C2F200035B68DB6D40F6E2
:102A00009850C2F200004FF00B019847019B03F46D
:102A10008053002B0CD040F69853C2F200035B6841
:102A20005B6E40F69850C2F200004FF00C019847E0
:102A3000019B03F40053002B0CD040F69853C2F2D4
:102A400000035B68DB6E40F69850C2F200004FF066
:102A50000D019847019B03F48043002B0CD040F6F6
:102A60009853C2F200035B685B6F40F69850C2F265
:102A700000004FF00E019847019B03F40043002B28
:102A80000CD040F69853C2F200035B68DB6F40F64F
:102A90009850C2F200004FF00F019847FDF7C8FEB2
:102AA000FDF716FC03B000BDAFF30080AFF300806C
:102AB00008B5FDF78DFE4FF48063C4F201034FF4B7
:102AC00080325A6140F69853C2F200035B68D3F833
:102AD000843040F69850C2F200004FF01001984741
:102AE000FDF7A6FEFDF7F4FB08BD00BFAFF30080C5
:102AF00008B5FDF76DFE4FF48063C4F201034FF497
:102B000080225A6140F69853C2F200035B68D3F802
:102B1000943040F69850C2F200004FF012019847EE
:102B2000FDF786FEFDF7D4FB08BD00BFAFF30080C4
:102B300008B540F69850C2F20000FFF761F808BDF2
:102B400000B589B00190019B1B78012B3BD14FF060
:102B500006004FF06001FDF743FC4FF007004FF017
:102B60006001FDF73DFC4FF008004FF06001FDF7FC
:102B700037FC4FF009004FF06001FDF731FC4FF0DA
:102B80000A004FF06001FDF72BFC4FF017004FF0EB
:102B90006001FDF725FC4FF028004FF06001FDF7C4
:102BA0001FFC4FF001004FF06001FDF719FC4FF0E2
:102BB00029004FF06001FDF713FC4FF02A004FF0A1
:102BC0006001FDF70DFC4FF000030393039B04939A
:102BD000049B0593059B06934FF0000307934DE07C
:102BE000019B5B68079A53F8323003F00403002B13
:102BF00040D0019B5A68079B4FEAC30313445B68AC
:102C0000002B09D0079B4FF0010202FA03F3069A4A
:102C100042EA0303069308E0079B4FF0010202FA21
:102C200003F3059A42EA03030593019B5B68079A45
:102C300053F8323003F00103DBB2002B08D0079BBE
:102C40004FF0010202FA03F3049A42EA03030493E9
:102C5000019B5B68079A53F8323003F00203002BA4
:102C600008D0079B4FF0010202FA03F3039A42EAED
:102C700003030393079B03F101030793079B122BA5
:102C8000AED94FF00003C4F20103019A5268B2F8C2
:102C900098209A604FF00003C4F20103019A526831
:102CA000B2F89A20DA604FF00003C4F20103019AEF
:102CB0005268B2F89C201A614FF00003C4F201037D
:102CC000019A5268B2F89E205A614FF48063C4F2B0
:102CD00001034FF000021A614FF48063C4F2010354
:102CE000049A9A604FF48063C4F20103039ADA6095
:102CF0004FF48063C4F201034FF6FF72C0F2070283
:102D00005A614FF48063C4F20103059A5A604FF48C
:102D10008063C4F20103069A1A6009B000BD00BFC7
:102D200000B583B00190019BDB684FF000021A826E
:102D3000019B1B78042B06D1019B4FF002021A70F5
:102D4000019800F08DF8019B5B685B6801989847DB
:102D500003B000BDAFF30080AFF30080AFF300809D
:102D600008B5FDF735FD40F6A050C2F20000FFF7B0
:102D7000D7FFFDF75DFDFDF7ABFA08BDAFF30080AF
:102D800008B5FDF725FD40F6B050C2F20000FFF790
:102D9000C7FFFDF74DFDFDF79BFA08BDAFF30080BF
:102DA00008B5FDF715FD40F6C050C2F20000FFF770
:102DB000B7FFFDF73DFDFDF78BFA08BDAFF30080CF
:102DC00008B5FDF705FD40F6D050C2F20000FFF750
:102DD000A7FFFDF72DFDFDF77BFA08BDAFF30080DF
:102DE00008B540F6A053C2F200034FF43052C4F2CB
:102DF0000102DA6040F6A050C2F20000FEF750FF78
:102E000040F6B053C2F200034FF08042DA6040F661
:102E1000B050C2F20000FEF743FF40F6C053C2F2CA
:102E200000034FF48062C4F20002DA6040F6C05042
:102E3000C2F20000FEF734FF40F6D053C2F20003A6
:102E40004FF40062C4F20002DA6040F6D050C2F2E1
:102E50000000FEF725FF08BDAFF30080AFF3008050
:102E600082B00190019BDB684FF000021A80019B49
:102E7000DB684FF000021A82019BDB684FF0000212
:102E80009A8102B0704700BFAFF30080AFF30080BB
:102E900000B587B00190019B1B6A0493019B5B689E
:102EA0005B680393019B5B681B7A8DF80B30019B79
:102EB000002B09D0039B002B06DD039A4FF410630F
:102EC000C0F23D039A4205DD44F6E040C0F6000042
:102ED000FDF76EFD049B9B889BB223F03F039AB2E3
:102EE000049B9A80049B9B889BB243F024039AB274
:102EF000049B9A804FF00003ADF8163040F6FF7344
:102F0000ADF81430039A48F2A063C0F201039A426C
:102F100046DC9DF80B30012B05D044F6F840C0F696
:102F20000000FDF745FD039B4FEA43024FF4A24327
:102F3000C0F2252393FBF2F102FB01F2C2EB030383
:102F4000002B05D044F61050C0F60000FDF730FD10
:102F5000039B4FEA43024FF4A243C0F2252393FBA5
:102F6000F2F3ADF81430BDF81430032B05D844F655
:102F70002850C0F60000FDF71BFDBDF814304FEAE5
:102F800003534FEA13539AB2BDF8163042EA0303D3
:102F90009BB2ADF81630049B4FF025021A8493E0E3
:102FA000039A4FF4D453C0F206039A4200F38C8084
:102FB0009DF80B30022B09D09DF80B30032B05D068
:102FC00044F64050C0F60000FDF7F2FC9DF80B30CF
:102FD000022B24D1039A13464FEA43031A444FF4B9
:102FE000A243C0F2252393FBF2F102FB01F2C2EBF4
:102FF0000303002B05D044F65850C0F60000FDF73F
:10300000D7FC039A13464FEA43031A444FF4A243F2
:10301000C0F2252393FBF2F3ADF8143033E09DF8B2
:103020000B30032B2FD1039A13464FEA830313442B
:103030004FEA83021A444FF4A243C0F2252393FBC4
:10304000F2F102FB01F2C2EB0303002B05D044F6C0
:103050007050C0F60000FDF7ABFC039A13464FEA30
:10306000830313444FEA83021A444FF4A243C0F28D
:10307000252393FBF2F3ADF81430BDF8163043F47A
:103080008043ADF81630BDF81430002B05D144F65E
:103090008850C0F60000FDF78BFCBDF814304FEAF5
:1030A00003534FEA13539BB26FEA43436FEA534310
:1030B0009AB2BDF8163042EA03039BB2ADF816305F
:1030C000049B4FF00B021A84BDF8142040F6FF73E6
:1030D0009A4205D944F6A050C0F60000FDF768FCFE
:1030E000049BBDF816209A8307B000BDAFF30080A3
:1030F00086B00190019B1B6A0493019B5B681B785F
:103100008DF80F30049B1B88ADF816309DF80F30FA
:10311000022B0AD0032B15D0012B1AD1BDF8163083
:1031200023F00A03ADF8163013E0BDF8163043F073
:103130000203ADF81630BDF8163023F00803ADF8E1
:10314000163006E0BDF8163043F00A03ADF816302D
:1031500000BF049BBDF816201A8006B0704700BF60
:1031600000B589B00190019B1B6A0693069B1B8BDF
:103170009BB20593069B9B8A9BB20793019B93F896
:103180002430002B40F0B880059B4FEA0342079B98
:1031900042EA030323F07F434FF00202C0F203022E
:1031A00093421ED04FF00202C0F20302934206D8AF
:1031B0004FF00102C0F2030293420DD093E04FF0B2
:1031C0008202C0F20702934234D04FF08402C0F270
:1031D0000702934241D086E0019B1A8A069B1A821D
:1031E00081E0069B9B889BB223F400739AB2069BF6
:1031F0009A80019B9B691B68019A92691268126808
:1032000042F001021A60069B9B889BB243F48053F4
:103210009AB2069B9A80019B9B691B685B68012B95
:1032200060D8069B1B889BB223F480639AB2069BEE
:103230001A8058E0069B9B889BB223F400739AB2D5
:10324000069B9A80019BDB691B68019AD269126810
:10325000126842F001021A6045E0019B9B691B68FD
:103260005B68002B0FD0019B1B8A43F001039AB2CD
:10327000019B1A82069B1B889BB243F4A0639AB2FF
:10328000069B1A80C1E0069B9B889BB223F40073C7
:103290009AB2069B9A80069B1B889BB243F40073EC
:1032A0009AB2069B1A804FF0200383F31188FDF732
:1032B0004FFA019BDB68002B0DD0019BDB68049368
:1032C000019B4FF00002DA60049B4FF000029A620B
:1032D0000498FDF79DFCFDF75BFA4FF0000383F3C4
:1032E000118800E000BF079B03F00A03002B00F0E9
:1032F0008B80069B1B8B88E0079B03F00A03002B47
:1033000007D0069B9B8A9BB20793069B1B8B9BB2A5
:103310000593079B03F08003002B24D04FF020037C
:1033200083F31188FDF714FA019BDB6A002B06D0AA
:10333000019BDB6A1846FEF76BFB034601E04FF08A
:1033400000030393FDF724FA4FF0000383F3118881
:10335000039B13F1030F02D0039BDBB201E04FF09C
:103360000003069A1382079B03F04003002B1CD036
:10337000069B1B8A9BB28DF80B30019B9B6A002B2E
:1033800013D04FF0200383F31188FDF7E1F9019B7F
:103390009A6A9DF80B3010461946FEF7B9F9FDF709
:1033A000F7F94FF0000383F31188079B03F0100334
:1033B000002B13D0019B1B6B002B03D0019B1B6BBD
:1033C00001989847069B9B8A9BB20793069B1B8894
:1033D0009BB243F001039AB2069B1A80079B03F449
:1033E0008063002B11D0019B5B6B002B03D0019BF2
:1033F0005B6B01989847069B9B8A9BB223F4806382
:103400009AB2069B9A8200E000BF09B000BD00BFDF
:1034100000B585B001900091019B1B6A0393009B4E
:1034200003F00803002B01D0FCF7F2FE019B9B691F
:103430001B68019A92691268126822F001021A60F0
:10344000019B9B695B68019A9269127A4FF00F01A8
:1034500001FA02F21A60019B93F82430002B35D157
:10346000039B9B889BB223F480539AB2039B9A8060
:10347000039B1B889BB223F480639AB2039B1A8040
:10348000039B1B889BB243F400739AB2039B1A8080
:103490004FF0200383F31188FDF75AF9019BDB6895
:1034A000002B0DD0019BDB680293019B4FF00002C3
:1034B000DA60029B4FF000029A620298FDF7A8FBC7
:1034C000FDF766F94FF0000383F3118805B000BDE6
:1034D00000B585B001900091019B1B6A0393009B8E
:1034E00003F00803002B01D0FCF792FE019BDB697F
:1034F0001B68019AD2691268126822F001021A60F0
:10350000019BDB695B68019AD269127A4FF00F0167
:1035100001FA02F21A60039B9B889BB243F400738A
:103520009AB2039B9A8005B000BD00BFAFF3008044
:1035300000B587B00190019B1B6A04934FF02003F4
:1035400083F31188FDF704F9019BDB691B68019A7D
:10355000D2691268126822F001021A60019BDB69CD
:103560005B68019AD269127A4FF00F0101FA02F2F8
:103570001A60019B9B691B68019A92691268126824
:1035800022F001021A60019B9B695B68019A9269B3
:10359000127A4FF00F0101FA02F21A60FDF7F8F803
:1035A0004FF0000383F311884FF000030593049B51
:1035B0009B8A9BB203F48073002B0BD0049B9B8AE5
:1035C0009BB223F480739AB2049B9A82059B43F0CA
:1035D00001030593049B9B8A9BB203F40073002BA9
:1035E0000BD0049B9B8A9BB223F400739AB2049B7A
:1035F0009A82059B43F002030593019B93F82430C4
:10360000002B23D1049B9B8A9BB203F48063002B85
:103610002DD0049B9B8A9BB223F480639AB2049BB7
:103620009A82049B9B889BB223F400739AB2049BFA
:103630009A80049B1B889BB243F400739AB2049B4C
:103640001A80059B43F00403059311E0049B9B8AB9
:103650009BB223F480639AB2049B9A82019B5B6BBA
:10366000002B05D0019B5B6B0198984700E000BFE1
:10367000049B9B8A9BB203F40063002B0BD0049B3A
:103680009B8A9BB223F400639AB2049B9A82059BA7
:1036900043F008030593049B9B8A9BB203F4805379
:1036A000002B0BD0049B9B8A9BB223F480539AB2CD
:1036B000049B9A82059B43F010030593049B9B8A0D
:1036C0009BB203F48043002B0BD0049B9B8A9BB2DC
:1036D00023F480439AB2049B9A82059B43F0200313
:1036E0000593049B9B8A9BB29BB21BB2002B0DDA05
:1036F000049B9B8A9BB24FEA43434FEA53439AB2DF
:10370000049B9A82059B43F040030593059B002B85
:1037100020D0019B059A9A604FF0200383F3118813
:10372000FDF716F8019BDB68002B0DD0019BDB68D1
:103730000393019B4FF00002DA60039B6FF00102DC
:103740009A620398FDF764FAFDF722F84FF0000340
:1037500083F3118807B000BDAFF30080AFF30080A2
:1037600008B5FDF735F840F6E050C2F20000FFF76B
:10377000F7FCFDF75DF8FCF7ABFD08BDAFF300808B
:1037800008B5FDF725F840F6E050C2F20000FFF75B
:10379000CFFEFDF74DF8FCF79BFD08BDAFF30080B1
:1037A00008B540F6E050C2F20000FEF791FA40F68C
:1037B000E053C2F200034FF00002DA6040F6E0533B
:1037C000C2F200034FF4A842C4F200021A6240F6AB
:1037D000E053C2F20003044A9A6140F6E053C2F299
:1037E0000003024ADA6108BDB84E0008AC4E00087A
:1037F00000B585B00190019B1B6A0393019B4FF0BC
:103800008A025A61019B1B78012B67D1019A40F60D
:10381000E053C2F200039A4260D14FF48053C4F2E5
:1038200002034FF48052C4F20202126942F4001201
:103830001A614FF48053C4F202034FF000021A6180
:10384000019B9A6943F21143C0F6000310464FF002
:103850000A011A46019BFEF79BFD03460293029B59
:10386000002B05D044F6B850C0F60000FDF7A0F8D4
:10387000019BDA6943F2D143C0F6000310464FF0D2
:103880000A011A46019BFEF783FD03460293029B41
:10389000002B05D044F6CC50C0F60000FDF788F8A8
:1038A0004FF48053C4F202034FF48052C4F2020278
:1038B000D26942F40012DA614FF01F004FF0A0010C
:1038C000FCF78EFD4FF020004FF0A001FCF788FDC3
:1038D000019B5B6943F48052019B5A61019BDB6948
:1038E0001B68019A526942F010021A60019B9B69A1
:1038F0001B68019A52691A60019B9B691B68039AB5
:1039000002F110029A60019BDB691B68039A02F1C5
:1039100010029A60039B4FF400421A80039B4FF001
:1039200000021A80039B4FF410629A800198FFF7FF
:10393000AFFA0198FFF7DCFB039B1B889BB243F0B7
:1039400001039AB2039B1A8005B000BDAFF300805B
:1039500086B00390019200930B46ADF80A30039BAA
:103960001B6A059340F63453C2F20003DA69039BE5
:10397000DA60059B1B8B9BB203F00203002B06D180
:10398000059B1B889BB203F40073002B02D04FF001
:10399000FF334EE0BDF80A304FEA43039AB2039B6F
:1039A0001A82039B4FF000029A60039B019A9A626D
:1039B000039B069A1A63039B009ADA62039B079A99
:1039C0005A63039B4FF0010283F82420059B1B8858
:1039D0009BB223F480739AB2059B1A80059B9B8847
:1039E0009BB223F400639AB2059B9A80BDF80A301B
:1039F0004FEA43039BB203F0FF039AB2059B1A817F
:103A0000059B9B889BB243F4C0639AB2059B9A8046
:103A1000059B1B889BB243F480639AB2059B1A8076
:103A200040F63453C2F20003DA69039BDA604FF0C8
:103A30000003184606B07047AFF30080AFF3008074
:103A400000B585B001900B46ADF802304FF0000391
:103A50000393BDF8023003F00803002B03D0039B4F
:103A600043F080030393BDF8023003F00103DBB29F
:103A7000002B03D0039B43F020030393BDF80230D7
:103A800003F00203002B03D0039B43F04003039396
:103A9000BDF8023003F00403002B03D0039B43F472
:103AA000807303934FF0200383F31188FCF750FEDB
:103AB000019B9A68039B42EA0302019B9A60019B67
:103AC00003F1040318464FF00001FDF779FDFCF700
:103AD0005FFE4FF0000383F3118805B000BD00BF07
:103AE00000B587B00190019BD3F850340593059B36
:103AF0009B89ADF81230059B1B88ADF81030059BF3
:103B00009B88ADF80E30BDF8103003F00F03002B8A
:103B100005D0BDF8103001981946FFF791FFBDF8A8
:103B2000103003F48073002B21D04FF0200383F377
:103B30001188FCF70DFE019B9B6843F40072019B0A
:103B40009A60019B03F1040318464FF00001FDF752
:103B500037FDFCF71DFE4FF0000383F31188059B32
:103B60001B889BB223F480739AB2059B1A80BDF820
:103B7000103003F02003002B12D04FF0200383F30A
:103B80001188FCF7E5FDBDF80E30DBB2019819464F
:103B9000FEF736FAFCF7FCFD4FF0000383F31188C3
:103BA000BDF8123003F08003002B3AD0BDF810307E
:103BB00003F08003002B34D04FF0200383F31188EF
:103BC000FCF7C6FD019B03F130031846FDF720FF0B
:103BD00003460293029B002B19DA019B9B6843F07A
:103BE0000802019B9A60019B03F1040318464FF001
:103BF0000001FDF7E5FCBDF8123023F0C0039BB2D5
:103C000043F040039BB29AB2059B9A8103E0029B6A
:103C10009AB2059B9A80FCF7BBFD4FF0000383F33B
:103C20001188BDF8103003F04003002B28D04FF06E
:103C3000200383F31188FCF78BFD019B9B6843F005
:103C40001002019B9A60019B03F1040318464FF098
:103C50000001FDF7B5FCFCF79BFD4FF0000383F37B
:103C60001188BDF8123023F040039AB2059B9A8167
:103C7000059B1B889BB223F040039AB2059B1A80D8
:103C800007B000BDAFF30080AFF30080AFF300805A
:103C900082B001904FF46053C4F201034FF46052BC
:103CA000C4F20102928992B242F0800292B29A81E9
:103CB00002B07047AFF30080AFF30080AFF3008035
:103CC00008B5FCF785FD40F61860C2F20000FFF76A
:103CD00007FFFCF7ADFDFCF7FBFA08BDAFF3008072
:103CE00008B540F61860C2F200004FF0000143F63C
:103CF0009142C0F60002FEF74BF940F61863C2F29B
:103D000000034FF46052C4F20102C3F8502408BD0E
:103D100082B001904FF48053C4F202034FF48052FA
:103D2000C4F20202926942F07D029A614FF400638C
:103D3000C4F20103019A1268DA604FF40063C4F21E
:103D40000103019A92685A604FF40063C4F20103C0
:103D5000019A52681A604FF44063C4F20103019A59
:103D6000D268DA604FF44063C4F20103019A5269E9
:103D70005A604FF44063C4F20103019A12691A6059
:103D80004FF48053C4F20103019A9269DA604FF450
:103D90008053C4F20103019A126A5A604FF48053AF
:103DA000C4F20103019AD2691A604FF4A053C4F21D
:103DB0000103019A526ADA604FF4A053C4F201037E
:103DC000019AD26A5A604FF4A053C4F20103019AD7
:103DD000926A1A604FF4C053C4F20103019A126B45
:103DE000DA604FF4C053C4F20103019A926B5A6037
:103DF0004FF4C053C4F20103019A526B1A6002B02F
:103E0000704700BFAFF30080AFF30080AFF30080D6
:103E10008AB0039002910192019B032B03D1039B73
:103E2000029A1A6105E0019B042B02D1039B029ABE
:103E30005A6144F6D063C0F60003019A13441B781C
:103E400004934FF000030693069B0793079B089388
:103E5000089B09934FF00003059335E0089B4FEA58
:103E600003130893099B4FEA03130993069B4FEA38
:103E700003130693079B4FEA03130793029B03F078
:103E80008003002B04D1089B43F00F03089304E048
:103E9000069A049B42EA03030693029B03F4004341
:103EA000002B04D1099B43F00F03099304E0079A08
:103EB000049B42EA03030793029B4FEA43030293E6
:103EC000059B03F101030593059B072BC6D9039BB3
:103ED0005A68099B02EA0302079B42EA0302039B1A
:103EE0005A60039B1A68089B02EA0302069B42EA97
:103EF0000302039B1A600AB0704700BFAFF3008053
:103F000008B5FEF78DFB08BDAFF30080AFF300806E
:103F1000704700BFAFF30080AFF30080AFF30080C5
:103F200082B0019000914FF44063C4F201039B689A
:103F30004FEA933303F00103DBB2002B07D04FF4B9
:103F40004063C4F201034FF001021A6106E04FF42E
:103F50004063C4F201034FF001025A6102B070479E
:103F600082B0019000914FF44063C4F201039B685A
:103F70004FEA530303F00103DBB2002B07D04FF4E9
:103F80000063C4F201034FF002021A6106E04FF42D
:103F90000063C4F201034FF002025A6102B070479D
:103FA00082B0019000914FF40063C4F201039B685A
:103FB0004FEA132303F00103DBB2002B07D04FF4C9
:103FC0004063C4F201034FF400621A6106E04FF44B
:103FD0004063C4F201034FF400625A6102B07047BB
:103FE00082B0019000914FF44063C4F201039B68DA
:103FF0004FEAD33303F00103DBB2002B07D04FF4B9
:104000000063C4F201034FF010021A6106E04FF49E
:104010000063C4F201034FF010025A6102B070470E
:1040200082B0019000914FF44063C4F201039B6899
:104030004FEA133303F00103DBB2002B07D04FF438
:104040000063C4F201034FF004021A6106E04FF46A
:104050000063C4F201034FF004025A6102B07047DA
:1040600082B0019000914FF40063C4F201039B6899
:104070004FEA531303F00103DBB2002B07D04FF4D8
:104080000063C4F201034FF008021A6106E04FF426
:104090000063C4F201034FF008025A6102B0704796
:1040A00008B500F01DF840F69850C2F2000044F642
:1040B0003071C0F60001FDF7B3FD4FF0FF3000F0A6
:1040C0002FF94FF0FF3000F013F94FF0010000F02E
:1040D0003FF94FF0010000F053F908BDAFF3008045
:1040E00008B54FF44063C4F201034FF001025A6176
:1040F0004FF44060C4F201004FF001014FF006029E
:10410000FFF786FE4FF40063C4F201034FF0020292
:104110005A614FF40060C4F201004FF002014FF009
:104120000602FFF775FE4FF44063C4F201034FF43B
:1041300080425A614FF44060C4F201004FF4804164
:104140004FF00202FFF764FE4FF44063C4F2010334
:104150004FF002025A614FF44060C4F201004FF088
:1041600002014FF00202FFF753FE4FF44060C4F229
:1041700001004FF400614FF00602FFF749FE4FF4D3
:104180000060C4F201004FF010014FF00602FFF78B
:104190003FFE4FF40060C4F201004FF480714FF015
:1041A0000202FFF735FE4FF44060C4F201004FF405
:1041B00000414FF00202FFF72BFE4FF44063C4F2C0
:1041C00001034FF480625A614FF40063C4F20103AB
:1041D0004FF040025A614FF40063C4F201034FF004
:1041E00080025A614FF44063C4F201034FF400525D
:1041F0001A614FF44060C4F201004FF480614FF047
:104200000602FFF705FE4FF40060C4F201004FF014
:1042100040014FF00602FFF7FBFD4FF40060C4F2CF
:1042200001004FF080014FF00602FFF7F1FD4FF45F
:104230004060C4F201004FF400514FF00602FFF756
:10424000E7FD4FF40060C4F201004FF020014FF091
:104250000202FFF7DDFD4FF44060C4F201004FF4AD
:1042600080714FF00202FFF7D3FD4FF44060C4F2BB
:1042700001004FF480514FF00202FFF7C9FD4FF4E7
:104280004060C4F201004FF480514FF00202FFF78A
:10429000BFFD4FF40060C4F201004FF020014FF069
:1042A0000202FFF7B5FD4FF40060C4F201004FF0C9
:1042B00004014FF00602FFF7ABFD4FF40060C4F2BB
:1042C00001004FF008014FF00602FFF7A1FD4FF487
:1042D0004060C4F201004FF480714FF00202FFF71A
:1042E00097FD08BDAFF30080AFF30080AFF300800F
:1042F00082B00190019B002B07DD4FF40063C4F2F4
:1043000001034FF040025A6106E04FF40063C4F22B
:1043100001034FF040021A6102B07047AFF3008012
:1043200082B00190019B002B07DD4FF40063C4F2C3
:1043300001034FF080025A6106E04FF40063C4F2BB
:1043400001034FF080021A6102B07047AFF30080A2
:1043500082B00190019B002B07DD4FF44063C4F253
:1043600001034FF480625A6106E04FF44063C4F2E7
:1043700001034FF480621A6102B07047AFF300800E
:1043800082B00190019B002B07DD4FF44063C4F223
:1043900001034FF400525A6106E04FF44063C4F247
:1043A00001034FF400521A6102B07047AFF300806E
:1043B00008B5FDF705FCFCF7B3F800F0C1F900F013
:1043C0000FF8FFF76DFE4FF0030000F0F9F900F071
:1043D0005FF8FCE7AFF30080AFF30080AFF300803D
:1043E00000B583B041F2EC20C2F2000041F2AC21F2
:1043F000C2F200014FF020024FF00003FDF760F918
:1044000041F20C30C2F2000041F2CC21C2F20001B4
:104410004FF020024FF00003FDF752F940F6E05054
:10442000C2F2000044F6D071C0F60001FDF760FC56
:104430004FF44060C4F201004FF040014FF0110210
:10444000FFF7E6FC4FF44060C4F201004FF080013A
:104450004FF01102FFF7DCFC4FF0000300934FF028
:104460000003019340F6E050C2F200004FF001015A
:1044700041F2EC22C2F2000241F20C33C2F200031C
:10448000FDF776FC03B000BDAFF30080AFF3008012
:1044900000B583B041F2EC20C2F200004FF0FF31D2
:1044A000FDF77EF903460193019B8DF8033041F23D
:1044B0002C33C2F200031B78002B37D19DF8033058
:1044C000002B13D141F23033C2F200031B6841F2DA
:1044D0006C20C2F20000194600F052F841F230336D
:1044E000C2F200034FF000021A6039E09DF8033079
:1044F0005C2B13D041F23033C2F200031A6841F250
:104500006C23C2F200039DF80310995402F10102DA
:1045100041F23033C2F200031A6021E041F22C3341
:10452000C2F200034FF001021A7019E041F22C337D
:10453000C2F200034FF000021A7041F23033C2F2AF
:1045400000031A6841F26C23C2F200039DF80310C5
:10455000995402F1010241F23033C2F200031A60B1
:1045600041F23033C2F200031B68202BB4BF1A465D
:10457000202241F23033C2F200031A6003B000BDC2
:1045800000B587B001900091019B1B788DF8133026
:10459000019B03F1010303939DF81330012B02D01B
:1045A000022B1AD01CE04FF0000305930EE0059B90
:1045B000039A13441A7841F28C23C2F2000305993E
:1045C0000B441A70059B03F101030593009B03F153
:1045D000FF32059B9A42EADC02E000F009F800BFD6
:1045E00007B000BDAFF30080AFF30080AFF30080F1
:1045F00000B583B041F26C23C2F200035B780193F3
:104600004FF002030093019A009B9A4201DA019B4A
:1046100001E04FF00003019340F60003C2F20003F3
:10462000019A53F8223041F28C20C2F200009847E0
:1046300003B000BDAFF30080AFF30080AFF30080A4
:1046400000B585B00190019B1B788DF80F309DF867
:104650000F30184600F0B4F805B000BDAFF300808D
:1046600000B585B00190019B1B7803930398FFF779
:1046700087FE05B000BD00BFAFF30080AFF3008040
:1046800000B583B0019040F63453C2F20003DA69FA
:1046900044F63063C0F60003936141F23430C2F255
:1046A0000000FCF735FE41F24433C2F200031A6801
:1046B00041F2F843C2F200031A6041F2F843C2F239
:1046C00000031B6803F00103DBB2002B0CD04FF496
:1046D0008053C4F201034FF48052C4F20102D26845
:1046E00082F48042DA6006E04FF48053C4F20103A2
:1046F0004FF480425A6141F2F843C2F200031B6852
:1047000003F00203002B0CD04FF48053C4F20103DA
:104710004FF48052C4F20102D26882F40052DA608F
:1047200006E04FF48053C4F201034FF400525A6183
:10473000FCF78EFE4FF0FA00FCF70AFDADE700BF74
:1047400000B583B04FF48053C4F201034FF48042AC
:104750005A614FF48053C4F201034FF400525A617E
:104760004FF48050C4F201004FF480414FF0060234
:10477000FFF74EFB4FF48050C4F201004FF400519C
:104780004FF00602FFF744FB41F23430C2F2000062
:10479000FCF79EFD4FF00003009341F24830C2F257
:1047A00000004FF4D8714FF0400244F28163C0F62C
:1047B0000003FCF78DFC03B000BD00BFAFF3008029
:1047C00000B583B0019041F23430C2F20000FCF732
:1047D0009FFD41F24433C2F20003019A1A60FCF7D4
:1047E00037FE03B000BD00BFAFF30080AFF3008021
:1047F00069646C65000000006D61696E0000000076
:1048000053562331000000005356233200000000AD
:104810005356233300000000535623340000000099
:104820005356233500000000535623360000000085
:104830005356233700000000535623380000000071
:104840005356233900000000535623313000000036
:10485000535623313100000000000000000000002A
:1048600022636856545365744922282900000000C9
:1048700022636856545265736574492228290000E2
:104880006368565452657365744928292C20233176
:104890000000000000000000000000000000000018
:1048A000636853636852656164794928292C202321
:1048B00031000000737461636B206F766572666C03
:1048C0006F77000000000000000000000000000002
:1048D00022636854686443726561746549222829BB
:1048E0000000000022636854686453657450726964
:1048F0006F72697479222829000000006368546887
:1049000064526573756D6528292C202331000000E1
:10491000226368546864536C65657022282900001E
:104920006368546864457869745328292C202331BE
:10493000000000002263685468645761697422288B
:104940002900000063685468645761697428292C41
:1049500020233100000000000000000000000000E3
:104960002263684D7478496E69742228290000001A
:104970002263684D74784C6F636B532228290000C2
:1049800063684D74784C6F636B5328292C20233156
:104990000000000063684D74784C6F636B532829E6
:1049A0002C202332000000002263684D747854727A
:1049B000794C6F636B5322282900000063684D74A3
:1049C00078556E6C6F636B28292C20233100000012
:1049D00063684D7478556E6C6F636B28292C2023A7
:1049E0003200000063684D7478556E6C6F636B53D2
:1049F00028292C202331000063684D7478556E6C93
:104A00006F636B5328292C20233200000000000024
:104A100022636845767452656769737465724D6187
:104A2000736B222829000000226368457674556E56
:104A3000726567697374657222282900226368456C
:104A400076745369676E616C222829002263684579
:104A500076745369676E616C492228290000000052
:104A600022636845767442726F6164636173744D4A
:104A700061736B4922282900226368457674446972
:104A800073706174636822282900000063684576AA
:104A900074446973706174636828292C2023310081
:104AA00022636849515265616454696D656F75741C
:104AB000222829002263684F51577269746554692E
:104AC0006D656F7574222829000000000000000049
:104AD00022657874537461727422282900000000E2
:104AE000657874537461727428292C202331000076
:104AF0002265787453746F70222829006578745386
:104B0000746F7028292C20233100000022657874EE
:104B10004368616E6E656C456E61626C6522282922
:104B2000000000006578744368616E6E656C456EC8
:104B300061626C6528292C2023310000226578747D
:104B40004368616E6E656C44697361626C652228AE
:104B5000290000006578744368616E6E656C446975
:104B60007361626C6528292C20233100000000004D
:104B70002269326353746172742228290000000094
:104B8000693263537461727428292C202331000028
:104B90002269326353746F7022282900693263538B
:104BA000746F7028292C20233100000022693263A1
:104BB0004765744572726F727322282900000000E5
:104BC000226932634D61737465725472616E736DE4
:104BD000697454696D656F7574222829000000009E
:104BE0006932634D61737465725472616E736D697D
:104BF0007454696D656F757428292C202331000069
:104C0000226932634D6173746572526563656976BA
:104C10006554696D656F7574222829006932634D8A
:104C200061737465725265636569766528292C2005
:104C30002331000000000000000000000000000020
:104C4000227364537461727422282900736453744C
:104C500061727428292C20233100000022736453D0
:104C6000746F702228290000736453746F702829B0
:104C70002C20233100000000227364496E636F6DA5
:104C8000696E674461746149222829002273645265
:104C90006571756573744461746149222829000047
:104CA00022646D61416C6C6F636174652228290018
:104CB00022646D6152656C6561736522282900006C
:104CC000646D6152656C6561736528292C20233100
:104CD00000000000000000000000000000000000D4
:104CE000226932635F6C6C645F7365745F636C6FC1
:104CF000636B2228290000006932635F6C6C645F7B
:104D00007365745F636C6F636B28292C20233100FB
:104D10006932635F6C6C645F7365745F636C6F634F
:104D20006B28292C202332006932635F6C6C645F2E
:104D30007365745F636C6F636B28292C20233300C9
:104D40006932635F6C6C645F7365745F636C6F631F
:104D50006B28292C202334006932635F6C6C645FFC
:104D60007365745F636C6F636B28292C2023350097
:104D70006932635F6C6C645F7365745F636C6F63EF
:104D80006B28292C202336006932635F6C6C645FCA
:104D90007365745F636C6F636B28292C2023370065
:104DA0006932635F6C6C645F7365745F636C6F63BF
:104DB0006B28292C202338006932635F6C6C645F98
:104DC000737461727428292C202331006932635F67
:104DD0006C6C645F737461727428292C2023320018
:104DE000226932635F6C6C645F6D61737465725FBE
:104DF000726563656976655F74696D656F75742248
:104E000028290000226932635F6C6C645F6D6173F6
:104E10007465725F7472616E736D69745F74696DCD
:104E2000656F757422282900000000000000000052
:104E30006C640000000000000000000000000000A2
:104E4000F11D0008211E0008511E0008711E0008F7
:104E5000911E0008C11E0008E11E0008111F000875
:104E6000411F0008000000000000000000000000DA
:104E7000080002400400024000000B001C00024039
:104E80000400024004010C00300002400400024013
:104E900008020D0044000240040002400C030E0012
:104EA000580002400400024010040F006C00024051
:104EB000040002401405100080000240040002407B
:104EC00018061100000000000000000000000000B3
:104ED000040204080800030708080808080808086E
:104EE0000B0F0000000000000000000000000000A8
:104EF000FFFFFFFF4444444444444444FFFFFFFF9A
:104F00004444444444444444FFFFFFFF4444444475
:104F100044444444FFFFFFFF444444444444444465
:104F2000FFFFFFFF88888888888888880000000045
:104F3000000000000000000007000000613F0008C2
:104F40000000000000000000000000000000000061
:104F500000000000000000000700000061400008A1
:104F60000000000000000000000000000000000041
:104F700007000000A13F0008000000000000000042
:104F80000000000000000000000000000000000021
:104F900007000000214000080000000000000000A1
:104FA00007000000213F000807000000E13F000863
:104FB00000000000000000000000000000000000F1
:104FC00000000000000000001000000000000111BF
:0C4FD00001000000A086010001000000AC
:084FE00041460008614600088B
:0400000508000111DD
:00000001FF
